S00F00006E6F6465746573742E7333377F
S3150000000020E70320FD8F0100FD760000118F01001F
S31500000010A70A02020002000004180FAC006AA6023A
S3150000002000000000000000000000000000000000CA
S315000000300000000040C001000000000000000000B9
S315000000400000000000000000FFFFFFFFFFFFFFFFB2
S31500000050FFFFFFFFFFFFFFFFFFFFFFFFFFFFFFFFAA
S3150000006000E00F000000000000000000FFFFFFFF9F
S31500000070FFFFFFFF0100000000000000000000007D
S31500000080000000000000000074FF032074FF03203E
S3150000009020E70320DEF1010082900100C0DD03208D
S311000000A0D8100020000010000000000036
S3150000020020E70320FD8F0100FD760000118F01001D
S3150000021099BE0000158F0100198F01000000000033
S31500000220000000000000000000000000371200007F
S315000002301D8F0100B30D0000EF550000136B000089
S3150000024005C000006D170100AF160000258F0100E4
S315000002505D120100A5170100731701007517010053
S315000002606F1701008B4E0100C9F4000027F700004C
S31500000270E36E0000258F0100258F0100F98C010037
S31500000280258F0100258F0100D7F40000258F01007E
S31500000290258F0100258F0100258F0100258F010084
S315000002A0258F0100258F0100258F0100258F010074
S315000002B0A7170100711701004F540100DB17010059
S315000002C0258F0100298F0100258F0100258F010050
S315000002D0258F0100258F0100258F0100258F010044
S315000002E0258F0100258F0100258F0100258F010034
S315000002F0258F0100258F0100258F0100258F010024
S31500000300258F0100258F01000000000050410348A1
S31500000310016830BF41F000410160704700BF4C31B9
S315000003200E401248816B89B201B1012141F671324A
S31500000330826346F21A32036843F001030360C26423
S315000003404FF4807343604269D307FCD44FF40072C4
S31500000350420C00180022C264C9B203685B085B0045
S31500000360036001B182630020704708000E40000060
S3150000037070472DE9FC47DFF8E445DFF8E4950FF216
S31500000380D86ADFF8E08505462078494600F004FD86
S315000003900FF2DC6000900027B8A611E0314600F0AD
S315000003A0FBFC0BE0936812680FF2BC6100F0F4FCF2
S315000003B000F06AF9F2D0009900F0EEFC7F1CBFB2A3
S315000003C0286800EB07122078516849B14145E9D108
S315000003D05169002918BF4145F0D012685146EBE734
S315000003E009F17C0100F0D8FC207809F1A40100F0A5
S315000003F0D3FC207809F1D40100F0CEFC207809F571
S31500000400807100F0C9FC20783146BDE8FC4700F059
S31500000410C3BCA0F141011A293CBF2030C0B27047CD
S315000004202DE9F84F06460024B168DFF830750D68EF
S31500000430EDB2284600F04DFD5FFA80F9B9F1200FC4
S31500000440A04607DD3878DFF82015BDE8F84F2022F2
S3150000045000F0A2BC284600F024FD8246002506E0F6
S315000004601AF80500FFF7D5FF0AF805006D1C4D4583
S31500000470F6DB4A460FF20061504600F0CDFE40B969
S315000004804FF0010805E038780FF2F4515A4600F0B3
S3150000049083FC32682101101D4058002840D0DFF847
S315000004A0C454641CA842A4B2F3D152F801B0B8F106
S315000004B0000FE8D1584600F0BFFE4845E9D14A464C
S315000004C05146584600F0A8FE0028E2D1A2466BA489
S315000004D00FF29C580FF2B05918E0214600F05CFC70
S315000004E010E001EB0B00836802683878494600F09B
S315000004F053FC30685844C2683878002AEDD041462B
S3150000050000F04AFC0AF101001FFA80FA31684FEA4E
S315000005100A1B081D50F80B00002818BFA842E0D19E
S31500000520BDE8F18FF8B5044688B0A068016801B14E
S315000005300121DFF838542970406800B10120DFF846
S315000005403064DFF830743070384601F07EF8A06809
S31500000550C16801B10121006900B10120DFF818244A
S31500000560DFF8183411701870C9B2C0B2079005913F
S3150000057043A30FF234500FF2285106900491012242
S3150000058030780FF21451029303920190009104F116
S3150000059011012B780FF2F84207F1280001F055F807
S315000005A009B0F0BDDFF8D813007CDFF8B03351F89E
S315000005B0202018780FF2F84100F0EEBB38B5DFF8CE
S315000005C09C4320782DA5294600F0E6FB2078DFF82D
S315000005D0B41300F0E1FB00F002FA00F0FBF920781A
S315000005E028A100F0D9FB00F0EFF920780FF2E841DE
S315000005F0BDE8344000F0D0BB2DE9F24F05469246E7
S315000006002E6B002713E01DA100F0C6FB0CE08B68E3
S315000006100FF25441D14C00F0BFFB00F035F8F2D098
S315000006200FF24C4100F0B8FB7F1CBFB21036706869
S3150000063008B3D6F80080DDF8009000240BE019F826
S31500000640010BFFF7E6FE834618F8010BFFF7E1FE04
S315000006508345E9D1641CA0B25045F0D3BF4B28684E
S3150000066000EB071118784C68BE4B0A689C42CED145
S315000006700FF2E431D6E7BDE8F18F00000D0A000065
S31500000680746167002C200000286800EB0710C26820
S315000006902078002A704700002DE9F043ADF5017D72
S315000006A0B94F01A839464FF4807200F0EDFF4FF0C4
S315000006B000098DF80190A52001F02FF801F076F8D9
S315000006C000F078FB00F071F9002001F0C5F95FEA4F
S315000006D0000805D000F064F9002001F0BDF980465D
S315000006E000F063F9012001F0B7F9060005D000F02B
S315000006F057F9012001F0B0F9064600F056F902203C
S3150000070001F0AAF9050005D000F04AF9022001F02F
S31500000710A3F9054601F01CFAB8F1000F8F4C0CD076
S31500000720002E00F08080002D00F0818040F207212D
S315000007300FF2AC3001F012FA04E0002E18BF002DC3
S3150000074000F0798084F80090201D01F03CFB7FA525
S3150000075020780FF29C36294600F01EFB207807F51C
S31500000760807100F019FB00F03AF900F033F92078B7
S3150000077077A100F011FB00F027F920780FF258312D
S3150000078000F00AFB814801F053FD00F030F92078B3
S315000007909EA100F001FB0FF2BC1800F024F9201D09
S315000007A001F0CAFF00F023F994F800009AA100F0C6
S315000007B0F3FA00F018F9201D03F01AFC00F017F9FF
S315000007C094F8000097A100F0E7FA00F00CF9201D5C
S315000007D003F02CFC00F00BF994F8000094A100F053
S315000007E0DBFA00F000F9201D03F042FC00F0FFF8F0
S315000007F094F8000091A100F0CFFA00F0F4F8201D63
S3150000080003F04BFC00F0F3F894F800008EA100F022
S31500000810C3FA00F0E8F8201D04F06FFB4EA60FF2B5
S31500000820D82841AF3EE035B1012020708CE7022187
S31500000830217089E725702078FF28FAD100256946BE
S31500000840E8B201F04CF938B99DF800000D2818BF40
S315000008500A2818BF2A28EDD06D1CE9B20329EEDB61
S31500000860E9E78DF800109DF80020B85C511C0A28B5
S3150000087018BF0D2818BF0028F3D10D20B8548DF8E5
S31500000880001041A99DF80020201D01F0A7FA9DF84F
S31500000890002041A901A800F0F7FE9DF80090002075
S315000008A08DF8010000F08BF820780DF10103FF228E
S315000008B041A901F019F9002846D000F02BFF01F0FC
S315000008C08AF803F087FF9DF8010010B341A9084498
S315000008D010F8011C09291CD100F081F89DF80100CF
S315000008E0411E8DF8011041A99DF80120201DFFF73A
S315000008F083FE9DF801100020785400F060F8002077
S3150000090004E000F057F89DF80000401C00F040F8A5
S31500000910F7D39DF804012128C6D100F060F84A46B5
S3150000092001A941A800F0B0FEA9F101008DF801006F
S3150000093000F045F8002000F02BF8B5D200F03AF8A8
S315000009409DF80000401CF6E700218AE70D0A00002A
S315000009502C2000005D0D0A002563000084E70320BB
S3150000096058A401007103000084A50100EEEB0320EA
S31500000970EFEB0320C8A50100F0EB0320F1EB032009
S3150000098058E903202CA701002CA601009BA7E931FA
S315000009908DF800009DF801109DF800008842704710
S315000009A0012300224FF416417047012300224FF421
S315000009B0E13170473A5C2078314600F0EDB94146A6
S315000009C0207800F0E9B9000094F800003FA100F09B
S315000009D0E3B9000094F8000039A100F0DDB92078F1
S315000009E0294600F0D9B92078414600F0D5B92078DB
S315000009F0314600F0D1B980B504F097FBBDE802405E
S31500000A00002049E60020704704F0C3BE696E697491
S31500000A10546F6B656E7300006372617368696E660E
S31500000A206F0000007265736574737472696E670097
S31500000A30696E6974526164696F000000736565646C
S31500000A40506E7267000000007365745065725465DD
S31500000A5073745478000000002D2D2D2D2025702054
S31500000A602D2D2D2D0D0A000020202570202570002B
S31500000A70202D2025700D0A006D6F64756C6573005E
S31500000A8025700D0A0000000025702025700000006A
S31500000A906865616465720000636F6D6D616E640008
S31500000AA064656C696D000000746578740000000070
S31500000AB04349204572726F723A2025700D0A000074
S31500000AC041707220323820323032310031373A31BB
S31500000AD0303A3038000000000D0A0D0A0000000010
S31500000AE0706C6174666F726D746573742E6300004A
S31500000AF05B494E49542000000D0A3E2000000000CC
S31500000B0070B5134610440BE001F00F060909451EA7
S31500000B100A2EACBF37243024A41928462C705B1E3D
S31500000B20DCB2002CF0D1104470BDF0B5002341B109
S31500000B30002806D52D2313700123B0F1004F18BFEE
S31500000B40404200210024934D55F82470002601E010
S31500000B50C01B761CB842FBD2F7B20FB90F0004D007
S31500000B60D9B2303656545B1C0121641C092CEBDBD0
S31500000B70D9B2303050545B1CD8B2F0BD2DE9F84FD5
S31500000B80804696B014A8894615469B4604AF4FF09A
S31500000B90000A002401901EE0012405460DE03429D8
S31500000BA0FAD15BF8046B0422310C3846FFF7A8FF34
S31500000BB00422B1B2FFF7A4FF074601998F4209D379
S31500000BC09DF800003F1A00F0C5F8002853D15AFAE4
S31500000BD087FA04AF6D1C04A88DF800009DF800008C
S31500000BE02978381A00290BD0252903D014B907F81B
S31500000BF0011BE2E7002C14BF00246D1C29780A00B3
S31500000C0000F09B80B1F1250216D00B3A092A40F27A
S31500000C108380283A7AD00A3A12D0521E42D0521E07
S31500000C205CD0083A5AD0121F3FD0D21E3DD0921E39
S31500000C3054D0D21E6AD0C0E7252007F8010BBCE7C6
S31500000C4004A8DBF80010DBF804208DF800000BF197
S31500000C50080B3846039102920027029A9742ABD2BC
S31500000C600399C95D0222FFF74BFF0199884206D31B
S31500000C7000F074F8002869D15AFA86FA04A8029995
S31500000C80491E8F423CBF202200F8012B0199884261
S31500000C9006D300F063F8002858D15AFA86FA04A859
S31500000CA07F1CDAE75BF8040BC7E75BF8046B0746C3
S31500000CB000F050F8002849D15AFA87FA04AF00220A
S31500000CC0314600E0521CD6B2885D0028FAD1D2B275
S31500000CD04846C047002839D1B2446EE76C290AD18C
S31500000CE06A785BF8040B752A0EBF00210121642A7D
S31500000CF007D16D1C05E075295BF8040B0CBF0021BC
S31500000D0001213A46FFF711FF074456E75BF8041B3B
S31500000D100222C9B238464DE768780124782818BF00
S31500000D205828F2D16D1C0024681E32297FF437AF93
S31500000D305BF8040B81B20422ECE70546EAB200F048
S31500000D400AF818B9AA445FFA8AF000E0002017B042
S31500000D50BDE8F08FFAB204A9484640479DF8002046
S31500000D60861AF2B204A94846404709A114E00CB419
S31500000D7038B5044604AA00F017F8054604A1204633
S31500000D8000F00AF8284632BC5DF80CFB00000000B3
S31500000D900D0A0000B4D101000CB480B502AA00F01F
S31500000DA003F802BC5DF80CFB80B506F043FBC0B24D
S31500000DB002BD704710B5DFF83804DFF8301400685C
S31500000DC0DFF83024C860136848615B0800EB430411
S31500000DD00C6118B100F00AF8652806D2BDE810408B
S31500000DE0B0210FF2204000F0B9BE10BD10B5DFF8FB
S31500000DF0FC4320696269904202D2C62100F0CDF818
S31500000E002069626900E0E268801A4FF6FE710840C8
S31500000E1010BDDFF8D813CA68904203D349698842E7
S31500000E2000F05CB90020704780B510B1FFF7F1FF04
S31500000E3000B1012002BD30B1DFF8B023D168401AFD
S31500000E404010401C80B27047010001D1002070475D
S31500000E50DFF89813CA6802EB4000801E704740888E
S31500000E60C0F30C00C01C80084000001D80B2704713
S31500000E7010B50446FFF7F3FFDFF870134A6904EB79
S31500000E8040004FF6FF7400E0801C904202D20388B7
S31500000E90A342F9D010BD80B5FFF7D6FFBDE80240EA
S31500000EA0C2E710B5040012D0FFF7F5FF18B940F2FB
S31500000EB07A4100F072F82046FFF7C6FF38B1018884
S31500000EC00A0402D5D0F80A0010BD083010BD002073
S31500000ED010BD10B5010013D0FFF7B6FF0446FFF7AB
S31500000EE0A3FF18B940F2944100F057F844B12088A6
S31500000EF0010401D5208910BD6088C0F30C0010BD27
S31500000F00002010BD2DE9F04100F044F804003FD068
S31500000F10FFF78AFF0FF2EC2718B940F2A74100F05D
S31500000F2078F82846FFF7D5FF80462046FFF7A0FF52
S31500000F30464505462CD003DB40F2AF4100F069F888
S31500000F402088010448BF268122D466802046FFF708
S31500000F5086FF04EB400406F08DFBDFF890124A6929
S31500000F602E1BB6B2954204BF4C61002606F088FBE4
S31500000F70082E06D231462046BDE8F041FF2206F093
S31500000F809FBB0821204606F0A5FBA6F1080060805D
S31500000F90BDE8F08105460E4656E70FF2682000F0E0
S31500000FA0DDBD38B50D46FFF74FFF04000AD0FFF749
S31500000FB03BFF18B940F2EC41FFF7EFFF04EB4500A9
S31500000FC0808832BD002032BDF8B50D461646FFF7C3
S31500000FD03BFF04000FF22C2714D0FFF725FF18B9AA
S31500000FE040F2F74100F015F83046FFF72DFFFFF706
S31500000FF01BFF18B94FF49F6100F00BF804EB450096
S315000010008680F1BD3846BDE8F44040F2FB4100F071
S31500001010A5BD384600F0A2BD2DE9F84F8846C11C93
S315000010208908DFF8C85149000027091D2E690FF20B
S31500001030D41AB0F5005F04461FFA81F904D340F2D2
S315000010402751504600F08AFD06F014FB8346696975
S31500001050E86908B9711A03E05FEA080202D0411A8A
S315000010604E1009E0301A4010064680B220B940F210
S315000010704D51504600F072FDB6B24E4514DB6F6915
S3150000108007EB49006861E86928B1B8F1000F04BFB1
S3150000109000EB4900E86100207C80B880F880388049
S315000010A00834298964182C81584606F0E9FA38462E
S315000010B0BDE8F24FBFE670B504460D461146284618
S315000010C0FFF7AAFF06463CB1300005D0FFF7E9FE60
S315000010D02A46214606F002FB304670BD8041C00F0D
S315000010E070472DE9FE4F04468846208816469B46E3
S315000010F0FFF7AAFE0746FFF797FE18B940F28D6183
S31500001100FFF74BFF38880104354603D538892D187B
S315000011103D8167E000F074F8019000F06DF88146BB
S3150000112006F0A8FA00968246304E706981451DD1B8
S31500001130FFF75CFEA84203D2504606F0A1FA21E072
S3150000114001982D18BBF1000F7D8008D02088FFF78D
S31500001150A8FE019B009A4146184400F095FA00F05B
S315000011604BF87061504606F08BFA3BE0504606F0AD
S3150000117087FA00F045F82D180021A8B2FFF74CFFBA
S31500001180070001D11A202EE000F03AF80546208823
S31500001190FFF787FE06463846FFF783FE2A463146A6
S315000011A000F072FABBF1000F384609D0FFF779FE5E
S315000011B000F025F8009A4146284400F065FA07E059
S315000011C0FFF76FFE00F01BF80099284406F082FA3C
S315000011D020880121FFF7E5FE024601213846FFF788
S315000011E0F3FE27800020BDE8FE8F000068F703208D
S315000011F024E8032028E803203846FFF739BE0546D1
S31500001200208866E66275666665722D6D616E616739
S31500001210656D656E742E630003000020521E22BFAA
S3150000122013F8010B11F801CBB0EB0C00F6D0521CF1
S3150000123008BF10467047FEE700F1010310F8011BD6
S3150000124011B110F8011BFBE7C01A704738B5044608
S31500001250651D206A2368451B2079EAB2611D9847FF
S3150000126008B1002032BD94F829002D18611D84F8BC
S3150000127029502162012032BD38B50446002500E020
S315000012806D1CE8B2085C0028FAD120792368EAB21E
S31500001290984730B994F829002D1884F82950012070
S315000012A032BD002032BD2DE9FE4F0546681D28627D
S315000012B00E4605F1150100209146696285F8290060
S315000012C00FE02A6224B100F0A1F97D2001F8010D9A
S315000012D0286A696A884203D300F0A6F900286ED00E
S315000012E0761C3178002900F08681DFF88C0340787F
S315000012F0252918BF262917D07B291CBF7D2923291C
S3150000130007D10028E4D0286A401C286200F8011D95
S31500001310DEE7DFF8642390780028D9D02A6A521CC9
S315000013202A6202F8011DD3E716F8013F252B18BFE4
S31500001330262B04D100F06AF901F8013DC8E72629F9
S315000013400BD150B101246E2B18BF4E2B12D000F0DA
S315000013505DF97B2001F8010D00E0002430784E286D
S315000013604FF0000A06D0542826D06E2802D07428E2
S3150000137022D035E0DFF80013087859F8047B0028FE
S31500001380A6D0200006D0286A7B210170821C2A6222
S315000013902823437000F048F9002810D000F033F9F4
S315000013A000280CD0002C93D0286A29210170821CB9
S315000013B02A627D2343708BE700F034F9002875D04C
S315000013C000F021F9002871D000F02EF900286DD028
S315000013D000F01CF93A2001F8010D4FF0010A761CC5
S315000013E030787378A0F13001C9B2881E05282DD255
S315000013F0642B18BF752B29D159F8040B002201273D
S3150000140080B2642B804605D1030403D5C043401C3B
S31500001410012280B238B10A2390FBF3F0521C80B24D
S315000014200028F8D100E0521CD5F820B0D2B2881AB4
S315000014308A42009006DA00992022584606F040F9C2
S3150000144000988344C5F820B0761C00E00027317868
S31500001450701E0A0000F0C480322918BF342900F03B
S315000014609D80482906D058290FD0632910D06429B9
S315000014701FD0682900F087806C2956D0702918BFC4
S3150000148073290CD0752914D0782900F07E80ACE041
S31500001490286A411C296259F8041B017012E700F002
S315000014A0C1F818B100F0AFF80028F7D10020BDE868
S315000014B0FE8FD5F820E0002F12BF1FFA88F059F8EA
S315000014C0040B80B2724628B930200EF101028EF864
S315000014D00000F6E6002364290CD101040AD52D2765
S315000014E0B0F5004F0EF101028EF8007002D04042B6
S315000014F080B268B14FF00A0E90FBFEFE0A2101FB96
S315000015001E00D9B25B1C0DF801001FFA8EF0F0E741
S315000015101846431EC0B200281FBFD8B21DF80000EF
S31500001520303002F8010BF3D1CBE6296A59F8040BE7
S315000015300A4618B930204A1C0870C2E60023002863
S3150000154007D54A1C2D27B0F1004F0F7001D040423D
S3150000155060B14FF00A0EB0FBFEFE0A2101FB1E0031
S31500001560D9B25B1C0DF801007046F1E71846431E20
S31500001570C0B200281FBFD8B21DF80000303002F8F4
S31500001580010BF3D19DE600F045F8022259F8041B41
S31500001590286AC9B2FFF7B4FA286293E616F8010F73
S315000015A0682818BF48280BD100F034F816F8011C3B
S315000015B0286A32290AD159F8041B042289B2E9E7BC
S315000015C0782818BF5828F1D0761E7BE659F8047B98
S315000015D00422390CFFF794FA28620422B9B2D9E73B
S315000015E0BAF1000F01D106466CE6BAF1000FFBD046
S315000015F0691D2962F7E700F017F800283FF456AF97
S3150000160095F8290053E73946284635E6296A491CE4
S3150000161029627047286A30210170821C2A62782369
S315000016204370704759F8047B28460FE60EB410B590
S31500001630124A014610788BB0002428B1104A00F0F7
S3150000164013F800B9012420460AE00EB410B50C4A7E
S315000016508BB0014600F008F8002400B901242046AA
S315000016600BB010BC5DF810FB0648137800908DF89F
S3150000167004300DAA684616E6EFEB0320EEEB0320D6
S3150000168084E70320617400004AB1000011F8013BB1
S31500001690521E00F8013B1CBF11F8013BF8E77047EA
S315000016A0890001EB401101F184410868704706F09A
S315000016B025B800007FB50121334806F0F9F801226C
S315000016C00121012006F0BCFB0421072006F0D4FC12
S315000016D033A292E838006946032281E838000D21DA
S315000016E08DF8081001268DF809208DF800608DF818
S315000016F007606946254C204606F02CFD2449042047
S3150000170008600222234962620860A26A42F002026D
S31500001710A2627FBD1D4806F011BDA52803D1002198
S315000017201A4806F0F2BC70471848006800F001003D
S315000017307047194908680028FCD1704738B5044637
S315000017400D4600F016F804F00F01034624052A465C
S31500001750200E01B0BDE8304006F0A5BD00F00F0137
S315000017600005000E30220D4B50431A1802F11C00E2
S3150000177096E700F00F010005000E3022074B50439C
S315000017801A1802F10C008BE730253E0000200540B8
S3150000179080E200E000E100E00820054000A00040F3
S315000017A001000000000000010F00000010B501213B
S315000017B09148924C06F07CF8914801210160002086
S315000017C006F02DFD012304220221052006F06BFD03
S315000017D0012006F0B1FD00F010F806F0F8FD01203A
S315000017E0207006F0E9FE01234022211D96A006F096
S315000017F0AEFE84490860C00F10BD70B501220121FC
S31500001800042006F01DFB8048804C0168804D814E07
S3150000181041F0010101600021C26842F08072C2609D
S3150000182002227D482060296031607C487C490A603C
S3150000183006F075F87B497C4A7C4B0818B0FBF2F041
S31500001840401E1860002129644FF480727848794957
S3150000185020653160784802602B6843F480732B6002
S3150000186070BD38B505F006FF644D297800240229BD
S3150000187012BF01240321297005F002FF04BB65484D
S315000018800168CA070ED56D490B6823F440630B60E7
S31500001890016849084900016002681102FCD464200D
S315000018A006F0A7FE00220021042006F0C9FA5C49D2
S315000018B0614B0020086018600122534908602A70B5
S315000018C031BD5148006800B10120C0B27047D12235
S315000018D002704170090A817059490A78C270042061
S315000018E0521C0A7070472DE9F24F84B007460878FB
S315000018F00024052868DB401D8DF80000002606F050
S31500001900E9FE02904FF6FF789DF80000DFF834916B
S31500001910DFF8FCA03C4D019003971DE00398801969
S31500001920414610F8027C384606F008FF80465E46BF
S3150000193038480168CA070FD5E86840F08070E8604B
S31500001940DAF8001041F48071CAF80010D9F80000E6
S315000019500028F1D089F80070296879B39DF8001045
S31500001960F0B288422AD206F0B5FE0299401A80B239
S3150000197040F2F512904226DAF0B210B95B27012642
S31500001980D6E7012804D19DF80000471F0226CFE7BD
S31500001990019806F1010BF6B2C01E864208BF474603
S315000019A0C5D00198801E864208BF4FEA1827BED0D0
S315000019B00198401E8642B1D15D27B8E79DF8000028
S315000019C0F6B2864200D0012404990420087005B0BE
S315000019D02046BDE8F08F80B50A4B186890B04022CB
S315000019E0694606F09AFD20B1C2B26946122006F099
S315000019F08DFF11B000BD000000350A0004F703207A
S31500001A001088144220E80320F0ED00E0B00F00E05B
S31500001A10000E00E0800E00E055CEACC506000E00BC
S31500001A20F00004E0FCAC0600F8590D00100004E0DC
S31500001A30FF0300400D000100040304E0001000E075
S31500001A406CFF0320200000E073696C616273767599
S31500001A50617274646F776E002DE9F041044690461A
S31500001A60012522008AB00F461E4606D0012C1DD045
S31500001A70102C02D0202C19D01EE0002105F0C4FA4B
S31500001A800546012C18BF202C08D0022C18BF212C8B
S31500001A9004D0032C1CBF222C232C1AD1012E019713
S31500001AA0ADF80C800AD14FF480500BE06846264909
S31500001AB02822FFF7E9FDE4E701200BE0022E03D11F
S31500001AC04FF44050ADF80A006946204605F09CFAEE
S31500001AD00546E8B20AB0BDE8F08105F05ABB80B50C
S31500001AE005F062FBC0B202BD80B505F0ACFBC0B22A
S31500001AF002BD7CB5044600200D4616468DF8000052
S31500001B0001E0FFF707FE6B46324629462046FFF7FF
S31500001B10EBFF0028F5D176BD80B505F01BFCC0B201
S31500001B2002BD80B505F032FDC0B202BD0CB480B571
S31500001B300A46014602AB0548FFF720F802BC002022
S31500001B405DF80CFB000000008CD101002B75000035
S31500001B50002080F31188704742DE704738B504468E
S31500001B600D4604F075F9FFF7D5FD06F02FFF29465F
S31500001B70204606F0F5FD2B464FEA040275A101202A
S31500001B80FFF7D4FF29462046BDE83440E4E768481D
S31500001B902DE9F843674E0168B1654FF42068026A83
S31500001BA06549F2650B68336649687166426AB266D2
S31500001BB0816AF166C26A3267016B7167806B96F85B
S31500001BC03810B06748074CBF346CF46B06F01EFF44
S31500001BD0002232658442594B014624BFA3F12007F7
S31500001BE0A742A146716506F19002DFF854C1DFF8FD
S31500001BF054E118D3A0697064E469B464B56DC5F3A3
S31500001C000805062D13D1704511D360450FD2008803
S31500001C104DF64264A0420AD17068B4685060946080
S31500001C2040F2017803E000247464B46481464648B7
S31500001C30814202D2014600E0091D0846984203D2BD
S31500001C400C68B4F1CD3FF7D04049081AF064002182
S31500001C50002006F17C04C5B2401CC7B244F825102A
S31500001C60062FF8D3002099452CD253F8041D714550
S31500001C70F9D36145F7D2CC07F5D5002406F17C05EA
S31500001C8055F824708F4202D0641C062CF8D3062C1B
S31500001C90E9D1C4B2002C0CBF0520401E06F17C041D
S31500001CA0C5B244F82510DEE7F16F002306F17C0586
S31500001CB006EB8304D4F8804045F823405B1C042BD4
S31500001CC0F6D911600146481EC9B20029ECD1B06DA3
S31500001CD0C0F30800032810D0042811D0052812D01C
S31500001CE0062813D00C2817D0122818D118480268D5
S31500001CF0910719D540F2025816E040F6012813E084
S31500001D0040F6022810E040F603280DE0B8F5206FF3
S31500001D100AD140F6042807E040F6052804E018B189
S31500001D20432838BF40F607284046BDE8F283000046
S31500001D3004ED00E00000002000E300E020E70320BF
S31500001D4082900100700300009C00002020E7032021
S31500001D501C2005400D0A5B4153534552543A2570E9
S31500001D603A25645D0D0A00002DE9F14181B0FFF7C7
S31500001D70B0F8C4B200250026E00748BF002020D4F2
S31500001D800027DFF8AC8314E0160111E0BDF804006B
S31500001D90F9B206F08CFE18F80020F80702F00F02E0
S31500001DA0F2D5BDF804003243E9B206F098FE6D1C88
S31500001DB07F1CF8B2A042E9DBE9B201A806F030FECA
S31500001DC00120BDE8F68100F1240100224A80C27399
S31500001DD0C2830A7082730068C86070472DE9F74FA6
S31500001DE082B0054600208DF8010005F1240608E0C2
S31500001DF0687B70720122EA7329469DF8000000F0A4
S31500001E00AEF903980027002460BB9DF810006946D0
S31500001E10FFF765FE002839D0262826D0012128465E
S31500001E2000F08FF978208DF80000A04610270021D9
S31500001E308DF80110E97B0829E3D8DFE811F00A00E4
S31500001E404A008D00E900E90040014C01AC009D000C
S31500001E50D7E7102FCCD09DF80000232835D10821D4
S31500001E60E973CEE79DF8100020B99DF8010005B092
S31500001E70BDE8F08F0398401C039010F8011D9DF8F3
S31500001E8010008DF80010411E8DF81010A0469DF828
S31500001E90000067280ED29DF80010A548405C00F0AF
S31500001EA0300700F00F08400607D5717A884504DA36
S31500001EB0012402E07B2838BF10279DF800000A287D
S31500001EC018BF0D28B3D10121B2E7202F99D00320E6
S31500001ED029E1102F1CBF9DF800005F2800D01CB11F
S31500001EE030780C28F3DA87E7202F18BF302F3FD140
S31500001EF0327805F11101002088544FF00009F0688E
S31500001F0001900DE01AF8010B00F022F91BF8011BF5
S31500001F1081420CD0019800F1100109F101090191EB
S31500001F200199486820B3D1F800A005F1110B9BF880
S31500001F3000000028E6D19AF800100029EAD1A5F899
S31500001F401E90F068E98B00EB011200219068286270
S31500001F50A97331700222EA73002C687B70722FD04D
S31500001F602B203072C6F804800421687B707277E7F4
S31500001F700321284600F0E5F89DF80100002809D065
S31500001F80287C20B16968284688470020287428469E
S31500001F90FFF719FF35E79DF8010018B1284600F054
S31500001FA0EAF8F4E79DF80000232805D1284600F05A
S31500001FB0E2F80820E87324E7202FFCD00420B2E0E2
S31500001FC09DF800002D2818BF2B2804D1307200215F
S31500001FD071600321C9E722280AD100210020FFF7FA
S31500001FE01BF8002870800BD000F0A6F80520E1E76A
S31500001FF07B28D0D100210020FFF70EF80028708042
S3150000200000F0908000F098F810207072062127E703
S3150000201044B17068717A042201FB0088EA73C6F83D
S315000020200480EEE69DF80000782818BF582804D1F1
S31500002030706810B910217172E3E69DF800007428EB
S3150000204018BF542803D1706808B90A21F3E7032999
S3150000205056D0202F18BF302F52D1296A08784A78D7
S31500002060337A71682D2B08BF4942752808D1342A66
S315000020701AD00020312A14BF4FF6FF72FF220FE05C
S31500002080732808D1312A07BF6FF07F007F222948C5
S3150000209047F6FF7204E00421284600F052F86BE789
S315000020A08142A8BF8A4208DB0222284600F082F855
S315000020B00028F4D00220E8734EE70621ECE79DF8ED
S315000020C0000022281ED10021284600F08BF80028A7
S315000020D0B2D002206EE79DF800007D280DD17088F1
S315000020E0FFF742FE04460121284600F07BF808B1BE
S315000020F00220E873002C9FD102E0202F9CD00CB95F
S31500002100072010E07088FEF7E4FEFF2808BF0820CD
S3150000211009D001230122694605F12600FEF7E1FFF9
S31500002120002889D002208DF800009DF8001020E7D5
S31500002130C8D201000080FFFF002105F1260006F04D
S315000021406FBC027C1AB90823C37301745FE0704741
S31500002150A0F141011A293CBF2030C0B2704738B502
S315000021600C4694F82450FFF7F3FF61196D1C487470
S3150000217084F8245031BD10B50446216A087830B180
S3150000218062280CBF01200220085C2A2807D1216B97
S31500002190E28B01EB021320465968884706E00420CB
S315000021A02074204661688847002020742046BDE8D8
S315000021B010402CE010B5837B047BA34204D105219B
S315000021C0FFF7BFFF002010BD846844F82310817B11
S315000021D0491C8173016A8B5C2A2B1CBF891801621A
S315000021E0012010BD80B5026A1378622B04D0042149
S315000021F0FFF7A7FF002002BDC38C03F0FF030022F8
S3150000220003EB0121C2840122BDE80840D2E7837BAB
S31500002210002100E0491CCAB29A42FBD30022C18CBD
S31500002220827301B1C284704700B10C307047FBE77E
S3150000223006F096BC38B50D460446002102F074FF40
S315000022402946204606F003FE08B1002032BD20468E
S3150000225032BD70B50D00064614BF0124002462226B
S315000022601F21204608F012F9284606F098FC0020A7
S3150000227086F8B8003067F56650221F21204608F020
S3150000228005F94FF6FF74002001E0401CC0B2E96872
S31500002290884209D2AA681C2111FB00F11144C989A0
S315000022A0A142F2DA0C00F0D1DFF83C030021016014
S315000022B041603046214600F0D5F8204670BD704793
S315000022C010B5044606F060FE002C0CBF002004F199
S315000022D00C00806F0100DFF8101308BFDFF80C0355
S315000022E0886010BD38B500F0C9F9054606F004FF50
S315000022F0012801D0022032BD21462846BDE83440DF
S3150000230006F096BEDFF8E0020068704710B50C468E
S3150000231006F0A2FE1CB106F0EFFE0128FBD1DFF8A5
S31500002320D0225368BDE8104000210320184743F22D
S31500002330C922904228BF43F2C820704710B5040056
S3150000234001D1002010BDFFF7F2FF652801D26420FD
S3150000235010BD2046BDE81040E9E738B50C460546F5
S315000023602088FFF7EBFF20806088FFF7E7FF60809B
S31500002370A088FFF7E3FFA080E088FFF7DFFFE0809B
S3150000238043F2C922208943F2C821904228BF084659
S3150000239020816089904238BF014661812846FFF757
S315000023A046FF2146BDE8344007F03CBF2DE9F04B1F
S315000023B0026F1AB103898AB29A4250D0C46E002CB9
S315000023C01CBFA268002A01D0E26812B90320BDE84A
S315000023D0F08BD0F8808000258B46A946002706465C
S315000023E0002102E009F101091C37E068814524D289
S315000023F0A268D0191FFA8BF2C3899A4222BF028AB9
S315000024001FFA8BF39A42EDD305465FEA0800B5F949
S31500002410122003D0B6F9F00082420EDAFF2047F60A
S31500002420FF739A4205D096F8AC10A6F10C0008F09E
S315000024303DF8727990420146D4D30C4615B9012075
S31500002440BDE8F08B5FEA080004D000232A4600218D
S315000024503046C047A6F808B0356786F8B540002074
S31500002460BDE8F08BF0B581B004460D4608F088F85B
S315000024700646A9B22046FFF799FF070006D10023BA
S315000024800022A9B2204600F01FF80746304608F0A1
S315000024907BF8384601B0F0BD12B581B0D0F8804067
S315000024A021000BD1417990F8B5309DF8042099426E
S315000024B088BF194607F0BBFA02B010BD01AB002277
S315000024C00021A04702B010BD2DE9F04F81B00546AE
S315000024D00F4614469A4607F06DFF434EB6F80CB009
S315000024E04FF0000807F092FFC14618B1C6F8048005
S315000024F007F085FF286F7168884213D190B1B8B292
S3150000250058450FD15FFA8AF000281CBFE4B2002CB0
S3150000251064D05FFA8AF12846FFF7BEFF404601B055
S31500002520BDE8F08F06F0E8FD012803D00121012067
S31500002530FFF7ECFE3068E8B1EA6E90420BD17168A5
S3150000254049B12B6F994206D1B8B2834518BF4FF0F7
S315000025500109E4B217E0016861B11268914209D13C
S31500002560296F0A687168012411B1096891420AD07D
S31500002570416804E0286FE96E02680968012428466C
S3150000258007F07FFD80465FFA8AF12846FFF784FF51
S315000025905FEA08000ED1E86E3060B9F1000F296FCE
S315000025A0716008BF002C19D0BFB2F760284607F04B
S315000025B097FA804694B1B8F101008041C00F4FF4FC
S315000025C02772332107F062FF5FFA8AF1284607F087
S315000025D067FD296FB268A5F10C009047404601B02F
S315000025E0BDE8F08F0089704780E90320BF22000014
S315000025F048EB032001281CBF0428022801D1012032
S3150000260070470020704738B500F02DF840B1687863
S31500002610FFF7F0FF20B1297868780143490701D513
S31500002620012032BD29462046BDE8344007F00AB9EC
S3150000263010B500F023F82146BDE81040E3E738B5B1
S3150000264000F011F838B16878FFF7D4FF00281CBFF6
S315000026506878042801D1012032BD29462046BDE80C
S31500002660344007F024B90D4604462878C2E710B571
S3150000267000F004F82146BDE81040E0E70C46D6E538
S315000026803EB514461D46FFF7D2FDDDE90623CDE92A
S31500002690002322462B4606F03EFC3EBD10B5FFF752
S315000026A0EDFF2146BDE8104007F0D1BC2DE91040F2
S315000026B0DFF8344505A12078FEF76EFB2078DFF8B9
S315000026C02C15BDE81040FEF767BB0000286C697446
S315000026D0746C6520656E6469616E00000146087859
S315000026E0A0F130030A2B38BF30380AD3A0F14103DA
S315000026F0062B38BF373804D3A0F16102062A02D26E
S315000027005738000100E000204978A1F130030A2B78
S3150000271038BF30390AD3A1F14103062B38BF373908
S3150000272004D3A1F16102062A02D25739081801E042
S315000027300006000FC0B2704738B507F029FF020047
S315000027401FD0DFF8A444DFF8A8542078042A08BF75
S31500002750294608D0062A08BF05F14C0103D0072AEE
S3150000276004D105F19001FEF717FB03E005F1D8014E
S31500002770FEF712FB207805F58671BDE83440FEF7BA
S315000027800BBB31BD2DE9F84FC0B08068DFF8587437
S315000027900568FFF78BFFA8B207F06BFF8046A8B26B
S315000027A008F056F90446A8B208F041FA8346002C10
S315000027B038781ABF4FF6FF7290450FF2404128D085
S315000027C02346AAB20FF2E011FEF7E6FA00250FF251
S315000027D078290FF2782A06E000F01CF8761CF0B291
S315000027E0A042F9DB6D1CE8B2584510DABBF1010FC7
S315000027F0234603D17F2201F06DF906E0EAB201F02B
S3150000280069F938785146FEF7C7FA0026E7E73878BF
S3150000281051465BE01DF8002038784946FEF7BCBA01
S315000028202DE9F84F0446C0B0A168DFF8BC730E6806
S31500002830DFF8C053B0B208F00BF98046B0B207F02B
S3150000284018FF8346B0B208F0F2F90646B8F1000F59
S31500002850B1A005D104F11101FEF7F7FE294634E0D7
S315000028604FF6FF72934504F1110104D1FEF7EDFE18
S3150000287005F1240129E0FEF7E8FE387816A1424664
S31500002880FEF78AFA00240FF2C0190FF2C01A06E00A
S31500002890FFF7C0FF6D1CE8B24045F9DB641CE0B2EF
S315000028A0B04211DA012E434604D17F22594601F087
S315000028B012F907E0E2B2594601F00DF938785146AF
S315000028C0FEF76AFA0025E6E708A13878FEF764FA0B
S315000028D041B0BDE8F08F00007B73697A653A2564E4
S315000028E07D7B76616C75653A000000007D7D0D0A82
S315000028F0000000002DE9F047C0B080680768D0F8F6
S315000029000490B94EFFF7D2FEB8B208F0A1F880469F
S31500002910B8B207F0AEFE8246B8B208F088F90546AE
S31500002920B8F1000F30781ABF4FF6FF7292450FF2DA
S31500002930CC2133D06C1E1DB15FFA89F18C420BDAC3
S31500002940AD4D2946FEF728FA30782346002205F1D8
S315000029503801FEF721FA23E04346BAB212A1FEF788
S315000029601BFA012D08BF4FF07F0943465FFA89F233
S31500002970514601F0B0F835A530782946FEF70CFA35
S31500002980002431A705E01DF801203946FEF704FAB8
S31500002990641CE1B230784145F5DB2946FEF7FCF9C7
S315000029A040B0BDE8F08700005B2532785D282564DD
S315000029B029203D002DE9F847C1B080688A4F066896
S315000029C0FFF774FEB0B208F043F88146B0B207F0E4
S315000029D050FE8246B0B208F02AF9B9F1000F1CBFCA
S315000029E04FF6FF718A45064605D138780FF20C215D
S315000029F0FEF7D2F927E000240FF20C281FE016FBA1
S31500002A0009F338785B1E09FB04524146FEF7C4F908
S31500002A10387803226946FFF76CF86846FFF75EFED2
S31500002A2001A948556D1C4D45E9DB012E4B4601AA0F
S31500002A3014BFE1B27F21504607F0EAFD641CB442A0
S31500002A40B8BF0025EFDBCBE0202558000D0A0000BB
S31500002A502DE9F8478246C3B0DAF80800654E4168AA
S31500002A600768C9B2ADF804100846FEF732FA054603
S31500002A70B8B207F0EDFF0446B8B207F0FAFD81469A
S31500002A80B8B208F0D4F802902000574F0FF2880829
S31500002A9003D100F04BF8314637E04FF6FF71894518
S31500002AA004D100F043F806F124012EE0EA2C05DDFE
S31500002AB000F03CF8EA2206F14C0106E0A54208D0F7
S31500002AC000F034F8224606F198013878FEF764F9EA
S31500002AD01EE0002000902346BDF80410002203A843
S31500002AE005F0B8FF029D002609E0012D234603AA42
S31500002AF014BFF1B27F21484607F08AFD761CF0B27A
S31500002B00A842F2DB00F012F804A13878FEF744F987
S31500002B1044B0BDE8F08700007B264E007B726574EA
S31500002B2075726E3A307D7D0D0A0000000AF11101C2
S31500002B304046FEF78ABD00002DE9F847C1B080681F
S31500002B4004684668284DFFF7B1FDA0B207F080FF84
S31500002B508046A0B207F08DFD8246A0B208F067F865
S31500002B600446B8F1000F28781CBF4FF6FF72924555
S31500002B7004D100BF21A1FEF70FF931E0671E14B1A1
S31500002B80F1B28F420BDA1C4C2146FEF705F9287884
S31500002B903B46002204F13801FEF7FEF820E000274C
S31500002BA00FF2640911E02878A8F101033A46494674
S31500002BB0FEF7F2F8287803226946FEF79AFF684680
S31500002BC0FFF78CFD01A9C8557F1C4745EBDB012C9F
S31500002BD008BF7F26434601AAF1B2504607F018FD0A
S31500002BE042B0BDE8F087000084E7032088B8010002
S31500002BF0B0B80100F4B90100D8BA01006E6F7420B4
S31500002C00666F756E640D0A00646174612062797482
S31500002C10655B2564206F662025645D3A0000000030
S31500002C202DE9F847A5B0DFF8545DDFF8549DFFF7AE
S31500002C303DFD28784EF24552FFF7EFFD2878DFF884
S31500002C40441DFEF769FFDFF8400D0188082300F0F8
S31500002C5047FF0FF2883A002400F046FF00F02EFFEF
S31500002C60FAD30FF27C3800F046FF28784CF2563241
S31500002C70FFF7D3FD2878DFF8141DFEF74DFF01247A
S31500002C80DFF80C0D00F02AFF9DF8002000F02FFF62
S31500002C909DF8012000F02BFF641EF1D100F02BFF00
S31500002CA028784EF24532FFF7B8FD2878DFF8E41CA5
S31500002CB0FEF732FFDFF8E00C0188082300F010FF72
S31500002CC000F012FF00F0FAFEFAD300F014FF2878A5
S31500002CD04EF67352FFF7A1FD2878DFF8C01CFEF709
S31500002CE01BFFDFF8BC0C0188102300F0F9FE00245E
S31500002CF000F0FAFE00F0EAFEFAD300F0FCFE2878B7
S31500002D004CF24E22FFF789FD2878DFF8981CFEF773
S31500002D1003FFDFF8940C0188102300F0E1FE002485
S31500002D2000F0E2FE00F0D2FEFAD300F0E4FE2878CE
S31500002D304CF64412FFF771FD28780FF68C41FEF72A
S31500002D40EBFE0124DFF8640C00F0C8FE9DF80020BD
S31500002D5000F0CDFE9DF8012000F0C9FE641EF1D101
S31500002D6000F0C9FE28784DF24302FFF756FD287899
S31500002D700FF66441FEF7D0FE0124DFF8340C00F0B4
S31500002D80ADFE9DF8002000F0B2FE9DF8012000F097
S31500002D90AEFE641EF1D100F0AEFE28784CF243126E
S31500002DA0FFF73BFD28780FF64041FEF7B5FEDFF84A
S31500002DB0040C01880223E2B200F08DFE9DF800208B
S31500002DC000F095FE9DF8012000F091FE641C60B2B3
S31500002DD01428ECDB00F08FFE28784DF64322FFF72F
S31500002DE01CFD28780FF61041FEF796FEDFF8C80B9B
S31500002DF00188012300F074FE9DF8002000F077FEA4
S31500002E0000F079FE28784DF64822FFF706FD28786F
S31500002E100FF6FC31FEF780FEDFF8A00B01880123D8
S31500002E2000F05EFE9DF8002000F061FE00F063FEFB
S31500002E3028784DF65222FFF7F0FC28780FF6E83195
S31500002E40FEF76AFEDFF8780B0188102300F048FED3
S31500002E50002400F049FE00F039FEFAD300F04BFEE4
S31500002E6028784DF24E32FFF7D8FC28780FF6D83185
S31500002E70FEF752FEDFF84C0B0188102300F030FEFF
S31500002E80002400F031FE00F021FEFAD300F033FEFC
S31500002E9028784DF24632FFF7C0FC28780FF6BC3191
S31500002EA0FEF73AFE0124DFF8580C00F017FE9DF8F5
S31500002EB0002000F01CFE9DF8012000F018FE641EA4
S31500002EC0F1D100F018FE28784CF24332FFF7A5FC4A
S31500002ED028780FF6A031FEF71FFE0124DFF8240C38
S31500002EE000F0FCFD9DF8002000F001FE9DF8012099
S31500002EF000F0FDFD641EF1D100F0FDFD28784CF6D2
S31500002F005352FFF78AFC28780FF67C31FEF704FE51
S31500002F10DFF8F40B0188082300F0E2FD00F0E4FD81
S31500002F2000F0CCFDFAD300F0E6FD28784CF25432DE
S31500002F30FFF773FC28780FF66431FEF7EDFD0124E8
S31500002F40DFF8C80B00F0CAFD9DF8002000F0CFFDA9
S31500002F509DF8012000F0CBFD641EF1D100F0CBFD01
S31500002F6028784DF65402FFF758FC28780FF63831CA
S31500002F70FEF7D2FD0124DFF8980B00F0AFFD9DF8B7
S31500002F80002000F0B4FD9DF8012000F0B0FD641EA5
S31500002F90F1D100F0B0FD28784CF65442FFF73DFC25
S31500002FA028780FF6D031FEF7B7FDDFF8680B0188F9
S31500002FB0012300F095FD9DF8002000F098FD00F03B
S31500002FC09AFD28784CF65332FFF727FC28780FF63F
S31500002FD0B431FEF7A1FDDFF8400B03E020255800D1
S31500002FE00D0A00000188042300F07AFD00F07CFD44
S31500002FF000F068FDFAD300F07EFD28784DF2570206
S31500003000FFF70BFC28780FF69031FEF785FDDFF809
S315000030100C0B0188102300F063FD002400F064FD12
S3150000302000F054FDFAD300F066FD28784CF25732D2
S31500003030FFF7F3FB28780FF67431FEF76DFDDFF826
S31500003040E00A0188042300F04BFD002400F04CFD4B
S3150000305000F038FDFAD300F04EFD28784CF65752B2
S31500003060FFF7DBFB28780FF65831FEF755FDDFF842
S31500003070B40A0188042300F033FD002400F034FD77
S3150000308000F020FDFAD300F036FD28784DF25752B5
S31500003090FFF7C3FB28780FF63C31FEF73DFDDFF85E
S315000030A0880A0188042300F01BFD002400F01CFDA3
S315000030B000F008FDFAD300F01EFD28784CF25742C6
S315000030C0FFF7ABFB28780FF62031FEF725FDDFF87A
S315000030D05C0A0188042300F003FD002400F004FDCF
S315000030E000F0F0FCFAD300F006FD28784CF24B22F3
S315000030F0FFF793FB28780FF60431FEF70DFDDFF896
S31500003100300A0188102300F0EBFC002400F0ECFCF0
S3150000311000F0DCFCFAD300F0EEFC28784CF24232E8
S31500003120FFF77BFB28780FF6EC21FEF7F5FCDFF8BE
S31500003130040A01885C2300F0D3FC002400F0D4FCD0
S31500003140641CE0B25C28F9D300F0D5FC28784CF674
S315000031504312FFF762FB28780FF6C821FEF7DCFC66
S31500003160DFF8D4090188142300F0BAFC002400F02B
S31500003170BBFC641CE0B21428F9D300F0BCFC287830
S315000031804DF24332FFF749FB28780FF6B021FEF7E0
S31500003190C3FC0124DFF8A40900F0A0FC9DF8002080
S315000031A000F0A5FC9DF8012000F0A1FC641EF1D101
S315000031B000F0A1FC28784DF24232FFF72EFB28786A
S315000031C00FF68C21FEF7A8FCDFF87409018810239E
S315000031D000F086FC00F088FC00F078FCFAD300F0E2
S315000031E08AFC28784CF24532FFF717FB28780FF651
S315000031F07C21FEF791FCDFF84C090188942300F04E
S315000032006FFC002400F070FC641CE0B29428F9D333
S3150000321000F071FC28784DF25832FFF7FEFA287854
S315000032200FF65C21FEF778FCDFF81C0901882023E5
S3150000323000F056FC002400F057FC00F03BFCFAD3EB
S3150000324000F059FC28784DF25932FFF7E6FA287853
S315000032500FF64821FEF760FCDFF8F008018820230E
S3150000326000F03EFC002400F03FFC00F023FCFAD303
S3150000327000F041FC28784CF64B22FFF7CEFA28786E
S315000032800FF63421FEF748FCDFF8C4080188222334
S3150000329000F026FC002400F027FC641CE0B2222883
S315000032A0F9D300F028FC28784DF65022FFF7B5FA3E
S315000032B028780FF61821FEF72FFCDFF8980801880A
S315000032C0202300F00DFC002400F00EFC00F0F2FBC1
S315000032D0FAD300F010FC28784DF65522FFF79DFA38
S315000032E028780FF6F411FEF717FCDFF86C08018852
S315000032F0202300F0F5FB002400F0F6FB00F0DAFBDB
S31500003300FAD300F0F8FB28784DF65122FFF785FA3C
S3150000331028780FF6D011FEF7FFFBDFF8400801888A
S315000033205A2300F0DDFB002400F0DEFB641CE0B253
S315000033305A28F9D300F0DFFB28784CF64B62FFF7EA
S315000033406CFA28780FF6AC11FEF7E6FBDFF81008EA
S315000033500188102300F0C4FB002400F0C5FB00F038
S31500003360B5FBFAD300F0C7FB28784DF64922FFF7E4
S3150000337054FA28780FF69011FEF7CEFBDFF8E40733
S315000033800188012300F0ACFB9DF8002000F0AFFBA4
S3150000339000F0B1FB28784DF64522FFF73EFA287873
S315000033A00FF67811FEF7B8FBDFF8BC0701885A2341
S315000033B000F096FB002400F097FB641CE0B25A284C
S315000033C0F9D300F098FB28784BF23462FFF725FA20
S315000033D028780FF65C11FEF79FFBDFF8900701884F
S315000033E0082300F07DFB002400F07EFB00F066FB66
S315000033F0FAD300F080FB28784FF60172FFF70DFA3A
S3150000340028780FF63811FEF787FB012402237F2266
S31500003410002100F060FB9DF8002000F068FB9DF89D
S31500003420012000F064FB641EF0D100F064FB2878F4
S315000034304EF22312FFF7F1F928780FF61811FEF76E
S315000034406BFB04237F22012100F045FB00F04CFBBF
S3150000345000F038FBFAD300F04EFB28784EF27542A6
S31500003460FFF7DBF928780FF60411FEF755FB112359
S315000034707F22022100F02FFB002400F035FB00F034
S3150000348025FBFAD900F037FB28784EF26322FFF7C6
S31500003490C4F928780FF6E801FEF73EFB04237F22E5
S315000034A0032100F018FB002400F01EFB00F00AFBCD
S315000034B0FAD300F020FB28784EF26352FFF7ADF9FD
S315000034C028780FF6D001FEF727FB04237F2204217C
S315000034D000F001FB002400F007FB00F0F3FAFAD33A
S315000034E000F009FB28784EF26212FFF796F9287869
S315000034F00FF6B401FEF710FB012402237F220521FB
S3150000350000F0E9FA9DF8002000F0F1FA9DF801209C
S3150000351000F0EDFA641EF0D100F0EDFA28784EF6D0
S315000035207932FFF77AF928780FF69401FEF7F4FA64
S3150000353011237F22062100F0CEFA00F0D5FA00F022
S31500003540C5FAFAD900F0D7FA28784EF66462FFF782
S3150000355064F928780FF67401FEF7DEFA10237F224D
S31500003560072100F0B8FA002400F0BEFA00F0AEFA27
S31500003570FAD300F0C0FA28784EF22412FFF74DF97C
S3150000358028780FF65801FEF7C7FA1A237F2208217A
S3150000359000F0A1FA002400F0A7FA641CE0B21A2891
S315000035A0F9D300F0A8FA28784EF22512FFF735F97C
S315000035B028780FF63C01FEF7AFFA08237F2209218F
S315000035C000F089FA002400F08FFA00F077FAFAD3B7
S315000035D000F091FA28784EF22612FFF71EF92878A5
S315000035E00FF62801FEF798FA0A237F220A2100F037
S315000035F072FA002400F078FA641CE0B20A28F9D3C3
S3150000360000F079FA28784EF22712FFF706F92878A3
S315000036100FF60C01FEF780FA012402237F220B210C
S3150000362000F059FA9DF8002000F061FA9DF801209B
S3150000363000F05DFA641EF0D100F05DFA28784EF2D3
S315000036402812FFF7EAF828780FF2F471FEF764FA09
S3150000365018237F220C2100F03EFA00F045FA641C84
S31500003660E0B21828F9D32878DFF8044500F044FAC8
S3150000367028784EF22912FFF7D0F828780FF2DC717D
S31500003680FEF74AFA01237F220D2100F024FA9DF865
S31500003690002000F02CFA00F02EFA28784EF21022C4
S315000036A0FFF7BBF828780FF2CC71FEF735FA00F079
S315000036B022FA28784EF21122FFF7AFF828780FF297
S315000036C0D071FEF729FA00F016FA28784EF2122287
S315000036D0FFF7A3F828782146FEF71EFA00F00BFA4A
S315000036E028784EF21322FFF798F8287804F124017F
S315000036F0FEF712FA00F0FFF928784EF21422FFF7CF
S315000037008CF8287804F14801FEF706FA00F0F3F980
S3150000371028784EF21522FFF780F828780FF290717C
S31500003720FEF7FAF900F0E7F928784EF22022FFF7C3
S3150000373074F8287804F17001FEF7EEF904237F226D
S31500003740142100F0C8F90026F1B200F0CEF9761C7B
S31500003750F0B20428F8D300F0CEF928784EF22122F0
S31500003760FFF75BF8287804F19401FEF7D5F900F02D
S31500003770C2F928784EF27422FFF74FF828780FF234
S315000037805071FEF7C9F900F0B6F928784FF60D72B8
S31500003790FFF743F828780FF24C71FEF7BDF90026C3
S315000037A00B23F2B2172100F096F90027F9B200F0C8
S315000037B09CF97F1CF8B20A28F8D9761C71B2052943
S315000037C0EEDD00F098F928784EF25642FFF725F81C
S315000037D028780FF22471FEF79FF900F08CF928780B
S315000037E04FF46542FFF719F828780FF21C71FEF7BF
S315000037F093F900F080F928784EF20352FFF70DF89E
S3150000380028780FF21C71FEF787F900260123F2B221
S315000038101A2100F060F99DF8002000F068F9761C86
S3150000382070B20528F2DD00F066F928784EF20152F2
S31500003830FEF7F3FF28780FF20471FEF76DF91023F7
S315000038407F221B2100F047F90026F1B200F04DF966
S31500003850761CF0B21028F8D300F04DF928784EF215
S315000038600252FEF7DAFF28780FF2E061FEF754F90C
S3150000387028237F221C2100F02EF90026F1B200F049
S3150000388034F9761CF0B22828F8D300F034F92878F9
S315000038904EF25822FEF7C1FF28780FF2C461FEF7F8
S315000038A03BF912237F221D2100F015F90026F1B203
S315000038B000F01BF9761CF0B21128F8D900F01BF9BC
S315000038C028784EF25922FEF7A8FF28780FF2A06159
S315000038D0FEF722F900263423F2B21E2100F0FBF88F
S315000038E00027F9B200F001F97F1CF8B23428F8D3AA
S315000038F0761C71B20529EEDB00F0FDF828784EF251
S315000039005B22FEF78AFF28780FF27C61FEF704F946
S3150000391000F0F1F828784EF25A22FEF77EFF28785A
S315000039200FF27C61FEF7F8F800F0E5F828784EF221
S315000039305C22FEF772FF28780FF27861FEF7ECF84A
S3150000394000F0D9F828784EF25052FEF766FF287834
S315000039500FF28061FEF7E0F800F0CDF828784EF21D
S315000039605152FEF75AFF287804F1C001FEF7D4F849
S3150000397000F0C1F826B0BDE8F087000084E7032018
S315000039801CBC010024BC01003EF0010038BC010053
S3150000399040F001004CBC010042F0010060BC010097
S315000039A044F001006CBC010046F0010048F0010043
S315000039B04AF001004CF001004EF0010050F0010009
S315000039C052F0010054F001004D46475F4D414E55FF
S315000039D0465F4944000000004D46475F5048595F26
S315000039E0434F4E46494700004D46475F4153485FA7
S315000039F0434F4E46494700004D46475F5A5741568A
S31500003A00455F434F554E5452595F4652455100004B
S31500003A104D46475F5A574156455F48575F56455290
S31500003A2053494F4E000000004D46475F5A574156D6
S31500003A30455F50534555444F5F52414E444F4D5F8D
S31500003A404E554D42455200004D46475F534552493B
S31500003A50414C5F4E554D4245520000004D46475F72
S31500003A6053594E54485F465245515F4F464653455B
S31500003A70540000004D46475F4343415F544852455A
S31500003A8053484F4C440000004D46475F455A53503B
S31500003A905F53544F52414745000000004D46475F73
S31500003AA04354554E450000004D46475F584F5F54FE
S31500003AB0554E4500641CE0B220287047641CE0B2F5
S31500003AC008287047641CE0B204287047641CE0B202
S31500003AD0102870474146684606F07CBD01880223DF
S31500003AE07F22684606F076BDE1B21DF801202878EF
S31500003AF05146FDF751B928784146FDF74DB900000A
S31500003B0056F0010058F001005AF001005CF0010087
S31500003B105EF0010060F0010062F0010064F0010057
S31500003B2066F0010068F001006AF001006CF0010027
S31500003B306EF0010070F0010072F0010074F00100F7
S31500003B4076F0010078F001007AF001007CF00100C7
S31500003B507EF0010080F0010082F0010084F0010097
S31500003B6086F0010088F001008AF001008CF0010067
S31500003B7034BB01004D46475F4C46584F5F54554E87
S31500003B80450000004D46475F4B49545F5349474E39
S31500003B9041545552450000004D46475F4C4F434B3C
S31500003BA0424954535F504C57000000004D46475F52
S31500003BB04C4F434B424954535F434C57300000002F
S31500003BC04D46475F4C4F434B424954535F4D4C570C
S31500003BD0000000004D46475F4C4F434B424954534B
S31500003BE05F554C57000000004D46475F4C4F434B16
S31500003BF0424954535F444C57000000004D46475F0E
S31500003C00424F4F544C4F41445F4145535F4B4559DA
S31500003C10000000004D46475F43424B455F44415418
S31500003C20410000004D46475F494E5354414C4C41BC
S31500003C3054494F4E5F434F44450000004D46475F91
S31500003C4053454355524954595F434F4E46494700E1
S31500003C504D46475F5345435552455F424F4F544C7F
S31500003C604F414445525F4B45590000004D46475F62
S31500003C7043424B455F3238334B315F444154410038
S31500003C804D46475F5349474E45445F424F4F544C5C
S31500003C904F414445525F4B45595F58004D46475F7B
S31500003CA05349474E45445F424F4F544C4F4144455C
S31500003CB0525F4B45595F59004D46475F5448524540
S31500003CC041445F4A4F494E5F4B4559004D46475F59
S31500003CD05A575F50524B00004D46475F5A575F5048
S31500003CE0554B00004D46475F5A575F51525F434F51
S31500003CF0444500004D46475F4E564D335F4352598B
S31500003D0050544F5F4B4559004D46475F5A575F49E0
S31500003D104E495449414C495A454400004D46475F77
S31500003D205A575F51525F434F44455F455854000010
S31500003D304D46475F4555495F36340000535441436D
S31500003D404B5F4E56444154415F56455253494F4E80
S31500003D5000000000535441434B5F4150535F4652AD
S31500003D60414D455F434F554E5445520053544143D0
S31500003D704B5F414C5445524E4154455F4B455900AB
S31500003D80535441434B5F424F4F545F434F554E543C
S31500003D9045520000535441434B5F4E4F4E43455FDF
S31500003DA0434F554E54455200535441434B5F414E89
S31500003DB0414C595349535F5245424F4F54000000FE
S31500003DC0535441434B5F4B455953000053544143B1
S31500003DD04B5F4E4F44455F44415441005354414369
S31500003DE04B5F54525553545F43454E544552000061
S31500003DF0535441434B5F4E4554574F524B5F4D41D1
S31500003E004E4147454D454E54000000005354414332
S31500003E104B5F504152454E545F494E464F0000009D
S31500003E20535441434B5F504152454E545F414444C5
S31500003E304954494F4E414C5F494E464F00000000E1
S31500003E40535441434B5F4D554C54495F5048595F5D
S31500003E504E574B5F494E464F0000000053544143B6
S31500003E604B5F4D494E5F52454345495645445F5267
S31500003E70535349004D554C54495F4E4554574F5284
S31500003E804B5F535441434B5F4B4559530000000071
S31500003E904D554C54495F4E4554574F524B5F535402
S31500003EA041434B5F4E4F44455F444154410000003F
S31500003EB04D554C54495F4E4554574F524B5F5354E2
S31500003EC041434B5F504152454E545F494E464F0069
S31500003ED0535441434B5F42494E44494E475F544118
S31500003EE0424C4500535441434B5F4348494C445F61
S31500003EF05441424C45000000535441434B5F4B45EF
S31500003F00595F5441424C4500535441434B5F43452E
S31500003F105254494649434154455F5441424C450039
S31500003F20535441434B5F4144444954494F4E414CDD
S31500003F305F4348494C445F44415441005354414314
S31500003F404B5F5A4C4C5F444154410000535441432B
S31500003F504B5F5A4C4C5F53454355524954590000E8
S31500003F60535441434B5F47505F4441544100000066
S31500003F70535441434B5F47505F50524F58595F541B
S31500003F8041424C4500000000535441434B5F4750AB
S31500003F905F494E434F4D494E475F46430000000080
S31500003FA0535441434B5F47505F53494E4B5F544117
S31500003FB0424C4500535441434B5F47505F494E4383
S31500003FC04F4D494E475F46435F494E5F53494E4BFF
S31500003FD0000000004D554C54495F50414E5F53540C
S31500003FE041434B5F4348494C445F5441424C450072
S31500003FF010B506F0F4FE40F2A174C440E0070BD5FC
S31500004000064C207806F0FAFE207806F09FFF20780E
S31500004010BDE8104007F067B810BD00BF84E7032075
S315000040205FF02A010AA0FDF799BD000010B501F066
S31500004030B1FA044601F0A4FA02462346DFF80C0062
S3150000404007A10078BDE81040FCF7A6BE84E7032070
S3150000405072657365742D746573742E6300000000B9
S3150000406052455345543A25702D25700D0A0000001F
S3150000407010B50446002002F0E5F8002002F002F92F
S3150000408007F0FAF8012002F04DF8204607F08FFB02
S315000040902046BDE8104000F03ABF80B5022100F08E
S315000040A02FF9009807F076FC01BD80680068C1B260
S315000040B00229A8BF0FF2005305DA002914BF0FF238
S315000040C004530FF20853DFF8A4140FF2DC42087011
S315000040D0DFF89C04D0F81013FFE70FF2C040FDF79D
S315000040E0B4BA0000F8B501F088FFDFF888440FF293
S315000040F0705204EB8000C368DFF87404D0F85013E4
S315000041000FF24050FDF7A1FADFF86C04006807F0E3
S315000041108AFC0528054614D8DFE800F003100E09CE
S315000041200C060FF2F4420EE00FF2E0420BE00FF243
S31500004130D04208E079A206E079A204E00FF2B84284
S3150000414001E00FF2E0420FF2F4410FF2E8400FF205
S31500004150DC47FDF77AFA0026F0B254F8201005F095
S3150000416001023846FDF771FA761C6D08F0B2022896
S31500004170F2D9BDE8F2408FE038B50446DFF8F02307
S31500004180A0680568D2F860130FF2E040FDF75DFA0B
S31500004190EDB215B1012D07D00CE00FF2D840FDF7B6
S315000041A054FA01F055FE05E00FF2DC40FDF74DFA3A
S315000041B001F021FF0FF2E040FDF747FA2046BDE887
S315000041C032408FE7F8B507460D4684B0284601F021
S315000041D0D2FA0446284601F086FC06460FF234520F
S315000041E03CB92B4607F111010FF21050FDF72DFADD
S315000041F010E00FF230500FF224510290009105F0BA
S315000042001F00019003942B4607F11101DFF86C03A0
S31500004210FDF71BFAAE420FF2B44405D032460FF258
S315000042200C512046FDF711FA284601F043FC10F127
S31500004230010F0FF26C430FF2704102D10FF2704280
S3150000424002E018B90FF2704218460BE0DFF830238F
S31500004250DFF82C13B0FBF2F201FB120129B90FF2C1
S3150000426074412046FDF7F1F913E0DFF818231378BF
S315000042704FF47A74B0FBF4F2214601FB12010029D7
S315000042800EBF0FF2584102460FF260411846FCF786
S3150000429083FD05B0BDE8F0408AA0FDF7D6B910B59C
S315000042A0044601F0C5FB01462046BDE8104089E7FB
S315000042B038B5054601F0A1FE0400DFF8B402D0F8D7
S315000042C03013DFF8C40218BF0124FDF7BEF901F070
S315000042D092FEA8680068C0B201F0B2FA02460FF278
S315000042E010310FF25040FDF7B0F90CB101F0B0FDFE
S315000042F001F09EFB01462846BDE8344062E70121F5
S31500004300684601F094B910B5044602F060F804F16D
S315000043101101BDE81040034688A237E15478000039
S31500004320527800002DE9F04F85B006460C4615463A
S315000043301F4601F062FE010018BF01218DF803102F
S3150000434001F07CFE002D8DF8020016D10125022019
S3150000435001F077FE642004F04CF901F069FB8DF85A
S3150000436001000290049603975CB9029E012006F0B4
S315000043701F0400FA04F4002109E0E8D56D4200208C
S31500004380E6E7E00E4601F6B224F0784401210191F9
S3150000439015E0049800F1110133464A460FF2CC307D
S315000043A0FDF753F904E0FDF750F946A0FDF74DF986
S315000043B09DF8000001218140641A761CF6B2002C9B
S315000043C069D006F01F008DF8000024FA00F2D0072D
S315000043D0F3D501F02DFB86420FF2403904D0F0B23E
S315000043E001F02EFA0028D4D14FF07F0A6FF07F0833
S315000043F00027AB460DE0802004F0FBF801F013FF28
S31500004400C7198045B8BF80465045B8BF8246ABF154
S31500004410010BBBF1000FEEDC9DF8400097FBF5F7B2
S3150000442058B1504601F082FB824678B201F07EFB1D
S315000044300746404601F07AFB8046049800F11101D8
S3150000444048A0FDF702F9019828B1324649460FF215
S31500004450DC10FDF7FAF803980FF2EC2920B10146BB
S3150000446052464846FDF7F1F80E9820B101463AB299
S315000044704846FDF7EAF80F9820B1014642464846FD
S31500004480FDF7E3F89DF84000002814BF0FF2C020A6
S315000044900FF2D02087E7029886421CBF9DF80100E4
S315000044A001F0CEF99DF8020001F0CBFD9DF8030066
S315000044B020B105B0BDE8F04F01F0CABC05B0BDE8BB
S315000044C0F08F00007D0D0A00E0B5002102910191F8
S315000044D0009101220FF2B42308E0E0B50121002289
S315000044E002910192009220A301220021FFF71AFFF8
S315000044F007BD3EB58368847B1A680FF2A0250021AC
S31500004500022CA8BF59680023029300950FF2942449
S315000045100FF280230194FFF705FF37BD80B501F048
S31500004520D2FF034612480FF29422D0F8B0130FF2CE
S315000045307C20BDE80050FDF788B8000043434100E9
S3150000454010B50B4AD2F8C01304460FF28020FDF7CF
S315000045507CF8A068016848B201F07EFF2046BDE8FD
S315000045601040DBE77B264E0045440000F2EB0320BB
S3150000457050A70100BCE70320D0EC0320B4BC010027
S3150000458040420F0084E70320D8BC01006BA0FDF772
S315000045905CB881680968C9B214E600007B264E2023
S315000045A02674737D0D0A00005045522054657374BD
S315000045B0204D6F6465000000656E61626C65642D58
S315000045C06E657700656E61626C656400646973612F
S315000045D0626C65640000000061736C6565700000C4
S315000045E06177616B65000000656E65726779000032
S315000045F0737461747573000049646C650000000093
S31500004600527841637469766500000000547841630E
S315000046107469766500000000496E616374697665A9
S3150000462000000000556E6B6E6F776E002026746872
S3150000463000000000202674730000000052665374C8
S31500004640617465007B264E20526164696F20706F2D
S315000046507765722073746174652026747300000098
S31500004660706F776572207374617465007B264E20C7
S3150000467000000000536C656570696E6720726164A6
S31500004680696F2E2E2E00000057616B696E672072CF
S315000046906164696F2E2E2E00646F6E657D0D0A00B3
S315000046A0202674700000000066726571000000002C
S315000046B0696C6C6567616C0050657252616D526120
S315000046C064696F436F6E6669670000002026747523
S315000046D000000000667265714D487A00207B6672A4
S315000046E065714B487A3A256C7D000000207B667226
S315000046F06571487A3A256C7D000000007B264E20C5
S31500004700526164696F206368616E6E656C20267401
S31500004710680000006368616E6E656C006368616EB8
S315000047200000000070616765000000005074694376
S3150000473068616E002674687D0D0A00007B264E2097
S315000047402674647D0D0A00002026746400000000B3
S31500004750205B3830322E31352E3420756E697473F5
S315000047605D000000205B64426D5D00007B264E20EC
S31500004770267468205B696E76616C69642063686183
S315000047806E6E656C5D7D0D0A000000005253534944
S31500004790000000006D696E525353490061766752FE
S315000047A0535349006D617852535349007B264E207E
S315000047B02674642064426D7D0D0A00004343412047
S315000047C05468726573686F6C640000007B264E7DCA
S315000047D00D0A000080B5002001F027FFBDE801406A
S315000047E007F05AB810B5DFF8CC40DFF8CC30607D62
S315000047F018710122E0694FF47A7107F004FA01009A
S315000048001CBF0121217510BDDFF8A810C861887D85
S31500004810DFF8A4104871E5E770B58EB00C460CA819
S3150000482007F0E8F9054607F01DFA064607F0DEF937
S31500004830BDF836100FF24C02BDF830300B910A92DB
S31500004840059303950346BDF834100FF240020FF2AC
S315000048504405DFF86C000991089201960095BDF8B1
S3150000486032100FF23802079106920FF238010FF25A
S315000048703C02049102922146DFF84020FCF7E5FE57
S315000048800EB070BD737573700000000063726974BA
S3150000489000000000616363656C0000006C696D696F
S315000048A00000000074616C6B0000000075736564A5
S315000048B000000000D8E70320FCEC0320C4480000F9
S315000048C024BE01006D6F6465000000002DE9F0470D
S315000048D006468846924607F0B6F9DFF85072F87039
S315000048E00409387818BF641E28B1386B07EB8000BE
S315000048F0416A491C41628C2EBE700FF24419DFF8E2
S315000049005C5243D001F087FB66B1402E22D0882E40
S3150000491018BF892E4DD08C2E38D08D2E34D08F2EA8
S315000049200CD03BE03869396A401C386164183C6237
S31500004930287D00283DD040F23A5137E0B869396AFF
S31500004940401CB86164183C62287D002831D040F2D2
S315000049503F512BE0F869396A401CF86164183878D1
S315000049603C6260B107F082F9032806D1786B401CDF
S315000049707863386B80F00100386307F079F9287D99
S31500004980B8B140F24B5111E007F05AF97869401C72
S315000049907861287D68B140F2525107E03246DFF86F
S315000049A0B0150120FDF7C2F840F263514846FDF705
S315000049B0D5F8402E87F801A0C7F83C8019D1387980
S315000049C0012811DD3989491C3981411E39712A2096
S315000049D0C9B207F059F9E86900224FF47A7107F075
S315000049E012F9064628B929E000212A2007F04CF9D9
S315000049F003E0002E18BF8F2E1ED0787901281BDD0C
S31500004A00401E79897871491C7981DFF8480501785B
S31500004A1001290ADDE969DFF84005814205D10278FE
S31500004A20082A02DDC178491CC170688B03F0E1FDDC
S31500004A30BDE8F047FFF7D6BE01202875BDE8F08730
S31500004A407068792D636F6D6D6F6E2D74782D74653A
S31500004A5073742E630000000080B500F0EDFF00F0D7
S31500004A6019F8D0F8A01409E00000000080B500F0A5
S31500004A70F8FF00F00FF8D0F8C01400BF02A0BDE8A0
S31500004A800050FCF7E2BD00007B264E2026746464CD
S31500004A90426D7D004FEA0003DFF8C40400A27047B0
S31500004AA061637475616C506F776572003EB504463C
S31500004AB0A1680D6868B200F0D0FF01906BB200F0FB
S31500004AC02DF8D0F8B0140FF24400FCF7BEFD24A078
S31500004AD0FCF7BBFD2046BDE83E40BDE73EB50446BB
S31500004AE0A1680D6828B200F0C9FFCDF804002BB20A
S31500004AF000F014F8D0F8D01404A0FCF7A6FD18A016
S31500004B00FCF7A3FD2046BDE83E40AFE77B264E20DE
S31500004B1026746464426D202674647D000FF27C4125
S31500004B20DFF83C040FF27C4200917047FCEC032056
S31500004B30E0B5DFF830140FF2A8420B8B0092019318
S31500004B4000F111010FF280420FF268403AE18168EC
S31500004B50DFF810340A681A83EAE70000D8E7032072
S31500004B600D0A00002DE9F14F84B081680A88019290
S31500004B70511E8941C90F02914FF0010A01F03DFA19
S31500004B8000B101208DF801004FF0000BDFF8CC5387
S31500004B90DFF8D0636869DFF8D073ADF80200D84655
S31500004BA00198012811D000F004F93878029921B152
S31500004BB00FF24C41FCF7F0F803E0019A76A1FCF7FE
S31500004BC0EBF800F0F0F800F0E9F8DFF88C43DFF8D6
S31500004BD09C93802249462046FCF756FDDFF8740375
S31500004BE001780129C4BF2078082819DD99F8011039
S31500004BF001F0200141F0C1016170D0461821A17079
S31500004C002118029818B101F805BC002004E00198AB
S31500004C1001F8050C019800122178611801F8040CBE
S31500004C20D94662E000208DF8000069463878FCF726
S31500004C3056FF00F0C3F85ED09DF80010387864295E
S31500004C4006D100F0A1F8049800F11101002007E058
S31500004C50442907D100F098F8049800F111010120C9
S31500004C60FFF7DAFD09F10100DFF804131FFA80F9F6
S31500004C70087820B100F0EAFC08B107F00BF800F064
S31500004C8088F8DFF8D0120878A0B1B8F1000F18BF85
S31500004C9084F803A0207803280CDD201800F803AC64
S31500004CA04FEA2A202178611801F8020C0AF1010066
S31500004CB01FFA80FA002030750121A9702046FFF7FF
S31500004CC0A3FD8346B8B903F005FD8346307D50B990
S31500004CD0FFF780FD03F0FEFCA0EB0B0080B240F274
S31500004CE0D1718842F2D395F802B00298002899D182
S31500004CF00198814596DB38780FF22831DFF8744247
S31500004D004A46FCF749F8707B38B1AA8ABDF802001A
S31500004D10121A38782146FCF73FF838780FF220311E
S31500004D205A46FCF739F8DFF850020FF230310288A4
S31500004D303878FCF731F838780FF24031FCF72CF868
S31500004D4069783878002914BF0FF24C310FF25031D0
S31500004D50FCF722F801F06EFB28B1AA6B387804F153
S31500004D602401FCF719F8EA6B387804F15001FCF7D6
S31500004D7013F8642003F03DFC9DF8010008B101F032
S31500004D8067F805B0BDE8F08F4A460FF29821FCF7A8
S31500004D9003B8308B03F02DBC2575000038780FF270
S31500004DA0F011FBF7F9BF328B38780FF26021FBF771
S31500004DB0F3BF38780FF24021FBF7EEBF9DF80000F5
S31500004DC065287047FCF741FC07BD38B500F03AF896
S31500004DD000F031F818BF0124FBF7DEFF01F00BF9F4
S31500004DE001F0BCFA02E0287800F008F8FFF7E6FFC9
S31500004DF0F9D101F0C4FA1AE09AF800006946FCF706
S31500004E006EBE38B500F01EF800F015F818BF012484
S31500004E10FBF7C2FF01F0EFF801F0C0FA02E02878D4
S31500004E20FFF7ECFFFFF7CAFFF9D101F0CFFA0CB19B
S31500004E3001F00EF831BDDFF830510FF254110400C5
S31500004E402878704700208DF8000001F0D6B82DE9CB
S31500004E50F041DFF814410FF2502120780FF2582567
S31500004E600FF24C28DFF80471FBF796FF002615E0D9
S31500004E70BA5D20784146FBF78FFF711006EB917201
S31500004E809210B6EB820007D139788E4204DA207888
S31500004E9032462946FBF780FF761CF6B23878401C6E
S31500004EA08642E5DBBDE8F0818068DFF8C020016856
S31500004EB0117070472DE9F8430446DFF8AC50A0683E
S31500004EC0DFF8B8900668DFF8A4700020761CF6B20A
S31500004ED0802E00F1010805DAA16801EB8000436825
S31500004EE0BB5505E028784346721E4946FBF754FF3A
S31500004EF040460428EADBBDE8F1831C481421017012
S31500004F0001214A1E4254491C8029FAD3704710B524
S31500004F1012481B4B1B4C1C4A0021016141618161F7
S31500004F20C16101621960216001814181116010BD7A
S31500004F3080680C49007828B1012202284A7302D100
S31500004F40012001E0487300201049087070470000F6
S31500004F506CBE0100F2EB032074F10320FCEC03208D
S31500004F6050A70100D8E7032084E70320F4F00320CC
S31500004F70F3EB0320A0BE01005CFF032020BF01006D
S31500004F803CFA032038FA032008FB0320BDEC03207B
S31500004F902765276E642E2E2E000000007374617440
S31500004FA075730000726571756573746564506F770B
S31500004FB0657200007B264E20267464757320267465
S31500004FC0327875737D0000007472616E736D69745A
S31500004FD02064656C617920286465632900000000FF
S31500004FE07472616E736D69742064656C61792028D2
S31500004FF068657829000000005478696E6720000013
S31500005000696E66696E6974650000000020706163F0
S315000050106B657473202575207573206170617274D9
S315000050202E2000000D0A2575207061636B65747370
S31500005030207472616E736D69747465642E0D0A0056
S315000050404C617374207061636B6574207374617452
S3150000505075733A2030782532780D0A004C617374E6
S31500005060207061636B6574206261636B6F66663A7C
S315000050702030782532780D0A000000004672616DF6
S31500005080652070656E64696E6720696E206C617359
S31500005090742041434B3A20005965732E0D0A0000D7
S315000050A04E6F2E0D0A000000206C656E3A2000003F
S315000050B030782578200000000D0A307825783A20CF
S315000050C000000000130018BF01231A46FFF7FEBBBD
S315000050D04901020003D4DFF8D80481547047DFF891
S315000050E0D43402F00F021A4402F8041C704730B59B
S315000050F000F007000123C0F10704042C2EBF07248B
S3150000510003FA04F4641EC51C072D34BF0020001FDB
S315000051102140814003FA00F0401E1040084330BD94
S31500005120002070470020704770471CB572B603F028
S315000051304DFCDFF88404DFF884444169216000F007
S31500005140FEF901466FF00B00FFF7C2FF00F0F7F91A
S3150000515001466FF00A00FFF7BBFF00F0F0F90146C9
S315000051606FF00900FFF7B4FF00F0E1F901466FF0B8
S315000051700800FFF7ADFF00F0DAF901466FF007000F
S31500005180FFF7A6FF00F0D3F901466FF00600FFF720
S315000051909FFF00F0CCF901466FF00500FFF798FF7E
S315000051A00022022100F0C5F901466FF00400FFF766
S315000051B08FFF00F0C8F901466FF00300FFF788FF84
S315000051C000F0B5F901466FF00200FFF781FF0022FB
S315000051D0072100F0AEF901466FF00100FFF778FFF6
S315000051E000F0B1F901464FF0FF30FFF771FF00F014
S315000051F0AAF901460020FFF76BFF0022032100F009
S3150000520098F901460120FFF763FF00F094F9014683
S315000052100220FFF75DFF00F08EF901460320FFF73D
S3150000522057FF00F090F901460420FFF751FF00F008
S315000052308AF901460520FFF74BFF00F084F9014685
S315000052400620FFF745FF00F07EF901460720FFF72D
S315000052503FFF00F078F901460820FFF739FF00F01C
S3150000526072F901460920FFF733FF00F06CF9014699
S315000052700A20FFF72DFF00F066F901460B20FFF725
S3150000528027FF00F060F901460C20FFF721FF00F030
S315000052905AF901460D20FFF71BFF00F054F90146AD
S315000052A00E20FFF715FF00F04EF901460F20FFF71D
S315000052B00FFF00F048F901461020FFF709FF00F044
S315000052C042F901461120FFF703FF00F03CF90146C1
S315000052D01220FFF7FDFE00F036F901461320FFF716
S315000052E0F7FE00F030F901461420FFF7F1FE00F05A
S315000052F02AF901461520FFF7EBFE00F024F90146D6
S315000053001620FFF7E5FE00F01EF901461720FFF70D
S31500005310DFFE00F018F901461820FFF7D9FE00F06D
S3150000532012F901461920FFF7D3FE00F00CF90146E9
S315000053301A20FFF7CDFE00F006F901461B20FFF705
S31500005340C7FE00F000F901461C20FFF7C1FE00F081
S31500005350FAF801461D20FFF7BBFE00F0F4F80146FF
S315000053601E20FFF7B5FE00F0EEF801461F20FFF7FE
S31500005370AFFE00F0E8F801462020FFF7A9FE00F096
S31500005380E2F801462120FFF7A3FE00F0D4F801461B
S315000053902220FFF79DFE00F0D6F801462320FFF7F6
S315000053A097FE00F0D0F801462420FFF791FE00F0AA
S315000053B0CAF801462520FFF78BFE00F0C4F8014627
S315000053C02620FFF785FE00F0BEF801462720FFF7EE
S315000053D07FFE00F0B8F801462820FFF779FE00F0BE
S315000053E0B2F801462920FFF773FE00F0ACF801463B
S315000053F02A20FFF76DFE00F0A6F801462B20FFF7E6
S3150000540067FE00F0A0F801462C20FFF761FE00F0D1
S315000054109AF801462D20FFF75BFE00F094F801464E
S315000054202E20FFF755FE00F08EF801462F20FFF7DD
S315000054304FFE00F088F801463020FFF749FE00F0E5
S3150000544082F801463120FFF743FE00F070F801466E
S315000054503220FFF73DFE61684FF6FF00014041F044
S31500005460BF6141F4013161604FF4E021E06840F42E
S315000054700070E060E06840F01000E060E16106F076
S3150000548076FC05F06BFCEFF30880001F4C494FF0EB
S31500005490CD3201E040F804298842FBD249494A4806
S315000054A089B202F017F962B64849494A01204864B0
S315000054B01068484A000E08D14AF6E853D362002322
S315000054C0546B44F004045463D362012803D8106873
S315000054D040F4005010604048036823F4401343F43E
S315000054E088130360086840F4807008600120116C1E
S315000054F041F4F84111643949086006F0CFFC06F022
S3150000550001FE0621684606F05DFE01208DF80300C7
S31500005510684607F031F807F005FB03F0F3F807F0EB
S315000055201FFB07F033FD2E4807F072FD13BDFF2267
S31500005530FF210420DBE5002201210420D7E500221B
S3150000554000210420D3E5002204210420CFE580B504
S3150000555007F0B3FDBDE8014007F0B0BD80B507F028
S31500005560AEFDBDE8014007F0A7BD06F091BB80B5D2
S3150000557000210B2006F088FBBDE8014006F089BB40
S3150000558080B505F02CFC014616480C2938BF00EB07
S31500005590810002BD80B505F026FC13490204120EF7
S315000055A051F8223000F0FF0003EB800002BD00003E
S315000055B000E400E018ED00E00000000008ED00E067
S315000055C0C0DD032038100000A000002000000E40BF
S315000055D0FC81E00F64310E4020400E4010300E403A
S315000055E03CD4010090CF0100D0D001007047FEE707
S315000055F038B5044606F048FB0546DFF8EC0A837822
S315000056000178994211D000F043F8641E07D0641E59
S3150000561008D0A41E06D0A41E032C03D905E0002240
S31500005620194600E0002206F0FCF9284632BD10B506
S31500005630DFF8B83A4C000146986A224606F0FFF9B0
S31500005640A04201D0002010BD012010BD80B500F0A1
S315000056501FF807F06AFD00B10120C0B202BDDFF8F5
