:1000000000000120F97900003D7A00003D7A0000EF
:10001000BD7B00003D7A00003D7A000035530000B2
:10002000355300003553000035530000A1C30000D4
:100030003D7A00003894020001C4000065C400004D
:1000400045CA0000714D02003D7A00003D7A000073
:1000500025460200C94D02007D4D0200954D02006B
:10006000754D02003D7A0000A15500003D7A000068
:100070003D7A00003D7A00003D7A00003D7A0000A4
:100080003D7A00003D7A0000C55500003D7A000031
:100090003D7A00003D7A00003D7A00003D7A000084
:1000A0003D7A00003D7A00003D7A0000FD540000DA
:1000B000CD4D0200794D0200717902004991010095
:1000C000094E02003D7A0000613702003D7A0000CF
:1000D0003D7A00003D7A00003D7A00003D7A000044
:1000E0003D7A00003D7A00003D7A00003D7A000034
:1000F0003D7A00003D7A00003553000010B5054CF4
:10010000237833B9044B13B10448AFF300800123C3
:10011000237010BD600500200000000030DC0200EC
:1001200008B5034B1BB103490348AFF3008008BD7A
:10013000000000006405002030DC0200A3F5803AD6
:10014000704700BF174B002B08BF134B9D46FFF7AE
:10015000F5FF00218B460F461348144A121A00F08F
:1001600063F80E4B002B00D098470D4B002B00D0AE
:1001700098470020002104000D000D48002802D0FF
:100180000C48AFF3008000F02BF82000290005F0A8
:10019000BBFE00F011F800BF0000080000000000E6
:1001A000000000000000012060050020F07B00201E
:1001B000000000000000000008B5074B044613B122
:1001C0000021AFF30080054B1868836A03B198479C
:1001D000204607F05BFB00BF00000000E093020038
:1001E00070B50D4D0D4C641BA4100026A64209D11C
:1001F0000B4D0C4C29F0E2F8641BA4100026A6421B
:1002000005D170BD55F8043B98470136EEE755F827
:10021000043B98470136F2E75405002054050020BE
:10022000540500205805002002440346934200D1A3
:10023000704703F8011BF9E7024B1870712005F0B5
:1002400051BB00BF30060020C378012B02D17320C0
:1002500005F048BB70477C2005F044BB30B5114B1E
:10026000114D1B685C68B7B00022694620460AF051
:10027000C1FE012801D037B030BD9DF80030822B7F
:1002800009D0842B07D0802BEED103F06FFA69469A
:1002900003F0C2FBE8E72B78012BE5D003F0C8FAA6
:1002A000E2E700BF00610020300600200348044A56
:1002B0000068072300210AF07BB800BFA8060020D1
:1002C000A006002007B5084801A903F021FE074B4E
:1002D00001981978FF22002301F03F0103F0F6F89E
:1002E00003B05DF804FB00BFAC060020B806002098
:1002F000074B834210B50AD1064C23783BB106491F
:100300000648012204F06CF808B10023237010BDE8
:10031000F405002031060020F2600020F1490000C1
:1003200000B5C378012B8BB00ED1442308488DF85B
:100330000430002108F04CFA064B1B684FF4FA72A7
:10034000986801A90CF07AF90BB05DF804FB00BFC6
:10035000002005400061002010B502888378B2F5C6
:10036000B17F044602D0B2F5907F27D10122E2701E
:10037000DB094FF00202227125D013480CF096FAE7
:1003800028B111480CF04FFA0020FFF79BFFA1683D
:100390000E4A0B6813604B6853608B689360A378B8
:1003A0000B4A094803F03F03137063F07F03A37007
:1003B0004FF4FA61BDE810400CF09CB903F07F03E4
:1003C00083700023037110BDB8050020AC06002027
:1003D000B806002073B500210446084603F070FA01
:1003E000154B1C7004F03EFF082004F0B9FF134BBE
:1003F000134800241C7005F003FA124B01261C6000
:10040000C3F803405E700CF001FD05460CF004FDDE
:1004100001900CF007FD0199024640F2A623284600
:100420000CF0E4FC084B09480222314605F0EAFBD7
:10043000204602B070BD00BFF060002030060020F2
:1004400000940200A00600200C940200B10B0000F2
:100450000B78732B70B405460C4616466ED02CD81C
:10046000632B23D8582B05D8202B00F08580002043
:1004700070BC7047593B0A2BF9D801A252F823F0FF
:100480001D0500006F0400006F0400006F040000F1
:100490006F040000430500006F0400006F040000BB
:1004A0006F0400005F050000570500006C2B5AD058
:1004B000722BDCD170BC05F0D1B87A2B5FD0A3F1E0
:1004C000800283F080030E2BD1D80E2ACFD801A34F
:1004D00053F822F04B0500006F0400006F04000089
:1004E0006F0400006F0400002505000011050000E6
:1004F000310500006F0400006F0400006F0400006D
:100500006F0400006F0400006F0400006D05000020
:1005100032462146284670BC0CF048BB324670BCBF
:1005200000F058BE32462146284670BC00F090BD0F
:1005300032462146284670BC02F0A8BC70BC02F0CE
:1005400027BE324670BC05F003B932462146284624
:1005500070BC04F0F7B8324670BC04F06DBA324695
:1005600070BC04F08BB970BC02F0D2BF3246214699
:10057000284670BC00F0F8BE70BC04F087B870BCB0
:1005800001F016BE07B500238DF80430044901239D
:1005900001A88DF8053001F0E5FD03B05DF804FB1E
:1005A000210300000120704710B50C4630B90CF053
:1005B0002DFC20700CF030FC607010BD00230B701F
:1005C0004B70FAE710B504F029F804F003F804467C
:1005D00004F04EF840F6B7339C421CD8B4F5166FC1
:1005E0001BD364204443A4F56A344FF416730A22E3
:1005F000A4F5C074B4FBF3F4E4B2B4FBF2F302FB71
:10060000134403EB8300E4B24000042CC0B201D9D0
:100610001044C0B210BD6420FCE7FF20FAE70020C0
:10062000704700002DE9FF41DFF86C8004460E465C
:1006300017461D461749D8F800000C2301AA09F0F7
:1006400001FFACB94EB92A46FF210DF105008DF826
:100650000460FFF7E9FD8DF80F500E49D8F800004F
:100660000C2301AA09F0A4FE012004B0BDE8F0812A
:10067000601E0C24604304AB1C1801AB013004F86D
:100680000C6C2A463946184427F022FE04F8015C17
:10069000E3E700BF02100500A806002030B50446BD
:1006A000094885B00D460C230849006801AA09F0E5
:1006B000C9FE013C04AB0C2000FB0434012014F8FB
:1006C0000C3C2B7005B030BDA806002002100500C0
:1006D0007FB504460E4816460C2301AA00680D4655
:1006E0000C4909F0AFFE631E0C214B4304AA1A44C7
:1006F00012F8012C32700A2A08D8013301A91944D2
:10070000284627F0E5FD012004B070BD0020FBE77E
:10071000A8060020021005000120704730B5114CDA
:1007200045782179002311F002021BBF0370A278E3
:10073000FF2302F00F0262F3030508BF0370FF2BD3
:1007400018BFA27845704478437114BF1209002283
:1007500062F307140023FE2244708170C27002719C
:10076000837130BDA006002007B56846FFF7D6FFAD
:100770009DF80000003818BF01204042C0B203B00D
:100780005DF804FBFFF7F0BF00230A4A03604360F3
:10079000037253780370917843789278C1F3030120
:1007A00061F30303120962F307134370FE2383709E
:1007B000C3707047A0060020082303700223437013
:1007C00083700023C370FF2303710123C3720623C8
:1007D0000373437B23F00F034373704710B5104C32
:1007E000A3782179DA0617D5E378DB0614D501F072
:1007F000FB01217111F004010EBF08460121002008
:1008000004F06EFB217911F00201BDE8104018BF21
:100810000121032004F064BB41F00401E9E700BFBB
:10082000A006002008B50E490B7983F0020242F3BE
:100830004002D2B290420ED0FF2808D123F002032A
:100840000B71FFF7CBFFFFF731FD022008BD20B988
:1008500043F00203F4E70120F8E70020F6E700BFC9
:10086000A0060020FFF7DEBF70B50478012C24D16C
:10087000437813F00F0220D11D0915F00E0F1AD185
:100880000679417901EB0621A9B98679C17901EB95
:10089000062181B9017A71B909498A78C3F3030342
:1008A00063F30302134665F307138B70FFF796FF9C
:1008B000FFF7FCFC2246104670BD0022FBE700BF9C
:1008C000A00600201FB5104B104800221A6099782E
:1008D0000068012262F307119970FE215971997124
:1008E00002215A70197104238DF80F30084B8DF8CE
:1008F0000420CDF8053001AA0C2301F5A22109F04E
:1009000057FD05B05DF804FBA0060020A8060020F6
:100910003132333482B06B4683E8030093E803003E
:1009200002B004F065B800000246064800230360E8
:100930004360836013680360536843609368836017
:10094000704700BFF260002008B5FFF7EDFF054BD0
:10095000054801221A7041F28831BDE808400BF0C9
:10096000C9BE00BF31060020F4050020FFF7ECBF30
:10097000FFF7DABF0246034803490068012309F084
:1009800017BD00BFA80600200310050038B502F00F
:10099000FFFE08B9002038BD0C4D0020FFF712FE05
:1009A0002B7898420446F5D00A339842F2D002469A
:1009B000074B0848002103F0F1FE0028EAD1284641
:1009C0002C70FFF7D7FF0120E5E700BFF1600020A2
:1009D000490200009800002013B5104C0120216846
:1009E00001F0D4F9FFF76EFF0D4A206800210723BC
:1009F00009F0DEFC0B4865230370FFF7BBFF02F034
:100A00000BFD0CF0FDF9042301900DEB03022068AF
:100A10004FF4A22109F0CCFC02B010BDA8060020C2
:100A2000A0060020F160002030B5284B284D1B683F
:100A3000DC68A3B0002201A920460AF0DBFA0128F5
:100A400001D023B030BD9DF80430C32B15D0C42B8A
:100A50003AD0C02BEED19DF80C30002BEAD0029B8F
:100A6000AB4203D1002003F041FDE3E7002BE1D0CE
:100A70009DF80D0004A99847DCE79DF808308BB974
:100A800002F086FE38B9FFF7A7FF322004F02AFFF4
:100A900003F0A0F8CEE702F061FE03F055F800285D
:100AA000F1D1F2E7072B03D1322004F01BFFC1E79D
:100AB000052B01D17A20F8E7062B01D17B20F4E742
:100AC000082BB7D13020F0E77220EEE7006100205C
:100AD000ED44000008B5044B186809F08DFDBDE831
:100AE0000840FFF779BF00BFA806002007B50948F6
:100AF00009490068012301AA09F0A4FC28B1652373
:100B000006488DF80430FFF735FF9DF8040003B068
:100B10005DF804FBA806002003100500F16000202A
:100B2000F0B5204F204C85B0384602F0F7FFA3788F
:100B3000386843F01003A370042300250DEB030273
:100B40004FF4A221257109F07DFC064618BB0CF07C
:100B500057F9072302AA3146386809F073FC9DF85B
:100B600009009DF80D209DF80C109DF80E30607066
:100B70009DF80A0062712171A371A070FFF7B6FFA2
:100B80000A4B39681870304601F000F902F03EFC5B
:100B9000012005B0F0BD02F03FFCFFF79BFF2846A7
:100BA000F7E700BFA8060020A0060020F1600020A3
:100BB00037B5044601213C483C4D07F009FE0AF0D8
:100BC0002BFF3B4B28601C6002F0A8FE394A3A48D4
:100BD000002102F083FE394A3948002102F07EFEEE
:100BE000384A3948012102F079FE384936480BF07D
:100BF00081FD2146364B374A2868002402F0EAFD81
:100C0000354B364A0094012105200AF02DF9344B6A
:100C10002A6818600146032332480BF00BFD314867
:100C200004F05AFE02F00EFE012004F0A9F920465D
:100C300004F0A6F9022004F0A3F9032004F0A0F9BF
:100C4000012004F08FFB204604F07AF9FFF768FFDB
:100C500000F0F6FB22462448062100F013FC1C4954
:100C6000224802F09BFF22462046214902F016FC52
:100C7000204B0420197802F03DFF21460122204636
:100C800001F090FD23461C4A1C481C4C042109F02D
:100C9000E8FF00224FF0FF31204609F0EAFF013063
:100CA000F7D103B030BD00BF00200540380600205A
:100CB00000610020C5020000B8050020F10200001C
:100CC000F4050020570200007C050020E09304009A
:100CD000313800000C940200580600203206002033
:100CE0005406002048060020760000209C000020CA
:100CF00059030000F0600020289402003C06002008
:100D000030B5044685B0012004F02AF90430A04231
:100D100001D0302C04D10220FFF78EFAFFF732FC0D
:100D2000762C02D10620FFF787FA9D4B1B78032B08
:100D300000F2BC80DFE813F00400BC00F800010101
:100D4000712C07D1002004F0FBF805B0BDE830405D
:100D5000FFF744BD722C40F09A80FFF7BBFEFFF70F
:100D6000DFFE012004F0FCF80230844201D0312C77
:100D70000ED18C4B19788C4B1B689B691B78002B10
:100D800000F08C80032002F0B5FE0120FFF754FA3A
:100D9000022004F0E5F80230844208D10320FFF776
:100DA0004BFA732004F09EFD752002F05FFD7C2C51
:100DB0000BD1FFF7EBFD28B10320FFF73DFA7020C0
:100DC00002F054FD732004F08DFD032004F0C8F8F8
:100DD0000230844226D17548754B009301AA7549AB
:100DE00000680C2309F02EFB9DF80F20042A19D16E
:100DF0009DF80430013B012B14D80DF10501684624
:100E000027F056FA70B96C4B187940F34000C0B225
:100E1000FFF708FD6948FFF787FD01220146684892
:100E200003F0DEFA002004F09BF80330844210D176
:100E3000614AD37843F01003D370FFF7CFFCFFF77C
:100E400035FA5E48FFF770FD012201465C4803F069
:100E5000C7FA002004F084F80130844220D15649BA
:100E6000CB78C3F3031202F00E0262F30713CB70C8
:100E7000FFF7B4FCFFF71AFA5048FFF755FD01469B
:100E80004F48012205B0BDE8304003F0A9BA7A2CE2
:100E90007FF467AF0120FFF7CFF962E7012072E727
:100EA000002004F05DF804308442D8D005B030BD95
:100EB000712C32D1022004F043F8FFF78FFC01209F
:100EC00004F04EF80230844201D0332C15D1354D58
:100ED0000020297802F00EFE2978042002F00AFE94
:100EE000002004F02DF80020FFF7A6F901F0BCFF68
:100EF00034493548012203F073FA322CD6D1294BFC
:100F00000420197802F0F6FD0020FFF795F901F0B2
:100F1000ABFF2C492C480122B4E7722CCFD1FFF74C
:100F2000D9FDFFF7FDFDCAE7722CBFD1FFF7D2FD57
:100F300005B0BDE8304004F0EBB9712C3FF405AFCB
:100F4000722C04D1FFF7C6FDFFF7EAFDAEE7732C64
:100F50000AD101A802F09EFC20B19DF8040004F023
:100F6000C1FCA3E77420FAE7752C10D10020FFF72D
:100F700029FB164B02460021154803F00FFC002800
:100F800094D0732005B0BDE8304004F0ABBC742CA5
:100F90008CD1002005B0BDE83040FFF74DB900BF4F
:100FA00030060020F060002000610020A80600202C
:100FB0003132333402100500A0060020BA060020AA
:100FC000F149000068000020CD2D0000490200001A
:100FD0009800002013B5084C206800220DF107018D
:100FE0000AF008F8012801D002B010BD9DF80700F2
:100FF000FFF786FEF0E700BF54060020002840F20D
:10100000014018BF00207047012070470023038073
:1010100001230B807047000010B5012404700C7090
:10102000082111700949D1F8F020D1F8F410D970D5
:10103000080E1870080C5870080A110E1971110C5E
:101040005971110A98709971DA7110BD0081E00F21
:10105000F0B54D786B1E9BB004460E460A2B7AD82D
:10106000DFE803F0290679354079797979796200EA
:1010700002F07EFF0746D8B901464D2206A8FFF7C9
:10108000D3F8207A0DF10B0306AA314600F07F0059
:1010900000F00CFF03A9204602F03AFF039A9DF8E6
:1010A0000B103B4606A802F0BFFE002808BFFF2534
:1010B00028461BB0F0BD007A8523314600F07F0042
:1010C00000F072FE08B1FF25F2E70225F0E7022AE0
:1010D000FBD9017AB078134601F07F01324600F067
:1010E000CBFDEFE702F044FF0028EED14D22014690
:1010F000019006A8FFF798F8204603A902F008FF20
:10110000207A85228DF8182000F07F0006228DF8C5
:10111000192000F013FD8DF81A00019B039A03219A
:1011200006A802F081FECEE702F022FF0028CCD113
:101130004D220146019006A8FFF776F803A9204644
:1011400002F0E6FE85228DF818200C228DF8192079
:1011500000F020FADFE70025AAE7000000B599B00B
:101160004D22002104A8FFF75FF801A9144802F0FE
:10117000CFFE59238DF8103004238DF81130114B18
:101180001B78022B0CBF8023002343F001038DF852
:1011900012300B4B197A0C4B0DF11302187801F039
:1011A0007F0100F06DFA094B019A0A2104A802F0B0
:1011B0003BFEB0FA80F0400919B05DF804FB00BFB7
:1011C000080700200607002005070020191300006B
:1011D000FFF7C4BFF0B599B005460E46174602F0BA
:1011E000C7FE044610B1022019B0F0BD7378032B7E
:1011F0002BD0052B4CD0012BF6D101464D2204A853
:10120000FFF712F8032FEED12A7AB1788DF8031088
:10121000592302F07F028DF8103005A802238DF8C3
:1012200011308DF8121000F035F901A906468DF83D
:101230001300284602F06CFE311D019A2346C9B204
:1012400004A802F0F1FDFF20CEE72F4C2378002BFD
:10125000C9D1B2782B7A2D4912F0400F2C4AC3F332
:10126000060313702B4A2B684FF0010004BF207057
:10127000F07813606B685360AB6893601CBF022604
:1012800026700870FFF76AFF0028DCD12070AAE7FB
:101290004D22014604A8FEF7C7FF287AF3788DF89F
:1012A00003300DF1030100F07F0000F0D9F9297A35
:1012B0009DF8030001F07F0100F058F90646002870
:1012C00091D001A9284602F023FE2A7A9DF8031046
:1012D0008DF8121059238DF8103002F07F0206238A
:1012E00005A88DF811308DF8136000F021F9002861
:1012F0003FF479AF311D019A2346C9B204A802F028
:1013000093FD00289FD06EE7060700200507002008
:10131000040700200807002038B50E4C2378022B64
:1013200014D10D4B1D786A1C1A700C4B187800F004
:10133000EDF885420AD20021094A0A4802F0CEFAA5
:10134000BDE8384007480A210BF0D4B900232370C8
:1013500038BD00BF06070020050700200407002055
:10136000D1110000C8060020F0B54D786B1E9BB06F
:1013700004460E46042B60D8DFE803F022035F2DFD
:10138000400002F0F5FD0746002834D101464D2209
:1013900006A8FEF749FF207A0DF10B0306AA314695
:1013A00000F07F0000F082FD03A9204602F0B0FDAE
:1013B000039A9DF80B103B4606A802F035FD08E0A5
:1013C000007A8E23314600F07F0000F0EDFC01280A
:1013D00010D1FF250FE0022A08BF0023017A08BFC1
:1013E000B370B078134601F07F01324600F044FC40
:1013F0000028EED1022528461BB0F0BD02F0B8FD52
:101400000028F7D14D220146019006A8FEF70CFFF7
:1014100003A9204602F07CFD207A8E228DF8182048
:1014200000F07F0006228DF8192000F087FB019B59
:10143000039A8DF81A000321BEE70025DBE70000C0
:101440001FB50D4A0D4C10685168127A01AB03C3E9
:101450001A700B4B01221A7000213C222046FEF725
:10146000E3FE01A827F050F801A90246204626F025
:101470002FFF04B010BD00BF7894020014070020B5
:10148000B40000201AB9024BD86283F830107047BC
:1014900014070020F0B51B4B85B06F4606460D467D
:1014A00003F10804BE4618685968BC46ACE803005E
:1014B0000833A3426746F6D118689B88CCF8000031
:1014C000ACF80430E6B1DAB90F4C94F83830013397
:1014D0009D4213DC95B1012D04D0636B322404FBD3
:1014E00005345D3C204627F00FF8C5B22A46214658
:1014F000304626F0EDFE284605B0F0BD7446F1E713
:101500000025F8E7819402001407002008B548B9C7
:1015100002F04EF9022807D0044B93F8380001304E
:10152000C0B208BD0020FCE70120FAE71407002044
:1015300010B50C46B2B901290B4B07D193F83020F6
:10154000D96A520026F0C4FE012010BD32216FF08E
:10155000630211FB0424596B2144033111F8012C5F
:101560005200EFE70020F0E71407002071B9084BA4
:10157000012817BF5B6B93F83000322202FB00306A
:1015800018BF10F8620C4000C0B2704700207047CE
:1015900014070020014B1878704700BFB4000020EA
:1015A0002DE9F0412A4D25236B70AA700AB1002065
:1015B0001EE006784778274B0878DEB9012F19D14D
:1015C000DA6A93F8303002EB43039342EFD013F81A
:1015D000021D8142F9D1204B00211A1F012000F089
:1015E0006BFA0028E3D11D4A012313702B701848B1
:1015F000BDE8F08193F838C05B6B00210133CCB2B9
:101600006445D4D213F8012CB24209D11A78BA42F7
:1016100006D193F8018000225FFA82FEF04502D8DD
:1016200001313233EBE7013213F812E08645F3D192
:101630000234E4B2FF2CBAD0074B00211A1F204617
:1016400000F03AFA0028B2D1044B2C701C70CEE79F
:10165000500700201407002058070020B400002085
:101660000A783AB1054B03EBC00090F838300133EB
:101670009A4201DD01230B70704700BF1407002060
:1016800037B50D468DF807000DF1070128461446C1
:10169000FFF7E6FF9DF807202270012A04D10023FE
:1016A000A370E27003B030BD074901EBC5013223DE
:1016B0006FF0630013FB02034A6BD118D35CA37075
:1016C0004B78E370EEE700BF14070020F0B5541C20
:1016D000E6B2431C06EB460451FA83F763001E246E
:1016E00004FB0733154D6FF0050402EB420774430A
:1016F0002B447F00243CD6B2042E0AD11E2202FBCA
:1017000000F3062000FB063302FB0130FF232B52BF
:10171000F0BD33F81ECCBCF1FF0F02F1010203F162
:101720000603EBD0DE1953F824EC46F804E006EB90
:10173000040C33F8206CACF80460DCE77807002078
:101740002DE9F04FDFF824A193F8048085B0154609
:101750001C4653181E2202FB03A36A1E0192B8F115
:10176000010F9DF804B0029038BF4FF001084FF010
:1017700000091E46042736F806CCBCF1FF0FFAB26A
:1017800015D016F8020C012811D0207908B9207B59
:1017900020B1206810F80900604508D103934FF08C
:1017A000FF0326F8063C5846FFF790FF039B013FD6
:1017B0007A1CA6F10606DED109F101095FFA89F269
:1017C0009045D6D8029B852B4DD094F80CB0019B48
:1017D000BBF1010F03EB010805F1FF354FF01E03CC
:1017E00038BF4FF0010B03FB08A84FF00009EDB222
:1017F0004FEA490A47460426388BFF28F2B227D021
:101800003B7F012B24D123790BB9237BCBB1A36878
:1018100013F80AE0864503EB0A0C02D0BEF1000F74
:1018200016D1019B1E2043434FF0060E0EFB0633DC
:1018300000FB01330D4803449CF801009B78834270
:1018400006D1FF233B83237B13B12846FFF73EFFDE
:10185000013E731CA7F10607CED109F101095FFA19
:1018600089F39B45C4D805B0BDE8F08F7807002008
:1018700070B503310024032A01600471846004738D
:1018800001D8046070BD033AD2B2551E01348E2BCC
:10189000E4B201F1010609D1097839B905EBD57136
:1018A000C1F34701017311B18660EBE70471A242F5
:1018B000314605F1FF35E9D8E4E770B406880D88B4
:1018C0008C78AE4206D18278624012F07F0301D15B
:1018D00012061ED504F07F02072A05D9837803F08B
:1018E0007F039A4207D817D3AE4207D983785B06A5
:1018F00004D0640609D14FF0FF300BE0AE4204D2B1
:10190000620602D083785B0606D070BC042226F003
:10191000CFBC184670BC70470120FBE770B40B4683
:1019200001F10F040022FF2501280DD11E786EB1B0
:101930000333A342F8D162B107480A4670BC074995
:1019400000680F2308F034BD0028F1D11D7001227A
:10195000EEE770BC704700BF046100200110050075
:101960002DE9F04186B04FF000080446CDF8048020
:1019700002F0E6F8394F3A4D3860022C064612D094
:10198000032C41D0012C33D1364901AB6A4608F013
:10199000A7FD70B30F22002102A8FEF745FC02A9A3
:1019A0002046FFF7BBFF0F2302AA2E49386808F034
:1019B00049FD2B4A0023062603EB430102A806AC8F
:1019C000405C1080214406FB035011F80F4C8470DA
:1019D00011F80E1C0133C1F34010052BC1F30301B4
:1019E0001071517102F10602E6D106B0BDE8F08136
:1019F0000120019B0F2BCDD10028CBD1194938688C
:101A000002AA08F01FFDCAE728464346062703EB53
:101A1000430102AC0288625407FB035406AA0A443D
:101A2000A47802F80F4C02AA1144027944795201B9
:101A300004F00F0402F0200222438C78013324F0DA
:101A40002F042243052B8A7000F10600DFD10549DF
:101A50000F2302AA304608F0ABFCC6E70461002061
:101A6000780700200110050003782DE9F041DBB96B
:101A70000D78012D18D00E4E3468ACB10D4A127895
:101A8000A4F1030C02EB42029A420DD0DF1C04EBDE
:101A9000030E1CF80780A84508D19EF801200270AB
:101AA000326813449B780B70BDE8F0813B46EBE74E
:101AB000980700209607002073B501298DF80700CC
:101AC00015461C468DF8061008462FD882B37BB306
:101AD0009DF8076016B9072002B070BDFFF716FD2C
:101AE0008642F8D80DF107010DF10600FFF7BCFFA3
:101AF0009DF807309DF80620013B13440E4A1E2135
:101B000001FB03232B600523237029680022062094
:101B100000FB02F5D3B24D5BFF2D03D123704BB117
:101B20000020D9E70132052AF2D1F9E70620D3E7F0
:101B30000320D1E70220CFE778070020FFF7E6BCBB
:101B40002DE9F04F1E46138885B0E82B15468DF819
:101B500007008DF8061003D9002005B0BDE8F08F0E
:101B600001F026FE022806D19DF80730012BF3D1A3
:101B70002B88E82BF0D80DF107010DF10600FFF7D7
:101B800073FF9DF807209DF80630012A54D1002BE1
:101B90000CBF052400242B88ADF80830AB788DF8F5
:101BA0000A308DF80C6001F0D9FD01F0CDFF9DF8F1
:101BB00007709DF806902F4D8DF80D00013F1E26F1
:101BC000C9EB09137E4306EB43064FEA43082E4454
:101BD0004FF0000AA24531DB1E22631EDBB24FF03C
:101BE000060A57430AFB037302FB09F94B44EB5AFD
:101BF000FF2BB1D1023CB844E6B20AFB06F606EB75
:101C000008003E444E442844AB5BFF2B05EB060B1B
:101C10000FD002A9FFF751FE00281BDD631CDBB2C9
:101C20000AFB03734B44A959E950EA18BBF8043086
:101C30009380013CE0D50EE00524ACE73388FF2B10
:101C4000CAD0304602A9FFF738FE063680B10AF145
:101C5000010ABFE7EDD001340623E4B203FB0454CC
:101C600004EB08030298BDF80C2044F808009A80A1
:101C7000012072E7780700202DE9F04186B00129A4
:101C80008DF8070015461C468DF80610084603D946
:101C9000002006B0BDE8F0819DF80730012B01D18E
:101CA0000029F5D1FFF732FC9DF80760002E4AD0DD
:101CB0008642EDD80DF107010DF10600FFF7D4FEC5
:101CC000032C2FD0042C2FD1EB786BBB2E4F4FF071
:101CD00006081E262B789DF807009DF80610852B18
:101CE000E2B200F1FF3009D106FB00F308FB043338
:101CF00006FB01333B441B79012B0CD006FB00F3A0
:101D000008FB043306FB01334FF0FF0CC0B227F889
:101D100003C0FFF7DBFC013CDCD20320FFF720FE11
:101D20000120B6E70424D1E702A8224629468E23E3
:101D3000FFF79EFD03469DF807209DF806102878C2
:101D4000FFF7FEFCE9E78E232246294602A8FFF7AB
:101D50008FFD8DF806600020FFF7D8FB01240646B2
:101D6000B4429DF8061006D90131C9B28DF80610AB
:101D70000029F0D0D1E72246287802AB0134FFF7E2
:101D8000DFFCE4B2ECE700BF7807002010B50446A2
:101D900001F0D6FE034B186084F00100BDE810404E
:101DA000FFF7DEBD046100202DE9F041012888B075
:101DB00005460E4603D9002008B0BDE8F0818978B9
:101DC000012939D10028F6D12846CDE90023FFF7B3
:101DD0009DFBB1788142EED8DDE90023314604A8AD
:101DE000FFF746FD9DF81C209DF814301344B2788F
:101DF000012A24D1002D14BF002205229342DADCEF
:101E0000002BD8D000270124B8469DF81420FBB23F
:101E10009A4216D89DF81C80B8F1000818BF4FF000
:101E2000010800279DF81C20FBB29A421CD8032011
:101E3000FFF796FD2046BFE70029BCD0C4E7052286
:101E4000DCE7049AD35CADF80C308DF80E8013B942
:101E50001C460137D9E7B078002303AA2946FFF7CB
:101E60006FFE0028F5D1A7E7069A02EB430012F8AF
:101E7000133041789DF80E20ADF80C30C1F3060107
:101E800061F306024178C90961F3C7128DF80E208B
:101E900013B91C460137C5E7B078434603AA294663
:101EA000FFF74EFE0028F5D186E700002DE9F04F40
:101EB00085B091F8028005460E4614461F46FFF78E
:101EC00025FB804501D8B3780BB90123B370B378F3
:101ED0008DF80E508DF80F302DB90DF10F010DF169
:101EE0000E00FFF7C1FDB378012B24D1002D0CBFEC
:101EF0000523002332789DF80F502270B2789DF8A8
:101F00000EC0A270013D3B4AE3700CEB05004FF0A0
:101F10001E0E00210EFB00222171904608465FFA3A
:101F200081FE734509D8317885291AD08E291BD0B6
:101F30000530387033E00523DCE7B8F800E0BEF187
:101F4000FF0FF0D098F80490B9F1010F1FBF04EB18
:101F50000009013089F805E0C0B2013108F1060836
:101F6000DDE703236370E3E74FF01E0E0321002635
:101F70000EFB05F5617000F1060A31464FF0060BC5
:101F800001950EFB0CFC5FFA86FE73450AD800290A
:101F9000CED004440630002301446371397005B08B
:101FA000BDE8F08FB2F800E0BEF1FF0FEFD092F87D
:101FB0000480B8F1010F19D104EB0109019D09F862
:101FC0000AE00BFB065E0B4DE644AE4401F101084E
:101FD0009EF802E054FA88F80EF08009CEF3060E5F
:101FE00049EA0E0E023108F80AE0C9B2013606329B
:101FF000C9E700BF780700200A4A0B49002310B543
:10200000136005220A60094A0488FF2C01D10B6085
:1020100010BD0133052B42F8040B00F10600F3D18B
:10202000F6E700BF74070020700700205C0700205F
:10203000094A0A49136870B50C68094E5D1DB3FB67
:10204000F4F104FB1131013356F8210008B9AB4219
:10205000F5D1136070BD00BF9C0700207007002001
:102060005C070020074B08491A6810B5104600238A
:10207000934200D110BD51F8044B04B9013801332B
:10208000F6E700BF700700205C0700202DE9F04F45
:102090000025D0F800A0304EDFF8C490AE464FF0D7
:1020A00001080C78EBB29C4203D8002303600B704C
:1020B00028E0062404FB03F70AEB070C3AF8077044
:1020C0009CF8024004F07F04013CF3B95FFA84FEFF
:1020D000BEF1060F12D89CF805C0C2F80230937802
:1020E000178008FA04F464F30603937082F805C0BD
:1020F0003368013333600135BE46D2E7917863F32C
:10210000C71191700020BDE8F08FBE455FFA84FBD7
:1021100002D1BBF1060F0BD9C0F800C00A78BBF1A1
:10212000060FA2EB03020A7013D90C4A1360E9E709
:102130009378D6F800C008FA04F41C4364F07F04D6
:1021400094700CF1FF34002349F8243049F82C3006
:10215000CEE70120D7E700BF740700209C070020CE
:102160005C07002070B586B000254FF480730646EA
:102170000C46ADF81450ADF8163001F011FB18B94B
:102180008CB105A8A0470EE0084B00951B88ADF860
:102190001030CDE901542B4604AA2946304603F0FD
:1021A00023FA0028ECD106B070BD00BF8F94020066
:1021B0002DE9F0479CB007460D46164601F0D8FEC3
:1021C000002840F0F0806C78631E092B00F2D1806B
:1021D000DFE803F005CF83CFCF6DCFA9CFD108AE15
:1021E0004D2200213046FEF71FF8384605A901F0C0
:1021F0008FFE00250DF1120104A8ADF81050ADF8C6
:102200001250FEF703FF7A238DF82030BDF810300E
:102210008DF823301A0A022728468DF822208DF8DF
:102220002170FEF7EBFE000A8DF824002846FEF729
:10223000E5FEFF238DF828308DF825008DF8265017
:102240008DF82750FEF7AEF901388DF8290000F01F
:1022500005FC030A8DF82A308DF82B004FF00A0890
:10226000FEF7A0F917FB0489A04214FB07F506EB63
:10227000090A0CD8FEF7C8FE61000B31059A8AF8EE
:1022800000000023C9B2304601F0CEFD21E0204617
:10229000FEF7B4FE000A06F809002046FEF7AEFE7F
:1022A0001CAB1D44013405F8450CE4B2D8E73246B6
:1022B000294641F60F500AF0BBFDAA78EC781102CE
:1022C000063E01F4FE41F6B200962B1D214400F0BB
:1022D0002FFBFF201CB0BDE8F0874D22002108A88D
:1022E000FDF7A2FF05A9384601F012FE0DF1120319
:1022F00032462946384600F0BBFB7A238DF8203061
:1023000004238DF821309DF812308DF82230059A83
:10231000264B032108A801F087FD0028D9D0022010
:1023200000F08EFBD5E70DF11201284600F080FC8D
:10233000F8B94D220146039008A8FDF775FF05A9DD
:10234000384601F0E5FD28686968039B08AA03C2C6
:10235000297A117009228DF821206A7A8DF82A20B5
:102360009DF812208DF829200B21059A08A801F06C
:102370005BFD0020AEE7002405A93846059401F076
:10238000C7FD7A238DF820300B238DF821300323ED
:102390008DF82230059A8DF823408DF8244023468D
:1023A000052108A870E7022094E700BF412A000039
:1023B000F0B599B0154607464D220E4604A80021F7
:1023C0001C46FDF731FF002369463846009301F0B3
:1023D0009FFD7A238DF8103007238DF811302B0ADA
:1023E0008DF81330009A8DF812602346052104A859
:1023F0008DF8145001F0C2FC28B1044B186801900C
:1024000001A8A047012019B0F0BD00BF92940200BE
:1024100070B598B00C464D220546002104A8FDF782
:1024200003FF002601A928460196052501F070FD4D
:102430007A238DF810308DF8115000F045FC230AF6
:102440008DF812008DF81330019A8DF81440334640
:10245000294604A801F092FC801B18BF012018B087
:1024600070BDF0B599B00D460746164600214D22C5
:1024700004A8FDF7D9FE002401A93846019401F013
:1024800047FD0DF102016846ADF80040ADF802408D
:10249000FEF7BCFD2046FEF7B1FD7A238DF8103023
:1024A00009238DF81130BDF800308DF813301A0A69
:1024B000030A8DF814302B0A8DF812208DF816308F
:1024C0008DF815008DF817508DF818408DF81960AB
:1024D000FEF79AFD019A8DF81A0023460B2104A8F5
:1024E00001F04CFC001B18BF012019B0F0BD00002A
:1024F00070B50C4D0C4B297A00221C465E78864242
:102500000AD11E788E4207D10C2303FB0244636874
:102510009847237A2B7270BD0132092A03F10C030C
:10252000ECD1F8E7B8000020989402000820FFF7EB
:10253000DFBF704708B505480AF0B8F910B1034885
:102540000AF071F9024B00221A7308BDC80000207E
:10255000B80000202DE9F843194F04463868732865
:102560000E4615461AD8DFF85C80DFF85C90131928
:10257000DB0AD8F8002001339342C9F800300DD0AF
:1025800074304FF40061C00203F0A4FCD9F80030AD
:10259000C8F8003010B93B6801333B6015F0030206
:1025A00018BFC2F1040204F568300CBF2A46521964
:1025B000314603F071FCBDE8F84306F07BB900BF7B
:1025C0006C080020700800205801002010B5084C4D
:1025D00063680BB1607A9847637A3BB994F8993095
:1025E000812B03D0BDE8104003F0A4BB10BD00BF99
:1025F000B800002008B5FFF79DFF0C4890F89B102D
:10260000FF290DD0FC2994BF02220022084B8C30F8
:10261000FFF7CEFE40B1BDE808400020FFF7D6BF6F
:10262000BDE8084003F086BB08BD00BFB80000202D
:10263000CD25000010B5074C01236372FFF7DAFFC8
:1026400094F89B30012B03D1BDE8104002F060BE2E
:1026500010BD00BFB80000200B48037B0133DBB284
:10266000092B037306D8B0F88810013189B28C3079
:10267000FFF7CEBE90F89B30FF2B04BF012380F8FC
:102680009B300420FFF734BFB800002010B5074C82
:1026900094F89A30FF2B08D100F038FB044BC4F8B3
:1026A0008830BDE81040FFF745BF10BDB8000020DE
:1026B00000000F1D38B5114C11480025C8222946CD
:1026C00084F89C50FDF7B0FD04F1100025730AF06A
:1026D000EDF870B942F2107104F110000AF00AF836
:1026E000B4F8881007480131BDE8384089B2FFF7D7
:1026F0008FBE04F110000AF080F8F1E7B800002066
:10270000A20700204401002070B500251F4C20487E
:1027100084F89C50C8222946FDF786FD1D481E4EB0
:10272000036813F0010F04D001232946337006F02B
:102730004FF80021084603F085FB0546A8B1174B6A
:1027400001251D60164B0020186003F02FFB06F0DA
:10275000B1F831780F4806F03BF80423657284F82D
:102760009B30BDE87040FFF745BF3178094806F05F
:102770002FF894F89930812B0CBFFD23FF2384F8A8
:102780009B30FFF737FF657270BD00BFB8000020B7
:10279000A2070020002005407408002058010020F6
:1027A0007008002070B5584CC4E90001574800215A
:1027B0000160574801230360564884F8983001604F
:1027C000554990B00B7094F89930002A00F08E8033
:1027D00043F0800384F8993003F088FA10B10023A5
:1027E00084F8983006A803F057FA9DF81830012BAA
:1027F0001CBF002384F89830089B002513F4803315
:1028000004A9284608BF84F89830CDE9045503F0A0
:10281000B3FA039501F094F9404903AB02AA0646C6
:1028200007F05EFE78B110231A4629460CA8FDF782
:10283000FBFC01228DF831201023384903930CAAA8
:10284000304607F0B5FD0DF1060000F049FA00280A
:102850003ED0039B31490CAA304607F0F3FD039BA1
:102860000C2B0BD19DF835209DF836309DF8341097
:10287000ADF834108DF836208DF83730BDF834308F
:102880009DF83620ADF826309DF82830BDF80600BA
:1028900062F306038DF828309DF837308DF8243028
:1028A0000E9B8DF825309DF82C306FF306038DF8C4
:1028B0002C309DF83030812B40F2012119D1884213
:1028C0000CBFFF220122BDF8321009A8FFF7C9FD95
:1028D000134A1448012101F001F8134A134800215A
:1028E00000F0FCFF94F8980010B070BD03F07F0377
:1028F00070E7002388420CBFFF2105211A4609A872
:10290000FFF756FDE4E700BFB80000206C08002088
:102910005801002070080020A107002006100500C3
:1029200059260000C80000202D25000004010020C9
:102930002DE9F3473D4C9DF828A00D461946237A12
:10294000022B03D128B1002384F89B3002B0BDE8EC
:10295000F087B4F88830207301339D4201D0012301
:10296000F2E7334F3B78534556B201D0002EF6DAEA
:102970001FFA8AF8B4F88A00DFF8C0900191424645
:10298000A4F888500AF054FA99F800300199A4F894
:102990008A00F3B194F89CC03878264B52460CFB61
:1029A000003025F095FC94F89C300133DBB2002E0A
:1029B00084F89C3029DAB4F88A10628991420FD0E9
:1029C000002384F89B30062002B0BDE8F047FFF7F3
:1029D0008FBD3B78681E42465843FFF7BBFDE2E7D8
:1029E00099F800204AB13C7812495A1E02FB048231
:1029F000E81A92B26043FFF7ADFD0F48642109F079
:102A000079FE0128A2D10820DEE799F80020934240
:102A100001D20520D8E73AB13C780649E81A03FB11
:102A200004F26043FFF796FD0720CDE7B8000020D1
:102A3000A0070020A207002004010020A107002019
:102A4000054B93F89A30FF2B05D110B90220FFF700
:102A50004FBD0320FBE77047B800002008B500F029
:102A60005FFE83699B894FF6FC70063B184008BDEA
:102A70002DE9F0470A2A88B080460D4614461E46C6
:102A800029D94B7A91F80A9009EB03290B7A3BB1CB
:102A900003233370012008B0BDE8F047FFF728BDDD
:102AA0000B2A0BD05C4AC97A92F89930C9074CBFFF
:102AB00043F0010323F0010382F89930FEF7A4FAF2
:102AC0000C2C554C0AD92B7B834207D0042333703E
:102AD00084F89A30DEE74FF0FF39EFE72F7AFDF701
:102AE00061FD874209D303233370012084F89A30B3
:102AF000FFF7FEFC08B0BDE8F08700230DF10E01E2
:102B000003A8ADF80C30ADF80E30FEF77FFAFFF7F2
:102B1000A5FFB9F1FF3F074607D0484502D3B9F1F9
:102B2000000F01D10223DFE74F46B5F802A0B5F848
:102B300004900020FEF762FA9AFA9AFABDF80C3077
:102B40001FFA8AFA534505D199FA99F91FFA89F9BA
:102B5000814501D00023C7E794F89830002BC2D0FC
:102B6000ED88D4F800906DBAA9B20191B9F1000FC7
:102B70000AD00020FEF742FA0199C84720B9012087
:102B8000307084F89A00B3E7244BC4F888300022F0
:102B9000FF2384F89B30227222736281D8F80000F0
:102BA000D8F804101E4B079203C3D8F80800186029
:102BB00094F899308DF8103001238DF81130B8F861
:102BC0000230ADF8143098F80430ADF81250C3F369
:102BD00006038DF8163098F800308DF8173098F805
:102BE0000130069300F0ACFF10230DEB03020D49FA
:102BF00007F0DEFBFFB20C4B6581642F1F70DFBF57
:102C00000A4BC820B0FBF7F71F70FF23337000207A
:102C100084F89A306CE700BFB800002000000F1D58
:102C20004401002006100500A0070020A107002095
:102C30002DE9F04F044687B0007ADFF888900F4600
:102C4000FEF7DCF900230DF10601824601A8ADF87C
:102C50000430ADF80630FEF7D9F9FEF7D5F9B4F82F
:102C600002B0B9F80A30A688E5889BFA9BFB80463B
:102C70001FFA8BFB53B900F063FF1023104902AA1F
:102C800007F0E0FBBDF80A30A9F80A30BDF80430BF
:102C90005B450CD176BAB6B2564508D1B9F80A30C0
:102CA0006DBAADB2AB4202D1637A434504D0002085
:102CB000387007B0BDE8F08F03F03CF80120F8E76A
:102CC00006100500B8000020034B1878034B93F85A
:102CD0009C30C01AC0B27047A1070020B800002085
:102CE0004FF000531A88028040F201239A42064BAB
:102CF00008BF01214FF0005208BF19704FF6FF7155
:102D000018781180704700BF750800204FF00053FD
:102D10004CF23C325A8070470D4B1978A1B10D4BE3
:102D20001A7892B10C480078642311FB03F140B982
:102D30004810FF2AA1EB000108BF0022012302F086
:102D40006FBB10FB03F0F4E70A4611461046F5E7A7
:102D5000770800207608002078080020054B1878B6
:102D600030B1054B1878003818BF01204042C0B27E
:102D7000704700BF770800207608002008B58378E8
:102D8000A3F16402D2B29A2A13D90B480B490C4A18
:102D90006BB903700B701370FFF7BEFF09490A4847
:102DA000502301220B7301F01BFB012008BDFF2300
:102DB000EFE70020FAE700BF770800207608002040
:102DC0007808002008610020CD2D000030B599B0B2
:102DD00015466C4684E803004D22002104A8FDF747
:102DE00023FA297B8723032250298DF810308DF890
:102DF000112027D1FFF7B2FF174B8DF812001B7877
:102E00008DF8163004238DF81830144B8DF81410FB
:102E10001B788DF8193005238DF81B30104B8DF879
:102E200017101B788DF81A108DF813208DF81520C7
:102E30008DF81C300D210B4B224604A800F09EFF9C
:102E400019B030BDFFF78AFF01238DF812008DF80D
:102E500013300721EFE700BF770800207608002035
:102E600078080020ED44000008B502F041FB28B9C5
:102E7000034B1870034B1870034B187008BD00BF4C
:102E80007708002076080020780800202DE9F0431C
:102E90004C78022C99B007460D4690466DD0042C14
:102EA00000F0D580012C40F00881854E0E220021D3
:102EB0003046FDF7B9F93B6833607B687360BB68E7
:102EC000B360B8F1030F0AD12846FFF757FF044655
:102ED000012C75D00224204619B0BDE8F083F9D941
:102EE000EA78032302F01F02042113FB0213434577
:102EF000F0DC002AE8D00023984699461946184687
:102F00001F4695F804C0BCF1500F2ED195F805E08E
:102F100095F806C0BEF1040F29D0BEF1050F2AD0E6
:102F2000BEF1030F06BF6146012000240137BA42FB
:102F300005F10305E5DC0028CCD0B9F1000FC9D0BC
:102F4000604A1170604A994282F800805F4A3CBF33
:102F500000231C461370FFF7DFFE502358495C48DE
:102F60003373012201F03CFAB2E70024DEE7E046C9
:102F70004FF00109DAE76346D8E700F0F9FF0646AB
:102F80000028A7D1FFF770FFB8F1020F1AD1552220
:102F9000314602A8FDF748F901A93846019600F02C
:102FA000B7FF872303218DF810308DF81110FFF73C
:102FB000D5FE8DF81200019A002304A800F034FF1A
:102FC000FF2488E787D95522314602A8FDF72CF95E
:102FD00001A93846019600F09BFFA97803228723B8
:102FE00050298DF810308DF8112021D1FFF7B6FE51
:102FF000344B8DF812001B788DF8163004238DF8B1
:103000001830314B8DF814101B788DF819300523CA
:103010008DF81B302D4B8DF817101B788DF81A107A
:103020008DF813208DF815208DF81C300D21C2E786
:10303000FFF794FE01238DF812008DF813308DF800
:1030400014608DF815608DF816600721B3E700F065
:103050008FFF044600287FF43DAFB8F1020F7FF6E2
:1030600039AF5522014602A8FDF7DEF801A938461E
:10307000019400F04DFFAA788723502A8DF8103074
:1030800000D082B905238DF8113050238DF812300D
:1030900000238DF8133001238DF8143038238DF878
:1030A0001530062187E705218DF811108DF81240A3
:1030B0008DF813408DF814407DE700240BE700BF26
:1030C000086100207708002076080020780800209A
:1030D000CD2D00007FB50E46017A4B06054607D17F
:1030E00042787178307804B0BDE8704000F09EBD41
:1030F00001F07F01002000F017FE297A044601F05C
:103100007F01012000F010FE74B158B122790292C3
:1031100022680192027900920368727831786878A7
:1031200000F09CFC04B070BD2046FBE7036810B5BE
:10313000E3B194781CB95468A478640616D01C1FB7
:103140000460087804300870602103F8041C0D2125
:1031500003F8031C9178526803F8021C927802F07D
:103160008001C2F306020A4303F8012C10BD0000DF
:10317000054A1378013BDBB213701BB9034A137085
:1031800009F051BB704700BF0009002079080020FA
:1031900030B54B78013B9BB005460C46042B00F242
:1031A0009280DFE803F0032290486A008B78092BB5
:1031B0003ED8CB78002B3BD0444A4548012100F053
:1031C0008DFB434809F02FFBA278424B2AB91A70B5
:1031D000414BA2781A70FF202BE0E2783C481A702D
:1031E0004FF47A7109F086FAF2E700F0C1FEF8B9FF
:1031F0004D220146019006A8FDF716F803A92846BE
:1032000000F086FE73228DF8182003228DF8192015
:10321000314A019B12788DF81A202E4A12788DF8C7
:103220001B20039A042106A800F0FEFD0028D2D03E
:1032300002201BB030BD294A1378022BF8D08B88AE
:1032400027485BBA99B203800029F1D0254B6988E1
:103250001980254BA1781980244BE1781970244BF3
:1032600024480021198002231370234A00F036FB02
:103270002821204809F03EFAADE700F079FE002849
:10328000D6D14D220146019006A8FCF7CDFF03A937
:10329000284600F03DFE73228DF81820124A019B4B
:1032A00012888DF81A200D4A12788DF81B20104ACA
:1032B00012888DF81D20100A0621039A8DF8191026
:1032C0008DF81C00AFE70020B3E700BF71310000AC
:1032D000C40800200009002079080020C20800204E
:1032E000B8080020C0080020BC080020BE0800204C
:1032F000BA0800207C080020C533000070B59AB0E1
:1033000018B92A4A138801331380294809F08BFA27
:10331000284A138853B1013B9BB2138033B1244830
:1033200028211AB0BDE8704009F0E4B91F4D224EC3
:103330002B88003B18BF01234D22002106A83370C3
:10334000FCF772FF05A800F0B7F91C4B00241B889E
:10335000ADF800308DF802408DF8044000F0FEF921
:1033600000F0F2FB25238DF8083073238DF8183018
:10337000134B8DF805001B888DF81A3033788DF8C3
:103380001B302B888DF81D301A0A06218DF81C2061
:10339000234602AA06A88DF80A40CDF80CD08DF875
:1033A000191000F0EBFC1AB070BD00BFBA08002085
:1033B0007C080020B8080020C2080020C0080020B7
:1033C000BC08002000B5BFB000F0B6F90C4B1B885C
:1033D000ADF808300B4B1B788DF80A300A4B01937F
:1033E00000220B2369468DF8003009F027F90128E7
:1033F00003D100210220FFF781FF3FB05DF804FBFD
:10340000BC080020BE080020FD320000014B002255
:103410001A707047000900200C4A0D4808B50023B7
:1034200013800C4A13700C4A13800C4A13800C4A08
:1034300013700C4A13700C4A137009F037FA20B15C
:10344000BDE80840024809F0EEB908BDBC080020FC
:10345000C4080020BE080020B8080020C0080020D2
:10346000C2080020000900207908002007B5094B98
:1034700001901B788B420BD1042207490DEB02000F
:1034800024F016FF003818BF012003B05DF804FBDC
:103490000120FAE70D0900200E09002008B5074BAE
:1034A0001870074B1960074B1A6000F039F990F853
:1034B0002430054A03F03F03137008BD0C090020B7
:1034C000040900200809002014090020F0B597B075
:1034D00004460F4616460021492203A81D46FCF764
:1034E000A3FE6C238DF8083002238DF809302246A4
:1034F0000023052102A88DF80A708DF80B608DF865
:103500000C5000F091FC003818BF012017B0F0BD3E
:103510002DE9F04F05464878012885B00C4606D0C5
:10352000022800F09580002005B0BDE8F08F4F4ED6
:103530004F4F00F033FDA378327803F03F039A42F7
:1035400004F1040818BF00234146284618BF3B7009
:10355000FFF7C0FDC0B194F80290D5F8060009F05D
:103560003F01FFF783FF80B14FEA490303F07E0379
:1035700043F0010309F0800943EA0903E278AB72E2
:1035800041462846FCF764FF3870002000F006FD35
:1035900097F80090B9F1030F1AD094F8028095F8CB
:1035A00000A0D5F806B008F03F080AF00C0A414622
:1035B0005846FFF75BFFBAF1000F0BD0002845D04B
:1035C0002C4B86F80080C3F800B02B4B2A781A7079
:1035D000FF20A9E7284A10B91378002B36D0254BD5
:1035E000D5F80610196000231370A27886F80080C1
:1035F00019F0FD0602F03F0818D020490E68AEB160
:1036000021798DF8041061798DF808308DF8051056
:103610008DF8062003958DF8079001A8B0479DF816
:1036200007309DF808609DF806803B70284600F042
:103630009FFC0028CCD101A9284600F069FC3A780B
:10364000019833464146FFF741FFC1E702206BE78F
:103650000B4B8A781B789A42BAD10A4B1B6813B17C
:103660000979E078984700F077FEB1E70D0900206E
:10367000130900200E09002012090020040900206F
:1036800014090020080900206C23037001234370F3
:10369000064B074A1B78127803F03F0343EAC21334
:1036A0008370044B1B78C370704700BF140900205F
:1036B0000C0900200109002008B5064B00221A70F1
:1036C000FFF7E2FF044A1378013303F03F0313705E
:1036D00008BD00BF0109002014090020014BC17082
:1036E0001970704701090020C0787047034B1860BB
:1036F000034B1960034B1A60704700BF1809002084
:103700002409002028090020014B1860704700BFE1
:1037100020090020014B1860704700BF1C090020E1
:10372000014B1868704700BF24090020014B1B683B
:103730009868704728090020014B1B68186870477B
:1037400024090020014B1868704700BF2809002099
:10375000014B1868704700BF20090020024B1B680E
:103760009B691879704700BF24090020014B186835
:10377000704700BF1C090020044B1B689B681B7826
:1037800013F0300F14BF01200020704728090020DB
:10379000024B1B689B691878704700BF2409002002
:1037A000024B1B689B69D888704700BF2409002022
:1037B00008B5FFF7F5FF48B1E82808D9A0F58070F3
:1037C00080B2B0F5806F2CBF0020022008BD012020
:1037D000FCE7000010B51C46FFF788FFFFF7A6FFC7
:1037E000FFF7CAFF38B10F48FFF78EFFFFF7B0FFB2
:1037F000002100F05DF8002000F054FD214600207B
:1038000000F076FA00F0D2FD0321074800F0E9F855
:10381000FFF780FFFFF7AAFFBDE81040034A002131
:1038200000F0F0B8600900202C090020DD3B00000A
:1038300008B5FFF78DFFBDE808404FF4FA6100F0CE
:1038400039B8000007B500230093054A054B012154
:10385000042007F009FB044B186003B05DF804FB7B
:10386000CC09002084090020D009002007B58DF87C
:103870000700074800231A460DF10701006807F00A
:1038800002FB431E5842584103B05DF804FB00BFE1
:10389000D009002008B5054B01460022186807F042
:1038A000A9FB431E5842584108BD00BFD009002063
:1038B00008F014BE08F03ABE08F084BE08F082BEDC
:1038C00007B503460448009100F12C020C2109F0D1
:1038D00030F803B05DF804FBD409002038B50B4D77
:1038E000134604460A460146284609F069F80228AC
:1038F00008D048B994F82C30EA181A3382F85C00E2
:1039000045F82300012038BD0020FCE7D409002041
:10391000014809F01CB800BFD40900200146014845
:1039200009F078B8D40900202DE9F04385B090F86B
:1039300000C0BDF830509DF83470044600EB0C1EFA
:1039400080460026F04505D166450DD1002005B022
:10395000BDE8F08398F80490B9F1030F1CBF01365D
:10396000F6B208F11008EDE7002BEFD08DF800203B
:10397000ADF80250009E26F47F46012EE6D0022AC2
:1039800003D1002FE2D0002DE0D0A64511D10026B2
:1039900000F1040EB445D9DD34011EF80480B8F1FD
:1039A000030F1CD12044C0E90313027195B9012013
:1039B000CDE7267996420BD1E688AE4208D1267A29
:1039C000BE4205D12669B34202D1E668B142BDD0FC
:1039D0001034DAE7C580002FE9D00772E7E7013637
:1039E000D8E710B50170034600EB01110324002253
:1039F0008B4200D110BDC3E903221C71DA801A7218
:103A00001033F5E707B513460022CDE90022FFF792
:103A10008BFF03B05DF804FBF8B506460D4604467F
:103A200000273378BB4200DCF8BD2379012B07D097
:103A3000022B0CD043B92369E0682946984703E07C
:103A40002A79E3889A42F6D001371034E9E72A79D7
:103A5000E3889A42F8D16A79237AF3E72DE9F047AF
:103A6000DDF824A00D4690461C460746FFF776FE7B
:103A700000F06AF80646FFF765FE8146BAF1000FCE
:103A800006D09DF828202946504624F0C1FBC0B935
:103A9000D9F804301B785A0706D5032E24D0042EFB
:103AA00026D1042F17D102E06EB1BE4211D184B1EC
:103AB0009DF820202946204624F0AAFB08B9202D95
:103AC00007D1012003E0A5F1200358425841BDE889
:103AD000F087042E0CD1722D0AD1B8F1040F07D152
:103AE000B7FA87F04009F2E7032F01D1002CDFD1AC
:103AF0000020ECE730B58BB00C460546FFF710FE12
:103B00006523002201A980688DF804308DF80850E3
:103B10008DF8094008F092FD0BB030BD38B5064D68
:103B200006490446284606F073FB10B925600120BB
:103B300038BD0020FCE700BFC00A00200495020049
:103B400000487047C00A002042070AD483070AD4FD
:103B500010F0010303D110F0800F18BF04231846A2
:103B600070470323FBE70223F9E7000038B5FFF7AE
:103B700017FE094D2C1D28B92B6893E8030084E833
:103B8000030038BDFFF7EAFDFFF7DEFF0028F3D0A2
:103B90002B68D3E90201F2E7140B002008B5054BAE
:103BA0001860054B1960FFF7E1FF01F02FFE0120BF
:103BB00008BD00BF140B0020100B002008B5FFF754
:103BC000D5FF034B1B6803B19847012008BD00BF18
:103BD000100B00200020FFF7F1BF000030B5114BA3
:103BE00091F8A4501A6885B00C46197A02915B6866
:103BF0000193137D009313692179627994F8B500DC
:103C0000FFF72CFF60B104F1A8022946201D00F047
:103C10005DF9054B1B681BB105B0BDE83040184786
:103C200005B030BD140B0020100B002030B5094B3F
:103C300085B01D7A044610461A6802955B680193A8
:103C4000137D009313690A462146FFF707FF05B06D
:103C500030BD00BF140B002013B50023114CADF88C
:103C6000043001238DF8073063788DF8060093B196
:103C70002378C3F3C20304EB83035B680BB101A891
:103C800098472378C3F3C202013262F3C50323705D
:103C90006378013B6370044B1B6803B1984702B023
:103CA00010BD00BF3C610020280B002010B50E4C59
:103CB00063788BB12378C3F3C20304EB83035B689F
:103CC00003B198472378C3F3C202013262F3C503FC
:103CD00023706378013B6370044B1B6813B1BDE82C
:103CE0001040184710BD00BF18610020280B0020AD
:103CF00010B50C46FFF720FD074B084A1860084B2B
:103D00001C60138803F0C0031380064A138803F075
:103D1000C003138010BD00BF2C0B00203C610020AD
:103D2000280B00201861002070B5134D2B7A8B42B0
:103D300006460C461AD3C9B1FFF710FDFFF704FF82
:103D400030B9AEB9E8681C2101FB0400183870BD19
:103D50001C206FF01B0110FB0410EC68044416B922
:103D600004F10C00F3E704F11400F0E70020EEE7A3
:103D700005F11800EBE700BF300B0020F0B514464A
:103D80005268C1B0127901908DF8031002B9A27087
:103D9000224D6A78072A3ED82A7802F0070205EBFE
:103DA00082020DF10301536001A82246FFF7BEF91C
:103DB00066689DF803703388ADF8BC30184B0199E4
:103DC00003933A4623788DF810300DF1120024F059
:103DD0007FFA63788DF81170002243F00103ADF88B
:103DE000BE208DF8C1208DF8C03073798DF8C230B7
:103DF00001238DF808300B4B02A9186808F01EFC4F
:103E000038B92B785A1C62F302032B706B7801339C
:103E10006B7041B0F0BD0120FBE700BF3C610020AA
:103E2000593C00002C0B0020F0B5254CC1B01546C4
:103E30008DF8031061780190072902D9012041B063
:103E4000F0BD217801F0070104EB81014B60002AED
:103E5000F4D00DF1030101A8FFF768F96E689DF831
:103E600003703388ADF8BC30164B019903933A4682
:103E70002B788DF810300DF1120024F029FA6B78B0
:103E80008DF811700022ADF8BE208DF8C1208DF89C
:103E9000C03073798DF8C23001238DF808300A4B99
:103EA00002A9186808F0CAFB0028C8D123785A1C58
:103EB00062F302032370637801336370BFE700BFCE
:103EC00018610020AD3C00002C0B00201FB51378BA
:103ED0008DF80430537B8DF805301389ADF806302A
:103EE0009DF808306FF306038DF808309DF80E300A
:103EF000002262F300038DF80C200A46014601A857
:103F00008DF80E30FCF7A4FA05B05DF804FB000054
:103F100030B5114A114C438854600A6023800379FC
:103F2000A178C3F3060513F07F0318BF012365F3DF
:103F30000601A17023714378637125231370037800
:103F40009B0744BF27231370037AC3F306039370C0
:103F50000023537030BD00BF500B0020200B002009
:103F6000037813F00C0F14BF0120002070470000ED
:103F700008B50246FFF7F4FF074B38B992F908205D
:103F8000002A06DB1878421E5042504100221A7067
:103F900008BD0120FAE700BF300B0020014B18706C
:103FA000704700BF300B0020F7B5344D344C2978F2
:103FB00081B12268334B561A72427241DA7000287E
:103FC00043D002881A8082789A702F4B1B680BB1FD
:103FD0002C48984729782368994234D22B4B1A6889
:103FE00053788DF800302A4B1B788DF8013029B9B1
:103FF000990744BF43F004038DF8013093788DF89E
:104000000230FEF715F81F4C03882380214B0190E6
:104010001A7812F0070206D01F4B1A781AB190F9DD
:104020000220D243D20F1D4F1D4E3946304601F0BB
:1040300015FC68B94FF4817320806380124B1B68B4
:104040000BB11048984703B0F0BD18809870BCE7DA
:10405000144B397830686A46FFF790FE50B1002360
:1040600023800223A370FDF7FDFFB0FA80F0400922
:10407000E070E3E72B7801332B70E4E7710B00204D
:104080006C0B0020720B002060610020680B002088
:10409000760B0020700B0020590B0020580B0020DD
:1040A000640B0020A93F00000020FFF77DBF000047
:1040B00030B5002485B0174D00942868ADF8044051
:1040C00000F108016A460430FDF7E0FF124B18705A
:1040D0009DF90230002B19DA2B6810495A781048E4
:1040E0009B788DF808204FF000028DF809208DF89C
:1040F0000A3009780B4B0068CDF80CD002AAFFF704
:104100003DFE003818BF012005B030BD0028D2D1D7
:104110000220F9E7680B0020600B0020580B0020FC
:10412000640B0020214200002DE9F041C6B01D21A2
:10413000684608F006FD0024304B314F1C70AA225F
:1041400021460DF12A003C70FCF76EF82D4B1D78CE
:104150002D4B2A4619680DF12A0024F0B9F82B4B93
:104160008DF8295009938DF82840FDF77BFF284DE5
:10417000012828603FD9274B93F80080B8F1000F41
:1041800039D1254E33689B69187910F007041CD08B
:10419000224B1B681B788DF8D530FF238DF8D43067
:1041A000FFF7D2FC02233B7004238DF8D6008DF874
:1041B000203033680022186808A908F03FFA003858
:1041C00018BF012046B0BDE8F081FDF731FF01784E
:1041D000684608F0AAFC2B6801349C42F5D30323FF
:1041E0006C468DF820300FCC35AD0FC594E80F002C
:1041F00007C52B70DDE70220E4E700BF710B00204C
:10420000760B0020580B0020640B0020A940000012
:104210006C0B0020600B00205C0B0020680B002062
:1042200010B58378044653B1FDF71CFFB0FA80F057
:10423000194B4009E0701B680BB120469847174B9B
:104240001B787BB9FDF70EFF154B1860D0B1FFF757
:104250006BFF01280AD0022813D1BDE810400020CE
:10426000FFF7A2BEFFF724FF012808D10223A370A5
:10427000FDF7F8FEB0FA80F04009E07004E0022893
:10428000E0D010BD0123E370034B1B68002BF8D076
:104290002046BDE81040184760610020600B0020F8
:1042A0006C0B002008B5FFF73BFA014B186008BD06
:1042B0005C0B0020F8B514460BB90020F8BD1A7A43
:1042C000002AFAD00028F8D00029F6D01B4A069F11
:1042D00017601B4F3B601B4B18601B4B197001F0A4
:1042E000AFFA0028E9D0194B194A1C70194B1B680A
:1042F0009B691B79137013F0070311D0221E18BF9E
:10430000012211490F4801F0A9FA0028D5D03B68D5
:104310005868FDF771FEFFF7CBFE18B90120CDE715
:104320001A46EEE70128C8D0FFF7FEFE0028F5D0B8
:104330000128C2D00020FFF737FEEFE760610020C0
:10434000680B0020640B0020580B0020590B002044
:10435000700B00205C0B00200020FFF725BE000042
:10436000114B17B41B685A689C681078117A1B6847
:104370000194C1F3060110F0020F4FF000008DF818
:1043800002108DF801000CBF2521272143B18DF8C3
:10439000001002A911E9030003B05DF8044B1847AF
:1043A00003B05DF8044B7047A80B002008B5084A1D
:1043B00008480021FFF792FA48B1074A0023C2E9F2
:1043C0000033C2E90433C2E90833044A136008BD6C
:1043D0009945000064610020780B0020A80B0020A4
:1043E000F0B50E4689B01546074618B9002528468F
:1043F00009B0F0BD0029F9D00868496802AB03C3D1
:10440000B068186002A8FFF7ABFD014608B10125AE
:10441000EDE701908DF803000DF1030301AA0120DF
:10442000FDF74AFB9DF80330002BF0D0012B0ED195
:10443000019BBDF80A101A88914208D19DF80C2002
:104440009B7802F07F0203F07F039A42DFD0244C76
:104450002DB3244808F02AFA054600B322464FF04F
:10446000000C1368BB4213D1D2F804E0DEF8000060
:10447000DEF8041005AB03C3DEF8080018609DF8F1
:10448000103043405B0603D1164808F0B6F9AEE79A
:104490000CF1040CBCF10C0F02F11002E1D1236805
:1044A0002BB12369CBB1236A002B9FD102231901C1
:1044B00004EB03126750019991609DF8031011738A
:1044C0005660094A11680029A1D104EB0314FA21AE
:1044D0000448146008F00EF999E70123E7E700BFEC
:1044E000780B002064610020A80B00202DE9F0412A
:1044F000274C284822680021032500F1100600F10E
:104500002007137B013BDBB21373002B3CD18242AB
:10451000C2E9003393602CD0B2422CD0BA422CD1E5
:1045200002210B460133B3FBF5F202EB42029B1A68
:104530001A0100EB031C82580AB362460121D2F82B
:1045400004C0D2F808E09CF80430BEF80080BCF843
:1045500002C0E04503F07F0305D19EF802C00CF0D5
:104560007F0C9C45CDD001B12260BDE8F041FFF742
:10457000F7BE1946D5E70121D3E70321D2E79942D7
:10458000D0D12260BDE8F081936806339360D6E70E
:10459000A80B0020780B00200C4B834214D10C4B4D
:1045A0001B68D3E9012350881988884207D1127902
:1045B0009B7802F07F0203F07F039A4201D0FFF75D
:1045C000CFBE0020FFF792BF704700BF646100209C
:1045D000A80B00201FB50023CDE901330393FF236F
:1045E0000D4C8DF8093003238DF80630E0238DF84B
:1045F000083001A9092320468DF8053003F0DEFFBD
:104600000123A360E368DB07FCD4A06C41F288338C
:104610005843000B04B010BD0020004013B51F2309
:10462000002401210F488DF802308DF800408DF8EC
:1046300001408DF803408DF804408DF8054001F0ED
:1046400055FD204604F0AEF821468DF802000648DC
:1046500004F006F869468DF80300044804F020F8D9
:1046600002B010BD00B20400C0CF6A0000200040BC
:1046700008B5044804F066F8BDE808400248002187
:1046800001F034BD0020004000B2040070B54E7847
:10469000012E9AB0044604D0022E24D000201AB075
:1046A00070BD8878A0F16403DBB29A2B01D8022098
:1046B000F5E7217A01F07F01FCF7D4F801280546DF
:1046C0000BD82046FCF754F9324601461C48FFF748
:1046D00087FE002DEBD0FF20E1E70228FBD120462A
:1046E000FCF744F9F7E7FFF743FC0028DFD14D2240
:1046F0000146019006A8FBF797FD03A92046FFF7A6
:1047000007FC20228DF8182003228DF81920039A27
:104710009078FCF729F8039A8DF81A009078FCF746
:1047200031F8039A8DF81B009078FBF778FF019B16
:104730008DF81C00039A052106A8FFF775FBCAE750
:104740001509000030B54C78022C9BB0054623D1EA
:10475000FFF70EFCE8B94D220146019006A8FBF7D1
:1047600063FD03A92846FFF7D3FB287A80220324A0
:1047700000F07F008DF818208DF81940FBF722FF1C
:1047800021468DF81A00019B039A06A8FFF74CFBFF
:10479000FF2420461BB030BD0024FAE700B589B0E5
:1047A0008DF81720084A02931288ADF81C200123C7
:1047B0000022CDE900320DF1170307AA00F014FF23
:1047C00009B05DF804FB00BF2095020013B54D222F
:1047D00004460021FBF728FD622323700323637046
:1047E0006846FBF79BFF9DF80030A3709DF80130F1
:1047F00003F0F002C3F303031343E3709DF80230A8
:1048000023719DF8033063719DF80430A3719DF806
:104810000530E3719DF80630237202B010BD1FB55C
:1048200004464D220021FBF7FFFC62232370062380
:10483000637001A8FBF7A8FF9DF80430A3709DF8F2
:10484000053003F0F002C3F303031343E3709DF854
:10485000063023719DF8073063719DF80830A3710D
:104860009DF80930E3719DF80A3023729DF80B30F2
:1048700063729DF80C30A37204B010BD2DE9F041B5
:104880004B78013B9CB00446062B00F2AA80DFE87F
:1048900003F0041EA83340A850008878FBF7C2FF3D
:1048A000012805460CD82046FCF73EF801464E4844
:1048B0000122FFF795FD45B902201CB0BDE8F0814B
:1048C000022802D12046FCF73FF8FF20F5E7FFF76A
:1048D0004FFB05460028EFD101A92046FFF718FB42
:1048E00008A8FFF773FF019A2B46092108A8FFF7D4
:1048F0009BFA0028E9D0DFE7881CFBF7B5FF012809
:104900000546E2D82046FCF70FF801220146374859
:10491000CFE7FFF72DFB05460028CDD101A92046A2
:10492000FFF7F6FA08A8FFF77AFF019A2B460B214A
:10493000DCE7FFF71DFB06460028BDD108AD4D2280
:1049400001462846FBF770FC204601A9FFF7E0FA74
:1049500062238DF8203008230E2231460DEB030030
:104960008DF82130FBF760FC02A8FBF725FF9DF8CE
:104970000A708DF824700DF1250801238DF822307E
:104980003A469DF809308DF823300DF10B01404671
:1049900023F09EFC9DF8133003F00F02C3F30313C2
:1049A00008EB070443EA021308F807309DF81430B7
:1049B00063709DF81530C3F3400203F001019200CB
:1049C00042EAC102C3F3C0010A43C3F38003E11CFE
:1049D00042EA4302491BA2703346019AC9B22846F3
:1049E00085E7002069E700BFF1490000154A000093
:1049F00010B598B06C4684E8030004A8FFF7E6FE03
:104A0000034B2246092104A8FFF7B8F918B010BDDE
:104A1000ED44000010B598B06C4684E8030004A88B
:104A2000FFF7FDFE034B22460B2104A8FFF7A6F972
:104A300018B010BDED4400002DE9F04F4B78022B6B
:104A40009DB005460C46164608D0042B00F0CB80DE
:104A5000012B48D000201DB0BDE8F08FFFF788FA89
:104A6000064600283DD101464D2208A8FBF7DCFB95
:104A7000287A8DF8136000F07F00FBF74DFE05A942
:104A800006462846FFF744FA6323A0788DF82030C5
:104A900003238DF821308DF8220008B1B0420ED9E1
:104AA000FE238DF823309DF81310059A043100235E
:104AB000C9B208A8FFF7B8F998B9FF20CBE72A7A5E
:104AC0000DF1230102F07F02FBF7E8FD2B7AA078BD
:104AD00003F07F030DF1130209A9FBF7F9FD00288C
:104AE000E1D10220B7E7007A8F7800F07F00FBF772
:104AF00013FE8742F5D8A6F10803062BF1D8E1781A
:104B000091B14B1E012BECD8043EF7B2E01C002300
:104B10003E469AB2B2420CD210F8012F303A092A1E
:104B200003F10103F5D9DCE721716171A171E17134
:104B300004272A7AA07802F07F02A8BB1046FBF770
:104B4000EBFDDFF8F080DFF8F0A001261FFA80F916
:104B5000B145B2D32B7AE17803F07F030093221D95
:104B60003B46F0B2FBF75EFD0128834602D90136D1
:104B7000B6B2EDE70E2200212E48FBF755FB2A685E
:104B8000C8F800206A68C8F80420AA68A378C8F8A2
:104B90000820284988F80C3000225046FFF720FCF6
:104BA000BBF1000FE3D19CE700923B46221DFBF7CF
:104BB00039FD0128064694D81E4B0E2200211846C6
:104BC000FBF732FB2A6802606A684260AA6882606A
:104BD000A2780273014600221748FFF701FC012E5C
:104BE0003FF46BAF7DE7FFF7C3F900287FF479AF9F
:104BF0004D220146039008A8FBF716FB05A928469D
:104C0000FFF786F9287A63228DF8202000F07F00D4
:104C100005228DF82120FBF77FFD039B8DF82200F4
:104C2000059A032108A8FFF7FFF8002814BF022007
:104C3000FF2010E7A06100203D4C000030B59BB084
:104C400014466D4685E803004D22002106A88DF824
:104C50000F10FBF7E9FA227A207B8DF81A00632304
:104C60008DF8183002F07F0203230DF11B018DF83F
:104C70001930FBF713FD237A207B03F07F030DF13E
:104C80000F0207A9FBF724FD40B19DF80F10044B5C
:104C900004312A46C9B206A8FFF770F81BB030BD30
:104CA000ED44000006289FBF18235843034B185CAF
:104CB00088BF002000F00100704700BF009602008E
:104CC00008B50246FFF7EEFF20B1034B182000FBAA
:104CD0000230007A08BD00BF0096020008B5024607
:104CE000FFF7E0FF20B1034B182000FB0230C06843
:104CF00008BD00BF0096020006289FBF1823584336
:104D0000034B185C88BF002000F00100704700BF13
:104D100058950200FFF7F0BF08B50246FFF7FAFF0B
:104D200020B1034B182000FB0230007A08BD00BF01
:104D30005895020008B50246FFF7ECFF20B1034B7F
:104D4000182000FB0230C06808BD00BF5895020063
:104D500008B50246FFF7DEFF28B1044B182000FB20
:104D60000230006908BD0120FCE700BF5895020031
:104D700008B50246FFF7CEFF20B1034B182000FB19
:104D80000230407D08BD00BF5895020010B50B4AA7
:104D9000135C012B11D10A4B0A4C1B6854F82040BC
:104DA0001B1BB3F5967F08D3CC1C0223E4B213542B
:104DB000204600F0A9FD044B1C7010BDD40B002050
:104DC000180C0020B80B00205C01002010B5184C16
:104DD000236840210A3300202360FFF7D7FF4521D5
:104DE0000120FFF7D3FF4A210220FFF7CFFF4F2119
:104DF0000320FFF7CBFF54210420FFF7C7FF592101
:104E00000520FFF7C3FF0B4A062312F8011B41B927
:104E1000013BFAD1084807F01EFD084B00221A702A
:104E200010BD226847F230539A42F3D8F8E700BF2A
:104E3000180C0020D40B0020DC0B0020AC0B002051
:104E400010B5044621B100F05FFD034B1C7010BD8E
:104E500000F048FDF9E700BF5C01002008B50246FC
:104E6000FFF720FF28B1044B182000FB0230006937
:104E700008BD0120FCE700BF0096020008B502460D
:104E8000FFF710FF20B1034B182000FB02304069F0
:104E900008BD00BF00960200062870B504460E4605
:104EA0001AD818230D4A4343D35CABB1FFF708FF70
:104EB00005462046FFF712FF01462046FFF7CEFFCA
:104EC000002E0CBF01220422431E18BF01232846D6
:104ED000BDE8704002F066BB70BD00BF00960200E6
:104EE000062870B5054618D81823124A4343D35CE8
:104EF0009BB1FFF7E5FE04462846FFF7EFFE0646A6
:104F00002846FFF7ABFF49B901280BD1012000FA71
:104F100006F6094B302044431E5170BD012901D1D2
:104F20000028F3D0012000FA06F63020034B44435A
:104F3000F2E700BF009602000CA000460CA000445F
:104F400001280BD002284FF000031A4607BF4FF488
:104F5000617164201946184600F062BA704700007B
:104F600008B50246FFF7D6FE28B1044B182000FB17
:104F70000230807D08BD4020FCE700BF589502004C
:104F80002DE9F3410546FFF7B7FE002869D0364CFE
:104F9000267886B9354A36480121FEF79FFC00F095
:104FA000E3FA344BA02283F8122383F80A23324B0E
:104FB0001E70012323702846FFF7AEFE07462846E1
:104FC000FFF7B8FE04462846FFF7A4FE80B12B4B3E
:104FD000182202FB053393F814802846FFF7C8FE19
:104FE00068B3052F2BD8DFE807F0060B10152A1A37
:104FF0004FF00108F1E7032C21D14FF0807614E047
:105000000D2C1CD14FF000760FE00A2C17D14FF079
:1050100080560AE00E2C12D14FF4801605E0022CC7
:105020001CD0072C0BD14FF400362846FFF790FE1A
:1050300001280CBF31460021304602F0F3FA01236B
:1050400021463846CDE90033424602F065FA0C4964
:10505000404602B0BDE8F04100F094BA4FF480360B
:10506000E3E702B0BDE8F081B40B0020CD4D0000B5
:10507000DC0B002000E100E0AC0B002058950200A2
:105080002152000038B50546FFF736FEA8B1284684
:10509000FFF742FE04462846FFF74CFE014628462D
:1050A000FFF756FE30235C43044B234401EBC3015E
:1050B00089000B68C31A5842584138BD1CA0100221
:1050C0002DE9F34104461646FFF752FE18B12D4B69
:1050D0002D4AC3F8242420460191FFF7D3FF01286D
:1050E000019905462AD1294F3B5DABB9284EB1B194
:1050F000DFF8A88098F8003003F0FF0233B92548A4
:1051000032600A2107F035FB88F8005001233B5537
:10511000214B326843F8242002B0BDE8F0811D48DD
:10512000019107F0C3FB01990028EFD131601948C4
:105130000A2107F0DFFA194B1D70E7E72046FFF759
:105140000FFF0EB102300FE0104B1A5D002AE3D0C2
:105150001E55114A0E4B52F824201B689B1A41F22F
:105160008832934206D90430C0B202B0BDE8F041A3
:10517000FFF766BE142BCFD9B3F5967FE2D301308B
:10518000F2E700BF00A0004000001313D40B002082
:10519000180C0020DC0B0020B80B0020AC0B00200A
:1051A00000220121FFF78CBF2DE9F0410546904612
:1051B0000C4631B1FFF7DCFD18B1144B144AC3F8AB
:1051C00024242846FFF75EFF0128124F06460AD125
:1051D0003B7833B92846FFF7C3FE2146FFF730FE80
:1051E0003E70BDE8F0812846FFF7BAFE0546B8F1EB
:1051F000000F02D02146FFF723FE681C2146C0B2F3
:10520000FFF71EFE00233B70EBE700BF00A000404D
:1052100000001313AD0B002000220121FFF7C4BFD3
:105220000B2809D805281CD90638052819D8DFE825
:1052300000F0080B18150D0FCD280BD0CE280BD081
:1052400070470020FFF7ACBF0120FBE70220F9E721
:105250000320F7E70420F5E70520F3E70620FFF732
:10526000DBBF70472DE9F8432248DFF8A080224FCA
:10527000012100F03BFF214B00241C60A146E5B258
:105280002846FFF739FD88B12846FFF745FD064659
:105290002846FFF74FFD01462846FFF759FD431EFC
:1052A00018BF01230322304602F07CF90134072C99
:1052B00008F8019B47F8049BE1D1114B11490122E9
:1052C0001A61114AD2F81C341B0C1B040B60002419
:1052D000C2F82434E0B201210134FFF7DDFD072CD0
:1052E000F8D1012304220521002002F05BF90020FF
:1052F000BDE8F88300350A00B80B0020180C002028
:1053000000300E40B00B002000A00040D40B002065
:10531000BFF34F8F0549064BCA6802F4E06213439E
:10532000CB60BFF34F8F00BFFDE700BF00ED00E093
:105330000400FA0508B501210846FFF7D1FD002158
:105340000220FFF7CDFD0120FFF7CAFD0121022059
:10535000FFF7C6FD014B013BFDD1ECE740420F00DA
:1053600001207047F0B5264E377885B00546002FEE
:1053700043D10121FFF790FD2248234C0121FEF784
:1053800097FA22480A2101F09BFA2148012100F0F6
:10539000ADFE2048042100F055FF01211D4800F01A
:1053A000A5FEE36A43F00803E3621B4BE02283F8A7
:1053B0001B234FF000621A602846FFF75FFD226C46
:1053C00022F001022264636C23F01F030343636431
:1053D0002846FFF743FD114BB0FA80F56D09102206
:1053E000394668461D70FAF71FFF694620468DF85A
:1053F000045002F04EF90123337005B0F0BD00BF38
:10540000410C00201C0C00200060044002001E0023
:1054100030253E008006160000E100E0420C00202E
:105420002DE9F0431E462C4B1F7885B081460C4673
:1054300015468FB10328DFF8B48011D82748036CD4
:1054400023F001030364002102F01AF90023244829
:1054500088F80030FEF730FA384605B0BDE8F08332
:10546000204801F065F84C4444434FF47A7200FB45
:1054700009F0B4FBF2F4B0FBF2F245B34FF00109CE
:105480001648012102F0F4F82A461448002102F0DF
:1054900039F94FF001124FF44033CDE90023124B9C
:1054A0000E481B788DF804300025029503948DF882
:1054B0000890036C43F001030364694602F0E9F8C5
:1054C000074888F800602946FEF7F4F9C4E701258B
:1054D0004FF00009D4E700BF410C002000600440F9
:1054E0001C0C002080061600420C0020400C0020FE
:1054F000014B1878704700BF400C00200C4810B5D5
:10550000046A23070ED508238362036C23F001038A
:105510000364002102F0B4F8064B074800221A7019
:10552000FEF7CCF9024B24F008049C6210BD00BFCA
:1055300000600440400C00201C0C002070B5094E97
:105540000446012504B970BD94FAA4F0B0FA80F0C5
:1055500005FA00F324EA030456F82030002BF1D0BA
:105560009847EFE7440C0020054B4FF48022C3F826
:1055700080211A604FF48062C3F880211A6070475E
:1055800000E100E038B504460D4601F0BCFA034BDB
:1055900043F82450BDE8384001F0B9BA440C00206B
:1055A000074BD3F82804D3F81C24104020F42A50C9
:1055B00020F02A004004400CC3F82404FFF7BEBFCB
:1055C00000A00040074BD3F82804D3F81C24104057
:1055D00020F4AA4020F055000004000CC3F8240475
:1055E000FFF7ACBF00A000402DE9FF4107460C9833
:1055F0009DF8285003938846164600F00FF904469C
:1056000030B3337803707378039943708DB12A46B1
:10561000023022F05DFE0235EDB2424621463846A8
:10562000FBF7BEFF38B900F03FF9022004B0BDE837
:10563000F0810225F1E7084B00939DF82C200346EA
:1056400029462046FEF736FE012803D000F02CF94B
:105650000120EBE70020E9E7B958000070B59AB0E7
:1056600005460E46FEF784FC044600286ED1767887
:10567000042E03D0062E33D01AB070BD4D22014641
:1056800006A8FAF7D1FD03A92846FEF741FC7223CC
:105690008DF818300DF10A01052302A88DF8193094
:1056A000ADF80840ADF80A40FBF7B0FCBDF8083093
:1056B0008DF81B301A0ABDF80A308DF81A201A0A24
:1056C0008DF81E20039A8DF81F308DF81C408DF840
:1056D0001D602346082106A8FEF7A6FBFF20CBE7A6
:1056E0004D22014606A8FAF79FFD03A92846FEF7BA
:1056F0000FFC72238DF8183007238DF8193003231F
:105700008DF8073002238DF808300DF10A0207AB3F
:1057100002A90DF107008DF80A40FBF77DFC9DF80A
:1057200007309DF80A10039A03F007038DF81A302A
:105730009DF8083001F01F0141EA4311C9B28DF80C
:105740001B1001F01F0123460431C4E7022093E738
:1057500010B54B78012B98B004464BD1FEF708FCEE
:105760000146002848D14D2204A8FAF75DFD2046E5
:1057700001A9FEF7CDFB5E238DF8103002238DF8D2
:1057800011308DF812301D4B1A6813798DF81330D3
:1057900053798DF81430106820B3016811B3247A5E
:1057A000007904F07F0398421CD360061AD003F1FD
:1057B0008043013B01EB830231F823308DF8163032
:1057C000190A8DF8151053888DF818301A0A8DF8BB
:1057D00017200023019A092104A8FEF725FBFF20CA
:1057E00018B010BDD3888DF81630190A8DF8151031
:1057F0001389E9E70020F3E70220F1E7840C002099
:10580000014B1860704700BF840C002002486022E2
:105810000021FAF709BD00BF880C002010B5074C25
:1058200023784BB90123606004F10C002370FDF76D
:1058300043FF04F1100010BD0020FCE7880C00209D
:1058400008B5054B984204D10438FDF747FF012005
:1058500008BD0020FCE700BF980C00202DE9F843AC
:10586000104D95F80090B9F1010F07460E46144609
:1058700015D105F10C084046FDF706FF4046FDF73F
:1058800033FF30703CB1C7F8008033780433337095
:105890002046BDE8F88310353D604C46F8E700240B
:1058A000F6E700BF880C0020024B00225A601A70F5
:1058B000704700BF880C0020064B5B6810B504469B
:1058C00003B19847E378012B03D1BDE81040FFF7FF
:1058D000EBBF10BD880C0020014B1860704700BF63
:1058E000E80C002007B5074B8DF807000022186868
:1058F0000DF1070106F0A2FEB0FA80F0400903B0F6
:105900005DF804FBE80C002007B5074B8DF8070095
:10591000002218680DF1070106F0B8FEB0FA80F019
:10592000400903B05DF804FBE80C002008B503460D
:10593000994208460AD9114B00221A7002280CD14C
:1059400007F060FCBDE8084007F0D8B80129F5D899
:10595000012BF3D9094B0122EFE70DD907F052FCD7
:1059600002F0E0FC0146052006F0B8FE07F0DCF886
:10597000BDE8084001F0ACBA08BD00BF381F0020E8
:1059800038B504460E480F4D036813F0010303D0E9
:10599000002102F01DFF0123B4F57A6F2B700ED8A1
:1059A000094B01251D7001F0A7F829460446022085
:1059B00002F0B4F92046BDE8384001F0A1B838BD86
:1059C0000020054078270020761F002038B5104DB4
:1059D0002B785BB101F090F800210446022002F020
:1059E0009DF9204601F08CF800232B70094B1B78A1
:1059F0001BB10948012102F0EBFE084C23780BB1E2
:105A000007F08AF82078BDE8384007F02FBC00BFC7
:105A1000761F00207827002000200540381F002036
:105A20002DE9F041624CDFF8D4816168614E8AB0A3
:105A30000546206807AA03C20023A0681060ADF8DD
:105A400014300124022788F8003033708DF81630A6
:105A50008DF810308DF8113005A820238DF81830FE
:105A60008DF819708DF817408DF8154001F0C0FAC7
:105A700004A88DF8117001F0A9FA21464E4800F0F3
:105A800035FB4E4B59884FF20F02914204BF4CF246
:105A90003C325A80E90705F480377DD415F01C04A8
:105AA0007ED1EA0579D46B057CD415F400657BD1F1
:105AB000002F7BD0424BD3F81C341B0C1B04002B53
:105AC00066D088F8005004243E48DFF83481012174
:105AD00000F00CFB3C48032100F0F2FE00230125FE
