:100000000000012055900000999000009990000098
:10001000199200009990000099900000C1630000BF
:10002000C1630000C1630000C163000001D700008C
:100030009990000084A8020061D70000C5D7000095
:10004000A5DD0000D16002009990000099900000A9
:100050008559020029610200DD600200F56002009E
:10006000D560020099900000C569000099900000D9
:1000700099900000999000009990000099900000DC
:100080009990000099900000E969000099900000A3
:1000900099900000999000009990000099900000BC
:1000A00099900000999000009990000089650000E7
:1000B0002D610200D9600200D18C0200A9A40100C8
:1000C0006961020099900000C14A02009990000005
:1000D000999000009990000099900000999000007C
:1000E000999000009990000099900000999000006C
:1000F0009990000099900000C163000010B5054C74
:10010000237833B9044B13B10448AFF300800123C3
:10011000237010BD980600200000000098F0020037
:1001200008B5034B1BB103490348AFF3008008BD7A
:10013000000000009C06002098F00200A3F5803A21
:10014000704700BF174B002B08BF134B9D46FFF7AE
:10015000F5FF00218B460F461348144A121A00F08F
:1001600063F80E4B002B00D098470D4B002B00D0AE
:1001700098470020002104000D000D48002802D0FF
:100180000C48AFF3008000F02BF82000290007F0A6
:10019000CDF800F011F800BF0000080000000000DA
:1001A000000000000000012098060020C87E00200A
:1001B000000000000000000008B5074B044613B122
:1001C0000021AFF30080054B1868836A03B198479C
:1001D000204608F089FE00BF0000000040A7020092
:1001E00070B50D4D0D4C641BA4100026A64209D11C
:1001F0000B4D0C4C2AF092FA641BA4100026A64268
:1002000005D170BD55F8043B98470136EEE755F827
:10021000043B98470136F2E78C0600208C0600204C
:100220008C0600209006002002440346934200D131
:10023000704703F8011BF9E7024B1870722006F0B3
:1002400063BD00BFBC000020C378012B02D1752024
:1002500006F05ABD7047000010B50B4B1B685C6878
:10026000B6B00022694620460CF076F8012801D08D
:1002700036B010BD9DF80030802BF2D103F0CCF9E0
:10028000694603F0F3FAECE7AC63002037B50446A7
:1002900001212A482A4D09F04DFC0CF06FFD294B35
:1002A00028601C6003F064FA274A2848012103F003
:1002B0003FFA2146264A28680024002303F0E0F98B
:1002C000244B254A0094012105200BF07FFF234B8E
:1002D0002A6818600146032321480DF05BFB204883
:1002E00006F00CFD03F0FAF9712006F00DFD1D4833
:1002F00006F033FB012005F083FE204605F080FE6A
:10030000022005F07DFE032005F07AFE012006F0B4
:100310006FF8204605F054FE22462146204603F0A1
:1003200013F82346104A1148104C04210BF04BFEE1
:100330000022052120460BF04EFEF9E70020054083
:10034000F8060020AC63002019080000B406002065
:1003500058A7020018070020F0060020140700200C
:100360000807002064A8020050A80200FC06002034
:1003700007B50C3004F010FB002283B20092044851
:100380001A46194606F0DFFA03B05DF804FB00BF19
:1003900064A8020000B5C378012B8BB00ED14423B2
:1003A00008488DF80430002109F0C4FB064B1B6897
:1003B0004FF4FA72986801A90DF0F0FA0BB05DF8ED
:1003C00004FB00BF00200540AC63002037B50021CE
:1003D0000446084603F09EF9184B1C7005F082FF96
:1003E000022006F003F8164B164800241C7006F095
:1003F00019FC01221146144B144804F05BFE144B07
:100400001C700DF0B3FE05460DF0B6FE01900DF028
:10041000B9FE0199024640F2A62328460DF096FE49
:100420000C490D48022203F065FD0C4B0C480222DA
:10043000012106F0F9FD204603B030BD986300208D
:10044000BC00002044A702007103000074010020DA
:1004500099630020C8000020C400002058A70200B3
:100460008D0200000B787A2B70B405460C461646B8
:1004700039D86B2B0CD8592B64D02DD8252B7ED096
:10048000262B00F08380202B76D0002070BC704794
:100490006C3B0E2BF9D801A252F823F09305000013
:1004A0008B0400008B0400008B0400008B04000010
:1004B000850500006B050000630500008B0400004B
:1004C0008B0400008B0400008B0400008B040000F0
:1004D0008B040000A70500005E2B4AD0602BD4D10E
:1004E00070BC04F051BC8E2B1CD8842BCDD9853B1D
:1004F000092BCAD801A252F823F000BF4B05000017
:1005000039050000570500008B0400008B04000033
:100510008B0400008B0400008B0400008B0400009F
:100520009B050000982B01D09F2BAED1324621466F
:10053000284670BC05F098BB32462146284670BC60
:100540000DF0E4BC70BC00F0C3BC32462146284626
:1005500070BC00F0FBBB32462146284670BC02F05E
:10056000EBBB324670BC02F069BD324670BC06F08F
:1005700087BA70BC06F0FEBA70BC04F0FFBA70BC5B
:1005800004F0A2BB324670BC04F044BF70BC04F05F
:10059000D7BD324670BC02F011BF32462146284614
:1005A00070BC00F05FBD324670BC01F057BD00BFAB
:1005B0000149024801F02CBD9503000060A802002B
:1005C0000120704710B50C4630B90DF0CFFD2070FA
:1005D0000DF0D2FD607010BD00230B704B70FAE778
:1005E0000A46022A4FF0000101D104F08DBD04F04B
:1005F00051BB022801D104F0B1BE002070470000B9
:10060000024B187840F30000C0B270479963002095
:10061000022801D104F08EBEFFF7F2BF022801D1FB
:1006200004F092BEFFF7ECBFFFF7EABF002070476F
:1006300008B548B9094A137823F001031370012162
:1006400005F08EFC012008BDFF28FBD1034A13787A
:10065000002143F0010313700846F1E7996300207D
:1006600013B5114C0120216801F0DAFAFF2005F0E2
:100670006BF802F027FE01220C4B0D48114604F0E6
:1006800019FD002211461046FFF7D2FF0DF068FD5C
:10069000042301900DEB030220684FF4A2210BF01C
:1006A00039F802B010BD00BF6407002071030000DC
:1006B00074010020F0B52F4B2F4C1B682F4EDD68C6
:1006C0002F4FA3B0002201A928460BF045FE0128B8
:1006D00001D023B0F0BD9DF80430C32B15D0C42B3E
:1006E00045D0C02BEED19DF80C30002BEAD0029BF8
:1006F000BB4203D1002004F06BF8E3E7002BE1D00C
:100700009DF80D0004A99847DCE79DF80830E3B98F
:1007100002F094FF90B9FFF7A3FF02F08FFF38B902
:100720002378012B04D030460DF02DFA01232370DD
:10073000322006F0E9FA03F033FBC3E702F064FF6E
:1007400003F07EFA0028E6D1E7E7052B03D17720F6
:1007500006F0DAFAB6E7062B01D17820F8E7072B86
:1007600001D13220F4E7082BACD13020F0E7732020
:10077000EEE700BFAC6300203C010020B40600207F
:10078000D147000008B5044B18680BF0E7F8BDE846
:100790000840FFF765BF00BF6407002037B50F4D65
:1007A000284603F0E5F8042328680DEB03024FF414
:1007B000A2210AF0F9FF044650B90DF0D1FC204601
:1007C000296801F02DFA02F077FD012003B030BD59
:1007D00002F078FDFFF7D6FF0020F7E7640700205E
:1007E00000207047022A30B510D8094D2B7A2C68AA
:1007F00062F306032B72074B1C606C685C60AC688C
:1008000018739C6059739A73184630BD0020FCE73A
:10081000680700209C63002037B5204A204D1178DE
:100820002B7861BB0133DBB2022B4FF001018CBF8F
:1008300029702B702B781170082201930023114628
:100840001848009305F060F92A7808210820FFF77E
:10085000C9FF154A29780446124805F08FF910B1EE
:10086000752006F051FA24B110480122214603F008
:1008700029FF042003B0BDE83040FFF7DDBC0024B1
:10088000147001930123009322460821084B054868
:1008900005F03AF92A782146D8E700BF6007002022
:1008A000610700204BA8020049020000A156000089
:1008B0007001002038B50C4C2378012B0DD10B4B67
:1008C0000B48002547F230511D700DF0C3F8207021
:1008D0002846BDE83840FFF79FBF05480DF053F9A3
:1008E0000123237038BD00BF3C01002060070020B9
:1008F000B406002030B486B06C4684E8030010686B
:10090000516803AD03C5906800F07E0028B994E8F3
:10091000030006B030BC04F08DB906B030BC70479F
:1009200070470020704700000246007A38B500F09A
:100930007F00FFF7F6FF0E4D01B201EB41010024ED
:10094000034605EB810045F821400C21446084609A
:100950004B431168E950EC18516861609168A160DF
:10096000237A5A0602BF012262F30603237238BDBE
:10097000B0630020037A13F07E0F01D1FFF7D4BFDC
:10098000002070477FB50446012005F029FB0430A4
:10099000A04201D0302C04D10320FFF74DFCFFF71B
:1009A00007FEB64B1B78042B00F26681DFE813F0DC
:1009B000050069000C014A015301732C0CD1FFF7AB
:1009C000E1FE00210122084601F042FE012004B0B0
:1009D000BDE87040FFF730BC712CF2D1FFF7DEFEAE
:1009E000A74DA8492B6804460222002001F0A8F96F
:1009F00000F0A4FBA4480022052100F0C7FBA34897
:100A00000122022100F0C2FB02221146A04800F0A0
:100A1000BDFBA0480022022100F0C6FB01221146C6
:100A20009D4800F0C1FB022201219C4800F0BCFB64
:100A3000286804F0A1FE00250123FF26CDE9013638
:100A4000974A039400950821964804F023FF022258
:100A5000CDE900520123924A9248CDE9026408216F
:100A600004F018FF2946904803F014F98F4B042036
:100A7000197802F069FF702004B0BDE8704006F0FC
:100A800043B9722C27D1002005F09AFA012005F015
:100A9000A7FA0230844201D0312C0CD1834B197853
:100AA000834B1B689B691B7813B3032002F04CFF38
:100AB0000220FFF7C1FB002005F092FA02308442C9
:100AC00018D17C4A137813F0010160D143F001037F
:100AD0001370084660E0732C05D0772CD6D1022025
:100AE000FFF7AAFBD2E7FFF74DFEFFF757FECDE772
:100AF0000120DBE7002005F073FA01308442E0D0EA
:100B0000022005F06DFA023084420DD16A4804F0EB
:100B100057FC694804F06CFC0546002847D00022C9
:100B20001146654804F024FC022005F059FA013012
:100B3000844202D1604804F043FC022005F050FAE0
:100B40000330844212D15D4D5B4829680A2300932B
:100B5000002399424FF00102CCBF0021012104F093
:100B60001EFC2B685A1C2AD101232B60032005F0A0
:100B700037FA0230844205D0032005F031FA013003
:100B8000844279D104B0BDE87040FFF793BE23F0F2
:100B9000010313700121002005F0E2F94848FFF736
:100BA000C3FE01220146474803F08CFDA8E74248F6
:100BB00004F027FC011E2A4608BF6321B1E7012B80
:100BC000D4D14FF0FF33D0E7722C34D1022005F09E
:100BD000F7F9012005F004FA0230844201D0332CE9
:100BE00015D1324D0020297802F0AEFE297804207C
:100BF00002F0AAFE002005F0E3F90120FFF71CFB3C
:100C000002F088F830493148012203F05BFD322CB4
:100C100032D1264B0420197802F096FE0120FFF70E
:100C20000BFB02F077F828492848012204B0BDE800
:100C3000704003F047BD732CCBD1FFF7A3FDFFF746
:100C4000ADFDC6E7732C17D1FFF79CFD04B0BDE8DE
:100C5000704005F0A3BB732C08D1FFF793FDFFF79D
:100C60009DFD032005F0BCF9023089E7752CF8D111
:100C70000120FFF7E1FAF4E704B070BDBC000020EA
:100C8000640700203D010020D5A70200DFA7020075
:100C9000E3A70200E7A7020071A70200A3A70200D2
:100CA000700100204BA8020024010020986300205E
:100CB000AC6300209963002074010020C000002074
:100CC000E0010020354C000084000020792C000059
:100CD00013B5084C206800220DF107010BF03CFB16
:100CE000012801D002B010BD9DF80700FFF74AFEB1
:100CF000F0E700BF14070020002840F2054018BFAD
:100D000000207047012070470023038005230B80DB
:100D10007047000010B5012404700C700821117098
:100D20000949D1F8F020D1F8F410D970080E1870E4
:100D3000080C5870080A110E1971110C5971110A1A
:100D400098709971DA7110BD0081E00FF0B54D789F
:100D50006B1E9BB004460E460A2B7AD8DFE803F0E0
:100D600029067935407979797979620003F072FA48
:100D70000746D8B901464D2206A8FFF755FA207A52
:100D80000DF10B0306AA314600F07F0000F0E4FFEE
:100D900003A9204603F02EFA039A9DF80B103B4658
:100DA00006A803F0B3F9002808BFFF2528461BB0AA
:100DB000F0BD007A8523314600F07F0000F03EFF51
:100DC00008B1FF25F2E70225F0E7022AFBD9017AF4
:100DD000B078134601F07F01324600F093FEEFE752
:100DE00003F038FA0028EED14D220146019006A802
:100DF000FFF71AFA204603A903F0FCF9207A8522AE
:100E00008DF8182000F07F0006228DF8192000F0E0
:100E1000D9FD8DF81A00019B039A032106A803F05F
:100E200075F9CEE703F016FA0028CCD14D22014621
:100E3000019006A8FFF7F8F903A9204603F0DAF9B4
:100E400085228DF818200C228DF8192000F054FA14
:100E5000DFE70025AAE7000000B599B04D22002188
:100E600004A8FFF7E1F901A9144803F0C3F95923D5
:100E70008DF8103004238DF81130114B1B78022BA4
:100E80000CBF8023002343F001038DF812300B4B7D
:100E9000197A0C4B0DF11302187801F07F0100F064
:100EA000B9FA094B019A0A2104A803F02FF9B0FA04
:100EB00080F0400919B05DF804FB00BFB4070020C2
:100EC000B2070020B107002015100000FFF7C4BFD3
:100ED000F0B599B005460E46174603F0BBF9044637
:100EE00010B1022019B0F0BD7378032B2BD0052B65
:100EF0004CD0012BF6D101464D2204A8FFF794F9FE
:100F0000032FEED12A7AB1788DF80310592302F01D
:100F10007F028DF8103005A802238DF811308DF86E
:100F2000121000F04FF901A906468DF8130028466B
:100F300003F060F9311D019A2346C9B204A803F0F9
:100F4000E5F8FF20CEE72F4C2378002BC9D1B278EB
:100F50002B7A2D4912F0400F2C4AC3F3060313706D
:100F60002B4A2B684FF0010004BF2070F07813600B
:100F70006B685360AB6893601CBF022626700870D4
:100F8000FFF76AFF0028DCD12070AAE74D22014656
:100F900004A8FFF749F9287AF3788DF803300DF1AA
:100FA000030100F07F0000F025FA297A9DF8030084
:100FB00001F07F0100F084F90646002891D001A9D4
:100FC000284603F017F92A7A9DF803108DF81210BD
:100FD00059238DF8103002F07F02062305A88DF802
:100FE00011308DF8136000F045F900283FF479AF17
:100FF000311D019A2346C9B204A803F087F80028DE
:101000009FD06EE7B2070020B1070020B007002094
:10101000B407002038B50E4C2378022B14D10D4BA9
:101020001D786A1C1A700C4B187800F00DF9854277
:101030000AD20021094A0A4802F07AFBBDE838408A
:1010400007480A210CF006BD0023237038BD00BFFD
:10105000B2070020B1070020B0070020CD0E00002D
:1010600074070020F0B54D786B1E9BB004460E4609
:10107000042B60D8DFE803F022035F2D400003F06B
:10108000E9F80746002834D101464D2206A8FFF7AB
:10109000CBF8207A0DF10B0306AA314600F07F0051
:1010A00000F05AFE03A9204603F0A4F8039A9DF825
:1010B0000B103B4606A803F029F808E0007A8E23BF
:1010C000314600F07F0000F0B9FD012810D1FF2566
:1010D0000FE0022A08BF0023017A08BFB370B0787E
:1010E000134601F07F01324600F00CFD0028EED1DE
:1010F000022528461BB0F0BD03F0ACF80028F7D15C
:101100004D220146019006A8FFF78EF803A920465C
:1011100003F070F8207A8E228DF8182000F07F00FE
:1011200006228DF8192000F04DFC019B039A8DF8E2
:101130001A000321BEE70025DBE7000030B5104AA6
:10114000104D10685168127A85B001AB03C31A7054
:101150000D4B0C4801221A700021B422FFF764F8ED
:10116000002401A828F080FB0134024601A928468A
:1011700028F05EFA032C05F13405F2D105B030BD3C
:10118000C4A80200C0070020EC010020022A10B50C
:1011900006D8044B342404FB0232D06282F83010AB
:1011A00010BD00BFC0070020002808BF0021022A90
:1011B00005D8034B133203EBC20211725060704723
:1011C000C0070020F0B51E4B85B06F4606460D46A1
:1011D00003F1080E3C4618685968BC46ACE80300A9
:1011E000083373456746F6D118689B88CCF8000031
:1011F000ACF8043016B3022A20D8124802F11303C7
:1012000000EBC303197A01318D420BDC55B1012D7E
:101210001BBF5A683224342104FB05240CBF02FB97
:1012200001045D3C204628F01FFBC5B22A4621463A
:10123000304628F0FDF9284605B0F0BD0025FAE754
:10124000CDA80200C0070020022810B504460BD824
:1012500002F004FA022809D0054800EBC40494F80F
:10126000A0000130C0B210BD0020FCE70120FAE769
:10127000C0070020022A10B50C461CD801290F49CE
:101280000AD1342303FB021393F83020D96A5200A9
:1012900028F0CEF9012010BD01EBC20332216FF01E
:1012A000630211FB0424D3F89C102144033111F88C
:1012B000012C5200ECE70020EDE700BFC007002042
:1012C000022914D80B4B012817BF03EBC1033422AA
:1012D000D3F89C30322215BF02FB003002FB0133F1
:1012E00010F8620C93F830004000C0B27047002044
:1012F000704700BFC0070020014B1878704700BF3F
:10130000EC0100202DE9F84F364E2523022A144621
:101310007370B27001D9002028E090F800C090F8F6
:1013200001E00F78304BBCF1000F21D1BEF1010F6D
:101330001ED1342202FB0433DA6A93F8303002EB18
:1013400043039342E7D013F8021DB942F9D1274B6A
:1013500000211A1F012000F0EFFA0028DBD1244BF6
:10136000012224011A7014441E483470BDE8F88F1D
:1013700004F1130203EBC203002193F808804FF03D
:101380003209CDB2A845C6D9D3F804A009FB01F0B3
:101390000AEB00021AF8000060450AD15078704547
:1013A00007D192F802B0002001325FFA80FAD345EB
:1013B00001D80131E5E7013012F810A0BA45F4D1A7
:1013C0000235EDB2FF2DA6D0084B21461A1F284644
:1013D00000F0B2FA00289ED1054B05EB04141D70F5
:1013E000C2E700BF74080020C00700207C0800206E
:1013F000EC0100200A783AB1054B03EBC00090F8ED
:10140000A03001339A4201DD01230B70704700BF09
:10141000C007002037B50D468DF807000DF1070114
:1014200028461446FFF7E6FF9DF807202270012AA0
:1014300004D10023A370E27003B030BD074901EB73
:10144000C50132236FF0630013FB0203D1F89C2027
:10145000D118D35CA3704B78E370EDE7C007002090
:10146000F0B5451CEFB2C1EB01151E23541CED0075
:1014700013FB0755E4B2174E06236FF0050713FB65
:10148000045302EB42057C4333446D00243CD7B245
:10149000042F0AD11E234343062000FB0733782084
:1014A00000FB0130FF233352F0BD33F81ECCBCF1FA
:1014B000FF0F02F1010203F10603EBD05F1953F8AD
:1014C00024EC47F804E007EB040C33F8207CACF87C
:1014D0000470DCE79C0800202DE9F04FC1EB0119F6
:1014E00093F804A01C464FEAC9091E23154613FBB6
:1014F0000293454A85B013446A1E0192BAF1010F66
:101500009DF804B0029038BF4FF0010A4FF0000878
:101510001E46042736F806CCBCF1FF0FFAB215D0F0
:1015200016F8020C012811D0207908B9207B20B1CF
:10153000206810F80800604508D103934FF0FF03BE
:1015400026F8063C5846FFF78BFF039B013F7A1CA9
:10155000A6F10606DED108F101085FFA88F292458D
:10156000D6D8029B852B4CD0019A94F80CB01E2340
:1015700003FB0299244BBBF1010F05F1FF3538BF86
:101580004FF0010B99444FF00008EDB24FEA480AC2
:101590004F460426388BFF28F2B227D03B7F012B21
:1015A00024D123790BB9237BCBB1A36813F80AE0CC
:1015B000864503EB0A0C02D0BEF1000F16D101984C
:1015C0001E234343062000FB0633782000FB013333
:1015D0000D4803449CF801009B78834206D1FF2309
:1015E0003B83237B13B12846FFF73AFF013E731C70
:1015F000A7F10607CED108F101085FFA88F39B45F1
:10160000C4D805B0BDE8F08F9C08002070B5033148
:101610000024032A016004718460047301D804600B
:1016200070BD033AD2B2551E01348E2BE4B201F1E3
:10163000010609D1097839B905EBD571C1F3470124
:10164000017311B18660EBE70471A242314605F1E6
:10165000FF35E9D8E4E770B406880D888C78AE428F
:1016600006D18278624012F07F0301D112061ED5A6
:1016700004F07F02072A05D9837803F07F039A429A
:1016800007D817D3AE4207D983785B0604D0640627
:1016900009D14FF0FF300BE0AE4204D2620602D017
:1016A00083785B0606D070BC042227F0B1BF1846D1
:1016B00070BC70470120FBE70023F0B54FF0FF0C32
:1016C0001F46CE18042412E0012813D192F800E03E
:1016D000BEF1000F10D0013D15F0FF0502F103022D
:1016E000F2D1013C14F0FF0406F10F0608D0324697
:1016F0000525E9E70028EED182F800C00127EAE7D6
:101700003C33B42BDDD13FB104480A46BDE8F0407C
:101710000349006809F0FEBFF0BD00BFBC630020B4
:10172000011005002DE9F04FB5B0002506460695DD
:1017300002F030F9694F022E804638602BD0032E1C
:101740000CD0012E17D00120069BB42B1AD1C8B99A
:101750006349386807AA0AF027F818E0614C07AB1C
:10176000C5EB051201921E226A43994620464FF0AE
:10177000000C039298E05A4906AB05AA0AF062F8F9
:101780000028E1D0B422002107A8FEF74DFD07A9EB
:101790003046FFF791FF52493868B42307AA0AF090
:1017A00003F8DFF840E107AB00211E224A43019213
:1017B000C1EB01129846F4460025029228E000EBA6
:1017C0004002062418F802703780019F04FB00775E
:1017D000444C57442744029C22444A4434AC22449B
:1017E000013012F8B3BC87F802B012F8B22C052809
:1017F000C2F34017C2F303023771727106F1060695
:10180000DDD10135032D0CF1780C08F13C0808D02E
:10181000782202FB05FA3C226646002002FB05F90D
:10182000CDE7013104290EF11E0E03F10F03BCD1E7
:1018300035B0BDE8F08F07EB4701BEF8006009F84E
:101840000160019E3144029E34AA3144039E02EBA2
:10185000010B062202FB0766224A5644164407AAD9
:10186000B6780BF8B36C9EF804609EF805B011448E
:1018700076010BF00F0B06F0200646EA0B0691F8F6
:1018800002B001372BF02F0B46EA0B06052F8E70A6
:101890000EF1060ECFD10CF1010CBCF1030F00F1DB
:1018A000780009F13C0909D03C2202FB0CF20292BB
:1018B00078228646002702FB0CFABCE70135042D8E
:1018C00004F11E0403F10F037FF44AAF0449B4236B
:1018D00007AA404609F01EFFAAE700BFBC6300202C
:1018E000011005009C08002003782DE9F041DBB9C8
:1018F0000D78012D18D00E4E3468ACB10D4A127817
:10190000A4F1030C02EB42029A420DD0DF1C04EB5F
:10191000030E1CF80780A84508D19EF8012002702C
:10192000326813449B780B70BDE8F0813B46EBE7CF
:10193000080A0020040A002073B503298DF8070067
:1019400015461C468DF80610084632D89AB393B354
:101950009DF8076016B9072002B070BDFFF774FC50
:101960008642F8D80DF107010DF10600FFF7BCFF24
:101970009DF807104B1E9DF80610C1EB01111E22A9
:10198000C90002FB03110E4B194405232960237083
:1019900029680022062000FB02F5D3B24D5BFF2D23
:1019A00003D123704BB10020D6E70132052AF2D1D2
:1019B000F9E70620D0E70320CEE70220CCE700BFFE
:1019C0009C080020FFF740BC2DE9F04F1E4613880D
:1019D00085B0E82B15468DF807008DF8061003D961
:1019E000002005B0BDE8F08F01F038FE022806D1D6
:1019F0009DF80730012BF3D12B88E82BF0D80DF19F
:101A000007010DF10600FFF76FFF9DF807209DF815
:101A10000630012A55D1002B0CBF052400242B8849
:101A2000ADF80830AB788DF80A308DF80C6001F015
:101A3000EBFD02F005F99DF807709DF80690304D1A
:101A40008DF80D00013F1E26C9EB09137E4306EBFE
:101A5000C3064FEAC3082E444FF0000AA24532DB0A
:101A60001E22631E5743DBB24FF0060A78220AFBA0
:101A7000037302FB09F94B44EB5AFF2BB0D1023C34
:101A8000B844E6B20AFB06F606EB08003E444E44B4
:101A90002844AB5BFF2B05EB060B0FD002A9FFF729
:101AA000DAFD00281BDD631CDBB20AFB03734B4429
:101AB000A959E950EA18BBF804309380013CE0D5FD
:101AC0000EE00524ABE73388FF2BC9D0304602A9CE
:101AD000FFF7C1FD063680B10AF1010ABEE7EDD07D
:101AE00001340623E4B203FB045404EB0803029818
:101AF000BDF80C2044F808009A80012071E700BF6F
:101B00009C0800202DE9F04186B003298DF80700DC
:101B100015461C468DF80610084603D9002006B06D
:101B2000BDE8F0819DF80730012B01D10029F5D1E6
:101B3000FFF78AFB9DF80760002E4ED08642EDD855
:101B40000DF107010DF10600FFF7CEFE032C33D097
:101B5000042C33D1EB788BBB304E06274FF01E0898
:101B60002B789DF807009DF80610852BE2B200F156
:101B7000FF300BD108FB00F307FB04334FF0780C68
:101B80000CFB013333441B79012B0ED008FB00F30F
:101B90004FF0780C07FB04330CFB01334FF0FF0CC4
:101BA00026F803C0C0B2FFF75BFC013CD8D203208B
:101BB000FFF7B8FD0120B2E70424CDE702A82246D2
:101BC00029468E23FFF722FD03469DF807209DF846
:101BD00006102878FFF780FCE9E78E232246294685
:101BE00002A8FFF713FD8DF806609DF80600022895
:101BF000DDD8FFF729FB01240646B4429DF8061004
:101C000003D901318DF80610EFE72246287802ABA0
:101C10000134FFF761FCE4B2EFE700BF9C0800204D
:101C200010B5044601F0B6FE034B186084F00100C5
:101C3000BDE81040FFF776BDBC6300202DE9F04100
:101C4000032888B005460E4603D9002008B0BDE839
:101C5000F0818978012939D10028F6D12846CDE9CB
:101C60000023FFF7F1FAB1788142EED8DDE90023D5
:101C7000314604A8FFF7CAFC9DF81C209DF81430DB
:101C80001344B278012A24D1002D14BF002205226A
:101C90009342DADC002BD8D000270124B8469DF807
:101CA0001420FBB29A4216D89DF81C80B8F10008A7
:101CB00018BF4FF0010800279DF81C20FBB29A4284
:101CC0001CD80320FFF72EFD2046BFE70029BCD01B
:101CD000C4E70522DCE7049AD35CADF80C308DF83C
:101CE0000E8013B91C460137D9E7B078002303AA48
:101CF0002946FFF769FE0028F5D1A7E7069A02EB0F
:101D0000430012F8133041789DF80E20ADF80C30E6
:101D1000C1F3060161F306024178C90961F3C712F4
:101D20008DF80E2013B91C460137C5E7B07843463D
:101D300003AA2946FFF748FE0028F5D186E70000F0
:101D4000034B1960034B00211A70FFF769BF00BFF6
:101D5000080A0020040A00202DE9F74F054691F8F3
:101D600002800E4614461F46FFF76EFA804501D8E2
:101D7000B3780BB90123B370B3788DF806508DF8A2
:101D800007302DB90DF107010DF10600FFF7ACFD8D
:101D9000B378012B26D1002D0CBF05230023327808
:101DA0009DF806E02270B2789DF80750A270CEEB45
:101DB0000E121E20DFF8E8A0E370013DD20000FB08
:101DC0000522002152442171904608465FFA81FCA9
:101DD000634509D8317885291AD08E291BD0053062
:101DE000387032E00523DAE7B8F800C0BCF1FF0F25
:101DF000F0D098F80490B9F1010F1FBF04EB00096F
:101E0000013089F805C0C0B2013108F10608DDE7EC
:101E100003236370E3E74FF01E0C032100260CFB45
:101E200005F54FF0780C617000F1060B31460CFBA4
:101E30000EFE5FFA86FC63450AD80029CFD0044421
:101E40000630002301446371397003B0BDE8F08FA0
:101E5000B2F800C0BCF1FF0FEFD092F80480B8F1E7
:101E6000010F19D104EB010901F1010809F80BC0B8
:101E70004FF0060C0CFB065CF444D44454FA88F88A
:101E80009CF802C00CF08009CCF3060C49EA0C0C5B
:101E9000023108F80BC0C9B201360632C9E700BFEB
:101EA0009C0800200A4A0B49002310B51360052244
:101EB0000A60094A0488FF2C01D10B6010BD013370
:101EC000052B42F8040B00F10600F3D1F6E700BF42
:101ED000980800209408002080080020094A0A4938
:101EE000136870B50C68094E5D1DB3FBF4F104FB7B
:101EF0001131013356F8210008B9AB42F5D1136016
:101F000070BD00BF0C0A002094080020800800204B
:101F1000074B08491A6810B510460023934200D1B8
:101F200010BD51F8044B04B901380133F6E700BF86
:101F300094080020800800202DE9F04F0025D0F8FB
:101F400000A0304EDFF8C490AE464FF001080C7888
:101F5000EBB29C4203D8002303600B7028E00624F8
:101F600004FB03F70AEB070C3AF807709CF80240F1
:101F700004F07F04013CF3B95FFA84FEBEF1060F62
:101F800012D89CF805C0C2F802309378178008FA7E
:101F900004F464F30603937082F805C033680133D8
:101FA00033600135BE46D2E7917863F3C711917073
:101FB0000020BDE8F08FBE455FFA84FB02D1BBF183
:101FC000060F0BD9C0F800C00A78BBF1060FA2EBD0
:101FD00003020A7013D90C4A1360E9E79378D6F824
:101FE00000C008FA04F41C4364F07F0494700CF100
:101FF000FF34002349F8243049F82C30CEE7012083
:10200000D7E700BF980800200C0A002080080020B5
:1020100070B586B000254FF4807306460C46ADF8C7
:102020001450ADF8163001F011FB18B98CB105A8A9
:10203000A0470EE0084B00951B88ADF81030CDE9A5
:1020400001542B4604AA2946304604F0DFFC002840
:10205000ECD106B070BD00BFDBA802002DE9F0474F
:102060009CB007460D46164602F0F4F8002840F0F2
:10207000F0806C78631E092B00F2D180DFE803F05A
:1020800005CF83CFCF6DCFA9CFD108AE4D22002190
:102090003046FEF7C9F8384605A902F0ABF800252E
:1020A0000DF1120104A8ADF81050ADF81250FEF772
:1020B0002BFE7A238DF82030BDF810308DF82330B8
:1020C0001A0A022728468DF822208DF82170FEF783
:1020D00013FE000A8DF824002846FEF70DFEFF23AC
:1020E0008DF828308DF825008DF826508DF8275072
:1020F000FEF766FA01388DF8290000F005FC030AA6
:102100008DF82A308DF82B004FF00A08FEF758FAA8
:1021100017FB0489A04214FB07F506EB090A0CD84B
:10212000FEF7F0FD61000B31059A8AF800000023EC
:10213000C9B2304601F0EAFF21E02046FEF7DCFD9F
:10214000000A06F809002046FEF7D6FD1CAB1D4428
:10215000013405F8450CE4B2D8E73246294641F689
:102160000F500CF015F8AA78EC781102063E01F435
:10217000FE41F6B200962B1D214400F02FFBFF20FC
:102180001CB0BDE8F0874D22002108A8FEF74CF8EE
:1021900005A9384602F02EF80DF112033246294601
:1021A000384600F0BBFB7A238DF8203004238DF8ED
:1021B00021309DF812308DF82230059A264B0321EC
:1021C00008A801F0A3FF0028D9D0022000F08EFB60
:1021D000D5E70DF11201284600F080FCF8B94D2238
:1021E0000146039008A8FEF71FF805A9384602F03B
:1021F00001F828686968039B08AA03C2297A11704C
:1022000009228DF821206A7A8DF82A209DF8122063
:102210008DF829200B21059A08A801F077FF0020EE
:10222000AEE7002405A93846059401F0E3FF7A23C0
:102230008DF820300B238DF8213003238DF82230C8
:10224000059A8DF823408DF824402346052108A8DF
:1022500070E7022094E700BFED280000F0B599B0C8
:10226000154607464D220E4604A800211C46FDF7E0
:10227000DBFF002369463846009301F0BBFF7A2359
:102280008DF8103007238DF811302B0A8DF813309C
:10229000009A8DF812602346052104A88DF8145089
:1022A00001F0DEFE28B1044B1868019001A8A04798
:1022B000012019B0F0BD00BFDEA8020070B598B0D3
:1022C0000C464D220546002104A8FDF7ADFF00266F
:1022D00001A928460196052501F08CFF7A238DF887
:1022E00010308DF8115000F045FC230A8DF81200D3
:1022F0008DF81330019A8DF814403346294604A80E
:1023000001F0AEFE801B18BF012018B070BDF0B503
:1023100099B00D460746164600214D2204A8FDF748
:1023200083FF002401A93846019401F063FF0DF1F9
:1023300002016846ADF80040ADF80240FEF7E4FC4B
:102340002046FEF7D9FC7A238DF8103009238DF84A
:102350001130BDF800308DF813301A0A030A8DF8D9
:1023600014302B0A8DF812208DF816308DF81500D8
:102370008DF817508DF818408DF81960FEF7C2FCE3
:10238000019A8DF81A0023460B2104A801F068FE7B
:10239000001B18BF012019B0F0BD000070B50C4D36
:1023A0000C4B297A00221C465E7886420AD11E78A0
:1023B0008E4207D10C2303FB024463689847237ABB
:1023C0002B7270BD0132092A03F10C03ECD1F8E73E
:1023D000F0010020E4A802000820FFF7DFBF7047EB
:1023E00008B505480BF012FC10B103480BF0CBFB0D
:1023F000024B00221A7308BD00020020F0010020E9
:102400002DE9F843194F0446386873280E461546DF
:102410001AD8DFF85C80DFF85C901319DB0AD8F873
:10242000002001339342C9F800300DD074304FF4CE
:102430000061C00204F060FFD9F80030C8F8003035
:1024400010B93B6801333B6015F0030218BFC2F1BD
:10245000040204F568300CBF2A465219314604F0D4
:102460002DFFBDE8F84307F0D7BB00BFDC0A002012
:10247000E00A00209002002010B5084C63680BB100
:10248000607A9847637A3BB994F89930812B03D0EE
:10249000BDE8104004F060BE10BD00BFF001002098
:1024A00008B5FFF79DFF0C4890F89B10FF290DD051
:1024B000FC2994BF02220022084B8C30FFF7CEFE8D
:1024C00040B1BDE808400020FFF7D6BFBDE8084096
:1024D00004F042BE08BD00BFF001002079240000D6
:1024E00010B5074C01236372FFF7DAFF94F89B30B5
:1024F000012B03D1BDE8104003F050BF10BD00BF59
:10250000F00100200B48037B0133DBB2092B03737E
:1025100006D8B0F88810013189B28C30FFF7CEBEF2
:1025200090F89B30FF2B04BF012380F89B300420E0
:10253000FFF734BFF001002010B5074C94F89A3033
:10254000FF2B08D100F038FB044BC4F88830BDE8FD
:102550001040FFF745BF10BDF001002000000F1D27
:1025600038B5114C11480025C822294684F89C50E2
:10257000FDF75AFE04F1100025730BF047FB70B90C
:1025800042F2107104F110000BF064FAB4F88810F4
:1025900007480131BDE8384089B2FFF78FBE04F12A
:1025A00010000BF0DAFAF1E7F0010020120A002027
:1025B0007C02002070B500251F4C204884F89C50F8
:1025C000C8222946FDF730FE1D481E4E036813F051
:1025D000010F04D001232946337007F0ABFA002124
:1025E000084604F041FE0546A8B1174B01251D60C1
:1025F000164B0020186004F0EBFD07F00DFB31785E
:102600000F4807F097FA0423657284F89B30BDE801
:102610007040FFF745BF3178094807F08BFA94F80E
:102620009930812B0CBFFD23FF2384F89B30FFF7EB
:1026300037FF657270BD00BFF0010020120A002054
:1026400000200540E40A002090020020E00A00205B
:1026500070B5584CC4E90001574800210160574843
:1026600001230360564884F898300160554990B0C2
:102670000B7094F89930002A00F08E8043F08003AC
:1026800084F8993004F044FD10B1002384F89830A8
:1026900006A804F013FD9DF81830012B1CBF002381
:1026A00084F89830089B002513F4803304A9284649
:1026B00008BF84F89830CDE9045504F06FFD039508
:1026C00001F068F9404903AB02AA064609F0BAF8DE
:1026D00078B110231A4629460CA8FDF7A5FD012262
:1026E0008DF831201023384903930CAA304609F0A5
:1026F00011F80DF1060000F049FA00283ED0039BC6
:1027000031490CAA304609F04FF8039B0C2B0BD132
:102710009DF835209DF836309DF83410ADF8341012
:102720008DF836208DF83730BDF834309DF83620DE
:10273000ADF826309DF82830BDF8060062F3060398
:102740008DF828309DF837308DF824300E9B8DF8A9
:1027500025309DF82C306FF306038DF82C309DF852
:102760003030812B40F2012119D188420CBFFF2269
:102770000122BDF8321009A8FFF7C9FD134A144819
:10278000012100F0D5FF134A1348002100F0D0FFCB
:1027900094F8980010B070BD03F07F0370E7002339
:1027A00088420CBFFF2105211A4609A8FFF756FDF4
:1027B000E4E700BFF0010020DC0A002090020020C6
:1027C000E00A0020110A002006100500052500007F
:1027D00000020020D92300003C0200202DE9F3472D
:1027E0003D4C9DF828A00D461946237A022B03D1B3
:1027F00028B1002384F89B3002B0BDE8F087B4F81C
:102800008830207301339D4201D00123F2E7334F1A
:102810003B78534556B201D0002EF6DA1FFA8AF8FB
:10282000B4F88A00DFF8C09001914246A4F88850BD
:102830000BF0AEFC99F800300199A4F88A00F3B1CE
:1028400094F89CC03878264B52460CFB003026F09A
:10285000EFFE94F89C300133DBB2002E84F89C30FC
:1028600029DAB4F88A10628991420FD0002384F8E3
:102870009B30062002B0BDE8F047FFF78FBD3B78E4
:10288000681E42465843FFF7BBFDE2E799F8002077
:102890004AB13C7812495A1E02FB0482E81A92B2ED
:1028A0006043FFF7ADFD0F4864210BF0D3F801281A
:1028B000A2D10820DEE799F80020934201D205203A
:1028C000D8E73AB13C780649E81A03FB04F26043C2
:1028D000FFF796FD0720CDE7F0010020100A002049
:1028E000120A00203C020020110A0020054B93F838
:1028F0009A30FF2B05D110B90220FFF74FBD0320FE
:10290000FBE77047F001002008B500F05FFE836927
:102910009B894FF6FC70063B184008BD2DE9F04737
:102920000A2A88B080460D4614461E4629D94B7A9D
:1029300091F80A9009EB03290B7A3BB1032333701A
:10294000012008B0BDE8F047FFF728BD0B2A0BD0E7
:102950005C4AC97A92F89930C9074CBF43F0010329
:1029600023F0010382F89930FEF7CCF90C2C554C7A
:102970000AD92B7B834207D00423337084F89A3022
:10298000DEE74FF0FF39EFE72F7AFDF719FE8742B8
:1029900009D303233370012084F89A30FFF7FEFC3B
:1029A00008B0BDE8F08700230DF10E0103A8ADF8D3
:1029B0000C30ADF80E30FEF7A7F9FFF7A5FFB9F11F
:1029C000FF3F074607D0484502D3B9F1000F01D1B8
:1029D0000223DFE74F46B5F802A0B5F804900020C7
:1029E000FEF78AF99AFA9AFABDF80C301FFA8AFAB9
:1029F000534505D199FA99F91FFA89F9814501D012
:102A00000023C7E794F89830002BC2D0ED88D4F8A3
:102A100000906DBAA9B20191B9F1000F0AD000205F
:102A2000FEF76AF90199C84720B90120307084F88F
:102A30009A00B3E7244BC4F888300022FF2384F8BF
:102A40009B30227222736281D8F80000D8F80410FB
:102A50001E4B079203C3D8F80800186094F8993009
:102A60008DF8103001238DF81130B8F80230ADF830
:102A7000143098F80430ADF81250C3F306038DF803
:102A8000163098F800308DF8173098F8013006931A
:102A900000F080FF10230DEB03020D4908F03AFE11
:102AA000FFB20C4B6581642F1F70DFBF0A4BC8203B
:102AB000B0FBF7F71F70FF233370002084F89A30C3
:102AC0006CE700BFF001002000000F1D7C02002019
:102AD00006100500100A0020110A00202DE9F04F11
:102AE000044687B0007ADFF888900F46FEF704F9B5
:102AF00000230DF10601824601A8ADF80430ADF8BF
:102B00000630FEF701F9FEF7FDF8B4F802B0B9F8A7
:102B10000A30A688E5889BFA9BFB80461FFA8BFB50
:102B200053B900F037FF1023104902AA08F03CFE09
:102B3000BDF80A30A9F80A30BDF804305B450CD165
:102B400076BAB6B2564508D1B9F80A306DBAADB208
:102B5000AB4202D1637A434504D00020387007B0FD
:102B6000BDE8F08F04F0F8FA0120F8E70610050040
:102B7000F0010020034B1878034B93F89C30C01AE7
:102B8000C0B27047110A0020F00100204FF000533E
:102B90001A88028040F201239A42064B08BF0121A5
:102BA0004FF0005208BF19704FF6FF71187811806E
:102BB000704700BFE50A00204FF000534CF23C3252
:102BC0005A8070470D4B1978A1B10D4B1A7892B10C
:102BD0000C480078642311FB03F140B94810FF2A28
:102BE000A1EB000108BF0022012303F05FBC10FB32
:102BF00003F0F4E70A4611461046F5E7E70A00201D
:102C0000E60A0020E80A0020054B187830B1054B91
:102C10001878003818BF01204042C0B2704700BF8A
:102C2000E70A0020E60A002008B58378A3F16402D1
:102C3000D2B29A2A13D90B480B490C4A6BB90370CC
:102C40000B701370FFF7BEFF09490A485023012299
:102C50000B7301F037FD012008BDFF23EFE70020D3
:102C6000FAE700BFE70A0020E60A0020E80A002091
:102C7000C0630020792C000030B599B015466C4631
:102C800084E803004D22002104A8FDF7CDFA297B3A
:102C90008723032250298DF810308DF8112027D179
:102CA000FFF7B2FF174B8DF812001B788DF8163026
:102CB00004238DF81830144B8DF814101B788DF800
:102CC000193005238DF81B30104B8DF817101B7829
:102CD0008DF81A108DF813208DF815208DF81C3002
:102CE0000D210B4B224604A801F0BAF919B030BDF2
:102CF000FFF78AFF01238DF812008DF813300721AA
:102D0000EFE700BFE70A0020E60A0020E80A0020FB
:102D1000D147000008B503F031FC28B9034B187007
:102D2000034B1870034B187008BD00BFE70A002062
:102D3000E60A0020E80A00202DE9F0434C78022C36
:102D400099B007460D4690466DD0042C00F0D58012
:102D5000012C40F00881854E0E2200213046FDF7FF
:102D600063FA3B6833607B687360BB68B360B8F13B
:102D7000030F0AD12846FFF757FF0446012C75D0F0
:102D80000224204619B0BDE8F083F9D9EA7803237C
:102D900002F01F02042113FB02134345F0DC002A5A
:102DA000E8D0002398469946194618461F4695F8DC
:102DB00004C0BCF1500F2ED195F805E095F806C07F
:102DC000BEF1040F29D0BEF1050F2AD0BEF1030FCA
:102DD00006BF6146012000240137BA4205F1030510
:102DE000E5DC0028CCD0B9F1000FC9D0604A1170E1
:102DF000604A994282F800805F4A3CBF00231C462B
:102E00001370FFF7DFFE502358495C4833730122EB
:102E100001F058FCB2E70024DEE7E0464FF001097C
:102E2000DAE76346D8E701F015FA06460028A7D18D
:102E3000FFF770FFB8F1020F1AD15522314602A8F0
:102E4000FDF7F2F901A93846019601F0D3F987237D
:102E500003218DF810308DF81110FFF7D5FE8DF895
:102E60001200019A002304A801F050F9FF2488E71A
:102E700087D95522314602A8FDF7D6F901A938466F
:102E8000019601F0B7F9A9780322872350298DF81C
:102E900010308DF8112021D1FFF7B6FE344B8DF89C
:102EA00012001B788DF8163004238DF81830314B42
:102EB0008DF814101B788DF8193005238DF81B3010
:102EC0002D4B8DF817101B788DF81A108DF81320E4
:102ED0008DF815208DF81C300D21C2E7FFF794FE08
:102EE00001238DF812008DF813308DF814608DF8E1
:102EF00015608DF816600721B3E701F0ABF90446C1
:102F000000287FF43DAFB8F1020F7FF639AF5522AC
:102F1000014602A8FDF788F901A93846019401F09D
:102F200069F9AA788723502A8DF8103000D082B929
:102F300005238DF8113050238DF8123000238DF8C1
:102F4000133001238DF8143038238DF81530062105
:102F500087E705218DF811108DF812408DF8134088
:102F60008DF814407DE700240BE700BFC06300200C
:102F7000E70A0020E60A0020E80A0020792C000079
:102F80007FB50E46017A4B06054607D14278717827
:102F9000307804B0BDE8704000F02EBF01F07F0132
:102FA000002000F0E7FF297A044601F07F010120AC
:102FB00000F0E0FF74B158B12279029222680192C8
:102FC00002790092036872783178687800F070FCBA
:102FD00004B070BD2046FBE7036810B5E3B19478F8
:102FE0001CB95468A478640616D01C1F04600878C5
:102FF00004300870602103F8041C0D2103F8031C41
:103000009178526803F8021C927802F08001C2F3B2
:1030100006020A4303F8012C10BD0000054A13788C
:10302000013BDBB213701BB9034A13700AF0ABBD4E
:10303000704700BF700B0020E90A002030B54B78C4
:10304000013B9BB005460C46042B00F29280DFE862
:1030500003F0032290486A008B78092B3ED8CB7886
:10306000002B3BD0444A4548012100F061FB434816
:103070000AF089FDA278424B2AB91A70414BA27816
:103080001A70FF202BE0E2783C481A704FF47A71F6
:103090000AF0E0FCF2E701F0DDF8F8B94D22014654
:1030A000019006A8FDF7C0F803A9284601F0A2F890
:1030B00073228DF8182003228DF81920314A019BC4
:1030C00012788DF81A202E4A12788DF81B20039A58
:1030D000042106A801F01AF80028D2D002201BB063
:1030E00030BD294A1378022BF8D08B8827485BBA69
:1030F00099B203800029F1D0254B69881980254BAE
:10310000A1781980244BE1781970244B24480021C0
:10311000198002231370234A00F00AFB282120485B
:103120000AF098FCADE701F095F80028D6D14D22C1
:103130000146019006A8FDF777F803A9284601F09B
:1031400059F873228DF81820124A019B12888DF8C5
:103150001A200D4A12788DF81B20104A12888DF81B
:103160001D20100A0621039A8DF819108DF81C00F5
:10317000AFE70020B3E700BF1D300000340B002094
:10318000700B0020E90A0020320B0020280B0020E1
:10319000300B00202C0B00202E0B00202A0B0020CF
:1031A000EC0A00207132000070B59AB018B92A4AB2
:1031B00013880133138029480AF0E5FC284A138854
:1031C00053B1013B9BB2138033B1244828211AB07C
:1031D000BDE870400AF03EBC1F4D224E2B88003BDC
:1031E00018BF01234D22002106A83370FDF71CF8FB
:1031F00005A800F0B7F91C4B00241B88ADF800307F
:103200008DF802408DF8044000F0FEF900F018FD42
:1032100025238DF8083073238DF81830134B8DF863
:1032200005001B888DF81A3033788DF81B302B88F9
:103230008DF81D301A0A06218DF81C20234602AA9B
:1032400006A88DF80A40CDF80CD08DF8191000F0C2
:1032500007FF1AB070BD00BF2A0B0020EC0A002047
:10326000280B0020320B0020300B00202C0B0020FC
:1032700000B5BFB000F0B6F90C4B1B88ADF80830B4
:103280000B4B1B788DF80A300A4B019300220B235D
:1032900069468DF800300AF081FB012803D1002136
:1032A0000220FFF781FF3FB05DF804FB2C0B0020EC
:1032B0002E0B0020A9310000014B00221A7070472C
:1032C000700B00200C4A0D4808B5002313800C4AEF
:1032D00013700C4A13800C4A13800C4A13700C4A6A
:1032E00013700C4A13700AF091FC20B1BDE808403D
:1032F00002480AF048BC08BD2C0B0020340B00200B
:103300002E0B0020280B0020300B0020320B002059
:10331000700B0020E90A002007B5094B01901B78CB
:103320008B420BD1042207490DEB020026F070F905
:10333000003818BF012003B05DF804FB0120FAE754
:103340007D0B00207E0B002008B5074B1870074B43
:103350001960074B1A6000F039F990F82430054ADB
:1033600003F03F03137008BD7C0B0020740B00209A
:10337000780B0020840B0020F0B597B004460F4670
:1033800016460021492203A81D46FCF74DFF6C2379
:103390008DF8083002238DF80930224600230521DC
:1033A00002A88DF80A708DF80B608DF80C5000F0B3
:1033B000ADFE003818BF012017B0F0BD2DE9F04F69
:1033C00005464878012885B00C4606D0022800F052
:1033D0009580002005B0BDE8F08F4F4E4F4F00F0B4
:1033E0004FFFA378327803F03F039A4204F10408B8
:1033F00018BF00234146284618BF3B70FFF7C0FDA9
:10340000C0B194F80290D5F8060009F03F01FFF72B
:1034100083FF80B14FEA490303F07E0343F00103C9
:1034200009F0800943EA0903E278AB724146284675
:10343000FDF718F83870002000F022FF97F8009090
:10344000B9F1030F1AD094F8028095F800A0D5F8CE
:1034500006B008F03F080AF00C0A41465846FFF74C
:103460005BFFBAF1000F0BD0002845D02C4B86F83B
:103470000080C3F800B02B4B2A781A70FF20A9E710
:10348000284A10B91378002B36D0254BD5F80610F2
:10349000196000231370A27886F8008019F0FD06E9
:1034A00002F03F0818D020490E68AEB121798DF89E
:1034B000041061798DF808308DF805108DF806201C
:1034C00003958DF8079001A8B0479DF807309DF847
:1034D00008609DF806803B70284600F0BBFE00287F
:1034E000CCD101A9284600F085FE3A7801983346F0
:1034F0004146FFF741FFC1E702206BE70B4B8A789B
:103500001B789A42BAD10A4B1B6813B10979E0784B
:10351000984701F093F8B1E77D0B0020830B002062
:103520007E0B0020820B0020740B0020840B0020F7
:10353000780B00206C23037001234370064B074A6D
:103540001B78127803F03F0343EAC2138370044BE5
:103550001B78C370704700BF840B00207C0B0020D9
:10356000710B002008B5064B00221A70FFF7E2FF2E
:10357000044A1378013303F03F03137008BD00BF02
:10358000710B0020840B0020014BC1701970704733
:10359000710B0020C0787047034B1860034B196013
:1035A000034B1A60704700BF880B0020940B00206B
:1035B000980B0020014B1860704700BF900B002053
:1035C000014B1860704700BF8C0B0020014B18683E
:1035D000704700BF940B0020014B1B689868704730
:1035E000980B0020014B1B6818687047940B002053
:1035F000014B1868704700BF980B0020014B1868FA
:10360000704700BF900B0020024B1B689B69187924
:10361000704700BF940B0020014B1868704700BF33
:103620008C0B0020044B1B689B681B7813F0300F39
:1036300014BF012000207047980B0020024B1B682C
:103640009B691878704700BF940B0020024B1B68E1
:103650009B69D888704700BF940B002008B5FFF71E
:10366000F5FF48B1E82808D9A0F5807080B2B0F520
:10367000806F2CBF0020022008BD0120FCE7000065
:1036800010B51C46FFF788FFFFF7A6FFFFF7CAFF3C
:1036900038B10F48FFF78EFFFFF7B0FF002100F0B1
:1036A00031F8002000F070FF2146002000F006FCF9
:1036B00000F0EEFF0321074800F0BDF8FFF780FFA0
:1036C000FFF7AAFFBDE81040034A002100F0C4B88C
:1036D000D00B00209C0B0020A93D000007B5002363
:1036E0000093054A054B0121042008F06FFD044BAF
:1036F000186003B05DF804FB3C0C0020F40B0020C4
:10370000400C00200AF09AB80AF0C0B80AF00AB9D2
:103710000AF008B907B503460448009100F12C02ED
:103720000C210AF0B6FA03B05DF804FB440C00204B
:1037300038B50B4D134604460A46014628460AF0A2
:10374000EFFA022808D048B994F82C30EA181A3356
:1037500082F85C0045F82300012038BD0020FCE71A
:10376000440C002001480AF0A2BA00BF440C00201B
:10377000014601480AF0FEBA440C00202DE9F0434E
:1037800085B090F800C0BDF830509DF83470044604
:1037900000EB0C1E80460026F04505D166450DD194
:1037A000002005B0BDE8F08398F80490B9F1030F4C
:1037B0001CBF0136F6B208F11008EDE7002BEFD080
:1037C0008DF80020ADF80250009E26F47F46012EB1
:1037D000E6D0022A03D1002FE2D0002DE0D0A6458A
:1037E00011D1002600F1040EB445D9DD34011EF8D4
:1037F0000480B8F1030F1CD12044C0E90313027107
:1038000095B90120CDE7267996420BD1E688AE42E4
:1038100008D1267ABE4205D12669B34202D1E668B4
:10382000B142BDD01034DAE7C580002FE9D007726D
:10383000E7E70136D8E710B50170034600EB011148
:10384000032400228B4200D110BDC3E903221C7166
:10385000DA801A721033F5E707B513460022CDE976
:103860000022FFF78BFF03B05DF804FBF8B50646B6
:103870000D46044600273378BB4200DCF8BD2379AF
:10388000012B07D0022B0CD043B92369E0682946ED
:10389000984703E02A79E3889A42F6D0013710343A
:1038A000E9E72A79E3889A42F8D16A79237AF3E73B
:1038B0002DE9F047DDF824A00D4690461C4607464A
:1038C000FFF7A2FE00F0BCF90646FFF791FE814625
:1038D000BAF1000F06D09DF828202946504625F061
:1038E00047FEC0B9D9F804301B785A0706D5032E15
:1038F00024D0042E26D1042F17D102E06EB1BE428F
:1039000011D184B19DF820202946204625F030FEB3
:1039100008B9202D07D1012003E0A5F1200358426A
:103920005841BDE8F087042E0CD1722D0AD1B8F1B0
:10393000040F07D1B7FA87F04009F2E7032F01D14E
:10394000002CDFD10020ECE730B58BB00C460546EB
:10395000FFF73CFE6523002201A980688DF8043042
:103960008DF808508DF809400AF018F80BB030BDFA
:1039700038B5064D06490446284607F0FBFD10B948
:103980002560012038BD0020FCE700BF300D00207D
:1039900050A9020000487047300D002070B5054660
:1039A0000E461446012304222146304605F00CF849
:1039B000AB6F23F4F853AB67052E4DD8DFE806F064
:1039C000031523334C3D64B1012C47D0022C48D061
:1039D000032C49D0042C4AD0052C14BF00244FF4EA
:1039E000A064AA6F2243AA6770BD0B2C42D00C2C96
:1039F00043D00D2C44D00E2C45D00F2C14BF0024E6
:103A00004FF42064EDE7062C40D0072C41D0082C61
:103A100042D0092C43D00A2C44D00B2C14BF0024D4
:103A20004FF48054DDE70D2C3FD00E2C40D00F2CEE
:103A300014BF00244FF4B854D3E7E4B3012C3DD0B5
:103A4000022C3ED0032C3FD0042C40D0052C14BFB8
:103A500000244FF4E854C4E70024C2E74FF4807414
:103A6000BFE74FF40074BCE74FF44074B9E74FF47C
:103A70008064B6E74FF4C064B3E74FF4E064B0E7A6
:103A80004FF40064ADE74FF41064AAE74FF43064DC
:103A9000A7E74FF44064A4E74FF45064A1E74FF464
:103AA00060649EE74FF470649BE74FF4A85498E776
:103AB0004FF4B05495E74FF4C05492E74FF4C85414
:103AC0008FE74FF4D0548CE74FF4D85489E74FF484
:103AD000E05486E770B505460E46144600230122E1
:103AE0002146304604F070FFAB6F23F01F03AB6735
:103AF000052E4BD8DFE806F0031522314A3A002C98
:103B000042D0012C42D0022C42D0032C42D0042CB3
:103B100042D0052C14BF00230423AA6F1343AB67C4
:103B200070BD0B2C3AD00C2C3AD00D2C3AD00E2C68
:103B30003AD00F2C14BF00230923EEE7062C35D012
:103B4000072C35D0082C35D0092C35D00A2C35D08F
:103B50000B2C14BF00230F23DFE70D2C30D00E2CCD
:103B600030D00F2C14BF00231623D6E764B3012CEA
:103B70002CD0022C2CD0032C2CD0042C2CD0052C97
:103B800014BF00231C23C8E71F23C6E70023C4E794
:103B90000123C2E70223C0E70323BEE70523BCE7F6
:103BA0000623BAE70723B8E70823B6E70A23B4E7F2
:103BB0000B23B2E70C23B0E70D23AEE70E23ACE7EF
:103BC0001423AAE71523A8E71723A6E71823A4E7D9
:103BD0001923A2E71A23A0E71B239EE72DE9F04350
:103BE000144D8046894616461F460FCD89B001AC5C
:103BF0000FC495E8070084E807000F4C0025204615
:103C000001218DF8045003F083FC01A90B4805F055
:103C100021F84A4641460948FFF7C0FE3A46314678
:103C20000648FFF757FF2946204603F071FC09B00C
:103C3000BDE8F0836CA902000032040000000140DE
:103C400042070AD483070AD410F0010303D110F00D
:103C5000800F18BF0423184670470323FBE7022395
:103C6000F9E7000038B5FFF7F1FC094D2C1D28B924
:103C70002B6893E8030084E8030038BDFFF7C4FC19
:103C8000FFF7DEFF0028F3D02B68D3E90201F2E74B
:103C9000B00D002008B5054B1860054B1960FFF703
:103CA000E1FF02F0C5FF012008BD00BFB00D0020FC
:103CB000800D0020F8B5304C0D46164600284FD038
:103CC00021BBFFF7A1FC9EB92C4B1B6870B9236088
:103CD0002B4A2C4E25681660002313712979D8B21F
:103CE00081420BD8264B23602068F8BD0833EEE7ED
:103CF0003146284600F03EF92060E9E72F68117947
:103D0000385C7054013111710133E7E7FFF77CFC37
:103D1000FFF796FFA8421ED1BEB9184B1B6810339F
:103D20002360013D022DDFD8154A164D216815602C
:103D30000023137113790868C05CEF28D2D00E7984
:103D40009E42CFD9E8540133F3E73146012000F019
:103D500011F92060E5E70A4B00221A601A71C2E7E8
:103D600022B90029F7D1054B1B68BCE7114600F0CA
:103D700001F92060B8E700BFBC0D0020B00D0020A5
:103D8000A80D0020840D002008B5FFF76BFF034B42
:103D90001B6803B19847012008BD00BF800D0020BB
:103DA0000020FFF7F1BF000030B5114B91F8A4508F
:103DB0001A6885B00C46197A02915B680193137DED
:103DC000009313692179627994F8B500FFF770FDCB
:103DD00060B104F1A8022946201D00F0E9F9054B65
:103DE0001B681BB105B0BDE83040184705B030BDB9
:103DF000B00D0020800D002030B5094B85B01D7A34
:103E0000044610461A6802955B680193137D00937F
:103E100013690A462146FFF74BFD05B030BD00BFD0
:103E2000B00D002013B50023114CADF80430012370
:103E30008DF8073063788DF8060093B12378C3F3CB
:103E4000C20304EB83035B680BB101A89847237896
:103E5000C3F3C202013262F3C50323706378013BEE
:103E60006370044B1B6803B1984702B010BD00BFDC
:103E7000F4630020C80D002010B50E4C63788BB1A0
:103E80002378C3F3C20304EB83035B6803B1984751
:103E90002378C3F3C202013262F3C503237063784F
:103EA000013B6370044B1B6813B1BDE81040184719
:103EB00010BD00BFD0630020C80D002010B50C4617
:103EC000FFF790FB074B084A1860084B1C601388EB
:103ED00003F0C0031380064A138803F0C003138065
:103EE00010BD00BFCC0D0020F4630020C80D0020E1
:103EF000D0630020044B1A7200225860D9601A6106
:103F00001A751A70704700BFD00D00200C4B5B680B
:103F1000A3B19A7802F0C001C2F305020A4302700D
:103F20001A7802F08001C2F306020A4342705B78FD
:103F300003F08002C3F3060313438370704700BF8E
:103F4000D00D0020094A137A83420DD368B1D2689C
:103F50006FF01B011C2313FB0013D1180448D35C22
:103F600003704B784370704700207047D00D0020DD
:103F7000C60D002070B5134D2B7A8B4206460C46B9
:103F80001AD3C9B1FFF740FBFFF75AFE30B9AEB9FB
:103F9000E8681C2101FB0400183870BD1C206FF07C
:103FA0001B0110FB0410EC68044416B904F10C006A
:103FB000F3E704F11400F0E70020EEE705F1180044
:103FC000EBE700BFD00D00202DE9F0410446134D72
:103FD0000020034604EA010C4FF01C0E2E7A9E428C
:103FE00004D808B910700120BDE8F081BCF1FF0FC2
:103FF00003F101060DD0EF680EFB03F307EB030896
:10400000FB5CA34208D198F801308B4201D0FF2914
:1040100002D1431C1654D8B23346DFE7D00D00203E
:10402000F8B50E4C0246267D0846216900239E42C3
:1040300001D800200EE011F833C094454FEAC307C1
:1040400001EBC30507D16A78696825F0F1FA2369A5
:104050003B445878F8BD0133E9E700BFD00D00209C
:10406000F0B514465268C1B0127901908DF8031072
:1040700002B9A270224D6A78072A3ED82A7802F047
:10408000070205EB82020DF10301536001A82246ED
:10409000FEF7A2FF66689DF803703388ADF8BC3068
:1040A000184B019903933A4623788DF810300DF19F
:1040B000120025F0BDFA63788DF81170002243F0EC
:1040C0000103ADF8BE208DF8C1208DF8C0307379A2
:1040D0008DF8C23001238DF808300B4B02A9186807
:1040E00009F05CFC38B92B785A1C62F302032B7080
:1040F0006B7801336B7041B0F0BD0120FBE700BF6E
:10410000F4630020253E0000CC0D0020F0B5254CC6
:10411000C1B015468DF8031061780190072902D9C6
:10412000012041B0F0BD217801F0070104EB8101CD
:104130004B60002AF4D00DF1030101A8FEF74CFFFB
:104140006E689DF803703388ADF8BC30164B01994A
:1041500003933A462B788DF810300DF1120025F0BC
:1041600067FA6B788DF811700022ADF8BE208DF8DB
:10417000C1208DF8C03073798DF8C23001238DF8DD
:1041800008300A4B02A9186809F008FC0028C8D1B9
:1041900023785A1C62F3020323706378013363703F
:1041A000BFE700BFD0630020793E0000CC0D0020A7
:1041B0001FB513788DF80430537B8DF805301389C3
:1041C000ADF806309DF808306FF306038DF808301F
:1041D0009DF80E30002262F300038DF80C200A4691
:1041E000014601A88DF80E30FCF73CF905B05DF8EA
:1041F00004FB000030B5114A114C438854600A603A
:1042000023800379A178C3F3060513F07F0318BF59
:10421000012365F30601A17023714378637125239F
:10422000137003789B0744BF27231370037AC3F3EB
:10423000060393700023537030BD00BFF00D0020C3
:10424000C00D0020037813F00C0F14BF01200020D4
:104250007047000008B50246FFF7F4FF074B38B976
:1042600092F90820002A06DB1878421E504250417D
:1042700000221A7008BD0120FAE700BFD00D00200F
:10428000014B1870704700BFD00D0020F7B5344DBA
:10429000344C297881B12268334B561A72427241EC
:1042A000DA70002843D002881A8082789A702F4BE7
:1042B0001B680BB12C48984729782368994234D25F
:1042C0002B4B1A6853788DF800302A4B1B788DF8E9
:1042D000013029B9990744BF43F004038DF8013038
:1042E00093788DF80230FDF7F9FD1F4C0388238089
:1042F000214B01901A7812F0070206D01F4B1A7852
:104300001AB190F90220D243D20F1D4F1D4E3946EB
:10431000304602F0B5FC68B94FF4817320806380A9
:10432000124B1B680BB11048984703B0F0BD1880C2
:104330009870BCE7144B397830686A46FFF790FEF6
:1043400050B1002323800223A370FDF7E1FDB0FAF2
:1043500080F04009E070E3E72B7801332B70E4E74D
:10436000110E00200C0E0020120E002018640020F8
:10437000080E0020160E0020100E0020F90D00205F
:10438000F80D0020040E00208D4200000020FFF7F1
:104390007DBF000030B5002485B0174D009428681B
:1043A000ADF8044000F108016A460430FDF7C4FD91
:1043B000124B18709DF90230002B19DA2B68104946
:1043C0005A7810489B788DF808204FF000028DF83D
:1043D00009208DF80A3009780B4B0068CDF80CD015
:1043E00002AAFFF73DFE003818BF012005B030BD1E
:1043F0000028D2D10220F9E7080E0020000E00208C
:10440000F80D0020040E0020054500002DE9F041C4
:10441000C6B01D21684609F044FD0024304B314FE1
:104420001C70AA2221460DF12A003C70FBF7FCFE0D
:104430002D4B1D782D4B2A4619680DF12A0025F0C9
:10444000F7F82B4B8DF8295009938DF82840FDF78C
:104450005FFD284D012828603FD9274B93F8008045
:10446000B8F1000F39D1254E33689B69187910F0E7
:1044700007041CD0224B1B681B788DF8D530FF2316
:104480008DF8D430FFF7DCFB02233B7004238DF85A
:10449000D6008DF8203033680022186808A909F08A
:1044A0007DFA003818BF012046B0BDE8F081FDF765
:1044B00015FD0178684609F0E8FC2B6801349C4240
:1044C000F5D303236C468DF820300FCC35AD0FC5E6
:1044D00094E80F0007C52B70DDE70220E4E700BF7A
:1044E000110E0020160E0020F80D0020040E0020F2
:1044F0008D4300000C0E0020000E0020FC0D00205B
:10450000080E002010B58378044653B1FDF700FD76
:10451000B0FA80F0194B4009E0701B680BB12046DF
:104520009847174B1B787BB9FDF7F2FC154B1860C9
:10453000D0B1FFF76BFF01280AD0022813D1BDE8E4
:1045400010400020FFF7A2BEFFF724FF012808D18A
:104550000223A370FDF7DCFCB0FA80F04009E070A4
:1045600004E00228E0D010BD0123E370034B1B6878
:10457000002BF8D02046BDE81040184718640020F2
:10458000000E00200C0E002008B5FFF71FF8014BAD
:10459000186008BDFC0D0020F8B514460BB90020CA
:1045A000F8BD1A7A002AFAD00028F8D00029F6D0EF
:1045B0001B4A069F17601B4F3B601B4B18601B4B31
:1045C000197002F04FFB0028E9D0194B194A1C70F2
:1045D000194B1B689B691B79137013F0070311D0EB
:1045E000221E18BF012211490F4802F049FB002882
:1045F000D5D03B685868FDF755FCFFF7CBFE18B9DE
:104600000120CDE71A46EEE70128C8D0FFF7FEFEED
:104610000028F5D00128C2D00020FFF737FEEFE7D1
:1046200018640020080E0020040E0020F80D002061
:10463000F90D0020100E0020FC0D00200020FFF7D7
:1046400025BE0000114B17B41B685A689C6810788F
:10465000117A1B680194C1F3060110F0020F4FF0AC
:1046600000008DF802108DF801000CBF25212721D4
:1046700043B18DF8001002A911E9030003B05DF801
:10468000044B184703B05DF8044B7047480E0020F8
:1046900008B5084A08480021FFF74AF848B1074A18
:1046A0000023C2E90033C2E90433C2E90833044AF3
:1046B000136008BD7D4800001C640020180E002017
:1046C000480E0020F0B50E4689B01546074618B9C9
:1046D0000025284609B0F0BD0029F9D008684968CE
:1046E00002AB03C3B068186002A8FFF7ABFD014638
:1046F00008B10125EDE701908DF803000DF10303EA
:1047000001AA0120FDF718F99DF80330002BF0D025
:10471000012B0ED1019BBDF80A101A88914208D1D5
:104720009DF80C209B7802F07F0203F07F039A42F1
:10473000DFD0244C2DB3244809F068FA054600B3B5
:1047400022464FF0000C1368BB4213D1D2F804E0AC
:10475000DEF80000DEF8041005AB03C3DEF8080045
:1047600018609DF8103043405B0603D1164809F0ED
:10477000F4F9AEE70CF1040CBCF10C0F02F11002DD
:10478000E1D123682BB12369CBB1236A002B9FD1E0
:104790000223190104EB03126750019991609DF8FF
:1047A000031011735660094A11680029A1D104EB66
:1047B0000314FA210448146009F04CF999E7012325
:1047C000E7E700BF180E00201C640020480E002000
:1047D0002DE9F041274C284822680021032500F1EB
:1047E000100600F12007137B013BDBB21373002B93
:1047F0003CD18242C2E9003393602CD0B2422CD02B
:10480000BA422CD102210B460133B3FBF5F202EB85
:1048100042029B1A1A0100EB031C82580AB362463B
:104820000121D2F804C0D2F808E09CF80430BEF8A8
:104830000080BCF802C0E04503F07F0305D19EF87C
:1048400002C00CF07F0C9C45CDD001B12260BDE8C8
:10485000F041FFF7F7BE1946D5E70121D3E7032161
:10486000D2E79942D0D12260BDE8F0819368063347
:104870009360D6E7480E0020180E00200C4B8342B0
:1048800014D10C4B1B68D3E9012350881988884246
:1048900007D112799B7802F07F0203F07F039A42DE
:1048A00001D0FFF7CFBE0020FFF792BF704700BFD7
:1048B0001C640020480E0020C36C03B118477047E9
:1048C000B0F84830027A9A423EBF0A22B3FBF2F3B4
:1048D00080F853307047016BB1F84830B1F84A2086
:1048E000934210B503D1BDE8104009F04CB9D41A79
:1048F000002CB1F85000B8BF6442844205DAA1F838
:1049000048200846FFF7DCFF08E091F8524054B118
:1049100003449BB29A42A1F84830F2D0BDE810405F
:104920000846FFF7C9BF1B1AF3E7000038B5142B80
:1049300038BF1423C0E900339DF8103001720446DB
:10494000427280F85430059D084A01210C30FEF770
:10495000EFFE0A23E463A4F8503005B1E5640023B8
:10496000A364637A84F8533038BD00BFD748000091
:1049700038B500F10C050446284609F047F950B156
:10498000284609F000F92046FFF79AFFB4F84830AE
:10499000A4F84A30012038BDB0F848000A23B0FB23
:1049A000F3F0C0B27047B0F84A000A23B0FBF3F04E
:1049B000C0B27047B0F84A30B0F84820934219D0DE
:1049C0009B1A002B4268B0F85000B8BF5B425343BB
:1049D000B3FBF0F04EF65F23984283BF4EF66023A0
:1049E000B0FBF3F07F304FF47A7398BFB0FBF3F075
:1049F000C0B270470020FBE743B2002B03DD4FF449
:104A00007A735843704780F080037E2B03D87F3839
:104A10004EF66023F5E70020704770B5FF2908BF08
:104A200090F8541006684FF47A734B430446B3FB76
:104A3000F6F2B0F84A30B0F848001B1A002BB8BFA5
:104A40005B4298B20A25B0FBF5F595421AD20846AA
:104A5000FFF7D2FFB0FBF5F013289CBF142363606F
:104A60004FF00A0388BF6060A4F8503004F10C05D1
:104A7000284609F0CBF858B961682846BDE870406F
:104A800008F0E8BFB3FBF2F36660A4F85030EDE73E
:104A90002846BDE8704009F060B810B50B46017AB1
:104AA000994228D8417A994225D3B0F848400A2142
:104AB000B4FBF1F1C9B2994210D003EB83035B0060
:104AC000A0F84A3022B1FF2A0AD190F8541039B91F
:104AD000A0F84830FFF7F4FEFFF7EEFE002009E0F3
:104AE000A34294BF0023012380F852301146FFF700
:104AF00094FF012010BD0220FCE738B582F00102CE
:104B00009DF8105080F8522004464AB3427A02EBD6
:104B100082025200A4F84A2079B9227A9A4227D810
:104B2000627A9A4224D303EB83035B00A4F84830F3
:104B30002046FFF7C5FEFFF7BFFEB4F84A30B4F8D1
:104B400048209A420AD025B1FF2D0BD194F8542069
:104B500042B9A4F848302046FFF7AEFE002006E038
:104B6000027AD4E720462946FFF757FF012038BDD7
:104B70000220FCE790F853007047000070B54E78B3
:104B8000012E9AB0044604D0022E24D000201AB080
:104B900070BD8878A0F16403DBB29A2B01D80220A3
:104BA000F5E7217A01F07F01FBF71AFD01280546A0
:104BB0000BD82046FBF7DEFE324601461C48FFF7C5
:104BC00081FD002DEBD0FF20E1E70228FBD120463C
:104BD000FBF7A6FEF7E7FFF73DFB0028DFD14D22EC
:104BE0000146019006A8FBF71FFB03A92046FFF72B
:104BF00001FB20228DF8182003228DF81920039A3A
:104C00009078FBF705FD039A8DF81A009078FBF772
:104C100005FD039A8DF81B009078FBF7EAFC019BD9
:104C20008DF81C00039A052106A8FFF76FFACAE762
:104C3000F508000030B599B014466D464D2285E860
:104C40000300002104A8FBF7EFFA207A25238DF852
:104C5000103000F07F0003238DF81130FBF7D0FCFB
:104C60008DF81200207A00F07F00FBF7DDFC8DF854
:104C70001300207A00F07F00FBF7D8FC044B8DF87E
:104C800014002A46052104A8FFF7EAF919B030BD3F
:104C9000D1470000FF2913B5044605D11046019203
:104CA000FBF79EFD019A01462CB9204602B0BDE8F3
:104CB0001040FBF7BDBC643CE4B29A2C01D9FF2044
:104CC000F4E7012002B010BD30B54B78012B9BB04A
:104CD000044633D0022B53D1FFF7BCFA00284DD144
:104CE0004D220146019006A8FBF79EFA03A9204633
:104CF000FFF780FA207A25228DF8182000F07F0037
:104D000003228DF81920FBF77BFC8DF81A00207A1E
:104D100000F07F00FBF788FC8DF81B00207A00F084
:104D20007F00FBF783FC019B8DF81C00039A052193
:104D300006A8FFF7EBF9FF201BB030BD8878A0F183
:104D40006403DBB29A2B19D9022A17D9032A08BFA8
:104D5000FF23227A08BFCB70C97802F07F02FFF7E9
:104D600099FF01280546E6D82046FBF7DDFD012224
:104D700001460448FFF7A6FC002DDCD10220DBE74A
:104D80000020D9E7354C00002DE9F0414B78073B76
:104D90009AB004460D46072B2AD8DFE813F0080026
:104DA00029002B00290078002900A000E600FFF769
:104DB00051FA054618B102201AB0BDE8F0814D2223
:104DC000014606A8FBF730FA03A92046FFF712FABE
:104DD00060238DF818300DF11A0008238DF8193072
:104DE000FFF794F8039A2B46052106A8FFF78EF9E2
:104DF0000020E1E7FFF72EFA06460028DBD1014646
:104E00004D2206A8FBF710FAA87800F07F00431E99
:104E1000012BD0D8FFF796F88046FEF717FCAA784A
:104E2000003802F07F02314618BF0120FEF742FF32
:104E300003A907462046FFF7DDF960238DF81830F7
:104E40000A238DF81930AB7803F07F038DF81A3000
:104E5000002FB0D039680029ADD03A79002AAAD005
:104E6000B8F1000FA7D0002BA5D098F800308DF82E
:104E70001B3098F801308DF81C300DF11D0024F026
:104E8000D7FB397933460531039AC9B223E0FFF7DE
:104E9000E1F9064600288ED14D22014606A8FBF70F
:104EA000C3F903A92046FFF7A5F96023E978A8789C
:104EB0008DF818300DF11D020C238DF819308DF886
:104EC0001C108DF81A608DF81B00FFF77DF8039A0F
:104ED00005303346C1B206A8FFF718F93AE0A978C1
:104EE000037961F30603037195F90310EB78002948
:104EF000017AB8BF002363F30601171F0172002671
:104F0000FFB295F90330002B2CDAE87800F07F002F
:104F10005FFA86F8304108F1010110F00100C9B2D2
:104F200016D061F07F012172291D20460191FEF704
:104F300027F8019918B13A462046FBF793FA237AED
:104F40005B0607D008F10106F6B2062ED9D901E0BA
:104F5000072901D1FF202FE7FFF70CF801360028C1
:104F6000D3D1F7E74FF00708DEE7FFF773F9002822
:104F70007FF421AF4D220146019006A8FBF754F9BA
:104F800003A92046FFF736F96022A8788DF818208B
:104F900007A90F228DF819208DF81A00FFF740F8A5
:104FA000019B8DF81B00011D6EE7000010B5094B39
:104FB00002461868084B1C780023D9B28C4201D8ED
:104FC000002010BD90F86410914203F10103F8D065
:104FD0006C30F2E7500E00204C0E002073B51C4BD5
:104FE0001C681C4B054619780023DAB2914202D89E
:104FF00000239B6EFFDE04F10C02954203F10103D6
:1050000001D06C34F1E7A36E0BB1204698472846D7
:10501000FFF7C2FC06462846FFF7C5FC864215D1BD
:105020000D4801222146FFF74DFBA37A03F08103CF
:10503000812B0BD101A92046FFF7DCF8A17A01985A
:105040000023FF22C1F34501FEF796F902B070BDBF
:10505000500E00204C0E00205D50000030B599B07D
:105060006D4685E80300144600214D2204A8FBF795
:10507000DBF80C3426238DF81030204603238DF8FE
:105080001130FFF789FC8DF812002046FFF78BFCEA
:105090008DF813002046FFF78DFC054B8DF81400AA
:1050A0002A46052104A8FEF7DBFF19B030BD00BF7A
:1050B000D14700002DE9F743DFF84480DFF8449042
:1050C00088F800101D460D4B1746186000F10C04BF
:1050D000002698F80030B34202D803B0BDE8F08350
:1050E00005B1E5652046CDE900791423632200214E
:1050F000FFF71CFC01366C34EBE700BF500E0020BC
:105100004C0E0020DD4F000070B5054610460E46DF
:10511000FFF74CFF90B1FF2D00F10C0403D12046A6
:10512000FFF728FD0546324629462046FFF7B5FC25
:1051300001281ABFB0FA80F04009022070BD0000BB
:105140002DE9F0434B78013B9DB004460E461746CF
:10515000052B00F2EA80DFE813F03F000600E800CC
:105160007900AF00C700FFF775F8054618B10220B7
:105170001DB0BDE8F0834D22014608A8FBF754F8A6
:10518000204605A9FFF736F8207A00F07F00FFF7E8
:105190000DFF04460028EAD00C3426238DF8203079
:1051A000204603238DF82130FFF7F6FB8DF822000F
:1051B0002046FFF7F8FB8DF823002046FFF7FAFBA7
:1051C000059A8DF824002B46052108A8FEF79EFFBE
:1051D0000028CCD1FF20CBE7007A00F07F00FFF75A
:1051E000E5FE05460028C2D061680346206803C377
:1051F000A0681860032F08BFFF23227A08BFF3704E
:10520000F178B07802F07F02FFF77EFF02281AD112
:10521000AB7ADB07DED506A92846FEF7EBFFAB7AB3
:10522000069C03F08001C3F34503194305F10C000C
:105230000391FFF7BFFB0399034601222046FEF7C7
:105240009BF8032094E7002891D0C3E7032F8ED961
:10525000007A8D7800F07F00FFF7A8FEC5F34019B3
:105260008046002883D061680346206803C3062F68
:10527000A068186017D115F0C0051BD0402DA9D823
:105280000122337900934946F37808F10C00FFF7C7
:1052900034FC02283FF46BAF98F80A306FF3000338
:1052A00088F80A3096E7042F04BFFF233371C5F353
:1052B0008012E6E72A46E4E7022F7FF458AF007A2F
:1052C00000F07F00FFF772FE044600283FF44FAF66
:1052D0000C30FFF74DFB012802467FF47BAF2146DF
:1052E0001348FFF7EFF975E7FEF7B4FF054600280E
:1052F0007FF43DAF4D22014608A8FAF795FF05A9B6
:105300002046FEF777FF26238DF8203007238DF8FF
:10531000213002238DF82230059A8DF823502B4638
:10532000042108A8FEF7F2FE54E7002020E700BFA2
:105330005D50000008B5FFF739FE20B1BDE8084018
:105340000C30FFF729BB08BD08B5FFF72FFE20B1D1
:10535000BDE808400C30FFF726BB08BD08B5FFF7D5
:1053600025FE20B1BDE808400C30FFF723BB08BD87
:1053700013B5037A90F86440FF2964F306030372BF
:1053800000F10C0405D120460192FFF7F3FB019ACE
:105390000146204602B0BDE81040FFF77EBB70B466
:1053A0000C4690F864609DF80C501146027A66F342
:1053B00006020272039522460C3070BCFFF79DBBBB
:1053C00010B5037A90F8642062F306030372044672
:1053D0000C30FFF7CDFA012806D121460348BDE87D
:1053E00010400022FFF76EB910BD00BF5D500000F5
:1053F000037A90F8642062F3060303720C30FFF71F
:10540000CBBA037A90F8642062F3060303720C307F
:10541000FFF7B0BB70B54B78013B9CB004460D461E
:105420001646062B00F2EF80DFE813F0BF00ED0018
:10543000ED002200ED0007009500037AA878C3F381
:10544000060306A98DF8183000F05CFA68B1E97817
:105450004B1EDBB2FD2B01D8FF2007E09DF8182082
:10546000A87800F07FFA0028F6D102201CB070BDA9
:10547000FEF7F0FE01460028F7D14D2208A8FAF702
:10548000D3FE237A05A9C3F3060320468DF8123014
:10549000FEF7B0FE032E14BFEB78FF238DF8263005
:1054A0009DF826000DF1120100F02CFA0028DCD046
:1054B000712300248DF820309DF812109DF82600ED
:1054C0008DF8224005238DF821308DF823408DF88A
:1054D000244000F093FA032E8DF825008DF8284023
:1054E0008DF829408DF827402FD18DF826400924CA
:1054F0009DF82630FF2B10D19DF827206AB99DF822
:1055000012108DF813300DF1130000F067F99DF8BB
:1055100013308DF82630FF28A7D094B99DF81230AB
:1055200000930DF129020AAB0DF127010DF12600C0
:1055300000F086FA002898D09DF8284004F01F0457
:105540000934059A002321462BE0042E84BF2B79D1
:105550008DF82730CCE7FEF77DFE002885D14D225F
:105560000146039008A8FAF75FFE05A92046FEF75A
:1055700041FE71228DF8202008228DF82120227A08
:105580000DF1230102F07F020DF1220000F02EFB4D
:105590009DF82210039B059A01F07F018DF82210DF
:1055A000033108A8FEF7B2FD56E7FEF753FE0646A4
:1055B00000287FF45AAF4D22014608A8FAF734FEBE
:1055C00005A92046FEF716FE71238DF82030022330
:1055D0008DF82130237AA8788DF8220003F07F031C
:1055E00009AA0DF123018DF8236000F0C5F99DF89B
:1055F0002310059A01F07F0301F01F018DF823307D
:1056000004313346CDE7002030E700002DE9F043B8
:1056100085B080460C980F4691461E4601F010FB5F
:105620000446B8B371230370052343700025FF239C
:105630004371C6718570C570057100F1080300F1F2
:105640000902C11D00970DF10F008DF80F9000F0B9
:10565000F7F99DF80F30A371237A03F01F0323722B
:105660003A462146404603F10906FBF74BFE28B9AE
:1056700001F02CFB022005B0BDE8F083074B00933E
:105680000122034631462046FEF786FF012803D05B
:1056900001F01CFB0120EEE72846ECE7DD6C000082
:1056A00030B59DB002AD144685E803004D220021BF
:1056B00008A8FAF7B9FD71238DF8203005238DF87D
:1056C0002130FF238DF82530237B8DF81730637B45
:1056D0008DF82730A37B00930DF129020AAB0DF161
:1056E00027010DF1170000F0ABF99DF828109DF887
:1056F00017308DF8263001F01F018DF82810044B6B
:105700002A46093108A8FEF7ABFC1DB030BD00BF2A
:10571000D1470000FF280B4B0DD0DA79824202D12D
:105720009A798A420AD0DA7E824209D1987E431A57
:105730005842584170479A798A42F7D10120704700
:10574000002070475864002007B568B14FF6FF731A
:10575000ADF80430064807490068022301AA05F0A5
:10576000D9FF03B05DF804FBADF80400F2E700BF19
:10577000BC6300200410050037B5134B134D002205
:105780001A70134B4FF47F01C3E90112C3E90612EB
:105790009C8A198D1A7029402C409A811A611A84AA
:1057A0005A6219859C820B4B0B4918606A4601AB03
:1057B00006F048F810B9019B022B02D0FF20FFF73A
:1057C000C3FF03B030BD00BF540E002000FCFFFF3C
:1057D00058640020BC6300200410050010B5037855
:1057E000FF2B174B18D11A78FF2A04BF00221A701A
:1057F0001A78142404FB023209B9D2790BE09479A7
:105800008C42FAD09A798A4204BFDA7902709A7E81
:105810008A4201D1DA7E02700278D879904202D1B0
:105820009879884208D0D87E904207D1987E8842E5
:1058300014BFFF20012010BD0020FCE7FF20FAE785
:10584000586400207FB5114E8DF8070015460223DD
:1058500003AA30680C460E4905F0A6FF29460DF153
:105860000700FFF7BBFFFF280DD004AB184410F86A
:10587000043CA34207D000F8044C054930680223D9
:1058800003AA05F047FF04B070BD00BFBC63002051
:1058900004100500F8B51A4CE57906461746084687
:1058A0009DF81C209DF8241015B1E57E2DBB012527
:1058B000AC464FF0140E25700EFB0C443578257164
:1058C000757823730023657163739DF81850236105
:1058D000A38AA27123F47F732D0223F00303C5F37F
:1058E00009052B43E071A760A38221B99DF8201020
:1058F000FFF7A8FF01210846F8BD0021FBE700BF24
:105900005864002038B50C4609780546FFF702FFB9
:1059100059B9134BFF2D1A7808D1FF2A1CBF142147
:1059200001FB02339B792370012038BDFF2A05D08B
:10593000142101FB0232D179A9420DD0DA79AA42B1
:1059400002D19A79FF2A09D1DA7EAA4202D19A7E3F
:10595000FF2A03D10020E8E79379E4E72270E3E728
:105960005864002008B511B1FF2918BFFE21FFF7C8
:1059700069FF012008BD0000F0B585B00C460DF1AF
:105980000701064615468DF80730FFF7BBFF80B3C9
:105990009DF807108DF80F600DF10F00FFF71EFF47
:1059A0009DF80F300021B342217001D005B0F0BD49
:1059B000FF28FBD0104B142202FB003001270FE020
:1059C0008668B65C9E4288BF267083689B5CDA0856
:1059D00003F00703AE5C07FA03F33343AB54013122
:1059E000067B2378CAB29642EAD8DB0801332370DB
:1059F000DCE72070DAE700BF586400201FB58DF89F
:105A000007000DF10700FFF7E9FEFF28044611D05B
:105A100009480A490068022303AA05F0C5FE04AB41
:105A20001C4414F8040C003818BF01204042C0B2D6
:105A300004B010BD0020FBE7BC630020041005008B
:105A40002DE9F04788469DF8201017469A460546EE
:105A5000FFF7C4FE0024FF283C7081468AF800400E
:105A60004DD02878FFF756FE002835D0254A98F803
:105A70000050142606FB0926317BE3B2994217D861
:105A8000002D36D11378FF2B26D0142404FB0924D3
:105A9000637B88F80030237D8AF800302B46217D17
:105AA000DAB2914218D92169895CB9540133F6E719
:105AB000B3681B5DAB421AD1CDB1737BAB424FF0E3
:105AC000000510D1337D8AF80030142404FB09242A
:105AD000227DEBB29A4201D8BDE8F0872269D25C00
