:1000000000000120DD5A0000215B0000215B0000A0
:10001000A15C0000215B0000215B00008D3D000021
:100020008D3D00008D3D00008D3D0000419F000092
:10003000215B000048750200A19F000005A00000A0
:10004000EDA5000001400200215B0000215B0000E3
:10005000B5380200594002000D4002002540020060
:1000600005400200C5360000E93D0000215B0000AC
:10007000B1370000215B0000215B0000215B000024
:10008000215B0000215B00000D3E0000215B0000B1
:10009000215B0000215B0000215B0000215B000070
:1000A000215B0000215B0000215B0000215B000060
:1000B0005D40020009400200016C020061B50100D0
:1000C00099400200215B0000F1290200215B000041
:1000D000215B0000215B0000215B0000215B000030
:1000E000215B0000215B0000215B0000215B000020
:1000F000215B0000215B00008D3D000010B5054C28
:10010000237833B9044B13B10448AFF300800123C3
:10011000237010BDB80400200000000018B30200D6
:1001200008B5034B1BB103490348AFF3008008BD7A
:1001300000000000BC04002018B30200A3F5803AC0
:10014000704700BF174B002B08BF134B9D46FFF7AE
:10015000F5FF00218B460F461348144A121A00F08F
:1001600063F80E4B002B00D098470D4B002B00D0AE
:1001700098470020002104000D000D48002802D0FF
:100180000C48AFF3008000F02BF82000290004F0A9
:1001900005F800F011F800BF0000080000000000A2
:1001A0000000000000000120B8040020D8770020E3
:1001B000000000000000000008B5074B044613B122
:1001C0000021AFF30080054B1868836A03B198479C
:1001D000204605F011FC00BF00000000E87402009A
:1001E00070B50D4D0D4C641BA4100026A64209D11C
:1001F0000B4D0C4C27F066F9641BA4100026A64298
:1002000005D170BD55F8043B98470136EEE755F827
:10021000043B98470136F2E7B0040020B004002008
:10022000B0040020B404002002440346934200D1ED
:10023000704703F8011BF9E77047000010B5AAB03A
:100240000446242200216846FFF7EEFF47238DF87D
:100250000030094B8DF804401B68694698680022FD
:100260000AF048F8C72109A803F07AF808B19DF808
:1002700028002AB010BD00BF9467002030B5ABB095
:1002800005460C46242200216846FFF7CDFF522385
:100290008DF80030ADF80450ACB12368CDF80630CD
:1002A00023798DF80A300A4B1B686946986800224A
:1002B0000AF020F8D02109A803F052F808B19DF8FF
:1002C00028002BB030BD01238DF80B30EBE700BFC9
:1002D0009467002007B5084B186800909B88ADF81C
:1002E00004300621684603F0B3FA03F0DDFA002873
:1002F000FBD003B05DF804FBEC74020037B5084D89
:100300002B788342044608D00021064800910068FB
:100310000123042209F004FA2C7003B030BD00BFA1
:10032000C50000207405002038B5044609F056F9D0
:10033000164D174B174A1C602146286002F0ECFD51
:100340002968154C052002F031FE1448002102F006
:10035000FDFD1348012102F0F9FD1048002102F0D3
:10036000F7FD0F48002102F0F3FD0E4B0E4A0A483C
:10037000062108F05EFA0020FFF7C0FF00224FF0D0
:10038000FF31204608F05DFAF8E700BF7405002051
:10039000946700200875020078050020E40500201D
:1003A000C00500200D2400003075020073B5144C08
:1003B000A378072B21D80133A3706378AA2505FB06
:1003C0000346A82A28BFA822F070304632710530B3
:1003D00027F050F863780B480133DBB20022072B7B
:1003E000009294BF637062700068012304220021B0
:1003F00009F096F9012002B070BD0020FBE700BFB4
:100400002C5C002074050020044B05491B784870C3
:100410000B700222BE20FFF7C9BF00BF9267002009
:100420007F610020044B05491B7848700B70022245
:10043000A220FFF7BBBF00BF876700207F610020BD
:10044000044B05491B7848700B7002225420FFF7BB
:10045000ADBF00BF906700207F610020044B0549BD
:100460001B7848700B7002225720FFF79FBF00BF18
:100470002E6200207F6100200C4A0D4B12781A700A
:100480000C4A5870127872B169B1023301F11C0242
:1004900051F8040B43F8040B9142F9D11E22044990
:1004A0004720FFF783BF0222F9E700BF98670020CB
:1004B0007F6100202C6200200C4A0D4B12781A70CC
:1004C0000C4A5870127872B169B1023301F11C0202
:1004D00051F8040B43F8040B9142F9D11E22044950
:1004E0004F20FFF763BF0222F9E700BF91670020AA
:1004F0007F6100202C6200200C4A0D4B12781A708C
:100500000C4A5870127872B169B1023301F11C02C1
:1005100051F8040B43F8040B9142F9D11E2204490F
:100520004620FFF743BF0222F9E700BF9B67002088
:100530007F6100202C620020044B05491B78487025
:100540000B7002224520FFF731BF00BF2D62002053
:100550007F61002070B41C4B02781A701B4B1C4941
:100560001B781C4A0B70127803784B704388047A0E
:10057000022A01BF1B0A8B704388CB7016BF8B7099
:1005800001230023002B0CBFA422A3229442C4BF4A
:10059000C3F1A4020272DA1C047A8C541E1D0025D9
:1005A0003346027AECB2A24207D80B4B08491878BE
:1005B0003244D2B270BCFFF7F9BE4268125D1C44EF
:1005C00001350A55EDE700BF700500208A6700205D
:1005D0007F610020C40000208B6700201FB500232E
:1005E000CDE901330393074B8DF804001B689B6929
:1005F00001A8DB88ADF80630FFF7ACFF05B05DF869
:1006000004FB00BF94670020034B04491B780B7068
:1006100001224220FFF7CABE8F6700207F610020C1
:100620000C4A0D4B12781A700C4A587012787AB135
:1006300071B1023301F11C0251F8040B43F8040BB1
:100640009142F9D11E22064B03491878FFF7AEBE3E
:100650000222F8E78C6700207F6100202C620020D6
:100660008E670020044B05491B7848700B700222EE
:10067000AB20FFF79BBE00BF9C6700207F6100207E
:1006800010B4234C6270234A21701278002A3DD0A6
:10069000002B3BD01A680A21B2FBF1F2120AA270B9
:1006A0001A68B2FBF1F2E2701A7922715A7962711A
:1006B0009A79A271DA79E2711A7A22725A7A62729E
:1006C0009A7AA272DA7AE2721A7B22735A7B627386
:1006D0009A7BA273DA7BE2731A7C22745A7C62746E
:1006E0009A7CA274DA7CE2741A7D22755A7D627556
:1006F0009A7DA275DA7DE2751A7E5B7E227663763C
:100700001A2203495DF8044BFFF750BE0222F8E7B6
:100710007F6100202C6200200B46034902460978C5
:10072000A920FFF7ADBF00BF9A6700200B46034921
:10073000024609781320FFF7A3BF00BF9A67002085
:10074000044B05491B7848700B7002221420FFF7F8
:100750002DBE00BF9C6700207F610020044B05492F
:100760001B7848700B7002221220FFF71FBE00BFDB
:10077000866700207F610020044B05491B78487084
:100780000B7002224820FFF711BE00BF89670020CE
:100790007F610020F0B5494B494E1B68494CDD682C
:1007A000494FA5B0002203A9284608F00BFA0128FA
:1007B00001D025B0F0BD9DF80C30DB2BF2D8D02B4A
:1007C00011D8C32B2CD0C42B30D0C02BEAD19DF82C
:1007D0001430002BE6D0049B002BE3D09DF81500CD
:1007E00006A99847DEE7D13B0A2BDBD801A252F8D5
:1007F00023F000BF95080000A5070000A507000032
:10080000A5070000A5070000A50700006908000073
:10081000A5070000A50700005108000035080000EA
:100820009DF81010294809F0A4FFBBE7284809F0FB
:1008300091FFB7E7274B1B78002BB3D09DF8102012
:1008400020496270237002226320FFF7AFFDA9E701
:10085000214B1B78002BA5D09DF810206270194900
:10086000237002226120F0E73B78002B9AD09DF89C
:1008700014308DF80030BDF815305BBAADF8023099
:100880009DF817308DF80830684606AB0193FFF7E6
:1008900061FE87E73178002984D0BDF81520BDF8C6
:1008A00017309DF81400217052BA5BBA6070A270C4
:1008B0000449E3700422A420C7E700BF9467002026
:1008C000886700207F6100208A670020D404002010
:1008D000DC0400208D67002093670020F0B5194CE0
:1008E00085B006460391154609F03CFBA3780399B1
:1008F000072B23D80133A3706378AA2000FB03479A
:10090000A82D2A46384628BFA8223A71FE70053025
:1009100026F0B0FD63780133DBB2072B88BF0023DC
:10092000637009F02FFB0021074800910068012344
:10093000042208F0F5FE012005B0F0BD09F022FB0D
:100940000020F9E7306200207405002030B4164D15
:10095000164C2D782070022DC8B205BF090A6170AF
:10096000002101210CBFA070607000290CBFA520E0
:10097000A4208342C8BFC1F1A50301F10200C8BF92
:10098000DBB2033123540C44D018824206D11944FF
:10099000CAB230BC05494920FFF7A0BF12F8015B7D
:1009A00004F8015BF1E700BFC40000207F61002074
:1009B00028B100231A4619468120FFF7C7BF7047A8
:1009C0002DE9F04F494B4A4C1B684A4F5E68B7B05F
:1009D00000226946304608F0F5F8012802D037B009
:1009E000BDE8F08F9DF80030812B0CD0822BEFD129
:1009F0009DF80830BDF806109DF804000DF10902BD
:100A0000FFF7A4FFE4E797F800909DF8C4B0BDF8A5
:100A1000CE209DF8CE00BDF8CC309DF8CC1084F8E7
:100A200000B0B9F1020F58D1120A1B0A6270A0700F
:100A3000E37021714FF006089DF8C1002E4BA028ED
:100A400028BFA020C5B208F80350824602460DF127
:100A5000210104EB080026F00DFD1BF008030AEB52
:100A600008003FD0C0F1A8031D2B9DBFC5F1A70A08
:100A7000AAEB080A5FFA8AFA4FF01E0A0AF1FF325F
:100A80002254013001A9204426F0F4FC0AEB0502AF
:100A9000D2B208EB02039DF8D010E154B9F1020F75
:100AA00012D1531C58FA83F39DF8D110E154931CD2
:100AB00058FA83F39DF8D410E154D31CDAB258FAF3
:100AC00083F39DF8D510E15408F101031A44D2B222
:100AD0002146A820FFF702FF7AE76070A1704FF06F
:100AE0000408A9E76A1C2354D2B2D2E79467002015
:100AF0007F610020C40000207E61002008B5131E25
:100B000040F2FF7218BF0A46012101F093FDBDE8D3
:100B100008400220FFF7F2BB034B18780238022886
:100B20008CBF00200120704770050020024B034954
:100B300098780122FFF7E2BF9F67002084670020BA
:100B4000024B034902469878FFF7D8BF9F67002001
:100B50007F61002008B5074B074A9978117003336D
:100B60001A5C064B01201A70FFF7C8FB044B0022E9
:100B70001A7008BD9F6700208B6700208A670020DD
:100B800070050020094B9A7872B1013A9A701A7870
:100B90000132D2B2072A88BF00221A70044B002209
:100BA00001201A70FFF7AABB5A78F6E72C5C0020E8
:100BB00008060020094B9A7872B1013A9A701A78A7
:100BC0000132D2B2072A88BF00221A70044B0022D9
:100BD00001201A70FFF792BB5A78F6E730620020C6
:100BE0000806002030B52E4B2E4D2F4C01221A61E5
:100BF0002E4B85B0187001F05FFF68B3AA1C691C0A
:100C0000284602F009F8AB69019305F1140305F1D8
:100C10000C02A9680093281D2B6902F065F8A01D3D
:100C200002F0C4F8A11C601C02F0F6F8201D02F0CE
:100C300029F9E01D02F058F901211D4803F0A0FB3D
:100C4000A07903F0B9F81B4B1B480122002103F0E7
:100C50005BFA002005B030BD0DF10F0009F091FAEC
:100C60009DF80F30092B03D9A3F12002012A00D8E7
:100C7000A371A07902F080F894F9021094F90100B0
:100C800002F0ACF8AA786978287801F0A5FFB4F9E9
:100C9000040002F0DDF8E07902F00CF9CCE700BFC7
:100CA00000300E4064000020800000208367002098
:100CB00000350A00087502002903000000B58BB05A
:100CC00042238DF80430054B1B680022986801A967
:100CD00009F010FB0BB05DF804FB00BF9467002027
:100CE00000B5BFB009238DF80030094B8DF80A100C
:100CF0001B68ADF80800019218680022694609F0E7
:100D0000F9FAB0FA80F040093FB05DF804FB00BF8B
:100D1000946700202DE9F04F7C4CA378023BCDB0C6
:100D2000EF2B00F2FD80DFE813F0AE09AD08FB0009
:100D3000EA09270A430A330AA508FB00380AFB0020
:100D4000FB00FB00FB008401FB008A01A401EA0117
:100D50008B082D02FB00FB00FB00FB00FB00CE0A12
:100D6000FB00FB00FB003F0359036E03800392036B
:100D7000FB00FB00040BFC03740AE003FB00D00340
:100D8000FB00BE03FB00FB00FB00FB00FB00FB00C5
:100D9000FB00FB00010111015C0166014301060B30
:100DA000FB00FB00EB04FB0068047604FB00670516
:100DB0009B05D6052C062F04FB008B04CC04FB00FE
:100DC0000205FB0000061A054906FB001F041B076D
:100DD000B2064907DD068006FB00FB00FB00FB00B6
:100DE000FB0061056505EE095B078307A107FB00B2
:100DF000620AFB00FB00FB00FB00FB00FB00FB00AA
:100E0000FB00FB00FB00FB00FB00FB00FB00FB000A
:100E1000FB00FB00FB00FB00FB00FB00FB00FB00FA
:100E2000FB00FB00FB00C307FB00FB00FB00FB001B
:100E3000FB00FB00FB00FB00FB00FB00FB00FB00DA
:100E4000FB00FB00FB000A08FB001A085808FB0027
:100E5000FB00FB00FB008D0AFB00FB00FB00FB001E
:100E6000FB00FB00FB004709FB00EE08FB000B0941
:100E70008A096609FB00FB003702FB00A102FB00A8
:100E8000FB00FB00FB00FB00FB00FB00FB00FB008A
:100E9000FB00FB00FB00FB00FB00FB00FB00FB007A
:100EA0004B0A2609FB00FB00FB00FB00FB00FB00DC
:100EB000FB00FB00FB00FB00FB00FB00FB00FB005A
:100EC000FB00FB00FB00FB00FB00520A5B0A620A0E
:100ED000FB00110B330B4D0BF300BC09CA09CE0903
:100EE000D309D809DC09FB00FB00FB00FB00FB0079
:100EF000770A810AE109E609FB00FB00FB00FB0021
:100F0000FB00FB00FB00FB00870400BF9F67002085
:100F100002F0FEF8C34802F077FE002800F08C8053
:100F200001204DB0BDE8F04FFFF7E8B968238DF818
:100F30003830BD4B1B684FF4FA7298680EA909F05F
:100F4000D9F9BA4B01221A7001F063B9B64B1B688C
:100F50001B69D3E90654D3E908019A6AB44B2E0EF3
:100F60001E702E0C5E70DD702E0A250E1D71250C74
:100F70005D71DC71250A040E1C72040C5C72D8725F
:100F8000040A080E1873080C5873D973080A110E56
:100F90001974110C5974110A98739E709D719C728A
:100FA0009974DA7414204DB0BDE8F04FFFF7C8BD56
:100FB0002422002105A8FFF737F95C238DF81430AF
:100FC000994B1B6805A99868002209F093F9D8216C
:100FD0000EA802F0C5F910B1954B0F9A1A600420C3
:100FE000E1E7FFF76BFE934B01221A704DB0BDE8AD
:100FF000F04FFFF79BBD8C4B1B681B69D3E9006565
:10100000D3E90240D3E90412894B370A5E70DD70E0
:101010002E0A5C71250AD871040A5972080A110A4D
:1010200018721F709E701D719C719972DA720C207B
:10103000B9E7E078FFF702F97E4B1870D6E77E4BF0
:10104000E0781B78022B11D1B4F8030040BA80B2CB
:1010500001235A1D7949A25C0A700433002AE15C1D
:10106000774A08BF0022FFF73BFEE5E780B2002386
:10107000EFE7714BE5781B78022B3DD1B4F80350B4
:101080006DBAADB201231A1D6E49A65C6E486F4F52
:101090005A1D14446E4AA82E28BFA8261460DA1CD4
:1010A00032440233525C02703344002A13F8018048
:1010B0004FF0AA024FF000010DF1420008BF0027D7
:1010C000FFF7B2F8324621460DF14200ADF8EC5080
:1010D0008DF8408026F0CEF900220F978DF8382049
:1010E0008DF84160504B1B6818680EA909F002F991
:1010F000B0FA80F040099FE7ADB20023C3E794F84F
:1011000003A0544D1AF805706A1C0AEB070300216E
:1011100013F80280AA1C0AF105099B5C4E4A002BB9
:1011200013700DF142004FF0AA02A1444B4C08BFCE
:101130000024FFF779F81D2200213BA8FFF774F87F
:101140000026F3B2534502D20136412E14D1A82F06
:1011500028BFA8273A4649460DF142008DF8408045
:1011600026F088F903230F948DF838308DF84170FC
:101170002D4B00221B68B7E715F8011B3BA809F0AF
:10118000E0FCDEE745238DF83830274B1B684FF431
:10119000FA7298680EA937E3274BE5781B78267911
:1011A000022B5FD1B4F80350B4F805606DBA76BA7B
:1011B000ADB2B6B25A1DD2B22248A75C03F1080202
:1011C00057FA82F2115C204A1170DA1C57FA82F247
:1011D000063354FA83F4224B12F8008000294FF0B2
:1011E000AA024FF000010DF1420014BF99464FF0E2
:1011F0000009FFF719F8A82F3A4628BFA822CDF812
:101200003C908DF840808DF84120ADF8EC60ADF851
:10121000EE50022321460DF142008DF8383026F0C1
:1012200029F9A5E7D502000094670020C500002039
:101230007F61002084670020C400002086670020B2
:101240005D070000A26700209A6700202D070000BC
:1012500028620020A36700209C670020410700004F
:1012600019070000ADB2B6B20023A3E7DFF8E0A291
:10127000E6789AF80090B9F1020F5CD1B4F80360F7
:1012800076BAB6B20122101DB9F1020F255CAB4946
:1012900006BF6B00DBB22B4602F1020C9C44571DCB
:1012A0001CF8018003321A444344034402EB080C47
:1012B0005B5C1CF801B0A249002B02F103020B7029
:1012C0002744A04B4FF0000108BF002314443BA863
:1012D00040220293FEF7A8FFAA2200210DF142004E
:1012E000FEF7A2FFB9F1020F3DD10022202D28BF49
:1012F000202513469146781CD1B2A9421ED3B9F1DC
:10130000000F06D06A0039463BA8039326F0B2F8D6
:10131000039B8DF82E91002B40D14246A82A029BB8
:101320000F9328BFA8228DF840B08DF84120ADF86A
:101330002C6105236EE7B6B20022A4E717F812C0AD
:1013400010F8121041EA0C21A1F58071B1F5806FFF
:1013500005D3B9F1000F25D101230132CCE70BBB36
:101360004FF00109F9E7402D28BF402501234FF038
:101370000009CEE79AF800200393022A0CBF13F865
:10138000191017F809103BA809F0DBFB039B09F1C2
:1013900001095FFA89F2AA42ECD3BEE74FF00009D7
:1013A0007B1CF6E7002047E6674B1B689969674B93
:1013B0008A68DA70100E1870100C5870100A987045
:1013C0006348CA8800788979022801BF120A1A7115
:1013D000597106201CBF19710520E4E55D49002301
:1013E0000B702378052B7FF601AEE378207900EBB4
:1013F0000320012280B201F0A7FB00287FF4F6ADA4
:10140000544B0022F1E5534D00232B702378062B1B
:101410007FF6ECADE37820794F4900EB0320012201
:1014200080B201F0B3FB2870E0E56579E3782079BC
:101430004649A82D28BFA82500EB03202A4680B2E4
:1014400001F082FB002814BF28460020ABE562793A
:10145000A579404E414F05EB0225ADB20023A72DE3
:1014600033700BD83E4B20791F60E37800EB0320EC
:101470002A46394680B201F089FB3070FFF756FBEF
:10148000384A7B5D13703278002A00F0C286002B48
:1014900000F0BF862D49012224200B704DB0BDE81D
:1014A000F04FFEF783BF2549284A11F8030C0023AB
:1014B00003388DF83830C0B20EAB01F04FFE9DF806
:1014C0003800FFF73DFB00F0A4BE224900230B705B
:1014D0002378052B7FF68AADE078637903EB004330
:1014E0002079012203EB002085E72378072B02D81F
:1014F0000025E8B257E5A279E579E07863791349E8
:1015000005EB0225ADB2A82D03EB0043207928BFDF
:10151000A8252A4603EB002001F016FB0028E7D09F
:10152000E7E723780020042B8DF83800C7D9074A55
:1015300002490EAB02F0E2FAC1E700BFA267002049
:101540009C67002065060000946700207F610020F2
:10155000C400002084670020A4670020A667002044
:101560002862002085670020A94AE3781370A94A01
:101570005321002B11704FF00802A74B8DF8382033
:1015800008BF00230F93F3E5A44BE5781B78022BEB
:1015900030D1B4F803506DBAADB201230433A04A80
:1015A000E35C1370002B4FF024024FF0000105A8FC
:1015B0009C4C08BF0024FEF737FE74238DF81430CE
:1015C000994B06941B68ADF81C509868002205A939
:1015D00008F090FE48B9E1210EA801F0C1FE20B14B
:1015E0009DF83C30002B7FF49BAC00212320FFF7BB
:1015F000C3F895E4ADB20023D0E7884BE0781B78C0
:10160000022B02D1B4F8030040BA80B2874901F03E
:101610002FFF0720C7E4E378854A864C864813707D
:10162000002B08BF002409F08DF81CB18248214628
:1016300009F08CF84423A6E5804B00221A706FE471
:10164000FFF76AFA054600287FF46AAC0120FFF72D
:1016500081FAE478744F04F00F03082B784B1B7861
:101660001ED1002B4FF0240229460EA8754E08BF4C
:101670000026FEF7D9FD744A0F9664238DF83830A2
:101680001368CDF8413053688DF84040CDF84530AF
:101690003B68986800220EA908F02CFE00F0B9BD46
:1016A000002B4FF0240229460EA8664E08BF0026E4
:1016B000FEF7BAFD59238DF838300F968DF840406B
:1016C000E6E7FFF729FA054600287FF429AC012058
:1016D000FFF740FA5A4BE6781B785A4C002B4FF034
:1016E000240229460EA808BF0024FEF79DFD5A23B8
:1016F0008DF838300F948DF840604B4B1B68C8E76D
:10170000FFF70AFA054600287FF40AAC434B1C7821
:10171000A31E5C425C41A01CFFF71CFA4B492B4600
:101720002A46E01C4DB0BDE8F04F02F041BAFFF789
:10173000F3F9054600287FF4F3AB0120FFF70AFA1E
:101740003F4BE6781B783F4C002B4FF02402294694
:101750000EA808BF0024FEF767FD6723C8E73C4ECC
:1017600001203070FFF7F6F93A4808F0FAFF2379C4
:101770001BB13949374808F0F8FF2B4BE5781B6857
:101780009F6894F90330002B10DB43238DF8383029
:1017900023798DF83C50003B18BF012300220EA98D
:1017A00038468DF83D3008F0A5FD1FE42B4B242270
:1017B000002105A81C78803DFEF736FD6523002238
:1017C00005A938468DF814308DF818508DF8194059
:1017D00008F090FD40B9DC210EA801F0C1FD08B170
:1017E0009DF84000307001E40020FBE706238DF8EF
:1017F0003830BDE40723FAE711238DF838300A4B5F
:101800001B68186800220EA908F074FDFFF788BB5A
:101810008C6700208E67002021060000C400002095
:101820008967002079070000946700207F6100200D
:101830008F67002009060000DC04002070050020EE
:101840008A67002055050000A4670020A2670020D9
:1018500084670020D4040020DD0500008367002099
:10186000AE4BE6781B78022B32D1B4F8036076BA1F
:10187000B6B201231A1DAA49A55CAA4F9A1C2A4494
:101880000DF1420012F80180DA1C2A440533525C43
:10189000A549002A0A704FF0AA024FF000011C442B
:1018A00008BF0027FEF7C0FCA82D28BFA8252A46A0
:1018B00021460DF1420025F0DDFD1023ADF8EC606E
:1018C0008DF840800F978DF838308DF841504FE4F7
:1018D000B6B20023CEE7914BE2781978237902293A
:1018E0001FD1B4F80320B4F8053052BA5BBA92B2F3
:1018F0009BB20531C9B28D48615C01700029ADF819
:1019000040208B49ADF842304FF0000208BF002163
:1019100011928DF848200F910E238DF83830FFF783
:10192000E1BB92B29BB20021E3E77C4BE0781B78ED
:101930002279022B21D1B4F80300B4F8052040BA73
:1019400052BA80B292B203F10A01C9B2ADF8422094
:10195000655C7849ADF840000D70591D0933DBB264
:10196000C9B2002DE65C6258734B119208BF002388
:101970000F938DF848600E2339E780B292B20023AE
:10198000E1E7664AE3781278022A14D1B4F803300A
:101990005BBA9BB201220432ADF84030A15C674AC9
:1019A00011700022914266498DF8422008BF11460D
:1019B0000F910F23B1E79BB20022ECE7614B57492F
:1019C000186809788369604D9E78E37800220229BF
:1019D0002A7028D1B4F803305BBA9BB20122002EE2
:1019E0003FF404AB04325949A25C0A70002A5849FA
:1019F000ADF840304FF0000208BF00210E23ADF8D3
:101A0000426011928DF848200F918DF838300068AF
:101A10000EA908F06FFCB0FA80F040092870A27897
:101A20004C4BFFF7E2BA9BB2D9E7464A3B4E1068EF
:101A300036788269444D9178E2780023022E2B702B
:101A400023D1B4F8032052BA92B2012300293FF403
:101A5000CDAA03F109063D4FA65D3E7003F1040CCB
:101A60000833002EE75C3A4BADF8402008BF002356
:101A700054F80C200F930E231192ADF842108DF8FC
:101A800048708DF838300022C1E792B2DEE7234A71
:101A9000E3781278022A22D1B4F803305BBA9BB201
:101AA0000122ADF84030043201238DF842300F237B
:101AB000A25C8DF83830234B24491B680A70002A39
:101AC000234A186808BF00220F920EA9002208F0CE
:101AD00011FC1D4BB0FA80F0400918709FE79BB2D3
:101AE0000022DEE70D4AE3781278022A13D1B4F817
:101AF00003305BBA9BB201220532ADF84030A15CE5
:101B0000154A8DF8421000291170144A08BF0022AE
:101B10000F920D236BE69BB20022EDE7C40000207C
:101B2000A2670020390500002D6200209B6700207D
:101B3000F904000091670020B904000098670020B4
:101B40007904000094670020846700208C670020DF
:101B5000210600008E6700202E6200205D04000038
:101B6000B04AE3781278022A25D1B4F803305BBA80
:101B70009BB20122D11DADF84030655CAA490D70C1
:101B8000111D002D605C02F1050102F10602615C8D
:101B9000A45CA64A8DF8444008BF0022031E18BF6B
:101BA00001238DF842300B1E18BF01238DF84330FE
:101BB0000F920C231BE69BB20022DBE7994B1878AF
:101BC0009B4B1B689B695A8899789A4B022803BFE4
:101BD000120A1A705970197018BF0120FFF7E3B983
:101BE000904AE3781278022A1FD1B4F803305BBA26
:101BF0009BB201220432ADF81830A15C8C4B8E4AA6
:101C00001B6811705D228DF8142005A998680022C8
:101C100008F070FBDA210EA801F0A2FB00283FF4C7
:101C20000BAA9DF83C00FFF707BA9BB20022E1E740
:101C30007C4AE3781278022A16D1B4F8034064BAD9
:101C4000A4B22422002105A8FEF7EEFA4B238DF85A
:101C50001430774BADF81E401B6805A99868002228
:101C600008F048FBCB21D6E79CB2EAE76D4AE3785F
:101C70001278022A19D1B4F803305BBA9BB2012260
:101C80000432ADF818300123A15C8DF81A306B4A8C
:101C9000674B11701B685E228DF8142005A99868A7
:101CA000002208F027FBDB21B5E79BB20022E7E723
:101CB0005C4BE5781B78022B3ED1B4F803506DBA2B
:101CC000ADB201231A1D0533A25CE35C002A14BFE8
:101CD0006FF07F0600262422002B4FF0000105A89C
:101CE00014BF40240024FEF79FFA4C238DF81430D3
:101CF0004F4BADF818501B6805A998682643002281
:101D00008DF81A6008F0F6FACC210EA801F028FB35
:101D100078B1484B0FAA15AD144603CCAC421860FD
:101D20005960224603F10803F6D110681860127951
:101D30001A711D20FFF737B9ADB20023C2E7242284
:101D400000210EA8E478FEF76FFA50238DF83830A2
:101D5000374B8DF83C401B680022FFF71ABA314A16
:101D6000E3781278334E022A33D1B4F803305BBAE9
:101D70009DB2C3F307233370757001242422002120
:101D800005A8FEF751FA51238DF81430284BADF811
:101D90001C501B6804F1020805A9986806EB0807A7
:101DA0000022069708F0A6FACF210EA804F1010937
:101DB00001F0D6FA40B1DDF83D3046F808309DF824
:101DC0003C009DF841303B7106F80900E01DFFF72B
:101DD000EAB89DB233700024D0E7124AE378127853
:101DE000144D022A1AD1B4F803305BBA98B2C3F387
:101DF00007232B7068700121002922780CBF08236B
:101E000009239A4201F1010686BF04310919002114
:101E1000FEF734FAA8550220FFF7C5B898B22B7028
:101E20000021E9E7C4000020906700204104000081
:101E3000946700207F610020936700208D67002059
:101E4000B94DBA4E2B685B691C7901F081F92B689A
:101E5000B74A5B69FF2808BF6324DB7800940C2134
:101E6000304608F05BFE2B685B69DB7933730D202D
:101E7000FFF799B80021AD4A0EAB084601F064FEA9
:101E8000FFF71DBBAB4B94F806B01A889B788DF812
:101E90003A300027A84BDFF8DCA2ADF838200EAEB0
:101EA000B94653F8048B16F8015BD8F8040088F89B
:101EB00000902A4600210293FEF7B6F95D4528BF3F
:101EC0005D46D8F804002A465146013725F0D2FA7B
:101ED000032F029B88F80050E3D1984D2179627955
:101EE000E0786970AA70287000F076FECDE900995C
:101EF0000023A96828791A4600F0AEFE012001F0FF
:101F00003BF8FFF70DB8A3798D4AE7781370002BE3
:101F10004FF0F8024FF000010EA826796579894C40
:101F200008BF0024FEF780F913238DF838300F9492
:101F3000ADF84070ADF842608DF84450FFF718B925
:101F4000814B62791A700021242205A8E578247952
:101F5000FEF76AF953238DF81430734B8DF81C404B
:101F60001B68ADF81E5005A998684FF4FA7208F086
:101F7000C1F9D2214FE6754AE3781278022A18D1C6
:101F8000B4F803305BBA9BB20122511D7048615C0A
:101F9000017004320029A05C6E4AADF8403008BFE1
:101FA00000220B218DF838108DF842000F92FFF7B8
:101FB000DFB89BB20022E8E7674DE3782B802379F6
:101FC0006648003B18BF0123AB706379EB70A379BF
:101FD000E4792B71232C28BF2324232200212C7287
:101FE000FEF722F95E495D48224625F043FA5D4B33
:101FF0001D60FEF795BFE478631EE72B01D900232F
:1020000019E02422002105A8FEF70EF954238DF8CB
:102010001430454BADF818401B6805A998684FF47B
:10202000FA7208F067F9D3210EA801F099F9002897
:10203000E5D09DF83C304C4A1370FEF7D7BF242200
:10204000002105A8FEF7F0F855238DF81430364B23
:102050001B6805A998684FF4FA7208F04BF9D4216F
:102060000EA801F07DF900283FF463AE2F4B0FAAB4
:1020700015AD144603CCAC4218605960224603F1FA
:102080000803F6D151E63949284A11F8030C002318
:1020900003388DF83830C0B20EAB01F00DFCFFF7FD
:1020A0000EBA3249214A11F8030C002303388DF887
:1020B0003830C0B20EAB01F03BFCFFF700BA01F0C4
:1020C00059FAFEF7B9BFE07801F070FAFEF7B4BF35
:1020D000E07801F086FAFEF723BF01F09AFAFEF7E6
:1020E000ABBFE07801F0B1FAFEF7A6BFE07800F0F0
:1020F000E1FEFEF7A1BF01F0C7FAFEF79DBF01F0B8
:102100008FF9FEF799BF114AE3781278022A02D1BB
:10211000B4F803305BBA9BB20A22ADF840308DF8B8
:102120003820134BFFF72EBA946700207F61002000
:10213000F37402000275020024750200640000209E
:10214000876700202504000088670020C400002065
:102150009267002009040000B00000204D05002017
:10216000A7670020C000002084670020A26700202D
:10217000B1090000A6670020984A994913680B70BE
:10218000984B18684870E178116022791A6042E62D
:1021900070238DF83830FFF7B0BA9349904A11F8A0
:1021A000030C03380EABC0B201F0E2FBFFF787B9B6
:1021B0008E49282207204DB0BDE8F04FFEF79EBCA7
:1021C0008B4B1B685B69DA798A4BFEF70EBF0124E3
:1021D000894B8A481C70214604F0F0F9FEF7A0BE36
:1021E0008648002104F0EAF9834BFFF726BA57230B
:1021F0008DF83830E3788DF83C307D4B1B68002239
:1022000098680EA908F076F87A4B01221A70FEF74A
:102210008DFC4DB0BDE8F08F0023714972488DF8F8
:1022200038300EAA00F0D2FBFEF78BBE00236C49BB
:102230006D488DF838300EAA00F0D2FB0120FEF771
:102240005DF8E6E72278032AE3D9E178E9B10129CC
:102250004FF000037FF4EFAE052A32D9217963797C
:10226000062A03EB01239BB22BD0A079A72828BF15
:10227000A7205B4900220D46904214D99C18A4B2B5
:102280000132247801F8014FF6E7042A10D0052A1C
:1022900021790DD06079A72828BFA720504A0023B4
:1022A0001546984206D828700130C0B2FEF77BBEB2
:1022B0004020F3E7CC18E4B20133247802F8014F50
:1022C000EFE74020D5E72278E378032A2AD94BB3F9
:1022D000202B28BF20231C46414E002524222946BE
:1022E0003570757005A8FDF79FFF40238DF81430F9
:1022F0003F4B8DF818401B682A46986805A907F0DF
:10230000F9FF68B9C1210EA801F02AF840B19DF883
:102310003C400DF13D012246B01C25F0ABF81CB944
:102320000220C2E70224D7E7012333707470A01C97
:10233000BBE771232DE72C49294A11F8030C033818
:102340000EABC0B201F083FCFFF7B9B82422002124
:1023500005A8E478FDF768FF69238DF81430244B55
:1023600006941B680022986805A907F0C3FF00289F
:102370007FF445AEDD210EA800F0F2FF00283FF407
:102380003EAE9DF84030002B3FF439AE012352E6BB
:102390006568E378A6682DBA7BB91948294600F02C
:1023A000D7FD002D3EF4BCAD31BA002E3EF4B8ADE1
:1023B000144800F099FEFEF7B3BD012BF1D112488D
:1023C0002946ECE7E37823B90D4800F0C3FDFEF79A
:1023D000A7BD012B7EF4A4AD0B48F6E7C800002092
:1023E0007F610020CC000020A26700208800002030
:1023F00094670020846700202F62002000200540A1
:10240000E405002084050020C005002070B5584B6D
:102410001C78052C3CD8DFE804F0033D6C688597F8
:1024200000F098FA534B544901221A70534A544B06
:1024300012781A70534A12785A700A789A704A7849
:10244000DA708A781A710A795A7152B18968981DBE
:1024500001390134E4B211F8015F00F8015BA242D6
:10246000F7D149488079911DA0F109046042C9B2B1
:10247000604107325854D2B241490A20FDF796FF15
:10248000424A4348002100F0B9FD0120FDF7D6FE85
:1024900001200EE03F4A917879B11378AA2101FB1F
:1024A000032002460379C0780532002100F0C2F80B
:1024B0000420BDE87040FDF721BF374883786BB139
:1024C0000278AA2303FB0205052413FB02420244FF
:1024D0002B79E87800F0AEF82046EAE7012000F01A
:1024E0001FF9012842D10320E3E7BDE87040FEF761
:1024F00011BC002000F014F9022803D1274B002260
:102500001A70C5E7052831D1244A1378591C022BCB
:102510001170F3D80023BDE870401A4619461846DA
:1025200000F088B8002000F0FBF8022803D1BDE8D5
:102530007040FEF727BB052818D1184A1378591C9C
:10254000022B1170E6D9F2E7002000F0E9F802282A
:1025500003D1BDE87040FEF72DBB052806D10F4A18
:102560001378591C022B1170D4D9F2E770BD00BF4B
:10257000C50000202C62002064000020836700203A
:102580007F6100202F6200208000002039020000BF
:10259000840500202C5C002030620020080600200A
:1025A000032000F0D8BF0000024B012204201A7063
:1025B00000F0D1BF89060020024B012204201A70CE
:1025C00000F0C9BF4806002008B501F0DBF820B1D3
:1025D000BDE80840032000F0BEBF08BD13B50F4B97
:1025E000044619680E48019107F042FF019988B12D
:1025F0000B4807F00AFF0B4B0B4900221A700B4ADD
:102600001378CC5401331370094B187844401C7074
:1026100002B010BD024807F0B9FEECE7CC00002084
:102620008C060020890600209F6700205368002048
:102630009D6700202DE9F84F82462D482D4E2E4DE6
:10264000DFF8D8802D4F14469B46894607F0F3FEED
:102650002B4807F0F0FE2B4807F0EDFE2A4A002336
:1026600013702A4A137034B1346085F800B088F8CA
:1026700000A087F80090012001F0E4F828780330EA
:10268000C0B201F0DFF838782C7801F0DBF898F868
:1026900000003F7801F0D6F898F800303068033435
:1026A000E4B25F407C40E443E4B240B1297801F0F9
:1026B000CFF83268297800230AB1994214D8144916
:1026C000012001F0D3F8204601F0BCF8114B0C4872
:1026D00001221A70104B196807F058FEBDE8F84F38
:1026E0000848FA2107F052BED05C01334440E3E7CA
:1026F0008C060020C8060020CD060020CE06002053
:102700004C0600200C060020890600204806002008
:10271000A125000009060020C8000020CC060020EA
:102720002DE9F3417D4C7E4F064601F02BF8C0B9F0
:102730007C4B1D7835B17C4A15781DB11070207026
:1027400018700425764A1378002B00F0A78077498B
:102750000B78002B00F0A28000230B702370137005
:102760003EE00DF1070001F07EF82378052B00F222
:10277000A680DFE803F00340555B6D7F9DF80750AE
:10278000012D13D1684B6A484FF0000883F8008090
:10279000684B196807F0FAFD674B2570FF221A7025
:1027A000664B83F800805F4B1D70BEE73B78CBB172
:1027B000062D01D0152DB8D15C4A61480023137055
:1027C000594A3B70137007F036FE594807F033FE44
:1027D0005C4807F030FE062D00F08180152DA4D155
:1027E00005255BE0514A5648137007F024FE554812
:1027F00007F021FE99E79DF80700C31EDBB2B12B5D
:1028000009D9484B4A4800251D70257007F013FE72
:10281000454B1D7089E702232370FFF7DFFE84E735
:102820009DF807000128ECD80323F5E79DF8070081
:10283000FFF7D4FE444B454A1B78032B04D9033BD6
:1028400013700423237070E7012313700523F9E745
:102850003E4A9DF807001378013B1370FFF7BEFE58
:10286000364B1B78B32BF1D8374A12789A423FF691
:102870005CAFEBE72E4807F0DEFD2B4A0023137018
:10288000284A23701370B6B12B4B9DF807201B7894
:102890009A420BD1062000F0D5FF01252378052BA5
:1028A00028D8DFE803F01E2B2E313331152000F03D
:1028B000C9FF0325F2E7182000F0C4FF35E7194AE5
:1028C0001F4800231370194A23701370164A13709F
:1028D00007F0B1FD1B4807F0AEFD154888E702255B
:1028E000DCE70F4B1A491B780BB1012000E00420F4
:1028F00000F0BCFF284602B0BDE8F0811449032077
:10290000F6E713490220F3E71149EEE70F4B1049B0
:102910001878C82828BFC820EAE700BF9E670020B3
:1029200009060020880600208906002048060020AD
:102930008C060020CC0000209D67002053680020FA
:102940004C0600200C0600209F670020C6000020D7
:10295000A125000010B5144C00F0BCFE134A002164
:10296000204600F031FB2046114C07F064FD114A6F
:102970000021204600F028FB20460F4C07F05BFDAD
:102980000E4A0121204600F01FFB204607F053FDB0
:102990000B4A0C49002313700B4A1370BDE810401A
:1029A000042000F063BF00BF4C060020B9250000E2
:1029B0008C060020A92500000C060020C925000077
:1029C00053680020A12500009E67002003785A1E4E
:1029D00053425341014A1370704700BFCF06002095
:1029E0000B4A127803468AB11A7840789978012AFE
:1029F00002D0052A06D07047DB780BB901F0B2B9D6
:102A000001F0BAB90023042201F0AAB9704700BF4F
:102A1000CF06002007B5014601AB6A46044805F021
:102A200051FBB0FA80F0400903B05DF804FB00BF31
:102A30005868002030B51F4DADF5217D002401AA56
:102A4000032366212846ADF804408DF8064005F0C2
:102A50004DFA6C231A46214605A8FDF7E5FB05AAA9
:102A60006C236721284605F041FA4FF400731A469B
:102A7000214620A8FDF7D8FB20AA4FF40073C821F7
:102A8000284605F033FA03AA062368212846039452
:102A9000ADF8104005F02AFA4FF4E223029302AA9F
:102AA00004234FF4A221284605F020FA0DF5217DDC
:102AB00030BD00BF5868002010B5204B2048196871
:102AC00086B005F02DF904231D480DEB03024FF4E9
:102AD000A22105F055FA044658BB00F033FB019BD8
:102AE000984224D0174A934216D803AB02AA682111
:102AF000134805F0E7FA039B114804AA682105F082
:102B00003FFA8C23ADF814300D488DF8134006239E
:102B100004AA682105F0EAF900F014FB04230190EF
:102B20000DEB030206484FF4A22105F0DFF9012066
:102B300002E0FFF77FFF002006B010BDD0000020AC
:102B400058680020020F070070B50546ADF5007DFE
:102B5000C8200C461646FFF75DFF18B900200DF59A
:102B6000007D70BD08484FF400736A46C82105F027
:102B700007FA0028F2D132460DEB0501204624F079
:102B800079FC0120EBE700BF5868002070B5ADF577
:102B9000007D04460D4616460E484FF400736A4603
:102BA000C82105F0EDF990B9324629460DEB040035
:102BB00024F060FC07484FF400736A46C82105F012
:102BC00095F9B0FA80F040090DF5007D70BD002048
:102BD000FAE700BF5868002073B5032306460D4688
:102BE00014460C4801AA662105F0CAF980B90948C3
:102BF0008DF80460032301AA66218DF805508DF835
:102C0000064005F073F9B0FA80F0400902B070BDDB
:102C10000020FBE75868002073B5064666200D4685
:102C20001446FFF7F7FE10B9002002B070BD094846
:102C3000032301AA662105F0A3F90028F4D19DF829
:102C4000043033709DF805302B709DF806302370EA
:102C50000120EAE7586800202DE9F0439DB00446C2
:102C60000F46164698461F489DF89090259D6C2368
:102C700001AA672105F084F988BB8DF804408DF81E
:102C800028608DF84C9001AB0246C1B28C4286BFE1
:102C900017F800C083F801C05A708E4286BF18F83A
:102CA00000C083F825C083F82520894584BF295CAE
:102CB00083F8491000F1010098BF83F849202328C8
:102CC00003F10103E1D107486C2301AA672105F054
:102CD0000DF9B0FA80F040091DB0BDE8F083002086
:102CE000FAE700BF586800202DE9F04705469CB080
:102CF0006720DDE9249A0E4617469846FFF78AFEBC
:102D000018B900201CB0BDE8F0871A486C2301AA4E
:102D1000672105F035F90028F3D19DF804302B70B8
:102D20009DF828303B709DF84C3089F8003001AC9C
:102D300003462978C2B2914286BF61783154335438
:102D40003978914286BF94F8251008F8001008F8E9
:102D5000003099F80010914286BF94F849200AF893
:102D600000200AF800300130232804F10104E0D1EA
:102D70000120C7E75868002013B5062304466A46B9
:102D80000948682105F0FCF860B907488DF8004053
:102D900006236A46682105F0A9F8B0FA80F04009D8
:102DA00002B010BD0020FBE75868002013B50446B0
:102DB0006820FFF72FFE10B9002002B010BD0648B2
:102DC00006236A46682105F0DBF80028F4D19DF857
:102DD000003023700120F0E75868002037B5062343
:102DE00005460C460B486A46682105F0C9F870B9DB
:102DF00008488DF8015006236A4668218DF8024084
:102E000005F074F8B0FA80F0400903B030BD00203E
:102E1000FBE700BF5868002037B5054668200C4620
:102E2000FFF7F8FD10B9002003B030BD07480623B6
:102E30006A46682105F0A4F80028F4D19DF8013015
:102E40002B709DF8023023700120EDE758680020B8
:102E500013B5062304466A460948682105F090F830
:102E600060B90748ADF8044006236A46682105F0BA
:102E70003DF8B0FA80F0400902B010BD0020FBE739
:102E80005868002013B504466820FFF7C3FD10B949
:102E9000002002B010BD064806236A46682105F0EE
:102EA0006FF80028F4D1BDF8043023800120F0E74A
:102EB0005868002013B5062304466A46094868216D
:102EC00005F05EF860B907488DF8034006236A46AE
:102ED000682105F00BF8B0FA80F0400902B010BD8F
:102EE0000020FBE75868002013B504466820FFF770
:102EF00091FD10B9002002B010BD064806236A46B5
:102F0000682105F03DF80028F4D19DF803302370C6
:102F10000120F0E758680020034B1860034B19604C
:102F2000034B1A60704700BF2007002024070020D1
:102F300028070020014B1868704700BF20070020B9
:102F4000014B1868704700BF2407002007F01EB926
:102F500007F044B907F08EB900B58BB06E238DF839
:102F600004300290FFF7ECFF002201A9806807F00F
:102F7000C1F90BB05DF804FB00B58BB062238DF88E
:102F800004308DF80800FFF7DBFF002201A98068FC
:102F900007F0B0F90BB05DF804FB08B506F0BCF81B
:102FA000BDE808400146102007F0C5BD07B503463F
:102FB0000448009100F12C020C2107F099FA03B0AB
:102FC0005DF804FB2C07002038B50B4D1346044672
:102FD0000A460146284607F0C7FA022808D048B931
:102FE00094F82C30EA181A3382F85C0045F8230074
:102FF000012038BD0020FCE72C07002070B500231D
:103000000446144815461A4610F8016B06B1013201
:1030100001330C2BF8D1052A01D9002070BD0A46D6
:103020000D4B0E48214607F09FFA0028F5D10C4EB3
:10303000337823B90B48FFF78FFF0123337094F8DF
:103040002C30064AD1181A33012042F8235081F857
:103050005C00E3E788070020C53000002C07002053
:10306000C40700209B2F0000014807F04FBA00BFA3
:103070002C0700202DE9F74306F04EF801460646DE
:1030800011200F4D07F057FDA5F15C04A5F12C08A8
:1030900012274FF0FF3915F8013B5BB101AA314609
:1030A000E06ACDF8049007F0F4F93846019907F08A
:1030B00042FD013704344445EDD103B0BDE8F0834F
:1030C0008807002010B50446FFF7D4FF94F82C3091
:1030D000044A1A3352F823301BB12046BDE8104091
:1030E000184710BD2C07002007B507F04FF90190D5
:1030F000FFF7C0FF019803B05DF804FB07B507F0C8
:103100009AF90190FFF7B6FF019803B05DF804FB50
:10311000F8B50B4C0025A4F13006A4F15C073B7F09
:10312000AB4200D8F8BD14F8013B56F8040B1BB1B4
:10313000FFF7E4FF0135F2E707F07DF9FAE700BF9A
:1031400088070020014B186A704700BF48750200CD
:10315000014B93F822007047487502002DE9F047B3
:1031600098460023137053709370D3700C78BAB0E4
:103170000E461546032C47D8DFE814F0040048003B
:103180008B00D100DFF8D49199F80030032B7AD16D
:103190006E4E6F4F33683A68D3F800A054685B688E
:1031A00024221C440DEB02000021FDF73DF8A4B2DF
:1031B0006A2368488DF824300021CDE90AA403F081
:1031C000FDF909A800F048F90446D8B9DE2119A88C
:1031D00000F0C6F8B0B19DF868309BB15E4804F0CD
:1031E0006FFE3B6832685B68526889F800401344A0
:1031F000C3F30723AB703B6832685B6852681344C3
:10320000EB7040E001232B7000243CE0534B1A7814
:10321000012A01D90223F6E701221A704B4BF778F5
:103220001A684C781368897852681F4407EB0127A5
:10323000474909684868402C104428BF4024421E72
:10324000E1191A44914204D31C18E41BFF23E4B291
:103250002B706C70B378AB70F378EB702422002184
:103260000DEB0200FCF7E0FF04356B2309A8CDE964
:103270000A748DF824300C9500F0EEF818B9DE21B0
:1032800019A800F06DF8043488F800403AB0BDE8A1
:10329000F087324B1C7814F0FD04BBD191F80190FB
:1032A0000222B9F1400F1A70ACD8284BF7781A688F
:1032B000B3781168526807EB0327254B1B685B68DE
:1032C00013440F445A1E09EB07000A44904205D3E9
:1032D0001944C91BFF235FFA81F92B700DF1240AF1
:1032E0004A46311D504624F0C5F824220021684684
:1032F000FCF79AFF6C236846CDE901798DF8003020
:10330000CDF80CA000F0A8F818B9DE2119A800F03B
:1033100027F885F80190B378AB70F37870E70F4E1B
:103320003378032B3FF470AF2422002119A8FCF757
:103330007BFF6D2319A88DF8643000F08DF80446EA
:1033400000287FF45FAF032333709CE7D000002098
:103350000C0100200020054058680020D400002007
:103360002DE9F7430F460646FFF7EAFD0446FFF74F
:10337000E1FDD4F80C9080466424484605F010FD29
:103380000546A5B90A20013C05F0D2FF14F0FF0460
:10339000F3D1B8F1000F06D0009401230222214698
:1033A000404606F0BDF9204603B0BDE8F083002298
:1033B0003146484605F006FCA0B13378BB420BD13C
:1033C000B8F1000F06D000210091012302224046EF
:1033D00006F0A6F90124E6E700231A4631464846DE
:1033E00005F039FB013DCCE710B5AAB0FFF7A8FD09
:1033F0000446242200216846FCF716FF582369463C
:10340000A0688DF800304FF4FA7206F073FFD621F1
:1034100009A8FFF7A5FF08B19DF828002AB010BD44
:1034200010B5AAB0FFF78CFD04462422002168469F
:10343000FCF7FAFE56236946A0688DF800304FF479
:10344000FA7206F057FFD52109A8FFF789FF08B1E6
:103450009DF828002AB010BD07B50190FFF770FD58
:1034600001998068002203B05DF804EB06F042BFCA
:1034700070B5AAB005460C46FFF762FD0646242249
:1034800000216846FCF7D0FE41236946B0688DF8FC
:1034900000300022ADF8045006F02CFFC22109A82C
:1034A000FFF75EFF60B1BDF82830AB4208D1DDF810
:1034B0002A302360BDF82E30A3809DF83030A371F0
:1034C0002AB070BD30B5ABB00446FFF739FD0546F4
:1034D000242200216846FCF7A7FE73236946A868EA
:1034E0008DF80030002206F005FFE02109A8FFF763
:1034F00037FF78B10AAA234610AD144603CCAC427C
:1035000018605960224603F10803F6D1206818605C
:1035100022791A712BB030BD30B5ABB00446FFF73D
:103520000FFD0546242200216846FCF77DFE762328
:103530006946A8688DF80030002206F0DBFEE32122
:1035400009A8FFF70DFF20B180220AA9204623F029
:1035500091FF2BB030BD13B50446FFF7EBFC38B13B
:1035600000210123CDE9001103FA04F206F048F925
:1035700002B010BD10B5AAB0FFF7E2FC0446242249
:1035800000216846FCF750FE77236946A0688DF855
:1035900000304FF4FA7206F0ADFEE42109A8FFF7FF
:1035A000DFFE08B19DF828002AB010BD30B58BB001
:1035B0000546FFF7C5FC04462422002101A8FCF7BC
:1035C00033FE7823A0688DF804304FF4FA7201A915
:1035D0008DF8085006F08EFEB0FA80F040090BB06E
:1035E00030BD30B58BB00546FFF7AAFC0446242257
:1035F000002101A8FCF718FE7923A0688DF804309B
:103600004FF4FA7201A98DF8085006F073FE0BB062
:1036100030BD10B5AAB0FFF793FC04462422002168
:103620006846FCF701FE7A236946A0688DF80030F1
:103630004FF4FA7206F05EFEE52109A8FFF790FE4E
:1036400008B19DF828002AB010BD30B5ABB00546D2
:10365000FFF776FC0446242200216846FCF7E4FDCF
:103660007B236946A0688DF800304FF4FA728DF81C
:10367000045006F03FFEE62109A8FFF771FE08B1ED
:103680009DF828002BB030BD10B5AAB0FFF758FC4C
:103690000446242200216846FCF7C6FD7C236946C7
:1036A000A0688DF800304FF4FA7206F023FEE7218F
:1036B00009A8FFF755FE08B19DF828002AB010BDF3
:1036C00007207047024B4FF0FF329A66704700BFE9
:1036D00000200E4030B585B000244FF4402321482F
:1036E00000930121CDE90144039400F049FE1E48F6
:1036F0001E4D012100F044FE01214FF4AA4000F0CC
:103700003FFE214620460123042201F067FF0123EA
:103710001A461946204601F061FF01230422204683
:10372000052101F05BFF1249284602F025F803232A
:10373000AC676B67EB6C0F4843F00403EB640E4B14
:10374000802283F80C234FF480521A600B4B1C60CC
:1037500002F06EF80A4A6946204602F093F805B076
:1037600030BD00BF00350A000032040000000140F7
:10377000B8750200B475020000E100E0980800206E
:10378000A4750200074BD3F89400074BC01A074BEF
:103790001B68834204D0A0EB030002D3C8307047FB
:1037A0000020704700200E40D0070020980800201D
:1037B00038B50B4B0B4D04229A6401F011FA044604
:1037C000FFF7E0FF2B68834205D8074B1B6813B156
:1037D000984700232B602046BDE8384001F004BA2A
:1037E00000000140C8070020CC070020F8B5124CAB
:1037F0000246FFF7C7FF88420AD31048104E0368FD
:1038000055180024AA420DD104B103600846F8BD42
:10381000BFF34F8F236923F00403236130BFBFF34D
:103820006F8FE6E7F75C02F8017B5C1CC72B14BFC7
:10383000234600230124E5E700ED00E0980800207E
:10384000D00700200146014801F0CEBF0000014032
:1038500038B504464518AC4200D138BD14F8010B08
:10386000FFF7F0FFF7E70121FFF7C0BFF8B50C46FF
:10387000054601F0B5F90A4B0A4F1C600646FFF7F2
:1038800081FF50B1A84208D33CB1A04700233B6060
:103890003046BDE8F84001F0A7B93D60F8E700BF49
:1038A000CC070020C8070020024B186900F0200058
:1038B000704700BF0000014070B51D4605232B7006
:1038C00000260923137056701446FFF7F9FE0728E7
:1038D00021D1FFF789FD18B9637843F004036370C1
:1038E000FFF79EFDC30642BF637843F00803637091
:1038F0001D22E31C1846A2700021FCF795FCFFF77F
:10390000E1FD072384F82030002384F821302B7850
:103910001D332B7070BDFFF7D3FE0328FAD16378F7
:10392000A67043F0010363700723E3702671F1E78B
:1039300070B50E4614461D46FFF7C2FE072815D186
:1039400036788323032E2B70334628BF03230021B0
:1039500063708025E31C21702A461846FCF764FC3E
:10396000A5701EB9BDE87040FFF7D6BD70BD000060
:1039700070B514468AB01D4620B9012310702B7013
:103980000AB070BD0A782270112A0ED8A2B1531E57
:10399000102B11D8DFE803F0143B9D66A5101079B9
:1039A00010101010101010868B00402A48D0802A6A
:1039B00000F08280202A37D0002323700B783DE06E
:1039C000FE2363702022002102A8FCF72DFC0123B6
:1039D0008DF8093003228DF80C308DF810308DF8F9
:1039E00018303E238DF808308DF80A2002AB0234DF
:1039F00006AE1A4603CAB24220606160134604F163
:103A00000804F6D11378237013222A70B8E701282E
:103A100008D04B783749003B18BF01230B700123B6
:103A20006370F2E70023FBE70DF10600FFF7BEF934
:103A300010B9FE238DF806309DF8063063700FE054
:103A4000012801D100200AE048788DF806000928F5
:103A500003D9A0F12003012BF4D8FFF78DF9607092
:103A60000222D2E70228EDD9487800F16303DBB2E5
:103A7000C62BE7D891F9021011F1630FE2DB63293D
:103A8000E0DC40B2FFF7AAF9E9E702A90DF107006F
:103A9000FFF7C2F99DF8073063709DF80830A370F6
:103AA0000322B2E7FFF74CFA83699B89C6E7FFF769
:103AB00047FAC3691B88C1E701230F4A9842137074
:103AC00005D04978481E984201D81170B6E7002306
:103AD000B4E70228B6D9B1F80100C0BAFFF7B8F9C7
:103AE000BDE702A8FFF7CEF99DF90920BDF908301E
:103AF0006270D4E72C620020C400002038B51D4657
:103B00000B784C78232B104609D1202C28BF202479
:103B1000224643F2CC3106F01CFB2C7038BD432BFF
:103B200006D1202C28BF2024224643F2AC31F2E7F4
:103B3000702B06D1012C4FF0FF0328BF0124137016
:103B4000EBE70024E9E70000F0B5144685B0174A1A
:103B50006E461F4602F1100C354610685168334618
:103B600003C3083262451E46F7D1FFF7E9F94369FE
:103B70009B7923704369DB78637043691B79A37079
:103B800043695B79E37002232371A62363710634D2
:103B900004AB2A4603CA9A4220606160154604F1CC
:103BA0000804F6D116233B7005B0F0BDD4750200B1
:103BB000F0B58BB00D46FFF7C3F9124B1B78022B03
:103BC00007461BD1B5F8014064BAA4B201262422ED
:103BD000002101A80236FCF727FB72238DF8043080
:103BE000AB5D0293B8682B788DF80C30002201A9E8
:103BF000ADF80E4006F07EFB0BB0F0BD6C780026F1
:103C0000E5E700BFC400002030B5ABB00546FFF7C4
:103C100097F90446242200216846FCF705FB75232A
:103C2000A0688DF8003000226946019506F062FB1D
:103C300058B9E22109A8FFF793FB20B19DF82800AD
:103C4000003818BF01202BB030BD0020FBE770B555
:103C50008AB00C4616460021242201A81D46FCF716
:103C6000E3FA63238DF8043023788DF8083001A837
:103C700063788DF80930FFF7EFFBB0FA80F0400968
:103C8000012330702B700AB070BD000006289FBF62
:103C900018235843034B185C88BF002000F0010034
:103CA000704700BF1C76020008B50246FFF7EEFF22
:103CB00020B1034B182000FB0230007A08BD00BF82
:103CC0001C76020008B50246FFF7E0FF20B1034B67
:103CD000182000FB0230C06808BD00BF1C7602003F
:103CE00008B50246FFF7D2FF28B1044B182000FBAD
:103CF0000230006908BD0120FCE700BF1C7602000D
:103D0000062870B5054618D81823124A4343D35CD9
:103D10009BB1FFF7C9FF04462846FFF7D3FF0646CD
:103D20002846FFF7DDFF49B901280BD1012000FA31
:103D300006F6094B302044431E5170BD012901D1C4
:103D40000028F3D0012000FA06F63020034B44434C
:103D5000F2E700BF1C7602000CA000460CA0004455
:103D600001F03CBC012303FA01F130235843014B1D
:103D7000195070470CA00044012303FA01F13023CD
:103D80005843014B195070470CA0004608B501215B
:103D90000846FFF7B5FF00210220FFF7B1FF012021
:103DA000FFF7AEFF01210220FFF7AAFF014B013B05
:103DB000FDD1ECE740420F000120704770B5094E7D
:103DC0000446012504B970BD94FAA4F0B0FA80F05D
:103DD00005FA00F324EA030456F82030002BF1D052
:103DE0009847EFE79C080020074BD3F82804D3F846
:103DF0001C24104020F42A5020F02A004004400CDB
:103E0000C3F82404FFF7DABF00A00040074BD3F843
:103E10002804D3F81C24104020F4AA4020F05500B8
:103E20000004000CC3F82404FFF7C8BF00A0004042
:103E300008B50346994208460AD9114B00221A7068
:103E400002280CD107F008F8BDE8084006F03EBC97
:103E50000129F5D8012BF3D9094B0122EFE70DD940
:103E600006F0FAFF02F0D0FA0146052006F082FAC9
:103E700006F042FCBDE8084001F09EB808BD00BF56
:103E8000281B002038B504460E480F4D036813F078
:103E9000010303D0002102F091FB0123B4F57A6FF6
:103EA0002B700ED8094B01251D7000F099FE294694
:103EB0000446022001F0A4FF2046BDE8384000F08F
:103EC00093BE38BD0020054068230020661B0020FB
:103ED00038B5104D2B785BB100F082FE002104460E
:103EE000022001F08DFF204600F07EFE00232B70A3
:103EF000094B1B781BB10948012102F05FFB084CFC
:103F000023780BB106F0F0FB2078BDE8384006F0CE
:103F1000B7BF00BF661B00206823002000200540BB
:103F2000281B00202DE9F041624CDFF8D481616844
:103F3000614E8AB00546206807AA03C20023A06824
:103F40001060ADF814300124022788F80030337077
:103F50008DF816308DF810308DF8113005A820231B
:103F60008DF818308DF819708DF817408DF81540C0
:103F700001F0B2F804A88DF8117001F09BF8214609
:103F80004E4800F0FDF94E4B59884FF20F02914216
:103F900004BF4CF23C325A80E90705F480377DD4E7
:103FA00015F01C047ED1EA0579D46B057CD415F498
:103FB00000657BD1002F7BD0424BD3F81C341B0C07
:103FC0001B04002B66D088F8005004243E48DFF81C
:103FD0003481012100F0D4F93C48032100F0E4FCD5
:103FE000002301253A488DF81C3007A90C238DF8D1
:103FF00024308DF8235002F003FB06F023FB2A4601
:104000002946284600F05CFC29462F4800F0B8F904
:1040100002F0FAF92F4BC8F80000E02283F81F23C2
:1040200002F0FEF801F0BCFE2B492C4801F050FFD5
:104030002B4BDD6387B12B4D0520294606F08AF90D
:10404000D8F800302868834298BF03F1FF33181A6C
:1040500002F006FA244B1860244D2C730DF06EFD0F
:104060002046FCF7BFFD01280CD0214B0293214BC9
:10407000019304230093204920482B464FF490627B
:1040800004F03EFF0123337005F002F800200AB06F
:10409000BDE8F081012488F8004097E7052406F088
:1040A00051F993E70924FAE70724F8E70324F6E730
:1040B000FF24F4E7CC760200651B002000350A00DF
:1040C0000000002000A0004030253E000500240034
:1040D0000020054000E100E0E4000020A868002086
:1040E00000200440DC000020D80000202C1B002011
:1040F000DC1A0020DC080020C4760200A5AE000017
:10410000641B0020E00000200DF06ABD024B187116
:1041100059719A60704700BF2C1B0020014B18603A
:10412000704700BF2C1B0020004870473C1B00203C
:10413000014B1878704700BF651B002000F02CB8B9
:10414000034B0360034B0B604FF4807313607047A5
:104150006C230020681B0020034B0360034B0B60A3
:104160004FF4807313607047B8230020681F00204D
:1041700010B5074C074802F037FA206804F06AF8D7
:1041800020B12068BDE8104004F03EB810BD00BF6B
:104190000801002000200540704700002B4B30B57F
:1041A00001225A641A6887B042F480721A6002A829
:1041B00001F020FB9DF80930012B03D89DF8083051
:1041C000022B0DD9224B4FF41872C3F88C22214ACE
:1041D000C3F89022204AC3F8F022204AC3F8F822FC
:1041E0001F4AD2F8A43143F4F843C2F8A4311D4B5E
:1041F00002AC03F1100518685968224603C208335F
:10420000AB421446F7D1002402A88DF8094001F012
:104210003FF901F09BFB01F087FB134A136823F47D
:10422000E06343F40073136001F01EFA019001F0A3
:1042300015FA074A136A43F48033136201F0A4FCB1
:104240000198FFF76FFE204607B030BD00000E401A
:1042500000400E409A6F05001801000400843208E7
:1042600000300E40D876020000500E400C4B9842B1
:1042700010D90C4B984210D9022201230A490B6431
:104280000A49D1F8003123F0807343EA0263C1F890
:104290000031704700221346F0E70122FBE700BF20
:1042A0000048E8010090D0030000C84300400E40E1
:1042B0000F4B5B680F4B30B500221C46C9B21D790D
:1042C0008D4202D11D6885420DD20132052A03F1CB
:1042D0000803F4D1032206494B6823F0407343EAF4
:1042E00002634B6030BD04EBC2025279F3E700BFBA
:1042F00000000E401477020038B5074C41F67133C8
:10430000256C236401F07AFB0021FFF7D1FF0DB18A
:104310000023236438BD00BF00000E40044BDB6B5C
:104320005B0604D4034AD2F8C830002BFBD1704797
:1043300000300E400000C64308B5FFF7EFFF024B08
:104340005868C0F3014008BD00300E40044BD3F85C
:104350004421D20703D4D3F840211042FBD1704747
:1043600000400E4038B5054C41F67133256C23648E
:10437000FFF79EFF0DB10023236438BD00000E40FF
:1043800038B5C0F30323013B092B16D8DFE803F04F
:104390002616151505191C151F23124C0023C0F3F2
:1043A000043513B11846FFF7D1FF04F1424404F578
:1043B000801405EBC404A400216038BD0A4C00231E
:1043C000EDE70A4C0123EAE7094C1023E7E7094C23
:1043D0004FF48033E3E7084C0023E0E7074C002369
:1043E000DDE700BFB0400E40C0400E40E0400E4050
:1043F000E8400E40F0400E4050410E4000400E405C
:10440000C0F30313013B092B2AD8DFE803F0050BA7
:104410000F1929291F23374B274BD3F80001C0F36D
:1044200004207047244BD3F81401F8E7224BD3F84B
:104430000001C0F30060431C012098400138704720
:104440001D4BD3F80C01C0F3082070471A4BD3F86A
:104450000801F8E7194B984204D0194B984207D04D
:1044600000207047144BD3F8203103F00F03E3E72B
:10447000114BD3F82031C3F30113DDE7114B984200
:104480000CD003F5B01303F580539842E8D10A4BE2
:10449000D3F82801C0F30120031DCDE7064BD3F864
:1044A0002831E8E7084B9842DAD1034BD3F83001C2
:1044B00000F00300704700BF00400E408006160069
:1044C00080162E0090171A00A009140008B5FFF7F7
:1044D00097FF013008BD000000F00F0001380728E9
:1044E00044D8DFE800F0040F1943232D4335244B53
:1044F000D3F8943003F00703023B052B38D8214A48
:10450000D05C70471E4BD3F8803003F00703013BAB
:10451000032B2FD81C4AF3E7194BD3F8843003F050
:104520000703013B032B25D8184AE9E7144BD3F8BE
:10453000883003F00703013B032B1BD8144ADFE745
:104540000F4B1B6F13F0010F0CBF072009207047A2
:104550000B4BD3F85C3103F03003202B0CD0302B05
:104560000CD0102B14BF012007207047002070478B
:1045700005207047012070470420704708207047CD
:1045800000400E40E8760200EE760200F27602006D
:10459000EE76020008B50146FFF79EFF1A4B9942DE
:1045A00011D01A4B994212D0194B994204D1194B90
:1045B000D3F8800000F007000138032821D8DFE895
:1045C00000F00A0E1612134BD3F88400F2E7114BD9
:1045D000D3F88800EEE7BDE8084001F073BABDE803
:1045E000084001F075BABDE8084001F06EBA01F06C
:1045F00009FA084BD3F80031C3F300630133D84004
:1046000008BD0020FCE700BF0300200005002400D7
:1046100002001E0000400E4000F47813B3F5B01FF6
:1046200010B5044674D025D8B3F5402F5ED010D80D
:10463000B3F5802F49D005D83BB1B3F5003F4FD03B
:10464000002010BDB3F5202FFAD1BDE8104001F0D5
:10465000D9B9B3F5801F00F08480B3F5A01F4DD009
:10466000B3F5602FECD14A48FFF736FF072878D022
:104670000928E9E7B3F5381F53D013D8B3F5001F65
:1046800058D00AD8B3F5D01F56D0B3F5F01FD7D104
:104690004048BDE81040FFF77DBFB3F5101FCFD1F4
:1046A0003D48F6E7B3F5481F4DD0B3F5781F65D008
:1046B000B3F5401FC4D13948FFF76CFF384BD3F82E
:1046C0002831C3F30123043320E001F09BF9344B7C
:1046D000D3F80C31C3F308230133B0FBF3F0B0E798
:1046E00001F090F92E4BD3F80831F3E701F08AF985
:1046F0002B4BD3F81431C3F30423EDE72648FFF71F
:1047000049FF274BD3F8303103F00303D84098E733
:104710002048FFF73FFF224BD3F8203103F00F036F
:10472000F4E71C48FFF736FF1D4BD3F82031C3F3E5
:104730000113EBE71948ACE71848FFF72BFF184BBC
:10474000D3F82831F3E71748FFF7C6FE072808D04B
:10475000082809D004287FF473AFBDE8104001F0A9
:104760008DB9114B18686CE701F04CF90C4BD3F87C
:104770000031C3F3042303FB000062E701F042F9B8
:1047800001462046FFF7A2FEB1FBF0F059E700BF5B
:1047900006000E0002001E00050024000300200099
:1047A00000400E40B8003200EC000020013810B587
:1047B000032812D8DFE800F0022E1220214AC1F3AC
:1047C0000801D2F86838002BFBD11F4A136A23F482
:1047D000FF7323F001031943116210BD194A01F060
:1047E0007F01D2F86038002BFBD1174A136923F000
:1047F0007F0319431161F0E7124A01F07F01D2F8FB
:104800006438002BFBD1104A936923F07F031943CE
:104810009161E2E70C4AD2F89030536A23F03003FA
:1048200043F010035362146B084BC1F3C310033001
:104830000F2803EA040328BF0F20194341EA00713F
:104840001163CAE70020C84300400E4000F8FF0F84
:10485000104A536A13F0300F18D0202913D0302992
:1048600014D000290C4B08BF4FF44003D2F890102D
:1048700033EA0101FAD15B0246BFD2F8A000C0F3CF
:104880008020012070474FF40003EFE74FF440030E
:10489000ECE700BF00400E40FF33E13F02280AD1A1
:1048A00029B1064B4FF48060C3F8A800596612B1D5
:1048B0000220FFF7CDBF0120704700BF00400E402F
:1048C0000428F8B545D8314B314F13F800C0314BAF
:1048D0001B5C002943D0304C022834F8106039D1D9
:1048E0007C6A14F0300F35D12C4CE46B7C6AE40701
:1048F00005D57D6A25F0300545F010057D62244C14
:104900002666274C23449B001D68002DFCD002B373
:104910006444A4002368002BFCD0022819D1C1B143
:104920001B4D696A11F0010116D001222021FFF709
:10493000B5FFD5F89C70012200210220FFF7C0FFCF
:10494000C7F30A010220FFF731FF2E662368002B10
:10495000FCD0F8BD0021D2E7FFF77AFFE9E7114963
:1049600031F810103966012101FA03F3D7F89010DD
:104970001942FBD1002AECD00124054A04FA0CF4B8
:10498000D2F890302342FBD1E3E700BFF676020075
:1049900000400E40FB7602000077020000300E401F
:1049A0008004F2100A770200112838B50C4615D0A1
:1049B00000F00F000138072869D8DFE800F02B0469
:1049C00064686283688E5E4D013C092C5FD8DFE825
:1049D00004F0775F665E5E6D5E5E5E5C042912D1F8
:1049E00001F04CF80546A8B10021284600F030FB44
:1049F000023C0A2C4BD8DFE804F03F3C30364A4AF0
:104A00004A4A4A0F4200052904D14E4B1D684E4BBD
:104A10009D42E9D80025EBE7032005240122114639
:104A2000FFF74EFFFFF768FC0DB1FFF777FC474B30
:104A30005C6701F011F8044600F0E4FFFFF716FC94
:104A4000FFF77AFC01462046FFF78CFCFDB92846AB
:104A50000121BDE8384000F0FBBA3D48FFF706FCF5
:104A600002200446DAE73A48FFF700FC012403205D
:104A7000D4E701200324D1E700200424CEE7072453
:104A8000D0E7344DA0E7344D9EE704232B6038BDBA
:104A9000012211460020FFF713FF0223F6E701224F
:104AA00011461046FFF70CFF0123EFE700F0AAFFC5
:104AB000FFF7DCFB294B0122C3F808260323E5E7B7
:104AC0000023E3E7072904D00929E0D11F4B012285
:104AD00001E01E4B00221A67D9E74C1E072CD6D8DE
:104AE00001A353F824F000BF3B4B00008F4A0000A5
:104AF0008F4A00002D4B00008F4A00008F4A0000B3
:104B00001F4B0000094B000003221049D1F85C3113
:104B100023F0300343EA0213C1F85C31B7E7012206
:104B200011460420FFF7CCFE0122EEE701221146D8
:104B30000220FFF7C5FE0222E7E70022E5E700BFFB
:104B400080400E40F8000020002D310100400E4052
:104B50000148E80188400E4084400E400010C843E0
:104B600010B504461120FFF7B7FC002101220220F6
:104B7000FFF7A6FE184A217C536A23F0010302299D
:104B800008BF43F001035362144B2178C3F8A0140B
:104B9000637AA18843EAC123D362136BA07A217A96
:104BA00003F07F630343E08843EAC02343EAC11371
:104BB00003310F2928BF0F2143EA01731363A37B3D
:104BC000617B1B0143EA0133E17B0B43217B43EA19
:104BD0000143536310BD00BF00400E400000C843B6
:104BE000EFF3108072B6704700B962B67047EFF30A
:104BF000108072B67047FFF7F7BF0000034BD86B09
:104C000080F04000C0F38010704700BF00300E40BD
:104C100042EA0323B3F5007F39D016D8B3F5807F7D
:104C200031D007D85BB3012B1ED00022134603609E
:104C30000A60704740F201129342F6D1184BD3F844
:104C400024321A0EC3F30743F1E7B3F5407F22D0B5
:104C500040F2013293420ED040F201229342E4D15D
:104C60000F4BD3F8283202E00D4BD3F82432C3F3B4
:104C70000722DBB2DBE70A4BD3F82832E1E7084B27
:104C8000D3F81C32F3E7064BD3F81C32D9E7044BB8
:104C9000D3F82032EBE7024BD3F82032D1E700BF44
:104CA0000081E00F10B503283FD8DFE800F00228AC
:104CB000363A1F4BD3F8F02102F00F00C2F3031471
:104CC0000A2303FB0404C2F30330C2F3032203FBF1
:104CD00000239C42084611D2164A1B1B93420DD852
:104CE000B2FBF3F364214843A0F53530A0F52470FE
:104CF00003FB040000EB5300B0FBF3F010BD0C4BC2
:104D0000D3F8F021C2F30340C2F303540A2303FB98
:104D10000404100FC2F30362D9E7054BD3F8F42162
:104D2000CAE7034BD3F8F421ECE700231C46D0E795
:104D30000081E00F80B5010008B5FFF75FFF20B1EB
:104D4000024AD2F8C830002BFBD108BD0000C64390
:104D500008B5FFF753FF80B1FFF7EEFF074B196867
:104D60005A68C1F30121C2F3014291421A688CBF13
:104D700042F0100222F010021A6008BD00300E400E
:104D8000064B1B68DB0608D5054B1B69C3F30443C0
:104D9000082B02BF034B044A1A60704700300E40D4
:104DA00000400E40F8000020C0EA210137B5FFF7AF
:104DB00025FF38B1244B1B78C3F102021023934026
:104DC000224A13612249234DD1F8804145F60E0352
:104DD000C1F880312B6823F0AA03DB05DB0D0B66DD
:104DE000FFF7AAFF194B1B68D80604F0010416D57B
:104DF000D1F84031DA01FBD4174B1B680B61174B1C
:104E00001B78052B0BD1164B18680190FFF794FF08
:104E10000E4B01985968C1F30141FFF7A3FA0F4BFC
:104E20001978052902D01120FFF7BEFD2B68DB079A
:104E30005EBF074B02221A661CB1054B0022C3F865
:104E4000802103B030BD00BF1524002000300E408B
:104E500000400E4004240020102400200E240020D6
:104E6000F800002010B50B4C0B4BD4F890201A60C2
:104E70001120FFF731FB094B1870FFF75DFF084B5E
:104E8000084A5B68C3F301431370074B22691A6039
:104E900010BD00BF00400E40042400200E2400205E
:104EA00000300E4015240020102400207047704769
:104EB0007047000010B5044608B1FFF7D3FFFFF7B5
:104EC00047FF164A136943F004031361FFF7EEFF2F
:104ED000FFF7EDFF124B1B68DB0618D5FFF780FECE
:104EE00022F0FEFAFFF780FEFFF7E2FF16F01EFA4F
:104EF0007CB1FFF75BFF0A4AD2F84C3123F0004344
:104F0000C2F84C3144B9BDE8104000F0A5BD30BF37
:104F1000EAE7FFF735FFEEE710BD00BF00ED00E068
:104F200000300E4038B5044608B1FFF79BFFFFF78D
:104F30000FFF1B4B1B4DD3F8802145F60E01D20706
:104F4000C3F8801148BF00224FF42071196648BF92
:104F5000C3F88021144A136943F004031361FFF777
:104F6000A5FF2B68DB0615D5FFF73AFE22F0B8FA4D
:104F7000FFF73AFE16F0DAF974B1FFF717FFD5F82C
:104F80004C3123F00043C5F84C3144B9BDE83840FA
:104F900000F062BD30BFEDE7FFF7F2FEEFE738BD8E
:104FA00000400E4000300E4000ED00E0FFF75ABF19
:104FB000FFF7FCBE7047704770B50D4CA569A66938
:104FC0004AF6E85325F4403545F4003546F44036BA
:104FD000A360FFF7EFFFFFF7EEFFA561A661A561F4
:104FE000A661A561A661A561A661A56170BD00BFAE
:104FF00000300E4070B504460E46FFF7FFFD10B3BB
:10500000FFF79AFE104B5B68C3F301439C421AD032
:105010000E4BD3F8003100F0F5FC022C054602D10E
:105020002146FFF79FF9C4F1020210239340064A7C
:1050300013610EB1FFF780FE2CB921462846BDE86A
:105040007040FFF78FB970BD00300E4000400E4039
:1050500013B50246FFF7D2FDC8B152B90D4B01910D
:10506000D3F8004100F0CEFCC4F30422019902FB06
:105070000002094B1B7843B1084B9A4205D8022025
:1050800002B0BDE81040FFF7B5BF0020F8E702B05E
:1050900010BD00BF00400E4014240020002D31013F
:1050A000034B02781A7001210020FFF7D1BF00BF27
:1050B00014240020064942780B6823F4407343EA25
:1050C0000223022A0B6004BF024B5B6A704700BFD9
:1050D00000300E4000400E400378134A002B437806
:1050E00070B514BF04260026002B8378946914BF82
:1050F00002250025002B037924F03F0443EA040332
:10510000C47814BF08210021012C08BF43F001031B
:1051100033432B430B4393611368417923F44033AA
:1051200043EA0143136070BD00300E40224B4AF643
:10513000E85210B5596B5A639A6FD207FCD41B6CB6
:1051400013F003031EBF1D4A0124C2F8B44A834270
:1051500004D110B9194BC3F8B40A10BD032B00D009
:105160009BB9431E012B10D8134A4FF40023D3627E
:10517000936FDB07FCD4136C23F0030343F00103AC
:1051800013640D4A536A1C03FCD50B4B9A6FD2076C
:10519000FCD41A6C22F0030202431A649A6F12F0D4
:1051A0000102FBD10038054C18BF01200129C4F8C9
:1051B000B40A08BF5A63D0E700300E400000C6436F
:1051C0002DE9F04F002389B0CDE90233CDE9043356
:1051D000CDE90633A0F5E163B3F5966F04460D46BD
:1051E000914604D90025284609B0BDE8F08FB0F5F6
:1051F000E16F674B8CBF0122002240F0BC80D3F8E6
:105200001832C3F30721DBB2079104934FF4167AE7
:105210004FF4966BDFF87C81D8F84C700192C7F39D
:1052200001773B4605A902A8FFF7F2FCD8F8E06039
:10523000019AC6F30126334606A903A8FFF7E8FC46
:10524000049B0799A4EB0B0EA1EB030C0EFB0CFCCB
:10525000BCFBFAF213EB020C2CBF012300236145C7
:10526000C0D3002BBED1069A0398131A0EFB03F38A
:10527000B3FBFAF3C0182CBF012300238242B1D341
:10528000002BAFD1059B02995A1A0EFB02FEBEFB02
:10529000FAFA11EB0A012CBF4FF0010E4FF0000E8D
:1052A0008B429FD3BEF1000F9CD1B9F1000F10D0FB
:1052B000D8F85C2022F4FE4222F00202B4F5E16F3D
:1052C00042EA0C2218BF4FF0020E42EA0E02C8F862
:1052D0005C20002D4DD02E4B022FD3F830223ED033
:1052E000032F3FD0012F14BFD2B2C2F30722120303
:1052F00012F4702F7FF476AF264FFB6E23F47043C9
:105300001A43234BFA66022ED3F830222CD0032EF8
:105310002DD0012E14BFD2B2C2F30722120312F411
:10532000702F7FF45FAF1B4ED6F8E03023F470434C
:105330001A43C6F8E020736E814238BF014623F459
:10534000FF73E72923F0010328BFE721B4F5E16FDC
:1053500018BF43F0010343EA4103736643E7C2F316
:105360000742C4E7120EC2E7C2F30742D6E7120EA5
:10537000D4E7012537E7D3F81832190EC3F30743F2
:10538000079104934FF4966A4FF4E16B42E700BF34
:105390000081E00F00300E40304B1A6FD96C11F0D5
:1053A000010F02F0060244D0002A42D0132851D93E
:1053B000143813288CBF102308232849013BCA6CDA
:1053C000180322F47F4240EA03231343CB64244BA7
:1053D000CA6C1B88C2F303222833013202EB82001D
:1053E00003EB5303B3FBF0F3C86C013B072B28BF5F
:1053F000072320F0EE6040EA036343F48013CB649C
:10540000184BB3F90030002B12DB03F12800C0F376
:105410004E030344500800EB4202B3FBF2F20B6D63
:10542000072A28BF072223F0700343EA02120A6505
:105430007047D96C01F00101114304D1092809D941
:105440000A380928B6E7DB6C13F00103B5D01AB9A6
:105450002728AFE70423B0E70023AEE700300E4073
:105460000A2400200C240020064A074BD3F8803978
:10547000136F23F007031843044B10671888FFF7D6
:105480008BBF00BF00300E400000C6430824002040
:1054900038B504468088E388B4F90C504A2B50D9BB
:1054A000B3F5FA7F4FD340F6C312934294BF4FF047
:1054B00000524FF040522949CB6C23F0405323F067
:1054C0000103002DA8BF43F001031343CB64D1F8BF
:1054D000E03043F44073C1F8E030214B1880CB6ECC
:1054E00043F08073CB661F4BD3F8800900B10420D2
:1054F000FFF7BAFF1C4B218919801C4BB4F90C2013
:10550000A0881A80FFF748FFA37BFBB1012B21D0B5
:10551000012260881146FFF753FE054678B10F4A15
:10552000D36B43F48063D3636078FFF7FFFDA37A06
:10553000A3F12002534253410A4AC2F89437284645
:1055400038BD0022B7E74FF08052B4E7034B084A5A
:105550009A65DDE7014B074AFAE700BF00300E40CD
:10556000082400200000C6430A2400200C24002048
:1055700077402057372110B7F8B5416805460078C5
:10558000FFF790FBA96804462878FFF78BFB2B7880
:105590000BBB0A23B4FBF3F2B0FBF3F103FB1244A1
:1055A00003FB11002B7B2404002B44EA02546B7B89
:1055B000AA7B14BF04270027002B42EA040343EA16
:1055C000013343EA0023044A14BF082600263B4364
:1055D0003343C2F89030F8BD00300E40F0B54AB108
:1055E0001D4C3026012546438D4034440BB304F155
:1055F000C06425603024444304F18044072904F545
:10560000204419D865688E000F27B74025EA0705A2
:1056100002FA06F63543656052B9012202FA01F139
:10562000302250430C4A02449BB102F1C062116027
:10563000F0BD04F18064DCE7A1F10805A668AD00C7
:105640000F27AF4026EA070602FA05F53543A560A5
:10565000E2E702F18062EAE70CA00040014B012280
:105660009A60704700500E40134B1449F0B5002269
:105670005D68134E1046D6F8E8714C680B687F07DA
:105680000BD4B3F5006F06D012D8B3F5007F02D06B
:10569000B3F5806F01D144F480742B4202D02C42C8
:1056A00008BF18430132092A01F10801E3D1F0BD16
:1056B000B3F5803FEEE700BF00500E403C7702009C
:1056C0000040E00F70B5054616461C4619B914484F
:1056D000FEF7A2FF0146402C1BD003D8DCB1202CE2
:1056E0001BD070BD602CFCD1042303FB06F25608CE
:1056F00006EB4113B3FBF2F30A4A203B02EAC30371
:105700002A6822F060022A602A6814432C606B61C8
:10571000E7E70623E9E71023E7E70823E5E700BF0B
:1057200040410500F8FF7F0040F6AA63C36041F2E4
:1057300005020023036042600C4A83604361C36436
:1057400082640B4A03669042436702F58062836776
:10575000C36704D0904202D00649884200D1036555
:1057600000239042836508BFC3657047F9FF0100BD
:10577000000001400008014038B50C46FFF7D4FF97
:10578000A37C05461BB1036843F080430360E37CC0
:105790001BB1237D43F08003AB65228A637B1343F7
:1057A000E28913436B60237BD4E901122846FFF79B
:1057B00089FF637D1BB12B6843F480332B60A37D8D
:1057C000E27D1B07120502F4E00203F0E0431343FD
:1057D0002B666B6F23F030036B676A6F237E134376
:1057E0006B672378EB6038BD03695B06FCD54163CA
:1057F000704700000D4AD2F8E430D2F8E0109B0068
:1058000003F03C03C1F381110B438370D2F8E03005
:1058100003F03F034370D2F8E830D2F8EC2003F0F5
:10582000F003C2F3031213430370704700FF0FE04D
:1058300010B5044601214FF4AA40FEF7A1FDB4F8CB
:10584000013022785BBA9BB243EA02630B4A1360D1
:1058500000231362D36253634FF00043D3664FF0CB
:10586000FF339366064A4FF40071C2F88011E37863
:105870005B01DBB282F80933116010BD00200E40DD
:1058800000E100E02DE9F041C3B2254E91F80AC0D5
:105890000F7B01250C469D404FF03008CB7A497BA9
:1058A00008FB00604FEA035E2368C0F880304EEAD0
:1058B0000C4343EA475322F00302C0F88810C0F8B3
:1058C0008430C0F89820B566FFF791F9F36E2B434A
:1058D000F366237A13B1736B2B437363637A13B14B
:1058E000F36A2B43F3620E4B1A68237923B1DB432F
:1058F0001B0263F47F431A4063790BB142EA03222F
:10590000A3790BB122EA0302E3791A43044B1A602C
:10591000044A9562DD63BDE8F041FFF76CB900BF52
:1059200000200E4000200E4413B5002468468DF878
:105930000040FFF7B5FB022301A88DF804408DF865
:105940000530FFF7B7FB02B010BD000070B5234B68
:1059500086B001AA03F11006154618685968144666
:1059600003C40833B3422246F7D11B8823801C4B63
:10597000D3F8B420120327D4D3F8B830C3F3080304
:105980002846ADF80A30FFF7EBF8164800F07CF82F
:10599000012211460220FEF793FF04211120FFF798
:1059A00003F8002211460320FEF78AFF0E48032168
:1059B000FEF7FAFF0D480321FEF7F6FF0C4803211E
:1059C000FEF7F2FF06B070BD0A4B1B884FF6FF7260
:1059D000934208BF4FF4B273D2E700BF947702003E
:1059E0000081E00FC017530202001E0003002000D8
:1059F000050024000001E00FFEE7000000487047AA
:105A0000C0175302104AD2F8943003F00703023B48
:105A1000032B13D8DFE803F00C14020E0B4B1B68AA
:105A2000D2F80001C0F304200130B3FBF0F070475E
:105A3000074BF4E7074B1B685B08F1E7054BEEE704
:105A40004FF40043ECE700BF00400E40FC00002094
:105A5000F4000020F800002008B5FFF7D3FF054B45
:105A6000D3F80831C3F308230133B0FBF3F0024B42
:105A7000186008BD00400E40F0000020014B18687F
:105A8000704700BFF4000020054B1860054BD3F8A9
:105A9000943003F00703022B01D1FFF7DDBF7047FD
:105AA000F400002000400E40044B054A9A60D3F8F1
:105AB000882042F47002C3F88820704700ED00E0AF
:105AC000000000004FF4004070474FF47A707047B8
:105AD000014B1868704700BFFC0000200A4880474F
