S02200006275696C642F64656275672F736C656570792D64656D6F2D6D74642E73333787
S214000000001000207503000071030000710300005B
S2140000108D400000710300007103000071030000B2
S21400002071030000710300007103000071030000FB
S21400003071030000710300007103000071030000EB
S21400004071030000DD63030071030000710300000C
S214000050915C030035640300E96303000164030058
S214000060E1630300C90A0000A10B00007103000051
S214000070D5640000710300007103000071030000E6
S2140000807103000071030000C50B0000710300003F
S214000090710300007103000071030000710300008B
S2140000A0710300007103000071030000710300007B
S2140000B039640300E5630300158C0300294E000035
S2140000C07564030071030000F14F03007103000024
S2140000D0710300007103000071030000710300004B
S2140000E0710300007103000071030000710300003B
S2140000F071030000710300007103000010B5054C89
S214000100237833B9044B13B10448AFF300800123BE
S214000110237010BD981200200000000054F3030066
S21400012008B5034B1BB103490348AFF3008008BD75
S214000130000000009C12002054F30300A3F5803A50
S214000140704700BF174B002B08BF134B9D46FFF7A9
S214000150F5FF00218B460F461348144A121A2EF05C
S214000160CFFA0E4B002B00D098470D4B002B00D03B
S21400017098470020002104000D000D48002802D0FA
S2140001800C48AFF300802EF033FA200029002DF043
S2140001901BFF2EF007FA00BF00000800000000005A
S2140001A0000000000010002098120020C85F002009
S2140001B0000000000000000008B50422012305210D
S2140001C0002003F0A9F8002008BD08B50023184653
S2140001D00422052103F0A0F8002008BD08B5064853
S2140001E0012101F0B7FE2DF0F1FDFFF7E5FFBDE8B8
S2140001F0084000F009B800BF00350A000148012198
S21400020001F0A8BE00350A002DE9F0433B4D3C4FF7
S214000210DFF80091DFF800810FCD87B06C460FC481
S21400022095E8030084E80300364C3748012101F0C6
S21400023091FE3846012101F08DFE0125334B0293D5
S214000240694620468DF80E5003F010FC2B4604221B
S2140002500621022003F060F82A4600230721022028
S21400026003F05AF82B4604220821022003F054F823
S214000270042211462B46002003F04EF8244BA367B9
S2140002800B23636710264FF4487004F003FEC9F88A
S2140002900C60142004F0FEFDC8F80C60232004F067
S2140002A0F9FDC9F80C60B921204603F020FC0023B4
S2140002B01A46C8F80C600621022003F02DF8002329
S2140002C01A460721022003F027F82B4600220821B1
S2140002D0022003F021F8002210462B46042103F0EA
S2140002E01BF8204603F062FB0021A16738466167D1
S2140002F001F030FE07B0BDE8F08300BF6096030053
S214000300004204000004014000350A0000127A0092
S2140003100B0B000B00A0004400A000460023036067
S214000320704703680B60016070470346006818B1A9
S21400033002681A60002303607047036803B97047B9
S2140003408B4202D10B68036070471846F5E7000041
S21400035005490A681318054883428CBF4FF0FF32E0
S2140003600B601046704700BF001000200000012000
S214000370FEE7000008B500F069F8064B0649074A94
S2140003808B4201D3FFF7DEFE52F8040B43F8040B52
S214000390F6E700BF00100020981200205CF3030070
S2140003A00048704700F04902104AD2F8943003F033
S2140003B00703023B032B13D8DFE803F00C14020EEE
S2140003C00B4B1B68D2F80001C0F304200130B3FBCE
S2140003D0F0F07047074BF4E7074B1B685B08F1E744
S2140003E0054BEEE74FF40043ECE700BF00400E403D
S2140003F010100020081000200C10002008B5FFF791
S214000400D3FF054BD3F80831C3F308230133B0FB01
S214000410F3F0024B186008BD00400E4004100020A8
S214000420014B1868704700BF08100020054B186085
S214000430054BD3F8943003F00703022B01D1FFF7E6
S214000440DDBF70470810002000400E40044B054AF0
S2140004509A60D3F8882042F47002C3F88820704768
S21400046000ED00E0000000004FF4004070474FF43D
S2140004707A707047014B1868704700BF1010002054
S21400048043680BB1006818472220704783680BB199
S21400049000681847FF20704730235843034B034437
S2140004A001EBC30189000868704700BF1CA010025A
S2140004B0114B70B51D78114B00221E46D1B28D42ED
S2140004C000D870BD53F8041B0C686179814210D1C6
S2140004D0217802290DD001462079FFF7DDFFB0FA1A
S2140004E080F04009207056F82200BDE870402DF0DC
S2140004F045BE0132E2E700BF33D003009010002073
S21400050013B504460121124801F024FD0023617949
S2140005102079012202F000FF61792079FFF7BCFF05
S214000520A379B0FA80F04009022B20700DD100F0BC
S2140005301BFB0849607900F025FB627920790123CE
S214000540CDE90033114602F0A1FE002002B010BD36
S21400055000350A00B10400000078704708B503783B
S214000560022B024616D041790079FFF795FF917964
S2140005700129034615D1003B508818BF012343EAE2
S214000580400363F03F039BB24FF6E070834202D114
S2140005901170538008BD4FF6DF718B42F9D10021F0
S2140005A0F6E70029F6D1B0FA80F35B091370F1E79D
S2140005B00278022A03D100224280FFF7A1BF7047CB
S2140005C013B50378022B044610D08379022B0BD187
S2140005D04079002100F0D6FA627920790023CDE92F
S2140005E00033114602F052FE0223237002B010BD03
S2140005F0D0E900031847C368006818470369006815
S2140006001847000010B501210446094801F0A2FC75
S2140006100848012101F09EFCA37820786178B3FA9F
S21400062083F35B09042202F077FE002010BD00BFB2
S2140006304041050000350A004378017801229A40BF
S21400064030235943054B0B44817819B903F1806375
S2140006501A60704703F1C063FAE700BF0CA00040C1
S2140006604378017801229A4030235943054B0B44C6
S214000670817819B903F1C0631A60704703F180638B
S214000680FAE700BF0CA000404178037801228A40B8
S21400069030214B4303F1804303F520439A617047B2
S2140006A0037830214B4307491944437803EBC103D1
S2140006B002469B0018689378C0B213B9B0FA80F06F
S2140006C0400970470CA010022DE9F04F9A46554B92
S2140006D085B01B78DDF83C909DF844B0DDF850807E
S2140006E006460F461546002B00F08B80072A00F2C0
S2140006F08A800E9B002B00F08680B9F1000F00F078
S2140007008280129BB3F5006F7DDC012802D1109B1E
S214000710002B78D0444B03EB05131B7B002B74D0C7
S214000720424C1022002168462DF0EAFF04EB4514E7
S2140007301022002F57D1394620462DF0E1FF43F214
S21400074010036380BBF1000F03D1E37843F003038B
S214000750E370364A0E9BCDF800A002EB451CCCE9B0
S2140007600193129B013BC3F30A009DF84C306901CC
S21400077003F003039B0643EA001E53582C48184018
S2140007804EEA0003012E535041D11323CCF80C300F
S2140007909CE80F000CF1100E8EE80F00DCF81C2011
S2140007A0109BCCF814306FF0030161F39F02012F09
S2140007B0CCF81C2003D1CCF81890CCF804301A4A98
S2140007C0290102EB051342F801800027159A5A60AA
S2140007D028469F605E732246694602F011FE384640
S2140007E005B0BDE8F08F002120462DF089FF4FF4BC
S2140007F044736380BBF1000FABD1E37843F0300362
S214000800A6E70C48ECE70C48EAE70C48E8E7B8F13E
S214000810000FD4D19CF8023068F304138CF8023031
S214000820CDE700BF34140020B4120020341300209B
S2140008300F80FFF3028000F0018000F0078000F0D8
S21400084038B5124B1B780546DBB1E0B102F033F841
S2140008500F4A00231146147B54B92B601A0101EB92
S214000860031301258C501D7302F02BF8204638BD6B
S2140008700133082B02F11002EDD102F022F80548F0
S214000880F5E70548F3E70548F1E700BF3414002014
S214000890B4120020048000F0028000F0018000F016
S2140008A013B5164B1868019000238DF8043002F03B
S2140008B002F8134B1C7824B102F003F8114802B07A
S2140008C010BD01221A7001F0FCFF0F4B1C731C7741
S2140008D083F82C4083F83C4083F84C4083F85C4017
S2140008E083F86C4083F87C4004230DEB03008DF8FE
S2140008F0073002F05BFD2046E1E700BF7896030074
S21400090034140020038000F0B412002010B588B024
S2140009100E9C07940D9C06949DF8304005940B9C05
S21400092004949DF8284003940024CDE901340092F5
S2140009300B46024621462046FFF7C6FE08B010BD0D
S21400094010B588B00E9C07940D9C06949DF8304018
S21400095005940B9C04949DF8284003940024CDE94C
S214000960013400920B46024601212046FFF7ACFEFA
S21400097008B010BD0A4A127808B55AB107280BD835
S214000980084A02EB00131B7B43B1002102F004FD72
S214000990002008BD0448FCE70448FAE70448F8E7E6
S2140009A034140020B4120020028000F0018000F011
S2140009B0078000F00A4A127808B55AB107280BD803
S2140009C0084A02EB00131B7B43B1012102F0E4FC52
S2140009D0002008BD0448FCE70448FAE70448F8E7A6
S2140009E034140020B4120020028000F0018000F0D1
S2140009F0078000F00A4A127808B552B107280AD8CC
S214000A00084A02EB00131B7B3BB102F04BFD0020B3
S214000A1008BD0548FCE70548FAE70548F8E700BFC3
S214000A2034140020B4120020028000F0018000F090
S214000A30078000F00D4B1B7893B1072812D889B1B8
S214000A400B4B03EB00131B7B73B10A4B1A6A012393
S214000A5003FA00F010401ABF00200B7008707047B1
S214000A60054870470548704705487047341400200D
S214000A70B412002000200E40028000F0018000F03A
S214000A80078000F00B4A127810B50C4662B10728B2
S214000A900CD859B1084A02EB00131B7B43B102F095
S214000AA017FD2060002010BD0448FCE70448FAE764
S214000AB00448F8E734140020B4120020028000F046
S214000AC0018000F0078000F02DE9F843DFF864802D
S214000AD0D8F86070D8F86C301F4000D5FEE7144C8C
S214000AE0DFF8549001260025374217D02368C8F84F
S214000AF068609BB1A16862680131A160284698478A
S214000B00637B012B0AD148B909EB45131A7B60F3C6
S214000B1041021A731A7F60F341021A770135082DD5
S214000B204FEA460604F11004DED1BDE8F88300BFA4
S214000B30B412002000200E403413002070B5094E79
S214000B400446012504B970BD94FAA4F0B0FA80F00A
S214000B5005FA00F324EA030456F82030002BF1D0FF
S214000B609847EFE738140020054B4FF48022C3F86F
S214000B7080211A604FF48062C3F880211A607047A3
S214000B8000E100E038B504460D4601F094FE034B44
S214000B9043F82450BDE8384001F093BE38140020D6
S214000BA0074BD3F82804D3F81C24104020F42A500E
S214000BB020F02A004004400CC3F82404FFF7BEBF10
S214000BC000A00040074BD3F82804D3F81C2410409C
S214000BD020F4AA4020F055000004000CC3F82404BA
S214000BE0FFF7ACBF00A00040024B1968024B186824
S214000BF030F050BB18100020141000207047000082
S214000C0037B5920004460D46019202F099FD431C4A
S214000C100BD060B9019A294620462DF039FD0028F0
S214000C20044808BF002003B030BD0348FBE7034874
S214000C30F9E700BF10E000F021E000F024E000F04B
S214000C4013B5044601A802F005FE9DF80630238081
S214000C5040F201136380074BD3F8E4301B0E0A33CF
S214000C60012203F01F0302FA03F30020636002B0C0
S214000C7010BD00BF0081E00F02F08EBC08B502F088
S214000C807BFC002008BD10B5044644EA010313F0BF
S214000C900303084609D1934201D1002010BD54F841
S214000CA0231040F823100133F5E7920021462DF07B
S214000CB0FFFCF2E710B5044602F0F4FC431C17D024
S214000CC0C0B90D4BD3F8E4301B0E0A3303F01F02F5
S214000CD00123934023F0030320462344984201D186
S214000CE0002010BD50F8042B0132F7D00348F8E777
S214000CF00348F6E70348F4E70081E00F0EE000F053
S214000D0021E000F024E000F008B501F0C5FD014B3D
S214000D10186008BD081B0020014B186801F0C0BD14
S214000D20081B00200A460139014403F035B90000CB
S214000D3038B141B1013AB2F5006F044838BF00201F
S214000D407047034870470148704700BF037000F0C3
S214000D50027000F038B504460D4601F0ACFDA388DD
S214000D609BB223B92B6001F0ACFD064838BD638802
S214000D7014229BB202FB034408342C6001F0A1FD50
S214000D800020F3E70B7000F0F7B504460191164615
S214000D9001F091FDA388E28801999BB29A4205462C
S214000DA006D80023336001F08CFD124803B0F0BD76
S214000DB02088142780B207FB00403A4608302DF002
S214000DC077FC2388E2889BB207FB03430833336033
S214000DD023889BB20133B3FBF2F102FB11339BB2C3
S214000DE02380A38801339BB22846A38001F069FDC7
S214000DF00020DBE70A7000F010B50346006893F8A1
S214000E003230012B0AD102F099FB044603F056FE5D
S214000E1024235843B0FBF4F0013010BD02F09AFDD5
S214000E20F3E7000090F83130022B0BD1437E3022DE
S214000E305343054A1A44437F03EBC2039B001868DA
S214000E40C0B27047002070471CA0100213B51D4AA0
S214000E50002352F8044B617F81420ED00133042BED
S214000E60F7D102B010BD0028FBD19DF80730002B4B
S214000E70F7D06068FFF77EFDF3E794F83130022B79
S214000E80EFD12046FFF7CEFF637D2075022BE8D119
S214000E9094F82E3003F0FF02002BE2D160688DF844
S214000EA007200DF10701FFF7C5FD237D1BB194F860
S214000EB02F30002BD7D00023606884F82F30FFF740
S214000EC079FDCEE7BC1B002090F8323053B903689A
S214000ED00422DA601A699007FCD55A6F42F00202C3
S214000EE05A677047012B0CD103685A6C9107FCD4E3
S214000EF004225A609A689207FCD55A6D42F00202A4
S214000F005A65704790F8323053B903680122DA60A8
S214000F101A69D007FCD55A6F42F001025A6770472B
S214000F20012B0CD103685A6C9107FCD401225A603D
S214000F309A68D207FCD55A6D42F001025A6570478E
S214000F4090F832303BB903685A6F22F001025A67B4
S214000F500222DA607047012B09D103685A6C9207A7
S214000F60FCD45A6D22F001025A6502225A6070477C
S214000F701049114A0B7830B52BB9C2E90033C2E9E3
S214000F80023301230B700C4C0023214651F8045BFE
S214000F90854208D00133042BF8D1002154F8043BD5
S214000FA01BB942F82100002003E001310429F5D1E5
S214000FB0024830BDCC1B0020BC1B0020027000F095
S214000FC010B50446FFF76CFC0021201DFFF738FC27
S214000FD0014620B904F10800FFF732FC00B10148D1
S214000FE010BD00BF0E7000F070B5054601F063FC42
S214000FF06C6B013C06466C6374B901F04DFC2146EF
S2140010000546012003F004F90120064A214603F0B4
S2140010106FFA284601F044FC3046BDE8704001F007
S21400102050BC00BFA096030013B591F832200B68A1
S214001030012A0C460BD19B6813F0080F20460AD0F5
S214001040FFF7D2FF022384F8383002B010BD1B69C8
S21400105013F0200FF2E7FFF7CFFE0023CDE90033B1
S2140010600146034A234604F13C0003F0A5FCECE7E6
S2140010702910000070B5044601F01DFC636B0546A0
S21400108073B901F009FC01210646084603F0C0F8D2
S21400109001210846064A03F02BFA304601F000FC10
S2140010A0636B013363632846BDE8704001F009BCFA
S2140010B0A09603007FB5012380F82C3090F83230DC
S2140010C093B90C4A036803920022049002924A687D
S2140010D00192012200920A68016980681C33FFF7BA
S2140010E02FFC07B05DF804FB012BEAD0002380F844
S2140010F02C30F6E7A51C00002DE9F041012380F80E
S2140011002D3090F8323088B004460E466BBB05682A
S214001110343501F0D0FB04F13C0807460DF11F0101
S214001120404603F02DFC40B99DF81F302BB14046D9
S21400113003F0E4FB2046FFF757FF3846012701F08F
S214001140C0FB204684F83870FFF794FF0E4B0393DD
S214001150002302937368E16860680494CDE9007325
S2140011602A463368FFF7D2FB0BE0012B06D1056851
S2140011702B6843F4005345F8283BCAE7002380F861
S2140011802D3008B0BDE8F081D511000038B5044612
S2140011900D4601F090FBA3889BB223B92B60BDE8F7
S2140011A0384001F08EBB638814229BB202FB0343D7
S2140011B008332B606388E2889BB20133B3FBF2F1FD
S2140011C002FB11339BB26380A388013B9BB2A380D2
S2140011D0E5E70000F0B585B0906A03A91446FFF76E
S2140011E0B9FD06462046FFF707FE002501462346C2
S2140011F0CDE900551B4A04F13C0003F0DDFB1A4B19
S2140012009E421FD0039B1D619D6001F054FB039A14
S214001210D768064627B1D2E9002329462046B847B4
S214001220A06A03A9FFF7B2FFA06A83889BB263B1E6
S21400123003A9FFF78FFD03992046FFF75DFF3046B1
S21400124001F03FFB012005B0F0BD84F82D3094F886
S2140012503230012B01BF2268136823F40053136059
S214001260EDE700BF291000000B7000F01FB5044624
S2140012700B46C07DE17E002B33D00123042202F012
S2140012804BF80123217F207E022202F045F894F8D5
S2140012903130022B16D1617F607E0023012202F0DE
S2140012A03BF800230422A17FA07E02F035F801233C
S2140012B0627F0193607E0093114601F0E7FF0020F5
S2140012C004B010BD032BFAD100230122617F607E9B
S2140012D002F022F800230422A17FA07E02F01CF870
S2140012E0EDE71A46039302F017F8039B217F207E52
S2140012F01A4602F011F894F83120039B022A0FD107
S2140013001A46617F607E02F007F8039BA17FA07EED
S2140013101A4602F001F8039B0193627F0123C9E796
S214001320032ACCD11A46617F607E039301F0F4FF56
S214001330039B1A46D0E790F8323013B90368186951
S2140013407047012B1CD103689B6803F00200DA0784
S21400135048BF40F00100590748BF40F008001A0790
S21400136048BF40F02000D90648BF40F040009A062B
S21400137048BF40F080005B0603D540F4005070473D
S214001380002070472DE9F3410D460446002879D029
S21400139001F091FA012D06463BD1A36A9B889BB2C9
S2140013A0002B3DD06068FFF725FB0023A06A84F879
S2140013B02D3083889BB273B101A9FFF7CBFC01994E
S2140013C06068364F0831FFF75DFB019B1F61A06A1E
S2140013D083889BB253BB2046FFF7ADFF8304FAD544
S2140013E0023D012D10D8A068FFF704FB0023606AB9
S2140013F084F82C3083889BB23BBB94F83130032BA7
S21400140002D02046FFF79CFD304601F05AFA002035
S21400141009E0022D38D1636A9B889BB2002BE2D18B
S21400142001F04FFA1E4802B0BDE8F08101A9FFF7AF
S214001430ADFE019BD3F80C80B8F1000FC7D09B68B7
S214001440002239462046C047C1E76946FFF782FCBE
S2140014500099A068114D0831FFF714FB009B1D6131
S214001460606A83889BB2002BC7D06946FFF78EFE62
S214001470009BDF68002FF3D09B6800222946204699
S214001480B847EDE70748CEE7032DA9D1A36A9B88A6
S2140014909BB2002B86D1636A80E700BF097000F01C
S2140014A0087000F0027000F02DE9F3410546406A2E
S2140014B084889846A4B20023CDE900330E4617462A
S2140014C03CB16946FFF746FC01A90446A868FFF749
S2140014D0D9FA009B73B16CB95A6801991B68521A05
S2140014E03A60C8F8001033602846FFF724FF02B0C1
S2140014F0BDE8F0810023C8F800303B60F3E7836A5C
S2140015009888C0B270472DE9F04104469046FFF730
S2140015100FFC0F46054600285CD1092001F0E2F9D1
S2140015200646A26A93889BB213B194F82E3033B362
S21400153094F8323043BB23681E6906F002061EB9D3
S2140015402046FFF7C1FC0026012384F8303094F8CB
S21400155032301BBBB844474520681AD103699A0647
S214001560FCD5002E36D194F8323033BB23685A6F40
S21400157022F002025A670822DA6035462AE0002E78
S214001580D0D0FFF7A1FACCE7012BD9D123689E680B
S214001590D3E717F8011B02F0B4FADCE7012BE0D121
S2140015A0B844B845206803D183681B07FCD5D8E744
S2140015B017F8011B01F0D6FFF3E7012BDDD12368F6
S2140015C05D6C15F00205FBD15A6D22F002025A65D9
S2140015D008225A602846BDE8F081000010B504468F
S2140015E080B190F82E302BB9FFF71CFC10B960685C
S2140015F0FFF7C0F994F82E300133DBB284F82E30B2
S214001600002010BD0048FCE7027000F010B504464C
S214001610A0B190F82E309BB190F82E30012B05D15A
S214001620FFF700FC10B96068FFF7C4F994F82E3095
S214001630013BDBB284F82E30002010BD0148FCE7E9
S2140016400148FAE7027000F0057000F037B590F830
S2140016503150022D044618D1A37FA17E407D012281
S2140016609A4030235943134B0B4410B903F180635F
S21400167003E0012805D103F1C0631A60002003B01F
S21400168030BD217D0029F6D1F0E7012DF6D1037D8E
S21400169073B911238DF80730FFF7A0FF2A460DF126
S2140016A007012046FFF72FFF2046FFF7AFFFE5E7CD
S2140016B01323EFE70CA00040F0B5094F04460D4693
S2140016C00FCF89B001AE0FC697E8070086E807007F
S2140016D0002C00F0A9823DB9024E304609B0F0BD9C
S2140016E0A8960300037000F05422002120462DF037
S2140016F007F8002363632046FFF73AFC06460028F7
S214001700EBD12B7C84F8313001222B6884F838200A
S214001710B74A2360934284F8320040F08A81B54B82
S2140017202362B54BE3604FF440232361D5E90623DB
S2140017300026626216805680968084F82C60A3622B
S2140017401E805E809E806B6803936B8984F82D6094
S21400175084F82F60ADF81430AB89ADF81230AB7B4F
S214001760A6488DF810300121EB7B8DF81630052742
S2140017708DF8117000F0EEFBA148012100F0EAFBA5
S214001780206A012100F0E6FB28688DF8046001A9B4
S21400179002F034F928686B7A816F2A7ADFF850C233
S2140017A021F4F85121F01F01194341EA0221816713
S2140017B0032141672068604540F05081BA4216D93F
S2140017C0901F042840F26581A2F10B00B84240F257
S2140017D06281A2F11100062840F25F81A2F1180191
S2140017E0062940F25C811F2A14BFFF263E46042BC2
S2140017F0E67540F25681591F042940F25481A3F140
S2140018000A01052940F25181A3F11001062940F290
S2140018104E81A3F11701072940F24B81B3F11F0156
S21400182018BF4FF0FF31C9B22176002A58D0012ADE
S21400183056D0022A54D0032A52D0042A50D0052A61
S2140018404ED0062A00F03F81072A00F03E81082A83
S21400185000F03D81092A00F03C810A2A00F03B8115
S2140018600B2A00F046810C2A00F025810D2A00F094
S21400187024810E2A00F023810F2A00F02281102AEC
S21400188000F02181112A00F01A81122A00F0198135
S214001890132A00F01881142A00F01781152A00F088
S2140018A01681162A00F01581172A00F01481182ACE
S2140018B000F01381192A00F012811A2A00F0118113
S2140018C01B2A00F010811C2A00F00F811D2A00F050
S2140018D00E811E2A00F00D811F2A0CBF0722FF2250
S2140018E0E276002B00F08181012B00F01481022BA0
S2140018F000F07D81032B00F07C81042B00F07B81BF
S214001900052B00F0FE80062B00F0FD80072B00F074
S214001910FC80082B00F0FB80092B00F0FA800A2BD5
S21400192000F06B810B2B00F06A810C2B00F0E3803B
S2140019300D2B00F0E2800E2B00F0E1800F2B00F064
S214001940E080102B00F0D980112B00F0D880122BED
S21400195000F0D780132B00F0D680142B00F0D58033
S214001960152B00F0D480162B00F0D380172B00F038
S2140019703A81182B00F03981192B00F0CC801A2BF5
S21400198000F035811B2B00F034811C2B00F03381D6
S2140019901D2B00F032811E2B00F031811F3B18BF3B
S2140019A04FF0FF33DBB223776B7C6376AB7C6377D9
S2140019B0EB7CA3762B7DA37701212046FFF756FC10
S2140019C0064600287FF489AE00F075FF2B7C032BBB
S2140019D0074640F018812B682A8CDA675A6E42F068
S2140019E004025A665A6F42F030025A670AE000BF95
S2140019F0000001400032040001000C0040410500D8
S214001A0000350A0028684FF0FF3383642B7C032BD5
S214001A100CBF0521042101F0C1FF2B684FF4406282
S214001A20DA602046FFF7CCFA0646384600F049FF53
S214001A3053E67E4A934206D17D4B23627D4BE3609C
S214001A404FF4502371E67C4A93427FF445AE7B4BBD
S214001A5023627B4BE3604FF4602366E6DFF8CCC17D
S214001A6060455AD1052A7FF6C2AE901F042810D9C9
S214001A70A2F10B0005280ED9A2F1110006280CD9F8
S214001A80A2F1180106290AD91F2A14BFFF26052627
S214001A90ADE60126ABE60226A9E60E46A7E63E46DA
S214001AA0A5E60021C0E60121BEE60221BCE6032130
S214001AB0BAE60521B8E6072212E7082210E709224F
S214001AC00EE70A220CE70B220AE70C2208E70D2293
S214001AD006E70E2204E70F2202E7002200E70122B3
S214001AE0FEE60222FCE60322FAE60422F8E60522D7
S214001AF0F6E60622F4E6082355E7092353E70A2309
S214001B0051E70B234FE70C234DE70D234BE70E233E
S214001B1049E70F2347E7022345E7474988427FF412
S214001B20DBAD002A49D0511E0C2948D9A2F10E017E
S214001B3006298CBFFF2105210C2BE17543D9A3F1A3
S214001B400D0106293DD9A3F1140109293BD9B3F1AA
S214001B501F0118BF4FF0FF31C9B22176002A3ED0D0
S214001B60511E0C2931D90E2A31D00F2A31D0102A15
S214001B7031D0112A31D0122A31D0132A31D0142A6A
S214001B8014BFFF2207220C2BE2763AD90D2B2AD05F
S214001B900E2B2AD00F2B2AD0102B2AD0112B2AD06E
S214001BA0122B2AD0132B2AD0A3F11402092A28D9E3
S214001BB01F2B14BFFF230523F5E61146BCE7FF21C4
S214001BC0BAE70521C9E7FF21C7E7FF22DBE70022C6
S214001BD0D9E70122D7E70322D5E70422D3E7052277
S214001BE0D1E70622CFE70023DDE60123DBE6032369
S214001BF0D9E60423D7E60523D5E60623D3E607234E
S214001C00D1E6FF23CFE6022B7FF4FCAE607F0D49C2
S214001C10FEF7B8FFFEF7A8FF4FF40073A382A67581
S214001C202046FFF713FDEDE6074E56E5000401409B
S214001C300042040001000D000008014000520400AC
S214001C4001000E004D0E0000027000F0F0B587B0E7
S214001C5005461646FFF76CF80446F0B9CDE90116BE
S214001C600493686A0E4B03966A4601A90593FFF72C
S214001C708BF8044688B995F82C3073B92846FFF7D8
S214001C8041F900992846FFF715FA95F83130032BED
S214001C9003D02C752846FFF7D9FC204607B0F0BDC8
S214001CA0017000F073B5506A01A91446FFF752F8A8
S214001CB0334B98422FD094F83200019B002836D13F
S214001CC02268116C11F4007128D02E4919619860B1
S214001CD04FF40073936400F0EEFD0199CD6806465C
S214001CE035B14A688B682046D31A0A680969A8473E
S214001CF0606A01A9FFF74AFA606A8588ADB2002DCE
S214001D002FD001A9FFF726F801992046FFF7D2F950
S214001D10304600F0D6FD012002B070BD106CC5053F
S214001D201BD51948186199604FF48073D2E70128D3
S214001D3013D12268D16A11F0800106D011491961C9
S214001D400021996080235363C5E7D06A400604D516
S214001D500D48186199604023F5E700221A619A60E1
S214001D60B9E7012323752046FFF770FC94F831305D
S214001D7084F82C50032BCBD02046FFF7E1F8C7E7BA
S214001D800B7000F00D7000F00C7000F0F0B587B02E
S214001D9004461646FEF7CCFF054658BB0493194B7F
S214001DA0059394F832300396CDE901162BBB2368D1
S214001DB01B6903F0020313B92046FFF785F8A06AF3
S214001DC06A4601A9FEF7E0FF054698B994F82D305B
S214001DD083B900F070FDA36A9B889BB2064633B1B8
S214001DE000992046FFF788F9012384F83030304602
S214001DF000F067FD284607B0F0BD012BDCD1236854
S214001E009B68D6E7017000F00B4B1B7830B58BB1A2
S214001E1001200A490023054651F8042B32B192F8F6
S214001E203840022C04BF82F8385020460133042B79
S214001E30F2D130BD0120FCE7CC1B0020BC1B0020EB
S214001E400C4B984210D90C4B984210D90222012311
S214001E500A490B640A49D1F8003123F0807343EA3B
S214001E600263C1F80031704700221346F0E70122F2
S214001E70FBE700BF0048E8010090D0030000C8431D
S214001E8000400E400F4B5B680F4B30B500221C46DF
S214001E90C9B21D798D4202D11D6885420DD201322C
S214001EA0052A03F10803F4D1032206494B6823F000
S214001EB0407343EA02634B6030BD04EBC2025279C2
S214001EC0F3E700BF00000E40E496030038B5074C69
S214001ED041F67133256C2364FEF762FA0021FFF7A2
S214001EE0D1FF0DB10023236438BD00BF00000E40B3
S214001EF0044BDB6B5B0604D4034AD2F8C830002BD5
S214001F00FBD1704700300E400000C64308B5FFF70F
S214001F10EFFF024B5868C0F3014008BD00300E408A
S214001F20044BD3F84421D20703D4D3F840211042FF
S214001F30FBD1704700400E4038B5054C41F6713372
S214001F40256C2364FFF79EFF0DB10023236438BD84
S214001F5000000E4038B5C0F30323013B092B16D80A
S214001F60DFE803F02616151505191C151F23124C5D
S214001F700023C0F3043513B11846FFF7D1FF04F170
S214001F80424404F5801405EBC404A400216038BD67
S214001F900A4C0023EDE70A4C0123EAE7094C10231C
S214001FA0E7E7094C4FF48033E3E7084C0023E0E70B
S214001FB0074C0023DDE700BFB0400E40C0400E4097
S214001FC0E0400E40E8400E40F0400E4050410E40CB
S214001FD000400E40C0F30313013B092B2AD8DFE86C
S214001FE003F0050B0F1929291F23374B274BD3F86E
S214001FF00001C0F304207047244BD3F81401F8E71F
S214002000224BD3F80001C0F30060431C0120984027
S214002010013870471D4BD3F80C01C0F308207047F9
S2140020201A4BD3F80801F8E7194B984204D0194B1D
S214002030984207D000207047144BD3F8203103F0A5
S2140020400F03E3E7114BD3F82031C3F30113DDE7A9
S214002050114B98420CD003F5B01303F58053984209
S214002060E8D10A4BD3F82801C0F30120031DCDE7C1
S214002070064BD3F82831E8E7084B9842DAD1034BF1
S214002080D3F8300100F00300704700BF00400E4058
S2140020908006160080162E0090171A00A00914005D
S2140020A008B5FFF797FF013008BD000000F00F00ED
S2140020B00138072844D8DFE800F0040F1943232D21
S2140020C04335244BD3F8943003F00703023B052B2B
S2140020D038D8214AD05C70471E4BD3F8803003F0C6
S2140020E00703013B042B2FD81C4AF3E7194BD3F800
S2140020F0843003F00703013B042B25D8184AE9E790
S214002100144BD3F8883003F00703013B042B1BD88D
S214002110144ADFE70F4B1B6F13F0010F0CBF0720AD
S214002120092070470B4BD3F85C3103F03003202BAB
S2140021300CD0302B0CD0102B14BF0120072070477A
S2140021400020704705207047012070470420704724
S2140021500820704700400E40D4960300DA9603002D
S214002160DF960300DA96030008B50146FFF79EFFE8
S2140021701A4B994212D01A4B994213D0194B9942D6
S21400218004D1194BD3F8800000F00700013804286A
S21400219022D8DFE800F00B0F17130B00124BD3F812
S2140021A08400F1E7104BD3F88800EDE7BDE808405F
S2140021B0FEF75AB9BDE80840FEF75CB9BDE808402E
S2140021C0FEF755B9FEF7F0F8074BD3F80031C3F326
S2140021D000630133D84008BD0020FCE70300200060
S2140021E00500240002001E0000400E4000F4781394
S2140021F0B3F5B01F10B5044674D025D8B3F5402FFC
S2140022005ED010D8B3F5802F49D005D83BB1B3F5D2
S214002210003F4FD0002010BDB3F5202FFAD1BDE807
S2140022201040FEF7C1B8B3F5801F00F08480B3F508
S214002230A01F4DD0B3F5602FECD14A48FFF736FF0C
S214002240072878D00928E9E7B3F5381F53D013D804
S214002250B3F5001F58D00AD8B3F5D01F56D0B3F543
S214002260F01FD7D14048BDE81040FFF77DBFB3F55B
S214002270101FCFD13D48F6E7B3F5481F4DD0B3F554
S214002280781F65D0B3F5401FC4D13948FFF76CFFFF
S214002290384BD3F82831C3F30123043320E0FEF78C
S2140022A083F8344BD3F80C31C3F308230133B0FB67
S2140022B0F3F0B0E7FEF778F82E4BD3F80831F3E7E3
S2140022C0FEF772F82B4BD3F81431C3F30423EDE773
S2140022D02648FFF749FF274BD3F8303103F00303B6
S2140022E0D84098E72048FFF73FFF224BD3F820312D
S2140022F003F00F03F4E71C48FFF736FF1D4BD3F837
S2140023002031C3F30113EBE71948ACE71848FFF791
S2140023102BFF184BD3F82831F3E71748FFF7C6FE14
S214002320072808D0082809D004287FF473AFBDE832
S2140023301040FEF775B8114B18686CE7FEF734F8D6
S2140023400C4BD3F80031C3F3042303FB000062E711
S214002350FEF72AF801462046FFF7A2FEB1FBF0F092
S21400236059E700BF06000E0002001E00050024000C
S2140023700300200000400E40B80032003810002055
S214002380014B1880704700BF3C100020013810B584
S214002390032812D8DFE800F0022E1220214AC1F3EB
S2140023A00801D2F86838002BFBD11F4A136A23F4C1
S2140023B0FF7323F001031943116210BD194A01F09F
S2140023C07F01D2F86038002BFBD1174A136923F03F
S2140023D07F0319431161F0E7124A01F07F01D2F83A
S2140023E06438002BFBD1104A936923F07F0319430E
S2140023F09161E2E70C4AD2F89030536A23F030033A
S21400240043F010035362146B084BC1F3C310033040
S2140024100F2803EA040328BF0F20194341EA00717E
S2140024201163CAE70020C84300400E4000F8FF0FC3
S214002430104A536A13F0300F18D0202913D03029D1
S21400244014D000290C4B08BF4FF44003D2F890106C
S21400245033EA0101FAD15B0246BFD2F8A000C0F30E
S2140024608020012070474FF40003EFE74FF440034D
S214002470ECE700BF00400E40FFF3E17F02280AD1E0
S21400248029B1064B4FF48060C3F8A800596612B114
S2140024900220FFF7CDBF0120704700BF00400E406E
S2140024A02DE9F34106460F469046072868D8DFE830
S2140024B000F0049025208B67670D4FF400714FF4F1
S2140024C0807408230925002F69D05FE001A801F079
S2140024D0C1F99DF80530012B06D94FF400414FF4A1
S2140024E080440E230F25EEE79DF80430022BF4D827
S2140024F0FEE70124022100232546E4E700294BD00D
S214002500364A536A13F0300F3DD1354BDB6B536AB6
S214002510DB0705D5536A23F0300343F010035362FC
S2140025200424022303252D4A14662E4A13449B00D6
S21400253019680029FCD0B8F1000F21D01544AD0071
S2140025402B68002BFCD0022E1AD1CFB1234F796A0C
S21400255011F001011CD0012220213046FFF78EFF2A
S214002560D7F89C60012200210220FFF799FFC6F3EE
S2140025700A010220FFF70AFF3C662B68002BFCD0FE
S21400258002B0BDE8F0810424022303250027CAE731
S2140025903046FFF74DFFE3E70821022303250F48E7
S2140025A00122016602FA03F3D0F890201A42FBD10A
S2140025B0B8F1000FE4D00123084A03FA05F5D2F873
S2140025C090302B42FBD1DBE7202110240423052585
S2140025D079E7802140240623072574E700400E4053
S2140025E000300E408004F210112838B50C4617D083
S2140025F000F00F00013807286BD8DFE800F02D0444
S214002600666A648C6A97624D013C0C2C61D8DFE8E0
S21400261004F080616860606F6060605E6060790092
S214002620042912D1FDF7FCFE0546A8B10021284674
S21400263000F086FB023C0A2C4BD8DFE804F03F3C57
S21400264030364A4A4A4A4A0F4200052904D1514BBD
S2140026501D68514B9D42E9D80025EBE70320052471
S21400266001221146FFF71CFFFFF730FC0DB1FFF704
S2140026703FFC4A4B5C67FDF7C1FE0446FDF794FE3F
S214002680FFF7DEFBFFF742FC01462046FFF754FC4F
S214002690FDB928460121BDE8384000F051BB40484E
S2140026A0FFF7CEFB02200446DAE73D48FFF7C8FBFB
S2140026B001240320D4E701200324D1E700200424CA
S2140026C0CEE70724D0E7374D9EE7374D9CE7042337
S2140026D02B6038BD012211460020FFF7E1FE0223E1
S2140026E0F6E7012211461046FFF7DAFE0123EFE770
S2140026F0FDF75AFEFFF7A4FB2C4B0122C3F8082671
S2140027000323E5E7012211460720FFF7C9FE05234C
S214002710DEE70023DCE7072904D00929D9D11F4BBF
S214002720012201E01D4B00221A67D2E74C1E072C3F
S214002730CFD801A353F824F08B270000D32600003F
S214002740D32600007D270000D3260000D3260000F5
S2140027506F2700005927000003221049D1F85C318A
S21400276023F0300343EA0213C1F85C31B1E70122DB
S21400277011460420FFF794FE0122EEE701221146DF
S2140027800220FFF78DFE0222E7E70022E5E700BF02
S21400279080400E400C100020002D310100400E40FD
S2140027A00148E80188400E4084400E400010C843AF
S2140027B010B504461120FFF779FC00210122022003
S2140027C0FFF76EFE184A217C536A23F001030229A4
S2140027D008BF43F001035362144B2178C3F8A014DA
S2140027E0637AA18843EAC123D362136BA07A217A65
S2140027F003F07F630343E08843EAC02343EAC11340
S21400280003310F2928BF0F2143EA01731363A37B0B
S214002810617B1B0143EA0133E17B0B43217B43EAE7
S2140028200143536310BD00BF00400E400000C84384
S21400283038B50E4D01461120FFF738FCAA6B0C4B3D
S2140028400C7813401C434B7844EAC3248B7844EA44
S2140028500364CB7844EA0324AB6BA34205D0002183
S21400286001220846FFF71CFEAC6338BD00400E4050
S21400287080E4FFF80028A7BF00F1604000F5614043
S21400288000F00F00034BACBF90F80003185C400943
S214002890704700BF14ED00E0EFF3108072B670478B
S2140028A000B962B67047602383F31188704700232F
S2140028B083F311887047EFF31180602383F3118848
S2140028C0704780F3118870474209054B53F8223051
S2140028D000F01F0023FA00F0C04300F0010070472C
S2140028E000E100E008B50146EFF31083DB0702D5F0
S2140028F00122104608BDFFF7E7FF02460028F7D181
S2140029000846FFF7B7FF0146EFF3118313B1B0EBAC
S214002910531FEDD2074B5B68C3F30803002BE8D0C8
S214002920103B58B2FFF7A6FF88428CBF0022012258
S214002930DFE700BF00ED00E0436823F01F030E2929
S2140029400BD8DFE801F008080808080B0B0B08088E
S21400295008080B0B0B00194341607047194341F000
S2140029601001F9E770B5066A056A046A036A102A58
S214002970C1E90065C1E9024307D1056A046A026A33
S214002980036AC1E90454C1E9062370BD30B58B075C
S21400299089B00C4615460BD06946FFF7E3FF082DB5
S2140029A00CBF1022202220462BF082FE09B030BD3C
S2140029B00091009909B0BDE83040FFF7D3BF000092
S2140029C0034BD86B80F04000C0F38010704700BF08
S2140029D000300E4042EA0323B3F5007F39D016D804
S2140029E0B3F5807F31D007D85BB3012B1ED0002211
S2140029F0134603600A60704740F201129342F6D114
S214002A00184BD3F824321A0EC3F30743F1E7B3F595
S214002A10407F22D040F2013293420ED040F2012293
S214002A209342E4D10F4BD3F8283202E00D4BD3F893
S214002A302432C3F30722DBB2DBE70A4BD3F8283293
S214002A40E1E7084BD3F81C32F3E7064BD3F81C3209
S214002A50D9E7044BD3F82032EBE7024BD3F8203209
S214002A60D1E700BF0081E00F08B5FFF7A9FF20B14E
S214002A70024AD2F8C830002BFBD108BD0000C6437E
S214002A8008B5FFF79DFF80B1FFF7EEFF074B19680B
S214002A905A68C1F30121C2F3014291421A688CBF01
S214002AA042F0100222F010021A6008BD00300E40FC
S214002AB0064B1B68DB0608D5054B1B69C3F30443AE
S214002AC0082B02BF034B044A1A60704700300E40C2
S214002AD000400E400C100020C0EA210137B5FFF779
S214002AE06FFF38B1244B1B78C3F1020210239340CA
S214002AF0224A13612249234DD1F8804145F60E0340
S214002B00C1F880312B6823F0AA03DB05DB0D0B66CA
S214002B10FFF7AAFF194B1B68D80604F0010416D568
S214002B20D1F84031DA01FBD4174B1B680B61174B09
S214002B301B78052B0BD1164B18680190FFF794FFF6
S214002B400E4B01985968C1F30141FFF7F5F90F4B99
S214002B501978052902D01120FFF746FD2B68DB0700
S214002B605EBF074B02221A661CB1054B0022C3F853
S214002B70802103B030BD00BFE11B002000300E40B6
S214002B8000400E40D01B0020DC1B0020DA1B00207B
S214002B900C10002010B50B4C0B4BD4F890201A608C
S214002BA01120FFF783FA094B1870FFF75DFF084BFB
S214002BB0084A5B68C3F301431370074B22691A6027
S214002BC010BD00BF00400E40D01B0020DA1B0020C6
S214002BD000300E40E11B0020DC1B002070477047D1
S214002BE07047000010B5044608B1FFF7D3FFFFF7A3
S214002BF047FF164A136943F004031361FFF7EEFF1D
S214002C00FFF7EDFF124B1B68DB0618D5FFF744FEF7
S214002C1036F022FDFFF744FEFFF7E2FF01F016FD57
S214002C207CB1FFF75BFF0A4AD2F84C3123F0004331
S214002C30C2F84C3144B9BDE81040FDF7DFBB30BFE9
S214002C40EAE7FFF735FFEEE710BD00BF00ED00E056
S214002C5000300E4038B5044608B1FFF79BFFFFF77B
S214002C600FFF1B4B1B4DD3F8802145F60E01D207F4
S214002C70C3F8801148BF00224FF42071196648BF80
S214002C80C3F88021144A136943F004031361FFF765
S214002C90A5FF2B68DB0615D5FFF7FEFD36F0DCFC3E
S214002CA0FFF7FEFD01F0D2FC74B1FFF717FFD5F871
S214002CB04C3123F00043C5F84C3144B9BDE83840E8
S214002CC0FDF79CBB30BFEDE7FFF7F2FEEFE738BD40
S214002CD000400E4000300E4000ED00E0FFF75ABF07
S214002CE0FFF7FCBE70B504460E46FFF769FE10B34C
S214002CF0FFF7BAFE104B5B68C3F301439C421AD041
S214002D000E4BD3F80031FDF74FFB022C054602D1DF
S214002D102146FFF711F9C4F1020210239340064A38
S214002D2013610EB1FFF7A0FE2CB921462846BDE878
S214002D307040FFF701B970BD00300E4000400E40F5
S214002D4013B50246FFF73CFEC8B152B90D4B0191D0
S214002D50D3F80041FDF728FBC4F30422019902FBD7
S214002D600002094B1B7843B1084B9A4205D8022053
S214002D7002B0BDE81040FFF7B5BF0020F8E702B08C
S214002D8010BD00BF00400E40E01B0020002D3101AA
S214002D90034B02781A7001210020FFF7D1BF00BF55
S214002DA0E01B0020064942780B6823F4407343EA90
S214002DB00223022A0B6004BF024B5B6A704700BF07
S214002DC000300E4000400E400378134A002B437834
S214002DD070B514BF04260026002B8378946914BFB0
S214002DE002250025002B037924F03F0443EA040360
S214002DF0C47814BF08210021012C08BF43F001034A
S214002E0033432B430B4393611368417923F44033D8
S214002E1043EA0143136070BD00300E40224B4AF671
S214002E20E85210B5596B5A639A6FD207FCD41B6CE4
S214002E3013F003031EBF1D4A0124C2F8B44A83429E
S214002E4004D110B9194BC3F8B40A10BD032B00D037
S214002E509BB9431E012B10D8134A4FF40023D362AC
S214002E60936FDB07FCD4136C23F0030343F00103DA
S214002E7013640D4A536A1C03FCD50B4B9A6FD2079A
S214002E80FCD41A6C22F0030202431A649A6F12F002
S214002E900102FBD10038054C18BF01200129C4F8F7
S214002EA0B40A08BF5A63D0E700300E400000C6439D
S214002EB02DE9F04F002389B0CDE90233CDE9043384
S214002EC0CDE90633A0F5E163B3F5966F04460D46EB
S214002ED0914604D90025284609B0BDE8F08FB0F524
S214002EE0E16F674B8CBF0122002240F0BC80D3F814
S214002EF01832C3F30721DBB2079104934FF4167A16
S214002F004FF4966BDFF87C81D8F84C700192C7F3CB
S214002F1001773B4605A902A8FFF75CFDD8F8E060FC
S214002F20019AC6F30126334606A903A8FFF752FD09
S214002F30049B0799A4EB0B0EA1EB030C0EFB0CFCF9
S214002F40BCFBFAF213EB020C2CBF012300236145F5
S214002F50C0D3002BBED1069A0398131A0EFB03F3B8
S214002F60B3FBFAF3C0182CBF012300238242B1D36F
S214002F70002BAFD1059B02995A1A0EFB02FEBEFB30
S214002F80FAFA11EB0A012CBF4FF0010E4FF0000EBB
S214002F908B429FD3BEF1000F9CD1B9F1000F10D029
S214002FA0D8F85C2022F4FE4222F00202B4F5E16F6B
S214002FB042EA0C2218BF4FF0020E42EA0E02C8F890
S214002FC05C20002D4DD02E4B022FD3F830223ED061
S214002FD0032F3FD0012F14BFD2B2C2F30722120331
S214002FE012F4702F7FF476AF264FFB6E23F47043F7
S214002FF01A43234BFA66022ED3F830222CD0032E27
S2140030002DD0012E14BFD2B2C2F30722120312F43F
S214003010702F7FF45FAF1B4ED6F8E03023F470437A
S2140030201A43C6F8E020736E814238BF014623F487
S214003030FF73E72923F0010328BFE721B4F5E16F0A
S21400304018BF43F0010343EA4103736643E7C2F344
S2140030500742C4E7120EC2E7C2F30742D6E7120ED3
S214003060D4E7012537E7D3F81832190EC3F3074320
S214003070079104934FF4966A4FF4E16B42E700BF62
S2140030800081E00F00300E40304B1A6FD96C11F003
S214003090010F02F0060244D0002A42D0132851D96C
S2140030A0143813288CBF102308232849013BCA6C08
S2140030B0180322F47F4240EA03231343CB64244BD5
S2140030C0CA6C1B88C2F303222833013202EB82004B
S2140030D003EB5303B3FBF0F3C86C013B072B28BF8D
S2140030E0072320F0EE6040EA036343F48013CB64CA
S2140030F0184BB3F90030002B12DB03F12800C0F3A5
S2140031004E030344500800EB4202B3FBF2F20B6D91
S214003110072A28BF072223F0700343EA02120A6533
S2140031207047D96C01F00101114304D1092809D96F
S2140031300A380928B6E7DB6C13F00103B5D01AB9D4
S2140031402728AFE70423B0E70023AEE700300E40A1
S214003150D61B0020D81B0020064A074BD3F8803920
S214003160136F23F007031843044B10671888FFF704
S2140031708BBF00BF00300E400000C643D41B0020AB
S21400318038B504468088E388B4F90C504A2B50D9E9
S214003190B3F5FA7F4FD340F6C312934294BF4FF075
S2140031A000524FF040522949CB6C23F0405323F095
S2140031B00103002DA8BF43F001031343CB64D1F8ED
S2140031C0E03043F44073C1F8E030214B1880CB6EFA
S2140031D043F08073CB661F4BD3F8800900B1042000
S2140031E0FFF7BAFF1C4B218919801C4BB4F90C2041
S2140031F0A0881A80FFF748FFA37BFBB1012B21D0E4
S214003200012260881146FFF753FE054678B10F4A43
S214003210D36B43F48063D3636078FFF7FFFDA37A34
S214003220A3F12002534253410A4AC2F89437284673
S21400323038BD0022B7E74FF08052B4E7034B084A88
S2140032409A65DDE7014B074AFAE700BF00300E40FB
S214003250D41B00200000C643D61B0020D81B00202D
S21400326077402057372110B770B505460E461446EE
S214003270FFF712FB296881EA040202EA06044C40C2
S2140032802C60BDE87040FFF70BBB0000072AF8B5BE
S21400329001F0030614461F464FF00F0120D8950094
S2140032A000FA05F2A9401648FFF7DEFF032115488D
S2140032B006FA05F2A940FFF7D7FF13499DF8183024
S2140032C02144890001220F60C1F880300F4B02FABA
S2140032D004F4C3F824449DF81C30C1F80033F8BD4C
S2140032E0A2F10805AD0000FA05F2A9400848FFF76C
S2140032F0BBFF0321074806FA05F2A940DBE700BF3B
S21400330000A4004008A400408020851000A00040D3
S21400331004A400400CA40040F0B54AB11D4C302671
S214003320012546438D4034440BB304F1C064256048
S2140033303024444304F18044072904F5204419D876
S21400334065688E000F27B74025EA070502FA06F6DD
S2140033503543656052B9012202FA01F1302250432A
S2140033600C4A02449BB102F1C0621160F0BD04F148
S2140033708064DCE7A1F10805A668AD000F27AF4022
S21400338026EA070602FA05F53543A560E2E702F1EC
S2140033908062EAE70CA00040034B03449B0081F0E8
S2140033A001011960704700BFA001F11010B5044676
S2140033B001214FF4AA40FEF7CDFDB4F80130227883
S2140033C05BBA9BB243EA02630B4A136000231362A4
S2140033D0D36253634FF00043D3664FF0FF339366D8
S2140033E0064A4FF40071C2F88011E3785B01DBB245
S2140033F082F80933116010BD00200E4000E100E0A5
S2140034002DE9F041C3B2254E91F80AC00F7B012585
S2140034100C469D404FF03008CB7A497B08FB006095
S2140034204FEA035E2368C0F880304EEA0C4343EA56
S214003430475322F00302C0F88810C0F88430C0F862
S2140034409820B566FFF737FAF36E2B43F366237AB8
S21400345013B1736B2B437363637A13B1F36A2B4315
S214003460F3620E4B1A68237923B1DB431B0263F425
S2140034707F431A4063790BB142EA0322A3790BB16A
S21400348022EA0302E3791A43044B1A60044A95625F
S214003490DD63BDE8F041FFF714BA00BF00200E4020
S2140034A000200E4410B5C0B201248440FFF703FA92
S2140034B0054AD36E23EA0403D366044B1C62BDE8B8
S2140034C01040FFF7FEB900BF00200E4000200E445B
S2140034D0F8B5C3B2012504469D40FFF7ECF90A4B48
S2140034E030221E6E9F6A02FB0433D3F88C40FFF72F
S2140034F0E8F93D4206D1C4F30A1008B9354200D1B6
S2140035000130F8BD0020FCE700200E40036CDB070E
S21400351002D4436C0B42FCD170470000064B0B40B4
S21400352003F58073B0FBF3F203FB12000002B0FB5E
S214003530F3F000EB02207047F8FF0100074B9842BB
S21400354010B5044607D10648FEF750FEE168BDE810
S2140035501040FFF7E3BF002010BD00BF00A00440EE
S21400356090171A0008B50A468368DB06FCD540218A
S214003570FFF7CCFF826208BD054B5A685B68054BB7
S21400358041F671321A649A6822F001029A60704716
S21400359000300E4000000E40034B9A6822F00102F5
S2140035A09A6000221A64704700000E40094A0A4BCF
S2140035B0D969C90705D512B96FF002007047013AFC
S2140035C0F6E7002AF8D001221861DA60D86940F3DD
S2140035D0800070478096980000000E4070B5C1B11C
S2140035E00E4A0023082550F8234094610C4CD56001
S2140035F00133D669F60705D514B96FF0020009E065
S214003600013CF6E7002CF8D0D469A40703D499420D
S214003610E9D1002070BD6FF00100FBE700000E400E
S214003620809698002DE9F8431C4B884641F6713188
S2140036301D6C19641A49074648684968996841F03C
S2140036400101ADB2996096084FF00009B14501D36B
S214003650002005E007EB89042046FFF7A7FF48B1E6
S2140036600E4B9A6822F001029A600DB100221A648D
S214003670BDE8F883C4F30A04C4F50064A408A6EB06
S2140036800901A14228BF21464046FFF7A7FF0028B0
S214003690E6D1894408EB8108D8E700BF00000E4059
S2140036A000300E40234B41F671311A6C10B5196488
S2140036B021494C684968996841F0010199600121E7
S2140036C01861D960D9694C0792B209D5996821F07A
S2140036D0010199600AB100221A644FF0FF3026E01B
S2140036E00221D9601549D869C00700D569B9D869DB
S2140036F010F002000BD0996821F0010199600AB120
S21400370000221A646FF0010011E00139EBE741B9BD
S214003710986820F00100986002B119646FF002000A
S21400372005E0996821F0010199600AB1186410BD9E
S2140037301046FCE700000E4000300E4080969800D1
S214003740FFF770BF014B01229A60704700500E4091
S214003750134B1449F0B500225D68134E1046D6F898
S214003760E8714C680B687F070BD4B3F5006F06D082
S21400377012D8B3F5007F02D0B3F5806F01D144F4C0
S21400378080742B4202D02C4208BF18430132092A0B
S21400379001F10801E3D1F0BDB3F5803FEEE700BFCD
S2140037A000500E400C9703000040E00F8B784A78DC
S2140037B09B0143EA82030A781343CA7843EA02135A
S2140037C00A7943EAC2234A7943EA02338A79043003
S2140037D043EA42430001014A135070470020044068
S2140037E0014B1860704700BF0000844242780179A0
S2140037F00378002A827870B514BF04260026002AB3
S214003800C27814BF10250025002A42794FEA0232FA
S21400381042EA012242EA0302837914BF20240024EC
S214003820002BC37942EA034343EA0603027A43EADB
S214003830050314BF4FF4004100212343002A14BFA0
S2140038404FF4003200220B431343014A136070BD4D
S214003850002004400D4AD2F8E430D2F8E0109B0075
S21400386003F03C03C1F381110B438370D2F8E030C0
S21400387003F03F034370D2F8E830D2F8EC2003F0B0
S214003880F003C2F3031213430370704700FF0FE008
S21400389070B5054616461C4619B91448FEF7A6FC30
S2140038A00146402C1BD003D8DCB1202C1BD070BDA9
S2140038B0602CFCD1042303FB06F2560806EB4113EA
S2140038C0B3FBF2F30A4A203B02EAC3032A6822F05B
S2140038D060022A602A6814432C606B61E7E70623BF
S2140038E0E9E71023E7E70823E5E700BF40410500C6
S2140038F0F8FF7F002DE9B841154F15460F40FAB97D
S214003900202B20D0402B20D0002B14BF4024102486
S214003910012307F580775F4300233A4619462AF0CD
S21400392099FC554304FB035100FB04F8A2FB040476
S21400393000233A4621442AF08DFC4044BDE8B88175
S21400394080240025E4E71C46E2E780240323E0E722
S214003950F8FF7F0070B5044605680648FEF746FC8B
S2140039602368616905F0010203F06003BDE870405A
S214003970FFF7C0BF4041050038B50546144619B9E3
S2140039800548FEF733FC014601396400B1FBF4F14B
S2140039900902696138BD00BF40410500CB435B00AA
S2140039A003F00A03C360C1607047000040F6AA63D4
S2140039B0C36041F205020023036042600C4A836044
S2140039C04361C36482640B4A03669042436702F510
S2140039D080628367C36704D0904202D0064988425B
S2140039E000D1036500239042836508BFC365704716
S2140039F0F9FF0100000001400008014038B50C4600
S214003A00FFF7D4FFA37C05461BB1036843F0804351
S214003A100360E37C1BB1237D43F08003AB65228A01
S214003A20637B1343E28913436B60237BD4E9011263
S214003A302846FFF72DFF637D1BB12B6843F48033C8
S214003A402B60A37DE27D1B07120502F4E00203F063
S214003A50E04313432B666B6F23F030036B676A6F8C
S214003A60237E13436B672378EB6038BD38B50C466E
S214003A70FFF79CFFA17B228A0368002942F001021F
S214003A8014BF4FF48061002113430B43227D036073
S214003A900368002A14BF4FF000520022134303604D
S214003AA0A37C05461BB1E37C43F080038365237B40
S214003AB043F480536B60D4E901122846FFF75CFF9D
S214003AC0637B0BB11023EB60637D1BB12B6843F463
S214003AD080332B60A37DE27D1B07120503F0E043D5
S214003AE002F4E00213432B662378EB6038BD0369CB
S214003AF05A06FCD5416303699B06FCD5C069C0B273
S214003B00704703695B06FCD54163704738B50446C9
S214003B102EF0B1FC0FCC044D0FC594E80F0085E8DD
S214003B200F00002038BD00BFE41B002047F6FF73DF
S214003B309A42F0B562D0022962D8324E06EBC10036
S214003B4016F831308578012DB8BF0125012B4FEAD4
S214003B50C1070DD1C3785B1B23B1416831F913103F
S214003B60914202DC5819C0B2F0BD013B1BB2F3E72C
S214003B7040680028F8D0B0F90030934204DBB0F972
S214003B8002309342B8BF134682883E44FF2A08BFDD
S214003B90B0F90640767807BFB0F908100122C824AD
S214003BA0002218BF2821E41A94FBF1F4224414B230
S214003BB0721EA242A8BF22464FF47A7700EBC204D8
S214003BC00132E188A46812B213FB014121EAE171D7
S214003BD0B24201F5FA71B1FBF7F104DA00EBC20468
S214003BE0A4888C42EAD200EBC20232F8040C884267
S214003BF028BF0846A84238BF2846B4E7FF20B3E7E8
S214003C000020B1E7E41B00200229F0B55FD8314B55
S214003C1013F83100012816D103EBC1018C78C8785F
S214003C20012C2346B8BF0123904294BFC3EB000388
S214003C30C3EB0203DBB2001B4A688342C8BF002303
S214003C4032F91300F0BD002A3FD003EBC1014C68E7
S214003C50002C3CD08B78934202D3B4F90200F1E7F3
S214003C60CB78B4F900009342ECD94B78A188FF29B1
S214003C7014BF03F1FF33023BDBB2251D002104F124
S214003C800C071FFA82FCCEB2B34216D805EBC10170
S214003C904FF47A75B1F9023049686A43521A03EB59
S214003CA0D37102EB610292FBF3F29042CADBB4F9E5
S214003CB002009042C6DC10B2C4E737F831E0E645B1
S214003CC001F10106E2D33146DDE70348BAE70348CF
S214003CD0B8E700BFE41B00200CFEFFFF0080FFFFDC
S214003CE008B50448FFF712FFBDE8084001202EF093
S214003CF00DBC00BF549703007FB5094B094902224B
S214003D00CDE901234FF08373CDE903134FF0FF3065
S214003D100D2301A905932EF0C9FC07B05DF804FB3E
S214003D20006A180006010C007FB5094B6A4603F1CD
S214003D301006154618685968144603C40833B3427B
S214003D402246F7D12846FFF71BFA002004B070BDC4
S214003D500C98030013B502230024684600948DF8DF
S214003D6004408DF80530FFF72FF8204602B010BD4E
S214003D7070B5164B86B001AA03F1100615461868F2
S214003D805968144603C40833B3422246F7D11B8849
S214003D9023800F4BD3F8B42012030ED4D3F8B830D8
S214003DA0C3F308030B48ADF80A30FCF73FFB284680
S214003DB0FEF7FEFC002006B070BD074B1B884FF6D2
S214003DC0FF72934208BF4FF4A573EBE71C980300FD
S214003DD00081E00F00F049020001E00F07B5084B34
S214003DE018680190202301A88DF80430FEF720FD06
S214003DF06420FEF7C5FA002003B05DF804FB00BFA0
S214003E002E98030010B50C480C4C6FF00402A0214D
S214003E1012F0800FD3B21BBF03F00F03043BA318AE
S214003E201B1802F101020CBF83F8001319762F2A23
S214003E30EED1002010BD00BF00ED00E000E100E084
S214003E40BFF34F8FBFF36F8F054B5A6A22F4803251
S214003E505A62D3F8942022F00102C3F894207047E7
S214003E6000ED00E0013A42EA520242EA920242EAD9
S214003E70121242EA122230B542EA12420132B2F57A
S214003E80807F38BF4FF480725442044015198D422B
S214003E9005D31C60039B1D60049B1A6030BD520056
S214003EA0F2E70000F0B5364D36493748002387B0B4
S214003EB0CDE90333FFF7C4FF2C68344B4FF00052B4
S214003EC0C3F89840661CC3F89C208142304AC3F869
S214003ED0A0202E6042D005AB019304AB0A1A0093D3
S214003EE003ABFFF7BFFFDDE90372059BDFF8A4E035
S214003EF0072BA2EB01024FF001018CBF4FEAD30C57
S214003F004FF0200CB2FBFCF201FA02F2013AD2B2F8
S214003F10AEEB070EB3FA83F3BEFBFCFEC01B8E446B
S214003F20B0FBFCFC01FA0CF102FA0EF20139C3F107
S214003F301E030A435B0002F0FF0203F03E0343EA5F
S214003F40022343F04073114A43F001130234C2F8CF
S214003F509860C2F89C70C2F8A0302C60BFF34F8FF8
S214003F60BFF36F8F094B0522C3F894205A6A42F4B8
S214003F7080325A62BFF34F8FBFF36F8F07B0F0BD2A
S214003F80041C00208C1200207412002000ED00E0BB
S214003F90390001138B120020F0B589B00023CDE95B
S214003FA005330392FFF74CFF07AB019306AB039A6A
S214003FB0009305ABFFF756FF079A069B059D072A59
S214003FC003F1FF338CBFD70820275B1A4FF0010C94
S214003FD03B44B3FBF7F30CFA03F3013B0446DBB2B6
S214003FE0E8430144B1FBF7F103FA01F123183B441F
S214003FF0B3FBF7F30CFA03FC0CF1FF33194301F0A3
S214004000FF01FF2929D0B2FA82F3C3F11E03144C34
S214004010144A2068C2F898005B0003F03E0343EAA7
S214004020012343F0985343F001130130C2F89C502B
S214004030C2F8A0302060BFF34F8FBFF36F8F052309
S214004040C2F89430536A43F480335362BFF34F8F01
S214004050BFF36F8F002009B0F0BD2820FBE700BF3C
S214004060041C002000ED00E0BFF34F8F0549064B0F
S214004070CA6802F4E0621343CB60BFF34F8F00BF01
S214004080FDE700BF00ED00E00400FA0508B5FFF705
S214004090EBFF08BD034B1B78002B14BF012002204A
S2140040A0704700BF341C00200329F8B598BF134B97
S2140040B0054698BF5C5C0E4688BF0024032805D8DA
S2140040C0DFE800F002080B0E44F002040C4B1F68F9
S2140040D04FB9F8BD44F00804F8E744F02004F5E7CB
S2140040E044F08004F2E77B681A68144203D05B68E9
S2140040F03146284698473F68EAE700BF48980300DD
S214004100301C00202DE9F041FEF7C6FB174B93F854
S21400411000800446B8F1000F03D0BDE8F041FEF77A
S214004120BFBB134E134D337853B928780121FFF7E0
S214004130BBFF01232B70104B2A781A702046ECE741
S2140041400E4F3B781BB100F0A0FA87F800800020E5
S21400415000F09CFA18B10023337000F099FA337817
S214004160002BE2D0064B01221A70E4E7281C002040
S2140041702B1C0020201C0020211C0020291C0020B5
S2140041802C1C0020014610B5064A0446012000F00B
S214004190AFF9054A002C137814BF0121FF210B4408
S2140041A0137010BD32980300341C002070B5134EF7
S2140041B0FEF772FB337805469BB900F065FB0446B4
S2140041C020B12846FEF76CFB204670BD00F076FC5A
S2140041D00B4B186000F07AF90A48FCF79FF80A4B78
S2140041E01C6000F0DBF900F091FA084B1860012320
S2140041F0284633700024FEF753FBE5E72A1C002010
S214004200381C0020301C00203C1C0020241C0020F1
S2140042102DE9F8430E460546FEF73EFB2A4A2B4F8D
S2140042200446681E002E135C14BF0121FF210B44B8
S21400423013543A78012A41D9FFF72CFF82420546EB
S2140042403CD9234E33781BB100F01FFA002333709D
S214004250204B214E1A78CAB14FF0000883F8008030
S2140042601E4B20464FF0010983F8008086F8009028
S214004270FEF716FB484600F009FAFEF70DFB33780A
S21400428004461BB100F004FA86F80080337873B158
S2140042902046FEF705FB012000F0F8F9FEF7FCFAD1
S2140042A0337804461BB100F0F3F9002333703878F6
S2140042B0A84203D02946FFF7F7FE3D702046BDE82A
S2140042C0F843FEF7EDBA00BF341C0020201C002087
S2140042D0291C00202B1C0020281C00202C1C002041
S2140042E038B541600446FEF7D7FA2146054604482D
S2140042F0FCF717F82846BDE83840FEF7D1BA00BFED
S214004300301C0020054B1B68584300F57420044BF6
S21400431000F23F20B0FBF3F0704700BF381C0020CF
S21400432040420F002DE9F04385B0FEF7B5FA04468B
S21400433029F0F3FD002877D0594E5A4F337823B131
S2140043400020FFF71FFF00233370FFF7A3FE05468C
S21400435000286FD0851EEDB2012D72D9FFF79AFEA8
S2140043600128054604D9504B1B780BB900F06CF9B0
S214004370DFF85081DFF8509198F80000A84207D087
S21400438099F8003013B92946FFF78EFE88F80050DA
S214004390012D0CD9444D2B784BB9444B1B7823B9CF
S2140043A000F072F9424B01221A7001232B7098F824
S2140043B0000000F095F999F800301BB13D4B1B78D2
S2140043C088F80030AFF300802046FEF769FAFEF763
S2140043D063FA0446384600F091FA29F0A9FD05462E
S2140043E00028ABD1304B1A787AB1314F18703B7831
S2140043F089F8000013B100F048F93D70002000F085
S21400440045F9002842D000F043F9337823B1002064
S214004410FFF7B8FE0023337098F800000021FFF77E
S21400442043FE002388F80030204605B0BDE8F04380
S214004430FEF736BA3378002B90D0FFF7A3FE357020
S2140044408CE703A9002000F0DBFA0546002885D19A
S214004450194B039A1B689A4205D80120FFF792FE73
S214004460012333707AE7154BD3F8008000F052F939
S214004470039940448842F0D20223CDE90053091A3A
S2140044800F4A2B46384600F061FA67E7012000F035
S21400449027F92046FEF704FAFEF7FEF90446ADE7D4
S2140044A0371C0020081C00202B1C0020361C002077
S2140044B0291C0020211C0020241C00203C1C00205D
S2140044C005410000201C00202C1C002070B5064D65
S2140044D0064E0024294630460134FBF722FF0A2CFC
S2140044E005F10805F6D170BD401C0020901C002088
S2140044F070B5154660B1134B013803EB800671B1F9
S2140045001148FBF712FF014618B9104B01221A702A
S21400451070BD45603046BDE87040FBF702BF53F8FB
S2140045202040002CF4D0606829462AF0E6FC08B14A
S2140045302468F6E721463046FBF7FFFE0248214690
S214004540E9E700BF981C0020901C0020941C002067
S21400455073B5104E33788342044611D000238DF88D
S214004560043078B101A88DF805300B4DFEF71AFC23
S2140045701E204CB1FFF7C6FE2B68181A2860347050
S21400458002B070BD0223EDE7FFF7BCFE2B681844AF
S214004590F4E700BF3E100020AC1C002073B50024DA
S2140045A001A88DF80440FEF7F3FB2046FFF7D0FF86
S2140045B01F4AD2F8903003F00403A3421D4B0CBFF1
S2140045C0214601211970D2F890301B4CC3F30033FA
S2140045D0237005D04FF41670FFF794FE174B186043
S2140045E02378174DE3B11120FDF700FE104B154E52
S2140045F0D3F800215C6CC2F30422C4F30B440023FE
S21400460002FB000201341946501E04EB8404E4FB4E
S214004610060129F01FFEFFF775FE2B681844286078
S2140046206420FFF76FFE2B681844286002B070BD48
S21400463000400E40AA1C0020A81C0020A41C00203D
S214004640AC1C002040420F00FEF748BB08B50B4BE1
S2140046501B7893B1022000F0D7FB70B100F002FA8D
S21400466058B1002201210220FDF71AFF00F000FADF
S214004670034B1860034B01221A7008BDAA1C0020C9
S214004680A01C0020A91C002070477047012070471E
S21400469038B50E4C0E4D23782BB92B781BB100F095
S2140046A0E7F90C4B1860FEF71BFB2B786BB10A4A38
S2140046B0D2F890301B07FBD500F0DAF9054B1B68E3
S2140046C0C01A064B18600023237038BDA91C0020B2
S2140046D0AA1C0020A01C002000400E40A41C0020A5
S2140046E002280AD003280BD001280CD1064A1369E9
S2140046F023F00403136130BF70470020FEF772BA40
S2140047000020FEF7A7BA704700ED00E04FF41670E1
S214004710FFF7F8BD044B1B680BB103EBD303034A4A
S21400472010681844704700BFA41C0020AC1C002072
S21400473030B50F4C41612368ABB92060836011E04F
S214004740891A9A6841611D462AB113465A698A42F7
S214004750F6D955B11A46A8601346836013B15A6954
S214004760511A596130BD0025F0E72060F5E700BF1B
S214004770C81C002038B500F0F3FA094B094A19683E
S21400478039B113684C69C51AAC4204D323441B1ACA
S2140047904B61106003E0001B002310604B6138BDC6
S2140047A0C81C0020B41C002038B50F4B0F4D1C68E9
S2140047B02B685B6902201C4400F000FB204600F0DA
S2140047C0D5FA0B492A6800230B70D088800702D5DB
S2140047D001230B7038BD9268002AFBD05069034451
S2140047E0012BF2D9F6E700BFB41C0020C81C00203D
S2140047F0BC1C002070B59DF81450057100251646A7
S2140048008560049ABDF81850C580C0E90336044692
S21400481002600D4629B941610BB11146984796B121
S2140048203546FEF748F80646FFF7A4FF2946204619
S214004830FFF77EFF054B1B68A34201D1FFF7B4FFCD
S2140048403046FEF73EF8002070BD00BFC81C0020B2
S2140048500C490B6800227BB183420AD183687AB187
S214004860936083681BB15A6941690A445A61002003
S21400487070471A469B68EEE70028EFD00220704784
S2140048800B60EEE7C81C002070B5154EFEF713F857
S21400489034780546FCB9134B1C60134B1C60134B55
S2140048A01C8000F019FA012000F088FA00F0D4FA13
S2140048B00F4B0246186020B92846FEF702F8232060
S2140048C070BD23460B4840F2E73129F0C3FC0A4B83
S2140048D01860012333702846FDF7F3FF0020EFE74A
S2140048E0B01C0020C81C0020B41C0020BE1C0020E9
S2140048F0C41C002018FCFFFFB81C00202DE9F04166
S2140049000546F8B1FDF7D7FF0F4F0646FFF732FF13
S2140049102846D7F80080FFF79BFF044628B13046AC
S214004920FDF7CFFF2046BDE8F081A8453B6803D1E0
S21400493023B1FFF739FFF2E7002BF0D1022000F099
S2140049404BFAECE72224EDE7C81C002070B586B0D1
S214004950154605911E46044680B1FFF7CFFFBDF809
S2140049602C3002939DF828300599CDE9006300228B
S2140049702B462046FFF73EFF06B070BD2220FBE721
S21400498038B50C46054698B191B100230B70FDF77B
S21400499092FF084B1B6801210BB122781AB1FDF774
S2140049A090FF002038BDAB4214BF9B682170F3E730
S2140049B02220F7E7C81C0020F0B587B01F4600236A
S2140049C00D4616468DF817300446A0B10DF11701B6
S2140049D0FFF7D6FF9DF817207AB9BDF8343002935A
S2140049E09DF830302946CDE9007320463346FFF760
S2140049F001FF07B0F0BD2220FBE70320F9E7000027
S214004A002DE9F04107468846FDF755FF134B1C6815
S214004A100546002624B92846FDF753FF1B2016E05E
S214004A2063691E44E388BB4215D10D4C00F098F92B
S214004A302368C01AB0420CD200F092F922683244C1
S214004A40121A2846C8F80020FDF73BFF0020BDE8F4
S214004A50F0810022F5E7A468DCE700BFC81C002050
S214004A60B41C0020014B1878704700BFBC1C002007
S214004A7038B5FDF720FF054600F072F904462846D3
S214004A80FDF71FFF204638BD70B5FDF714FF06463C
S214004A9000F066F9084B1D8804460120ADB200F010
S214004AA0B3F918B100F05CF9013504463046FDF75D
S214004AB008FF2046294670BDBE1C0020014B186822
S214004AC0704700BFC41C00200A4B1B68834210B509
S214004AD00C460CD3084B19684FF47A720023A0FBDF
S214004AE0010129F0B7FB01302060002010BD212015
S214004AF0FCE700BFB81C0020C41C00200E4B1A6840
S214004B004FF47A7110B5A0FB010182B1531E134217
S214004B100DD1B2FA82F2C2F11F04531CE040D24318
S214004B2001FA03F3184321FA02F2104310BD0023E2
S214004B3029F090FBFAE700BFC41C0020164B834206
S214004B40164B8B4170B5144624D3154B4FF47A752B
S214004B501A68A0FB050305FB0131A2B1551E1540DE
S214004B6011D1B2FA82F3C3F11F065A1C01FA02F2FF
S214004B70DB43F04021FA03F310431843F140C4E945
S214004B800001284670BD002329F064FB0025C4E917
S214004B900001F6E72125F4E7EFA7C64B3789410069
S214004BA0C41C00202DE9F84F0446E0070BD5404A08
S214004BB0138801339BB21380FFF7DCFD3D4B1B6867
S214004BC00BB1FFF7F1FDA10770D5DFF8F09000F00C
S214004BD0C7F8D9F800700646C71BFDF76CFE4FF005
S214004BE0000805464246C346324B1C6814B163694A
S214004BF0BB4216D9B8F1010F52D1D3889A1E534240
S214004C0053412D4A1370002C4CD06369C9F80060DC
S214004C10DB1B6361FFF7C8FD2846BDE8F84FFDF7CC
S214004C2050BEC9F8006023463A465969914209D8F1
S214004C30187994F804C0844588BF1C469B68521AAD
S214004C40002BF2D12846FDF73CFE6569C4F814B087
S214004C50FDF731FE82462046FFF7FAFD5046FDF787
S214004C6030FE23694BB1FDF726FE216982462046B9
S214004C70FFF75EFD5046FDF724FEE36813B121689A
S214004C802046984700F06CF835447F1B8246074460
S214004C90FDF711FE08F10108054622465646A3E731
S214004CA00023AEE7022000F097F8B5E7BDE8F88FDE
S214004CB0BE1C0020C81C0020C01C0020B41C002005
S214004CC010B5FDF7F8FD034B1C78FDF7FAFD2046FE
S214004CD010BD00BFC01C002010B51D4B86B0186864
S214004CE0596803AA03C2197AD3F809001170019013
S214004CF0B3F80D201748DB7BADF8082001218DF8AE
S214004D000A300024FDF726F903A88DF80C408DF82C
S214004D101040FEF76BFD01A901208DF80440FEF758
S214004D2045FD0D4A536A23F4FF6323F007035362DD
S214004D3040F2FF73136201209460FEF751FD074BAB
S214004D404FF00042C3F880211A6006B010BD00BFC5
S214004D504C980300A00914000020044000E100E085
S214004D60014B9868704700BF00200440114A9368C2
S214004D70516D9269520704D4CA1A032A01D899427F
S214004D800DD1C21A022A98BFD81C0A4BB0F1FF3FB9
S214004D9038BF013858655A6A42F004025A62064A19
S214004DA0137833B103490B6D43F002030B65002300
S214004DB013707047002004403F1000208207054A09
S214004DC000F00103516A48BF43F004030B435362EB
S214004DD0704700BF00200440820700F0010309D599
S214004DE0074A0121117007490A6D22F0030243F0B9
S214004DF004030A6503494A6A22EA03034B627047C2
S214004E003F10002000200440064B01289B6904D078
S214004E10022805D1C3F38000704703F001007047F5
S214004E20002070470020044010B5FDF744FD094AF5
S214004E3093690446590703F0010003F0070348BFCF
S214004E4040F002001362FFF7ADFE2046BDE81040BA
S214004E50FDF737BD002004400148FDF7C7B900BF85
S214004E60A009140008B528F0D3FF29F01DF829F092
S214004E7024F829F02BF8BDE8084029F030B808B52A
S214004E8029F02FF829F02EF829F02DF8BDE8084073
S214004E9029F02AB810B50446FBF7B0FA4FF47A7337
S214004EA05C43B0FBF3F30648B0FBF3F0B4FBF0F062
S214004EB0032804D9BDE81040800800F009B810BDEA
S214004EC040420F000000000000000000000000004C
S214004ED0013800D0FCE7704701F076BA01F074BAEA
S214004EE008B505481822002129F00AFCBDE808404C
S214004EF001202CF06FBF00BFD81C002007B5FFF7BD
S214004F00C3FD6A46FFF71AFE28B1054B054A064858
S214004F105E2129F021FB009803B05DF804FB00BF7A
S214004F205C980300099903007398030030B518488D
S214004F3085B00D461446FFF7E1FC164B2C441C606A
S214004F40FFF7DCFF144B201A00284FF001041C70FA
S214004F5004DC05B0BDE8304001F036BA03A9FFF71F
S214004F60B3FD034628B10D4B0D4A7B210D4829F0B1
S214004F70F3FACDE900040C4A03990548FFF71CFD37
S214004F8018B1064B064A7F21F0E705B030BD00BFDA
S214004F90D81C0020D01C0020CC1C00205C980300ED
S214004FA0F198030073980300D94E000008B5FFF788
S214004FB0A5FF054B1B782BB1044B1B68834201D918
S214004FC0181A08BD0020FCE7CC1C0020D01C0020CE
S214004FD008B50348FFF792FC024B00221A7008BD82
S214004FE0D81C0020CC1C00202DF072BB70B5104ED3
S214004FF030680D4614462CF01FFF0E4B2C441C60E8
S2140050002DF066FB0C4B211A012200291A7003DCD6
S214005010BDE8704001F0D8B9084B30682CF0FEFEB1
S21400502028B1074B074A0848D92129F095FA70BDE0
S214005030FC1C0020D41C0020CD1C0020DD4E0000EF
S214005040BA980300D99803007398030008B5044B78
S21400505018682CF0F1FE034B00221A7008BD00BF42
S214005060FC1C0020CD1C002070B50446FDF723FC78
S214005070124B1B78054663B1114B1E68FFF73EFFC7
S214005080301A002805DC2046FFF7A2FF204616F05F
S214005090A5FF0C4B1B7863B10B4B1E682DF018FB5D
S2140050A0301A002805DC2046FFF7D0FF204616F011
S2140050B0CDFF2846BDE87040FDF703BCCC1C0020A1
S2140050C0D01C0020CD1C0020D41C002020B1034B97
S2140050D0984214BF01201720704700BF0BE000F075
S2140050E02DE9FF410E46174632B329B3DFF84C8050
S2140050F00402002545EA040141F4003103ABD8F868
S2140051000000019102AA2CF02DFAFFF7DFFF172806
S21400511001990AD1D8F800003B4632462CF08AF9AD
S21400512004B0BDE8F041FFF7D1BF10B901350B2D33
S214005130E0D104B0BDE8F0810720FAE714100020A3
S21400514008B50A4B186890F834301BB1084B00229B
S2140051501A7008BD074B19682CF09CF8FFF7B6FFCD
S2140051600028F6D1024B0122F2E700BF14100020FF
S214005170F01C0020181000202DE9F04F09028DB019
S21400518041F400370026DFF8C4B004929946B246D0
S214005190172447F00A053B460422DBF8000000957A
S2140051A008A92CF025FA08AB03903218964201D1D4
S2140051B0002336E0049953F8047B8E4243D107ABB4
S2140051C0DBF8000006AA39462CF0CCF9FFF77EFF84
S2140051D0044628BB079B1FFA83FAB9F1000F1FD0BD
S2140051E0169AEAB15046CDF814A029F041FA059B6C
S2140051F0024680463946DBF800002CF065F9FFF7DA
S21400520065FF044640B9169B1A88524528BF524689
S2140052104146484629F04CFA404629F031FA5CB936
S2140052200123039A032A05D90A2E07F1010701DC98
S214005230002BB0D0169B13B1169BA3F800A02046F7
S2140052400DB0BDE8F08F0136B0E700BF14100020A7
S2140052502DE9F04F090241F40036DFF890B08BB02C
S21400526090460027172446F00A053346DBF8000070
S2140052700095042206A92CF0BBF93B1882460DF1D6
S21400528018090393039B9F4201D100231EE0474564
S21400529059F8046B02D0B8F1FF3F24D105ABDBF818
S2140052A0000004AA31462CF05DF9FFF70FFF044614
S2140052B040B9DBF8000031462CF0A4F9FFF706FFF2
S2140052C0044660B9B8F1FF3F0DD00123BAF1030FD1
S2140052D005D90A2F06F1010601DC002BC5D02046B1
S2140052E00BB0BDE8F08F0137CCE700BF14100020EC
S2140052F0F8B516464FF0FF320D461F46FFF7A8FFDB
S21400530008B1172806D13A4631462846BDE8F84087
S214005310FFF7E6BEF8BD10B50024A1B24FF0FF328D
S21400532000200134FFF794FF082CF6D110BD0000D2
S21400533008B5FEF70DFA034B1860BDE80840FEF707
S21400534001BA00BFF41C0020BFF34F8F0549064B7F
S214005350CA6802F4E0621343CB60BFF34F8F00BF0E
S214005360FDE700BF00ED00E00400FA05054B1B78E2
S21400537003F0FF0023B1044B1B681878C0F34010FD
S214005380704700BF0820002010200020064B074A68
S2140053901B6812781B8802F0FF0022B103F007009A
S2140053A0C31E584258417047102000200820002095
S2140053B0054B1A79824205D85A79824238BF0023B3
S2140053C0184670470023FBE7041D002083884BB176
S2140053D08268013282604288013B013A42808380C3
S2140053E0002070470120704738B50C468A888968C7
S2140053F0054629F05DF9E16841B1A0886288121A75
S21400540092B22844BDE8384029F052B938BD0000B1
S21400541037B504461C4B1D4D216818689B880090C4
S214005420ADF804302868D1B100222CF0B1FF237902
S214005430834206D0164B174A40F23121164829F00F
S2140054408BF80122032328688DF8003011462DF0D2
S2140054500AFC60B1114B0F4A40F23721EEE72DF0FF
S214005460D1FB20B10D4B0B4A40F24121E6E72868FC
S21400547069462CF0EAFF20B1084B064A40F2452167
S214005480DCE703B030BD00BF609B0300FC1C0020BF
S21400549020990300B19B030049990300BA980300C2
S2140054A038B504460D46FDF706FA064B1A8892B242
S2140054B02DB114431C80BDE83840FDF702BA22EA3D
S2140054C00404F7E7001D002010B5FFF74FFF30B9C2
S2140054D0104B114A40F2F371104829F03DF8104B7A
S2140054E01B881B0704D40F4B0B4A40F2F471F3E7FA
S2140054F00D4B0E221A7000240C4B214608201C70FF
S214005500FFF7CEFF0A4B18682CF044FC094B1C70C2
S21400551010BD00BF90990300F79B03004999030054
S214005520001D0020A299030009200020082000206A
S214005530FC1C0020F81C0020427A70B590F90A6026
S214005540C57A046832B1084B00225E759D759C6072
S214005550DA6070BD054BC3E90242DA7D5E7561F321
S21400556000029D75DA75F4E7401F0020681F0020D2
S21400557038B51D460B4B14460A46014618682DF0F2
S21400558068F808B1002038BD6088A368411C89B25D
S21400559029801B788B42F5D103387B288CBF0020EE
S2140055A00120F0E7FC1C002000210420FFF778BF54
S2140055B02DE9F0431B4BDFF87C801B4F187085B03D
S2140055C0D8F800000D461646002101223A702CF04D
S2140055D0DCFBE8B2FFF7ECFE0446F0B1DFF85890CB
S2140055E0D9F80030984203D0FFF712FFC9F8004000
S2140055F0FF238DF804300D4BD8F80000CDE90236B5
S214005600324601AB29462CF04FFC38B1084B7F22BE
S2140056101A7002233B70012000E0072005B0BDE8A9
S214005620F08300BF141F0020161F002020A10700D3
S214005630151F0020FC1C0020101F002008B50E4B74
S2140056401B889B0713D501280C4B11D10F22002174
S21400565020201A70FFF724FF00210220FFF720FF0A
S214005660074B18682CF096FB064B00221A7008BDF4
S2140056700B221A70F0E700BF001D00200920002052
S214005680FC1C0020082000202DE9F0471446A2024A
S2140056908AB005461E461AD5A44B1B78002B00F090
S2140056A0EB8005A92DF01CFB002840F0FF809DF83C
S2140056B01C30032B00F0D9809DF81C30022B06D13D
S2140056C0BDF814000EF03EFC002880F2D480E30102
S2140056D004F0807240F1FB80954B1B889F070DD528
S2140056E002200021FFF7DCFEFFF740FE07460028F9
S2140056F000F0E48001210820FFF7D2FE200775D5D0
S21400570028462CF0AEFFDFF83C82014605AAD8F802
S21400571000002CF097FF8146002867D09DF81430D3
S214005720072B63D10DF1020305AA01A9FFF720FF9D
S21400573000285BD005A8FFF749FE002856D1BDF823
S2140057401830002B40F0D280089B1F789DF80D3053
S214005750002B00F0CD80BDF80230052B46D107F0B7
S2140057600703022B42D1DFF8F8A105A9DAF80000FA
S214005770FFF73AFEBDF80230D8F80000AAF8043069
S21400578049462CF070FFFFF7F1FD40B3694BDAF89D
S21400579000201B6892789B789A4220D19DF80A30A8
S2140057A023B3BDF80230D8F80000013301A9ADF8E4
S2140057B008302CF052FF0146C0B901A8FFF7BCFE26
S2140057C05D4B19705D4B08201970FFF769FEFFF7F7
S2140057D0DDFD20B1F90642BF594B01221A70FFF7D2
S2140057E0D5FD18B9D8F800002CF0D4FAA2014FF075
S2140057F000080CD5524F41460420FFF751FE3B7877
S2140058002BB1504B18682CF0C5FA87F8008014F0BE
S214005810084F01D0FFF7C8FEA30001D5FFF7C4FE6E
S214005820A70705D5424B1B88180701D5FFF74CFE86
S21400583071060AD53E4F3B881A0701D5FFF744FE8E
S2140058403B885B0701D5FFF7AFFEF70540F1A88060
S21400585028462CF073FA0B2840F084803A4B3B4ADB
S21400586040F60C013A4828F077FE05A80EF084FBB7
S2140058700028FFF621AF28462DF030FAB0B9314B9C
S21400588005A918682CF0E2FE05A8FFF79FFD002882
S2140058907FF41DAF079A089BBDF81810002918BFA3
S2140058A013461A7862F07F021A7010E702283FF457
S2140058B00EAF284B284A40F25771D3E7214B1868A1
