S01900006275696C642F64656275672F6F742D7263702E73333711
S21400000000100020490200004502000045020000E2
S214000010812A00004502000045020000450200005B
S21400002045020000450200004502000045020000AF
S214000030450200004502000045020000450200009F
S214000040450200004502000045020000450200008F
S214000050450200004502000045020000450200007F
S214000060450200004502000055300000954400009F
S214000070450200004502000045020000450200005F
S214000080450200004502000045020000450200004F
S21400009045020000A10700004502000045020000DE
S2140000A045020000A1080000790800004502000093
S2140000B0450200004502000045020000D91B010071
S2140000C07D1B0100791B01005D140100D51B01009A
S2140000D0811B0100991B0100851B01009100010096
S2140000E0191C010045020000450200004502000000
S2140000F045020000450200004502000045020000DF
S21400010045020000450200004502000045020000CE
S21400011045020000450200004502000045020000BE
S21400012045020000450200004502000045020000AE
S2140001304502000010B5054C237833B9044B13B1C3
S214000140044800E000BF0123237010BDB413002054
S21400015000000000944C010008B5034B1BB1034996
S214000160034800E000BF08BD00000000B8130020F0
S214000170944C0100A3F5803A704700BF174B002B44
S21400018008BF134B9D46FFF7F5FF00218B460F4631
S2140001901348144A121A08F0D8FE0E4B002B00D053
S2140001A098470D4B002B00D09847002000210400F4
S2140001B00D000D48002802D00C4800E000BF08F0F3
S2140001C069FE2000290008F081FC08F03DFE00BF13
S2140001D000000800000000000000000000100020E2
S2140001E0B4130020983B0020000000000000000030
S2140001F0042208B511460123032001F009FF002060
S21400020008BD042208B511460023032001F000FFB4
S214000210002008BD08B508F067FBBDE80840FFF7FA
S214000220E7BF704705490A681318054883428CBF24
S2140002304FF0FF320B601046704700BF00100020E2
S21400024000800120FEE7000008B500F013F8064B1A
S214000250064A07498B4201D3FFF790FF52F8040B7A
S21400026043F8040BF6E700BF001000209C4C01008A
S214000270B4130020044B054A9A60D3F8882042F451
S2140002807002C3F88820704700ED00E00000000010
S214000290014B1868704700BF08100020014B18601B
S2140002A0704700BF08100020084B1B6F03F00703C1
S2140002B0022B04D0032B05D0012B05D0FEE7044B00
S2140002C018687047034BFBE7034870470080004000
S2140002D0081000200C100020002D310108B5FFF793
S2140002E0E3FF054B1B6FC3F301330133B0FBF3F0A1
S2140002F0024B186008BD00BF0080004004100020BC
S2140003000048704700B4C404014B1868704700BF2B
S2140003100C100020054B1860054B1B6F03F00703FD
S214000320032B01D1FFF7DABF704700BF0C10002087
S214000330008000400020704700487047002D3101C3
S214000340174B9868C0F304400C2822D8DFE800F06A
S214000350092121212121071719211B1D1F001148E2
S21400036070479B6803F04073B3F1807F13D0B3F1FE
S214000370007F12D00C4A002B08BF104670470B486F
S21400038070470B4870470B4870470B4870470B4840
S2140003907047002070470A4870470A48704700BFF9
S2140003A00040014A405DC60000093D000024F400FC
S2140003B0C0EA210180BA8C010048E801005A6202B6
S2140003C080841E0040420F004FF4004070474FF4F8
S2140003D07A707047014B1868704700BF10100020F5
S2140003E02DE9F04F9A46564B85B01B7806460F46C9
S2140003F01546DDF83C909DF844B0DDF85080002BA3
S21400040000F08D80072A00F28C800E9B002B00F0F7
S2140004108880B9F1000F00F08480129BB3F5006F5E
S2140004207FDC012802D1109B002B7AD0454B03EBD2
S21400043005131B7B002B76D0434C10220021684608
S21400044008F083FD04EB45141022002F59D13946DD
S214000450204608F07AFD43F210036380BBF1000FDC
S21400046003D1E37843F00303E370374A0E9B02EBB5
S214000470451CCCE90193129B6901013BC3F30A00BA
S2140004809DF84C30012E03F003034FEA836343EAE2
S214000490001E53582D48CDF800A000EA03004EEA8F
S2140004A00003535041D113230CF1100ECCF80C303E
S2140004B09CE80F008EE80F006FF00301DCF81C20AC
S2140004C0109B61F39F02012FCCF81C20CCF814304F
S2140004D003D1CCF81890CCF804300027194A29012B
S2140004E002EB051342F80180159A28465A606946C1
S2140004F022469F605E7301F003FE384605B0BDE8F5
S214000500F08F0021204608F020FD4FF444736380EE
S214000510BBF1000FA9D1E37843F03003A4E70C4801
S214000520ECE70C48EAE70C48E8E7B8F1000FD4D14E
S2140005309CF8023068F304138CF80230CDE700BF55
S21400054050150020D0130020501400200F80FFF319
S214000550028000F0018000F0078000F038B5124BF2
S21400056005461B78DBB1E0B101F0ADFC0F4A002375
S2140005701146147B54B92B6001251A0101EB0313B5
S2140005801D738C5001F0A5FC204638BD0133082BA6
S21400059002F11002EDD101F09CFC0548F5E7054894
S2140005A0F3E70548F1E700BF50150020D013002000
S2140005B0048000F0028000F0018000F0154B13B5B7
S2140005C01868002301908DF8043001F07CFC124B73
S2140005D01C7824B101F07DFC104802B010BD012249
S2140005E01A7001F076FC0E4B01A81C731C7783F87A
S2140005F02C4083F83C4083F84C4083F85C4083F8FA
S2140006006C4083F87C4008238DF8073001F04EFDDF
S2140006102046E2E7D81D010050150020038000F0B8
S214000620D013002010B588B00E9C009207940D9C45
S214000630024606949DF8304005940B9C04949DF861
S214000640284003940024CDE9013420460B46214679
S214000650FFF7C6FE08B010BD10B588B00E9C00921D
S21400066007940D9C024606949DF8304005940B9C1A
S21400067004949DF8284003940024CDE901342046D4
S2140006800B460121FFF7ACFE08B010BD0A4A08B5BC
S21400069012785AB107280BD8084A02EB00131B7BC6
S2140006A043B1002101F0F4FC002008BD0448FCE73B
S2140006B00448FAE70448F8E750150020D013002055
S2140006C0028000F0018000F0078000F00A4A08B5BA
S2140006D012785AB107280BD8084A02EB00131B7B86
S2140006E043B1012101F0D4FC002008BD0448FCE71A
S2140006F00448FAE70448F8E750150020D013002015
S214000700028000F0018000F0078000F00D4B1B789F
S21400071093B1072812D889B10B4B03EB00131B7B50
S21400072073B10A4BDA6A012303FA00F010401ABFCD
S21400073000200B70087070470548704705487047E2
S2140007400548704750150020D013002000000440D4
S214000750028000F0018000F0078000F00B4A10B520
S21400076012780C4662B107280CD859B1084A02EB39
S21400077000131B7B43B101F011FD2060002010BD6B
S2140007800448FCE70448FAE70448F8E75015002058
S214000790D0130020028000F0018000F0078000F0F7
S2140007A02DE9F843174B1F6D5B6D1F4000D5FEE724
S2140007B001260025144CDFF85480DFF854903742A9
S2140007C017D02368C8F850609BB1A168284601314D
S2140007D06268A1609847637B012B0AD148B909EB90
S2140007E045131A7B60F341021A731A7F60F34102C5
S2140007F01A770135082D4FEA460604F11004DED1BB
S214000800BDE8F88300000440D01300200020044018
S2140008105014002070B504460125084E04B970BD7A
S21400082094FAA4F0B0FA80F005FA00F324EA030480
S21400083056F82030002BF1D09847EFE754150020EB
S2140008404FF00072044BC3F880211A604FF08062AC
S214000850C3F880211A60704700E100E038B504460E
S2140008600D4601F030FB034B43F82450BDE83840FA
S21400087001F02FBB54150020084BD3F82404D3F8FE
S214000880202403F50053104020F42A5020F02A00BC
S2140008904004400CC3F82004FFF7BCBF00C0034070
S2140008A0084BD3F82404D3F8202403F50053104053
S2140008B020F4AA4020F055000004000CC3F82004E1
S2140008C0FFF7A8BF00C00340024B1968024B186828
S2140008D00AF0A0BA1810002014100020704700007C
S2140008E037B5920004460D46019211F06DFA431C8E
S2140008F00BD060B929462046019A08F0EFFA002886
S214000900044808BF002003B030BD0348FBE7034897
S214000910F9E700BF10E000F021E000F024E000F06E
S21400092013B5044601A801F02DFD9DF806300122FE
S21400093023804FF4807300206380054B9B680A3346
S21400094003F01F0302FA03F3636002B010BD00BF9A
S2140009500080E00F01F04CBC08B501F03DFC002023
S21400096008BD10B5044644EA010313F00303084625
S21400097009D1934201D1002010BD54F8231040F84D
S21400098023100133F5E72146920008F0B7FAF2E7A4
S21400099010B5044611F010FA431C15D0B0B90C4B34
S2140009A020469B680A3303F01F020123934023F07E
S2140009B003032344984201D1002010BD50F8042BB5
S2140009C00132F7D00348F8E70348F6E70348F4E7B0
S2140009D00080E00F0EE000F021E000F024E000F0E0
S2140009E008B501F069FA014B186008BD281C002004
S2140009F0014B186801F064BA281C00200A46013929
S214000A00014401F0EDBF042203685A619A69920717
S214000A10FCD541F2AC52102103795B0103F180430F
S214000A2003F5703399507047012203685A619A693A
S214000A30D207FCD541F2AC52042103795B0103F1E5
S214000A40804303F5703399507047000038B141B1C8
S214000A50013AB2F5006F044838BF002070470348DB
S214000A6070470148704700BF037000F0027000F046
S214000A7038B504460D4601F026FAA3889BB223B982
S214000A802B6001F026FA064838BD142263889BB214
S214000A9002FB034408342C6001F01BFA0020F3E745
S214000AA00B7000F0F7B504461646019101F00BFAFC
S214000AB0A388E2889BB29A420546019906D800238D
S214000AC0336001F006FA124803B0F0BD1427208800
S214000AD03A4680B207FB0040083008F00FFA238839
S214000AE0E2889BB207FB034308333360238828461B
S214000AF09BB20133B3FBF2F102FB11339BB22380AE
S214000B00A38801339BB2A38001F0E3F90020DBE762
S214000B100A7000F090F83130022B0BD13023427F60
S214000B2090F821005A43044B9B5823FA00F000F03B
S214000B30010070470020704714C00340002313B51F
S214000B401D4A52F8044B94F8211081420ED001330E
S214000B50042BF6D102B010BD0028FBD19DF807305B
S214000B60002BF7D0A068FFF791FDF3E794F831303B
S214000B70022BEFD12046FFF7CDFF637E2076022BB7
S214000B80E8D194F82E3003F0FF02002BE2D1A068E3
S214000B900DF107018DF80720FFF7B8FD237E1BB186
S214000BA094F82F30002BD7D00023A06884F82F307D
S214000BB0FFF78CFDCEE700BFB01C002030B5012447
S214000BC090F8325087B080F82C4095B9426B036895
S214000BD022444263094A0490CDE902524A6824330B
S214000BE0CDE900420A684169C068FFF735FD07B0E5
S214000BF030BD002380F82C30F9E700BFDD1100007F
S214000C0030B5012490F8325087B080F82D4095B961
S214000C10436B026823444363094B0490CDE90253B7
S214000C204B683C32CDE900430B6801698068FFF7EA
S214000C30F9FC07B030BD002380F82D30F9E700BF7F
S214000C408D0C000038B504460D4601F03CF9A3882B
S214000C509BB223B92B60BDE8384001F03AB91422A4
S214000C6063889BB202FB034308332B606388E288E9
S214000C709BB20133B3FBF2F102FB11339BB26380EC
S214000C80A388013B9BB2A380E5E70000F7B51446B6
S214000C90906A01A9FFF7ECFE636B013B6363154B9B
S214000CA0984220D00026019B1E619E6001F00BF941
S214000CB0019A0546D76827B1D2E900233146204677
S214000CC0B847A06A01A9FFF7BDFFA06A83889BB258
S214000CD063B101A9FFF7CCFE20460199FFF790FF0C
S214000CE0284601F0F6F8012003B0F0BD84F82D3058
S214000CF0F6E700BF0B7000F02DE9F341984600239D
S214000D000546406A0E4684881746A4B2CDE90033ED
S214000D103CB16946FFF7ACFE01A90446E868FFF758
S214000D201DFD009B6BB164B95A6801991B68521A85
S214000D303A60C8F8001033602B68986902B0BDE8C6
S214000D40F0810023C8F800303B60F4E72DE9F0415D
S214000D5004469046FFF77AFE0D46064670BB152001
S214000D6001F0C8F80746A26A93889BB213B194F8BC
S214000D702E3033B323689F6917F0020702D120464E
S214000D80FFF741FE012384F8303094F8323033B94F
S214000D90A8444545206819D183699B06FCD56FB9E0
S214000DA042F2AC52102123793E465B0103F18043A8
S214000DB003F570339950082223685A613046BDE81F
S214000DC0F081002FD0D0FFF7EBFCCCE715F8011B25
S214000DD001F0FAFBDDE7000010B5044680B190F89C
S214000DE02E302BB9FFF796FE10B9A068FFF74EFC21
S214000DF0002094F82E300133DBB284F82E3010BD7C
S214000E000048FCE7027000F010B50446A0B190F868
S214000E102E309BB190F82E30012B05D1FFF77AFECD
S214000E2010B9A068FFF752FC002094F82E30013B62
S214000E30DBB284F82E3010BD0148FCE70148FAE723
S214000E40027000F0057000F037B590F83150044697
S214000E50022D1DD1012290F82230457E817F9A40D6
S214000E603020164B25B900FB013342F2100105E095
S214000E70012D07D100FB013341F210015A5000202A
S214000E8003B030BD247E00FB0133002CF4D1ECE728
S214000E90012DF4D1037E73B911238DF80730FFF7C7
S214000EA09BFF2A4620460DF10701FFF74FFF20461D
S214000EB0FFF7AAFFE3E71323EFE700BF00C00340F6
S214000EC0F0B50446A14F8BB003AE0D460FCF0FC64C
S214000ED097E8070086E807001CB99D4C20460BB033
S214000EE0F0BD0DB99B4CF9E738220021204608F0EA
S214000EF02CF80023984963630A78984B2AB9C3E90B
S214000F000022C3E9022201220A7094490022084600
S214000F1050F8046BB4420AD00132042AF8D10022F9
S214000F2051F8040B002840F0D28043F822402B7D75
S214000F3084F831300023286884F8323020602B7B18
S214000F402371874B984240F0C780212384F82330D2
S214000F50844B23614FF4802300266361D5E9072381
S214000F60626216805680968084F82C60A3621E808B
S214000F705E809E806B6884F82D600593EB8984F80C
S214000F802F60ADF81C302B8A03A9ADF81A30AB7C65
S214000F908DF80C608DF81830EB7C8DF81E3005232C
S214000FA08DF8193001F094FA14212A7B6E4B03EB6E
S214000FB04217C7F8AC15287AA97A2E3240EA014CB7
S214000FC003EB4213C3F804C06A7AEB7A42EA034C96
S214000FD0C7F8BCC5E076E177227784F820306B7DD1
S214000FE004226377AB7D84F82130EB7DA3772B7EDC
S214000FF084F82230012301F00BF80123022294F832
S2140010002010207F01F004F894F83130022B7AD1BA
S2140010103346012294F82110607F00F0F9FF334632
S214001020042294F82210A07F00F0F2FF012394F827
S2140010302120CDE900331146607F00F08FFF00F0DD
S21400104042FF2B7D0646032B6ED141F2AC520221A5
S2140010502B7B5B0103F1804303F570339950042129
S2140010602A6802F58052D165297EEA7D42EA01426D
S21400107041F2B8515A50A97D6A7D42EA014241F2D6
S214001080B4515A504FF0FF32286800F500539A6466
S2140010902B7D032B0CBF0521042101F0D3F94FF45F
S2140010A040622B685A61FFF789FA002104F10800B4
S2140010B0FFF754FA014628B904F10C00FFF74EFA80
S2140010C0044600B1294C304600F003FF06E7013223
S2140010D0042A7FF425AF00E7254B984207D1222348
S2140010E084F82330234B23614FF4A02334E7224BAC
S2140010F098427FF4F7AE232384F823301F4B2361F6
S2140011004FF4C02328E7032B99D1334694F82110D7
S214001110607F012200F07CFF3346042294F8221000
S214001120A07F00F075FF8AE7022BABD194F8210070
S2140011301349FFF793FBFFF783FB4FF400732383FA
S21400114000232046A376FFF77FFE9BE7001E0100E4
S214001150027000F0037000F0C01C0020B01C0020DD
S214001160008005400200040000C003400E7000F03E
S21400117000C0054002000500000006400200060010
S2140011803D0B0000F0B587B005461646FFF75EFC3F
S2140011900446E8B90493104BCDE901166A46686A1E
S2140011A001A903960593FFF77DFC044680B995F8E0
S2140011B02C306BB92846FFF737FC0099FFF7FEFC8A
S2140011C095F83130032B03D028462C76FFF73CFEEB
S2140011D0204607B0F0BD00BF017000F073B514469E
S2140011E0506A01A9FFF744FC636B013B63632F4B16
S2140011F0984230D094F83200019A002839D12368FA
S214001200996C11F4007129D02949906011614FF44E
S214001210007203F500539A6400F055FE01990646E5
S214001220CD6835B14A688B682046D31A0A680969C2
S214001230A847606A01A9FFF705FD606A8588ADB218
S214001240DDB101A9FFF714FC20460199FFF7B6FCB3
S214001250304600F03EFE012002B070BD986CC0051E
S21400126007D514489160106103F500534FF480725F
S214001270D1E7002313619360CEE70123204623764F
S214001280FFF7E2FD94F8313084F82C50032BDFD0C2
S21400129042F2AC52042123795B0103F1804303F54B
S2140012A070339950022223685A61D1E70B7000F020
S2140012B00D7000F00C7000F0F0B587B004461646CE
S2140012C0FFF7C4FB054638BB0493154B03960593FE
S2140012D02368CDE901169B699B0702D42046FFF7D9
S2140012E092FB6A46A06A01A9FFF7DCFB054698B99F
S2140012F094F82D3083B900F0E6FDA36A06469B8875
S2140013009BB233B120460099FFF77AFC012384F89C
S2140013103030304600F0DDFD284607B0F0BD00BF97
S214001320017000F02E4B98424AD022D82D4B98429E
S21400133040D014D82C4B984239D00AD82B4B984220
S21400134032D02B4B98422FD02A4B98422CD00020DC
S2140013507047294B9842FAD1284B186F7047284B94
S21400136098422AD0274B9842F1D1244BD3F88000DC
S2140013707047254B98422BD009D8244B984223D04F
S214001380234B9842E3D11D4BD3F88C007047214B7A
S214001390984221D003F5740303F510539842D6D132
S2140013A0164BD3F898007047144B986D7047134B44
S2140013B0586E7047114B586F7047104B986F7047B8
S2140013C00E4BD3F8840070470C4BD3F88800704758
S2140013D00A4BD3F890007047084BD3F89400704738
S2140013E00048E8010024F400C0CF6A0080841E0094
S2140013F000093D0040420F00405DC6000080E00F3F
S214001400C0EA210180BA8C01007E560380D54302D3
S214001410006CDC020090D00338B5124B0546D3F8BA
S21400142020310C4603F00703013B032B17D8DFE8F7
S21400143003F0020A0E12FEF72BFF042305B1286004
S21400144004B1237038BDFEF75FFF0323F6E7FEF70F
S21400145077FF0523F2E7FEF76FFF0223EEE7002390
S2140014601846EBE70080004037B50C460021124ACC
S2140014700191D2F88021054602F00302022A0ED01E
S214001480032A11D0012A14D101A8FFF7C5FF0D23A6
S2140014900DB1019A2A6004B1237003B030BDFEF787
S2140014A04FFF05230190F3E7FEF746FF0223019066
S2140014B0EEE70B46ECE700BF0080004038B5104B67
S2140014C00546D3F840310C4603F00303022B0BD03D
S2140014D0032B0DD0012B0FD1FEF776FF082305B1A5
S2140014E0286004B1237038BDFEF774FF0723F6E7C3
S2140014F0FEF76DFF0923F2E700231846EFE700BF6B
S2140015000080004038B5104B0546D3F860310C46D5
S21400151003F00303022B0BD0032B0DD0012B0FD1AE
S214001520FEF752FF082305B1286004B1237038BDCA
S214001530FEF750FF0723F6E7FEF749FF0923F2E719
S21400154000231846EFE700BF0080004038B5134B75
S2140015500546D3F800320C4603F00703013B032B85
S21400156018D8DFE803F0020A0E12FEF72DFF082354
S21400157005B1286004B1237038BDFEF72BFF0723A2
S214001580F6E7FEF724FF0923F2E7FEF7A7FE0C2393
S214001590800AEDE700231846EAE700BF0080004017
S2140015A038B5134B0546D3F808320C4603F007034C
S2140015B0013B032B18D8DFE803F0020A0E12FEF7F1
S2140015C003FF082305B1286004B1237038BDFEF779
S2140015D001FF0723F6E7FEF7FAFE0923F2E7FEF718
S2140015E07DFE0C23800AEDE700231846EAE700BFDD
S2140015F00080004038B5104B0546D3F840320C4604
S21400160003F00303022B0BD0032B0DD0012B0FD1BD
S214001610FEF7DAFE082305B1286004B1237038BD52
S214001620FEF7D8FE0723F6E7FEF7D1FE0923F2E71A
S21400163000231846EFE700BF0080004038B5104B87
S2140016400546D3F800310C4603F00303022B0BD0FB
S214001650032B0DD0012B0FD1FEF756FE032305B149
S214001660286004B1237038BDFEF7B4FE0723F6E702
S214001670FEF760FE0623F2E701230020EFE700BF37
S2140016800080004041F671330F4A10B5D169D3632C
S21400169093680E4C23F44013A04288BF43F4801393
S2140016A093600B4A0B4CD2F81832A04223F0020388
S2140016B088BF43F0020301F48031C2F8183211B13A
S2140016C00022014BDA6310BD00000340C01753022E
S2140016D000C0074080F0FA0208B5FEF711FEBDE82C
S2140016E00840FFF7CFBF0000032814D005D8012814
S2140016F005D0022809D0002005E00F28FBD1084BB2
S214001700186FC0F3013001307047054BD3F89000D6
S214001710C0F30460F7E7024B186FC0F38020F2E7CF
S214001720008000401FB500230293252817D8DFE865
S21400173000F0131A1D262B353A51565B60656A7801
S214001740161A3F1616561A262B26351A5126783A9A
S2140017503A3A3A2626265B60FEF7A6FD02900298E5
S21400176005B05DF804FBFEF7B9FDF7E7FEF79CFD54
S21400177002460220FFF7B8FFB2FBF0F0EEE7FEF7F6
S214001780ADFD02460320F5E7FEF7A8FD024603205E
S214001790FFF7AAFFB2FBF0F04008DFE7002102A83F
S2140017A0FFF762FEDBE7002102A8FFF735FED6E76B
S2140017B003934FF0E0231B695B0705D5FEF78EFD0C
S2140017C00390039B0293CAE70DF1070103A8FFF7F6
S2140017D075FEF6E7002102A8FFF770FEBFE70021BE
S2140017E002A8FFF78FFEBAE7002102A8FFF7AEFEB9
S2140017F0B5E7002102A8FFF7D3FEB0E7002102A854
S214001800FFF71CFFABE7094BD3F8803003F0030368
S214001810022BA8D0032B01D000209FE7FEF790FDF7
S2140018209CE7002102A8FFF7E5FE98E7008000404D
S214001830032810B50C4626D004D8012804D0022868
S21400184016D010BD0F28FCD1FFF746FF00F026F893
S214001850114B013C196F21F4405141EA04341C67D6
S214001860FEF73CFDFFF70EFFBDE8104000F01AB88B
S214001870094B013CD3F8901021F0F85141EA04647A
S214001880C3F89040DDE7044B013C196F21F48061FA
S21400189041EA84241C67D4E700800040022103202C
S2140018A0FFF7C6BF08B50120FFF73CFFBDE80840BC
S2140018B0034988428CBF022101210320FFF7B8BFED
S2140018C080F0FA02002307B58DF80230252822D8CA
S2140018D0DFE800F013212121212C324C52585E649F
S2140018E06A7D212138212152212121212C214C21C0
S2140018F07D32323232212121585E384B1B6F03F085
S2140019000703013B032B06D8DFE803F00E020A0CA0
S21400191004238DF802309DF8020003B05DF804FB46
S2140019200323F6E70623F4E70223F2E700200DF18F
S2140019300201FFF799FDEEE700200DF10201FFF727
S2140019406BFDE8E701934FF0E0231B695B0707D5C3
S214001950FEF7C4FC0B238DF803309DF80330D8E760
S2140019600DF1030101A8FFF7A9FDF6E700200DF130
S2140019700201FFF7A3FDCEE700200DF10201FFF7FD
S214001980C1FDC8E700200DF10201FFF7DFFDC2E749
S21400199000200DF10201FFF703FEBCE700200DF169
S2140019A00201FFF74BFEB6E70C4BD3F8803003F08E
S2140019B00303022B03D0032B05D00023A9E7FEF771
S2140019C08DFC0B23A5E7FEF7BBFC0523A1E7002053
S2140019D00DF10201FFF70EFE9DE700BF00800040FC
S2140019E070B50C46252847D8DFE810F026004600DC
S2140019F04600460046005A006B009C00AD00BE0044
S214001A00CF00E000F1000201460046007C004600E0
S214001A104600AD0046004600460046005A00460016
S214001A209C00460002016B006B006B006B004600DA
S214001A3046004600BE00CF008B1E042B2DD8DFE8E4
S214001A4003F0291C032C260000250226FFF744FE7F
S214001A50FFF724FF6F4A136F23F007033343136720
S214001A60FEF73CFCFFF70EFEFFF71CFF25B9032C24
S214001A7002D10122684B9A6270BD0122674B032691
S214001A809D6A03F58053C5F340059A62DEE700259C
S214001A900426DBE700250126D8E700252E46D5E7F5
S214001AA08C1EE4B20B2C8CBF00215D4B594A98BFAC
S214001AB0195DD2F8803123F003030B43C2F880315E
S214001AC0DAE78C1EE4B2032C8CBF0021554B514A3A
S214001AD098BF195DD2F8203123F007030B43C2F8F4
S214001AE02031C9E70B2912D00ED8CC1F022CC3D840
S214001AF04D4A536A43F0010353624FF0E0221369E4
S214001B0023F004031361B7E70E29B5D1F0E7464A80
S214001B10536A23F0010353624FF0E022136943F047
S214001B200403EFE7CC1FE4B2022C8CBF00213F4B2E
S214001B30384A98BF195DD2F8403123F003030B43AF
S214001B40C2F8403198E7CC1FE4B2022C8CBF0021CB
S214001B50374B304A98BF195DD2F8603123F0030343
S214001B600B43C2F8603187E7CC1FE4B2052C8CBF6C
S214001B700021304B274A98BF195DD2F8003223F077
S214001B8007030B43C2F8003276E7CC1FE4B2052CFD
S214001B908CBF0021284B1F4A98BF195DD2F8083227
S214001BA023F007030B43C2F8083265E7CC1EE4B205
S214001BB0042C8CBF0021214B164A98BF195DD2F821
S214001BC0003123F003030B43C2F8003154E7052924
S214001BD00CD00B2914BF002102210E4AD2F8803007
S214001BE023F003030B43C2F8803045E70321F4E7F4
S214001BF0CC1FE4B2022C8CBF0021114B054A98BFC3
S214001C00195DD2F8403223F003030B43C2F840328A
S214001C1032E700BF0080004000E0004000C0004007
S214001C201C1E0100281E010000C007402C1E0100DB
S214001C302C1E01002F1E01002F1E0100351E010064
S214001C402C1E010038B50546FFF76CFB204B0446FA
S214001C505A68012A04D11F494A609A699207FCD142
S214001C600020FFF72FFE042803D1FFF735FDFFF70E
S214001C7015FE194A24F04073954220D0174A954223
S214001C8020D0174AD16811F0060FFBD190689360F8
S214001C90916803F4F81301F4F8118B4215D1284625
S214001CA0FEF7FCFA0020FFF70DFE04280FD1FEF722
S214001CB015FBFFF7E7FCBDE83840FFF7F3BD43F040
S214001CC00073DEE743F08073DBE79060EAE738BD39
S214001CD000C0014000E0014040420F0080841E002A
S214001CE00000014070B504460020FFF7EBFD032816
S214001CF077D045F60E0302223F49C1F880303F4BAD
S214001D009A62012203F580539A628A6D12F4803239
S214001D10FBD1637820781B0543EA0063A079257C15
S214001D200343E078667C43EA0043207943EA0033C5
S214001D30607943EA80130B618B69E07A03F0004315
S214001D400343E07943EA8063207A43EA0063607ADB
S214001D5043EA0043A07A43EA00238B61637B096A67
S214001D60002B18BF0822207B21F00D0143EA010357
S214001D7043EA800342EA03021F49A37B0A624FEA52
S214001D8043132FD1886AE27B20F0330043EA021324
S214001D90034343F001038B62194B8A6D33EA020258
S214001DA0FBD10222154B9A628B6D5B00FCD44FF080
S214001DB000420869A37820F4700040EA03500F4BF5
S214001DC008619A611DB9022203F580539A6216B91A
S214001DD001220C4B9A62A37C1BB1074B0A4AC3F83C
S214001DE0802070BD8A6A22F033023243134343EAEE
S214001DF045038B62EFE700BF00C0004000D0004004
S214001E000300014000E00040F1A7FFFF014B93F9FB
S214001E1000007047C11C0020F0B54FF4D1560227D1
S214001E20174A41788478C37805785662154E4F294C
S214001E3077604FF0010728BF4F2106F58056776080
S214001E401669F603FCD441EA052151611B0141796C
S214001E5043EA04230B43017943EA41039360C379C1
S214001E6081791B0143EA4113417A0B43017A43EA25
S214001E7041035360837A13B16FF4D1535362F0BDBC
S214001E800000024000100240014B1880704700BF5F
S214001E90381000200028ABBF00F16040054B00F56D
S214001EA0614000F00F00ACBF90F80003185C00091A
S214001EB0704700BF14ED00E0EFF3108072B6704775
S214001EC000B962B67047EFF31180302383F31188B0
S214001ED0704780F311887047054B420953F822304B
S214001EE000F01F0023FA00F0C04300F00100704726
S214001EF000E100E0014608B5EFF31083DB0702D5EA
S214001F000122104608BDFFF7E7FF02460028F7D17A
S214001F100846FFF7BFFF0146EFF3118313B1B0EB9E
S214001F20131FEDD2074B5B68C3F30803002BE8D002
S214001F30103B58B2FFF7AEFF88428CBF002201224A
S214001F40DFE700BF00ED00E04FF04022D36E0179DE
S214001F5023F030030B43D36670470000072A2DE9B1
S214001F60F04705460C461646994624D84FF0030817
S214001F70214F4FEA820AFFF79FFFD7F8003405FA91
S214001F800AF55D4008FA0AF805EA08055D40C7F854
S214001F900054FFF795FF04F00304FFF78DFFD7F812
S214001FA0083404FA0AF45C4004EA08045C40C7F803
S214001FB00844FFF785FF114A114B9DF82010B9F130
S214001FC0000F08BF1346012202FA06F61E600D4AED
S214001FD00D4B002908BF13461E600C4B9DF82410BD
S214001FE0C3F820641032A3F6DC33002908BF13467A
S214001FF01E60BDE8F08700BF00C0034010E4034049
S21400200010D4034014E4034014D4034000E003401B
S214002010F0B54AB1012530261C4C8D4006FB004425
S2140020200BB341F21006A55130244443072904F1AE
S214002030804404F5703419D80F2765688E00B740C1
S21400204025EA070502FA06F63543656052B901220D
S214002050302402FA01F10D4A04FB00209BB141F244
S2140020601003C150F0BD42F21006DCE70F27A1F1C5
S2140020700805E668AD00AF4026EA070602FA05F551
S2140020803543E560E2E742F21003EAE700C00340AA
S214002090044A054B002918BF1346012202FA00F035
S2140020A018607047402004404010044030B5047863
S2140020B045788178C27801200F4B41EA0541240615
S2140020C058609C609961FF219962002199631964A8
S2140020D04FF0004159654FF0FF314FF4001003F503
S2140020E00053196505491301DBB2C1F8800181F878
S2140020F01533086030BD00BF0000044000E100E07A
S2140021002DE9F04101250C464FF0300EC3B29D403C
S214002110CB7A1E4E4FEA035823688F7A94F80DC088
S214002120097B46F82030A6F580460EFB006048EA9C
S214002130074343EA4153C0F860C0C365144B22F01E
S214002140030202671D65FFF7BEFE736D2B437365C2
S214002150237A13B1336C2B433364637A13B1B36BB6
S2140021602B43B3632279A37943EA0243084A936177
S2140021706179E37943EA014306498B61064B55636F
S2140021809D64BDE8F041FFF7A4BE00BF00400440D8
S214002190002004400010044000000440F8B501256B
S2140021A0C3B204469D40FFF78EFE3022094B1E6DDB
S2140021B05F6B02FB04335C6EFFF78BFE3D4206D17D
S2140021C0C4F30A1008B9354200D10130F8BD00202A
S2140021D0FCE700BF0000044041F67132034BDA63AF
S2140021E0012203F50053DA60704700BF0000034089
S2140021F041F671320121044BDA6303F50052D160D7
S2140022000022DA63704700BF000003404FF400323C
S214002210014B1A67704700BF005000404FF0402344
S214002220D3F8940070474FF090435A6812B19A6AF8
S214002230002AFAD170470000CB784A7810B55B01C7
S2140022400C7843EA82030A79234343EA02130C22FA
S214002250424302F190421363012C02BF8A78024B7C
S21400226043F8202010BD00BFD080034008B54FF0D3
S21400227090435A6802B960B15B680BB1FFF7D3FFB1
S2140022804FF0904130B10120074B5860FFF7CBFF6D
S214002290C86008BDFFF7C7FF0223CB60FFF7C3FF88
S2140022A00122024B5A60F4E7001000480020004864
S2140022B04FF090435B6870B50BB1FFF7B4FF012198
S2140022C0104B4578596083780679002BC37814BF85
S2140022D002240024002B14BF042200224379DB00D2
S2140022E043EA06132B43234313434FF09042936075
S2140022F0054B59600378002B14BF0B460223D360AE
S21400230070BD00BF0020004800100048436813B9A5
S214002310416070475B685A68012AFBD15960704774
S214002320836813B9816070475B685A68012AFBD1DD
S21400233059607047C369032B9FBF00EB83020133CC
S214002340D160C3617047C369042B15D84FF098421B
S214002350116CC902FCD504339B0013650168103B61
S214002360116041680C30116050F8041C0344116081
S2140023704FF09842984200D1704750F8041B116005
S214002380F8E70000054B5B69C3F38512827003F023
S2140023903F021B0B42700370704700BF00C007402F
S2140023A00D4B984208D1A3F50033C3F88411C36DD2
S2140023B043F08003C3657047084B984204D1A3F5E9
S2140023C01033C3F89411F2E7054B984204BFA3F507
S2140023D02033C3F8A411EAE70080054000C005409A
S2140023E00000064070B5054616461C4619B903207F
S2140023F0FFF798F90146402C1BD003D8DCB1202CFF
S2140024001BD070BD602CFCD1042303FB06F25608DB
S21400241006EB4113B3FBF2F3094A203B02EAC3037F
S214002420AA6822F06002AA60AA681443AC60EB6156
S214002430E7E70623E9E71023E7E70823E5E700BF19
S214002440F8FF7F00012200F580535A60CB4393408B
S21400245003F00A034361416111B900F50050426080
S21400246070470000012200F5805310B55A6040F610
S214002470AA6341F205024361002312498360C365E3
S214002480C26000F500520361C361C36491640E49E3
S2140024908365884206D00D4CA04203D004F58044E4
S2140024A0A0420BD18842036506D0084B984203D061
S2140024B003F58043984201D100234365012353600E
S2140024C010BD00BFFFFF01000080054000C00540B2
S2140024D070B50D46FFF7C6FF012300F58056736002
S2140024E0AB7C04461BB1836843F080438360EB7C7F
S2140024F01BB12046297DFFF753FF2A8A6B7B2046B7
S2140025001343EA891343E3602B7BD5E90112FFF7F7
S21400251069FF6B7D1BB1A36843F48033A360AB7D7A
S214002520EA7D1B07120502F4E00203F0E0431343C2
S214002530A3652A7E931E012B214B20D89C421AD0DD
S21400254003F580439C4218D003F580439C420CBFA1
S21400255002234FF0FF3341F2AC5102205B0103F13E
S214002560804303F570335850032A23D10423F365C0
S2140025702B78636170BD0023EDE70123EBE79C42F7
S21400258014D0104B9C4213D003F580439C420CBFE2
S21400259002234FF0FF3342F2AC5102205B0103F1FD
S2140025A0804303F570335850012ADEE70023F2E734
S2140025B00123F0E7042204F50053DA65D8E700BFEC
S2140025C00080054000C0054083695B06FCD5C163FA
S2140025D07047000038B50446054D09F015FB0FCCD2
S2140025E00FC594E80F0085E80F00002038BD00BF37
S2140025F0C41C002047F6FF739A42F0B55ED003294C
S2140026005ED8304ECF0016F8313006EBC100012BF5
S21400261085780DD1C3785B1B23B1416831F913105F
S214002620914202DCE818C0B2F0BD013B1BB2F3E7F2
S21400263040680028F8D0B0F90030934204DBB0F9C7
S21400264002309342B8BF134682883E44FF2A19BF21
S214002650C8242821B0F90640B0F90810A4EB0304FA
S2140026600CBF0122002294FBF1F47678224414B2C7
S214002670721EA242A8BF22464FF47A7700EBC2042D
S214002680E188A468013213FB014112B221EAE1712C
S21400269001F5FA71B242B1FBF7F104DA00EBC204BD
S2140026A0A4888C42EAD200EBC20232F8040C8842BC
S2140026B028BF0846A84238BF2846B4E7FF20B3E73D
S2140026C00020B1E7C41C00200329F0B554D82B48DD
S2140026D000EBC10310F831105C6801290FD198781F
S2140026E0D978914294BFC0EB0103C0EB0203091AEC
S2140026F0DBB28B42C8BF002334F91300F0BD002CB8
S2140027003AD09978914202D3B4F90200F6E7D97824
S214002710B4F900009142F1D9A1885B78FF294FF007
S214002720000114BF03F1FF33023BDBB2251D04F1A9
S2140027300C071FFA82FCCEB2B34216D805EBC101D5
S2140027404FF47A756A43B1F902304968521A03EBBE
S214002750D37102EB610292FBF3F29042CEDBB4F946
S21400276002009042CADC10B2C8E737F831E04E1CCF
S214002770E645E3D33146DEE70148BFE7C41C002048
S2140027800080FFFF08B50448FFF724FFBDE80840B7
S214002790012009F083BA00BF3C1E01007FB502226B
S2140027A0084B0949CDE901234FF00073CDE9031327
S2140027B0052301A94FF0FF30059309F04BFB07B046
S2140027C05DF804FB006A180000020400002307B549
S2140027D0CDE90033012369464FF0FF308DF8023013
S2140027E009F0E6F903B05DF804FB4FF0402213B59C
S2140027F00024536F684643F00103536700948DF836
S2140028000440FFF7A1FB204602B010BD08B5024801
S214002810FFF718FA002008BD00B4C40470B586B0EF
S21400282001AA1546184B03F1100614461868596895
S214002830083303C4B3422246F7D119889B78218017
S214002840A370124BD3F84C21120314D4D3F8504182
S214002850E4B28DF80E40FFF7D9FA204480F3080062
S2140028608DF80D000A48FDF755FD2846FFF73AFAA1
S214002870002006B070BD074B1C884FF6FF739C42C5
S21400288008BF8124E5E700BF281F01000080E00F95
S21400289000F049020001E00F1FB50B4A01AB1068BB
S2140028A0516803C31189927A19809A704F2301A840
S2140028B08DF80530FFF7B0FA6420FFF7E5FA002040
S2140028C005B05DF804FB00BF3B1F01006FF004027B
S2140028D0502110B50A480B4C12F0800FD3B21BBF24
S2140028E003F00F03043BA3181B1802F101020CBFF0
S2140028F083F8001319763D2AEED1002010BD00BFE4
S21400290000ED00E000E100E0BFF34F8FBFF36F8FF4
S214002910054B5A6A22F480325A62D3F8942022F089
S2140029200102C3F89420704700ED00E070B525481A
S214002930254CFFF7E9FF844208BF4FF08043234A47
S21400294018BF20F01F03D2F8C01018BF203B21F09C
S214002950FF0141F0A001B3F1005FC2F8C0100CD334
S2140029601B4D1C4E296843F00103C2F89810013134
S214002970C2F89C60C2F8A0302960844210D0144887
S214002980154B0268114923F01F0343F00303C1F8F7
S2140029909820C1F89C30114B0132C1F8A03002607B
S2140029A0BFF34F8FBFF36F8F0522084BC3F89420F9
S2140029B05A6A42F480325A62BFF34F8FBFF36F8F6A
S2140029C070BD00BF10120020AC13002000ED00E028
S2140029D0E41C002003000020CB130020E1FFFF3F93
S2140029E010B51446FFF790FF1F2C21D9194A1A4C30
S2140029F0D2F8C03021F01F0123F47F4343F48073E4
S214002A00C2F8C030C30618BF20F01F002368114A62
S214002A1018BF203020F01F00C2F8983040F00300A6
S214002A2041F003010133C2F89C00C2F8A0102360F5
S214002A30BFF34F8FBFF36F8F0522064BC3F894206A
S214002A405A6A42F480325A62BFF34F8FBFF36F8FD9
S214002A50002010BD00ED00E0E41C0020BFF34F8F07
S214002A600549064BCA6802F4E0621343CB60BFF325
S214002A704F8F00BFFDE700BF00ED00E00400FA0541
S214002A8008B5FFF7EBFF08BD30B50F4C4161236872
S214002A90ABB92060836011E0891A9A681D464161CF
S214002AA02AB113465A698A42F6D955B11A461346D0
S214002AB0A860836013B15A69511A596130BD002568
S214002AC0F0E72060F5E700BF001D002038B500F0F5
S214002AD059FA094B094A196839B113684C69C51A7D
S214002AE0AC4204D323441B1A4B61106003E000235E
S214002AF0001B10604B6138BD001D0020EC1C002040
S214002B0038B50F4B0F4D1C682B6802205B691C44C0
S214002B1000F06CFA204600F03DFA00230A492A68C5
S214002B200B70D088800702D501230B7038BD9268E1
S214002B30002AFBD050690344012BF2D9F6E700BF08
S214002B40EC1C0020001D0020F41C002070B59DF831
S214002B501450164605710025049A8560BDF8185075
S214002B600446C580C0E903360D46026029B94161B6
S214002B700BB11146984796B13546FFF7A4F90646BD
S214002B80FFF7A4FF29462046FFF77EFF054B1B688C
S214002B90A34201D1FFF7B4FF3046FFF79AF90020B1
S214002BA070BD00BF001D002000220C490B687BB1E1
S214002BB083420AD183687AB1936083681BB15A69ED
S214002BC041690A445A61002070471A469B68EEE73E
S214002BD00028EFD0022070470B60EEE7001D0020B3
S214002BE070B5FFF770F9144E05463478FCB9134BF0
S214002BF01C60134B1C60134B1C8000F089F90120ED
S214002C0000F0F4F900F040FA0F4B0246186020B9C5
S214002C102846FFF75EF9232070BD234640F2E731D1
S214002C200A4805F05DFF0A4B1860012333702846FA
S214002C30FFF74FF90020EFE7E81C0020001D0020FA
S214002C40EC1C0020F61C0020FC1C002018FCFFFFDB
S214002C50F01C00202DE9F0410546F8B1FFF733F9E6
S214002C600F4F0646FFF732FF2846D7F80080FFF7DB
S214002C709BFF044628B13046FFF72BF92046BDE8F7
S214002C80F081A8453B6803D123B1FFF739FFF2E78F
S214002C90002BF0D1022000F0B5F9ECE72224EDE796
S214002CA0001D002038B50C46054698B191B10023AA
S214002CB00B70FFF708F90121074B1B680BB1227850
S214002CC01AB1FFF706F9002038BDAB4214BF9B6867
S214002CD02170F3E72220F7E7001D0020F0B51F461D
S214002CE0002387B00D46164604468DF81730A0B16F
S214002CF00DF11701FFF7D6FF9DF817207AB9BDF83A
S214002D003430294602939DF830302046CDE90073D2
S214002D103346FFF71BFF07B0F0BD2220FBE703207A
S214002D20F9E7000070B5FFF7CEF8064600F02AF97E
S214002D30084B04461D880120ADB200F07BF918B19F
S214002D4000F020F9044601353046FFF7C2F8204669
S214002D50294670BDF61C00200A4B10B51B680C46B1
S214002D6083420CD3084B4FF47A7219680023A0FBF9
S214002D70010105F0B5FE01302060002010BD2120C5
S214002D80FCE700BFF01C0020FC1C0020164B70B5B2
S214002D908342164B14468B4124D34FF47A75144B5A
S214002DA01A68A0FB050305FB0131A2B1551E1540AC
S214002DB011D1B2FA82F3C3F11F065A1CDB4301FAA3
S214002DC002F2F04021FA03F310431843F140C4E93D
S214002DD00001284670BD002305F082FE0025C4E9E8
S214002DE00001F6E72125F4E7EFA7C64B3789410037
S214002DF0FC1C00202DE9F84F0446E0070BD5404A9E
S214002E00138801339BB21380FFF760FE3D4B1B68AF
S214002E100BB1FFF775FEA10770D500F0B3F8DFF829
S214002E20EC904FF00008D9F800700646C71BFFF775
S214002E304AF8C34605464246324B1C6814B16369DD
S214002E40BB4216D9B8F1010F52D1D3889A1E53420D
S214002E5053412D4A1370002C4CD06369C9F80060AA
S214002E60DB1B6361FFF74CFE2846BDE8F84FFFF713
S214002E7030B823463A46C9F800605969914209D8E5
S214002E80187994F804C0521A844588BF1C469B687B
S214002E90002BF2D12846FFF71CF86569C4F814B079
S214002EA0FFF711F882462046FFF77EFE5046FFF7F2
S214002EB010F823694BB1FFF706F8824621692046D1
S214002EC0FFF7E2FD5046FFF704F8E36813B120462B
S214002ED02168984700F056F835447F1B8246074421
S214002EE0FEF7F1FF56460546224608F10108A3E71D
S214002EF00023AEE7022000F085F8B5E7BDE8F88FBE
S214002F00F61C0020001D0020F81C0020EC1C0020F1
S214002F101FB50024184B18689A880290D3F806004C
S214002F209B7A009002A8ADF80C208DF804308DF83E
S214002F3008408DF80C40FFF7BBF9694601208DF874
S214002F400040FFF779F94FF090431F219A6922F06D
S214002F501F029A61094A51619A6A12F00802FBD16F
S214002F601A620120FFF782F94FF48062044BC3F81F
S214002F7080211A6004B010BD461F010000200048E2
S214002F8000E100E04FF090439A6A1207FCD4186AFA
S214002F90704700004FF09042936A1907FCD4136AFA
S214002FA0116C5269120704D4CA1A032A01D899422E
S214002FB00ED1C21A022A98BFD81CB0F1FF3F38BF04
S214002FC001384FF0904318649A6942F008029A61FB
S214002FD0054A13783BB14FF09041CB6B43F00203A8
S214002FE0CB630023137070473A10002082074FF01F
S214002FF0904200F00103916948BF43F008030B4379
S21400300093617047820700F001030AD50121084A40
S21400301043F0080311704FF09041CA6B22F0030290
S214003020CA634FF090418A6922EA03038B617047B6
S2140030303A1000204FF0904301285B6904D0022824
S21400304005D1C3F3C000704703F0010070470020AD
S2140030507047000010B5FEF736FF4FF09043044669
S2140030605B691A07074A03F0010003F00D0348BF27
S21400307040F002005361FFF7BDFE2046BDE8104059
S214003080FEF727BF002000481C20FEF74BBB08B504
S21400309005F04CFC05F0A4FC05F0A4FC05F0ABFC28
S2140030A0BDE8084005F0B2BC08B505F0B1FC05F077
S2140030B0B0FC05F0AFFCBDE8084005F0ACBC01F084
S2140030C0A3B901F0A1B9000008B5182200210448F0
S2140030D005F03BFFBDE80840012008F041BA00BFFC
S2140030E0101D002007B5FFF71DFE6A46FFF74EFECF
S2140030F028B15E21044B054A054805F081FE00987C
S21400310003B05DF804FB00BF511F0100FE1F010065
S214003110681F010030B50D46144685B01548FFF708
S21400312099FD154B2C441C60FFF7DCFF201A012488
S214003130124B00281C7004DC05B0BDE8304001F0DE
S21400314063B903A9FFF708FE034628B17B210C4BA1
S2140031500C4A0D4805F054FECDE900040B4A0399CD
S2140031600448FFF7BBFD18B17F21054B054AF0E781
S21400317005B030BD101D0020081D0020041D0020D5
S214003180511F0100E61F0100681F0100BF3000004C
S21400319008B50348FFF75EFD0022024B1A7008BD13
S2140031A0101D0020041D002008F066BE70B50D46F8
S2140031B014460F4E2C44306808F004FA0D4B1C6081
S2140031C008F05AFE01220C4B211A00291A7003DC63
S2140031D0BDE8704001F018B9084B306808F0E4F913
S2140031E028B1D921064B074A074805F009FE70BDED
S2140031F0401D00200C1D0020051D0020C3300000CF
S214003200AF1F0100CE1F0100681F010008B5044B68
S214003210186808F0D7F90022024B1A7008BD00BFE4
S214003220401D0020051D002070B50446FEF74BFE2D
S214003230164B05461B787BB1154B1E68FFF752FFF1
S214003240301A002808DC2046FFF7A2FF00F02CF812
S214003250B8B1204602F01EF80E4B1B7863B10E4B39
S2140032601E6808F009FE301A002805DC2046FFF725
S214003270CDFF204601F044FE2846BDE87040FEF72C
S21400328028BE204601F012FEE6E700BF041D00201F
S214003290081D0020051D00200C1D0020014B187085
S2140032A0704700BF341D0020014B1878704700BFE0
S2140032B0341D002070477047704700000FB40C4B59
S2140032C037B51D6875B10B4C0B4B206819688842E2
S2140032D008D207AB069A2844019306F0EBFA236857
S2140032E01844206003B0BDE8304004B0704700BF0B
S2140032F0281D00202C1D0020301D002037B50C4D49
S2140033000C4C39B9232000230B4A2B601360236032
S21400331003B030BD2B60069B2360084B1B680093F0
S214003320074B05F08BFB0028ECD00020EBE700BF36
S214003330281D0020301D00202C1D0020782C0100A8
S2140033404C370020F7B50D460646A0B100242746A8
S214003350A54201D8002009E02A1B002001AB92B24A
S2140033603119019701F0FCF910B1012003B0F0BD4E
S214003370019B1C44ECE70720F8E7000008B5FEF7C1
S2140033804DFF034B1860BDE80840FEF73FBF00BF87
S214003390381D0020BFF34F8F0549064BCA6802F45C
S2140033A0E0621343CB60BFF34F8F00BFFDE700BF63
S2140033B000ED00E00400FA050E4B1B68D9070FD499
S2140033C05A060FD413F0180F0ED199070ED49A068A
S2140033D00ED440F2847213420CBF072006207047BA
S2140033E00020704702207047082070470120704771
S2140033F003207047381D002070470000054B1B78DF
S21400340003F0FF0023B1044B1B681878C0F340108C
S214003410704700BF9020002098200020064B074AE7
S2140034201B6812781B8802F0FF0022B103F0070029
S214003430C31E584258417047982000209020002014
S214003440054B1A79824205D85A79824238BF002342
S214003450184670470023FBE7481D002083884BB1C1
S2140034608268013B0132826042888380013A428052
S214003470002070470120704738B50C468A88896856
S214003480054605F03BFDE16841B1A0886288121A46
S21400349092B22844BDE8384005F030BD38BD000083
S2140034A037B504461C4B1D4D186821689B88009054
S2140034B0ADF804302868D1B1002208F02FFB23793C
S2140034C0834206D040F23121154B164A164805F0C5
S2140034D097FC01220423114628688DF8003008F076
S2140034E094FF60B140F23721104B0E4AEEE708F029
S2140034F05BFF20B140F241210C4B0A4AE6E76946E1
S214003500286808F06BFB20B140F24521074B054ABE
S214003510DCE703B030BD00BF54220100401D002090
S21400352015200100A52201003E200100AF1F01006A
S21400353038B50D460446FEF7C6FC064B1A8892B20E
S2140035402DB114431C80BDE83840FEF7C2BC22EA09
S2140035500404F7E7441D002010B5FFF74FFF30B90D
S21400356040F2F3710F4B104A104805F049FC104B1F
S2140035701B881B0704D440F2F4710E4B0A4AF3E78B
S2140035800E2200240C4B21461A700C4B08201C708F
S214003590FFF7CEFF0A4B186807F0DAFF094B1C70DE
S2140035A010BD00BF85200100EB2201003E20010077
S2140035B0441D00209720010091200020902000202C
S2140035C0401D00203C1D0020427A70B590F90A602C
S2140035D0C57A046832B10022074B5E759D759C6003
S2140035E0DA6070BD054BC3E90242DA7D5E7561F3B1
S2140035F000029D75DA75F4E7C81F0020F01F002052
S21400360038B51D460B4B14460A460146186808F0A6
S214003610F4FB08B1002038BD6088A368411C89B25D
S21400362029801B788B42F5D103387B288CBF00207D
S2140036300120F0E7401D002000210420FFF778BF9E
S2140036402DE9F0430D46164601221A4BDFF874802A
S214003650194F187085B0D8F8000000213A7007F0AE
S21400366072FFE8B2FFF7ECFE0446F0B1DFF85890C0
S214003670D9F80030984203D0FFF712FFC9F800408F
S214003680FF238DF804300D4B3246CDE9023629462D
S214003690D8F8000001AB07F0CDFF38B17F22084B09
S2140036A001201A7002233B7000E0072005B0BDE839
S2140036B0F08300BF901F0020921F002020A107006B
S2140036C0911F0020401D00208C1F002008B50E4BC7
S2140036D01B889B0713D501280C4B11D10F22002104
S2140036E020201A70FFF724FF00210220FFF720FF9A
S2140036F0074B186807F02CFF0022064B1A7008BD0F
S2140037000B221A70F0E700BF441D00209120002015
S214003710401D0020902000202DE9F0471446A2020C
S21400372005461E468AB01AD5A44B1B78002B00F01F
S214003730EB8005A908F093FE002840F0FF809DF876
S2140037401C30032B00F0D9809DF81C30022B06D1CC
S214003750BDF8140001F0F6F8002880F2D480E301EA
S21400376004F0807240F1FB80954B1B889F070DD5B7
S21400377002200021FFF7DCFEFFF740FE0746002888
S21400378000F0E48001210820FFF7D2FE200775D55F
S214003790284608F03AFBDFF83C82014605AAD8F82E
S2140037A0000008F023FB8146002867D09DF81430FF
S2140037B0072B63D10DF1020305AA01A9FFF720FF2D
S2140037C000285BD005A8FFF749FE002856D1BDF8B3
S2140037D01830002B40F0D280089B1F789DF80D30E3
S2140037E0002B00F0CD80BDF80230052B46D107F047
S2140037F00703022B42D1DFF8F8A105A9DAF800008A
S214003800FFF73AFEBDF802304946D8F80000AAF89D
S214003810043008F0FCFAFFF7F1FD40B3694BDAF824
S21400382000201B6892789B789A4220D19DF80A3037
S21400383023B3BDF8023001A90133D8F80000ADF873
S214003840083008F0DEFA0146C0B901A8FFF7BCFE52
S2140038505D4B082019705D4B1970FFF769FEFFF786
S214003860DDFD20B1F90642BF0122594B1A70FFF761
S214003870D5FD18B9D8F8000007F06AFEA2014FF08F
S21400388000080CD5524F41460420FFF751FE3B7806
S2140038902BB1504B186807F05BFE87F8008014F0D9
S2140038A0084F01D0FFF7C8FEA30001D5FFF7C4FEFE
S2140038B0A70705D5424B1B88180701D5FFF74CFE16
S2140038C071060AD53E4F3B881A0701D5FFF744FE1E
S2140038D03B885B0701D5FFF7AFFEF70540F1A880F0
S2140038E0284607F009FE0B2840F0848040F60C01BD
S2140038F0394B3A4A3A4805F083FA05A801F07AF8B7
S2140039000028FFF621AF284608F0A7FDB0B9314BD6
S21400391005A9186808F06EFA05A8FFF79FFD0028AD
S2140039207FF41DAF079A089BBDF81810002918BF32
S21400393013461A7862F07F021A7010E702283FF4E6
S2140039400EAF40F25771274B274AD3E7214B186832
S21400395007F0FEFD1D4B1F701B4B1F7016E706F091
S21400396002031A4303D00120FFF7B0FE0EE704F06F
S214003970A84213433FF40AAF0220F5E7079B2CE763
S2140039801A4B1B7823B9BDF80230052B3FF476AFEF
S21400399017F0200704D001210420FFF7C9FD6DE7CA
S2140039A0DFF82C9099F80030002B3FF467AFD8F87A
S2140039B0000007F0CDFD89F800705FE79B1F002030
S2140039C0441D0020982000209020002091200020F8
S2140039D03C1D0020401D0020BD200100D422010017
S2140039E03E200100AF1F0100FE220100C41F002080
S2140039F0C81F0020031FDBB2022B0DD9032806D1F7
S214003A00254B1B7843B9254B1B78012B1EE002285B
S214003A101BD1214B1B785BB1214F3B88580701D542
S214003A20FFF70AFE3B88990702D50120FFF74EFEF6
S214003A30B20513D500222846114608F05FF968B192
S214003A4040F6BF01174B184A54E70A28F0D17F22E8
S214003A50164B1A700222114B1A70E9E7E30713D5CA
S214003A60284608F0FAF90446284607F071FD14F5D2
S214003A70007F0ED0002CB8BF033444F38704022224
S214003A800A4B1C70054B1A700AB0BDE8F04700F0F0
S214003A90BBBC7F24F3E700BF90200020921F0020CD
S214003AA0441D0020AF1F010019230100911F0020B4
S214003AB0594B73B5198811F0010140F0A780574D96
S214003AC0574B584EC5E9003141F60B232846A960EE
S214003AD03160B38007F0F2FC044630B940F20621AC
S214003AE0514B524A524805F08BF94FF0011108F03D
S214003AF04EF920B140F20E214E4B4C4AF2E72046DA
S214003B004D4908F01DFC20B140F21121494B474AAF
S214003B10E8E70121204608F07AFC20B140F21621A1
S214003B20444B424ADEE70121204608F083FC024669
S214003B3020B140F219213F4B3C4AD3E78023204670
S214003B4005F5D67108F030F9802804D04FF40971D5
S214003B503A4B364AC6E73A4D2DA3D3E900232C60EC
S214003B602046CDE900234FF0FF324FF0FF3308F038
S214003B7015F820B14FF4D8712E4B324AB2E73046D2
S214003B80FFF78EFC01210846FFF7D2FC01212868CA
S214003B9007F0C6FC20B140F2A121264B2A4AA1E735
S214003BA02A4B2B4A98801A602A4B2B4A98801A6018
S214003BB02A4B2B4A98801A602A4A0B20DA60FFF7B5
S214003BC03FFC294B186020B940F2B121274B1E4A12
S214003BD088E7FEF7D7FD0021286808F01BF820B11B
S214003BE040F24E21134B224A7CE7082228681146F1
S214003BF007F0E1FF20B140F2B5211E4B124A71E7F3
S214003C001D4B18701D4B18701D4B187002B070BD00
S214003C100B0020FF22020000441D0020501D002043
S214003C2019370000481D0020EC200100C6220100C4
S214003C303E200100AF1F0100D8230100FB20010039
S214003C40401D0020B922010028230100F01F00209B
S214003C5010200020C81F0020E81F00209820002009
S214003C60C8200020B82000208C1F00202D21010035
S214003C70C223010048210100921F0020912000204D
S214003C8090200020084B82B09A6CDB6CCDE90023B4
S214003C904B1E02AA073112F8010D03F8010F8B42E2
S214003CA0F9D102B0704700BF0080E00F07B50846A4
S214003CB0019100F041FE084B00220199186808F0B7
S214003CC079FB30B14FF44671044B054A054805F0C0
S214003CD097F803B05DF804FB401D0020AF1F0100FD
S214003CE0AE2301003E20010010B50B48CB1D1C780A
S214003CF08B4200F8014B03F1FF33F8D1074B00224B
S214003D00186808F067FB30B140F22D31044B054AC5
S214003D10054805F075F810BD931F0020401D0020D3
S214003D20AF1F0100902301003E20010008B5074B9D
S214003D300022186808F046FB30B140F23931044BD7
S214003D40044A054805F05CF808BD00BF401D002089
S214003D50AF1F0100752301003E200100034B1A78B7
S214003D600AB901221A700020704700BF8F20002079
S214003D70034B1A780AB100221A700020704700BF61
S214003D808F20002038B50C4D2B78032B12D08BB12A
S214003D900A4C206807F0D5FB012804D00122002138
S214003DA0206807F0D0FB206807F0D2FB0123002034
S214003DB02B7038BD0D20FCE78F200020401D002012
S214003DC02DE9FF411A4E0C4633786BB30846FFF7D1
S214003DD037FB054650B3DFF86880164FD8F800303A
S214003DE0834209D001220021386807F0ACFB284640
S214003DF0FFF756FBC8F800500023CDE901330393C4
S214003E00FF232146386801AA8DF8043007F002FC2B
S214003E1018B1012004B0BDE8F08102233370064BD0
S214003E209C71064B9C71F5E70D20F3E70720F1E740
S214003E308F200020401D0020F01F0020C81F0020FB
S214003E408C1F0020F0B53A4F8BB03B88990706D4FC
S214003E504FF46B71374B384A384804F0D1FF384C72
S214003E60236823B940F2AD31364B334AF4E7364A7D
S214003E7004AE07CA86E807003A889A8818468DF87E
S214003E800F2000F03FFDD0B1206800F040FDB0B13B
S214003E902068837E1A0712D42C4ADB0782600AD475
S214003EA02B4B197800F044FD2A4B206819684A1CF1
S214003EB01A6000F03FFD2849206800F021FD01232C
S214003EC0264D1A460DF10F01286807F069FF9DF888
S214003ED00F202168023A0023096892B2286807F08A
S214003EE05FFF1F4A07AB07CA83E8070020683988C8
S214003EF0026811F0200F12788179C2F3401213D0B5
S214003F00007E8DF812001748007800938DF8130095
S214003F103346286807F06EFB20B10220FFF7D6FB79
S214003F2000F072FA0BB0F0BD286807F053FBF3E719
S214003F30441D0020CC210100512301003E20010039
S214003F4048210020F22101005C2201007C1F002095
S214003F509C1F0020A01F0020931F0020401D002053
S214003F60682201003B1000202DE9F843DFF8D080DE
S214003F70064698F800300C46002B4CD0032B4AD04F
S214003F808879FFF75DFA0546002846D0254F3B683E
S214003F90834209D0244B01221868002107F0D3FA87
S214003FA02846FFF77DFA3D60204B1A7802F0FF079F
S214003FB032B140F295311E4B1E4A1F4804F020FFD6
S214003FC003224FF0010988F80020DFF87880A17EF0
S214003FD088F8007083F80090184BC1F34001202049
S214003FE01C60FFF7A5FAFDF76EFF0546494602205E
S214003FF0FFF79EFAFFF726FF2846FDF76AFF98F8B8
S214004000003003F0FF0553B92146304602F027F88A
S2140040102846BDE8F8830D25FAE70725F8E73D466C
S214004020F6E700BF8C1F0020401D002090200020D7
S21400403003220100612301003E20010048210020E8
S2140040408F200020912000200048704798200020F4
S21400405038B5134C237803F0FF000BB17F2038BD32
S214004060104B10229979FFF7EBFA0028F6D107F0EB
S21400407003FF05462378012B05D107F0FDFE431B01
S214004080B3F5967FF6D32378022B0ABF064B7F2024
S21400409018784FF0000308BF40B22370DFE700BF78
S2140040A0921F0020F01F0020911F00207B207047E9
S2140040B0014B1878704700BFC41F002008B5074B97
S2140040C01970074B186808F08DF930B140F2A54119
S2140040D0044B054A054804F093FE08BDC41F0020A3
S2140040E0401D0020AF1F0100372301003E200100C5
S2140040F0014B1970704700BF9B1F002010B50C467F
S21400410049B1064B186807F0ADFD0A2390FBF3F0A3
S2140041102070002010BD0720FCE700BF401D0020D7
S21400412008B5084B01EB81011868490007F072FDDD
S21400413030B14FF49961044B044A054804F060FE20
S21400414008BD00BF401D0020AF1F010089220100EE
S2140041503E20010021B1034B00201B780B707047F6
S214004160072070473B100020014B00201970704755
S2140041703B1000206FF0630070470000054B1B7873
S2140041802BB94FF47A7301205A43FFF759BA05202A
S214004190704700BF921F00202DE9F0411646DDE96A
S2140041A006871C461BB1B8F1000F00D037B940F2A5
S2140041B0FF410F4B0F4A104804F022FEFDF783FE26
S2140041C005460E4B214610220D481E7004F096FE42
S2140041D0414610220B4804F091FE394610220A4848
S2140041E004F08CFE2846BDE8F041FDF772BE00BF25
S2140041F01A220100742201003E2001009C1F0020AC
S214004200B41F00207C1F0020A41F002010B50C4601
S214004210FDF759FE024B1C60BDE81040FDF759BE85
S214004220A01F00202DE9F0438BB00546FDF74BFE9E
S214004230DFF8948181460221D8F8000005AA07F02D
S214004240D5FD0446002800F08E809DF81430072B1C
S21400425040F089800DF1020305AA01A9FFF7D0F905
S214004260074600287DD005A8FFF7F8F8002878D183
S2140042704A4B1E7836B99DF80D30F3B9BDF80230BA
S214004280052B1AD0464E05A93068FFF7F5F8BDF89D
S21400429002302146B38033681E7806F07F021A701B
S2140042A0D8F8000007F0B3FD9DF80A30002808BFD4
S2140042B00024002B43D1002624B12146D8F8000064
S2140042C007F0A5FD4846FDF704FE6EB10023354C09
S2140042D02370FEF7E9FF22783149002845D02846AA
S2140042E001F0D7FE00F090F82F4B1A78032A11D170
S2140042F02E4A127872B92E4C227802221A70FEF7D5
S214004300D3FF002835D0284622782A4901F0C4FE7B
S21400431000F07AF8284B1B78012B3BD1274B1A78F4
S214004320022A37D100221A70254B2846197849B23E
S21400433001F0A8FE0BB0BDE8F04300F065B8BDF88C
S2140043400230D8F80000013301A9ADF8083007F0B4
S21400435058FD0028AFD1F10901A8FFF735F93E4610
S214004360AAE70026A9E70026ACE7284601F070FE7B
S214004370B8E710490B681B789B0601D5237833B144
S214004380002223780B49284601F070FEC0E7237808
S2140043900C4AF8E70BB0BDE8F08300BFC41F00204E
S2140043A0F01F0020ED1F00208F200020902000200E
S2140043B09120002098200020901F0020921F0020AF
S2140043C0911F0020C81F0020401D002008B507F0E0
S2140043D00FF8FFF76DFBFEF777FEBDE80840FEF727
S2140043E0CDBF000007B5074B0190186000F094F8A9
S2140043F00198FFF717FF019803B05DF804EBFEF78E
S21400440013BF00BF4C210020704700000122024B62
S2140044101A70FFF7F9BF00BFD62200202DE9F84337
S2140044201D46194EDFF868901746B6F88020B6F895
S214004430823099F800109BB25B1A2B4492B203F0BC
S2140044407F039A42804615D0B6F882006A1A16FA9A
S21400445080F0394404F052FDB6F8824099F80030F6
S214004460A4B2E41A00232C4404F07F04A6F8824089
S21400447089F800302A4639464046044BFCF782FE4F
S214004480BDE8F843FFF7C0BF522200201D440000DD
S21400449050210020FFF7B8BF38B500240F4B104D51
S2140044A0A3F880408022A3F882400E490E4B28686D
S2140044B0FCF768FE80220C4B0C492868FCF762FE6D
S2140044C04FF400620A4B2046C3F880211A60094A5E
S2140044D0D36C43F00403D36438BD00BF52220020DF
S2140044E060100020512100201D440000D121002032
S2140044F000E100E0008005400A460146044808B591
S2140045000068044BFCF7D8FE003818BF012008BD31
S214004510601000200D4400007FB5FDF7D4FC054672
S2140045202B482C4E03AB02AA006801A9FCF7E4FB5B
S2140045303378029A284C934214D2B4F88200019938
S214004540D21A194414FA80F004F0D8FCB4F8823079
S214004550029A317812FA83F35B1A03F07F03A4F809
S214004560823032702846FDF7B4FCB4F88250B4F8B6
S2140045708030ADB29BB29D420DD2B4F88000B4F844
S214004580801014FA80F0C1F1800189B200F0A8F919
S2140045900023A4F88030B4F880309BB29D420BD044
S2140045A0B4F88000B4F8801014FA80F0691A89B262
S2140045B000F096F9A4F88050084B1A7832B1002221
S2140045C01A7004B0BDE8704000F08CB904B070BD3D
S2140045D0601000205021002052220020D622002009
S2140045E000207047B0F5802F24D010D8B0F5003FDB
S2140045F022D006D828B3B0F5803F14BF012048204B
S2140046007047B0F5403F14BF01202C207047B0F52E
S214004610302F13D008D8B0F5E02F11D0B0F5202FEA
S21400462014BF012010207047B0F57F0F14BF012083
S214004630062070474B2070472A207047112070478D
S21400464021207047002070470020704708B570B1E1
S214004650FDF779FE4FF098435A6CD202FCD5586DA0
S21400466010F4702004D0BDE80840FFF7BBBF21203F
S21400467008BD08B528B12022002104F066FC002001
S21400468008BD2120FCE700002DE9FF4700230E4669
S21400469017460446009300285BD00AB1002958D07C
S2140046A037F0030807F0030A25D04FF000094FF053
S2140046B0E063C4E90039012301962046029301A96C
S2140046C048F00053C4F80890C4F81C900393FDF714
S2140046D027FE41462046FDF72DFE2046FFF7B6FF93
S2140046E0054640B142464946304604F02EFC284670
S2140046F004B0BDE8F0874FF00009BAF1000F2AD0E9
S2140047004FF0E063C4E900390123CDF804D00293EA
S214004710124B204601A9C4F80890C4F81C900393D5
S214004720FDF7FEFD04212046FDF704FE2046FFF7B8
S2140047308DFF054608B13A46D5E70346009946443C
S214004740DA00013321FA02F29A4506F8012BF7D176
S214004750CDE72125CBE75546C9E700BF040000207A
S21400476008B500F09DF8002818BF6FF03B0008BDA4
S214004770FFF736BF08B5FFF733FF30B9FFF762FF24
S214004780003818BF0120404208BD4FF0FF30FBE75D
S214004790FFF75ABF2422002104F0D7BB18B1242209
S2140047A0002104F0D2BB704770B515460E46242291
S2140047B00021044604F0C9FB25F04003802B02D0FC
S2140047C0B5F5807F08D12046314640F8045BEA08FC
S2140047D004F094FB002070BD6FF07100FBE7000052
S2140047E02DE9F04104681E4624F04003802B054660
S2140047F08846174692B002D0B4F5807F47D11C2277
S21400480000210BA804F0A1FB224A234B0121B8F19A
S214004810010F18BF13460A932B1D0193E4081F4B84
S21400482044F0005402910AA8039404970591069355
S2140048300796089101A90993FDF768FD04A90AA83F
S214004840FDF764FD07A90AA8FDF76AFD29680AA80E
S214004850C908FDF76FFD10210AA8FDF76BFDFFF7ED
S21400486089FF044678B90AA8FDF76DFD4FF0984316
S2140048705A6CD202FCD55D6DFFF78AFF05F47025F1
S214004880002D18BF2C46204612B0BDE8F0816FF010
S2140048907104F8E700010104000100041000002084
S2140048A070B588B00E4614461D46FFF799FE18B13F
S2140048B06FF0920008B070BD6846FFF7DAFE002879
S2140048C0F6D1224631466846FFF7DEFE0028EFD1D5
S2140048D02C60EFE710B50C46FFF70EFE204610BD25
S2140048E003F065BF03F05ABF10B50446FFF7D4FDCA
S2140048F02046BDE81040014903F0B0BED548000090
S21400490001F022B803681878C0F3C000704707B5F6
S2140049100DF1070100F02CFF40B99DF80700A0F14B
S21400492008035842584103B05DF804FB0020FAE73C
S21400493000F069BF00F03CBF014B1880704700BF15
S214004940D822002000220A4B10B51B8809491844BB
S21400495083B20C8810B29C4201D18C7834B90132F3
S2140049600A2A01F10401F4D14FF0FF3010BD00BF58
S214004970D822002002230020002010B50D4A02EBAA
S2140049808004A47803B224B101300A28F7D14FF08E
S214004990FF339BB2092B0AD807480088014422F847
S2140049A0231002EB8303012200209A7010BD03201F
S2140049B0FCE700BF02230020D8220020084608B5E6
S2140049C0FFF7C0FF83B2092B9BBF0020044A0A20D2
S2140049D002EB83019CBF887022F8230008BD00BF4D
S2140049E00223002028220021014804F0AEBA00BFAE
S2140049F00223002010B50E4B418802881B880A440B
S214004A00134482880B4912FA83F3C28812FA83F39E
S214004A1000229BB20C8810B29C4201D18C7834B92B
S214004A2001320A2A01F10401F4D14FF0FF3010BD23
S214004A30D8220020DA220020002330B5114800EBEF
S214004A408304A4781AB224B101330A2BF7D14FF0AD
S214004A50FF3292B2092A13D80B4B0C884D881B885C
S214004A602C4423448C88C98814FA83F311FA83F300
S214004A7020F82230012300EB82020020937030BD24
S214004A800320FCE7DA220020D8220020084608B5DA
S214004A90FFF7B0FF83B2092B9BBF0020044A0A2011
S214004AA002EB83019CBF887022F8230008BD00BF7C
S214004AB0DA22002028220021014804F046BA00BF6E
S214004AC0DA2200208C3000F0A3BC00F0DFB8012012
S214004AD0704700F0EBB8000000487047F423010070
S214004AE0143000F0E1BC8069003818BF0120704720
S214004AF0143000F005BD00000148FFF7D9BA00BF2A
S214004B003023002008B5836923B10348FFF7D6FA9F
S214004B10002008BD0D20FCE730230020836913B178
S214004B200248FFF72FB90D20704700BF3023002042
S214004B30143000F0EFBC806B7047143000F000BDFE
S214004B40243000F0BFBF143000F014BD08B58369F0
S214004B5023B10348FFF7CCFA002008BD0D20FCE780
S214004B6030230020836913B10248FFF705BF0D20EC
S214004B70704700BF30230020836907B553B16846ED
S214004B80012200F043FF69460348FFF755FF03B0D4
S214004B905DF804FB0D20FAE730230020836913B18B
S214004BA00248FFF70BBF0D20704700BF30230020E0
S214004BB0836907B553B16846012200F027FF6946AE
S214004BC00348FFF763FF03B05DF804FB0D20FAE728
S214004BD03023002008B5836923B10348FFF702FF9E
S214004BE0002008BD0D20FCE73023002008B58369AF
S214004BF023B10348FFF75EFF002008BD0D20FCE749
S214004C0030230020143000F0D1BC143000F0DDBC9E
S214004C1001F04EBA007D7047143000F060BCC08AC8
S214004C207047143000F04EBC2A307047143000F045
S214004C305DBC008D7047FFF725B80120704710B5A2
S214004C400446FFF744FF20B1201DBDE8104000F0E9
S214004C5083B810BD704738B504460025043000F010
S214004C6060F8C4E9025504F1100000F02BF8214664
S214004C7004F1140000F008FC214604F18C0000F05A
S214004C8008FB204684F88D5038BD000010B5064C51
S214004C9094F88D302BB92046FFF7DDFF012384F80A
S214004CA08D30014810BD00BF30230020FEF772BBD8
S214004CB031B16FF00043994208BF0121016070478F
S214004CC00121FBE737B54FF6FF720C4D04462B88E3
S214004CD0934200D1FEE753B904210DEB0100FEF725
S214004CE031FB00B1FEE701990548FFF7E1FF2046DA
S214004CF02B8801332B8003B030BD00BFC0230020BB
S214004D00C4230020002310B5421E98B2814203D966
S214004D100133D45C002CF8D110BD02600022426042
S214004D207047002202607047036823B90160044898
S214004D304960FFF78FBF5A684A6059600160704744
S214004D40302300204368014613B90248FFF7ECBF42
S214004D50704700BF3423002038B50025046805607E
S214004D604CB16068844216BF4368002463600368E1
S214004D7045609847F4E738BD4368496810B59C1A03
S214004D808A1AD20FB2EBD47F08BF5B1A4FEAD470F0
S214004D9008BFD80F10BD000070B505680C4625B9D1
S214004DA0BDE870404B68084818478B6898476A68A3
S214004DB00146831A002BB8BF121A2368A8BF002228
S214004DC0BDE87040004818473023002038B50C4630
S214004DD01146A2680346944206D00568AC4204D148
S214004DE00260FFF7D9FFA46038BD2A460021002ADA
S214004DF0F9D0944208D011469268F8E78B68002BE9
S214004E00F1D09B688B60EEE70029F7D1002DEAD041
S214004E10AA681A60E7E72DE9F047936805460C464E
S214004E20164698473246814621462846FFF7CEFF6B
S214004E30D5F800A04FF00008574647B14A46394615
S214004E402046FFF799FF10B9B846BF68F5E7B8F1F6
S214004E50000F08D1C4F808A0314628462C60BDE8EB
S214004E60F047FFF799BFD8F80830A360C8F80840A5
S214004E70BDE8F08770B5066804460D467EB18B68BF
S214004E8098477368C01A002809DB20462A46314630
S214004E90FFF79CFF30463368BDE870401847294648
S214004EA02046BDE87040FFF777BF000010B5044607
S214004EB0FFF70DFE30B104F108000349BDE81040CD
S214004EC0FFF7D8BF10BD00BF442401004160024A6E
S214004ED001460248FFF79FBF382401003C2300200C
S214004EE0002A00DAFEE71144FFF7F0BF0146024A47
S214004EF00248FFF76BBF00BF382401003C230020A8
S214004F0010B50446FFF7E3FD30B104F10C00034989
S214004F10BDE81040FFF7AEBF10BD00BF382401004B
S214004F20802200F09DB92DE9F84F13F001090446E0
S214004F300E4690461F46DDF828A002D1043B0C2BF7
S214004F4000D9FEE713464A46D0B201320BB11B0A1F
S214004F50FAE79DF82C50022838BF02200D2D28BFF6
S214004F600D25C5F10F039842B8BFD8B2C0F10F03A4
S214004F709D42C8BFDDB2002E14BF40220022013879
S214004F80BB1E5FFA80FB5B104BEAC303134351461C
S214004F902A4684F8243004F1250003F0AFFF424689
S214004FA00F2304F133019D4205D2013B01F801298C
S214004FB0DBB2120AF7E704F124021146204600F09D
S214004FC051F98EB1B6F57F4F94F8242094F8253029
S214004FD0C6F30720F1B227D24FF0020942404B40F9
S214004FE084F8242084F825302A46514684F834B0C4
S214004FF004F1350003F082FF05F135000021C5F10C
S2140050000F02204403F0A1FF0023C4E916382366EC
S214005010102384F868506665A4F86490A4F8663097
S21400502084F86970BDE8F88FD24383F0FE0384F8F5
S214005030253094F8263084F8242083EA166384F812
S214005040263094F8273094F8282083EA164384F80C
S214005050273094F8293042404B404FF0060984F838
S214005060282084F82930BFE72DE9F843836D1546DC
S2140050701344426D0446934220D80E464FF0000873
S2140050804F1900F12409B74219D0B4F86430102B38
S21400509006D14A464946204600F0E4F8A4F8648063
S2140050A0B4F864305A1CA4F86420234416F8010BA4
S2140050B093F82420504083F82400E4E7FEE7A26D2E
S2140050C0636D15449D42A5650BD1B4F864302BB1D1
S2140050D004F124021146204600F0C4F80023A4F888
S2140050E06430BDE8F8832DE9F74F1E469DF8303052
S2140050F004460193036EC06D3344834252D86FF06A
S214005100330A0D46914601EB0608AAEB040A04F1A1
S214005110440BA84550D0B4F86620102A17D194F84E
S214005120680004F143010AEB0102904206DA0A78AD
S2140051300132D2B201F80129002AF4D05A4620469C
S21400514004F1340100F08EF80022A4F86620B4F8CA
S2140051506620019B511C89B2224423BB2F78A4F8F9
S214005160661092F844207A4089F80020B4F864204B
S214005170102A08D104F124021146204600F072F8E5
S2140051800022A4F86420B4F864200135511CA4F869
S2140051906410224492F8241009F101094F4082F865
S2140051A02470B6E7FEE799F80070A4F8661092F847
S2140051B0442057402F70D9E7236E1E44E36D2666C1
S2140051C09E4215D3B4F864302BB104F12402114684
S2140051D0204600F047F8002194F8682002F13500D8
S2140051E02044C2F10F0203B0BDE8F04F03F0ADBE9D
S2140051F003B0BDE8F08F38B5D0E917329A420446BE
S2140052000D4600D0FEE700F1340100F1440200F044
S21400521029F8002304F1240194F869209A4206DD57
S21400522011F8012BC87F4240EA540133F4E738BD39
S21400523070B50D461C46164601460822184603F071
S2140052405DFE2B0E23722B0C63722B0AA372E57283
S214005250267370BD10B50446FFF79CFA204610BDB5
S214005260FFF7A2BA13460A460121FFF7B9BA10B5EE
S2140052700446FFF793FA204610BD08B50120FEF756
S2140052800DF8002008BD08B50020FEF707F800203E
S21400529008BD7047FEF710B803460846114613B11E
S2140052A0014A04F001BA70475024010013B50022E9
S2140052B00C4601A904F0C8FA019B20601878002863
S2140052C018BF062002B010BD012937B51D4608D00C
S2140052D0072420462946069AFFF7DEFF204603B03D
S2140052E030BD106801A9FFF7E1FF04460028F0D1A1
S2140052F00198A0F10B030F2BEAD8C0B2FDF7DAFF36
S214005300E7E7012937B51D4611D1106801A9FFF757
S214005310CDFF044618B99DF90400FDF7CCFF2046E2
S2140053202946069AFFF7B8FF204603B030BD07248B
S214005330F5E700002DE9F347DDF82880814615469D
S2140053401F460C4681B9FDF7AFFF2A492A4B2B4A68
S214005350002818BF0B464146384604F0A5F900263B
S214005360304602B0BDE8F0872549106804F0D0F951
S21400537028B9013C14F0FF0405F10405E3D000232E
S2140053804FF0040A1F4E3B703168286804F0C0F9DD
S21400539010BBB36876685A1009EB6300DB0748BF9A
S2140053A059F8023004F1FF3148BF9E59012C08BF5E
S2140053B000223B46C9B218BF2A1DCDF80080B04770
S2140053C023280646CCD1012CCAD0414638462B6845
S2140053D00D4A04F069F9C3E7BAF1010A06F10C06B2
S2140053E0D2D13B462A462146CDF800800748FDF735
S2140053F085FFE5E7652401006D2401007A2401009D
S214005400762401004C25010093240100302300205F
S214005410F0B50E461D460023E5B007464FF48071F2
S214005420304614468DF80F30FFF76CFCFF281AD86C
S214005430314624A804F076F9202304AA0DF10F01C2
S21400544024A800F049FE03280DD0072811D090B9F3
S2140054502070234638469DF80F10009504AAFFF7E3
S21400546069FF65B0F0BD054A2946204604F01CF9E0
S214005470F7E7034AF8E7034AF6E700BFB824010057
S214005480DA2401000F2501000B2310B503704FF638
S214005490FF73438000230446C0E90133C360103025
S2140054A000F0CCFA204610BD38B504460D46103044
S2140054B019B100F02BFB10B138BD00F03DFB002009
S2140054C06560F9E738B5436804460D462BB11030E1
S2140054D000F0FCFA0020658038BD0D20FCE743682C
S2140054E013B10170002070470D20704708B543685F
S2140054F023B1103000F0F6FA002008BD0D20FCE7BE
S21400550008B5436823B1103000F0E6FA002008BD65
S2140055100D20FCE743681BB110F8101B00F020BB01
S2140055200D20704710B444682CB122B923460348B6
S2140055305DF8044B18475DF8044B70473023002095
S21400554038B5436804460D462BB1103000F06EFCAB
S21400555000B9A56038BD0D20FCE7000038B58568A9
S21400556004461DB10248A8470023A36038BD00BF0B
S2140055703023002038B51D46436804462BB1103052
S21400558000F030FB00B9E56038BD0D20FCE70000F8
S214005590436810B504462BB1C3681BB10248984750
S2140055A00023E36010BD00BF3023002013B544681D
S2140055B04CB1059C10300194049C009400F09CFBB8
S2140055C0002002B010BD0D20FBE708B5436823B1EC
S2140055D0103000F0DFFC002008BD0D20FCE703685B
S2140055E01888704700F44053B3F5005F1ED148F2A8
S2140055F0400220F44E5323F03F0393421CD00CD8B5
S214005600B3F5446F18D005D8B3B1B3F5046018BF2E
S21400561001207047B3F50040F9E74CF6404293424C
S2140056200AD000F44C40B0F54040F0E710F4406F6C
S21400563014BF0120002070470020704710F440433C
S2140056400DD043060BD400F44053B3F5005F08D1E9
S21400565000F44C40B0F54C4018BF012070470020C5
S214005660704701207047102804D0182814BF002067
S214005670082070470420704700F00700013806280D
S2140056800BD8DFE800F00406080A04060800042029
S21400569070470820704710207047002070470000B1
S2140056A0430708D000F01803083BDBB2102B04D8E1
S2140056B0034AD05C7047FF2070470520704700BF44
S2140056C07C25010008B50146FFF78CFF01F4406316
S2140056D000280CBF03220522B3F5006F06D0B3F5F1
S2140056E0406F17D023B1FF22104608BD0232D2B257
S2140056F00846FFF7A3FF08B10232D2B201F44041D8
S214005700B1F5004F08D0B1F5404F08D0002918BFBA
S214005710FF22E9E70832EAE70232D2B2E4E70832CB
S214005720FBE708B58388042B05D9FFF758FFBDE8CB
S2140057300840FFF7C7BFFF2008BD8288022A05D9A8
S21400574003681B781B0701D5FFF7EBBFFF207047E8
S21400575038B505460C46FFF7F0FFFF2817BF2B6845
S21400576006201B5C00201CBF03F00703237038BD17
S21400577038B505460C46FFF7E0FFFF2817BF2B6835
S21400578006201B5C00201CBF03F01803237038BDE6
S21400579038B505460C46FFF7D0FFFF281FBF431C51
S2140057A02A68DBB2D35816BF00200620236038BD17
S2140057B038B505460C46FFF7C0FFFF2800D1FEE7C8
S2140057C02A68431C52FA83F0D9B2230A5454437011
S2140057D0230C240E8370C47038BD38B505460C46BD
S2140057E0FFF7ABFFFF2802460BD02B68185C13446C
S2140057F000F01800FFF737FF034400205B792370A2
S21400580038BD0620FCE738B505460C46FFF795FF81
S214005810FF28024600D1FEE72B68185C134400F010
S2140058201800FFF720FF03445C7138BD10B504462E
S214005830FFF783FFFF2806D02368185CFFF71CFFDE
S2140058400230C0B210BD0220FCE710B50446FFF7D8
S21400585068FFFF28014610D023681A7812070CD577
S214005860A488A0420BDA185CFFF71AFFFF2808D0BE
S2140058700144C9B28C42B8BFFF21084610BDFF21C3
S214005880FBE70146F9E7F8B50646FFF7DEFF84B208
S214005890FF2C2DD03046FFF7A2FE830505461CD50B
S2140058A03046FFF7C3FF3768B188A21C93B210FAE0
S2140058B082F28A4207EB04061CDC3A5D02F07F02A5
S2140058C013449CB210FA83F3994213DB3288C2F376
