S042000044796E616D69634D756C746970726F746F636F6C5377697463685F65667233326D673132703333326631303234676C3132355F62726434313632612E73333761
S113000010C703205B850300F1DD0100397F030085
S1130010A70A02020002000004180FAC006AA6023C
S113002000000000000000000000000000000000CC
S11300300000000030BC03000000000000000000CD
S11300400000000000000000FFFFFFFFFFFFFFFFB4
S1130050FFFFFFFFFFFFFFFFFFFFFFFFFFFFFFFFAC
S113006000700F000000000000000000FFFFFFFF11
S1130070FFFFFFFF1C000000000000000000000064
S11300800000000000000000F0FF0320F0FF032048
S113009010C70320301C0400E0850300B0BD03201A
S10F00A0BC100020000010000000000054
S113020010C703205B850300F1DD0100397F030083
S1130210A19002003D7F0300417F03000000000025
S11302200000000000000000000000004F7A000001
S1130230457F0300477A00001B9A000093A3000047
S1130240C990020019340300517A00004D7F030065
S1130250092F0300513403001F3403002134030029
S11302601B340300234F03007D510300DFAE020063
S1130270C55302004D7F03004D7F0300BB81030083
S11302804D7F03004D7F03008B5103004D7F03001E
S11302904D7F03004D7F03004D7F03004D7F03001E
S11302A04D7F03004D7F03004D7F03004D7F03000E
S11302B0533403001D3403000F120300873403007A
S11302C04D7F0300C58303004D7F03004D7F030072
S11302D04D7F03004D7F03004D7F03004D7F0300DE
S11302E04D7F03004D7F03004D7F03004D7F0300CE
S11302F04D7F03004D7F03004D7F03004D7F0300BE
S11303004D7F03004D7F03000000000000120348EE
S1130310016830BF41F000410160704700BF4C31BB
S11303200E40000080B5002000F0DEFA012002BD7E
S11303301E482DE9F04100688189007D091A1446A0
S11303409846CE1E0027002506E0B2B2B9B2404658
S113035000F01AFDFF1C6D1CE8B2A042F5D300208A
S113036000F0C2FA0120BDE8F0812DE9F8430F4EF8
S113037030688189007D091A90469946CF1E002471
S1130380002509E000F014F8E41C00F011F8A41CA6
S113039000F00EF8E41C6D1CE8B24045F2D330685E
S11303A0002100F0E2FA0120BDE8F283B4D7032073
S11303B0BAB2A1B2484600F0E7BC704780B501F07C
S11303C081F8FF2805D0032803D2DFF88417085CDE
S11303D002BD002002BD10B50268DFF8781713884B
S11303E00B8054884C8052790A7103681A794A71D7
S11303F04FF48A53CB80026893799A06DFF8582722
S113040044BF4FF48B53CB801378816939B9C088CA
S1130410DFF84817088003F0FD03137010BD43F0A4
S11304200203137016228169DFF83447204601F075
S1130430F9F90022227010BD80B5002001F007FAFE
S1130440FF2001F09AF801F010FA00F01AFD0146BD
S11304500122DFF8FC0601F023FADFF8F836DFF8B2
S11304600427DFF80407522101F0D7FA01F09AFBC0
S113047001F02EFC01F042FD01F03CFE02F0CBFD48
S113048002F00AFE02F00AFEBDE8014000F0D1BD10
S1130490704780B502F0FFFE20B904F0EFFB08B905
S11304A004F0D6FC04F02DFDBDE8014004F038BD95
S11304B070B5034600224FF6FF70DFF8B04601E046
S11304C0521C92B234F8325085420CD09D42F7D17E
S11304D0B3F57C4F06DB04EBC2056E888E4201D077
S11304E00D00EDD1104670BD10B50446FFF7E0FFD6
S11304F0DFF87C160B884FF6FF72904203D1224638
S1130500DFF8701606E0DFF8641601EBC000DFF8D0
S113051068164268BDE81040184604F04EBDDFF886
S11305205C06006800B1008A704710B50446216873
S1130530487900F0C7FFFF281DD0DFF8441601EB0F
S11305400010217F027B8A4215D1226840881188DD
S1130550884206D04FF6FF7399420CD1B0F5004F94
S113056009DA2079022818BF032806D111895079A5
S113057004F080FC08B9002010BDA07B00282046B0
S113058002D004F06BFD01E004F098FD00B10120FD
S113059010BD7CB51446227855074CBF05220322B2
S11305A09342DFF8E05504D200922A46DFF8D815CA
S11305B032E0089E069A30603171F280B460B381F3
S11305C0207800F00100B0732178890801F001015E
S11305D0F17301212078C00800F001007075F07BF0
S11305E030B131751A46204600F0CEFB317D891CAE
S11305F030824A1CC9B23275605CB389B074501C35
S1130600D2B23075A15CF174C4B2A34209D2C0B2B3
S113061000902A46DFF87415022004F0C8FC00207C
S113062076BD0798B06105F088F83077012076BD73
S11306302DE9FE4F81460E4692460D9DDFF850751A
S1130640DFF850159B463846202205F02BF9BDF8FB
S11306503000DFF828850090029701955B465246EA
S113066031464846FFF795FF0024002872D0C8F8A9
S11306700070B97CDFF82025DFF820351170187878
S113068000283AD005F0AEF90246DFF8141502202E
S113069004F093FC38684188BA8900914379DFF803
S11306A00415022004F089FC022004F041FC20B16E
S11306B03868398A4088FFF717FFF87B28B13A8AEF
S11306C0DFF8E414022004F078FCF87CBB7CDFF84B
S11306D0DC140090B8680278022004F06EFC397DC6
S11306E0BA89B868521A0144012392B2022005F073
S11306F091F97CA1022004F05AFC3846FFF76BFE06
S1130700384605F033FA20BB2DBB042E18BF052E46
S113071003D0022E18BF032E01D1012200E00022D3
S11307203868F98801910121438800930388F87C93
S113073000F01DF990B13868817988060ED4DFF88D
S11307407044012121700022384600F0D1F80020C5
S11307502070012430E0287D81072DD53868417947
S1130760FF2925D10026DFF8EC5300F08AFBF1B213
S1130770814221D2F0B200F0A7FE8146F0B200F02F
S113078084FB98B1386841883A8A484600F0DDFD18
S113079060B13846FFF71FFE386880F8059085F889
S11307A004903846FFF7C1FE00B10124761CDCE753
S11307B03846FFF7BAFE044600F060FA1621DFF867
S11307C0A00305F0F1F90020C8F800002046BDE8B8
S11307D0FE8FDFF8E0130878401C0870FFE700F094
S11307E07F007047DFF870130A78002814BF42F0C6
S11307F0010202F0FE020A707047DFF8BC130870B1
S1130800704780B1DFF8B0130978012904D1018859
S113081041F0400101807047022904D102884FF65B
S1130820BF710A400280704778B1DFF890130A78EC
S1130830012A04D1DFF8882313780B7001E0022A1F
S113084003D1017841F0100101707047FEB5DFF863
S113085008532B78D90701D50020FEBDDFF81C13FF
S1130860BC4C096871B109688A79960603D5E28897
S113087042F02002E28089794A0603D5E18841F0FA
S11308804001E180B84A11784E07C34947BF0F7849
S1130890D7700E7856709B0709D5B2480188B048C6
S11308A005F058FB297801F0FD012970FEBDAB4B22
S11308B01D8829464FF6FC76B14208DA0190009271
S11308C02246A8480388002005F064FDFEBD009080
S11308D01346A44802882146284605F028FDFEBD9B
S11308E00020B3E75D0000000146A4480068002230
S11308F070B504460E462079002818BF0128154615
S11309000BD1A0680178CA0601D5300005D0A07BC0
S1130910002804BFE07C0B2801D1002070BD914A5F
S113092000211180607D00B90821E07B18B90846D8
S113093000F0BAF906E041F0040000F0B5F9208AAD
S113094000F0C1F9A07C00F0AFF90B2000F0ACF985
S1130950E07C00F0A9F9304600F0A6F92046FFF744
S11309603AFD2846BDE8704070E70022C0E770B544
S11309701D46944B8E4E1C78012C01D0337813B154
S11309800020307070BD0B0002D10AB1002070BD90
S1130990002C1EBF049C4FF657439C4206D00346CE
S11309A00A462146284604F057FA00B1012070BDDA
S11309B038B5D2885224950648BF4924550548BF06
S11309C0083C150548BF083C1204034648BFA41E52
S11309D00846032B4FF6FD710ED8DFE803F0090239
S11309E0060BC0B206F018F902E0C0B206F03EFBF6
S11309F0014601E0641EE4B2084604F04CFA241AED
S1130A00E0B232BD42540844120A427070470844AE
S1130A10110A0270130C120E41708370C270704779
S1130A2070B50C001646054608BF00260FD0207886
S1130A30FF2808BFFF260AD0204600F0C7F98642E7
S1130A4088BF06463246611C681C00F0EBFE2E701F
S1130A5070BDF8B50C000546164603D10020687039
S1130A602970F1BD2078FF2804BF6078FF2802D1E7
S1130A7028706870F1BD204600F0ADF90746BE420B
S1130A80B8BF37463A46A11CA81C00F0CBFE2F7015
S1130A903F126F70F1BD2DE9F041541E002B3ED082
S1130AA0042A37DC00230026984614E0651B00283E
S1130AB014BF10F805C04FF0000C571EA7EB080731
S1130AC04D5DFF000CFA07FC05FA07F74CEA030337
S1130AD03E4308F101085FFA88F59542E6D3042AFB
S1130AE010DAD5000120D2006D1E00FA02F2524243
S1130AF043FA05F1CC0748BF134346FA05F0C00793
S1130B0048BF16439E4215DBB34203DA4FF0FF3071
S1130B10BDE8F0810020FBE7AE42F7DB5B1CDDB2F1
S1130B209542F7D2651B00280CBF0026465D4D5D3B
S1130B30B542F1DA0120EBE70021234A01E0891CE8
S1130B40C9B2535C8342FAD350184078704700000E
S1130B5090D70320CCD6032074FF032096FB0320F8
S1130B60B8D703204EFC0320D8D6032024A40300C6
S1130B7016FF032070A3030088A30300B4D7032047
S1130B80F4D5032000A40300E4A3030008A4030095
S1130B9094D7032064A4030086D3032082D30320C4
S1130BA090A3030098A30300B8A30300C4A3030005
S1130BB070FF032087D3032071FF032072FF0320FB
S1130BC073FF032085D3032084A403002838082856
S1130BD08041C00F704710B500F009F8FF2801D11B
S1130BE0A32010BD002104F83010002010BD0446DD
S1130BF0084600F067BC38B500F00BF8FF2801D1B7
S1130C00A32032BD294604EBC000BDE8344000F007
S1130C10F9BF04460846154600F054BC40B11C28F0
S1130C200BD01D280CD01E2818BF1F2805D009E0A2
S1130C300B39102906D2002070471B29FBDB01E089
S1130C400929F8DB8A20704710F0E00011D08028D1
S1130C5006D0A02806D0C02806D0E02806D007E099
S1130C601C2070471D2070471E2070471F207047AE
S1130C70FF20704700F01F007047704780B54D4952
S1130C800020087006F04EFC4B4A108052214B485D
S1130C9004F08AFF4A4900200880002149480022C4
S1130CA0002380E80E0001BD10B545490A88522A88
S1130CB007DA424CA054521C0A8092B2A018401E7B
S1130CC010BD002010BD38B50546C0B2FFF7ECFFDB
S1130CD00446280AFFF7E8FF002C18BF002801D0BB
S1130CE0204632BD002032BDF8B50746C0B2FFF73A
S1130CF0DBFF06463804000EFFF7D6FF0546380230
S1130D00000EFFF7D1FF0446380EFFF7CDFF002E8B
S1130D1018BF002D05D0002C18BF002801D0304684
S1130D20F2BD0020F2BD2DE9F041254D2E880C4680
S1130D30A04608EB060152290CDA204F0146224650
S1130D40B81900F06FFDA4192C80A4B2A4EB080418
S1130D50381900E00020BDE8F08130B504460020D9
S1130D60CD18AA4208DA30BD51FA83F222445B1E40
S1130D7012F8015C05EB0020DAB2002AF4D130BD90
S1130D800423EAE70323E8E780B50223FFF7E5FF3E
S1130D9080B202BD034691420B4800D3704710B5A0
S1130DA05C5CFF2C08BF00240C19641CA242A8BF81
S1130DB0581810BD74FF032096FB0320D8D60320D7
S1130DC04EFC0320CCD6032014FF03200078FF2818
S1130DD008BF0020704780B502220021FFF7D4FF2E
S1130DE04FF6FF72904208BF002002BDF8B5DFF84D
S1130DF0F419DFF8F4490A68DFF8F01988B003A899
S1130E000260D1E90027D4E9005604A806ABC0E982
S1130E100027C3E90056DFF8D819DFF8D8490A6873
S1130E20256801A802AB02601D600321684604F036
S1130E30BBFEDFF8C419DFF8C40903220A700021DD
S1130E4006AE03ACDFF8B829655C02EB011204AC12
S1130E50157036F81130538034F81130938002AC99
S1130E6001AB655C95715C5C00EBC4059560012584
S1130E701DF801401473491C02295573E1DD09B0C2
S1130E80F0BDDFF8740900787047DFF8741901EBDE
S1130E900010407B00F001007047412818BF422831
S1130EA003D0432818BF442801D1012070470020F3
S1130EB07047412818BF422801D101207047002003
S1130EC07047432818BF442801D1012070470020EF
S1130ED07047F8B515461E46069A079B044600F06F
S1130EE04DFA60B1042100F0D6FB070007D020467C
S1130EF000F0B2FC324629462046B84795E0F1BDE1
S1130F002DE9FE4314001CBF0A9D002D06468846A9
S1130F101F4620D0FFB128780C9B010761882079F7
S1130F204CBF4022802200F029FAA0B1082100F031
S1130F30B2FB814678B1207900F08EFC9DF82C003C
S1130F40019000953B46224641463046C847BDE8DD
S1130F50F74300F08ABCBDE8F783F8B51646069C53
S1130F601A460546234600F009FAD0B121000BD1F8
S1130F70022100F090FB040013D0284600F06CFC22
S1130F8031462846A0470BE0102100F084FB0700FF
S1130F9007D0284600F060FC224631462846B84770
S1130FA043E0F1BD2DE9FC411746089C1A4606466C
S1130FB0234600F0E3F908B9862016E000259CB921
S1130FC0202100F068FB804670B10A9C099D3046E0
S1130FD000F042FC0B98009023462A4639463046DE
S1130FE0C047054600F041FC2846BDE8F681F8B547
S1130FF00446A568207800F02FFC002611E028683C
S1131000F1B21422514347182078398803F023FFA2
S11310100121384600F03FFB01001CBF20788847BF
S1131020761C2979F0B28842E9D3BDE8F14000F09A
S11310301CBC38B50024DFF8C0570AE0DFF8C0074D
S1131040210600EB1150427BD10748BFFFF7CFFFC9
S1131050641C2978E0B28842F0D331BD10B5002376
S113106001E0001D5B1C9CB28C4204D204889442B3
S1131070F7D1408810BD002010BDDFF88817401A52
S11310800C2290FBF2F292B20021DFF87C07E5E734
S11310900288B2F57C4FA8BF00F002B80846ECE71E
S11310A0DFF86817401A142290FBF2F292B2002182
S11310B0DFF85C07D2E710B50C46018862889142DC
S11310C00DD1037B2279134209D0B1F57C4F04DBA7
S11310D0FFF7E6FF2189884201D1012010BD0020DD
S11310E010BD10B514460A88E3889A420AD10288D2
S11310F0B2F57C4F04DAFFF7CBFF2189884201D196
S1131100012010BD002010BD2DE9F74F82B0044628
S11311109A460025002704E08068C1886D187F1C6A
S1131120FFB2DFF8D4160A78974280F0D380DFF854
S1131130D006237800EB071002789A42ECD181683C
S11311400091407BC107EAD54FF0000804E0B9F8EC
S11311500A002D1808F1010800990A795FFA88F04D
S11311609042DCD20A685FFA88FC142010FB0CFC65
S113117002EB0C0921464846FFF79DFF0028E6D004
S11311804FF0000B07E0307910F0300F04BFF07817
S11311902D180BF1010BB9F808101FFA8BF08842D7
S11311A0D8D2D9F804001FFA8BF20C214A438618CE
S11311B0224631464846FFF794FF0028E3D02746ED
S11311C00398344600B104602079810611D5DFF814
S11311D03406002105E00279930644BFC2788918D9
S11311E00C30A042F7D3DFF82C0689B200EB010BD8
S11311F004E0DFF82416ADB201EB050B0E9E049D4E
S11312003046CEB121464846FFF742FF02462388C6
S11312107988387803F019FEA846E8B12079C10628
S113122025D5002E2146484618D0FFF731FF00F09F
S113123055F803F023FE4EE0002D4CD021464846DD
S1131240FFF726FF024623887988387803F0FBFDF0
S1131250D8460028AB46E1D17E203CE0FFF718FFDA
S1131260E178019100F03AF803F006FE33E0A0784B
S11312705FEA0A0108BFE178412818BF422808D074
S113128043280DD18A1E92B241465846FFF7E1FB2E
S11312901EE04A1ED2B241465846FFF7C1FB17E092
S11312A04428EFD03EB95FEA0A0004D0E0788245D2
S11312B038BF89200FD3E178B8F1000F03D1584625
S11312C006F0C2FB04E00A464146584600F0AAFA7A
S11312D0002000E0862005B0BDE8F08F00950346AD
S11312E079883878224670472DE9F84305468946BF
S11312F017469846002603E0217B0A0615D4761C7F
S11313002979F0B288421DD22868F2B214235A43D4
S1131310841820884845F2D1390006D0802FEBD0BC
S1131320402FECD1217B4A06E9D5B0F57C4F07DB91
S11313302046FFF7B5FE404518BFB8F1000FDED1D7
S1131340204600E00020BDE8F28380B5134607E0A4
S113135080B51346402204E080B51346802200E0A5
S1131360002200F00BF800B1012002BD80B500237B
S11313704022F6E780B500238022F2E770B50C46E0
S113138015461E4600F09EF8FF2801D1002070BDCE
S11313902146DFF86C4404EB0010334680682A468B
S11313A0BDE87040A0E70023E8E770B50C46154699
S11313B01E46002100F02FF8032800DAE8E7002099
S11313C070BD1346402201E00022FAE72DE9F84FF0
S11313D082468B4690469946FFF7D0FF002608B90F
S11313E0FF2016E00027DFF81844DFF80C5408E06B
S11313F04B4642465946FFF7D8FF00B1761C7F1C86
S1131400FFB22878874203DA3901605C5045EFD196
S1131410F0B2BDE8F28F70B50022DFF8E43300E0EB
S1131420521CDFF8D4432578AA420BDA14011E5D5E
S11314308642F5D10D0003D01C44647BE507EFD54B
S1131440D0B270BDFF2070BD80B50021FFF7E3FF6F
S1131450FF2801D1002002BD00F061F8407B00F0BC
S1131460010002BD70B50E4604460021FFF7D3FF0C
S1131470FF2801D1002070BDDFF8841301EB0015B3
S11314803200687B00F0010114BF40F0010000202D
S1131490B142687314D076B12846FFF7A8FD0FE077
S11314A00068142251430844027B0188D209204673
S11314B000F000FC761CA8680279F1B29142EFD3E7
S11314C0012070BD0121A6E7DFF834130001085C98
S11314D07047F8B50C46FFF7F5FF01460020FF29D9
S11314E01FBFDFF81C2302EB01118968002915D006
S11314F0002214270DE01B0608E00D68D6B27E43D7
S1131500AB19451C1B7B2600F5D05B0648BF28465B
S1131510521C0D79D3B2AB42EFD3C0B2F2BDDFF8A7
S1131520E01201EB00107047F8B50C461546FFF7C2
S1131530C9FF0021FF281ED0DFF8C432002203EBCC
S113154000134FF0140C01E0491C521C98680779F1
S1131550D6B2BE420FD200681CFB06F630442F0000
S1131560067B02D0760602D4EFE73706EDD5CEB27D
S1131570A642E9D1F2BD0020F2BD002109E010B578
S11315800446012100F005F82046BDE8104004F0AF
S1131590ECBA2DE9F84F86B0804604F0CEF89649AF
S11315A0DFF85C920A78059004924FF0000A07E095
S11315B009EB0010017B059881420FD00AF1010A62
S11315C004995FFA8AF0884261DAB8F1FF0FEFD02C
S11315D04046FFF777FFFF28824658D04FEA0A605B
S11315E000244FEA105B00E0641C09F10800E1B23A
S11315F050F80B000279914246D20168E3B21420FC
S11316004343CE1840F22D1132898A42A8BF06F016
S113161051FA00270CE00328ACBFAA6805F10802C0
S1131620012000900023002101A8FFF76DFD7F1C1D
S11316303189B8B28842D7D27068BAB20C214A4311
S113164085182B79D906F2D419F80B208DF80420CB
S11316503188ADF80610287941064CBF802140211D
S11316608DF8081030462988ADF80A102946FFF78E
S11316700FFDADF80C002979E8784A07CBD5AA68A4
S11316800328CDDB1268CBE7B8F1FF0F96D007B083
S1131690BDE8F08F704730B5047B012200230C4273
S11316A005D1002030BD144218BF5B1C5200D5B2D6
S11316B08D42F8D30069DBB250F8230030BD57499E
S11316C0401A8003020C00215548C7E42DE9F84F65
S11316D005460024487D4FF6FF79A24635B108B986
S11316E0022507E0012804D1012503E008B90825F3
S11316F000E00425002693469846484800EB8607F8
S11317003988594516D1FB782B4213D0B878404517
S113171010D30CB182450DDBD9060BD53846FFF743
S1131720CEFFB9781CB1514501DB484502D20124F2
S11317308A468146761C322EDFDB4846BDE8F28FAE
S11317402DE9FE4F00270028487D4FF0010806D000
S113175008B9022407E0012804D1012403E008B9F0
S1131760082400E004240D9EDDF83CB0ADF8002010
S1131770B9468A460193294901EB8905BDF8001051
S11317802888884223D1EA78224220D0A9789DF87B
S1131790380081421BD39AF80F00D20608D5B0B1A5
S11317A02846FFF78CFFBAF81010814201D00EE0F2
S11317B068B9BB4513D0BDF8300087420FDA0198F1
S11317C0A978C1557F1C3288521C3280BFB209F1FE
S11317D00109B9F1320FCEDB4046BDE8FE8F4FF070
S11317E00008F9E7489503004C950300549503005D
S11317F0609503005C9503006BFF03206098030071
S1131800F4D50320509603007C98030070970300DE
S11318107898030054D6032024D60320849503002B
S11318204C96030062B181423ABF5318984204F0C7
S11318303BB8801813F8011D521E00F8011DF9D1A0
S1131840704770470C490D4808600020704700B18C
S1131850702070470020704780B500F013F8FF280F
S113186001D1A32002BD002002BD002070477047B3
S113187000BF0348007870472CD703200E160400DD
S1131880F4D5032080B5FFF71DFEFF2818BF002004
S113189002BD00210170704706F03EB900F0C0B9E6
S11318A062F30F2262F31F4200B500BF1300964695
S11318B09446103928BFA0E80C50FAD85FEA417C5E
S11318C028BF0CC048BF40F8042BC90728BF20F824
S11318D0022B48BF00F8012B00BD70472DE9F24FE1
S11318E0022940F39580190005D0BDF800100529A0
S11318F0F7DB42F004028246012618008AF8002031
S113190005D08AF8013003261B0A8AF802304FF00A
S1131910000B0A9CFEF75DFF0AF80600761CB0B2C5
S1131920761C0AF80040DDF8309007E0BAB2414670
S1131930504403F0B7FFBE190BF1010B0B985FFA8B
S11319408BF1405C002865D0002500247328A04654
S113195034DC4C2859F8048B1CBF5328622811D15D
S113196059F8047B4C2806D1BDB24FF6FF7085426E
S113197036D0022434E0532832D1FDB2FF2D2FD0CB
S113198001242DE06C2804D14046FFF724FA871C7B
S113199026E0732804D14046FFF718FA471C1FE0DD
S11319A0A0F130010A2938BFA0F1300718D3A0F103
S11319B0410107292CD2A0F1370711E0002775282F
S11319C008BF01240AD0762808BF022406D078284C
S11319D008BF032402D077281AD1042459F8045BE1
S11319E0B9B2BDF8000011FA86F10919884205DA86
S11319F00EE00AF80050761C2D0A641EE1B200299C
S1131A00B0B2F6D1B9B2002996D0B8F1000F8DD199
S1131A10002000E0B0B2BDE8F28F10B5474C206062
S1131A204748018047490A60474A136010BD454949
S1131A30454B0A6810804FF48A5219684C80CA805A
S1131A4070477FB50C4608A9009202913C4D3B4E6D
S1131A5001930246298830680023FFF73FFFFFF710
S1131A60E6FF04B070BD38B5364C256829880346B6
S1131A70324802683448006801B0BDE8304004F0E0
S1131A80B5BC0020EFE77FB500F02BF804F0F3FBC2
S1131A9004B070BD0023F6E77CB50192294D274AB6
S1131AA02E6814680094284C3388226804F072FC71
S1131AB076BD0022F0E738B500F003F804F037FCF7
S1131AC032BD00911F4C1D490B6825681E492A88A8
S1131AD0096870477FB500F004F804F040FC04B0D6
S1131AE070BD009102930192164C144925680B684D
S1131AF0154E2A88316870470023EBE70021DAE7A6
S1131B00F8B50E4C0F4E256837680F4E84B0039518
S1131B103C88BDF828500294019534686588009586
S1131B2004F0A1FC05B0F0BD074800687047064A00
S1131B30136818711068417170470000C0D6032003
S1131B404EF90320C4D60320C8D6032080B5002054
S1131B50FFF77DFE4C480021017006F044F9BDE812
S1131B600140FFF782BE70B5044616460D46304666
S1131B70FFF772FE002020703046A847BDE8704091
S1131B80FFF773BE012241494148ECE70122414974
S1131B904148E8E702223F494048E4E7F2223D4950
S1131BA03F48E0E780B5012006F0BCF83D4806F068
S1131BB04DF83D49087001BD80B506F087F901284C
S1131BC005D039480078BDE8024006F029B801BDC7
S1131BD0F0B5002400E0641C344D2E88E3B2B34217
S1131BE00ED2E7B20C25324B6F433B441E7886423B
S1131BF001BF5D888D421E799642ECD11846F0BD36
S1131C000020F0BD80B519B905F086FF002002BDA3
S1131C10B1F1004F02D205F08AFFF7E7022002BDBE
S1131C20B1F5000F3CBF0902FFF7ECBF022070477B
S1131C3070B505461E46FFF7CBFF04000ED02846BC
S1131C40FFF702FC50B1A0683146FFF7DBFF28B96B
S1131C5005980499A0716171002070BD022070BDC7
S1131C601CB500F004F80022FFF7E2FF16BD009354
S1131C7013469DF810400194704780B500230093EB
S1131C80FFF7EEFF02BD000084D503207B6F020046
S1131C907CD50320BD7002008CD5032094D503208D
S1131CA09CD503209CC7032069FF032052D3032043
S1131CB038C7032080B5FFF78BFF20B1806800216F
S1131CC00170002002BD022002BD0022F2E770472D
S1131CD035E0DFF810010178022901DB01207047AB
S1131CE00020704738B5DFF8FC5004462878A0423D
S1131CF003D0214603F0DBF82C7031BD10B5DFF8BA
S1131D00E840207858B900F01AF806F0FBF80121F1
S1131D1020B10288B2F5817F28BF017D217020782F
S1131D2010BDDFF8C0100978012803D10129D8BFFC
S1131D30022002DD10B9012900DDD3E770472948EC
S1131D400178012900DD704738B506F0C7F802466E
S1131D502649274C012003F02AF90120FFF7E1FF6F
S1131D602078FF281AD106F0CDF8B0B14588214873
S1131D702D066D0E05F001052570FF221821FFF7D1
S1131D808FFD012D0AD1FFF7B9FF052806DBBDE859
S1131D903440D021184806F007B9207031BD80B511
S1131DA0FFF7CDFFBDE8014006F0ACB870B50446BE
S1131DB00D461646FFF7C3FF0420FFF793FF324694
S1131DC02946204606F0CDF804460220FFF78AFF94
S1131DD0204670BD80B5FFF7B2FFBDE8014006F0B4
S1131DE0CFB80000AAFF0320ABFF032070CD03008F
S1131DF08ED30320E0F3032064CD030080B5A14912
S1131E00022003F0D4F8FF20FFF7B9FBFF2003F012
S1131E101EF8FF2003F01EF805F0C8FA00F06EF873
S1131E2003F05DF898490020088001BDF8B500F082
S1131E3093F8009800F0010005B000BD18B587B014
S1131E4001A9684605F062FD904C9DF80F00A07052
S1131E500822BDF80C00208001A9201DFFF7E2FC38
S1131E609DF814008A4960732046097800290CBF44
S1131E700022884A06F022FC83490020088008B02A
S1131E8010BD80B5684605F04BFD932809D1824802
S1131E9001680A788DF80020012A04BF02218DF818
S1131EA000109DF8000002BD78B58FB004460D46C1
S1131EB016462C2104A803F077FE8DF81240ADF8E5
S1131EC0106005A802F0E6FF00F046F80098ADF8AF
S1131ED03600FFF7D6FF8DF8380000F040F82946A9
S1131EE004A806F010FE010004D167490A8842F4F0
S1131EF080720A8010B070BD07F0FBBAF8B50120FB
S1131F0007F0FAFA654807F00DFB654807F00DFB8A
S1131F1000F022F80098C1071CD56249022003F0A2
S1131F2046F85D4801680878012808BF022006F0D9
S1131F3055FF022007F0E4FA00F00EF8009840F094
S1131F4080000090684607F0CAFA00F008F8032001
S1131F5002F030FF05B000BD684607F0B5BA78B5A9
S1131F608FB005A85049282203F09CFC05F0DEFA46
S1131F7008B100201BE001A802F0FBFE04004B4D59
S1131F804B4E03D0009032464A4B0BE005A802F0BA
S1131F90A5FF05A901A806F0E8FE040006D00090FC
S1131FA03246454B2946022003F001F8204610B082
S1131FB070BD10B53448018841F40071018002F00D
S1131FC05DFE01280CBF0124002407F009FB28B1A1
S1131FD002463A49022002F0EAFF00E024B107F089
S1131FE03FFABDE8104009E710BD38B5264D044658
S1131FF02888810584B004D5912C40D1FFF7FEFEDA
S11320003DE010F08F0F26D0902C02D1FFF716FF81
S113201035E0912C33D0029001942948294B244A6D
S113202029490090022002F0C2FF2878010626D434
S113203005F07CFA03280AD124480178042906DA39
S1132040491C01700120002101F00CFD17E0022061
S113205007F05EFE13E0FFF77FFF902C0FD100988E
S1132060C1070CD54208520000920021019102914F
S1132070ADF80C10684607F032FA08F07EF905B0A6
S113208030BD0000808903002AF9032054D40320C2
S1132090FFFE032064D503202CD703200088100200
S11320A00070EF05508903009C890300C489030074
S11320B0D8890300E0890300F8890300108A03002B
S11320C0788A0300608A0300408A030062FF0320C9
S11320D080B5FFF711FFBDE8024000F0FE0007F0F5
S11320E00BBA80B5FFF708FFBDE8024040F00100DD
S11320F007F002BA1CB5DFF8A84A0A21204603F00B
S113210053FD6021DFF8C80C03F04EFDA020608071
S1132110052120208DF80410009001AB102221210C
S1132120F22008F06AF913BDDFF8741A002000B534
S113213008704FF0FF3187B0002304918DF8180028
S11321400021039002900191009304AA09F028F859
S113215007B000BD18B5DFF8484A207AC10787B038
S113216012D54FF0FF32002104928DF8181009F0B7
S113217085FD00200021002320720391029001902C
S1132180009304AA09F00CF8DFF8481C002008703A
S113219008B010BD80B5FFF7C7FFDFF83C1C002076
S11321A0087001BD2DE9F04700F00108C0F34204B6
S11321B0894692460609450900F0C3F806F001066F
S11321C005F0010526D1DFF8D879387820B109F077
S11321D011FEF98888421DD1B8F1000F18D009F01A
S11321E009FEF880A0210120387079807C70E20714
S11321F07D7146BF4FF47A7101FB09F1DFF8DC1BF6
S1132200DFF8D40B05F093FC26B187F804A001E0B5
S1132210FFF78AFF0120BDE8F087002070472DE911
S1132220F34F8FB00746DDF8848015469946112197
S11322300AA803F0B9FC780A00F0030AC7F34110B6
S11322408DF818000024F80A00F0070BDFF8900B53
S113225038400828DFF88C0B01680A7908BFA046CB
S1132260042A08BF01242B001A9D08BF0AAB05B934
S11322700AAD1F9E06B90AAE109ACDF8009007F079
S1132280070107A809F06EFE002856D0DFF8581B96
S1132290012002F092FE00F054F84ED1BAF1010F81
S11322A04BD09DF82400C0B1022846D10022082159
S11322B007A802F04FFD00283FD107F018001828A6
S11322C03BD0ABF10500022837D39DF8180068B95C
S11322D0F8060BD48CBB85202DE0079868B310F169
S11322E0070FEAD310F1010F27D1E6E71E98BDF8D6
S11322F080101B9B9DF8182004900191CDF8148048
S11323000396029507A9BDF87000009038460AF0BC
S1132310AAF938B1DFF88808417888070DD5FFF7A6
S113232003FF0AE0380708D509F0C4FEFF2808BFF8
S1132330002C02D18920FEF7D7FA012011B0BDE8A4
S1132340F08FDFF8A00A01680A685079F228704714
S11323502DE9F8418FB006468846169C17461D465F
S113236011210AA803F020FC04B90AACFFF7E9FF25
S11323704ED1189B179A2946199DF02B49D0F32B5F
S113238067D1002200298DF8242007923CD10AF05D
S1132390D9FB80453AD1DFF83C5ADFF80448287865
S11323A010B1207A81076ED505F0C2F80B3840F0E1
S11323B0100004AA01238DF810000021019200935B
S11323C003910291F32307AA012008F0E9FE0120FA
S11323D0207205F0ADF807F10B0188420BD0012003
S11323E00B3700FA07F10022032009F0D7FB207A0B
S11323F000F0FD0002E0207A40F00200207241F279
S11324008831284605F093FB01203DE0FFF7A2FE4A
S113241039E016F007008DF8180008BF049101D0C8
S113242000F035F80AF08EFB804509D10020002128
S11324306A1C0390029101922B780093F0231EE012
S1132440002000210023039002910190009304AA2C
S113245017E0F72B03DAA3F1B000102813D216F01B
S113246003008DF8180008BF049101D000F00FF8A4
S11324700021681C0391029101902C78009404AA15
S1132480012008F08DFE002010B0BDE8F08102218B
S11324908DF818108DF8192004A82168016061686E
S11324A041607047002070472DE9F0470446884694
S11324B0626892B200214046FEF7A4FA207C08F13B
S11324C0020520B9A26800F0A2F82D1D07E0022839
S11324D005D1082204F1080100F09FF80835207C9A
S11324E0022804BF607C05F8010B6168880403D5E9
S11324F0A28A00F097F8AD1C606841040ED5A07D57
S113250005F8010B0021A26900F082F82D1D1022AC
S113251004F11C0100F081F8103505E0800603D5B4
S1132520A26900F074F82D1D207941064FF00C0AC1
S11325300ED500F05EF800F061F805D100F06BF8FC
S113254000F06EF800F04EF87F1CF9B20229F2DBBD
S11325506068C10517D500F04CF8FAB204F12C01FB
S11325601AFB02F28E183378022B08D1728800F01D
S113257059F8AD1CB28800F055F800F033F87F1C10
S1132580F9B20229E9DB04F14400017805F8011BE2
S1132590227902F01802182A1CBF407805F8010BB2
S11325A06268100403D5120C00F03CF8AD1C60689E
S11325B0C10312D500F01DF800F020F809D100F095
S11325C02AF800F02DF899F800000A30AD1C89F8BB
S11325D000007F1CF9B20229EEDBA5EB080188B2EA
S11325E0BDE8F08799F80000401CAD1C89F8000094
S11325F070470027A94605F8017B7047FAB204F139
S11326002C011AFB02F28E183378032B7047002139
S11326102846FEF7FCB90822B11C2846FFF702B988
S11326200835728900212846FEF7ECB92DE9F84FE8
S1132630B6B00E4600F00701C0F3C1008DF80410D7
S1132640009090469B46112107A803F0ADFADFF8ED
S11326509417096800250024B8F1000F087908BF11
S11326600DF11C0800284DD109684879F2283CD1A5
S11326700FA9E0B209F0A3FC002836D19DF83C0074
S1132680FF2818BF6D1C641CE0B20428F0DD9DF81F
S11326900001DFF81849DFF81899DFF818A9069047
S11326A0EFB2009860BB9DF80410CDF800B032463C
S11326B043460CA809F056FC002800F081800CA8C1
S11326C009F0D4FCFF28054622D000200122FF2374
S11326D005900490039202930197009000F076F81D
S11326E00FA9284609F06BFC00286DD1208809EB5E
S11326F000010FA8FFF7D8FE2188401820805DE074
S1132700009801285CD19DF80001EDB2A84209D3DC
S113271000210591049103918B220699029101975E
S1132720009249E000200590002106980491FF22C0
S1132730039202900197009100F048F800260027C8
S1132740B3460FA95FFA8BF009F039FC00283BD19E
S11327509DF83C00FF2819D0761C9DF80001F1B2C9
S1132760884213D221A90FA8FFF79EFE2588804630
S113277008EB050152290FD2424621A909EB0500B5
S1132780FFF750F8A844A4F800807F1C0BF1010B5C
S11327905FFA8BF00428D4DD89F80670FEF7A0F800
S11327A074280DD10020059003900021069804910F
S11327B0F6B202900196009100F008F8FEF790F846
S11327C0012037B0BDE8F08F0020FAE753460B2212
S11327D021210120FFF735B92DE9F04F0024F2281B
S11327E008BF2129A7B04FF0000B4DD1112A02BF19
S11327F0802B3098002847D1DDF8C4A0BAF1050F2A
S113280042DD1120FEF75FFADFF8A077DFF8A0972A
S11328103D882D1DADB2A84600266946F0B209F0E8
S1132820CEFBC0B99DF80000FF280FD012A968465E
S1132830FFF73AFE0446281982450EDB224612A908
S113284009EB0500FEF7EEFF6519ADB2761CF0B298
S11328500528E2DB03E0002017E04FF0890B5FEA74
S11328600B00A5EB080509D10020FEF71DFA432053
S1132870FEF71AFAA8B2FEF726FA01E0FEF714FAF8
S113288038882D183D800124204627B0BDE8F08FFC
S11328902DE9F04FC24D287889B070B11C46207ADA
S11328A0002804BF2368002B07D0179EE02E18BF12
S11328B0E22E02D0159BDB0703D5012009B0BDE849
S11328C0F08FDDF84C80129F91468A4683460AF0C9
S11328D039F90690CDF81CA018991B980891059019
S11328E003969DF868101698049102900197CDF80C
S11328F000904BEA0710637A216840EA8816224662
S113290046F4006009F0D5FAFFF70EF90646F22006
S11329103071707105200AF00EFA687920B1E988E7
S11329200020FFF7C6F80BE0F08840F00200F080CA
S1132930A9F10C05B57220460BF09CFF00F08AF853
S113294000F034F9B9E72DE9F84F1C468AB0054682
S1132950207A002804BF2368002B7AD030B923687A
S113296013F1070F02D313F1010F72D102280AD118
S11329700023D8B2205C18B95B1CDEB2082EF8DB49
S1132980DBB2082B65D01698002862D1179E237AF3
S1132990F00748BF43F008037E2D159818BF7F2D1C
S11329A005D143F4007320B143F4807301E043EA9A
S11329B08013149DDFF8E891DDF868A0DDF87080DD
S11329C0DDF874B099F805008DF824202F0147F440
S11329D000673B43ADF826300F4698B10AF0B2F8D1
S11329E000F03EF8F0074CBF202005200AF0A3F9C0
S11329F0FFF79AF800F0D6F80020B9F80610FFF7B0
S1132A0058F824E00AF09EF800F02AF8FFF78CF852
S1132A1000F0C8F89DF82410A1F10C05C188857256
S1132A2041F00201C180F00709D57F0907F00607CC
S1132A30C7F103077F073F0E2037B8B200E0052037
S1132A400AF079F920460BF015FF00F003F800F0C6
S1132A50ADF8A1E00146EAB24FF6FD70FFF74CB8BD
S1132A600690CDF820A00797CDF814B0CDF81080CB
S1132A70019522469DF864001899039002919DF8EF
S1132A8024000090637A2168BDF8260009F011BA89
S1132A9038B500E038B58AB0179C9DF858500994B1
S1132AA008959DF85440149D079406959DF84C4054
S1132AB0129D059404959DF844409DF8405003945C
S1132AC002959DF83C409DF8385001940095FFF71D
S1132AD03AFF0BB030BD2DE9F84F314E8AB034784F
S1132AE0002C1EBF347A04F00304012C54D00825B2
S1132AF07E281598149CDDF860B0DDF86480DDF85C
S1132B0068A0DDF874908DF8242008BF4FF4027596
S1132B10800140EA041040F400602843ADF8260028
S1132B200F461C9D707978B10AF00CF800F041F85A
S1132B30FEF7FAFF00F036F820200AF0FCF8F188DE
S1132B400020FEF7B6FF25E01E4609F0FBFF00F06B
S1132B5030F8FEF7E9FF00F025F87F0907F00607D3
S1132B609DF82410C7F103077F07A1F10C04C18865
S1132B7041F002013F0E8472C1802037B8B20AF0DE
S1132B80DAF830460BF076FE0146E2B24FF6FD70FD
S1132B90FEF7B2FF00F00AF801200BB0BDE8F08F99
S1132BA004F00320F22101714171704700200AF002
S1132BB0C2B80690CDF820A00797CDF814900495DC
S1132BC0CDF80C80CDF808B0019400239DF82400C2
S1132BD000900022BDF82600002109F06AB92DE911
S1132BE0F84F98B0914629980246FF2A0C469A4617
S1132BF000F0E9804821DFF8C0334A4319680E1D0C
S1132C000D1DB35843F40073AB5006A943F480631D
S1132C10B35009F0D4F9002840F0D5809AF8086040
S1132C2000214FF00C0806A808FB01F2104490F8AC
S1132C302C00002814BF032846F0080603D00228FD
S1132C4008BF46F02006491C0129ECDD9DF81C0054
S1132C50279D259F01062299239848BF46F0100618
S1132C6046EA811646EA0026E02D46F4A04618BF3F
S1132C70E12DB6B203D1DFF84423107818B1F80778
S1132C8048BF46F40066DDF898B001B9CB4609F0B8
S1132C9059FF0594049064092B989DF8A81003909B
S1132CA002910195CDF800B004F006049AF80930B9
S1132CB0DAF80010C4F1030452463046640709F000
S1132CC0BBF8240E2034ADF800404FF6FC75002408
S1132CD006A808FB04F100EB010B0BF12C0630787D
S1132CE0002818BF032818D1FEF71EFFFFF75AFF6C
S1132CF0F8074CBF202005200AF01DF87089A8426F
S1132D0006DB0BF12E0009F08FFEA842B8BF7081DC
S1132D1071890020FEF7CDFE25E0022825D1FEF7BB
S1132D2003FFFFF73FFFA9F10901C288817242F056
S1132D300202C2809DF85C10C172F8074CBFBDF856
S1132D400000052009F0F7FFB0884FF6FF718842B4
S1132D5004BF50460BF08EFD0146A9F109027088AC
S1132D60D2B2FEF797FEFFF721FF641C012CAFDD02
S1132D709DF81C00010626D5FEF7D6FEFFF712FFCC
S1132D8080F80A90C18841F00201C1809DF85C106E
S1132D90C172F8074CBFBDF80000052009F0CBFF55
S1132DA00798810448BFBDF82C8003D450460BF02B
S1132DB061FD804650460BF05DFD4A464146FEF7F4
S1132DC069FEFFF7F3FE012019B0BDE8F08F0000A3
S1132DD010F0032078F0032070F00320007102004B
S1132DE008000200B4D70320A0B5030001207047F7
S1132DF02DE9F84F064671480C46017AC8079EB083
S1132E00154603D59DF8B410E3296CD19DF8A000B4
S1132E100B93002802BF69490878002810D118468E
S1132E2009F024F9FF280BD00CA909F0C8F80028F0
S1132E3059D10D98410456D49DF84600002852D12A
S1132E40002E18BF7C2E8DF8286005D07F2E4AD125
S1132E505A49087800287BD058498DF82A408DF8C3
S1132E6029500878299C2A9D2B9EDDF8B090DDF826
S1132E70B8A02F9FDDF8C080DDF8C4B000285FD073
S1132E80280003D000F070F8FFF702FD9DF8280039
S1132E907F2804BF9DF8A000032807D19DF8B40043
S1132EA000F059F800F074F803213FE09DF8B400F5
S1132EB0E0282ED022D3E22816D002D3E32818D05B
S1132EC01CE09DF8A0100B9B9DF829200091E120A7
S1132ED00590CDF824B09DF82A109DF8280000F044
S1132EE052F8FFF7D5FD33E000F040F8FFF7D2FDCC
S1132EF02EE000F03BF8FFF7EEFD29E09DF82810E6
S1132F007C2909D1A0F1E4020C2A24BFB03810288E
S1132F101AD200F029F810E07F2915D19DF8B400E9
S1132F209DF8A01000F017F800F032F800910B9B08
S1132F309DF829209DF82A107E20FFF704FD07E064
S1132F409DF8B400E22803D000F00EF8FFF747FE26
S1132F501FB0BDE8F08FCDF824B0CDF820800797DE
S1132F60CDF818A0059070479DF8B4009DF8A01006
S1132F70059000910B9B9DF829209DF82A109DF83F
S1132F802800CDF824B0CDF820800797CDF818A0FC
S1132F90CDF81090039602950194704728B907481C
S1132FA0017AC80748BFFFF7D5B870474EFC032025
S1132FB0D8D60320ACB5030094CF032004F003203B
S1132FC0912800D0704780B500F065F918B9BDE8C4
S1132FD001400BF079BD01BD80B5A0B040887D22D1
S1132FE0694604F0BCFB01001CBF694602F0FBFD0E
S1132FF021B000BD80B50B460146002218460CF0F6
S1133000CFF8010001D1182002BDBDE8084001221B
S113301001210CF0A4BA80B502F0CAFDBDE802405B
S1133020012010B5040014BF084800200CF092FBE6
S113303050B1002CBDE8104014BF054A054A0346B0
S11330400549022001F0B3BF10BD0000A0B2030087
S113305088B2030094B203005CB2030038B50CF0EC
S1133060EFFB0CF00DFC78B101F028FF60B1094CC6
S1133070207804F00FFE0546207804F04CFE3DB1A4
S1133080BDE8314001F019BFBDE831400CF040BC4F
S113309031BD000069FF03207047704780B552219D
S11330A04E4802F081FDBDE808408EE0FEB50546BD
S11330B001F03EFD0646284601F04AFD9DF8001049
S11330C02A464FF6FF741EB3019B1B78212A1FDA90
S11330D04220012B424E09DC4343F01830F81230F1
S11330E0A34215D05B1C20F8123011E0022B0FD143
S11330F0002306EB420700FB03F637F806E0A6457B
S11331001CBF0EF1010E27F806E05B1C012BF2DD5B
S1133110344F324E37F8123036F812C09C45804195
S1133120C043C00FA4451CBF0CF1010C26F812C00B
S1133130092D18BF0B2D0AD1B6F814C0BF8A01EBB4
S11331400C0EBE45AEBFB7826144B1820CE01D2DAA
S11331500AD1B6F83AC07F8F01EB0C0EBE45BDBF55
S1133160491E61447187778736F81210994203D358
S113317010B9284601F09AFE00201B49C6B28A5DA8
S1133180AA4204D0401CC6B2112EF7DBF7BD112EA3
S113319015DA02F0D4FA0546144801788D4203DBAF
S11331A0DD21134804F000FF222012494543481949
S11331B030F81610A1421CBF491C20F81610F7BDA8
S11331C05221064802F0F0BC00BFFF2252210548FC
S11331D0FEF766BB034A22F81010704718F4032068
S11331E0E4F403206CF4032070D603009CD3032082
S11331F060D60300C0F40320DFF84C19C87370478D
S113320070B5DFF84859DFF8486929783068382400
S1133210614301448A78112A04D0B421DFF83409C7
S113322004F0C2FE2878316814FB00F40819412226
S1133230827070BD10B5022002F084FA02F089FA9F
S1133240DFF80C09DFF8043901681C78DFF8F82886
S11332503820444308194178042903D1107C401DC7
S1133260107405E04FF47A7102F1180004F05FFC69
S1133270BDE8104002F06EBA80B5DFF8DC080BF050
S113328002FDDFF8600B0BF0FEFC0CF045FBBDE823
S113329001400CF062BBDFF8B808DFF8B028016821
S11332A0137838204343C818807833281CBF432838
S11332B0532801D101207047002070472DE9FF4EAB
S11332C00DF08AF809F011FD002867D0DFF878487E
S11332D000202076DFF8840801790C3001F0DDF954
S11332E0207D18B10CF032FB0020207500212173E1
S11332F0002700F055F80DF067FD0DF0E0F8DFF859
S1133300E80ADFF84868DFF8E4BA482500F1E20982
S113331000F1E40A3DE0012111E002F01AFA3078EC
S113332068434FF6FF7239F800109142F3D100223E
S11333300821504401F00EFD411E8941C90F94F843
S1133340202002F001020A4220D03078684308228B
S113335039F80010ADF808100AEB00016846FEF7D2
S113336061FA0A230A2201F0E8F9DFF8E4070168A8
S113337096F800C0382010FB0CFC01EB0C0000F1A7
S11333802C0102230B2200200DF039FF02F0E2F998
S11333907F1C9BF80010F8B28842BED3BDE8FF8EB4
S11333A010B5DFF8A807DFF8A827017813683820DC
S11333B010FB01F018444078032818BF04280CD1EE
S11333C04820DFF8242A414350184FF6FF72B0F822
S11333D0E210914208BF032008D001F0C9FB044663
S11333E001F0CFFB214603F0D4FD022001F0EEFBF7
S11333F00DF098FF00F071FF0DF012FD01F032FAAC
S113340020B1BDE8104000200EF031BA10BDF8B56F
S1133410DFF83447DFF83477DFF83467E0733825B2
S113342039783068694301448878032818BF002834
S113343023D0332818BF432819D100F01FF8397856
S1133440306815FB01F542195178032918BF042986
S113345007D1801C03214155E07BBDE8F24002F016
S1133460E3B9E07B02F0E0F9BDE8F14098E7212000
S11334708870BDE8F14006F020B9F1BDE37B13226A
S113348053A103200EF037BE38B501F05CFA3820A2
S1133490444315190021A9704FF6FE7009F05EFB34
S11334A04FF6FF7009F076FBDFF89C46FFF7E6FF66
S11334B0E07BBDE8324002F0B7B900002DE9F843E3
S11334C00546DFF8F40ADFF88466DFF884960EF028
S11334D065FE80462B4618223DA103200EF00BFE0C
S11334E0002088F8000038273178D9F800007943A3
S11334F0084470244178032918BF042924D00024E7
S1133500290007D1416B91F82400E8B181F82440E7
S11335109D2017E0FF2D06D04FF47A7045432946CD
S1133520404604F004FBD9F80010327801F134006D
S113353017FB02F7C15991F8240028B9012281F838
S113354024209C2002F070F900F0C7FE2046BDE85C
S1133550F283DFF8FC05DFF8F425016813783820DE
S11335604343C818416B91F82400704710B5DFF845
S1133570480A0EF013FEDFF8D815DFF8D0350A68D4
S11335801C7838214C4311194A6B92F8241009B95C
S1133590002010BD04F0D8FA4FF47A71B0FBF1F0BA
S11335A0C0B210BD38B504F0C0FB0446DFF8081AF9
S11335B00EF0F5FD0546FF2818BF02F0CAF80020FA
S11335C02070FFF77BFFFF2D01D001F081BA31BDE0
S11335D04242000038B50D4688B004466869079039
S11335E01622297C0691E8890590297B0491E87AC2
S11335F00390032095F90A1002912B890BA10193E2
S1133600009523460EF077FD01200CF0EFF9287B9E
S113361000280CBF4FF6FE7009F094FA2B462246A0
S113362009B0BDE8304001460120AAE042423870AA
S113363057424242574244002DE9F047DFF80C95C7
S1133640DFF80C6599F800C0884631681D463824B7
S11336508B1C14FB0CFC824613F80C0000284BD185
S1133660170049D0042F47DC0EF04AFE002843D14E
S113367002F071F800283FD102F06FF808B1042F6E
S11336803ADB287B032817D14FF6FE71884515D104
S1133690012F08BF4FF0000810D0022F2CD109F0E1
S11336A051FA4FF6FC71884202DA09F04BFA01E054
S11336B00FF03AF8804601E0012F1DD0BAF1000F57
S11336C00CD0287B03280CBF012100213846012F90
S11336D018BF00200FF0F1FA010030D1294640460E
S11336E000F073FF01002AD102F031F802F014F85F
S11336F020B102F032F808B1702020E0306899F867
S11337000020811C14FB02F4085D332818BF5328E1
S113371003D0DFF8341400208873384600F018FF13
S113372000214FF6FF7001F013F9DFF884180878D0
S113373020B102F012F808B910F007FD0020BDE82E
S1133740F08738B50446DFF8005408222146281DC6
S1133750FEF768F8207BDFF8F4330228C8BF0020A6
S1133760287094212878E9730028DFF8E4031C7892
S113377002680CBF012131213820444310198170A3
S113378031BD38B51C46FFF757FF010032D1207B0D
S11337900328204602D1BDE832408CE0FFF7D1FF78
S11337A0DFF8A4030021818101F02EFB01464009CA
S11337B04FF0010305D1DFF8540B027803FA01F14D
S11337C008E001F01F0140F0180003FA01F105229E
S11337D041EAC061062008F0E1F901000AD0DFF8EF
S11337E07013DFF868430B68257838214D43591965
S11337F000228A7032BDF8B586B006460C461746DC
S11338001D46082204F10C016846FEF70BF82189D5
S1133810ADF808108DF80A70002221788DF80B108D
S11338208DF80C206B4632464FF6FE710120FFF7EF
S113383003FF010009D16846FFF783FF204600F02B
S113384006F8010004BFC0490D7507B0F0BD10B5FE
S11338500446BF48BD4A0168137838204343C8185A
S11338604078032818BF042806D1E079C10744BF73
S113387094F9050010F001FD207801F01BF801F027
S113388058F8034622896189002010F0D3FD040012
S113389004D09420FFF7BBFD204610BD9420FFF711
S11338A0ABFC022001F04DFFA74C00F00CFD0320FF
S11338B02074002010BD10B504460022082101F038
S11338C049FA08B1012010BD09F03CF900224FF675
S11338D0FF7100F0B9FE217C204600F0DEFE626933
S11338E0E189207C0DF064FD9948984A01681378B9
S11338F038204343C8184178012908BF0FF0EEFF70
S1133900FFF74EFD002010BD2DE9FC4100F0A2F8A8
S11339100446907810B90EF0F3FC08B1702091E0E1
S11339200CF06DF8DFF820822CB10222214608F158
S11339302000FDF777FF684600F0D8FF08B1932018
S113394080E09DF8003014227EA103200EF0D3FB0A
S113395000F0F7FE010075D19DF8000000F0F8FDBD
S113396038683278411C6A43885C012818BF0228F1
S113397008D0032818BF042842D1002001F02EF8F3
S113398000283DD000F0F4FE38683278411C6A43C8
S1133990885C032814BF042810F040FEFFF700FDE4
S11339A0012010F063FE01004CD13078396868437F
S11339B04A1C125C032A18BF042A0ED198F820303E
S11339C09C0708D50522DFF8EC15012000F05EF80D
S11339D0010036D036E0032A01D0042A31D108444C
S11339E000F12C0102230B2201200DF008FC00F051
S11339F02BF891F82C20500723D50CF08EFE20E0F4
S1133A0000F022F813228A70002088F80D000124A7
S1133A1001F0FAF9400903D101F0F6F984400BE012
S1133A2001F0F2F9450901F0EFF900F01F0045F04B
S1133A301805844044EAC56405222146082008F09C
S1133A40ADF80020BDE8F6813178386815FB01F542
S1133A50411970473D4E3E4F3278396838256A43E4
S1133A600A44704710E0000038B5044610460328A5
S1133A7018BF04280D4601D0022032BD00F068FDB5
S1133A8029462046BDE83840FF2200BF2DE9FC410D
S1133A90804616462E482D4A13780D460168382074
S1133AA04343C818417801293FD08778022F07D0B3
S1133AB0032F3AD15FEA080102D10079810734D497
S1133AC0332001F083F80CF087FC15F0784F12BF17
S1133AD00522DFF8380802782946062008F05EF847
S1133AE00446A0B9184F387301200BF07FFF09F08A
S1133AF045F878805FEA080014BF0220012038707E
S1133B00381D00F00BFF00207873BE7302E03846C6
S1133B1001F05CF85FEA08003146284602D010F054
S1133B20C6FD03E010F0C2FD00E07024019400958E
S1133B3043462C220AA103200EF0DDFA2046BDE8FC
S1133B40F681000042420000B4F70320D9FF0320AD
S1133B507CCF0320144B000048FF0320D8F7032038
S1133B60424244420000000010B50BF00FFA00F18D
S1133B701004204610F0A1FD4FF6FF5101402046ED
S1133B80BDE8104010F09FBD78B587B00C461646CE
S1133B901D4630B9204610F082FE03A910F001FA48
S1133BA003A8019007230C998DF8096001208DF872
S1133BB008308DF80B100090360A8DF80A60042343
S1133BC002AA0121204611F077F9060017D02146F8
S1133BD011F0B2FB15B93046FFF7C6FF0D9808B9CE
S1133BE030460DE0204610F086FF18B1304611F043
S1133BF08CFC04E000220021304612F058F800202A
S1133C0008B070BD2DE9F64F85B08A461C461046B3
S1133C1011F05AFC0546BDF8180003A911F088F903
S1133C200027002C14BF4FF0010BBB460026BBF14C
S1133C30000F4FF6FF79B84607D008B10DF10C0814
S1133C406678760806F0010604E0BDF8180011F065
S1133C50AFFB8046DFF8901CDFF8542C097812681B
S1133C6038204143531C585C03281CBF0428B8F176
S1133C70000F00F0B38010986B1C11441D5C8DF88C
S1133C8008A0680800F001008DF80900280688786B
S1133C9058BF45F08005022807D15FEA0A0002BF39
S1133CA0496B91F82400002801D1022730E04046F6
S1133CB008F0BAFEADF80000BDF8180011F08EFB54
S1133CC0814608B94FF0010930000CBF4FF0050AD6
S1133CD04FF0010ABBF1000F04D0201D10F0EDFCE1
S1133CE0834601E0BDF800B0BDF8180011F0F2FA07
S1133CF0CDF80490CDF800A02B465A46414600F07A
S1133D00010010F02FF800F073F8814608BF012776
S1133D109CB19DF8080018B9484600F069F802D132
S1133D20201D10F0CAFC0121019100970146334681
S1133D304A464046FFF728FF0AE0BDF8180011F094
S1133D40C9FA3B464A46414600F0010010F063FBC5
S1133D509DF8090020B94FF6FF71404612F0F7FABA
S1133D60002F3BD19DF8090028B14146484612F086
S1133D7023FB12F086FB30001EBF48464FF6FF714E
S1133D80884219D010F08BFDFF2815D0DFF8201BD6
S1133D90DFF8547B0A6897F800C0382102F1340335
S1133DA011FB0CFC4BF6FF7153F80C20526832F8EF
S1133DB010300B4022F8103084B108F0C3FE0EB16D
S1133DC0002405E09DF80810002914BF03240124F1
S1133DD0014643464A46204612F066FD07B0BDE858
S1133DE0F08F000042FF0320D8F903209CD3032066
S1133DF04FF6FF71884270472DE9FE4F81460F460A
S1133E00144601A9384611F093F800218346009125
S1133E10384611F059FB82465FEA0900DFF8B86BB7
S1133E2009D0BBF1000F18BF0DF1040B504611F07F
S1133E3074F8054604E0384611F0BAFA834635466C
S1133E40384611F041FB025900920DF1010010F0C7
S1133E5034FC80465FEA09009DF8034018BF002D3A
S1133E6006D008223146284613F062F8002823D1F0
S1133E70DFF8746ADFF8382A31781268382515FBC0
S1133E8001F15318D87818B19AF80100830714D5B2
S1133E905FEA090011D0901C415C022908BF002C84
S1133EA00BD1404608F05AFE0CF08EFF9923FFF721
S1133EB0E6FA992001F0B8FC72E000F05DFF0028FA
S1133EC018BF002CDFF8107C05D09420FFF79FFA70
S1133ED00020387664E000F04FFF002860D0584698
S1133EE012F079F8FF2818BF5FEA0901DFF89C4B4C
S1133EF006D13278482042435946A05A12F05CFA5F
S1133F0012F0BFFA3178482041435A46615ADFF82B
S1133F10A049404600F098FBDFF8B00B90F902107E
S1133F20090279843078216815FB00F08A1C125C40
S1133F30012A16BF312A11224322891C0A54022065
S1133F4001F0FFFBDFF8940B016807F1180003F0A0
S1133F50EEFD10F063FB00203874317815FB01F599
S1133F6021684A19D07820B907F1180003F0D4FD6C
S1133F7014E0B9F1000F06D09AF80100820702D5C7
S1133F80FFF79CF90AE0481C415D042906D105218C
S1133F9007F1180003F0CBFD09203874AD21F97343
S1133FA000F060FC10B100200DF061FCBDE8F78F5B
S1133FB0B5D3032000F8FF07B4F603202DE9F04F32
S1133FC088468DB0404611F07FFA0546092200214B
S1133FD012F0BEFF0646404611F0EAF9824602ABF3
S1133FE0052205A9404613F00BF802288DF80000BD
S1133FF02AD09DF808008619F6B206F11002A95DD0
S11340008DF801100023D2B24146012010F04AFB82
S1134010002819D09DF80100DFF8CC48DFF890980B
S1134020382701284FF6FF7B0FD0022819D0042827
S113403000F0CA80062822D0072800F091800828C2
S113404038D07C2800F09380E4E0404611F042F937
S1134050009600234246002100F00100FFF7D2FD44
S1134060D8E000F0E0F8012B02BFDFF86C1A087802
S1134070002803D132464146FFF7BEFECAE050464F
S113408010F0BDFB5845064608D0404611F022F911
S11340903246514600F0010010F0A8F900F0C3F8D0
S11340A0022B06D101F052FB504610F0F0FA01F059
S11340B051FBAFE0A819401C10F0FFFAADF8020064
S11340C0A819C01C10F0F9FAADF80000A819801D59
S11340D010F0F3FA58450646EBD010F09FFA00F0C2
S11340E09CF88B5C132B09D100F042FB404611F085
S11340F05FF90146BDF8000012F05EF900F08DF89A
S1134100885C022818BF132823D1304608F026FD06
S1134110BDF8020008F03EFD0021002000F0BDFAC9
S1134120BDF80000514600F013FCDFF8A009DFF8E9
S1134130B019C0780F28B4BF401C0F20087000F0DD
S1134140CCF8207817FB00F7D9F80000811CCA5D71
S1134150132A5FD1801C2321C15507F08FFD59E03C
S11341609DF8001005AA40460BF056FC52E0A81931
S11341704078652802BFA91C885D6D284AD1404655
S11341800AF01CFF1336F1B2814243D20822514691
S113419003A8FDF747FB6A46F1B2404610F044FD20
S11341A0C0BBBDF80000A8B3DFF838490120207077
S11341B001F0CCFABDF8001003A810F05DFA01F08C
S11341C0C9FA0020207025E006220021284612F0BA
S11341D0BFFE281810F071FA04460FF64810008844
S11341E0ADF80A0000210191009102230DF10A02A9
S11341F00121204610F060FE06000BD0214611F08C
S11342009BF8404611F066F80022314600F00100A8
S11342100BF0E3F90DB0BDE8F08FD9F80000227877
S1134220811C7A437047D9F800002278811C17FB5F
S113423002F7CB5D7047F8B5022001F083FA01F074
S113424088FADFF89448DFF8A066DFF86476002087
S11342502076382508F049FD40B1327839686A4340
S11342600A44D07810B9FFF729F82BE008F03DFD97
S113427010B900F081FD68B1207C58B100F023F83A
S1134280207C411E217401F062FA014600200DF0E9
S11342904CFC17E038683278811C6A438B5C132B22
S11342A00DD000F069FD50B938683278811C15FBD7
S11342B002F5485D11281CBF4328412802D1E07B48
S11342C0FFF7A5F8CAE2C82104F1180003F02FBCD7
S11342D0DFF8041800200874704780B501F062FA12
S11342E0FF2807D000F0D1F9416B91F8240010B1F8
S11342F0012000E0002010F023F8DFF8DC070021A3
S11343004180001DC0E9001101BD0000B6D30320A7
S11343102DE9F84F0C46DFF8C067DFF8B0A701219C
S11343200546717384B0904650460BF01AFB04F0B6
S113433013FF002814D1012D18BF042D00D085B916
S1134340CDF8008023462622BEA103200DF0D3FE23
S113435001F0FCF94146204603F042FB01F0FAF972
S1134360BBE0DFF88475DFF848553A7828683824CC
S1134370811C6243885C23280DD100F0F9FB0446BC
S113438000F0FFFB214602F004FE022000F01EFCB8
S11343900CF095F8A1E0B8F1000FFBD121281CBF67
S11343A00428532802D105F088F996E000F0E4FCD3
S11343B0002800F0AC800BF015FB28B9307B0028F6
S11343C00CBFAB2094209FE050460BF0CAFA28B1F2
S11343D040F2D6610FF23C7003F0E6FD307818B974
S11343E05046FFF734FA78E008F0ACFB83462868BF
S11343F03A78411C6243885C032818BF042807D11B
S11344009AF80700C10744BF9AF905000FF035FF79
S11344109AF80000DFF8748600F04CFABAF80A0043
S1134420002100F095FA00F0A7FC4FF0480980B194
S1134430BBF1000F03D04FF6F8718B4509DB0EF08A
S113444073F9397819FB01F1834638F80120904259
S1134450F5D0584608F082FBBAF8080008F09AFB39
S113446006208DF8080000F064FA8DF80900022394
S113447000200190009002AA387819FB00F0012175
S113448038F8000010F018FD824608B918203BE007
S1134490387819FB00F9504638F8091010F04CFF31
S11344A0307802281CBF5046FFF75EFB0022002133
S11344B0504611F0FCFB30B39420F073022001F05D
S11344C040F928683A7800F07AF814D1C82106F146
S11344D0180003F02CFB032030741020002110F08E
S11344E0EDFA10B911F02DFC10B100200DF01CFBF9
S11344F005B0BDE8F08F4FF4167106F1180003F013
S113450016FB0020E8E79420FEF781FFE5E7286822
S11345103A78811C62438B5C132BDED100F009F9DD
S1134520BDF8000008F036FB00F022F9387814FBDF
S113453000F42868411C095D032918BF042904D12B
S1134540801C332101559620DEE7FEF729FFC4E7DE
S1134550F8B5DFF89453DFF890653168074628789A
S1134560382460434A1C135CBB4204D0491C0F54DA
S1134570384601F052F904F0D5FC60B13FB900208F
S113458004F0CCFC01F0E3F80146012212E0012022
S113459004F0C4FC00E027B130682A7800F00FF87A
S11345A004D101F0D4F80146002203E001F0CFF871
S11345B0012201460020BDE8F8400AF0E3BF411C97
S11345C014FB02F40B5D042B704770B592B00646E1
S11345D00C4601F0B2F80546E17A002012F0FFFF24
S11345E008B98A202AE094F90A0000F0E3FB08B134
S11345F08B2023E000F071F9E17A00F8D41F2946FA
S1134600A27A427000206A460DF0BBF94FF6FE70A4
S1134610ADF8046086420CBF4FF6FF702089ADF8F8
S113462002006A46294600200DF0D1F808B10220A4
S113463004E02089DFF8A0144880002012B070BD87
S1134640000000004242420038B50C46154608F00E
S113465085FA0EF021F82946204600F079F90BF08E
S1134660C1F938B1DFF86404C0780F28ACBF0F205B
S1134670401C06E000F009F8417801290CBF002035
S11346800120DFF85C14087031BD8948964A01683E
S1134690137838204343C81870477FB504460E4644
S11346A000F047F8904DC4B1DFF8402400213046B3
S11346B00CF07EFE29787E4A382041431068435C22
S11346C08DF804300844082241788DF8051002A8BA
S11346D02146FDF7A7F813F024FF2A78DFF8101419
S11346E048204243881810F8D41F8DF803104178ED
S11346F08DF8021008F042FAADF8000008F022FA32
S1134700ADF8060000F017F87FBD1FB5044600F0B1
S113471010F81CB100208DF8050007E008F012FA2B
S1134720ADF8060008F02AFAADF8000000F003F82E
S11347301FBD68464EE010230722694600200CF096
S11347405EBD80B58AB0FFF7F4FFBDF80000ADF898
S1134750180004A99DF803008DF81B009DF80200C1
S11347608DF81A00BDF80600FFF72FFF0BB000BD4F
S113477070B586B0012000F031F90FF2AC310400BD
S1134780D1E90023CDE900234FF6FF752E460ED064
S11347905549DFF85C630A7848204243B01800F1B9
S11347A0E401B0F8E26008226846FDF73BF813F034
S11347B0C9FE02A800F00EF8002C0EBF00226A46C3
S11347C03546BDF80E002946FFF73EFF07F01DFEF3
S11347D006B070BD01461023072201200CF00FBD66
S11347E0F8B50446082000F0ADFF00F0B2FFDFF892
S11347F004033D4D01782B78DFF8F422482043432D
S1134800D01880F8D41000F02DF810B100200DF06D
S11348102EF800210020FFF740FF254F2978386843
S11348203826714301444878032818BF042802D16C
S11348300FF024FD01E00FF0B8FC20460DF0E1F884
S11348409B23FEF71CFE9B2000F0EEFF29783868BE
S113485016FB01F63044002202854285BDE8F14092
S113486000F078BF002012F067BE10B50446214660
S1134870002012F0B4FE08B98A2010BDFFF705FF2E
S11348808078022818BF032801D0702010BD9948F1
S11348900470082000F055FF0DF032FD08B13D20F2
S11348A010BD954A95490DF096F800B1A12010BDB0
S11348B07CCF032010B504460DF022FD08B13D2045
S11348C010BD00F00AF880F8D440FFF7CBFF10B118
S11348D000200CF0CCFF002010BD034A844913785B
S11348E048204343C8187047D9FF032038B584B023
S11348F004466846FFF76EFF9DF8050040B10428A2
S113490006DC00F0AFF89DF80410525D8A4201D035
S1134910932001E02070002005B030BD1FB504468F
S11349206846FFF757FF082202A92046FCF77AFFE2
S11349301FBD10B500F007F8714938204443101921
S11349404278885C10BD68486E4B02681C787047DA
S11349502DE9F8436B4E664F8146307848250C4666
S11349606843391892B007F1E408A1F8E290404492
S11349701CB9082103F068F803E008222146FCF77B
S113498051FF00F0DAFE01466A4600200CF0F9FF00
S11349903078684308EB0001082204A8FCF742FFC2
S11349A0ADF80E9000F0C9FE01466A4600200CF0F6
S11349B00EFF307815FB00F578194FF6FF71B0F84B
S11349C0E20088421EBF002C08EB05010FF072FEC6
S11349D013B0BDE8F083000064F803203EB504463C
S11349E03D4890F82010C8074FF6FF7508D500F031
S11349F01AF8BDF80800A84202D000F00FF828B158
S1134A0000212846FFF7A4FF00203EBD24B1BDF8D5
S1134A1008006946FFF79CFF01203EBD0822FF21E4
S1134A20684600F097B90A230A22694601200CF06F
S1134A30E6BB38B5044634480DF0B0FB00F012F87C
S1134A405119002C4A6B82F826401EBF2F49098851
S1134A50002906D04FF47A725143BDE8344003F084
S1134A6066B831BD2049274B0A681D7838214D436B
S1134A7070471D48234A0168137838204343C818F7
S1134A80416B91F82600704700000000BAFA032039
S1134A9038B503F04AF905461D490DF080FB04467C
S1134AA0FF2818BF00F055FE164B0F490020287050
S1134AB038201D780A6845435019416B0020FF2CAB
S1134AC081F8260000D003E031BD0000D8F70320B0
S1134AD0BDE8314000F03EBEB4F703200CD0032003
S1134AE0EBFF032010F803207CCF032000F8FF071E
S1134AF0D8F90320D7FF032065D20000E147000066
S1134B0068420100D9FF0320CCF6032066D30320BA
S1134B10F4F603206173736F63696174696F6E2EB9
S1134B206300000004600000FFFFFFFFFFFFFFFFC2
S1134B3020B500210FF2F822CBB2D35C834205D01A
S1134B40491CCDB2082DF7D3002020BD012020BD83
S1134B5020B500210FF2E022CBB2D35C834205D012
S1134B60491CCDB2082DF7D3002020BD012020BD63
S1134B708B4A8C49137848204343C818B0F8E200A4
S1134B807047874A8749137848204343C818E4305C
S1134B9070478548824A0168137838204343C8180F
S1134BA0416B087E704780487D4A0168137838203D
S1134BB04343C818C078704710B57B49784B0A68DE
S1134BC01C7838214C431119C87010BD2DE9F041EF
S1134BD0734D754E2A783168382462430A44074677
S1134BE0977072480DF0DAFA8046022F70481ED191
S1134BF031682B784A1C6343D75C042F18BF02F03A
S1134C008BFF30682A78411C6243885C03281EBFEE
S1134C100428404602F080FF2978306814FB01F430
S1134C2001194A68D00054BF9024BC2415E0002127
S1134C30017088F800100AF011FD31682A78481CC8
S1134C4014FB02F4005D032818BF042802D10FF0FE
S1134C5015FB01E00FF0A9FA9124204603F0F8FEB9
S1134C6050B9234613224DA103200DF044FA2046E7
S1134C70BDE8F04100F0D8BDBDE8F0814A48484A9B
S1134C800168137838204343C818807800F00F0077
S1134C9070474548424A0168137838204343C8188E
S1134CA0817801F00F01022901D101207047002011
S1134CB0704710B592B00446FFF7EBFF20B900F03F
S1134CC03FF818BF932019D100F037FD00F097F892
S1134CD0BDF8020020819DF80100A07220469DF8D5
S1134CE00010E172FFF71AFE0020207304F1140192
S1134CF004F110000CF034FBE081002012B010BD70
S1134D0038B592B004460D46FFF7C3FF20B900F052
S1134D1017F818BF932011D100F00FFD01466A4621
S1134D2020460CF02EFE9DF80100287000216970C9
S1134D309DF8000000F01F00A870002013B030BDE3
S1134D401948174A0168137838204343C8188178F2
S1134D500329704710B5002300E05B1CDCB28C42D1
S1134D6005D210F8014B9442F7D0002010BD012069
S1134D7010BD082113F0F0BE0B48094A01681378EE
S1134D8038204343C818807801281CBF31283328B1
S1134D9001D101207047002070470000424200000A
S1134DA0D9FF0320D8F903207CCF0320C4F60320C5
S1134DB0D0F9032070B5044692B02146002012F0C9
S1134DC0D6FB0546C0B268B900F0B7FC06466A4691
S1134DD0314600F016F88DF801406A46314600204D
S1134DE00CF0F5FCE8B212B070BD80B592B000F0E2
S1134DF0A4FC00F004F89DF9010013B000BD0146C5
S1134E006A4600200CF0BDBD80B592B000F095FC60
S1134E10FFF7F5FF9DF8000013B000BD01207047B7
S1134E2080B5FFF7F1FF400918BF012002BD000063
S1134E300001020304051D200203040508090A0BEE
S1134E407047012070470120704701207047704768
S1134E50B5207047704770470020704700207047A6
S1134E6000207047002070470020704700207047E2
S1134E7000207047002070470120704701207047D0
S1134E80B52070470020704700207047002070470D
S1134E90002070477047002070470020704770471B
S1134EA000207047842070477047704770477047F0
S1134EB00120704770477047704770470120704762
S1134EC000207047002070470348016808780128D3
S1134ED008BF0220704700002CD70320704770479A
S1134EE07047002070470020704700207047002062
S1134EF07047002070470020704700207047002052
S1134F0070477047B52070470020704700207047F5
S1134F1070477047704770477047B52070477047B7
S1134F20704770470020704770477047704770475C
S1134F304FF6FF729042014608D0000A01D00020CB
S1134F4070473B48027811EA020000D00120704704
S1134F50020A07D1364A1378002914BF184323EAFA
S1134F6000001070704710B5830800EB5374C1083B
S1134F70E4080122A0EBC40002FA00F000EB0120D7
S1134F8080B210BDF8B504460D4616461F46FFF71D
S1134F90CFFF58B13A463146202013F03BFF1DB1F4
S1134FA020A1202013F02EFF22480480F1BD0CB470
S1134FB080B50A4602AB012104E00CB480B50A4670
S1134FC002AB0021FFF7DEFF01BC5DF80CFB2DE90D
S1134FD0FC410024184DDFF8648013A713A6A0B287
S1134FE0FFF7C1FFFFF7A4FF002814BF304638467F
S1134FF00090224658F824302946202013F0EDFE74
S1135000202013F052FF641C052CE8DBBDE8F3817B
S1135010FF220121064813F061BF054800210170F9
S1135020704700000D0A00006E6F000059455300E0
S113503084D3032016FF032034A0030054C80320A4
S113504080B5FFF790FFBDE80440012180E780B5FB
S1135050FFF789FFBDE80440002179E71CB5044649
S113506021684879FBF7AAF988B92068418803299F
S11350700DD0E27C0192009143790A4A0A49012049
S1135080FFF795FF01212046FBF76FFC07E0204660
S113509013F02EFF01001CBF2046FBF766FC012025
S11350A016BD00BF70A0030044A0030000980021B7
S11350B000E0491C8AB28242FBD370472DE9F84FC5
S11350C0044686B02168E07CB1F802800490002692
S11350D0607DA568B4F80C90277D002807BF4022A6
S11350E08DF80C2080238DF80C304879FBF766F995
S11350F088B90498002818BF02280CD003281CBFC4
S11351000528B8F1030F06D0DFF84C140120FFF78F
S11351104EFF012117E2E07B18B1218A002900F03B
S11351205181DFF838341E80617D00290CBF0821CD
S1135130002108B141F004010846FBF7B5FDE07B0E
S113514018B1208AFBF7BFFD0646A07CDFF810B437
S1135150FBF7AAFD0499781C162980B2A9EB070A6B
S113516000F23081DFE811F01700360181003400CD
S11351705E01810029016301300168016D01720142
S1135180E20086012E012E012E019701D401970120
S1135190E101E20086010120FBF786FD9DF80CA0E9
S11351A0DFF8B863B8B2801C8145C0F2BC804A46BF
S11351B0B9B22846FBF7E8FD834600F0FCF900F09D
S11351C0D9FC18B900F0F7F905F075FABF1CE9E746
S11351D00420FBF769FD0026ADF80E8002E0474489
S11351E0FF1CBFB2A9F10300874231DA00F0D8F9FD
S11351F08246A81CA9EB070110F807B0CA1EEB1CD5
S113520092B2D919584614F01FFA5FEA000808BF91
S11352104FF0800B12D0E81C3844CDF808B0019050
S11352205246218A9DF80C3000912068BDF80E107A
S1135230407905F0F8F800288346D0D05846FBF7AB
S113524033FD5046FBF73FFD761CBBF1800FC6D102
S1135250F6B2BDF80E80002E65D1E07B277DBF49F4
S1135260002814BF0420022008800420FBF71CFD42
S11352704FF0000AD3462646ADF80E80CDF81490C0
S11352801EE09DF80DA0FBF70FFD4046FBF71BFD4C
S113529013E0E81C3844CDF8089001904246318A66
S11352A09DF80C3000913068BDF80E10407905F07F
S11352B071F80100E5D10BF1010BE719FF1CBFB236
S11352C00599F81C88421FDA8AB239462846FBF74A
S11352D05BFD8046A91C059811F80790C01BC21EEF
S11352E0E91C92B23944484614F0AEF904000AF1BC
S11352F001008DF80D00CCD19DF80DA08720FBF79F
S1135300D3FC4046FBF7DFFC0499052930460CD05A
S1135310BAF1000F07D15FFA8BF109B9802113E1CB
S11353200020FBF7C1FCFBF7DBFA0FE10C290CBFF3
S11353300D201620FBF7B8FC00F032F98146A81CBA
S11353400499C55D0C2903D11A2D06DB192504E047
S1135350152902D1142DA8BF1325E07B98B1208A0A
S11353604FF6FF7188420ED120689DF80C304079C9
S11353704A46414605F076F84FF6FF71884218BF59
S1135380002E00F012F9754801880BEB010700208C
S1135390FBF78AFC04989DF80C30019515280CBF86
S11353A00120002002904A46208A00904146246849
S11353B0607905F0B3F83870B5E72046FFF74EFD85
S11353C00028B2D18121BEE02046FFF796FD0028D7
S11353D04FD1F7E7B8F10A0F1FD1624E3078E0B130
S11353E0E07B002804BFA9EB0700082815D100F0D2
S11353F0D7F8002802BFA91CC85D002802BFE8191D
S1135400C078E22809D1391D4A4689B22846FBF7FB
S1135410B7FC00F0E5FA0020307000F0BCF800F0B2
S1135420BEFB8EE000F0B7F8FFF77CFD89E000F0EA
S1135430B2F8FFF715FD84E000F0ADF8FFF75FFD6B
S11354407FE000F0A8F800F0ACFB7AE0EF5D2D5CA3
S1135450208A9DF80C10019000912B4624686079F5
S11354603A464146FBF735FD2A4639464046FFF7A2
S1135470F9FC6BE0E95D01B10121049A162A0CBF25
S1135480012200220092A9EB000293B22A1840469E
S1135490FFF7EAFC55E015F80790681C1129C55D73
S11354A004D11220FBF700FC002703E01420FBF7D3
S11354B0FBFB0127E07B78B1208A4FF6FF7A504549
S11354C00AD14B46424621463846FCF7FFF8504580
S11354D018BF002E00F069F84246204E308803952C
S11354E08246CDF80890C0F15100019680B2009038
S11354F021460BF1010000EB0A033846FCF720F9C2
S113550000B101200BF80A003088401C30800AE703
S113551000F02AF81CDB00F035F80020FFF7C6FD88
S113552000F028F8FFF7A4FC0BE000F01DF80FDBF7
S113553000F028F80120FFF7B9FD00F01BF8FFF791
S113554095FC18B900212046FBF70FFA012000E072
S1135550002007B0BDE8F08F78A003004EFC0320C4
S1135560D8D603206EFF0320EE5D06B10126074660
S1135570B94570471FFA89F00090EB19218A324629
S113558040467047A9EB07091FFA89F00090EB1910
S11355903246414670471FFA8AF2E919404670477D
S11355A04A4639462846FBF7EFBB03D020823070C9
S11355B0000A707070473088C0F1520080B20190C8
S11355C05346218A00915A46D4F800C09CF805003D
S11355D0414670472DE9F0427D4E7E4C00203070EC
S11355E03821206800F0E0FA7B4933782268087893
S11355F038256B43D054002230782168684308442E
S113560042703078216868430844827014F058F876
S1135610327821686A430A44107214F051F83278DF
S113562021686A430A445072317820686B4A69439E
S1135630014410786A4AC8703378216817686B434C
S1135640C818684947610A7802763078D4F800C0EF
S1135650654A1268074615FB07F30CEB0301CA61A0
S1135660624AD2F800902C22574309EB07020CF14E
S11356703407FA500CF044FD3078216801F134020B
S113568015FB00F551594A680968BDE8F0420FF06E
S113569051BA80B592B06A46002100200CF071F92D
S11356A008B1012018E05249524A0A910B9252491A
S11356B0524A0C910D9210915148524A5249534BFF
S11356C009900F9211910E936A46002100200CF06C
S11356D07EF800B10120C0B213B000BD80B5002037
S11356E000F01AF828B1002000F005F808B10020F5
S11356F002BDFF2002BD3748354A016813783820BF
S11357004343C818807802281CBF1128432801D1BC
S113571001207047002070472E482D4A01681378F5
S113572038204343C818407801281CBF02280328A6
S113573001D10120704700207047002070470020ED
S11357407047704700207047012070477047002061
S11357507047704770470020704780B500F020F80C
S113576020B10020FFF7D8FF00B1012002BD80B5B1
S113577000F016F808B1002002BDFF2002BD10B5EC
S1135780044600F00DF848B100F019F840780128FB
S113579018BF022802D10CB9012010BD002010BD91
S11357A00020A8E780B5FFF7FBFF30B100F007F851
S11357B04178032901DA002002BDFF2002BD05481B
S11357C0034A0168137838204343C818704700001F
S11357D0D9FF03207CCF0320A9D30320AAD303201D
S11357E084CF03209DD3032088CF032080CF0320C0
S11357F097F700007F46010055F30000E1370200EF
S11358006FF60000FFE50000DF4501004BF50000E6
S1135810002100200CF089B97047002818BF13F04C
S113582071BF704702F00BB901F08CBF33B585B07E
S113583005468DF80420FFF77BF904462846FFF758
S113584087F97CB10028BDF818000FD1FFF7E8FAFA
S11358508DF80000FF2804BF00218DF80010CDF85A
S113586008D016E0A8B106A8029012E0FFF7D8FA13
S11358708DF80000FF2804BF00218DF800109DF86A
S11358800000BDF818108DF80C0003AAADF80E1036
S11358900292DDE901010A4601462846FDF706FCAD
S11358A007B030BD4AB1000011F8013B521E00F8A8
S11358B0013B1CBF11F8013BF8E770472DE9F041AB
S11358C0DFF81081434BB0FBF8F803FB18004FF4EA
S11358D061660A46B0FBF6F3DEB24FF4616101FB88
S11358E016063C27B6FBF7F656711371A0EB0310AE
S11358F0012407FB160090714FF4FA67A4464FF099
S1135900000E0123324E04E0002400E001240EF1D5
S1135910010EC64538D2200004D0D8B2022808BFF0
S11359201D2007D09370D8B21780304482F803C08A
S113593010F8010C5FFA8CF1884206BF5B1C4FF033
S1135940010C0CF1010CD8B20D28E0D17F1CBCB2C3
S1135950600804EB90750123AD08B4EB8501D3D145
S1135960642094FBF0F0642101FB10400028CDD1A9
S11359704FF4C87094FBF0F04FF4C87101FB10446D
S1135980641EA441E40FC2E79370178082F803C039
S1135990BDE8F08118B587B0044605A9FFF78EFF6E
S11359A09DF81A009DF819109DF817309DF81620DF
S11359B00390029104949DF81800BDF8141001900E
S11359C00091054805490088FFF7F1FA08B010BDB9
S11359D010A303008051010016FF0320ECA2030072
S11359E0FFF79ABAFFF74EBA2DE9F04104460D4687
S11359F016469846FFF79CFA50B1002705E02A5C4A
S1135A0041462046FFF7D9FA7F1CB8B2B042F6D31C
S1135A10BDE8F081002B14BF3DA33EA3E4E738B5F5
S1135A2004460D462846FBF7D1F90246691C07E0F7
S1135A3038B504460D462846FBF7CDF90246A91CA5
S1135A40204601B0BDE8304033A3CDE718B587B098
S1135A500178384C06914278059281780491C27895
S1135A60039201790291427901923E228179009157
S1135A70C37920882E49FFF7A0FA08B010BD01466B
S1135A8000220220FFE72DE9F84F8046894692461E
S1135A90002723A423A50FF2840B264E13E05A46B5
S1135AA00DE030880123082209EBC701FFF7B2FF9C
S1135AB07F1CBAF1000F01D14745F0D12A46308846
S1135AC02146FFF77AFA4745EBDBBDE8F18F2DE974
S1135AD0F041184D04462888FFF72AFAB0B1012096
S1135AE0002611A70FF24408E1070AD518B928883F
S1135AF04146FFF762FA2888F2B23946FFF75DFAA9
S1135B000020761C6408F1B21B29EDDBBDE8F081AE
S1135B10257820002578000025630000000000009F
S1135B20202570000D0A0000256400002C200000D0
S1135B30C49F030016FF032080B502F0B7FEBDE842
S1135B400140FAF779BC80B502F0CEFDFAF7A0FC6B
S1135B50BDE80140FDF782BA80B5FFF7A0F913F064
S1135B60E0FEBDE8014013F0DFBE7047FFF7BDB9AA
S1135B7002F0DBBE3EB5BDF81C40BDF818500194E0
S1135B800095FCF729FE3EBD38B504460D46FFF7E7
S1135B90CBF929462046BDE8344013F0E2BEFFF7B6
S1135BA0AAB902F090BE70470022FBF77DBE704791
S1135BB0DFF89414012008707047DFF88C140A7819
S1135BC082421CBF0870FDF72CBA70470170090AA5
S1135BD04170801C704710B504460822FBF722FE72
S1135BE004F1080010BD2DE9F04F8BB007460D46B7
S1135BF0162102A8FFF7D8FF69782A7802EB012161
S1135C004FF6DF7001404CF601439942DFF83C84C3
S1135C1008BF05F10D0004D04CF60100814260D1AB
S1135C20E81D841C41780278BDF81C0002EB0122B7
S1135C3040F00200ADF81420ADF81C000822214603
S1135C400DF10900FBF7EEFD04F10800411BC9B298
S1135C50791ACAB2062A44DD4278037803EB022398
S1135C600B2B3ED18378C01C23F02C02891E032AFF
S1135C70C9B203D04246DFF8D8132FE013F00C0268
S1135C8018BF082A8DF808201ED00C2A22D1062914
S1135C9027DD00F059F9ADF81A2000F055F9ADF8F8
S1135CA018204178027802EB01229906ADF81620FB
S1135CB00DD5BDF81C00DFF89C1340F00100ADF8D1
S1135CC01C00B523424609E00529E6DA09E0801CF8
S1135CD0441B07E013464246DFF87C130220FFF71B
S1135CE066F90024E4B2002C7BD0DFF870130220A4
S1135CF0FFF763F99DF8080008B98FA108E00828A8
S1135D0008BFDFF85C1303D00C2804D1DFF8541368
S1135D100220FFF752F9DFF8501300F012F9BDF832
S1135D201420D24900F0C0F99DF81C00810783A615
S1135D300AD5CF490220FFF740F90DF10900FFF71A
S1135D4085FE00F0FDF804E0BDF81220C94900F01A
S1135D50ABF9BDF81620C84900F0A6F9BDF8182023
S1135D60C6490220FFF729F90220FFF7E1F830B114
S1135D70FAF7D5FB0146BDF81800FAF7B5FB00F0B9
S1135D80DFF89DF808000C2804D1BDF81A20BC499E
S1135D9000F08AF93F1B2A19F9B202A8FFF790F81C
S1135DA080B92A19F9B202A803F0F9FF50B9BDF875
S1135DB016304CF25E00834204BFBDF81800B0F503
S1135DC0805F01D10120B3E0F9B202294FF0000C49
S1135DD009DC03200B4600904246AA490220FFF743
S1135DE0E6F80020A4E0BDF81C20D007F9D415F88B
S1135DF004E05FEA8E7004D54246A34900F054F9EA
S1135E00EFE71EF0040018BF4FF0080C5FEACE76EF
S1135E1058BF4CF0040C5FEA0E764CBF4FF0020EF4
