S01D00006275696C642F64656275672F6F742D6E63702D6674642E733337A6
S21400000000100020510300004D0300004D030000C7
S214000010F13B00004D0300004D0300004D030000BF
S2140000204D0300004D0300004D0300004D0300008B
S2140000304D0300004D0300004D0300004D0300007B
S2140000404D030000D57504004D0300004D0300006D
S214000050AD6E04002D760400E1750400F975040009
S214000060D97504001D080000F50800004D030000C7
S214000070455700004D0300004D0300004D030000EF
S2140000804D0300004D030000190900004D03000059
S2140000904D0300004D0300004D0300004D0300001B
S2140000A04D0300004D0300004D0300004D0300000B
S2140000B031760400DD750400D14100006D76040041
S2140000C04D030000C15F04004D0300004D03000017
S2140000D04D0300004D0300004D0300004D030000DB
S2140000E04D0300004D0300004D0300004D030000CB
S2140000F04D0300004D0300004D0300004D030000BB
S2140001004D0300004D0300004D03000010B5054CE4
S214000110237833B9044B13B10448AFF300800123AE
S214000120237010BD441200200000000024F00400DC
S21400013008B5034B1BB103490348AFF3008008BD65
S214000140000000004812002024F00400A3F5803AC6
S214000150704700BF174B002B08BF134B9D46FFF799
S214000160F5FF00218B460F461348144A121A3FF03B
S21400017085FC0E4B002B00D098470D4B002B00D073
S21400018098470020002104000D000D48002802D0EA
S2140001900C48AFF300803FF0E9FB200029003FF059
S2140001A00DFA3FF0BDFB00BF000008000000000095
S2140001B0000000000010002044120020C8A100200B
S2140001C0000000000000000008B5042201230521FD
S2140001D0002002F08DFE002008BD08B5002318465A
S2140001E00422052102F084FE002008BD08B506485A
S2140001F0012101F01FFE3FF031F9FFF7E5FFBDE8F2
S214000200084000F009B800BF00350A000148012187
S21400021001F010BE00350A002DE9F0433B4D3C4F7F
S214000220DFF80091DFF800810FCD87B06C460FC471
S21400023095E8030084E80300364C3748012101F0B6
S214000240F9FD3846012101F0F5FD0125334B0293F7
S214000250694620468DF80E5003F082F92B4604229C
S2140002600621022002F044FE2A460023072102202F
S21400027002F03EFE2B4604220821022002F038FE41
S214000280042211462B46002002F032FE244BA367C0
S2140002900B23636710264FF4487003F0CFFFC9F8AE
S2140002A00C60142003F0CAFFC8F80C60232003F08B
S2140002B0C5FFC9F80C60B921204603F092F9002367
S2140002C01A46C8F80C600621022002F011FE002330
S2140002D01A460721022002F00BFE2B4600220821B8
S2140002E0022002F005FE002210462B46042102F0F2
S2140002F0FFFD204603F0CAF80021A1673846616773
S21400030001F098FD07B0BDE8F08300BF34A40400F8
S214000310005204000004014000350A0000127A0072
S2140003200B0B000B00A0004400A0004605490A681D
S2140003301318054883428CBF4FF0FF320B601046FF
S214000340704700BF0010002000000420FEE70000F9
S21400035008B500F069F8064B0649074A8B4201D3F8
S214000360FFF7F8FE52F8040B43F8040BF6E700BF5D
S21400037000100020441200202CF0040000487047B3
S21400038000F04902104AD2F8943003F00703023B0B
S214000390032B13D8DFE803F00C14020E0B4B1B687C
S2140003A0D2F80001C0F304200130B3FBF0F0704730
S2140003B0074BF4E7074B1B685B08F1E7054BEEE7D6
S2140003C04FF40043ECE700BF00400E401010002042
S2140003D0081000200C10002008B5FFF7D3FF054BCF
S2140003E0D3F80831C3F308230133B0FBF3F0024B14
S2140003F0186008BD00400E4004100020014B18682D
S214000400704700BF08100020054B1860054BD3F856
S214000410943003F00703022B01D1FFF7DDBF7047CE
S2140004200810002000400E40044B054A9A60D3F89E
S214000430882042F47002C3F88820704700ED00E080
S214000440000000004FF4004070474FF47A70704789
S214000450014B1868704700BF101000202DE9F04FC0
S2140004609A46554B85B01B78DDF83C909DF844B015
S214000470DDF8508006460F461546002B00F08B80B0
S214000480072A00F28A800E9B002B00F08680B9F1C6
S214000490000F00F08280129BB3F5006F7DDC012810
S2140004A002D1109B002B78D0444B03EB05131B7B2B
S2140004B0002B74D0424C1022002168463FF0DEFA32
S2140004C004EB45141022002F57D1394620463FF042
S2140004D0D5FA43F210036380BBF1000F03D1E37833
S2140004E043F00303E370364A0E9BCDF800A002EB00
S2140004F0451CCCE90193129B013BC3F30A009DF80F
S2140005004C30690103F003039B0643EA001E535870
S2140005102C4818404EEA0003012E535041D11323B5
S214000520CCF80C309CE80F000CF1100E8EE80F0093
S214000530DCF81C20109BCCF814306FF0030161F33C
S2140005409F02012FCCF81C2003D1CCF81890CCF8D1
S21400055004301A4A290102EB051342F801800027ED
S214000560159A5A6028469F605E732246694602F0D6
S21400057033FD384605B0BDE8F08F002120463FF039
S2140005807DFA4FF444736380BBF1000FABD1E37880
S21400059043F03003A6E70C48ECE70C48EAE70C48C3
S2140005A0E8E7B8F1000FD4D19CF8023068F30413E2
S2140005B08CF80230CDE700BFE01300206012002068
S2140005C0E01200200F80FFF3028000F0018000F0B0
S2140005D0078000F038B5124B1B780546DBB1E0B15A
S2140005E002F099F80F4A00231146147B54B92B6089
S2140005F01A0101EB031301258C501D7302F091F8CC
S214000600204638BD0133082B02F11002EDD102F06E
S21400061088F80548F5E70548F3E70548F1E700BF21
S214000620E013002060120020048000F0028000F03A
S214000630018000F013B5164B1868019000238DF862
S214000640043002F068F8134B1C7824B102F069F805
S214000650114802B010BD01221A7002F062F80F4B6A
S2140006601C731C7783F82C4083F83C4083F84C407E
S21400067083F85C4083F86C4083F87C4004230DEBE1
S21400068003008DF8073002F07DFC2046E1E700BF4E
S2140006904CA40400E0130020038000F06012002049
S2140006A010B588B00E9C07940D9C06949DF83040BB
S2140006B005940B9C04949DF8284003940024CDE9EF
S2140006C0013400920B46024621462046FFF7C6FE3E
S2140006D008B010BD10B588B00E9C07940D9C06940B
S2140006E09DF8304005940B9C04949DF82840039494
S2140006F00024CDE9013400920B4602460121204633
S214000700FFF7ACFE08B010BD0A4A127808B55AB119
S21400071007280BD8084A02EB00131B7B43B10021C5
S21400072002F026FC002008BD0448FCE70448FAE76F
S2140007300448F8E7E013002060120020028000F072
S214000740018000F0078000F00A4A127808B55AB116
S21400075007280BD8084A02EB00131B7B43B1012184
S21400076002F006FC002008BD0448FCE70448FAE74F
S2140007700448F8E7E013002060120020028000F032
S214000780018000F0078000F00D4B1B7893B107281E
S21400079012D889B10B4B03EB00131B7B73B10A4BCA
S2140007A01A6A012303FA00F010401ABF00200B70EB
S2140007B008707047054870470548704705487047F9
S2140007C0E01300206012002000200E40028000F09F
S2140007D0018000F0078000F00B4A127810B50C4636
S2140007E062B107280CD859B1084A02EB00131B7BEC
S2140007F043B102F043FC2060002010BD0448FCE733
S2140008000448FAE70448F8E7E013002060120020E6
S214000810028000F0018000F0078000F02DE9F84328
S214000820DFF86480D8F86070D8F86C301F4000D5C8
S214000830FEE7144CDFF8549001260025374217D007
S2140008402368C8F868609BB1A16862680131A1603E
S21400085028469847637B012B0AD148B909EB451314
S2140008601A7B60F341021A731A7F60F341021A770B
S2140008700135082D4FEA460604F11004DED1BDE826
S214000880F88300BF6012002000200E40E012002017
S21400089070B5094E0446012504B970BD94FAA4F05B
S2140008A0B0FA80F005FA00F324EA030456F8203084
S2140008B0002BF1D09847EFE7E4130020054B4FF4E8
S2140008C08022C3F880211A604FF48062C3F880212A
S2140008D01A60704700E100E038B504460D4601F0A6
S2140008E01AFF034B43F82450BDE8384001F019BF07
S2140008F0E4130020074BD3F82804D3F81C24104038
S21400090020F42A5020F02A004004400CC3F82404A7
S214000910FFF7BEBF00A00040074BD3F82804D3F86B
S2140009201C24104020F4AA4020F055000004000CBF
S214000930C3F82404FFF7ACBF00A00040024B1968C0
S214000940024B186841F04EBE18100020141000200C
S2140009507047000037B5920004460D46019202F03B
S214000960A1FC431C0BD060B9019A294620463FF0F3
S2140009704DF80028044808BF002003B030BD0348E7
S214000980FBE70348F9E700BF10E000F021E000F0C5
S21400099024E000F013B5044601A802F00DFD9DF812
S2140009A00630238040F201136380074BD3F8E4300F
S2140009B01B0E0A33012203F01F0302FA03F3002082
S2140009C0636002B010BD00BF0081E00F02F096BB6E
S2140009D008B502F083FB002008BD10B5044644EAC3
S2140009E0010313F00303084609D1934201D1002006
S2140009F010BD54F8231040F823100133F5E7920099
S214000A0021463FF013F8F2E710B5044602F0FCFB6F
S214000A10431C17D0C0B90D4BD3F8E4301B0E0A3375
S214000A2003F01F020123934023F0030320462344D0
S214000A30984201D1002010BD50F8042B0132F7D0A7
S214000A400348F8E70348F6E70348F4E70081E00FB9
S214000A500EE000F021E000F024E000F008B501F020
S214000A6053FE014B186008BDB81A0020014B1868E9
S214000A7001F04EBEB81A00200A460139014403F0C0
S214000A803DB8000038B141B1013AB2F5006F0448F4
S214000A9038BF00207047034870470148704700BFC2
S214000AA0037000F0027000F038B504460D4601F001
S214000AB032FEA3889BB223B92B6001F032FE0648B3
S214000AC038BD638814229BB202FB034408342C60B2
S214000AD001F027FE0020F3E70B7000F0F7B50446A0
S214000AE00191164601F017FEA388E28801999BB291
S214000AF09A42054606D80023336001F012FE1248DB
S214000B0003B0F0BD2088142780B207FB00403A46A9
S214000B1008303EF08BFF2388E2889BB207FB034336
S214000B200833336023889BB20133B3FBF2F102FB38
S214000B3011339BB22380A38801339BB22846A3803F
S214000B4001F0EFFD0020DBE70A7000F07FB501231F
S214000B5080F82C3090F83230ABB9426B0368013223
S214000B6042630C4A03920022049002924A68019261
S214000B70012200920A68016980681C33FFF7AAFD0B
S214000B8007B05DF804FB012BE7D0002380F82C307B
S214000B90F6E700BFB51B00007FB5012380F82D30B7
S214000BA090F832309BB902683432436B01334363AA
S214000BB00E4B03930023049002934B68019301238A
S214000BC000930B68C1684068FFF76AFD0BE0012BD5
S214000BD006D10268136843F4005342F8283BE4E762
S214000BE0002380F82D3007B05DF804FBFD0D0000F3
S214000BF090F83130022B0BD1437E30225343054A06
S214000C001A44437F03EBC2039B001868C0B27047C8
S214000C10002070471CA0100213B51D4A002352F88E
S214000C20044B617F81420ED00133042BF7D102B012
S214000C3010BD0028FBD19DF80730002BF7D0606868
S214000C40FFF762FDF3E794F83130022BEFD1204630
S214000C50FFF7CEFF637D2075022BE8D194F82E3087
S214000C6003F0FF02002BE2D160688DF807200DF13B
S214000C700701FFF789FD237D1BB194F82F30002B69
S214000C80D7D00023606884F82F30FFF75DFDCEE7ED
S214000C906C1B002090F8323053B903680422DA60E7
S214000CA01A699007FCD55A6F42F002025A677047DD
S214000CB0012B0CD103685A6C9107FCD404225A60AD
S214000CC09A689207FCD55A6D42F002025A65704740
S214000CD090F8323053B903680122DA601A69D007F7
S214000CE0FCD55A6F42F001025A677047012B0CD1AF
S214000CF003685A6C9107FCD401225A609A68D2079E
S214000D00FCD55A6D42F001025A65704790F83230B1
S214000D103BB903685A6F22F001025A670222DA6072
S214000D207047012B09D103685A6C9207FCD45A6DA0
S214000D3022F001025A6502225A6070471049114A91
S214000D400B7830B52BB9C2E90033C2E90233012370
S214000D500B700C4C0023214651F8045B854208D0EA
S214000D600133042BF8D1002154F8043B1BB942F898
S214000D702100002003E001310429F5D1024830BDEE
S214000D807C1B00206C1B0020027000F010B504468F
S214000D90FFF750FC0021201DFFF71CFC014620B980
S214000DA004F10800FFF716FC00B1014810BD00BFB3
S214000DB00E7000F038B504460D4601F0ACFCA38872
S214000DC09BB223B92B60BDE8384001F0AABC63880B
S214000DD014229BB202FB034308332B606388E2882D
S214000DE09BB20133B3FBF2F102FB11339BB263807B
S214000DF0A388013B9BB2A380E5E70000F7B5144645
S214000E00906A01A9FFF750FE636B013B6363194BC1
S214000E10984220D0019B00261E619E6001F07BFC5C
S214000E20019AD768054627B1D2E900233146204605
S214000E30B847A06A01A9FFF7BDFFA06A83889BB2E6
S214000E4063B101A9FFF730FE01992046FFF7A4FE23
S214000E50284601F066FC012003B0F0BD84F82D3072
S214000E6094F83230012B01BF2268136823F4005334
S214000E701360EDE70B7000F01FB504460B46C07D0F
S214000E80E17E002B33D00123042202F031F8012347
S214000E90217F207E022202F02BF894F83130022BBC
S214000EA016D1617F607E0023012202F021F8002324
S214000EB00422A17FA07E02F01BF80123627F01932B
S214000EC0607E0093114601F0CDFF002004B010BDF7
S214000ED0032BFAD100230122617F607E02F008F81E
S214000EE000230422A17FA07E02F002F8EDE71A4656
S214000EF0039301F0FDFF039B217F207E1A4601F03D
S214000F00F7FF94F83120039B022A0FD11A46617F1F
S214000F10607E01F0EDFF039BA17FA07E1A4601F0E4
S214000F20E7FF039B0193627F0123C9E7032ACCD125
S214000F301A46617F607E039301F0DAFF039B1A4630
S214000F40D0E790F8323013B9036818697047012B60
S214000F501CD103689B6803F00200DA0748BF40F024
S214000F600100590748BF40F008001A0748BF40F084
S214000F702000D90648BF40F040009A0648BF40F01F
S214000F8080005B0603D540F4005070470020704791
S214000F902DE9F3410546406A84889846A4B20023AA
S214000FA0CDE900330E4617463CB16946FFF77CFD97
S214000FB001A90446A868FFF70FFC009B73B16CB943
S214000FC05A6801991B68521A3A60C8F800103360D4
S214000FD02846FFF7B6FF02B0BDE8F0810023C8F848
S214000FE000303B60F3E72DE9F04104469046FFF7FA
S214000FF049FD0F46054600285CD1092001F0A2FBFA
S2140010000646A26A93889BB213B194F82E3033B387
S21400101094F8323043BB23681E6906F002061EB9F8
S2140010202046FFF737FE0026012384F8303094F878
S21400103032301BBBB844474520681AD103699A066C
S214001040FCD5002E36D194F8323033BB23685A6F65
S21400105022F002025A670822DA6035462AE0002E9D
S214001060D0D0FFF7DBFBCCE7012BD9D123689E68F5
S214001070D3E717F8011B02F0BEFADCE7012BE0D13C
S214001080B844B845206803D183681B07FCD5D8E769
S21400109017F8011B02F017F8F3E7012BDDD12368E0
S2140010A05D6C15F00205FBD15A6D22F002025A65FE
S2140010B008225A602846BDE8F081000010B50446B4
S2140010C080B190F82E302BB9FFF792FD10B960680A
S2140010D0FFF71AFB94F82E300133DBB284F82E307B
S2140010E0002010BD0048FCE7027000F010B5044672
S2140010F0A0B190F82E309BB190F82E30012B05D180
S214001100FFF776FD10B96068FFF71EFB94F82E30E7
S214001110013BDBB284F82E30002010BD0148FCE70E
S2140011200148FAE7027000F0057000F037B590F855
S2140011303150022D044618D1A37FA17E407D0122A6
S2140011409A4030235943134B0B4410B903F1806384
S21400115003E0012805D103F1C0631A60002003B044
S21400116030BD217D0029F6D1F0E7012DF6D1037DB3
S21400117073B911238DF80730FFF7A0FF2A460DF14B
S21400118007012046FFF72FFF2046FFF7AFFFE5E7F2
S2140011901323EFE70CA00040F0B5094F04460D46B8
S2140011A00FCF89B001AE0FC697E8070086E80700A4
S2140011B0002C00F0CC843DB9024E304609B0F0BD9C
S2140011C074A40400037000F03822002120463EF08C
S2140011D055FC002363632046FFF7B0FD0646002853
S2140011E0EBD12B7C84F831302B68B94A23609342CC
S2140011F084F8320040F08D81B64B2362B64BE36034
S2140012004FF440232361D5E9062300266262168048
S2140012105680968084F82C60A3621E805E809E8036
S2140012206B6803936B8984F82D6084F82F60ADF8A3
S2140012301430AB89ADF81230AB7BA8488DF810306F
S2140012400121EB7B8DF8163005278DF8117000F024
S214001250F1FDA348012100F0EDFD206A012100F018
S214001260E9FD28688DF8046001A902F041F9D5F877
S21400127000C06B7ADCF878002A7A20F4F85020F068
S2140012801F00184340EA02200321CCF878002068AB
S214001290CCF87410DFF838C2604540F05981BA4285
S2140012A040F27181901F042840F26F81A2F10B007A
S2140012B0B84240F26C81A2F11100062808D9A2F1CA
S2140012C01801062940F265811F2A14BFFF213946FE
S2140012D0042BE17540F25F81591F042940F25D81BD
S2140012E0A3F10A01052940F25A81A3F1100106294B
S2140012F040F25781A3F11701072940F25481B3F158
S2140013001F0118BF4FF0FF31C9B22176002A58D00E
S214001310012A56D0022A54D0032A52D0042A50D08A
S214001320052A4ED0062A00F04881072A00F0478199
S214001330082A00F04681092A00F045810A2A00F0B2
S21400134044810B2A00F04F810C2A00F02E810D2AD2
S21400135000F02D810E2A00F02C810F2A00F02B8140
S214001360102A00F02A81112A00F02381122A00F0A8
S2140013702281132A00F02181142A00F02081152AE8
S21400138000F01F81162A00F01E81172A00F01D812A
S214001390182A00F01C81192A00F01B811A2A00F076
S2140013A01A811B2A00F019811C2A00F018811D2AB8
S2140013B000F017811E2A00F016811F2A0CBF072294
S2140013C0FF22E276002B00F0A983012B00F0A88311
S2140013D0022B00F09183032B00F09083042B00F087
S2140013E08F83052B00F08E83062B00F08D83072B52
S2140013F000F08C83082B00F08B83092B00F08A8387
S2140014000A2B00F06F830B2B00F06E830C2B00F082
S2140014106D830D2B00F06C830E2B00F06B830F2B6F
S21400142000F07083102B00F06383112B00F06283B2
S214001430122B00F06783132B00F06683142B00F04A
S2140014406583152B00F06483162B00F06383172B3F
S21400145000F06283182B00F06183192B00F0608384
S2140014601A2B00F049831B2B00F048831C2B00F03E
S21400147047831D2B00F036831E2B00F035831F3B61
S21400148018BF4FF0FF33DBB223776B7C6376AB7C01
S2140014906377EB7CA3762B7DA37701212046FFF7AD
S2140014A0EBFC064600287FF488AE01F034F92B7C6E
S2140014B0032B074640F03A832B682A8CDA675A6E6D
S2140014C042F004025A665A6F42F030025A6709E048
S2140014D0000001400042040001000C0040410500ED
S2140014E000350A0028684FF0FF3383642B7C032BFB
S2140014F00CBF0521042101F0C1FF2B684FF44062A8
S214001500DA602046FFF742FC0646384601F009F945
S21400151053E6364A934206D1354B2362354BE36099
S2140015204FF450236EE6344A934206D1334B23627F
S214001530334BE3604FF4602364E6324A93427FF411
S2140015403BAE314B2362314BE3604FF4702359E6D8
S214001550DFF898C060455BD1052A14D9901F04288F
S21400156013D9A2F10B00052811D9A2F11100062803
S2140015707FF6AEAEA2F1180106290AD91F2A14BFBB
S214001580FF210521A4E63146A2E60121A0E60221BC
S2140015909EE639469CE60021B7E60121B5E6022123
S2140015A0B3E60321B1E60521AFE6072209E70822E4
S2140015B007E7092205E70A2203E70B2201E70C22C8
S2140015C0FFE60D22FDE60E22FBE60F22F9E60022DC
S2140015D0F7E60122F5E60222F3E60322F1E604220C
S2140015E0EFE60522EDE60622EBE600BF000401402A
S2140015F00052040001000D000008014000620400D3
S21400160001000E00000C01400072040001000F00F3
S214001610DFF814C5604540F03181042A40F2FA80B4
S214001620511F032940F2F880A2F10901042940F273
S214001630F580A2F10E010E2940F2F280A2F11D0102
S214001640012940F2EF801F2A14BFFF210A21032B35
S214001650E17540F2E980191F032940F2E780A3F103
S2140016600801042940F2E480A3F10D010E2940F29E
S214001670E180A3F11C01022940F2DE80B3F11F01D4
S21400168018BF4FF0FF31C9B22176002A00F0DC8087
S214001690012A00F0DB80022A00F0DA80032A00F03C
S2140016A0D980042A00F0D880052A00F0E380062AB4
S2140016B000F0E280072A00F0C180082A00F0C0800F
S2140016C0092A00F0C3800A2A00F0C2800B2A00F024
S2140016D0C1800C2A00F0C0800D2A00F0BF800E2AC0
S2140016E000F0C8800F2A00F0C780102A00F0A880FB
S2140016F0112A00F0A780122A00F0A680132A00F014
S214001700A580142A00F0A480152A00F0A380162ACB
S21400171000F0A280172A00F0A180182A00F0A0800E
S214001720192A00F09F801A2A00F09E801B2A00F0DB
S2140017309D801C2A00F09C801D2A00F09B801E2A9B
S21400174000F09A801F2A0CBF0222FF22E276002BAE
S21400175000F0C881012B00F0C781022B00F0C68183
S214001760032B00F0C581042B00F0D681052B00F07A
S214001770D581062B00F0D481072B00F0BD81082B05
S21400178000F0B081092B00F0AF810A2B00F0AE818B
S2140017900B2B00F0AD810C2B00F0AC810D2B00F074
S2140017A0BB810E2B00F0BA810F2B00F0A581102B09
S2140017B000F0A481112B00F0A381122B00F092817F
S2140017C0132B00F09181142B00F09081152B00F064
S2140017D08F81162B00F08E81172B00F09381182B2B
S2140017E000F09281192B00F091811A2B00F0908165
S2140017F01B2B00F08F811C2B00F08E811D2B00F020
S2140018008D811E2B00F08C811F2B08BF052318BF6F
S214001810FF2339E631461AE7082118E7012116E7C3
S214001820394614E70A2112E700212DE708212BE7A5
S214001830012129E7052127E70A2125E7022285E776
S214001840032283E7042281E705227FE706227DE75D
S21400185007227BE7082279E7092277E70A2275E75D
S2140018600B2273E70C2271E70D226FE70E226DE75D
S2140018700F226BE7002269E7012267E7A94EB04214
S2140018807FF49AAC072A21D9A2F10801012940F277
S214001890EF80A2F10A01052940F2EC80A2F11001C6
S2140018A0012940F2E980A2F11201052940F2E68002
S2140018B0A2F11801042940F2E380A2F11D010129DA
S2140018C040F2E0801F2A14BFFF210A21062BE17593
S2140018D040F2DA80D91F012940F2D880A3F109012D
S2140018E0052940F2D580A3F10F01012940F2D280EC
S2140018F0A3F11101052940F2CF80A3F117010429B5
S21400190040F2CC80A3F11C01022940F2C9801F2BB3
S21400191014BFFF2103212176002A00F0C780012A88
S21400192000F0C680022A00F0C580032A00F0CC80B2
S214001930042A00F0CB80052A00F0CA80062A00F0B0
S214001940C980072A00F0C880082A00F0B580092A56
S21400195000F0B4800A2A00F0A5800B2A00F0A480CC
S2140019600C2A00F0A3800D2A00F0A2800E2A00F0B8
S214001970A1800F2A00F0A880102A00F0AB80112A60
S21400198000F0AA80122A00F0A980132A00F0A8808E
S214001990142A00F09180152A00F09080162A00F094
S2140019A08F80172A00F08E80182A00F08D80192A62
S2140019B000F08C801A2A00F08B801B2A00F08A80A8
S2140019C01C2A00F089801D2A00F088801E2A00F05C
S2140019D087801F2A0CBF0222FF22E276002B00F02F
S2140019E08780012B00F08680022B00F08B80032B73
S2140019F000F08A80042B00F08980052B00F0888098
S214001A00062B00F08780072B00F08A80082B73D007
S214001A10092B67D00A2B67D00B2B67D00C2B67D00F
S214001A200D2B67D00E2B6DD00F2B71D0102B71D0D5
S214001A30112B71D0122B71D0132B71D0142B5BD0BD
S214001A40152B5BD0162B5BD0172B5BD0182B5BD0DF
S214001A50192B5BD01A2B5BD01B2B5BD01C2B5BD0BF
S214001A601D2B5BD01E2B5BD01F2B08BF0823CEE69A
S214001A7008212BE7012129E7092127E7022125E78D
S214001A80052123E70A2121E7032144E7082142E74D
S214001A90012140E709213EE702213CE705213AE71C
S214001AA00A2138E7062298E7072296E7082294E7F5
S214001AB0092292E70A2290E702228EE703228CE7A9
S214001AC004228AE7052288E70B2286E70C2284E7B1
S214001AD00D2282E70E2280E70F227EE700227CE7B7
S214001AE001227AE70623CFE40723CDE40823CBE4DC
S214001AF00923C9E40A23C7E40323C5E40423C3E493
S214001B000523C1E40B23BFE40C23BDE40D23BBE493
S214001B100E23B9E40F23B7E40023B5E40123B3E4AE
S214001B200223B1E4000C014000080140022B7FF4C0
S214001B30D9AC607F0749FEF7CFFEFEF7BFFE4FF435
S214001B400073A382A6752046FFF7F0FACAE4024E99
S214001B50FFF733BB190C0000027000F0F0B587B039
S214001B6005461646FEF78EFF0446F0B9CDE9011687
S214001B700493686A0E4B03966A4601A90593FEF71E
S214001B80ADFF044688B995F82C3073B92846FFF7A0
S214001B909FF800992846FEF7D9FF95F83130032BB9
S214001BA003D02C752846FFF7C1FA204607B0F0BDD3
S214001BB0017000F073B51446506A01A9FEF774FF71
S214001BC0636B013B6363344B98422FD094F832002A
S214001BD0019B002836D12268116C11F4007128D0C0
S214001BE02E49196198604FF40073936400F093FDDA
S214001BF00199CD68064635B14A688B682046D31AE7
S214001C000A680969A847606A01A9FFF7D3F8606AFD
S214001C108588ADB2002D2FD001A9FEF745FF0199AA
S214001C202046FEF793FF304600F07BFD012002B011
S214001C3070BD106CC5051BD51948186199604FF426
S214001C408073D2E7012813D12268D16A11F080018F
S214001C5006D0124919610021996080235363C5E7B5
S214001C60D06A400604D50E48186199604023F5E70F
S214001C7000221A619A60B9E7012323752046FFF710
S214001C8055FA94F8313084F82C50032BCBD02046EC
S214001C90FFF73CF8C7E700BF0B7000F00D7000F0D0
S214001CA00C7000F0F0B587B004461646FEF7EAFE64
S214001CB0054658BB0493194B059394F832300396A7
S214001CC0CDE901162BBB23681B6903F0020313B989
S214001CD02046FEF7DFFFA06A6A4601A9FEF7FEFE71
S214001CE0054698B994F82D3083B900F014FDA36A20
S214001CF09B889BB2064633B100992046FEF74CFF00
S214001D00012384F83030304600F00BFD284607B03B
S214001D10F0BD012BDCD123689B68D6E7017000F08C
S214001D200C4B984210D90C4B984210D90222012332
S214001D300A490B640A49D1F8003123F0807343EA5C
S214001D400263C1F80031704700221346F0E7012213
S214001D50FBE700BF0048E8010090D0030000C8433E
S214001D6000400E400F4B5B680F4B30B500221C4600
S214001D70C9B21D798D4202D11D6885420DD201324D
S214001D80052A03F10803F4D1032206494B6823F021
S214001D90407343EA02634B6030BD04EBC2025279E3
S214001DA0F3E700BF00000E40CCA4040038B5074C93
S214001DB041F67133256C2364FEF7E0FA0021FFF745
S214001DC0D1FF0DB10023236438BD00BF00000E40D4
S214001DD0044BDB6B5B0604D4034AD2F8C830002BF6
S214001DE0FBD1704700300E400000C64308B5FFF731
S214001DF0EFFF024B5868C0F3014008BD00300E40AC
S214001E00044BD3F84421D20703D4D3F84021104220
S214001E10FBD1704700400E4038B5054C41F6713393
S214001E20256C2364FFF79EFF0DB10023236438BDA5
S214001E3000000E4038B5C0F30323013B092B16D82B
S214001E40DFE803F02616151505191C151F23124C7E
S214001E500023C0F3043513B11846FFF7D1FF04F191
S214001E60424404F5801405EBC404A400216038BD88
S214001E700A4C0023EDE70A4C0123EAE7094C10233D
S214001E80E7E7094C4FF48033E3E7084C0023E0E72C
S214001E90074C0023DDE700BFB0400E40C0400E40B8
S214001EA0E0400E40E8400E40F0400E4050410E40EC
S214001EB000400E40C0F30313013B092B2AD8DFE88D
S214001EC003F0050B0F1929291F23374B274BD3F88F
S214001ED00001C0F304207047244BD3F81401F8E740
S214001EE0224BD3F80001C0F30060431C0120984049
S214001EF0013870471D4BD3F80C01C0F3082070471B
S214001F001A4BD3F80801F8E7194B984204D0194B3E
S214001F10984207D000207047144BD3F8203103F0C6
S214001F200F03E3E7114BD3F82031C3F30113DDE7CA
S214001F30114B98420CD003F5B01303F5805398422A
S214001F40E8D10A4BD3F82801C0F30120031DCDE7E2
S214001F50064BD3F82831E8E7084B9842DAD1034B12
S214001F60D3F8300100F00300704700BF00400E4079
S214001F708006160080162E0090171A00A00914007E
S214001F8008B5FFF797FF013008BD000000F00F000E
S214001F900138072844D8DFE800F0040F1943232D42
S214001FA04335244BD3F8943003F00703023B052B4C
S214001FB038D8214AD05C70471E4BD3F8803003F0E7
S214001FC00703013B032B2FD81C4AF3E7194BD3F822
S214001FD0843003F00703013B032B25D8184AE9E7B2
S214001FE0144BD3F8883003F00703013B032B1BD8B0
S214001FF0144ADFE70F4B1B6F13F0010F0CBF0720CF
S214002000092070470B4BD3F85C3103F03003202BCC
S2140020100CD0302B0CD0102B14BF0120072070479B
S2140020200020704705207047012070470420704745
S2140020300820704700400E40A0A40400A6A4040098
S214002040AAA40400A6A4040008B50146FFF79EFF54
S2140020501A4B994211D01A4B994212D0194B9942F9
S21400206004D1194BD3F8800000F00700013803288C
S21400207021D8DFE800F00A0E1612134BD3F88400BE
S214002080F2E7114BD3F88800EEE7BDE80840FEF70C
S214002090D9B9BDE80840FEF7DBB9BDE80840FEF751
S2140020A0D4B9FEF76FF9084BD3F80031C3F30063D9
S2140020B00133D84008BD0020FCE700BF0300200025
S2140020C00500240002001E0000400E4000F47813B5
S2140020D0B3F5B01F10B5044674D025D8B3F5402F1D
S2140020E05ED010D8B3F5802F49D005D83BB1B3F5F4
S2140020F0003F4FD0002010BDB3F5202FFAD1BDE829
S2140021001040FEF73FB9B3F5801F00F08480B3F5AA
S214002110A01F4DD0B3F5602FECD14A48FFF736FF2D
S214002120072878D00928E9E7B3F5381F53D013D825
S214002130B3F5001F58D00AD8B3F5D01F56D0B3F564
S214002140F01FD7D14048BDE81040FFF77DBFB3F57C
S214002150101FCFD13D48F6E7B3F5481F4DD0B3F575
S214002160781F65D0B3F5401FC4D13948FFF76CFF20
S214002170384BD3F82831C3F30123043320E0FEF7AD
S21400218001F9344BD3F80C31C3F308230133B0FB09
S214002190F3F0B0E7FEF7F6F82E4BD3F80831F3E786
S2140021A0FEF7F0F82B4BD3F81431C3F30423EDE716
S2140021B02648FFF749FF274BD3F8303103F00303D7
S2140021C0D84098E72048FFF73FFF224BD3F820314E
S2140021D003F00F03F4E71C48FFF736FF1D4BD3F858
S2140021E02031C3F30113EBE71948ACE71848FFF7B3
S2140021F02BFF184BD3F82831F3E71748FFF7C6FE36
S214002200072808D0082809D004287FF473AFBDE853
S2140022101040FEF7F3B8114B18686CE7FEF7B2F8FB
S2140022200C4BD3F80031C3F3042303FB000062E732
S214002230FEF7A8F801462046FFF7A2FEB1FBF0F035
S21400224059E700BF06000E0002001E00050024002D
S2140022500300200000400E40B80032003810002076
S214002260014B1880704700BF3C100020013810B5A5
S214002270032812D8DFE800F0022E1220214AC1F30C
S2140022800801D2F86838002BFBD11F4A136A23F4E2
S214002290FF7323F001031943116210BD194A01F0C0
S2140022A07F01D2F86038002BFBD1174A136923F060
S2140022B07F0319431161F0E7124A01F07F01D2F85B
S2140022C06438002BFBD1104A936923F07F0319432F
S2140022D09161E2E70C4AD2F89030536A23F030035B
S2140022E043F010035362146B084BC1F3C310033062
S2140022F00F2803EA040328BF0F20194341EA0071A0
S2140023001163CAE70020C84300400E4000F8FF0FE4
S214002310104A536A13F0300F18D0202913D03029F2
S21400232014D000290C4B08BF4FF44003D2F890108D
S21400233033EA0101FAD15B0246BFD2F8A000C0F32F
S2140023408020012070474FF40003EFE74FF440036E
S214002350ECE700BF00400E40FF33E10702280AD139
S21400236029B1064B4FF48060C3F8A800596612B135
S2140023700220FFF7CDBF0120704700BF00400E408F
S2140023800428F8B545D8314B314F13F800C0314B0F
S2140023901B5C002943D0304C022834F8106039D139
S2140023A07C6A14F0300F35D12C4CE46B7C6AE40761
S2140023B005D57D6A25F0300545F010057D62244C74
S2140023C02666274C23449B001D68002DFCD002B3D4
S2140023D06444A4002368002BFCD0022819D1C1B1A4
S2140023E01B4D696A11F0010116D001222021FFF76A
S2140023F0B5FFD5F89C70012200210220FFF7C0FF30
S214002400C7F30A010220FFF731FF2E662368002B70
S214002410FCD0F8BD0021D2E7FFF77AFFE9E71149C3
S21400242031F810103966012101FA03F3D7F890103D
S2140024301942FBD1002AECD00124054A04FA0CF418
S214002440D2F890302342FBD1E3E700BFAEA40400ED
S21400245000400E40B3A40400B8A4040000300E40B0
S2140024608004F210C2A40400112838B50C4615D01A
S21400247000F00F000138072869D8DFE800F02B04C9
S21400248064686283688E5E4D013C092C5FD8DFE885
S21400249004F0775F665E5E6D5E5E5E5C042912D158
S2140024A0FDF7ACFF0546A8B10021284600F046FA25
S2140024B0023C0A2C4BD8DFE804F03F3C30364A4A50
S2140024C04A4A4A0F4200052904D14E4B1D684E4B1E
S2140024D09D42E9D80025EBE703200524012211469A
S2140024E0FFF74EFFFFF762FC0DB1FFF771FC474B9D
S2140024F05C67FDF771FF0446FDF744FFFFF710FC2D
S214002500FFF774FC01462046FFF786FCFDB9284617
S2140025100121BDE8384000F011BA3D48FFF700FC45
S21400252002200446DAE73A48FFF7FAFB01240320C4
S214002530D4E701200324D1E700200424CEE70724B3
S214002540D0E7344DA0E7344D9EE704232B6038BD1A
S214002550012211460020FFF713FF0223F6E70122AF
S21400256011461046FFF70CFF0123EFE7FDF70AFFC1
S214002570FFF7D6FB294B0122C3F808260323E5E71D
S2140025800023E3E7072904D00929E0D11F4B0122E5
S21400259001E01E4B00221A67D9E74C1E072CD6D83E
S2140025A001A353F824F000BFFB2500004F250000D0
S2140025B04F250000ED2500004F2500004F250000A8
S2140025C0DF250000C925000003221049D1F85C3140
S2140025D023F0300343EA0213C1F85C31B7E7012267
S2140025E011460420FFF7CCFE0122EEE70122114639
S2140025F00220FFF7C5FE0222E7E70022E5E700BF5C
S21400260080400E400C100020002D310100400E408E
S2140026100148E80188400E4084400E400010C84340
S21400262010B504461120FFF7B1FC0021012202205C
S214002630FFF7A6FE184A217C536A23F001030229FD
S21400264008BF43F001035362144B2178C3F8A0146B
S214002650637AA18843EAC123D362136BA07A217AF6
S21400266003F07F630343E08843EAC02343EAC113D1
S21400267003310F2928BF0F2143EA01731363A37B9D
S214002680617B1B0143EA0133E17B0B43217B43EA79
S2140026900143536310BD00BF00400E400000C84316
S2140026A038B50E4D01461120FFF770FCAA6B0C4B97
S2140026B00C7813401C434B7844EAC3248B7844EAD6
S2140026C00364CB7844EA0324AB6BA34205D0002115
S2140026D001220846FFF754FEAC6338BD00400E40AA
S2140026E080E4FFF80028A7BF00F1604000F56140D5
S2140026F000F00F00034BACBF90F80003185C4009D5
S214002700704700BF14ED00E0EFF3108072B670471C
S21400271000B962B67047EFF31180602383F3118827
S214002720704780F3118870474209054B53F82230F2
S21400273000F01F0023FA00F0C04300F001007047CD
S21400274000E100E008B50146EFF31083DB0702D591
S2140027500122104608BDFFF7E7FF02460028F7D122
S2140027600846FFF7BFFF0146EFF3118313B1B0EB46
S214002770531FEDD2074B5B68C3F30803002BE8D06A
S214002780103B58B2FFF7AEFF88428CBF00220122F2
S214002790DFE700BF00ED00E0436823F01F030E29CB
S2140027A00BD8DFE801F008080808080B0B0B080830
S2140027B008080B0B0B00194341607047194341F0A2
S2140027C01001F9E770B5066A056A046A036A102AFA
S2140027D0C1E90065C1E9024307D1056A046A026AD5
S2140027E0036AC1E90454C1E9062370BD30B58B07FE
S2140027F089B00C4615460BD06946FFF7E3FF082D57
S2140028000CBF1022202220463DF010F909B030BD42
S2140028100091009909B0BDE83040FFF7D3BF000033
S214002820034BD86B80F04000C0F38010704700BFA9
S21400283000300E4042EA0323B3F5007F39D016D8A5
S214002840B3F5807F31D007D85BB3012B1ED00022B2
S214002850134603600A60704740F201129342F6D1B5
S214002860184BD3F824321A0EC3F30743F1E7B3F537
S214002870407F22D040F2013293420ED040F2012235
S2140028809342E4D10F4BD3F8283202E00D4BD3F835
S2140028902432C3F30722DBB2DBE70A4BD3F8283235
S2140028A0E1E7084BD3F81C32F3E7064BD3F81C32AB
S2140028B0D9E7044BD3F82032EBE7024BD3F82032AB
S2140028C0D1E700BF0081E00F08B5FFF7A9FF20B1F0
S2140028D0024AD2F8C830002BFBD108BD0000C64320
S2140028E070B504460E46FFF79BFF10B3FFF7ECFFEC
S2140028F0104B5B68C3F301439C421AD00E4BD3F8CF
S2140029000031FDF73FFD022C054602D12146FFF7B8
S21400291083FAC4F1020210239340064A13610EB1F3
S214002920FFF7D2FF2CB921462846BDE87040FFF7D6
S21400293073BA70BD00300E4000400E4013B502461C
S214002940FFF76EFFC8B152B90D4B0191D3F80041A5
S214002950FDF718FDC4F30422019902FB0002094B9F
S2140029601B7843B1084B9A4205D8022002B0BDE856
S2140029701040FFF7B5BF0020F8E702B010BD00BF5B
S21400298000400E40841B0020002D31010378134ABE
S214002990002B437870B514BF04260026002B8378DE
S2140029A0946914BF02250025002B037924F03F0408
S2140029B043EA0403C47814BF08210021012C08BF91
S2140029C043F0010333432B430B4393611368417970
S2140029D023F4403343EA0143136070BD00300E40D9
S2140029E0224B4AF6E85210B5596B5A639A6FD207D3
S2140029F0FCD41B6C13F003031EBF1D4A0124C2F84F
S214002A00B44A834204D110B9194BC3F8B40A10BDB6
S214002A10032B00D09BB9431E012B10D8134A4FF44A
S214002A200023D362936FDB07FCD4136C23F00303FD
S214002A3043F0010313640D4A536A1C03FCD50B4B89
S214002A409A6FD207FCD41A6C22F0030202431A646F
S214002A509A6F12F00102FBD10038054C18BF012016
S214002A600129C4F8B40A08BF5A63D0E700300E4004
S214002A700000C6432DE9F04F002389B0CDE90233AC
S214002A80CDE90433CDE90633A0F5E163B3F5966FDF
S214002A9004460D46914604D90025284609B0BDE8EF
S214002AA0F08FB0F5E16F674B8CBF0122002240F03B
S214002AB0BC80D3F81832C3F30721DBB20791049326
S214002AC04FF4167A4FF4966BDFF87C81D8F84C708A
S214002AD00192C7F301773B4605A902A8FFF7AAFEB5
S214002AE0D8F8EC60019AC6F30126334606A903A877
S214002AF0FFF7A0FE049B0799A4EB0B0EA1EB030CBB
S214002B000EFB0CFCBCFBFAF213EB020C2CBF0123F1
S214002B1000236145C0D3002BBED1069A0398131A32
S214002B200EFB03F3B3FBFAF3C0182CBF01230023FC
S214002B308242B1D3002BAFD1059B02995A1A0EFBE5
S214002B4002FEBEFBFAFA11EB0A012CBF4FF0010E93
S214002B504FF0000E8B429FD3BEF1000F9CD1B9F10F
S214002B60000F10D0D8F85C2022F4FE4222F00202B9
S214002B70B4F5E16F42EA0C2218BF4FF0020E42EAAB
S214002B800E02C8F85C20002D4DD02E4B022FD3F835
S214002B9030223ED0032F3FD0012F14BFD2B2C2F353
S214002BA00722120312F4702F7FF476AF264FFB6EC7
S214002BB023F470431A43234BFA66022ED3F83022CE
S214002BC02CD0032E2DD0012E14BFD2B2C2F3072272
S214002BD0120312F4702F7FF45FAF1B4ED6F8EC3062
S214002BE023F470431A43C6F8EC20736E814238BF54
S214002BF0014623F4FF73E72923F0010328BFE721EA
S214002C00B4F5E16F18BF43F0010343EA410373666E
S214002C1043E7C2F30742C4E7120EC2E7C2F3074215
S214002C20D6E7120ED4E7012537E7D3F81832190E87
S214002C30C3F30743079104934FF4966A4FF4E16B8E
S214002C4042E700BF0081E00F00300E40304B1A6FA5
S214002C50D96C11F0010F02F0060244D0002A42D0CF
S214002C60132851D9143813288CBF10230823284959
S214002C70013BCA6C180322F47F4240EA0323134345
S214002C80CB64244BCA6C1B88C2F303222833013260
S214002C9002EB820003EB5303B3FBF0F3C86C013B7B
S214002CA0072B28BF072320F0EE6040EA036343F4B7
S214002CB08013CB64184BB3F90030002B12DB03F102
S214002CC02800C0F34E030344500800EB4202B3FB57
S214002CD0F2F20B6D072A28BF072223F0700343EA9F
S214002CE002120A657047D96C01F00101114304D144
S214002CF0092809D90A380928B6E7DB6C13F001035E
S214002D00B5D01AB92728AFE70423B0E70023AEE70B
S214002D1000300E40801B0020821B0020064A074B16
S214002D20D3F88039136F23F007031843044B10675A
S214002D301888FFF78BBF00BF00300E400000C64368
S214002D407E1B0020374A38B502239363936B03F04B
S214002D500F03022B044602D00025284638BDE38820
S214002D608088B4F90C504A2B4FD9B3F5FA7F4ED36E
S214002D7040F6C3118B4294BF4FF000514FF04051C4
S214002D80D36C23F0405323F00103002DA8BF43F07B
S214002D9001030B43D364D2F8EC3043F44073C2F81B
S214002DA0EC30214B1880D36E43F08073D3661F4BF4
S214002DB0D3F8800900B10420FFF7B0FF1C4B21892F
S214002DC019801C4BB4F90C20A0881A80FFF73EFF30
S214002DD0A37BFBB1012B21D0012260881146FFF7AF
S214002DE049FE05460028B7D00E4AD36B43F48063ED
S214002DF0D3636078FFF7F4FDA37AA3F12002534271
S214002E0053410A4AC2F89437A7E70021B8E74FF0C3
S214002E108051B5E7034B084A9A65DDE7014B074A40
S214002E20FAE700BF00300E407E1B00200000C643BD
S214002E30801B0020821B002077402057372110B7C8
S214002E4070B505460E461446FFF75EFC296881EA13
S214002E50040202EA06044C402C60BDE87040FFF70E
S214002E6057BC0000072AF8B501F0030614461F46B3
S214002E704FF00F0120D8950000FA05F2A940164839
S214002E80FFF7DEFF0321154806FA05F2A940FFF713
S214002E90D7FF13499DF818302144890001220F609E
S214002EA0C1F880300F4B02FA04F4C3F824449DF8AE
S214002EB01C30C1F80033F8BDA2F10805AD0000FAD9
S214002EC005F2A9400848FFF7BBFF0321074806FAAA
S214002ED005F2A940DBE700BF00A4004008A40040BC
S214002EE08020851000A0004004A400400CA40040F0
S214002EF0F0B54AB11D4C3026012546438D4034447A
S214002F000BB304F1C06425603024444304F18044CC
S214002F10072904F5204419D865688E000F27B740A6
S214002F2025EA070502FA06F63543656052B901221E
S214002F3002FA01F1302250430C4A02449BB102F1DE
S214002F40C0621160F0BD04F18064DCE7A1F1080501
S214002F50A668AD000F27AF4026EA070602FA05F579
S214002F603543A560E2E702F18062EAE70CA0004084
S214002F70034B03449B0081F001011960704700BFBA
S214002F80A001F11010B5044601214FF4AA40FEF747
S214002F9051FFB4F8013022785BBA9BB243EA026371
S214002FA00B4A136000231362D36253634FF000434F
S214002FB0D3664FF0FF339366064A4FF40071C2F8AB
S214002FC08011E3785B01DBB282F80933116010BD33
S214002FD000200E4000E100E02DE9F041C3B2254E8E
S214002FE091F80AC00F7B01250C469D404FF0300833
S214002FF0CB7A497B08FB00604FEA035E2368C0F883
S21400300080304EEA0C4343EA475322F00302C0F8EE
S2140030108810C0F88430C0F89820B566FFF77BFBB0
S214003020F36E2B43F366237A13B1736B2B437363F0
S214003030637A13B1F36A2B43F3620E4B1A68237953
S21400304023B1DB431B0263F47F431A4063790BB161
S21400305042EA0322A3790BB122EA0302E3791A4378
S214003060044B1A60044A9562DD63BDE8F041FFF741
S21400307058BB00BF00200E4000200E44F8B5C3B277
S214003080012504469D40FFF746FB0A4B30221E6E84
S2140030909F6A02FB0433D3F88C40FFF742FB3D42A5
S2140030A006D1C4F30A1008B9354200D10130F8BD84
S2140030B00020FCE700200E40036CDB0702D4436CC4
S2140030C00B42FCD1704708B50A468368DB06FCD580
S2140030D04021FFF7F1FF826208BD0000054B5A68E9
S2140030E05B68054B41F671321A649A6822F0010259
S2140030F09A60704700300E4000000E40034B9A68FE
S21400310022F001029A6000221A64704700000E4006
S214003110094A0A4BD969C90705D512B96FF00200EA
S2140031207047013AF6E7002AF8D001221861DA6003
S214003130D86940F3800070478096980000000E40E3
S21400314070B5C1B10E4A0023082550F8234094619B
S2140031500C4CD5600133D669F60705D514B96FF067
S214003160020009E0013CF6E7002CF8D0D469A40779
S21400317003D49942E9D1002070BD6FF00100FBE74F
S21400318000000E40809698002DE9F8431C4B8846B8
S21400319041F671311D6C19641A490746486849683A
S2140031A0996841F00101ADB2996096084FF00009A8
S2140031B0B14501D3002005E007EB89042046FFF760
S2140031C0A7FF48B10E4B9A6822F001029A600DB133
S2140031D000221A64BDE8F883C4F30A04C4F5006448
S2140031E0A408A6EB0901A14228BF21464046FFF7E6
S2140031F0A7FF0028E6D1894408EB8108D8E700BF7E
S21400320000000E4000300E40234B41F671311A6C20
S21400321010B5196421494C684968996841F0010164
S214003220996001211861D960D9694C0792B209D515
S214003230996821F0010199600AB100221A644FF0E2
S214003240FF3026E00221D9601549D869C00700D5AD
S21400325069B9D86910F002000BD0996821F0010115
S21400326099600AB100221A646FF0010011E001397A
S214003270EBE741B9986820F00100986002B1196444
S2140032806FF0020005E0996821F0010199600AB12B
S214003290186410BD1046FCE700000E4000300E40DB
S2140032A080969800FFF770BF014B01229A60704726
S2140032B000500E40134B1449F0B500225D68134EC3
S2140032C01046D6F8E8714C680B687F070BD4B3F548
S2140032D0006F06D012D8B3F5007F02D0B3F5806F2A
S2140032E001D144F480742B4202D02C4208BF18430C
S2140032F00132092A01F10801E3D1F0BDB3F5803FA0
S214003300EEE700BF00500E40F4A404000040E00FBB
S2140033108B784A789B0143EA82030A781343CA787B
S21400332043EA02130A7943EAC2234A7943EA02339C
S2140033308A79043043EA42430001014A1350704739
S21400334000200440014B1860704700BF0000844214
S214003350427801790378002A827870B514BF042673
S2140033600026002AC27814BF10250025002A4279BC
S2140033704FEA023242EA012242EA0302837914BF8C
S21400338020240024002BC37942EA034343EA0603C1
S214003390027A43EA050314BF4FF400410021234399
S2140033A0002A14BF4FF4003200220B431343014A95
S2140033B0136070BD002004400D4AD2F8E430D2F805
S2140033C0E0109B0003F03C03C1F381110B438370B4
S2140033D0D2F8E03003F03F034370D2F8E830D2F87A
S2140033E0EC2003F0F003C2F303121343037070479C
S2140033F000FF0FE070B5054616461C4619B914487E
S214003400FEF764FE0146402C1BD003D8DCB1202C0E
S2140034101BD070BD602CFCD1042303FB06F25608BB
S21400342006EB4113B3FBF2F30A4A203B02EAC3035E
S2140034302A6822F060022A602A6814432C606B61B6
S214003440E7E70623E9E71023E7E70823E5E700BFF9
S21400345040410500F8FF7F0038B50546144619B907
S2140034600548FEF733FE014601396400B1FBF4F16E
S2140034700902696138BD00BF40410500CB435B00CF
S21400348003F00A03C360C1607047000040F6AA63F9
S214003490C36041F20502002303604260104A836065
S2140034A04361C3648264036643678367C3670D4BE7
S2140034B00D4A984209D0904207D003F5006398421F
S2140034C003D003F58063984201D1002303650023EF
S2140034D09042836502D0054A904200D1C36570478A
S2140034E0F9FF01000000014000040140000C01400B
S2140034F038B5FFF7CBFF8B7C05460C461BB103683F
S21400350043F080430360E37C1BB1237D43F08003DC
S214003510AB65228A637B1343E28913436B60237B8C
S214003520D4E901122846FFF765FF637D1BB12B68BF
S21400353043F480332B60A37DE27D1B07120502F463
S214003540E00203F0E04313432B666B6F23F0300377
S2140035506B676A6F237E13436B672378EB6038BD17
S21400356038B5FFF793FF0C460A8A897B0368002963
S21400357042F0010214BF4FF48061002113430B4355
S214003580227D03600368002A14BF4FF00052002219
S21400359013430360A37C05461BB1E37C43F0800322
S2140035A08365237B43F480536B60D4E9011228467D
S2140035B0FFF752FF637B0BB11023EB60637D1BB1FB
S2140035C02B6843F480332B60A37DE27D1B07120536
S2140035D003F0E04302F4E00213432B662378EB602B
S2140035E038BD03695A06FCD5416303699B06FCD5C2
S2140035F0C069C0B2704703695B06FCD5416370477B
S21400360070B51648164E174D174C0121FEF712FCE2
S21400361001214FF48A40FEF70DFC002304220A2104
S2140036200320FFF765FC45F2031373664FF47F43F0
S2140036306B612022002363610B21A2600320042219
S214003640FFF756FC094BB3664FF47F036B614FF4EC
S214003650502363614023A36070BD00BF00350A009D
S21400366000600E4000600E4400600E4604510008E4
S21400367038B5044640F083F80FCC044D0FC594E8E7
S2140036800F0085E80F00002038BD00BF881B002013
S21400369047F6FF739A42F0B562D0022962D8324EDE
S2140036A006EBC10016F831308578012DB8BF01252C
S2140036B0012B4FEAC1070DD1C3785B1B23B14168CC
S2140036C031F91310914202DC5819C0B2F0BD013B2B
S2140036D01BB2F3E740680028F8D0B0F900309342F8
S2140036E004DBB0F902309342B8BF134682883E44EA
S2140036F0FF2A08BFB0F90640767807BFB0F9081071
S2140037000122C824002218BF2821E41A94FBF1F4F1
S214003710224414B2721EA242A8BF22464FF47A7701
S21400372000EBC2040132E188A46812B213FB014127
S21400373021EAE171B24201F5FA71B1FBF7F104DA60
S21400374000EBC204A4888C42EAD200EBC20232F834
S214003750040C884228BF0846A84238BF2846B4E76B
S214003760FF20B3E70020B1E7881B00200229F0B550
S2140037705FD8314B13F83100012816D103EBC10195
S2140037808C78C878012C2346B8BF0123904294BF9A
S214003790C3EB0003C3EB0203DBB2001B4A688342A1
S2140037A0C8BF002332F91300F0BD002A3FD003EB58
S2140037B0C1014C68002C3CD08B78934202D3B4F9FC
S2140037C00200F1E7CB78B4F900009342ECD94B78CD
S2140037D0A188FF2914BF03F1FF33023BDBB2251D8E
S2140037E0002104F10C071FFA82FCCEB2B34216D8B1
S2140037F005EBC1014FF47A75B1F9023049686A43A6
S214003800521A03EBD37102EB610292FBF3F2904281
S214003810CADBB4F902009042C6DC10B2C4E737F83F
S21400382031E0E64501F10106E2D33146DDE7034823
S214003830BAE70348B8E700BF881B00200CFEFFFF6E
S2140038400080FFFF08B50448FFF712FFBDE80840F8
S21400385001203FF0DFBF00BFC8D304007FB5094B8F
S21400386009490222CDE901234FF08373CDE9031302
S2140038704FF0FF300D2301A9059340F09BF807B0E9
S2140038805DF804FB006A180005010B007FB5094BC4
S2140038906A4603F11006154618685968144603C4AC
S2140038A00833B3422246F7D12846FFF74BFA0020EA
S2140038B004B070BD3CA5040013B50223002468467E
S2140038C000948DF804408DF80530FFF75FF8204629
S2140038D002B010BD70B5164B86B001AA03F11006F3
S2140038E0154618685968144603C40833B34222467E
S2140038F0F7D11B8823800F4BD3F8B42012030ED4C5
S214003900D3F8B830C3F308030B48ADF80A30FCF719
S2140039107BFD2846FEF784FE002006B070BD074BF0
S2140039201B884FF6FF72934208BF4FF48D73EBE788
S2140039304CA504000081E00F00F049020001E00FF2
S21400394007B5084B18680190202301A88DF80430AD
S214003950FEF7A6FE6420FEF783FC002003B05DF8A9
S21400396004FB00BF5EA5040010B50C480C4C6FF0BD
S2140039700402A02112F0800FD3B21BBF03F00F0386
S214003980043BA3181B1802F101020CBF83F80013B6
S2140039901976332AEED1002010BD00BF00ED00E0FE
S2140039A000E100E0BFF34F8FBFF36F8F054B5A6AFD
S2140039B022F480325A62D3F8942022F00102C3F82F
S2140039C09420704700ED00E0013A42EA520242EAD3
S2140039D0920242EA121242EA122230B542EA124239
S2140039E00132B2F5807F38BF4FF4807254420440F3
S2140039F015198D4205D31C60039B1D60049B1A603D
S214003A0030BD5200F2E70000F0B5364D3649374873
S214003A10002387B0CDE90333FFF7C4FF2C68344B8F
S214003A204FF00052C3F89840661CC3F89C208142B1
S214003A30304AC3F8A0202E6042D005AB019304ABF9
S214003A400A1A009303ABFFF7BFFFDDE90372059B7D
S214003A50DFF8A4E0072BA2EB01024FF001018CBFB8
S214003A604FEAD30C4FF0200CB2FBFCF201FA02F244
S214003A70013AD2B2AEEB070EB3FA83F3BEFBFCFEFE
S214003A80C01B8E44B0FBFCFC01FA0CF102FA0EF2ED
S214003A900139C3F11E030A435B0002F0FF0203F084
S214003AA03E0343EA022343F04073114A43F00113F6
S214003AB00234C2F89860C2F89C70C2F8A0302C603D
S214003AC0BFF34F8FBFF36F8F094B0522C3F89420C7
S214003AD05A6A42F480325A62BFF34F8FBFF36F8F39
S214003AE007B0F0BDA81B00203812002038120020B6
S214003AF000ED00E03900011337120020F0B589B060
S214003B000023CDE905330392FFF74CFF07AB019383
S214003B1006AB039A009305ABFFF756FF079A069B82
S214003B20059D072A03F1FF338CBFD70820275B1AB1
S214003B304FF0010C3B44B3FBF7F30CFA03F3013BE5
S214003B400446DBB2E8430144B1FBF7F103FA01F1A6
S214003B5023183B44B3FBF7F30CFA03FC0CF1FF33DA
S214003B60194301F0FF01FF2929D0B2FA82F3C3F10D
S214003B701E03144C144A2068C2F898005B0003F039
S214003B803E0343EA012343F0985343F00113013008
S214003B90C2F89C50C2F8A0302060BFF34F8FBFF32E
S214003BA06F8F0523C2F89430536A43F48033536210
S214003BB0BFF34F8FBFF36F8F002009B0F0BD2820F2
S214003BC0FBE700BFA81B002000ED00E0BFF34F8F0F
S214003BD00549064BCA6802F4E0621343CB60BFF3A4
S214003BE04F8F00BFFDE700BF00ED00E00400FA05C0
S214003BF008B5FFF7EBFF08BD30B50F4C41612368F1
S214003C00ABB92060836011E0891A9A6841611D464D
S214003C102AB113465A698A42F6D955B11A46A8609F
S214003C201346836013B15A69511A596130BD002595
S214003C30F0E72060F5E700BFC41B002038B500F0B1
S214003C4063FA094B094A196839B113684C69C51AF1
S214003C50AC4204D323441B1A4B61106003E0001BE4
S214003C60002310604B6138BDC41B0020B01B002031
S214003C7038B50F4B0F4D1C682B685B6902201C443F
S214003C8000F070FA204600F045FA0B492A68002337
S214003C900B70D088800702D501230B7038BD926860
S214003CA0002AFBD050690344012BF2D9F6E700BF87
S214003CB0B01B0020C41B0020B81B002070B59DF868
S214003CC014500571002516468560049ABDF81850F4
S214003CD0C580C0E90336044602600D4629B9416135
S214003CE00BB11146984796B13546FEF714FD0646C9
S214003CF0FFF7A4FF29462046FFF77EFF054B1B680B
S214003D00A34201D1FFF7B4FF3046FEF70AFD0020BC
S214003D1070BD00BFC41B00200C490B6800227BB19D
S214003D2083420AD183687AB1936083681BB15A696B
S214003D3041690A445A61002070471A469B68EEE7BC
S214003D400028EFD0022070470B60EEE7C41B00206F
S214003D5070B5154EFEF7DFFC34780546FCB9134BFC
S214003D601C60134B1C60134B1C8000F089F901206B
S214003D7000F0F8F900F044FA0F4B0246186020B93C
S214003D802846FEF7CEFC232070BD23460B4840F2A3
S214003D90E7313BF01DFC0A4B1860012333702846C0
S214003DA0FEF7BFFC0020EFE7AC1B0020C41B002082
S214003DB0B01B0020BA1B0020C01B002018FCFFFF11
S214003DC0B41B00202DE9F0410546F8B1FEF7A3FC30
S214003DD00F4F0646FFF732FF2846D7F80080FFF75A
S214003DE09BFF044628B13046FEF79BFC2046BDE804
S214003DF0F081A8453B6803D123B1FFF739FFF2E70E
S214003E00002BF0D1022000F0BBF9ECE72224EDE70E
S214003E10C41B002038B50C46054698B191B1002366
S214003E200B70FEF778FC084B1B6801210BB122785B
S214003E301AB1FEF776FC002038BDAB4214BF9B6873
S214003E402170F3E72220F7E7C41B0020F0B587B007
S214003E501F4600230D4616468DF817300446A0B1BF
S214003E600DF11701FFF7D6FF9DF817207AB9BDF8B8
S214003E70343002939DF830302946CDE90073204651
S214003E803346FFF71BFF07B0F0BD2220FBE70320F9
S214003E90F9E7000070B5FEF73EFC064600F034F980
S214003EA0084B1D8804460120ADB200F081F918B118
S214003EB000F02AF9013504463046FEF732FC20466B
S214003EC0294670BDBA1B00200A4B1B68834210B5FA
S214003ED00C460CD3084B19684FF47A720023A0FBEB
S214003EE001013BF075FB01302060002010BD212051
S214003EF0FCE700BFB41B0020C01B0020164B83420B
S214003F00164B8B4170B5144624D3154B4FF47A7577
S214003F101A68A0FB050305FB0131A2B1551E15402A
S214003F2011D1B2FA82F3C3F11F065A1C01FA02F24B
S214003F30DB43F04021FA03F310431843F140C4E991
S214003F400001284670BD00233BF042FB0025C4E973
S214003F500001F6E72125F4E7EFA7C64B37894100B5
S214003F60C01B00202DE9F84F0446E0070BD5404A59
S214003F70138801339BB21380FFF760FE3D4B1B682E
S214003F800BB1FFF775FEA10770D5DFF8F09000F0D3
S214003F90BBF8D9F800700646C71BFEF7BCFB4FF00F
S214003FA0000805464246C346324B1C6814B1636996
S214003FB0BB4216D9B8F1010F52D1D3889A1E53428C
S214003FC053412D4A1370002C4CD06369C9F8006029
S214003FD0DB1B6361FFF74CFE2846BDE8F84FFEF793
S214003FE0A0BBC9F8006023463A465969914209D8F1
S214003FF0187994F804C0844588BF1C469B68521AFA
S214004000002BF2D12846FEF78CFB6569C4F814B085
S214004010FEF781FB82462046FFF77EFE5046FEF7FF
S21400402080FB23694BB1FEF776FB2169824620466A
S214004030FFF7E2FD5046FEF774FBE36813B1216814
S2140040402046984700F060F835447F1B82460744B8
S214004050FEF761FB08F10108054622465646A3E72F
S2140040600023AEE7022000F08BF8B5E7BDE8F88F36
S214004070BA1B0020C41B0020BC1B0020B01B002065
S21400408010B51D4B86B01868596803AA03C2197A82
S214004090D3F8090011700190B3F80D201748DB7BA8
S2140040A0ADF8082001218DF80A300024FDF7C2FE85
S2140040B003A88DF80C408DF81040FFF749F901A9C8
S2140040C001208DF80440FFF723F90D4A536A23F4C4
S2140040D0FF6323F00703536240F2FF73136201206D
S2140040E09460FFF72FF9074B4FF08042C3F880210A
S2140040F01A6006B010BD00BF62A50400A009140037
S2140041000020044000E100E0014B9868704700BFC3
S21400411000200440114A9368516D9269520704D4F6
S214004120CA1A032A01D899420DD1C21A022A98BF88
S214004130D81C0A4BB0F1FF3F38BF013858655A6AA1
S21400414042F004025A62064A137833B103490B6DF3
S21400415043F002030B6500231370704700200440F1
S2140041603E1000208207054A00F00103516A48BF4E
S21400417043F004030B435362704700BF0020044023
S214004180820700F0010309D5074A0121117007498B
S2140041900A6D22F0030243F004030A6503494A6AE3
S2140041A022EA03034B6270473E10002000200440C2
S2140041B0064B01289B6904D0022805D1C3F3800072
S2140041C0704703F00100704700207047002004404D
S2140041D010B5FEF7A0FA094A93690446590703F09A
S2140041E0010003F0070348BF40F002001362FFF728
S2140041F0B9FE2046BDE81040FEF793BA0020044002
S2140042000148FDF763BF00BFA009140008B53BF0E6
S21400421047F93BF095F93BF095F93BF09CF9BDE882
S21400422008403BF0A3B908B53BF0A2F93BF0A1F972
S2140042303BF0A0F9BDE808403BF09DB910B5044638
S214004240FCF7CAF84FF47A735C43B0FBF3F3064806
S214004250B0FBF3F0B4FBF0F0032804D9BDE810403F
S214004260800800F005B810BD40420F0000000000B6
S214004270013800D0FCE7704701F01EBA01F01CBA06
S21400428008B50548182200213BF0F8FBBDE80840B9
S21400429001203EF029BF00BFD41B002007B5FFF762
S2140042A0F9FD6A46FFF72AFE28B1054B054A06487F
S2140042B05E213BF00FFB009803B05DF804FB00BFE7
S2140042C072A504001FA6040089A5040030B518488E
S2140042D085B00D461446FFF775FD164B2C441C6042
S2140042E0FFF7DCFF144B201A00284FF001041C7067
S2140042F004DC05B0BDE8304001F0DEB903A9FFF7E5
S214004300E3FD034628B10D4B0D4A7B210D483BF0DB
S214004310E1FACDE900040C4A03990548FFF796FD3B
S21400432018B1064B064A7F21F0E705B030BD00BF46
S214004330D41B0020CC1B0020C81B002072A5040044
S21400434007A6040089A504007942000008B50348C2
S214004350FFF738FD024B00221A7008BDD41B002060
S214004360C81B00203FF038BB70B5104E30680D46B5
S21400437014463EF0EBFE0E4B2C441C603FF02CFB2C
S2140043800C4B211A012200291A7003DCBDE870408C
S21400439001F092B9084B30683EF0CAFE28B1074BD0
S2140043A0074A0848D9213BF095FA70BDF81B002053
S2140043B0D01B0020C91B00207D420000D0A50400B1
S2140043C0EFA5040089A5040008B5044B18683EF064
S2140043D0BDFE034B00221A7008BD00BFF81B00206C
S2140043E0C91B002070B50446FEF795F9124B1B78E2
S2140043F0054663B1114B1E68FFF750FF301A0028C0
S21400440005DC2046FFF7A2FF204614F0F7F90C4B18
S2140044101B7863B10B4B1E683FF0DEFA301A00289B
S21400442005DC2046FFF7D0FF204614F01FFA28468A
S214004430BDE87040FEF775B9C81B0020CC1B0020F5
S214004440C91B0020D01B002020B1034B984214BF8C
S21400445001201720704700BF0BE000F02DE9FF4158
S2140044600E46174632B329B3DFF84C800402002507
S21400447045EA040141F4003103ABD8F8000001918D
S21400448002AA3EF017FAFFF7DFFF172801990AD1B4
S214004490D8F800003B4632463EF074F904B0BDE85A
S2140044A0F041FFF7D1BF10B901350B2DE0D104B0B4
S2140044B0BDE8F0810720FAE71410002008B50A4B83
S2140044C0186890F834301BB1084B00221A7008BDEB
S2140044D0074B19683EF086F8FFF7B6FF0028F6D1BE
S2140044E0024B0122F2E700BF14100020EC1B002054
S2140044F0181000202DE9F04F09028DB041F4003766
S2140045000026DFF8C4B004929946B246172447F056
S2140045100A053B460422DBF80000009508A93EF099
S2140045200FFA08AB03903218964201D1002336E00A
S214004530049953F8047B8E4243D107ABDBF80000A6
S21400454006AA39463EF0B6F9FFF77EFF044628BBBA
S214004550079B1FFA83FAB9F1000F1FD0169AEAB12B
S2140045605046CDF814A03BF041FA059B0246804623
S2140045703946DBF800003EF04FF9FFF765FF0446CA
S21400458040B9169B1A88524528BF524641464846AF
S2140045903BF04CFA40463BF031FA5CB90123039AF3
S2140045A0032A05D90A2E07F1010701DC002BB0D03B
S2140045B0169B13B1169BA3F800A020460DB0BDE8CD
S2140045C0F08F0136B0E700BF1410002008461146F1
S2140045D01A46FFF743BF00002DE9F04F090241F4E9
S2140045E00036DFF890B08BB090460027172446F0D0
S2140045F00A053346DBF800000095042206A93EF0C3
S2140046009FF93B1882460DF118090393039B9F42BE
S21400461001D100231EE0474559F8046B02D0B8F1DB
S214004620FF3F24D105ABDBF8000004AA31463EF07C
S21400463041F9FFF709FF044640B9DBF800003146B0
S2140046403EF088F9FFF700FF044660B9B8F1FF3F77
S2140046500DD00123BAF1030F05D90A2F06F1010682
S21400466001DC002BC5D020460BB0BDE8F08F01372B
S214004670CCE700BF14100020F8B516464FF0FF3206
S2140046800D461F46FFF7A8FF08B1172806D13A4681
S21400469031462846BDE8F840FFF7E0BEF8BD10B545
S2140046A00024A1B24FF0FF3200200134FFF794FF40
S2140046B0082CF6D110BD000008B5FEF7FBFD034B35
S2140046C01860BDE80840FEF7EFBD00BFF01B0020F5
S2140046D0BFF34F8F0549064BCA6802F4E0621343E6
S2140046E0CB60BFF34F8F00BFFDE700BF00ED00E0DB
S2140046F00400FA050E4B1B68DA070ED459050ED4D3
S2140047001A050ED4D9050ED49A050ED4094A1A40B5
S214004710002A0CBF072006207047002070470220A2
S214004720704708207047012070470320704700BF7D
S214004730F01B00201C00010070470000054B1B7892
S21400474003F0FF0023B1044B1B681878C0F3401039
S214004750704700BF001F0020081F0020064B074AB6
S2140047601B6812781B8802F0FF0022B103F00700D6
S214004770C31E584258417047081F0020001F0020E3
S214004780054B1A79824205D85A79824238BF0023EF
S214004790184670470023FBE7001C002083884BB1B7
S2140047A08268013282604288013B013A42808380FF
S2140047B0002070470120704738B50C468A88896803
S2140047C005463BF033F9E16841B1A0886288121AC9
S2140047D092B22844BDE838403BF028B938BD000006
S2140047E037B504461C4B1D4D216818689B88009001
S2140047F0ADF804302868D1B100223EF04DFF237991
S214004800834206D0164B174A40F2312116483BF039
S21400481061F80122032328688DF8003011463FF026
S214004820A4FB60B1114B0F4A40F23721EEE73FF090
S2140048306BFB20B10D4B0B4A40F24121E6E728689E
S21400484069463EF086FF20B1084B064A40F24521F5
S214004850DCE703B030BD00BF74A80400F81B0020DE
S21400486036A60400C5A804005FA60400D0A5040070
S21400487038B504460D46FDF74EFF064B1A8892B231
S2140048802DB114431C80BDE83840FDF74ABF22EA2C
S2140048900404F7E7FC1B002010B5FFF74FFF30B904
S2140048A0104B114A40F2F37110483BF013F8104BCE
S2140048B01B881B0704D40F4B0B4A40F2F471F3E736
S2140048C00D4B0E221A7000240C4B214608201C703B
S2140048D0FFF7CEFF0A4B18683EF0FEFB094B1C7034
S2140048E010BD00BFA6A604000BA904005FA6040026
S2140048F0FC1B0020B8A60400011F0020001F00209B
S214004900F81B0020F41B0020427A70B590F90A606C
S214004910C57A046832B1084B00225E759D759C60AE
S214004920DA6070BD054BC3E90242DA7D5E7561F35D
S21400493000029D75DA75F4E7381E0020601E002020
S21400494038B51D460B4B14460A46014618683FF01C
S21400495004F808B1002038BD6088A368411C89B2FD
S21400496029801B788B42F5D103387B288CBF00202A
S2140049700120F0E7F81B002000210420FFF778BF95
S2140049802DE9F0431B4BDFF87C801B4F187085B079
S214004990D8F800000D461646002101223A703EF077
S2140049A096FBE8B2FFF7ECFE0446F0B1DFF858904D
S2140049B0D9F80030984203D0FFF712FFC9F800403C
S2140049C0FF238DF804300D4BD8F80000CDE90236F1
S2140049D0324601AB29463EF0F1FB38B1084B7F2248
S2140049E01A7002233B70012000E0072005B0BDE8E6
S2140049F0F08300BF101E0020121E002020A107001A
S214004A00111E0020F81B00200C1E002008B50E4BBF
S214004A101B889B0713D501280C4B11D10F220021B0
S214004A2020201A70FFF724FF00210220FFF720FF46
S214004A30074B18683EF050FB064B00221A7008BD64
S214004A400B221A70F0E700BFFC1B0020011F00209D
S214004A50F81B0020001F00202DE9F0471446A20294
S214004A608AB005461E461AD5A44B1B78002B00F0CC
S214004A70EB8005A93FF0B6FA002840F0FF809DF8CD
S214004A801C30032B00F0D9809DF81C30022B06D179
S214004A90BDF814000EF0DAFC002880F2D480E301A2
S214004AA004F0807240F1FB80954B1B889F070DD564
S214004AB002200021FFF7DCFEFFF740FE0746002835
S214004AC000F0E48001210820FFF7D2FE200775D50C
S214004AD028463EF04AFFDFF83C82014605AAD8F891
S214004AE000003EF033FF8146002867D09DF8143062
S214004AF0072B63D10DF1020305AA01A9FFF720FFDA
S214004B0000285BD005A8FFF749FE002856D1BDF85F
S214004B101830002B40F0D280089B1F789DF80D308F
S214004B20002B00F0CD80BDF80230052B46D107F0F3
S214004B300703022B42D1DFF8F8A105A9DAF8000036
S214004B40FFF73AFEBDF80230D8F80000AAF80430A5
S214004B5049463EF00CFFFFF7F1FD40B3694BDAF82B
S214004B6000201B6892789B789A4220D19DF80A30E4
S214004B7023B3BDF80230D8F80000013301A9ADF820
S214004B8008303EF0EEFE0146C0B901A8FFF7BCFEB5
S214004B905D4B19705D4B08201970FFF769FEFFF733
S214004BA0DDFD20B1F90642BF594B01221A70FFF70E
S214004BB0D5FD18B9D8F800003EF08EFAA2014FF0E5
S214004BC000080CD5524F41460420FFF751FE3B78B3
S214004BD02BB1504B18683EF07FFA87F8008014F02F
S214004BE0084F01D0FFF7C8FEA30001D5FFF7C4FEAB
S214004BF0A70705D5424B1B88180701D5FFF74CFEC3
S214004C0071060AD53E4F3B881A0701D5FFF744FECA
S214004C103B885B0701D5FFF7AFFEF70540F1A8809C
S214004C2028463EF02DFA0B2840F084803A4B3B4A4B
S214004C3040F60C013A483AF04DFE05A80EF05EFC30
S214004C400028FFF621AF28463FF0CAF9B0B9314B2D
S214004C5005A918683EF07EFE05A8FFF79FFD002810
S214004C607FF41DAF079A089BBDF81810002918BFDF
S214004C7013461A7862F07F021A7010E702283FF493
S214004C800EAF284B284A40F25771D3E7214B1868DD
S214004C903EF022FA1D4B1F701B4B1F7016E706F0E6
S214004CA002031A4303D00120FFF7B0FE0EE704F01C
S214004CB0A84213433FF40AAF0220F5E7079B2CE710
S214004CC01A4B1B7823B9BDF80230052B3FF476AF9C
S214004CD017F0200704D001210420FFF7C9FD6DE777
S214004CE0DFF82C9099F80030002B3FF467AFD8F827
S214004CF000003EF0F1F989F800705FE7131E00200F
S214004D00FC1B0020081F0020001F0020011F0020A1
S214004D10F41B0020F81B0020DEA60400F4A8040004
S214004D205FA60400D0A504001EA90400341E0020BF
S214004D30381E0020031FDBB2022B0DD9032806D134
S214004D40254B1B7843B9254B1B78012B1EE0022808
S214004D501BD1214B1B785BB1214F3B88580701D5EF
S214004D60FFF70AFE3B88990702D50120FFF74EFEA3
S214004D70B20513D50022114628463EF07BFD68B1E9
S214004D80184B194A40F6BF0154E70A28F0D1174BD2
S214004D907F221A70114B02221A70E9E7E30713D537
S214004DA028463EF00AFE044628463EF095F914F5DD
S214004DB0007F0ED0002CB8BF033444F387040B4B9F
S214004DC01C70064B02221A700AB0BDE8F04700F0CD
S214004DD073BC7F24F3E700BF001F0020121E0020D4
S214004DE0FC1B0020D0A5040039A90400111E0020D9
S214004DF0594B73B5198811F0010140F0A780574D43
S214004E00574B584EA960C5E90031284641F60B239A
S214004E103160B3803EF016F9044630B9524B534A1F
S214004E2040F2062152483AF055FD4FF001113EF08F
S214004E305DFD20B14F4B4D4A40F20E21F2E74E4940
S214004E4020463FF02DF820B14A4B484A40F2112147
S214004E50E8E7012120463FF09DF820B1454B434A44
S214004E6040F21621DEE7012120463FF0A6F8024672
S214004E7020B1404B3D4A40F21921D3E7802305F587
S214004E80BA7120463EF03FFD802804D03B4B374A9F
S214004E904FF40971C6E72EA3D3E90023384D204608
S214004EA02C60CDE900234FF0FF324FF0FF333EF089
S214004EB033FC20B12F4B334A4FF4D871B2E730465B
S214004EC0FFF78EFC01210846FFF7D2FC2868012177
S214004ED03EF0EAF820B1274B2B4A40F2A121A1E789
S214004EE02A4B2B4A98801A602A4B2B4A98801A60C5
S214004EF02A4B2B4A98801A600B202A4ADA60FFF762
S214004F003FFC294B186020B9284B1F4A40F2B121BC
S214004F1088E7FEF797FC286800213EF036FC20B1B3
S214004F20144B234A40F24E217CE70822286811469B
S214004F303EF0FCFB20B11F4B134A40F2B52171E74F
S214004F401D4B18701D4B18701D4B187002B070BDAD
S214004F500B0020FF22020000FC1B0020081C002083
S214004F60594A0000001C00200DA70400E6A8040013
S214004F705FA60400D0A50400F8A904001CA704003E
S214004F80F81B0020D9A8040048A90400601E0020D1
S214004F90801E0020381E0020581E0020081F0020FB
S214004FA0381F0020281F00200C1E00204EA70400DB
S214004FB0E2A9040069A70400121E0020011F0020B9
S214004FC0001F0020094BD3F8F020D3F8F43082B04D
S214004FD0CDE900234B1E02AA073112F8010D03F893
S214004FE0010F8B42F9D102B0704700BF0081E00F7D
S214004FF007B5084601910EF023FA084B0199186888
S21400500000223EF087FF30B1054B064A06484FF4B3
S21400501046713AF05FFC03B05DF804FBF81B002015
S214005020D0A50400CEA904005FA6040008B5074B6F
S214005030002218683EF07EFF30B1054B054A064850
S21400504040F22D313AF046FC08BD00BFF81B0020A8
S214005050D0A50400B0A904005FA6040008B5074B5D
S214005060002218683EF05EFF30B1054B054A064840
S21400507040F239313AF02EFC08BD00BFF81B002084
S214005080D0A5040095A904005FA60400034B1A7877
S2140050900AB901221A700020704700BFFF1E0020C8
S2140050A038B50C4D2B78032B12D08BB10A4C2068E8
S2140050B03EF00BF8012804D02068012200213EF0C3
S2140050C006F820683EF008F801232B70002038BD53
S2140050D00D20FCE7FF1E0020F81B00202DE9FF41F5
S2140050E01A4E33780C466BB30846FFF749FB054665
S2140050F050B3DFF86880164FD8F80030834209D0E6
S2140051003868012200213DF0E2FF2846FFF768FBE1
S214005110C8F800500023CDE9013303933868FF2315
S21400512001AA21468DF804303EF038F818B1012067
S21400513004B0BDE8F08102233370064B9C71064B29
S2140051409C71F5E70D20F3E70720F1E7FF1E00202E
S214005150F81B0020601E0020381E00200C1E0020B9
S2140051602DE9F0412E4F3B889B078AB006D42D4B85
S2140051702D4A4FF46B712D483AF0ACFBDFF8C08037
S214005180D8F8003023B92A4B274A40F2AD31F2E76F
S214005190284C9B88284D8DF80F3094E80700012393
S2140051A004AE86E807003A8828681A460DF10F0113
S2140051B03EF0A5FB9DF80F20D8F800102868096877
S2140051C0023A002392B20C343EF099FB94E80700B2
S2140051D007AB83E80700D8F8000039880268127821
S2140051E011F0200FC2F34012817914D0007E8DF8A2
S2140051F01200124800788DF8130000932868334692
S2140052003DF0BCFF20B10220FFF700FC00F054FA8E
S2140052100AB0BDE8F08128683DF0A0FFF2E700BFC5
S214005220FC1B0020EDA7040071A904005FA6040083
S21400523013A804007CA80400F81B00203F100020E0
S214005240B81F00202DE9F843DFF8D08098F800302A
S21400525006460C46002B4CD0032B4AD08879FFF725
S2140052608FFA0546002846D0254F3B68834209D072
S214005270244B0122186800213DF029FF2846FFF73D
S214005280AFFA3D60204B1A7802F0FF0732B11F4B91
S2140052901F4A204840F295313AF01CFB032288F85A
S2140052A00020DFF87C80A17E88F800704FF00109AE
S2140052B083F80090184BC1F3400120201C60FFF7D4
S2140052C0D7FAFDF728FA494605460220FFF7D0FA36
S2140052D0FFF746FF2846FDF724FA98F8003003F05B
S2140052E0FF0553B9214630461FF069FF2846BDE842
S2140052F0F8830D25FAE70725F8E73D46F6E700BFF1
S2140053000C1E0020F81B0020001F002024A804000C
S21400531081A904005FA60400B81F0020FF1E00201D
S214005320011F002000487047081F002038B5134CA6
S214005330237803F0FF000BB17F2038BD104B1022FE
S2140053409979FFF71DFB0028F6D13EF045FB054690
S2140053502378012B05D13EF03FFB431BB3F5967F28
S214005360F6D32378022B04BF064B18784FF00003C1
S2140053700CBF40B27F202370DFE700BF121E002064
S214005380601E0020111E00201B207047014B18785D
S214005390704700BF341E002008B5074B1970074B36
S2140053A018683EF0CFFD30B1054B064A064840F27D
S2140053B0A5413AF08FFA08BD341E0020F81B0020E5
S2140053C0D0A5040057A904005FA60400014B19707D
S2140053D0704700BF131E002010B50C4649B1064B9F
S2140053E018683EF0FBF90A2390FBF3F020700020CB
S2140053F010BD0720FCE700BFF81B002008B5084BCF
S21400540001EB8101186849003EF0BFF930B1054B49
S214005410054A06484FF499613AF05CFA08BD00BFA9
S214005420F81B0020D0A50400A9A804005FA604006D
S21400543021B1034B1B780B70002070470720704784
S2140054403F100020014B0020197070473F100020CD
S2140054506FF0630070470000054B1B782BB94FF4C4
S2140054607A735A430120FFF78BBA0520704700BFB6
S214005470121E0020F8B51C46DDE906760BB107B112
S21400548036B90F4B0F4A104840F2FF413AF022FA65
S214005490FDF741F92146054610220C483AF0C6FAB7
S2140054A0394610220A483AF0C1FA31460948102215
S2140054B03AF0BCFA2846BDE8F840FDF732B900BF1E
S2140054C03BA8040094A804005FA60400241E002045
S2140054D0FC1D0020141E002008B5FDF71CF9BDE8D1
S2140054E00840FDF71EB910460A4619460DF050BF93
S2140054F02DE9F0438BB00646FDF70DF9DFF868811D
S214005500814605AAD8F8000002213EF01FFA04469C
S214005510002800F08C809DF81430072B40F0878020
S2140055200DF1020305AA01A9FFF70AFA07460028AB
S2140055307BD005A8FFF732F9002876D1404B1D78BE
S21400554035B99DF80D30F3B9BDF80230052B1AD0E9
S2140055503C4D05A92868FFF72FF9BDF80230AB804F
S2140055602B681D7805F07F021A702146D8F80000D7
S2140055703EF0FDF99DF80A30002808BF0024002BF5
S21400558041D1002524B1D8F8000021463EF0EFF9BD
S2140055904846FDF7C6F835B12A49002230461FF0C6
S2140055A005FE00F089F8284A1378032B16D1274BFE
S2140055B01B789BB9264B19780221117025490A6879
S2140055C01278920602D51A78002A32D01B78214922
S2140055D0002230461FF0FCFD00F06EF81E4B1B78D4
S2140055E0012B29D11D4B1A78022A25D100221A70C8
S2140055F01B4B1978304649B21FF0F8FD0BB0BDE8DA
S214005600F04300F059B8BDF80230D8F80000013376
S21400561001A9ADF808303EF0A4F90028B1D1E90997
S21400562001A8FFF771F93D46ACE70025ABE700257A
S214005630AEE71B780B4ACCE70BB0BDE8F08300BFA3
S214005640341E0020601E0020FF1E0020001F0020C9
S214005650011F0020081F0020101E0020121E002020
S214005660111E0020381E0020F81B00200078B0FA1B
S21400567080F04009704701230370704708B53DF07D
S2140056807BFCFFF7B5FBFEF7FBFDBDE80840FFF728
S21400569013B8000007B5074B0190186000F094F8A7
S2140056A00198FFF725FF019803B05DF804EBFEF7BD
S2140056B099BE00BFBC1F002070470000024B0122AD
S2140056C01A70FFF7F9BF00BF462100202DE9F84306
S2140056D0194EDFF86C901D461746B6F88020B6F8CF
S2140056E0823099F800109BB25B1A2B4492B203F0FA
S2140056F07F039A42804615D0B6F882006A1A16FAD8
S21400570080F039443AF092F9B6F8824099F80030C1
S214005710A4B2E41A2C4404F07F040023A6F88240C6
S21400572089F80030054B2A4639464046FCF716FAFB
S214005730BDE8F843FFF7C0BFC2200020CD560000EA
S214005740C01F0020FFF7B8BF38B5104B104D1149E9
S21400575028680024A3F880408022A3F882400E4BDD
S214005760FCF7FCF90C4B0D4928688022FCF7F6F98B
S2140057700B4B4FF48052C3F880211A60094AD36C51
S21400578043F00403D364204638BD00BFC220002087
S21400579094100020C11F0020CD560000412000209C
S2140057A000E100E0000001400A460146044808B552
S2140057B00068044BFCF776FA003818BF012008BDD5
S2140057C094100020BD5600007FB5FCF7A4FF0546E8
S2140057D02B482C4E00682C4C03AB02AA01A9FBF701
S2140057E0D7FB3378029A934214D2B4F88200019918
S2140057F0D21A194414FA80F03AF018F9B4F8823044
S214005800029A3178327012FA83F35B1A03F07F0340
S214005810A4F882302846FCF784FFB4F88250B4F827
S2140058208030ADB29BB29D420DD2B4F88000B4F881
S2140058308010C1F1800189B214FA80F00DF055FD98
S2140058400023A4F88030B4F880309BB29D420BD081
S214005850B4F88000B4F88010691A89B214FA80F09F
S2140058600DF043FDA4F88050084B1A7832B10022A0
S2140058701A7004B0BDE870400DF039BD04B070BDBC
S21400588094100020C01F0020C220002046210020C7
S21400589037B504460191FCF737FF019905462046C7
S2140058A03AF036F804462846FCF732FF204603B0A6
S2140058B030BD38B50546FCF727FF044628463AF0C3
