S02200006275696C642F64656275672F736C656570792D64656D6F2D6674642E7333378E
S21400000000100020410300003D0300003D030000F7
S214000010613B00003D0300003D0300003D0300007F
S2140000203D0300003D0300003D0300003D030000CB
S2140000303D0300003D0300003D0300003D030000BB
S2140000403D030000A58904003D0300003D030000B9
S21400005059820400FD890400B1890400C98904009E
S214000060A9890400950A00006D0B00003D030000FE
S214000070ED5600003D0300003D0300003D03000078
S2140000803D0300003D030000910B00003D0300000F
S2140000903D0300003D0300003D0300003D0300005B
S2140000A03D0300003D0300003D0300003D0300004B
S2140000B0018A0400AD89040035B104004141000006
S2140000C03D8A04003D030000B97504003D030000AE
S2140000D03D0300003D0300003D0300003D0300001B
S2140000E03D0300003D0300003D0300003D0300000B
S2140000F03D0300003D0300003D03000010B5054C25
S214000100237833B9044B13B10448AFF300800123BE
S214000110237010BD70120020000000001C24050093
S21400012008B5034B1BB103490348AFF3008008BD75
S21400013000000000741200201C240500A3F5803A7D
S214000140704700BF174B002B08BF134B9D46FFF7A9
S214000150F5FF00218B460F461348144A121A40F04A
S2140001608FFF0E4B002B00D098470D4B002B00D076
S21400017098470020002104000D000D48002802D0FA
S2140001800C48AFF3008040F0F3FE2000290040F05A
S214000190F9FB40F0C7FE00BF0000080000000000AA
S2140001A00000000000100020701200209092002036
S2140001B0000000000000000008B50422012305210D
S2140001C0002002F079FE002008BD08B5002318467E
S2140001D00422052102F070FE002008BD08B506487E
S2140001E0012101F0DDFD40F0FFFAFFF7E5FFBDE875
S2140001F0084000F009B800BF00350A000148012198
S21400020001F0CEBD00350A002DE9F0433B4D3C4FD2
S214000210DFF80091DFF800810FCD87B06C460FC481
S21400022095E8030084E80300364C3748012101F0C6
S214000230B7FD3846012101F0B3FD0125334B02938B
S214000240694620468DF80E5003F07AF92B460422B4
S2140002500621022002F030FE2A4600230721022053
S21400026002F02AFE2B4604220821022002F024FE79
S214000270042211462B46002002F01EFE244BA367E4
S2140002800B23636710264FF4487003F08FFFC9F8FE
S2140002900C60142003F08AFFC8F80C60232003F0DB
S2140002A085FFC9F80C60B921204603F08AF90023BF
S2140002B01A46C8F80C600621022002F0FDFD002355
S2140002C01A460721022002F0F7FD2B4600220821DD
S2140002D0022002F0F1FD002210462B46042102F017
S2140002E0EBFD204603F0CCF80021A1673846616795
S2140002F001F056FD07B0BDE8F08300BF30BB040038
S214000300004204000004014000350A0000127A0092
S2140003100B0B000B00A0004400A0004605490A682D
S2140003201318054883428CBF4FF0FF320B6010460F
S214000330704700BF0010002000000120FEE700000C
S21400034008B500F069F8064B0649074A8B4201D308
S214000350FFF7F8FE52F8040B43F8040BF6E700BF6D
S214000360001000207012002024240500004870476A
S21400037000F04902104AD2F8943003F00703023B1B
S214000380032B13D8DFE803F00C14020E0B4B1B688C
S214000390D2F80001C0F304200130B3FBF0F0704740
S2140003A0074BF4E7074B1B685B08F1E7054BEEE7E6
S2140003B04FF40043ECE700BF00400E401010002052
S2140003C0081000200C10002008B5FFF7D3FF054BDF
S2140003D0D3F80831C3F308230133B0FBF3F0024B24
S2140003E0186008BD00400E4004100020014B18683D
S2140003F0704700BF08100020054B1860054BD3F867
S214000400943003F00703022B01D1FFF7DDBF7047DE
S2140004100810002000400E40044B054A9A60D3F8AE
S214000420882042F47002C3F88820704700ED00E090
S214000430000000004FF4004070474FF47A70704799
S214000440014B1868704700BF1010002043680BB1BE
S214000450006818472220704783680BB10068184769
S214000460FF20704730235843034B034401EBC3017E
S21400047089000868704700BF1CA01002114B70B5B9
S2140004801D78114B00221E46D1B28D4200D870BD99
S21400049053F8041B0C686179814210D12178022937
S2140004A00DD001462079FFF7DDFFB0FA80F0400955
S2140004B0207056F82200BDE8704040F03FBB013285
S2140004C0E2E700BFD50005008410002013B50446FF
S2140004D00121124801F064FC002361792079012291
S2140004E002F0EAFC61792079FFF7BCFFA379B0FA45
S2140004F080F04009022B20700DD100F01BFB08494C
S214000500607900F025FB627920790123CDE900337C
S214000510114602F08BFC002002B010BD00350A0028
S2140005207D0400000078704708B50378022B024669
S21400053016D041790079FFF795FF91790129034696
S21400054015D1003B508818BF012343EA400363F0EF
S2140005503F039BB24FF6E070834202D11170538086
S21400056008BD4FF6DF718B42F9D10021F6E700296E
S214000570F6D1B0FA80F35B091370F1E70278022A2D
S21400058003D100224280FFF7A1BF704713B503785E
S214000590022B044610D08379022B0BD14079002120
S2140005A000F0D6FA627920790023CDE900331146AF
S2140005B002F03CFC0223237002B010BDD0E9000319
S2140005C01847C368006818470369006818470000A2
S2140005D010B501210446094801F0E2FB0848012154
S2140005E001F0DEFBA37820786178B3FA83F35B0929
S2140005F0042202F061FC002010BD00BF404105004F
S21400060000350A004378017801229A403023594386
S214000610054B0B44817819B903F180631A60704763
S21400062003F1C063FAE700BF0CA0004043780178EE
S21400063001229A4030235943054B0B44817819B95F
S21400064003F1C0631A60704703F18063FAE700BFE6
S2140006500CA000404178037801228A4030214B43A9
S21400066003F1804303F520439A61704703783021F5
S2140006704B4307491944437803EBC10302469B00EA
S21400068018689378C0B213B9B0FA80F04009704782
S2140006900CA010022DE9F04F9A46554B85B01B78FA
S2140006A0DDF83C909DF844B0DDF8508006460F46D5
S2140006B01546002B00F08B80072A00F28A800E9BDE
S2140006C0002B00F08680B9F1000F00F08280129BAC
S2140006D0B3F5006F7DDC012802D1109B002B78D08B
S2140006E0444B03EB05131B7B002B74D0424C1022AB
S2140006F00021684640F0C4FC04EB45141022002F8D
S21400070057D13946204640F0BBFC43F210036380C5
S214000710BBF1000F03D1E37843F00303E370364ADE
S2140007200E9BCDF800A002EB451CCCE90193129B72
S214000730013BC3F30A009DF84C30690103F0030344
S2140007409B0643EA001E53582C4818404EEA000306
S214000750012E535041D11323CCF80C309CE80F00E7
S2140007600CF1100E8EE80F00DCF81C20109BCCF865
S21400077014306FF0030161F39F02012FCCF81C20A8
S21400078003D1CCF81890CCF804301A4A290102EBB1
S214000790051342F801800027159A5A6028469F6084
S2140007A05E732246694602F0FBFB384605B0BDE89C
S2140007B0F08F0021204640F063FC4FF444736380C2
S2140007C0BBF1000FABD1E37843F03003A6E70C484B
S2140007D0ECE70C48EAE70C48E8E7B8F1000FD4D19C
S2140007E09CF8023068F304138CF80230CDE700BFA3
S2140007F00C1400208C1200200C1300200F80FFF336
S214000800028000F0018000F0078000F038B5124B3F
S2140008101B780546DBB1E0B101F06BFF0F4A002301
S2140008201146147B54B92B601A0101EB0313012502
S2140008308C501D7301F063FF204638BD0133082B32
S21400084002F11002EDD101F05AFF0548F5E7054820
S214000850F3E70548F1E700BF0C1400208C120020D7
S214000860048000F0028000F0018000F013B5164B03
S2140008701868019000238DF8043001F03AFF134BFE
S2140008801C7824B101F03BFF114802B010BD0122D4
S2140008901A7001F034FF0F4B1C731C7783F82C4042
S2140008A083F83C4083F84C4083F85C4083F86C4007
S2140008B083F87C4004230DEB03008DF8073002F02C
S2140008C045FB2046E1E700BF48BB04000C140020AF
S2140008D0038000F08C12002010B588B00E9C0794A0
S2140008E00D9C06949DF8304005940B9C04949DF84E
S2140008F0284003940024CDE9013400920B460246BA
S21400090021462046FFF7C6FE08B010BD10B588B0D9
S2140009100E9C07940D9C06949DF8304005940B9C05
S21400092004949DF8284003940024CDE901340092F5
S2140009300B46024601212046FFF7ACFE08B010BD6C
S2140009400A4A127808B55AB107280BD8084A02EBAB
S21400095000131B7B43B1002102F0EEFA002008BD15
S2140009600448FCE70448FAE70448F8E70C140020BB
S2140009708C120020028000F0018000F0078000F05A
S2140009800A4A127808B55AB107280BD8084A02EB6B
S21400099000131B7B43B1012102F0CEFA002008BDF4
S2140009A00448FCE70448FAE70448F8E70C1400207B
S2140009B08C120020028000F0018000F0078000F01A
S2140009C00A4A127808B552B107280AD8084A02EB34
S2140009D000131B7B3BB102F035FB002008BD054829
S2140009E0FCE70548FAE70548F8E700BF0C140020C6
S2140009F08C120020028000F0018000F0078000F0DA
S214000A000D4B1B7893B1072812D889B10B4B03EB1B
S214000A1000131B7B73B10A4B1A6A012303FA00F01A
S214000A2010401ABF00200B700870704705487047CA
S214000A3005487047054870470C1400208C120020AB
S214000A4000200E40028000F0018000F0078000F0D9
S214000A500B4A127810B50C4662B107280CD859B16B
S214000A60084A02EB00131B7B43B102F001FB206037
S214000A70002010BD0448FCE70448FAE70448F8E7FD
S214000A800C1400208C120020028000F0018000F080
S214000A90078000F02DE9F843DFF86480D8F860702E
S214000AA0D8F86C301F4000D5FEE7144CDFF85490A1
S214000AB001260025374217D02368C8F868609BB126
S214000AC0A16862680131A16028469847637B012BC4
S214000AD00AD148B909EB45131A7B60F341021A7331
S214000AE01A7F60F341021A770135082D4FEA460651
S214000AF004F11004DED1BDE8F88300BF8C1200209C
S214000B0000200E400C13002070B5094E0446012547
S214000B1004B970BD94FAA4F0B0FA80F005FA00F3B8
S214000B2024EA030456F82030002BF1D09847EFE76C
S214000B3010140020054B4FF48022C3F880211A6061
S214000B404FF48062C3F880211A60704700E100E02D
S214000B5038B504460D4601F0CCFD034B43F824504F
S214000B60BDE8384001F0CBBD10140020074BD3F889
S214000B702804D3F81C24104020F42A5020F02A0021
S214000B804004400CC3F82404FFF7BEBF00A000409A
S214000B90074BD3F82804D3F81C24104020F4AA40AE
S214000BA020F055000004000CC3F82404FFF7ACBF87
S214000BB000A00040024B1968024B186843F02AB8A0
S214000BC018100020141000207047000037B592005F
S214000BD004460D46019202F05FFB431C0BD060B941
S214000BE0019A2946204640F013FA0028044808BF18
S214000BF0002003B030BD0348FBE70348F9E700BF19
S214000C0010E000F021E000F024E000F013B5044608
S214000C1001A802F0CBFB9DF80630238040F20113BA
S214000C206380074BD3F8E4301B0E0A33012203F02F
S214000C301F0302FA03F30020636002B010BD00BF7A
S214000C400081E00F02F054BA08B502F041FA002025
S214000C5008BD10B5044644EA010313F00303084632
S214000C6009D1934201D1002010BD54F8231040F85A
S214000C7023100133F5E79200214640F0D9F9F2E758
S214000C8010B5044602F0BAFA431C17D0C0B90D4B93
S214000C90D3F8E4301B0E0A3303F01F0201239340FF
S214000CA023F0030320462344984201D1002010BDC0
S214000CB050F8042B0132F7D00348F8E70348F6E76C
S214000CC00348F4E70081E00F0EE000F021E000F0BA
S214000CD024E000F008B501F005FD014B186008BDE2
S214000CE0E01A0020014B186801F000BDE01A002051
S214000CF00A460139014402F0B9BE000038B141B1DC
S214000D00013AB2F5006F044838BF00207047034828
S214000D1070470148704700BF037000F0027000F093
S214000D2038B504460D4601F0E4FCA3889BB223B90F
S214000D302B6001F0E4FC064838BD638814229BB2A1
S214000D4002FB034408342C6001F0D9FC0020F3E7D2
S214000D500B7000F0F7B504460191164601F0C9FC89
S214000D60A388E28801999BB29A42054606D80023DA
S214000D70336001F0C4FC124803B0F0BD208814278D
S214000D8080B207FB00403A46083040F051F923880D
S214000D90E2889BB207FB03430833336023889BB289
S214000DA00133B3FBF2F102FB11339BB22380A3881D
S214000DB001339BB22846A38001F0A1FC0020DBE7AC
S214000DC00A7000F07FB5012380F82C3090F832309E
S214000DD0ABB9426B0368013242630C4A03920022AD
S214000DE0049002924A680192012200920A68016900
S214000DF080681C33FFF78AFD07B05DF804FB012B03
S214000E00E7D0002380F82C30F6E700BF211B000057
S214000E107FB5012380F82D3090F832309BB90268F8
S214000E203432436B013343630E4B03930023049029
S214000E3002934B680193012300930B68C1684068D6
S214000E40FFF74AFD0BE0012B06D10268136843F456
S214000E50005342F8283BE4E7002380F82D3007B023
S214000E605DF804FB7510000090F83130022B0BD1B2
S214000E70437E30225343054A1A44437F03EBC203A2
S214000E809B001868C0B27047002070471CA0100274
S214000E9013B51D4A002352F8044B617F81420ED0E1
S214000EA00133042BF7D102B010BD0028FBD19DF80A
S214000EB00730002BF7D06068FFF742FDF3E794F8A1
S214000EC03130022BEFD12046FFF7CEFF637D207531
S214000ED0022BE8D194F82E3003F0FF02002BE2D16B
S214000EE060688DF807200DF10701FFF789FD237D67
S214000EF01BB194F82F30002BD7D00023606884F8FD
S214000F002F30FFF73DFDCEE7941B002090F83230DF
S214000F1053B903680422DA601A699007FCD55A6F41
S214000F2042F002025A677047012B0CD103685A6CD4
S214000F309107FCD404225A609A689207FCD55A6D31
S214000F4042F002025A65704790F8323053B903688F
S214000F500122DA601A69D007FCD55A6F42F0010206
S214000F605A677047012B0CD103685A6C9107FCD462
S214000F7001225A609A68D207FCD55A6D42F00102E7
S214000F805A65704790F832303BB903685A6F22F0C2
S214000F9001025A670222DA607047012B09D1036802
S214000FA05A6C9207FCD45A6D22F001025A6502224E
S214000FB05A6070471049114A0B7830B52BB9C2E910
S214000FC00033C2E9023301230B700C4C0023214688
S214000FD051F8045B854208D00133042BF8D1002178
S214000FE054F8043B1BB942F82100002003E001310D
S214000FF00429F5D1024830BDA41B0020941B002014
S214001000027000F010B50446FFF730FC0021201DEA
S214001010FFF7FCFB014620B904F10800FFF7F6FBDA
S21400102000B1014810BD00BF0E7000F038B5044690
S2140010300D4601F05EFBA3889BB223B92B60BDE88A
S214001040384001F05CBB638814229BB202FB03436A
S21400105008332B606388E2889BB20133B3FBF2F15E
S21400106002FB11339BB26380A388013B9BB2A38033
S214001070E5E70000F7B51446906A01A9FFF750FEB1
S214001080636B013B6363194B984220D0019B00269B
S2140010901E619E6001F02DFB019AD768054627B1B8
S2140010A0D2E9002331462046B847A06A01A9FFF7D7
S2140010B0BDFFA06A83889BB263B101A9FFF730FE2B
S2140010C001992046FFF7A4FE284601F018FB0120F0
S2140010D003B0F0BD84F82D3094F83230012B01BFF8
S2140010E02268136823F400531360EDE70B7000F0DA
S2140010F01FB504460B46C07DE17E002B33D001238E
S214001100042201F0D9FE0123217F207E022201F075
S214001110D3FE94F83130022B16D1617F607E002317
S214001120012201F0C9FE00230422A17FA07E01F067
S214001130C3FE0123627F0193607E0093114601F097
S21400114075FE002004B010BD032BFAD10023012247
S214001150617F607E01F0B0FE00230422A17FA07EA6
S21400116001F0AAFEEDE71A46039301F0A5FE039BE5
S214001170217F207E1A4601F09FFE94F83120039BC3
S214001180022A0FD11A46617F607E01F095FE039B0E
S214001190A17FA07E1A4601F08FFE039B0193627F1B
S2140011A00123C9E7032ACCD11A46617F607E0393E8
S2140011B001F082FE039B1A46D0E790F8323013B94E
S2140011C0036818697047012B1CD103689B6803F0FD
S2140011D00200DA0748BF40F00100590748BF40F058
S2140011E008001A0748BF40F02000D90648BF40F064
S2140011F040009A0648BF40F080005B0603D540F4E6
S21400120000507047002070472DE9F3410D46044614
S214001210002879D001F06DFA012D06463BD1A36A6D
S2140012209B889BB2002B3DD06068FFF7C9FB00236C
S214001230A06A84F82D3083889BB273B101A9FFF7AA
S2140012406FFD01996068364F0831FFF701FC019B7E
S2140012501F61A06A83889BB253BB2046FFF7ADFF91
S2140012608304FAD5023D012D10D8A068FFF7A8FB2D
S2140012700023606A84F82C3083889BB23BBB94F8CA
S2140012803130032B02D02046FFF77CFE304601F0BB
S21400129036FA002009E0022D38D1636A9B889BB29B
S2140012A0002BE2D101F02BFA1E4802B0BDE8F08117
S2140012B001A9FFF7BBFE019BD3F80C80B8F1000F25
S2140012C0C7D09B68002239462046C047C1E769461A
S2140012D0FFF726FD0099A068114D0831FFF7B8FB0F
S2140012E0009B1D61606A83889BB2002BC7D069464D
S2140012F0FFF79CFE009BDF68002FF3D09B68002260
S21400130029462046B847EDE70748CEE7032DA9D182
S214001310A36A9B889BB2002B86D1636A80E700BFD6
S214001320097000F0087000F0027000F02DE9F3413B
S2140013300546406A84889846A4B20023CDE9003367
S2140013400E4617463CB16946FFF7EAFC01A904467B
S214001350A868FFF77DFB009B73B16CB95A680199CA
S2140013601B68521A3A60C8F8001033602846FFF728
S21400137024FF02B0BDE8F0810023C8F800303B60CF
S214001380F3E7836A9888C0B270472DE9F0410446B7
S2140013909046FFF7B3FC0F46054600285CD10920AF
S2140013A001F0BEF90646A26A93889BB213B194F880
S2140013B02E3033B394F8323043BB23681E6906F0F0
S2140013C002061EB92046FFF7A1FD0026012384F879
S2140013D0303094F832301BBBB844474520681AD1E9
S2140013E003699A06FCD5002E36D194F8323033BB0A
S2140013F023685A6F22F002025A670822DA603546DE
S2140014002AE0002ED0D0FFF745FBCCE7012BD9D140
S21400141023689E68D3E717F8011B02F0DCF8DCE7C8
S214001420012BE0D1B844B845206803D183681B0778
S214001430FCD5D8E717F8011B01F03FFEF3E7012BB8
S214001440DDD123685D6C15F00205FBD15A6D22F0E4
S21400145002025A6508225A602846BDE8F08100005C
S21400146010B5044680B190F82E302BB9FFF7FCFC7F
S21400147010B96068FFF764FA94F82E300133DBB2D7
S21400148084F82E30002010BD0048FCE7027000F003
S21400149010B50446A0B190F82E309BB190F82E30CF
S2140014A0012B05D1FFF7E0FC10B96068FFF768FA7A
S2140014B094F82E30013BDBB284F82E30002010BDAD
S2140014C00148FCE70148FAE7027000F0057000F0FA
S2140014D037B590F83150022D044618D1A37FA17E6F
S2140014E0407D01229A4030235943134B0B4410B9D8
S2140014F003F1806303E0012805D103F1C0631A609D
S214001500002003B030BD217D0029F6D1F0E7012D83
S214001510F6D1037D73B911238DF80730FFF7A0FFCE
S2140015202A460DF107012046FFF72FFF2046FFF75A
S214001530AFFFE5E71323EFE70CA00040F0B5094F37
S21400154004460D460FCF89B001AE0FC697E80700D8
S21400155086E80700002C00F0A5823DB9024E304612
S21400156009B0F0BD70BB0400037000F03822002103
S21400157020463FF085FD002363632046FFF71AFDF3
S21400158006460028EBD12B7C84F831302B68B74A0E
S2140015902360934284F8320040F08981B44B236282
S2140015A0B44BE3604FF440232361D5E906230026BD
S2140015B0626216805680968084F82C60A3621E8035
S2140015C05E809E806B6803936B8984F82D6084F838
S2140015D02F60ADF81430AB89ADF81230AB7BA6485F
S2140015E08DF810300121EB7B8DF8163005278DF82D
S2140015F0117000F0D5FBA148012100F0D1FB206A54
S214001600012100F0CDFB28688DF8046001A901F0E7
S2140016105FFF28686B7A816F2A7ADFF850C221F460
S214001620F85121F01F01194341EA02218167032185
S21400163041672068604540F04F81BA4216D9901F36
S214001640042840F26481A2F10B00B84240F26181A6
S214001650A2F11100062840F25E81A2F118010629C7
S21400166040F25B811F2A14BFFF263E46042BE67518
S21400167040F25581591F042940F25381A3F10A0113
S214001680052940F25081A3F11001062940F24D8150
S214001690A3F11701072940F24A81B3F11F0118BFD1
S2140016A04FF0FF31C9B22176002A58D0012A56D011
S2140016B0022A54D0032A52D0042A50D0052A4ED0EB
S2140016C0062A00F03E81072A00F03D81082A00F035
S2140016D03C81092A00F03B810A2A00F03A810B2A55
S2140016E000F045810C2A00F024810D2A00F02381A9
S2140016F00E2A00F022810F2A00F02181102A00F025
S2140017002081112A00F01981122A00F01881132A6C
S21400171000F01781142A00F01681152A00F01581B2
S214001720162A00F01481172A00F01381182A00F0F8
S2140017301281192A00F011811A2A00F010811B2A42
S21400174000F00F811C2A00F00E811D2A00F00D818A
S2140017501E2A00F00C811F2A0CBF0722FF22E27609
S214001760002B00F08081012B00F01381022B00F08B
S2140017707C81032B00F07B81042B00F07A81052B03
S21400178000F0FD80062B00F0FC80072B00F0FB80AD
S214001790082B00F0FA80092B00F0F9800A2B00F0E5
S2140017A06A810B2B00F069810C2B00F0E2800D2B78
S2140017B000F0E1800E2B00F0E0800F2B00F0DF80C1
S2140017C0102B00F0D880112B00F0D780122B00F0E1
S2140017D0D680132B00F0D580142B00F0D480152B68
S2140017E000F0D380162B00F0D280172B00F0398142
S2140017F0182B00F03881192B00F0CB801A2B00F044
S21400180034811B2B00F033811C2B00F032811D2B02
S21400181000F031811E2B00F030811F3B18BF4FF0C7
S214001820FF33DBB223776B7C6376AB7C6377EB7C32
S214001830A3762B7DA37701212046FFF759FC0646A9
S21400184000287FF48CAE00F054FF2B7C032B074659
S21400185040F017812B682A8CDA675A6E42F0040231
S2140018605A665A6F42F030025A6709E0000001409B
S2140018700032040001000C004041050000350A005B
S21400188028684FF0FF3383642B7C032B0CBF0521A5
S214001890042101F0EDFD2B684FF44062DA6020462B
S2140018A0FFF7B0FB0646384600F029FF57E67E4AAB
S2140018B0934206D17D4B23627D4BE3604FF4502369
S2140018C072E67C4A93427FF449AE7B4B23627B4BA5
S2140018D0E3604FF4602367E6DFF8CCC160455AD179
S2140018E0052A7FF6C3AE901F042810D9A2F10B007C
S2140018F005280ED9A2F1110006280CD9A2F118016C
S21400190006290AD91F2A14BFFF260526AEE6012699
S214001910ACE60226AAE60E46A8E63E46A6E6002165
S214001920C1E60121BFE60221BDE60321BBE6052193
S214001930B9E6072213E7082211E709220FE70A2271
S2140019400DE70B220BE70C2209E70D2207E70E2214
S21400195005E70F2203E7002201E70122FFE6022245
S214001960FDE60322FBE60422F9E60522F7E6062258
S214001970F5E6082356E7092354E70A2352E70B2324
S21400198050E70C234EE70D234CE70E234AE70F23C0
S21400199048E7022346E7474988427FF4DFAD002A3E
S2140019A049D0511E0C2948D9A2F10E0106298CBF38
S2140019B0FF2105210C2BE17543D9A3F10D01062962
S2140019C03DD9A3F1140109293BD9B3F11F0118BF72
S2140019D04FF0FF31C9B22176002A3ED0511E0C29A5
S2140019E031D90E2A31D00F2A31D0102A31D0112AFF
S2140019F031D0122A31D0132A31D0142A14BFFF2234
S214001A0007220C2BE2763AD90D2B2AD00E2B2AD0A1
S214001A100F2B2AD0102B2AD0112B2AD0122B2AD0EB
S214001A20132B2AD0A3F11402092A28D91F2B14BF7E
S214001A30FF230523F6E61146BCE7FF21BAE705219A
S214001A40C9E7FF21C7E7FF22DBE70022D9E701222B
S214001A50D7E70322D5E70422D3E70522D1E70622FB
S214001A60CFE70023DEE60123DCE60323DAE60423E1
S214001A70D8E60523D6E60623D4E60723D2E6FF23D8
S214001A80D0E6022B7FF4FCAE607F0D49FFF760F8CE
S214001A90FFF750F84FF40073A382A6752046FFF7B1
S214001AA017FDEDE6074E5AE500040140004204002B
S214001AB001000D00000801400052040001000E0065
S214001AC0910E0000027000F0F0B587B0054616468D
S214001AD0FFF714F90446F0B9CDE901160493686AD5
S214001AE00E4B03966A4601A90593FFF733F90446A1
S214001AF088B995F82C3073B92846FFF725FA00996F
S214001B002846FFF75FF995F83130032B03D02C7584
S214001B102846FFF7DDFC204607B0F0BD017000F058
S214001B2073B51446506A01A9FFF7FAF8636B013BD8
S214001B306363344B98422FD094F83200019B002800
S214001B4036D12268116C11F4007128D02E49196123
S214001B5098604FF40073936400F0CBFD0199CD6854
S214001B60064635B14A688B682046D31A0A68096962
S214001B70A847606A01A9FFF759FA606A8588ADB27E
S214001B80002D2FD001A9FFF7CBF801992046FFF7CB
S214001B9019F9304600F0B3FD012002B070BD106C9C
S214001BA0C5051BD51948186199604FF48073D2E7B4
S214001BB0012813D12268D16A11F0800106D012499B
S214001BC019610021996080235363C5E7D06A4006F7
S214001BD004D50E48186199604023F5E700221A6183
S214001BE09A60B9E7012323752046FFF771FC94F845
S214001BF0313084F82C50032BCBD02046FFF7C2F9A7
S214001C00C7E700BF0B7000F00D7000F00C7000F01E
S214001C10F0B587B004461646FFF770F8054658BB81
S214001C200493194B059394F832300396CDE90116C8
S214001C302BBB23681B6903F0020313B92046FFF78A
S214001C4065F9A06A6A4601A9FFF784F8054698B9BF
S214001C5094F82D3083B900F04CFDA36A9B889BB2A4
S214001C60064633B100992046FFF7D2F8012384F8E0
S214001C703030304600F043FD284607B0F0BD012B5B
S214001C80DCD123689B68D6E7017000F00C4B9842C5
S214001C9010D90C4B984210D9022201230A490B6432
S214001CA00A49D1F8003123F0807343EA0263C1F891
S214001CB00031704700221346F0E70122FBE700BF21
S214001CC00048E8010090D0030000C84300400E40E2
S214001CD00F4B5B680F4B30B500221C46C9B21D790E
S214001CE08D4202D11D6885420DD20132052A03F1CC
S214001CF00803F4D1032206494B6823F0407343EAF5
S214001D0002634B6030BD04EBC2025279F3E700BFBA
S214001D1000000E40ACBB040038B5074C41F67133EA
S214001D20256C2364FEF722FB0021FFF7D1FF0DB1DF
S214001D300023236438BD00BF00000E40044BDB6B5D
S214001D405B0604D4034AD2F8C830002BFBD1704798
S214001D5000300E400000C64308B5FFF7EFFF024B09
S214001D605868C0F3014008BD00300E40044BD3F85D
S214001D704421D20703D4D3F840211042FBD1704748
S214001D8000400E4038B5054C41F67133256C23648F
S214001D90FFF79EFF0DB10023236438BD00000E4000
S214001DA038B5C0F30323013B092B16D8DFE803F050
S214001DB02616151505191C151F23124C0023C0F3F3
S214001DC0043513B11846FFF7D1FF04F1424404F579
S214001DD0801405EBC404A400216038BD0A4C00231F
S214001DE0EDE70A4C0123EAE7094C1023E7E7094C24
S214001DF04FF48033E3E7084C0023E0E7074C00236A
S214001E00DDE700BFB0400E40C0400E40E0400E4050
S214001E10E8400E40F0400E4050410E4000400E405C
S214001E20C0F30313013B092B2AD8DFE803F0050BA8
S214001E300F1929291F23374B274BD3F80001C0F36E
S214001E4004207047244BD3F81401F8E7224BD3F84C
S214001E500001C0F30060431C012098400138704721
S214001E601D4BD3F80C01C0F3082070471A4BD3F86B
S214001E700801F8E7194B984204D0194B984207D04E
S214001E8000207047144BD3F8203103F00F03E3E72C
S214001E90114BD3F82031C3F30113DDE7114B984201
S214001EA00CD003F5B01303F580539842E8D10A4BE3
S214001EB0D3F82801C0F30120031DCDE7064BD3F865
S214001EC02831E8E7084B9842DAD1034BD3F83001C3
S214001ED000F00300704700BF00400E40800616006A
S214001EE080162E0090171A00A009140008B5FFF7F8
S214001EF097FF013008BD000000F00F0001380728EA
S214001F0044D8DFE800F0040F1943232D4335244B53
S214001F10D3F8943003F00703023B052B38D8214A48
S214001F20D05C70471E4BD3F8803003F00703013BAC
S214001F30042B2FD81C4AF3E7194BD3F8843003F050
S214001F400703013B042B25D8184AE9E7144BD3F8BE
S214001F50883003F00703013B042B1BD8144ADFE745
S214001F600F4B1B6F13F0010F0CBF072009207047A3
S214001F700B4BD3F85C3103F03003202B0CD0302B06
S214001F800CD0102B14BF012007207047002070478C
S214001F9005207047012070470420704708207047CE
S214001FA000400E409CBB0400A2BB0400A7BB04007C
S214001FB0A2BB040008B50146FFF79EFF1A4B9942E4
S214001FC012D01A4B994213D0194B994204D1194B8F
S214001FD0D3F8800000F007000138042822D8DFE894
S214001FE000F00B0F17130B00124BD3F88400F1E729
S214001FF0104BD3F88800EDE7BDE80840FEF71ABAA4
S214002000BDE80840FEF71CBABDE80840FEF715BA62
S214002010FEF7B0F9074BD3F80031C3F30063013382
S214002020D84008BD0020FCE703002000050024007F
S21400203002001E0000400E4000F47813B3F5B01FF7
S21400204010B5044674D025D8B3F5402F5ED010D80E
S214002050B3F5802F49D005D83BB1B3F5003F4FD03C
S214002060002010BDB3F5202FFAD1BDE81040FEF7D2
S21400207081B9B3F5801F00F08480B3F5A01F4DD062
S214002080B3F5602FECD14A48FFF736FF072878D023
S2140020900928E9E7B3F5381F53D013D8B3F5001F66
S2140020A058D00AD8B3F5D01F56D0B3F5F01FD7D105
S2140020B04048BDE81040FFF77DBFB3F5101FCFD1F5
S2140020C03D48F6E7B3F5481F4DD0B3F5781F65D009
S2140020D0B3F5401FC4D13948FFF76CFF384BD3F82F
S2140020E02831C3F30123043320E0FEF743F9344BD1
S2140020F0D3F80C31C3F308230133B0FBF3F0B0E799
S214002100FEF738F92E4BD3F80831F3E7FEF732F92D
S2140021102B4BD3F81431C3F30423EDE72648FFF71F
S21400212049FF274BD3F8303103F00303D84098E734
S2140021302048FFF73FFF224BD3F8203103F00F0370
S214002140F4E71C48FFF736FF1D4BD3F82031C3F3E6
S2140021500113EBE71948ACE71848FFF72BFF184BBD
S214002160D3F82831F3E71748FFF7C6FE072808D04C
S214002170082809D004287FF473AFBDE81040FEF7A6
S21400218035B9114B18686CE7FEF7F4F80C4BD3F82A
S2140021900031C3F3042303FB000062E7FEF7EAF80E
S2140021A001462046FFF7A2FEB1FBF0F059E700BF5C
S2140021B006000E0002001E0005002400030020009A
S2140021C000400E40B800320038100020014B188046
S2140021D0704700BF3C100020013810B5032812D805
S2140021E0DFE800F0022E1220214AC1F30801D2F8DF
S2140021F06838002BFBD11F4A136A23F4FF7323F0C1
S21400220001031943116210BD194A01F07F01D2F88B
S2140022106038002BFBD1174A136923F07F0319435C
S2140022201161F0E7124A01F07F01D2F86438002B02
S214002230FBD1104A936923F07F0319439161E2E7CB
S2140022400C4AD2F89030536A23F0300343F0100360
S2140022505362146B084BC1F3C31003300F2803EA14
S214002260040328BF0F20194341EA00711163CAE72F
S2140022700020C84300400E4000F8FF0F104A536A83
S21400228013F0300F18D0202913D0302914D000298D
S2140022900C4B08BF4FF44003D2F8901033EA01010C
S2140022A0FAD15B0246BFD2F8A000C0F3802001201E
S2140022B070474FF40003EFE74FF44003ECE700BF2E
S2140022C000400E40FFF3E17F02280AD129B1064BF9
S2140022D04FF48060C3F8A800596612B10220FFF7D9
S2140022E0CDBF0120704700BF00400E402DE9F341EE
S2140022F006460F469046072868D8DFE800F00490A8
S21400230025208B67670D4FF400714FF48074082307
S2140023100925002F69D05FE001A801F047F89DF875
S2140023200530012B06D94FF400414FF480440E23AC
S2140023300F25EEE79DF80430022BF4D8FEE70124C3
S214002340022100232546E4E700294BD0364A536A8B
S21400235013F0300F3DD1354BDB6B536ADB0705D5E9
S214002360536A23F0300343F010035362042402231D
S21400237003252D4A14662E4A13449B00196800292B
S214002380FCD0B8F1000F21D01544AD002B68002B0F
S214002390FCD0022E1AD1CFB1234F796A11F0010179
S2140023A01CD0012220213046FFF78EFFD7F89C6014
S2140023B0012200210220FFF799FFC6F30A0102203E
S2140023C0FFF70AFF3C662B68002BFCD002B0BDE886
S2140023D0F0810424022303250027CAE73046FFF7CE
S2140023E04DFFE3E70821022303250F48012201667B
S2140023F002FA03F3D0F890201A42FBD1B8F1000F8E
S214002400E4D00123084A03FA05F5D2F890302B42AF
S214002410FBD1DBE7202110240423052579E7802162
S21400242040240623072574E700400E4000300E4087
S2140024308004F210112838B50C4617D000F00F00B3
S214002440013807286BD8DFE800F02D04666A648C34
S2140024506A97624D013C0C2C61D8DFE804F080617D
S2140024606860606F6060605E60607900042912D109
S214002470FDF7BCFF0546A8B10021284600F04CFA3F
S214002480023C0A2C4BD8DFE804F03F3C30364A4A80
S2140024904A4A4A0F4200052904D1514B1D68514B48
S2140024A09D42E9D80025EBE70320052401221146CA
S2140024B0FFF71CFFFFF730FC0DB1FFF73FFC4A4B60
S2140024C05C67FDF781FF0446FDF754FFFFF7DEFB70
S2140024D0FFF742FC01462046FFF754FCFDB92846AC
S2140024E00121BDE8384000F017BA4048FFF7CEFBA0
S2140024F002200446DAE73D48FFF7C8FB0124032024
S214002500D4E701200324D1E700200424CEE70724E3
S214002510D0E7374D9EE7374D9CE704232B6038BD48
S214002520012211460020FFF7E1FE0223F6E7012212
S21400253011461046FFF7DAFE0123EFE7FDF71AFF14
S214002540FFF7A4FB2C4B0122C3F808260323E5E77C
S214002550012211460720FFF7C9FE0523DEE7002308
S214002560DCE7072904D00929D9D11F4B012201E055
S2140025701D4B00221A67D2E74C1E072CCFD801A3AA
S21400258053F824F0D72500001F2500001F25000063
S214002590C92500001F2500001F250000BB250000E0
S2140025A0A525000003221049D1F85C3123F0300342
S2140025B043EA0213C1F85C31B1E701221146042058
S2140025C0FFF794FE0122EEE7012211460220FFF7F4
S2140025D08DFE0222E7E70022E5E700BF80400E40BE
S2140025E00C100020002D310100400E400148E8018B
S2140025F088400E4084400E400010C84310B5044684
S2140026001120FFF779FC002101220220FFF76EFE61
S214002610184A217C536A23F00103022908BF43F0BD
S21400262001035362144B2178C3F8A014637AA1887F
S21400263043EAC123D362136BA07A217A03F07F6347
S2140026400343E08843EAC02343EAC11303310F295A
S21400265028BF0F2143EA01731363A37B617B1B0131
S21400266043EA0133E17B0B43217B43EA0143536397
S21400267010BD00BF00400E400000C84338B50E4DE8
S21400268001461120FFF738FCAA6B0C4B0C78134060
S2140026901C434B7844EAC3248B7844EA0364CB7823
S2140026A044EA0324AB6BA34205D00021012208466E
S2140026B0FFF71CFEAC6338BD00400E4080E4FFF818
S2140026C00028A7BF00F1604000F5614000F00F0051
S2140026D0034BACBF90F80003185C4009704700BF7E
S2140026E014ED00E0EFF3108072B6704700B962B6E2
S2140026F07047EFF31180602383F31188704780F3EF
S214002700118870474209054B53F8223000F01F002D
S21400271023FA00F0C04300F00100704700E100E03B
S21400272008B50146EFF31083DB0702D501221046F9
S21400273008BDFFF7E7FF02460028F7D10846FFF777
S214002740BFFF0146EFF3118313B1B0EB531FEDD279
S214002750074B5B68C3F30803002BE8D0103B58B266
S214002760FFF7AEFF88428CBF00220122DFE700BFE2
S21400277000ED00E0436823F01F030E290BD8DFE8C6
S21400278001F008080808080B0B0B080808080B0BD4
S2140027900B00194341607047194341F01001F9E7F7
S2140027A070B5066A056A046A036A102AC1E90065FC
S2140027B0C1E9024307D1056A046A026A036AC1E9ED
S2140027C00454C1E9062370BD30B58B0789B00C46AA
S2140027D015460BD06946FFF7E3FF082D0CBF102205
S2140027E0202220463EF024FC09B030BD009100991E
S2140027F009B0BDE83040FFF7D3BF0000034BD86BED
S21400280080F04000C0F38010704700BF00300E40DC
S21400281042EA0323B3F5007F39D016D8B3F5807F9C
S21400282031D007D85BB3012B1ED0002213460360BD
S2140028300A60704740F201129342F6D1184BD3F863
S21400284024321A0EC3F30743F1E7B3F5407F22D0D4
S21400285040F2013293420ED040F201229342E4D17C
S2140028600F4BD3F8283202E00D4BD3F82432C3F3D3
S2140028700722DBB2DBE70A4BD3F82832E1E7084B46
S214002880D3F81C32F3E7064BD3F81C32D9E7044BD7
S214002890D3F82032EBE7024BD3F82032D1E700BF63
S2140028A00081E00F08B5FFF7A9FF20B1024AD2F871
S2140028B0C830002BFBD108BD0000C64370B50446E7
S2140028C00E46FFF79BFF10B3FFF7ECFF104B5B685D
S2140028D0C3F301439C421AD00E4BD3F80031FDF7E8
S2140028E049FD022C054602D12146FFF74BFAC4F1FA
S2140028F0020210239340064A13610EB1FFF7D2FF7F
S2140029002CB921462846BDE87040FFF73BBA70BD9B
S21400291000300E4000400E4013B50246FFF76EFF33
S214002920C8B152B90D4B0191D3F80041FDF722FD15
S214002930C4F30422019902FB0002094B1B7843B141
S214002940084B9A4205D8022002B0BDE81040FFF7B7
S214002950B5BF0020F8E702B010BD00BF00400E4033
S214002960AC1B0020002D31010378134A002B43785E
S21400297070B514BF04260026002B8378946914BF14
S21400298002250025002B037924F03F0443EA0403C4
S214002990C47814BF08210021012C08BF43F00103AE
S2140029A033432B430B4393611368417923F440333D
S2140029B043EA0143136070BD00300E40224B4AF6D6
S2140029C0E85210B5596B5A639A6FD207FCD41B6C49
S2140029D013F003031EBF1D4A0124C2F8B44A834203
S2140029E004D110B9194BC3F8B40A10BD032B00D09C
S2140029F09BB9431E012B10D8134A4FF40023D36211
S214002A00936FDB07FCD4136C23F0030343F001033E
S214002A1013640D4A536A1C03FCD50B4B9A6FD207FE
S214002A20FCD41A6C22F0030202431A649A6F12F066
S214002A300102FBD10038054C18BF01200129C4F85B
S214002A40B40A08BF5A63D0E700300E400000C64301
S214002A502DE9F04F002389B0CDE90233CDE90433E8
S214002A60CDE90633A0F5E163B3F5966F04460D464F
S214002A70914604D90025284609B0BDE8F08FB0F588
S214002A80E16F674B8CBF0122002240F0BC80D3F878
S214002A901832C3F30721DBB2079104934FF4167A7A
S214002AA04FF4966BDFF87C81D8F84C700192C7F330
S214002AB001773B4605A902A8FFF7AAFED8F8E06012
S214002AC0019AC6F30126334606A903A8FFF7A0FE1F
S214002AD0049B0799A4EB0B0EA1EB030C0EFB0CFC5E
S214002AE0BCFBFAF213EB020C2CBF0123002361455A
S214002AF0C0D3002BBED1069A0398131A0EFB03F31D
S214002B00B3FBFAF3C0182CBF012300238242B1D3D3
S214002B10002BAFD1059B02995A1A0EFB02FEBEFB94
S214002B20FAFA11EB0A012CBF4FF0010E4FF0000E1F
S214002B308B429FD3BEF1000F9CD1B9F1000F10D08D
S214002B40D8F85C2022F4FE4222F00202B4F5E16FCF
S214002B5042EA0C2218BF4FF0020E42EA0E02C8F8F4
S214002B605C20002D4DD02E4B022FD3F830223ED0C5
S214002B70032F3FD0012F14BFD2B2C2F30722120395
S214002B8012F4702F7FF476AF264FFB6E23F470435B
S214002B901A43234BFA66022ED3F830222CD0032E8B
S214002BA02DD0012E14BFD2B2C2F30722120312F4A4
S214002BB0702F7FF45FAF1B4ED6F8E03023F47043DF
S214002BC01A43C6F8E020736E814238BF014623F4EC
S214002BD0FF73E72923F0010328BFE721B4F5E16F6F
S214002BE018BF43F0010343EA4103736643E7C2F3A9
S214002BF00742C4E7120EC2E7C2F30742D6E7120E38
S214002C00D4E7012537E7D3F81832190EC3F3074384
S214002C10079104934FF4966A4FF4E16B42E700BFC6
S214002C200081E00F00300E40304B1A6FD96C11F067
S214002C30010F02F0060244D0002A42D0132851D9D0
S214002C40143813288CBF102308232849013BCA6C6C
S214002C50180322F47F4240EA03231343CB64244B39
S214002C60CA6C1B88C2F303222833013202EB8200AF
S214002C7003EB5303B3FBF0F3C86C013B072B28BFF1
S214002C80072320F0EE6040EA036343F48013CB642E
S214002C90184BB3F90030002B12DB03F12800C0F309
S214002CA04E030344500800EB4202B3FBF2F20B6DF6
S214002CB0072A28BF072223F0700343EA02120A6598
S214002CC07047D96C01F00101114304D1092809D9D4
S214002CD00A380928B6E7DB6C13F00103B5D01AB939
S214002CE02728AFE70423B0E70023AEE700300E4006
S214002CF0A81B0020AA1B0020064A074BD3F88039E1
S214002D00136F23F007031843044B10671888FFF768
S214002D108BBF00BF00300E400000C643A61B00203D
S214002D2038B504468088E388B4F90C504A2B50D94D
S214002D30B3F5FA7F4FD340F6C312934294BF4FF0D9
S214002D4000524FF040522949CB6C23F0405323F0F9
S214002D500103002DA8BF43F001031343CB64D1F851
S214002D60E03043F44073C1F8E030214B1880CB6E5E
S214002D7043F08073CB661F4BD3F8800900B1042064
S214002D80FFF7BAFF1C4B218919801C4BB4F90C20A5
S214002D90A0881A80FFF748FFA37BFBB1012B21D048
S214002DA0012260881146FFF753FE054678B10F4AA8
S214002DB0D36B43F48063D3636078FFF7FFFDA37A99
S214002DC0A3F12002534253410A4AC2F894372846D8
S214002DD038BD0022B7E74FF08052B4E7034B084AED
S214002DE09A65DDE7014B074AFAE700BF00300E4060
S214002DF0A61B00200000C643A81B0020AA1B00201C
S214002E0077402057372110B770B505460E46144652
S214002E10FFF768FC296881EA040202EA06044C40CF
S214002E202C60BDE87040FFF761BC0000072AF8B5CB
S214002E3001F0030614461F464FF00F0120D89500F8
S214002E4000FA05F2A9401648FFF7DEFF03211548F1
S214002E5006FA05F2A940FFF7D7FF13499DF8183088
S214002E602144890001220F60C1F880300F4B02FA1E
S214002E7004F4C3F824449DF81C30C1F80033F8BDB0
S214002E80A2F10805AD0000FA05F2A9400848FFF7D0
S214002E90BBFF0321074806FA05F2A940DBE700BF9F
S214002EA000A4004008A400408020851000A0004038
S214002EB004A400400CA40040F0B54AB11D4C3026D6
S214002EC0012546438D4034440BB304F1C0642560AD
S214002ED03024444304F18044072904F5204419D8DB
S214002EE065688E000F27B74025EA070502FA06F642
S214002EF03543656052B9012202FA01F1302250438F
S214002F000C4A02449BB102F1C0621160F0BD04F1AC
S214002F108064DCE7A1F10805A668AD000F27AF4086
S214002F2026EA070602FA05F53543A560E2E702F150
S214002F308062EAE70CA00040034B03449B0081F04C
S214002F4001011960704700BFA001F11010B50446DA
S214002F5001214FF4AA40FEF723FFB4F8013022788F
S214002F605BBA9BB243EA02630B4A13600023136208
S214002F70D36253634FF00043D3664FF0FF3393663C
S214002F80064A4FF40071C2F88011E3785B01DBB2A9
S214002F9082F80933116010BD00200E4000E100E009
S214002FA02DE9F041C3B2254E91F80AC00F7B0125EA
S214002FB00C469D404FF03008CB7A497B08FB0060FA
S214002FC04FEA035E2368C0F880304EEA0C4343EABB
S214002FD0475322F00302C0F88810C0F88430C0F8C7
S214002FE09820B566FFF785FBF36E2B43F366237ACE
S214002FF013B1736B2B437363637A13B1F36A2B437A
S214003000F3620E4B1A68237923B1DB431B0263F489
S2140030107F431A4063790BB142EA0322A3790BB1CE
S21400302022EA0302E3791A43044B1A60044A9562C3
S214003030DD63BDE8F041FFF762BB00BF00200E4035
S21400304000200E4410B5C0B201248440FFF751FBA7
S214003050054AD36E23EA0403D366044B1C62BDE81C
S2140030601040FFF74CBB00BF00200E4000200E446F
S214003070F8B5C3B2012504469D40FFF73AFB0A4B5C
S21400308030221E6E9F6A02FB0433D3F88C40FFF793
S21400309036FB3D4206D1C4F30A1008B9354200D1CA
S2140030A00130F8BD0020FCE700200E40036CDB0773
S2140030B002D4436C0B42FCD1704708B50A468368BD
S2140030C0DB06FCD54021FFF7F1FF826208BD000059
S2140030D0054B5A685B68054B41F671321A649A686C
S2140030E022F001029A60704700300E4000000E4049
S2140030F0034B9A6822F001029A6000221A64704715
S21400310000000E40094A0A4BD969C90705D512B90D
S2140031106FF002007047013AF6E7002AF8D0012265
S2140031201861DA60D86940F380007047809698008E
S21400313000000E4070B5C1B10E4A0023082550F8B5
S214003140234094610C4CD5600133D669F60705D54B
S21400315014B96FF0020009E0013CF6E7002CF8D045
S214003160D469A40703D49942E9D1002070BD6FF05A
S2140031700100FBE700000E40809698002DE9F8431A
S2140031801C4B884641F671311D6C19641A49074676
S21400319048684968996841F00101ADB2996096089F
S2140031A04FF00009B14501D3002005E007EB890484
S2140031B02046FFF7A7FF48B10E4B9A6822F001029F
S2140031C09A600DB100221A64BDE8F883C4F30A04BD
S2140031D0C4F50064A408A6EB0901A14228BF214655
S2140031E04046FFF7A7FF0028E6D1894408EB810890
S2140031F0D8E700BF00000E4000300E40234B41F6DB
S21400320071311A6C10B5196421494C68496899687F
S21400321041F00101996001211861D960D9694C0714
S21400322092B209D5996821F0010199600AB100228D
S2140032301A644FF0FF3026E00221D9601549D8699C
S214003240C00700D569B9D86910F002000BD099689C
S21400325021F0010199600AB100221A646FF00100A2
S21400326011E00139EBE741B9986820F00100986059
S21400327002B119646FF0020005E0996821F00101BF
S21400328099600AB1186410BD1046FCE700000E40B5
S21400329000300E4080969800FFF770BF014B012269
S2140032A09A60704700500E40134B1449F0B5002248
S2140032B05D68134E1046D6F8E8714C680B687F07B9
S2140032C00BD4B3F5006F06D012D8B3F5007F02D04A
S2140032D0B3F5806F01D144F480742B4202D02C42A7
S2140032E008BF18430132092A01F10801E3D1F0BDF5
S2140032F0B3F5803FEEE700BF00500E40D4BB04009D
S2140033000040E00F8B784A789B0143EA82030A78F4
S2140033101343CA7843EA02130A7943EAC2234A7976
S21400332043EA02338A79043043EA42430001014A01
S2140033301350704700200440014B1860704700BFD0
S21400334000008442427801790378002A827870B5BA
S21400335014BF04260026002AC27814BF10250025B4
S214003360002A42794FEA023242EA012242EA030286
S214003370837914BF20240024002BC37942EA034338
S21400338043EA0603027A43EA050314BF4FF40041FA
S21400339000212343002A14BF4FF4003200220B43BF
S2140033A01343014A136070BD002004400D4AD2F852
S2140033B0E430D2F8E0109B0003F03C03C1F3811127
S2140033C00B438370D2F8E03003F03F034370D2F82B
S2140033D0E830D2F8EC2003F0F003C2F303121343F4
S2140033E00370704700FF0FE070B5054616461C4692
S2140033F019B91448FEF720FE0146402C1BD003D80E
S214003400DCB1202C1BD070BD602CFCD1042303FB48
S21400341006F2560806EB4113B3FBF2F30A4A203BCA
S21400342002EAC3032A6822F060022A602A6814436C
S2140034302C606B61E7E70623E9E71023E7E708233C
S214003440E5E700BF40410500F8FF7F0038B50546B8
S214003450144619B90548FEF7EFFD01460139640028
S214003460B1FBF4F10902696138BD00BF40410500B7
S214003470CB435B0003F00A03C360C16070470000E3
S21400348040F6AA63C36041F205020023036042606F
S2140034900C4A83604361C36482640B4A03669042AD
S2140034A0436702F580628367C36704D0904202D008
S2140034B00649884200D1036500239042836508BF11
S2140034C0C3657047F9FF0100000001400008014095
S2140034D038B50C46FFF7D4FFA37C05461BB103683E
S2140034E043F080430360E37C1BB1237D43F08003FD
S2140034F0AB65228A637B1343E28913436B60237BAD
S214003500D4E901122846FFF76FFF637D1BB12B68D5
S21400351043F480332B60A37DE27D1B07120502F483
S214003520E00203F0E04313432B666B6F23F0300397
S2140035306B676A6F237E13436B672378EB6038BD37
S21400354038B50C46FFF79CFFA17B228A036800294A
S21400355042F0010214BF4FF48061002113430B4375
S214003560227D03600368002A14BF4FF00052002239
S21400357013430360A37C05461BB1E37C43F0800342
S2140035808365237B43F480536B60D4E9011228469D
S214003590FFF75CFF637B0BB11023EB60637D1BB111
S2140035A02B6843F480332B60A37DE27D1B07120556
S2140035B003F0E04302F4E00213432B662378EB604B
S2140035C038BD03695A06FCD5416303699B06FCD5E2
S2140035D0C069C0B2704703695B06FCD5416370479B
S2140035E038B5044641F001FC0FCC044D0FC594E8F5
S2140035F00F0085E80F00002038BD00BFB01B00207C
S21400360047F6FF739A42F0B562D0022962D8324E6E
S21400361006EBC10016F831308578012DB8BF0125BC
S214003620012B4FEAC1070DD1C3785B1B23B141685C
S21400363031F91310914202DC5819C0B2F0BD013BBB
S2140036401BB2F3E740680028F8D0B0F90030934288
S21400365004DBB0F902309342B8BF134682883E447A
S214003660FF2A08BFB0F90640767807BFB0F9081001
S2140036700122C824002218BF2821E41A94FBF1F482
S214003680224414B2721EA242A8BF22464FF47A7792
S21400369000EBC2040132E188A46812B213FB0141B8
S2140036A021EAE171B24201F5FA71B1FBF7F104DAF1
S2140036B000EBC204A4888C42EAD200EBC20232F8C5
S2140036C0040C884228BF0846A84238BF2846B4E7FC
S2140036D0FF20B3E70020B1E7B01B00200229F0B5B9
S2140036E05FD8314B13F83100012816D103EBC10126
S2140036F08C78C878012C2346B8BF0123904294BF2B
S214003700C3EB0003C3EB0203DBB2001B4A68834231
S214003710C8BF002332F91300F0BD002A3FD003EBE8
S214003720C1014C68002C3CD08B78934202D3B4F98C
S2140037300200F1E7CB78B4F900009342ECD94B785D
S214003740A188FF2914BF03F1FF33023BDBB2251D1E
S214003750002104F10C071FFA82FCCEB2B34216D841
S21400376005EBC1014FF47A75B1F9023049686A4336
S214003770521A03EBD37102EB610292FBF3F2904212
S214003780CADBB4F902009042C6DC10B2C4E737F8D0
S21400379031E0E64501F10106E2D33146DDE70348B4
S2140037A0BAE70348B8E700BFB01B00200CFEFFFFD7
S2140037B00080FFFF08B50448FFF712FFBDE8084089
S2140037C0012041F05DBB00BF1CBC04007FB5094B67
S2140037D009490222CDE901234FF08373CDE9031393
S2140037E04FF0FF300D2301A9059341F019FC07B0F7
S2140037F05DF804FB006A180006010C007FB5094B53
S2140038006A4603F11006154618685968144603C43C
S2140038100833B3422246F7D12846FFF781FA002044
S21400382004B070BDD4BC040013B50223002468465F
S21400383000948DF804408DF80530FFF795F8204683
S21400384002B010BD70B5164B86B001AA03F1100683
S214003850154618685968144603C40833B34222460E
S214003860F7D11B8823800F4BD3F8B42012030ED455
S214003870D3F8B830C3F308030B48ADF80A30FCF7AA
S214003880BBFD2846FEF7BAFE002006B070BD074B0B
S2140038901B884FF6FF72934208BF4FF4A573EBE701
S2140038A0E4BC04000081E00F00F049020001E00FD4
S2140038B007B5084B18680190202301A88DF804303E
S2140038C0FEF7DCFE6420FEF781FC002003B05DF806
S2140038D004FB00BFF6BC040010B50C480C4C6FF09F
S2140038E00402A02112F0800FD3B21BBF03F00F0317
S2140038F0043BA3181B1802F101020CBF83F8001347
S21400390019762F2AEED1002010BD00BF00ED00E092
S21400391000E100E0BFF34F8FBFF36F8F054B5A6A8D
S21400392022F480325A62D3F8942022F00102C3F8BF
S2140039309420704700ED00E0013A42EA520242EA63
S214003940920242EA121242EA122230B542EA1242C9
S2140039500132B2F5807F38BF4FF480725442044083
S21400396015198D4205D31C60039B1D60049B1A60CD
S21400397030BD5200F2E70000F0B5364D3649374804
S214003980002387B0CDE90333FFF7C4FF2C68344B20
S2140039904FF00052C3F89840661CC3F89C20814242
S2140039A0304AC3F8A0202E6042D005AB019304AB8A
S2140039B00A1A009303ABFFF7BFFFDDE90372059B0E
S2140039C0DFF8A4E0072BA2EB01024FF001018CBF49
S2140039D04FEAD30C4FF0200CB2FBFCF201FA02F2D5
S2140039E0013AD2B2AEEB070EB3FA83F3BEFBFCFE8F
S2140039F0C01B8E44B0FBFCFC01FA0CF102FA0EF27E
S214003A000139C3F11E030A435B0002F0FF0203F014
S214003A103E0343EA022343F04073114A43F0011386
S214003A200234C2F89860C2F89C70C2F8A0302C60CD
S214003A30BFF34F8FBFF36F8F094B0522C3F8942057
S214003A405A6A42F480325A62BFF34F8FBFF36F8FC9
S214003A5007B0F0BDD01B00206412002064120020C6
S214003A6000ED00E03900011363120020F0B589B0C4
S214003A700023CDE905330392FFF74CFF07AB019314
S214003A8006AB039A009305ABFFF756FF079A069B13
S214003A90059D072A03F1FF338CBFD70820275B1A42
S214003AA04FF0010C3B44B3FBF7F30CFA03F3013B76
S214003AB00446DBB2E8430144B1FBF7F103FA01F137
S214003AC023183B44B3FBF7F30CFA03FC0CF1FF336B
S214003AD0194301F0FF01FF2929D0B2FA82F3C3F19E
S214003AE01E03144C144A2068C2F898005B0003F0CA
S214003AF03E0343EA012343F0985343F00113013099
S214003B00C2F89C50C2F8A0302060BFF34F8FBFF3BE
S214003B106F8F0523C2F89430536A43F480335362A0
S214003B20BFF34F8FBFF36F8F002009B0F0BD282082
S214003B30FBE700BFD01B002000ED00E0BFF34F8F77
S214003B400549064BCA6802F4E0621343CB60BFF334
S214003B504F8F00BFFDE700BF00ED00E00400FA0550
S214003B6008B5FFF7EBFF08BD30B50F4C4161236881
S214003B70ABB92060836011E0891A9A6841611D46DE
S214003B802AB113465A698A42F6D955B11A46A86030
S214003B901346836013B15A69511A596130BD002526
S214003BA0F0E72060F5E700BFEC1B002038B500F01A
S214003BB063FA094B094A196839B113684C69C51A82
S214003BC0AC4204D323441B1A4B61106003E0001B75
S214003BD0002310604B6138BDEC1B0020D81B002072
S214003BE038B50F4B0F4D1C682B685B6902201C44D0
S214003BF000F070FA204600F045FA0B492A680023C8
S214003C000B70D088800702D501230B7038BD9268F0
S214003C10002AFBD050690344012BF2D9F6E700BF17
S214003C20D81B0020EC1B0020E01B002070B59DF880
S214003C3014500571002516468560049ABDF8185084
S214003C40C580C0E90336044602600D4629B94161C5
S214003C500BB11146984796B13546FEF74AFD064623
S214003C60FFF7A4FF29462046FFF77EFF054B1B689B
S214003C70A34201D1FFF7B4FF3046FEF740FD002017
S214003C8070BD00BFEC1B00200C490B6800227BB106
S214003C9083420AD183687AB1936083681BB15A69FC
S214003CA041690A445A61002070471A469B68EEE74D
S214003CB00028EFD0022070470B60EEE7EC1B0020D8
S214003CC070B5154EFEF715FD34780546FCB9134B56
S214003CD01C60134B1C60134B1C8000F089F90120FC
S214003CE000F0F8F900F044FA0F4B0246186020B9CD
S214003CF02846FEF704FD232070BD23460B4840F2FD
S214003D00E7313CF067FF0A4B186001233370284602
S214003D10FEF7F5FC0020EFE7D41B0020EC1B00208C
S214003D20D81B0020E21B0020E81B002018FCFFFF29
S214003D30DC1B00202DE9F0410546F8B1FEF7D9FC62
S214003D400F4F0646FFF732FF2846D7F80080FFF7EA
S214003D509BFF044628B13046FEF7D1FC2046BDE85E
S214003D60F081A8453B6803D123B1FFF739FFF2E79E
S214003D70002BF0D1022000F0BBF9ECE72224EDE79F
S214003D80EC1B002038B50C46054698B191B10023CF
S214003D900B70FEF7AEFC084B1B6801210BB12278B6
S214003DA01AB1FEF7ACFC002038BDAB4214BF9B68CE
S214003DB02170F3E72220F7E7EC1B0020F0B587B070
S214003DC01F4600230D4616468DF817300446A0B150
S214003DD00DF11701FFF7D6FF9DF817207AB9BDF849
S214003DE0343002939DF830302946CDE900732046E2
S214003DF03346FFF71BFF07B0F0BD2220FBE703208A
S214003E00F9E7000070B5FEF774FC064600F034F9DA
S214003E10084B1D8804460120ADB200F081F918B1A8
S214003E2000F02AF9013504463046FEF768FC2046C5
S214003E30294670BDE21B00200A4B1B68834210B562
S214003E400C460CD3084B19684FF47A720023A0FB7B
S214003E5001013CF0BFFE01302060002010BD212093
S214003E60FCE700BFDC1B0020E81B0020164B83424B
S214003E70164B8B4170B5144624D3154B4FF47A7508
S214003E801A68A0FB050305FB0131A2B1551E1540BB
S214003E9011D1B2FA82F3C3F11F065A1C01FA02F2DC
S214003EA0DB43F04021FA03F310431843F140C4E922
S214003EB00001284670BD00233CF08CFE0025C4E9B6
S214003EC00001F6E72125F4E7EFA7C64B3789410046
S214003ED0E81B00202DE9F84F0446E0070BD5404AC2
S214003EE0138801339BB21380FFF760FE3D4B1B68BF
S214003EF00BB1FFF775FEA10770D5DFF8F09000F064
S214003F00BBF8D9F800700646C71BFEF7F2FB4FF069
S214003F10000805464246C346324B1C6814B1636926
S214003F20BB4216D9B8F1010F52D1D3889A1E53421C
S214003F3053412D4A1370002C4CD06369C9F80060B9
S214003F40DB1B6361FFF74CFE2846BDE8F84FFEF723
S214003F50D6BBC9F8006023463A465969914209D84B
S214003F60187994F804C0844588BF1C469B68521A8A
S214003F70002BF2D12846FEF7C2FB6569C4F814B0E0
S214003F80FEF7B7FB82462046FFF77EFE5046FEF75A
S214003F90B6FB23694BB1FEF7ACFB2169824620468F
S214003FA0FFF7E2FD5046FEF7AAFBE36813B121686F
S214003FB02046984700F060F835447F1B8246074449
S214003FC0FEF797FB08F10108054622465646A3E78A
S214003FD00023AEE7022000F08BF8B5E7BDE8F88FC7
S214003FE0E21B0020EC1B0020E41B0020D81B002056
S214003FF010B51D4B86B01868596803AA03C2197A13
S214004000D3F8090011700190B3F80D201748DB7B38
S214004010ADF8082001218DF80A300024FDF7C0FE17
S21400402003A88DF80C408DF81040FFF78BF901A916
S21400403001208DF80440FFF765F90D4A536A23F412
S214004040FF6323F00703536240F2FF7313620120FD
S2140040509460FFF771F9074B4FF00042C3F88021D8
S2140040601A6006B010BD00BFFABC0400A009140018
S2140040700020044000E100E0014B9868704700BF54
S21400408000200440114A9368516D9269520704D487
S214004090CA1A032A01D899420DD1C21A022A98BF19
S2140040A0D81C0A4BB0F1FF3F38BF013858655A6A32
S2140040B042F004025A62064A137833B103490B6D84
S2140040C043F002030B650023137070470020044082
S2140040D03E1000208207054A00F00103516A48BFDF
S2140040E043F004030B435362704700BF00200440B4
S2140040F0820700F0010309D5074A0121117007491C
S2140041000A6D22F0030243F004030A6503494A6A73
S21400411022EA03034B6270473E1000200020044052
S214004120064B01289B6904D0022805D1C3F3800002
S214004130704703F0010070470020704700200440DD
S21400414010B5FEF7D6FA094A93690446590703F0F4
S214004150010003F0070348BF40F002001362FFF7B8
S214004160B9FE2046BDE81040FEF7C9BA002004405C
S2140041700148FDF761BF00BFA009140008B53CF078
S21400418055FB3CF09DFB3CF0A4FB3CF0ABFBBDE8D4
S21400419008403CF0B0BB08B53CF0AFFB3CF0AEFBD3
S2140041A03CF0ADFBBDE808403CF0AABB10B50446A9
S2140041B0FCF70AF94FF47A735C43B0FBF3F3064856
S2140041C0B0FBF3F0B4FBF0F0032804D9BDE81040D0
S2140041D0800800F005B810BD40420F000000000047
S2140041E0013800D0FCE7704701F0FAB901F0F8B9E1
S2140041F008B50548182200213CF042FFBDE80840FB
S214004200012040F0A1BA00BFFC1B002007B5FFF755
S214004210F9FD6A46FFF72AFE28B1054B054A06480F
S2140042205E213CF059FE009803B05DF804FB00BF29
S2140042300ABD0400B7BD040021BD040030B518480F
S21400424085B00D461446FFF775FD164B2C441C60D2
S214004250FFF7DCFF144B201A00284FF001041C70F7
S21400426004DC05B0BDE8304001F0BAB903A9FFF799
S214004270E3FD034628B10D4B0D4A7B210D483CF06B
S2140042802BFECDE900040C4A03990548FFF796FD7E
S21400429018B1064B064A7F21F0E705B030BD00BFD7
S2140042A0FC1B0020F41B0020F01B00200ABD0400AD
S2140042B09FBD040021BD0400E941000008B5034885
S2140042C0FFF738FD024B00221A7008BDFC1B0020C9
S2140042D0F01B002040F0B6BE70B5104E30680D469C
S2140042E0144640F063FA0E4B2C441C6040F0AAFEC5
S2140042F00C4B211A012200291A7003DCBDE870401D
S21400430001F06EB9084B306840F042FA28B1074B0E
S214004310074A0848D9213CF0DFFD70BD201C00206C
S214004320F81B0020F11B0020ED41000068BD0400D2
S21400433087BD040021BD040008B5044B186840F092
S21400434035FA034B00221A7008BD00BF201C00205F
S214004350F11B002070B50446FEF7CBF9124B1B7814
S214004360054663B1114B1E68FFF750FF301A002850
S21400437005DC2046FFF7A2FF20461BF07BFC0C4B1B
S2140043801B7863B10B4B1E6840F05CFE301A0028A9
S21400439005DC2046FFF7D0FF20461BF0A3FC28468E
S2140043A0BDE87040FEF7ABB9F01B0020F41B002000
S2140043B0F11B0020F81B002020B1034B984214BFCD
S2140043C001201720704700BF0BE000F02DE9FF41E9
S2140043D00E46174632B329B3DFF84C800402002598
S2140043E045EA040141F4003103ABD8F8000001911E
S2140043F002AA3FF077FDFFF7DFFF172801990AD1E1
S214004400D8F800003B4632463FF0D4FC04B0BDE886
S214004410F041FFF7D1BF10B901350B2DE0D104B044
S214004420BDE8F0810720FAE71410002008B50A4B13
S214004430186890F834301BB1084B00221A7008BD7B
S214004440074B19683FF0E6FBFFF7B6FF0028F6D1EA
S214004450024B0122F2E700BF14100020141C0020BB
S214004460181000202DE9F04F09028DB041F40037F6
S2140044700026DFF8C4B004929946B246172447F0E7
S2140044800A053B460422DBF80000009508A93FF029
S2140044906FFD08AB03903218964201D1002336E038
S2140044A0049953F8047B8E4243D107ABDBF8000037
S2140044B006AA39463FF016FDFFF77EFF044628BBE6
S2140044C0079B1FFA83FAB9F1000F1FD0169AEAB1BC
S2140044D05046CDF814A03CF08BFD059B0246804666
S2140044E03946DBF800003FF0AFFCFFF765FF0446F7
S2140044F040B9169B1A88524528BF52464146484640
S2140045003CF096FD40463CF07BFD5CB90123039AE7
S214004510032A05D90A2E07F1010701DC002BB0D0CB
S214004520169B13B1169BA3F800A020460DB0BDE85D
S214004530F08F0136B0E700BF141000200846114681
S2140045401A46FFF743BF00002DE9F04F090241F479
S2140045500036DFF890B08BB090460027172446F060
S2140045600A053346DBF800000095042206A93FF052
S214004570FFFC3B1882460DF118090393039B9F42EC
S21400458001D100231EE0474559F8046B02D0B8F16C
S214004590FF3F24D105ABDBF8000004AA31463FF00C
S2140045A0A1FCFFF709FF044640B9DBF800003146DE
S2140045B03FF0E8FCFFF700FF044660B9B8F1FF3FA4
S2140045C00DD00123BAF1030F05D90A2F06F1010613
S2140045D001DC002BC5D020460BB0BDE8F08F0137BC
S2140045E0CCE700BF14100020F8B516464FF0FF3297
S2140045F00D461F46FFF7A8FF08B1172806D13A4612
S21400460031462846BDE8F840FFF7E0BEF8BD10B5D5
S2140046100024A1B24FF0FF3200200134FFF794FFD0
S214004620082CF6D110BD000008B5FEF73DFE034B82
S2140046301860BDE80840FEF731BE00BF181C002019
S214004640BFF34F8F0549064BCA6802F4E062134376
S214004650CB60BFF34F8F00BFFDE700BF00ED00E06B
S2140046600400FA05054B1B7803F0FF0023B1044B4A
S2140046701B681878C0F34010704700BF281F002042
S214004680301F0020064B074A1B6812781B8802F072
S214004690FF0022B103F00700C31E5842584170477E
S2140046A0301F0020281F0020054B1A79824205D8AB
S2140046B05A79824238BF0023184670470023FBE72A
S2140046C0281C002083884BB18268013282604288B1
S2140046D0013B013A428083800020704701207047EA
S2140046E038B50C468A88896805463CF0A1FCE16826
S2140046F041B1A0886288121A92B22844BDE83840B8
S2140047003CF096BC38BD000037B504461C4B1D4D2A
S214004710216818689B880090ADF804302868D1B1ED
S214004720002240F0EFFA2379834206D0164B174A50
S21400473040F2312116483CF0CFFB012203232868C3
S2140047408DF80030114640F046FF60B1114B0F4A1D
S21400475040F23721EEE740F00DFF20B10D4B0B4A3B
S21400476040F24121E6E72868694640F028FB20B180
S214004770084B064A40F24521DCE703B030BD00BFD7
S2140047800CC00400201C0020CEBD04005DC0040048
S214004790F7BD040068BD040038B504460D46FDF7B5
S2140047A0A8FF064B1A8892B22DB114431C80BDE8B0
S2140047B03840FDF7A4BF22EA0404F7E7241C0020D3
S2140047C010B5FFF74FFF30B9104B114A40F2F371A6
S2140047D010483CF081FB104B1B881B0704D40F4B82
S2140047E00B4A40F2F471F3E70D4B0E221A700024C8
S2140047F00C4B214608201C70FFF7CEFF0A4B1868AA
S2140048003FF082FF094B1C7010BD00BF3EBE040087
S214004810A3C00400F7BD0400241C002050BE040002
S214004820291F0020281F0020201C00201C1C002000
S214004830427A70B590F90A60C57A046832B1084BBE
S21400484000225E759D759C60DA6070BD054BC3E9FD
S2140048500242DA7D5E7561F300029D75DA75F4E753
S214004860601E0020881E002038B51D460B4B1446DF
S2140048700A460146186840F0A6FB08B1002038BD7D
S2140048806088A368411C89B229801B788B42F5D1C9
S21400489003387B288CBF00200120F0E7201C002076
S2140048A000210420FFF778BF2DE9F0431B4BDFF80B
S2140048B07C801B4F187085B0D8F800000D46164651
S2140048C0002101223A703FF01AFFE8B2FFF7ECFE33
S2140048D00446F0B1DFF85890D9F80030984203D07B
S2140048E0FFF712FFC9F80040FF238DF804300D4B88
S2140048F0D8F80000CDE90236324601AB29463FF033
S2140049008DFF38B1084B7F221A7002233B700120BE
S21400491000E0072005B0BDE8F08300BF381E002089
S2140049203A1E002020A10700391E0020201C00206F
S214004930341E002008B50E4B1B889B0713D5012894
S2140049400C4B11D10F22002120201A70FFF724FFF4
S21400495000210220FFF720FF074B18683FF0D4FE27
S214004960064B00221A7008BD0B221A70F0E700BF33
S214004970241C0020291F0020201C0020281F0020A7
S2140049802DE9F0471446A2028AB005461E461AD5FF
S214004990A44B1B78002B00F0EB8005A940F058FED6
S2140049A0002840F0FF809DF81C30032B00F0D980D3
S2140049B09DF81C30022B06D1BDF814000EF06CFEDC
S2140049C0002880F2D480E30104F0807240F1FB807E
S2140049D0954B1B889F070DD502200021FFF7DCFEB4
S2140049E0FFF740FE0746002800F0E480012108207B
S2140049F0FFF7D2FE200775D5284640F0ECFADFF820
S214004A003C82014605AAD8F8000040F0D5FA814657
S214004A10002867D09DF81430072B63D10DF10203F0
S214004A2005AA01A9FFF720FF00285BD005A8FFF71D
S214004A3049FE002856D1BDF81830002B40F0D28031
S214004A40089B1F789DF80D30002B00F0CD80BDF838
S214004A500230052B46D107F00703022B42D1DFF8C0
S214004A60F8A105A9DAF80000FFF73AFEBDF8023013
S214004A70D8F80000AAF80430494640F0AEFAFFF72E
S214004A80F1FD40B3694BDAF800201B6892789B78FA
S214004A909A4220D19DF80A3023B3BDF80230D8F8E8
S214004AA00000013301A9ADF8083040F090FA014645
S214004AB0C0B901A8FFF7BCFE5D4B19705D4B08201E
S214004AC01970FFF769FEFFF7DDFD20B1F90642BF5A
S214004AD0594B01221A70FFF7D5FD18B9D8F8000017
S214004AE03FF012FEA2014FF000080CD5524F41468F
S214004AF00420FFF751FE3B782BB1504B18683FF06F
S214004B0003FE87F8008014F0084F01D0FFF7C8FEB8
S214004B10A30001D5FFF7C4FEA70705D5424B1B88A7
S214004B20180701D5FFF74CFE71060AD53E4F3B88A5
S214004B301A0701D5FFF744FE3B885B0701D5FFF750
S214004B40AFFEF70540F1A88028463FF0B1FD0B28E0
S214004B5040F084803A4B3B4A40F60C013A483CF021
S214004B60BBF905A80EF0F0FD0028FFF621AF284699
S214004B7040F06CFDB0B9314B05A9186840F020FA3A
S214004B8005A8FFF79FFD00287FF41DAF079A089B36
S214004B90BDF81810002918BF13461A7862F07F0275
S214004BA01A7010E702283FF40EAF284B284A40F24E
S214004BB05771D3E7214B18683FF0A6FD1D4B1F70B9
S214004BC01B4B1F7016E706F002031A4303D00120A2
S214004BD0FFF7B0FE0EE704F0A84213433FF40AAF17
S214004BE00220F5E7079B2CE71A4B1B7823B9BDF884
S214004BF00230052B3FF476AF17F0200704D00121D2
S214004C000420FFF7C9FD6DE7DFF82C9099F8003017
S214004C10002B3FF467AFD8F800003FF075FD89F829
S214004C2000705FE73B1E0020241C0020301F002081
S214004C30281F0020291F00201C1C0020201C0020EC
S214004C4076BE04008CC00400F7BD040068BD0400F6
S214004C50B6C004005C1E0020601E0020031FDBB2EE
S214004C60022B0DD9032806D1254B1B7843B9254BBB
S214004C701B78012B1EE002281BD1214B1B785BB151
S214004C80214F3B88580701D5FFF70AFE3B88990756
S214004C9002D50120FFF74EFEB20513D500221146BD
S214004CA0284640F01DF968B1184B194A40F6BF0176
S214004CB054E70A28F0D1174B7F221A70114B0222B4
S214004CC01A70E9E7E30713D5284640F0ACF9044626
S214004CD028463FF019FD14F5007F0ED0002CB8BF13
S214004CE0033444F387040B4B1C70064B02221A70E5
S214004CF00AB0BDE8F04700F073BC7F24F3E700BFBE
S214004D00281F00203A1E0020241C002068BD040036
S214004D10D1C00400391E0020594B73B5198811F014
S214004D20010140F0A780574D574B584EA960C5E982
S214004D300031284641F60B233160B3803FF09AFCE1
S214004D40044630B9524B534A40F2062152483CF0D2
S214004D50C3F84FF0011140F0FFF820B14F4B4D4A19
S214004D6040F20E21F2E74E49204640F0CFFB20B13C
S214004D704A4B484A40F21121E8E70121204640F01C
S214004D803FFC20B1454B434A40F21621DEE70121A5
S214004D90204640F048FC024620B1404B3D4A40F2D7
S214004DA01921D3E7802305F5BA71204640F0E1F8D3
S214004DB0802804D03B4B374A4FF40971C6E72EA330
S214004DC0D3E90023384D20462C60CDE900234FF070
S214004DD0FF324FF0FF333FF0D5FF20B12F4B334A61
S214004DE04FF4D871B2E73046FFF78EFC0121084633
S214004DF0FFF7D2FC286801213FF06EFC20B1274B5C
S214004E002B4A40F2A121A1E72A4B2B4A98801A6030
S214004E102A4B2B4A98801A602A4B2B4A98801A6095
S214004E200B202A4ADA60FFF73FFC294B186020B9AE
S214004E30284B1F4A40F2B12188E7FEF7BBFC2868E2
S214004E4000213FF0D8FF20B1144B234A40F24E21F8
S214004E507CE70822286811463FF09EFF20B11F4BD2
S214004E60134A40F2B52171E71D4B18701D4B1870A0
S214004E701D4B187002B070BD0B0020FF2202000010
S214004E80241C0020301C002081490000281C002023
S214004E90A5BE04007EC00400F7BD040068BD040083
S214004EA090C10400B4BE0400201C002071C00400A1
S214004EB0E0C00400881E0020A81E0020601E0020FF
S214004EC0801E0020301F0020601F0020501F002082
S214004ED0341E0020E6BE04007AC1040001BF0400B0
S214004EE03A1E0020291F0020281F0020094BD3F857
S214004EF0F020D3F8F43082B0CDE900234B1E02AA8E
S214004F00073112F8010D03F8010F8B42F9D102B0F8
S214004F10704700BF0081E00F07B5084601910EF00C
S214004F20B5FB084B01991868002240F029FB30B108
S214004F30054B064A06484FF446713BF0CDFF03B0DA
S214004F405DF804FB201C002068BD040066C1040058
S214004F50F7BD040008B5074B0022186840F020FB98
S214004F6030B1054B054A064840F22D313BF0B4FF00
S214004F7008BD00BF201C002068BD040048C1040016
S214004F80F7BD040008B5074B0022186840F000FB88
S214004F9030B1054B054A064840F239313BF09CFFDC
S214004FA008BD00BF201C002068BD04002DC1040001
S214004FB0F7BD0400034B1A780AB901221A700020C4
S214004FC0704700BF271F002038B50C4D2B78032BE9
S214004FD012D08BB10A4C20683FF08FFB012804D01A
S214004FE02068012200213FF08AFB20683FF08CFBFE
S214004FF001232B70002038BD0D20FCE7271F002062
S214005000201C00202DE9FF411A4E33780C466BB366
S2140050100846FFF749FB054650B3DFF86880164F91
S214005020D8F80030834209D03868012200213FF0CA
S21400503066FB2846FFF768FBC8F800500023CDE95A
S214005040013303933868FF2301AA21468DF8043004
S2140050503FF0D4FB18B1012004B0BDE8F081022374
S2140050603370064B9C71064B9C71F5E70D20F3E7F9
S2140050700720F1E7271F0020201C0020881E0020A4
S214005080601E0020341E00202DE9F0412E4F3B8884
S2140050909B078AB006D42D4B2D4A4FF46B712D48D2
S2140050A03BF01AFFDFF8C080D8F8003023B92A4B4F
S2140050B0274A40F2AD31F2E7284C9B88284D8DF800
S2140050C00F3094E80700012304AE86E807003A880C
S2140050D028681A460DF10F013FF047FF9DF80F2094
S2140050E0D8F8001028680968023A002392B20C34F7
S2140050F03FF03BFF94E8070007AB83E80700D8F8CB
S214005100000039880268127811F0200FC2F34012AE
S214005110817914D0007E8DF81200124800788DF840
S21400512013000093286833463FF058FB20B1022056
S214005130FFF700FC00F054FA0AB0BDE8F0812868DA
S2140051403FF03CFBF2E700BF241C002085BF0400B4
S21400515009C10400F7BD0400ABBF040014C004007E
S214005160201C00203F100020E01F00202DE9F843FF
S214005170DFF8D08098F8003006460C46002B4CD05E
S214005180032B4AD08879FFF78FFA0546002846D0C9
S214005190254F3B68834209D0244B01221868002122
S2140051A03FF0ADFA2846FFF7AFFA3D60204B1A787D
S2140051B002F0FF0732B11F4B1F4A204840F29531DC
S2140051C03BF08AFE032288F80020DFF87C80A17E70
S2140051D088F800704FF0010983F80090184BC1F36F
S2140051E0400120201C60FFF7D7FAFDF782FA4946F7
S2140051F005460220FFF7D0FAFFF746FF2846FDF7E0
S2140052007EFA98F8003003F0FF0553B92146304681
S21400521027F093F82846BDE8F8830D25FAE707251A
S214005220F8E73D46F6E700BF341E0020201C0020AD
S214005230281F0020BCBF040019C10400F7BD0400ED
S214005240E01F0020271F0020291F0020004870476D
S214005250301F002038B5134C237803F0FF000BB145
S2140052607F2038BD104B10229979FFF71DFB0028D0
S214005270F6D13FF0E7FE05462378012B05D13FF037
S214005280E1FE431BB3F5967FF6D32378022B04BFCB
S214005290064B18784FF000030CBF40B27F202370F7
S2140052A0DFE700BF3A1E0020881E0020391E0020BF
S2140052B01B207047014B1878704700BF5C1E00200B
S2140052C008B5074B1970074B186840F071F930B1F4
S2140052D0054B064A064840F2A5413BF0FDFD08BDD9
S2140052E05C1E0020201C002068BD0400EFC00400E7
S2140052F0F7BD0400014B1970704700BF3B1E00202D
S21400530010B50C4649B1064B18683FF09DFD0A23C0
S21400531090FBF3F02070002010BD0720FCE700BFD4
S214005320201C002008B5084B01EB810118684900D5
S2140053303FF061FD30B1054B054A06484FF49961D0
S2140053403BF0CAFD08BD00BF201C002068BD04005D
S21400535041C00400F7BD040021B1034B1B780B705D
S21400536000207047072070473F100020014B0020A8
S214005370197070473F1000206FF063007047000000
S214005380054B1B782BB94FF47A735A430120FFF76D
S2140053908BBA0520704700BF3A1E0020F8B51C46A1
S2140053A0DDE906760BB107B136B90F4B0F4A104848
S2140053B040F2FF413BF090FDFDF79BF92146054684
S2140053C010220C483BF034FE394610220A483BF0C7
S2140053D02FFE3146094810223BF02AFE2846BDE83B
S2140053E0F840FDF78CB900BFD3BF04002CC0040002
S2140053F0F7BD04004C1E0020241E00203C1E00208A
S21400540008B5FDF776F9BDE80840FDF778B910460F
S2140054100A4619460EF0E2B82DE9F0438BB0064670
S214005420FDF767F9DFF86881814605AAD8F800001D
S21400543002213FF0C1FD0446002800F08C809DF854
S2140054401430072B40F087800DF1020305AA01A94E
S214005450FFF70AFA074600287BD005A8FFF732F9BF
S214005460002876D1404B1D7835B99DF80D30F3B93C
S214005470BDF80230052B1AD03C4D05A92868FFF769
S2140054802FF9BDF80230AB802B681D7805F07F023F
S2140054901A702146D8F800003FF09FFD9DF80A30AC
S2140054A0002808BF0024002B41D1002524B1D8F8DD
S2140054B0000021463FF091FD4846FDF720F935B142
S2140054C02A490022304626F02FFF00F089F8284AA5
S2140054D01378032B16D1274B1B789BB9264B1978CC
S2140054E00221117025490A681278920602D51A78A8
S2140054F0002A32D01B7821490022304626F026FFAB
S21400550000F06EF81E4B1B78012B29D11D4B1A7824
S214005510022A25D100221A701B4B1978304649B250
S21400552026F022FF0BB0BDE8F04300F059B8BDF8F6
S2140055300230D8F80000013301A9ADF808303FF07A
S21400554046FD0028B1D1E90901A8FFF771F93D46EB
S214005550ACE70025ABE70025AEE71B780B4ACCE7A7
S2140055600BB0BDE8F08300BF5C1E0020881E002044
S214005570271F0020281F0020291F0020301F002082
S214005580381E00203A1E0020391E0020601E002013
S214005590201C00200078B0FA80F0400970470123F4
S2140055A00370704708B53EF0FFFFFFF7B5FBFEF748
S2140055B01FFEBDE80840FFF737B8000007B5074BE9
S2140055C00190186000F0D4F80198FFF725FF0198C5
S2140055D003B05DF804EBFEF7BDBE00BFE41F00207D
S2140055E0704701230B707047024B01221A70FFF7B9
S2140055F0F7BF00BF6E2100202DE9F843194EDFF8F3
S2140056006C901D461746B6F88020B6F8823099F89A
S21400561000109BB25B1A2B4492B203F07F039A42AF
S214005620804615D0B6F882006A1A16FA80F0394419
S2140056303BF0FEFCB6F8824099F80030A4B2E41ABB
S2140056402C4404F07F040023A6F8824089F800303A
S214005650054B2A4639464046FCF736FABDE8F8437D
S214005660FFF7BEBFEA200020F9550000E81F002023
S21400567070B58AB0002303A94FF4FA708DF80B308A
S214005680FEF7DAFB012438BBCDE90004144A03997F
S2140056900DF10B0304A8FEF791FBE8B9114C42F29A
S2140056A020062068FBF76DFE05462068FBF785FDA3
S2140056B0304200D01DB19DF80B30002BF1D004A86D
S2140056C0FEF738FB9DF80B301BB120680121FBF775
S2140056D09BFD054B00241C7020460AB070BD00BF21
S2140056E0E3550000B41000206E210020FFF778BFBD
S2140056F038B5104B104D114928680024A3F8804097
S2140057008022A3F882400E4BFCF7DEF90C4B0D49C5
S21400571028688022FCF7D8F90B4B4FF48052C3F868
S21400572080211A60094AD36C43F00403D3642046F0
S21400573038BD00BFEA200020B4100020E91F00207A
S214005740F95500006920002000E100E0000001405B
S2140057500A460146044808B50068044BFCF758FAA8
S214005760003818BF012008BDB4100020E95500001D
S2140057707FB5FCF7BEFF05462B482C4E00682C4C28
S21400578003AB02AA01A9FBF7D1FD3378029A934234
S21400579014D2B4F882000199D21A194414FA80F08F
S2140057A03BF046FCB4F88230029A3178327012FA36
S2140057B083F35B1A03F07F03A4F882302846FCF7D5
S2140057C09EFFB4F88250B4F88030ADB29BB29D42D2
S2140057D00DD2B4F88000B4F88010C1F1800189B20F
S2140057E014FA80F00DF03CFE0023A4F88030B4F8E4
S2140057F080309BB29D420BD0B4F88000B4F8801085
S214005800691A89B214FA80F00DF02AFEA4F88050C6
S214005810084B1A7832B100221A7004B0BDE8704006
S2140058200DF078BE04B070BDB4100020E81F002054
S214005830EA2000206E21002037B504460191FCF7CF
S21400584051FF0199054620463BF064FB0446284676
S214005850FCF74CFF204603B030BD38B50546FCF7D4
S21400586041FF044628463BF0CBFB2046BDE83840C7
S214005870FCF73CBF2DE9F04144681F46A368054687
S2140058800E46904633B110210120FFF7D5FFE060A9
S21400589038B10446C4E90178266000206C60BDE893
S2140058A0F0816FF06900FAE7036870B5CD1A002D35
S2140058B00DDD93F900601C78002E0BDB5C1C046089
