S03100006E63702D756172742D68775F65667233326D6731347037333366323536676D34385F62726434313639622E73333736
S1130000B061002035D402009968000021D00200BC
S1130010A70A0A010001000004180FAC006AA60236
S113002000000000000000000000000000000000CC
S11300300000000010DA02000000000000000000D0
S11300400000000000000000FFFFFFFFFFFFFFFFB4
S1130050FFFFFFFF0070030000000000000000002D
S1130060FFFFFFFFFFFFFFFF340000000000000060
S1130070000000000000000000000000000000007C
S113008000000000000000004C7C00204C7C00209C
S1130090B06100201A010300BAD4020050580020B5
S10F00A0B8140020000004000000000060
S1130100B061002035D402009968000021D00200BB
S11301103D7E000025D0020029D00200000000002E
S11301200000000000000000000000004304000084
S11301302DD00200230300008B1700007F4A00002B
S113014019800000EB070200AD22000035D0020048
S1130150B902020025080200F1070200F3070200B9
S1130160ED070200B71B0100111E0100A37A000075
S1130170D744000035D0020035D00200FBD1020084
S113018035D0020035D002001F1E010035D0020018
S113019035D0020035D0020035D0020035D002003F
S11301A035D0020035D0020035D0020035D002002F
S11301B027080200EF070200D120020067F90000BF
S11301C05B08020035D0020061D3020035D0020082
S11301D035D0020035D0020035D0020035D00200FF
S11301E035D002000000000000560348016830BF0B
S11301F041F000410160704700BF4C310E400F4890
S1130200816B89B201B1012141F67132826346F2F8
S11302101A32036843F001030360C2644FF480732D
S113022043604269D307FCD40022C264C9B20368A4
S11302305B085B00036001B1826300207047080023
S11302400E4000002DE9F84F8046DFF87C90FF2235
S11302502421484600F048F8DFF870B0FF224FF43C
S11302609571584600F040F819481A4F1A4C0090FE
S11302704FF0240A0026A25D1849BD5D885D521C1A
S113028002EBD272521000B11932154830F8161030
S11302900098D21C6A4300F06EF8012D1CBF2BF8A5
S11302A016A0AA44761C242EE5DB24234FF48052A6
S11302B04FF4B0610B4800F05EF849464046BDE893
S11302C0F44F00F0CCBA00BFDC680020CC690020F9
S11302D0BCD4020004D70200E0D60200BCD602005F
S11302E074D60200D8D4020062F30F2262F31F42D4
S11302F000B500BF130096469446103928BFA0E805
S11303000C50FAD85FEA417C28BF0CC048BF40F8C3
S1130310042BC90728BF20F8022B48BF00F8012B83
S113032000BD70473D49087070472DE9F041160043
S113033088463A4C1CD0A078677865683F1AFFB2AB
S1130340F1B2B942B8BF0F463A464146281801F007
S11303500DFAA378FB18F61BA370B844F0B238B1B9
S1130360A11C284601F07FFA0028E4D0012000E017
S11303700020BDE8F0810EB430B5284D044628783D
S1130380A0B0B0B101F05DFA98B1802168466970FF
S11303906860022101F05BFAA87023AB22460021B9
S11303A01F4801F051FB6868A91C01F05CFA00B910
S11303B0A87020B030BC5DF810FB1A480021002260
S11303C0002380E80E007047164931F81020521CB3
S11303D021F8102070470CB480B502AA01F06AFC21
S11303E001BC5DF80CFB0D4A1178A1B9010018BFDE
S11303F0012810D0042818BF05280CD0312818BFB4
S1130400332808D037281EBF3B284FF6FF71884297
S113041001D001207047002070470000987100202F
S11304202B030000A0710020302818BF322806D00A
S113043034281CBF3628382801D0002070470120FA
S11304407047FEE730B5DFF8205ADFF8204A2B88E2
S11304502468C01A04EB4004002004E034F810308F
S113046021F81030401C9042F8DB002030BDDFF84A
S1130470F839DFF8F8191A880968801A01EB400185
S1130480022001F035BDF8B504460F461646DFF8E4
S1130490DC59F0B218B34FF6FF70ADF8000000203D
S11304A017F8011BC3B2401C0DF80310761EC1B22D
S11304B0022902DAF1B20029F2D1DFF8ACE92868A6
S11304C0BEF800301FFA84FCACEB0303012269463A
S11304D000F0F2FD641C0100DBD000F0C9BC012077
S11304E0F2BDF8B504460D461646F0B288B10122B5
S11304F000F010F8641C0020C2B2401C1DF8023049
S1130500761EC7B2022F05F8013BEEDAF1B20029DC
S1130510F2D1F1BD6946A0B294E70146DFF8780B49
S1130520DFF8782B405C525CDFF8743B595C09B10E
S113053002F5997240EAC21080B2704710B5DFF834
S1130540583BDFF8602B1C5C012C1CBF32F81000F8
S1130550081802EB400010BD70B590B005460C467B
S11305604FF6FF7604E0A8B2FFF781FF203D203567
S1130570A9B28C420DD3202200F0EDFF002082B2FC
S11305803DF81230B342EED1401C81B22029F6DB93
S1130590EDE710B070BD10B5044661882088FFF700
S11305A0DBFF0121DFF8002BDFF86C3CA171208810
S11305B011784118188801EB4001891DA18010BDF4
S11305C02DE9F0430446DFF8E00A0778B946B9F1AB
S11305D0060F85B003DD40F2DE2100F0FBFB0021B5
S11305E0A1717A1C208892B201A9FFF72BFFBDF8F4
S11305F004104FF6FF76B14218BF00290CD00DF15C
S11306000408711A38F81900884205D101251EE042
S1130610BDF80410884219D02046FFF7BCFF05B08E
S1130620BDE8F08338F815000028F1D1DFF8901CFC
S11306300A88208812FB052141186A437118101892
S113064089B280B2FFF788FF0221A1716D1C4D456C
S1130650E8DBA0790228E2D02088381800F073FB88
S1130660BDF80200000B4845D6D120883818401D3B
S113067000F06AFBBDF80210BDF80200711A000A0E
S113068001F0FF018842C7D10320A0710122208814
S11306903F187F1C6946B8B2FFF7D4FEBDF80000CE
S11306A0FF2802D10421A171B9E7B042B7D00028D4
S11306B0B2D1B4E72DE9FE4F0646DFF8EC09DFF8C6
S11306C05C8BDFF800AC8B460178ADF80810012292
S11306D034880C19641DFFF71DFFDFF83C1BBDF8BF
S11306E00000B1F80090641C000AADF80000484511
S11306F01CBF01218BF80010002519E0401CC1B279
S1130700494513D2C7B23AF81710BDF806209142F2
S1130710F4D1C0B2FFF701FFBDF804304FF6807288
S113072010401340984208BF08F807506D1CADB242
S1130730BDF80000854206DA022201A9FFF7EBFEAC
S1130740A41C0020DBE7002001E0401C80B24845E7
S113075016DA18F800108142F7D001208BF8000057
S11307600EE021F817A00BE00128DFF83819F8D0C3
S11307707F2D31F8170008BF0025281821F810A094
S1130780A1B27088C01E88424FF6FF7551DB00F09D
S113079061F8BDF80200FF27A8424AD0601C00F0AF
S11307A095FEBDF80200BDF806102A1A91424CD1FC
S11307B004F1030A040A00F07F05BDF80000844236
S11307C043DA002000E0401C484504DA18F8001021
S11307D0A142F8D1C7B23088BDF80830181800EB30
S11307E04400801D012201A980B2FFF72BFEBDF851
S11307F00400C0F3C710401C00EBD0700AEB600487
S11308007088A1B2884220D3FF2FB9D0DFF88808BE
S1130810C05D7F2D14BF2946002181429DDABDF8B9
S11308200210DFF87C28D35D0906C90F99429BD0DA
S113083093E7B4807088A1B2884209D300F00AF823
S1130840BDF80200641CA842F4D001218BF800100A
S1130850BDE8F78F01220DF10201A0B2F2E52DE906
S1130860F84F84B0DFF80016DFF85C7A0A88DFF806
S1130870A819DFF8405C8DF80000ADF806203A8036
S1130880DFF8480A02887A8008880C88BDF80610C8
S1130890DFF83C2AADF80A00DFF80C0890F8008075
S11308A04646711801EB4401891DB9800020B871D6
S11308B0DFF8201A08883881301800EB44001188CA
S11308C0DFF8142A7981801DB8810020B873DFF81D
S11308D00C1A08883882301800EB4400801D1188F7
S11308E0B88279820020B87501F077FB002840F0C7
S11308F00A8128700021B971B973B87507F108012C
S113090007F11000E860A9606F603846FFF758FEF1
S113091007F10800FFF754FE07F11000FFF750FE3F
S1130920B979B87BDFF8449504293DD10022042825
S1130930ADF802207AD13846FFF72DFE00F000FA18
S113094000F0FBF9384607F1080110370122A960CD
S11309506860EF609DF800100A4318BF01228DF80B
S11309600020012200883018801CA91C80B2FFF7E7
S113097069FD9DF80000002840F0C8806868DFF831
S113098024876946FFF796FEDFF82C0B0788A868D2
S11309908179032940F0AC806946FFF78BFE6A68D1
S11309A0DFF8F406002199E0B97D04282BD100205A
S11309B00429ADF80200BED03846FFF7ECFD00F084
S11309C0BCF9B7F808C000F0C5F9002880463DD14D
S11309D00320B873B879032849D1B87B032802D11E
S11309E0B87D012862D0B879012849D1B87B0328A1
S11309F053D1B87D012818BF03289CD107F1080002
S1130A0007F1100156E004292AD10020ADF80200B4
S1130A103846FFF7C0FD00F093F9B7F810C000F0B6
S1130A2099F9804690B90320B87519E0B87D042877
S1130A30C1D000F085F900F080F9B7F800C000F0EB
S1130A4089F9804610B90320B8710CE0404601F0E2
S1130A50DAFAB8F1000F03D040F2D23100F0BAF95B
S1130A60B8790328B6D1B87B0128B6D1B8E70228F3
S1130A70B9D1B87B032804BFB87D0128BDD1BDE737
S1130A80032804BFB87B0128B7D1B87D03280BD154
S1130A9007F11000394608370CE0022812BF01287C
S1130AA0B87D0328A9D1F3E70228A6D1384607F177
S1130AB00801103700224AE7BDF80A30994202DAE9
S1130AC0435C012B09D138F81130B2F800C06345FA
S1130AD024BFB2F802E09E450AD2491CB942EBDBBE
S1130AE002209071A9686868EA686960AA60E86091
S1130AF000204FF6FF7200E0401CB84206DA38F8D6
S1130B0010109142F8D101208DF80000687828B1C6
S1130B10012100208DF80010687015E09DF8000098
S1130B2068B968680088301800F00DF9BDF8020053
S1130B30C0F30310012808BF8DF8000004D09DF80D
S1130B400000002800F0EF804D2001F05CFA688876
S1130B50401C6880E868FFF71EFD9DF8000000F067
S1130B604EF9002852D0DFF8B0060188E868ADF8E5
S1130B700A100188761806EB4404A41DA4B20026CA
S1130B8000E0761CBDF80A00864280F2C380DFF8DC
S1130B901015885D8DF8010000273FE0BDF80410B2
S1130BA0F8B20143ADF804104FF6FF72DFF8BCB29F
S1130BB0BDF80400BDF80680121ADBF80000ADF899
S1130BC00820A4EB080100EB4100BDF802104FF629
S1130BD0FF72641C9142A4B240D1012201A901F028
S1130BE0B2F9010047D100F061FA010043D1A41C1D
S1130BF0A4B2DFF8A804DFF8201BAAF80040825D45
S1130C0051F826102046FFF73EFC002800F08980AA
S1130C10DFF8080B815D6418A4B27F1CDFF8780448
S1130C2010F80680F9B24145ABD2F0B2FFF786FC6A
S1130C308246BAF80000ADF802009DF80100C00138
S1130C4040EA0620B8F1010FADF80400A6D1BDF8C2
S1130C50040040F07F00ADF80400A5E7DFF83C1481
S1130C60895D491C01EBD1714FEAC159012201A9E7
S1130C7001F069F901004AD100F018FA010046D1E7
S1130C80A41CA4B2AAF800409DF80100E0B1002120
S1130C902878039130B103AA0DF10201B0B201F03A
S1130CA0A0F905E0BDF80210F0B200F058FC039082
S1130CB0A4EB0803DBF800004FEA196203A900F073
S1130CC0FBF9010023D1A3E74FF0000A01E00AF188
S1130CD0010A5FFA8AFBBBEB196F99DA28780028BE
S1130CE0BDF8020004D000F022F801F078F903E026
S1130CF000F01DF8FFF7A6FB5C480068A344ABEBCB
S1130D000803012203A900F0D7F90100DFD001F0A4
S1130D107AF906E0E86884809DF8000000F0D0F9D4
S1130D2008B9012000E0002005B0BDE8F08F411CA7
S1130D30ADF80210012203A9704707F110002AE45C
S1130D4007F1080027E4C01C01220DF1020180B262
S1130D50FFF778BBBDF80630D9F80000C4440CF1A5
S1130D60010CACEB030301220DF1020100EB430083
S1130D7001F0E9B8F8B50D46DFF89C1417467F2F4B
S1130D800A8808BF00271E4695423EBFC24B595DE4
S1130D908F42044604D2C14A535D9E4200D11CB91D
S1130DA040F2666100F016F839462846FFF7C6FBA4
S1130DB0DFF870190388485D28B11946284600F009
S1130DC0CEFB2060F1BD324621461846BDE8F8400E
S1130DD0FFF787BB0FF67C1001F06CB938B50446F9
S1130DE008461146FFF7AAFB1F4D0388DFF83819A0
S1130DF028880A681B1A02EB4302226031BDF8B549
S1130E00DFF8B016194CDFF8BC54002814BFC868CA
S1130E108868A54900880A788618B61DB6B20027E6
S1130E2001E0B61C7F1CDFF8F00301888F4217DA5B
S1130E30F8B2FFF772FBADF80000B3B235F8170053
S1130E40DFF8E8C8BCF800E0ADF80200A3EB0E033D
S1130E5020680222694600F02FF90100E1D007E082
S1130E600120F2BD0000000034FE020008620020F0
S1130E7001F0C9F80020F2BD2DE9F24F84B0002141
S1130E808DF803104FF00C09DFF8A458BDF81010CA
S1130E90DFF8A068DFF884385B5C298835684C0883
S1130EA091FBF9F9A1444D45039302D3DB18039355
S1130EB009E0182691FBF6F1641AA54203D303EB6B
S1130EC0530189B203910025DFF85448ADF80600B8
S1130ED08DF8042000E06D1CCF4801888D4280F21B
S1130EE0CC80002682E0012202A91FFA88F0FFF7D5
S1130EF0A9FAA368DFF834E8DFF82C08B3F804C0D3
S1130F00BEF800300068DC44ACEB030300F0D2F818
S1130F10010008F101083CD10AF1010A5FFA8AFBD9
S1130F20BBEB176FDFDB35E01A468DF80220BDF806
S1130F3006309A18ADF806200123594A8DF803307B
S1130F40505DC30143EA0523BAF1010FADF8003047
S1130F5040F08580BDF8002042F07F02ADF800200B
S1130F608A88D21C00288A8000F084804146E8B236
S1130F7000F0F5FAA36802903A0E9F88DFF8ACE718
S1130F80DFF8A407BEF800300068FB1A00F093F8FD
S1130F9001006BD1BDF80000A3684FF6FF71091A78
S1130FA0ADF80810DFF88007DFF880179B880F88FA
S1130FB000689B1EDB1B00F07DF8010056D1A3687E
S1130FC0DFF864079B880068DB1EDB1B012269468F
S1130FD000F072F8010049D1A0688188A9F80010D6
S1130FE082889DF8021051188180761CF1B22A483B
S1130FF010F805A05145BFF46EAFE8B2FFF79EFAB2
S113100081462648475DBDF81000B9F800807F1C72
S113101007EBD777FF05854202BF9DF80410F0B2B5
S11310208842E2D060680188884524BF40884045F2
S1131030DBD3BDF80610039881422ADADFF8DC26F8
S1131040A168535DB1F804C048889C440CF10302C4
S11310509042BFF669AF01206070452006E0BDF8FC
S11310600030F2B21343ADF8003079E700F0CBFF63
S1131070002059E64FF0000A50E79DF8030040B9FC
S11310806068022181716068A168E2686160A260A1
S1131090E0600120EDE7000004D70200E0D6020082
S11310A0BCD60200CC6900206AFE0200DBF8000016
S11310B0A4EB0803012202A900EB430000F043BFA4
S11310C02DE9FE4F5FEA0009DFF8E853DFF85876B0
S11310D014BFE868A868012201884F48008802917B
S11310E0C0F1FF0101F0FF0141EA0021ADF8021057
S11310F0DFF84406029990F800A0DFF8300606886D
S1131100386801EB0A04631D9B1B0DF10201FFF714
S1131110D3FF01005BD140F6227040EA0A30ADF8FB
S11311200200E31C38689B1B01220DF10201FFF74A
S1131130C3FF01004BD13868A31C9B1B0122A91CCF
S113114000EB430000F0FFFE010040D1601CA0EB67
S113115006085FEA09004FF6FE7B07D0FF21ADF8D1
S1131160021000F05DF8010031D109E068680088E0
S113117001226946FFF766F9BDF80000012802D193
S1131180ADF800B002E0411EADF800104FF6FF725A
S1131190BDF80000121AADF80420A41B386801221F
S11311A001A900EB440000F0CEFE01000FD1029C27
S11311B05046A0F1010A80B270B1386814FA8AF37B
S11311C09B1B01226946FFF777FF0100F0D000F076
S11311D01AFF0020BDE8FE8FB9F1000F16D0E968B0
S11311E0032088716868FFF7D6F9A868FFF7D3F978
S11311F0A9686868EA68A8606A600020ADF802001F
S1131200E96000F00DF80100E1D102E0A9680320D3
S113121088710120DEE7000040FE0200DC68002047
S1131220012238680DF1020100EB480000F08BBE8A
S1131230FEB50446DFF8E404455CA08813466288E2
S11312402E18F61CB24205DADFF8D42401215170BD
S1131250452031E0C01CDFF8E424A08080B2525C59
S11312601946FFF710F950B3DFF8C004DFF8B8747B
S11312700688A3883868DB1E9B1BFFF71BFF010051
S11312801AD1BDF808004FF6FF71091AADF8001025
S11312900122A38838689B1E9E1B694600EB46000A
S11312A000F051FE010007D10898A1880180A088B0
S11312B04019A0800120FEBD00F0A5FE0020FEBD67
S11312C032FE020074D602002065002036FE0200C1
S11312D03AFE020038FE02003EFE02003CFE02001E
S11312E02DE9F84F84B00546884691461C4601F026
S11312F00FF88DF8045003950126DFF844249DF877
S113130004101388ADF80830B9F17F0FBDF8080058
S11313108DF8054008BF4FF0000981423FBFDFF858
S11313202414039A8B5C994507D2DFF810148B5C64
S11313309C4202D1B8F1000F03D140F6DB01FFF764
S113134049FD9DF804004946FFF7F8F801240546D5
S1131350DFF8F4038179B5F800A002291FBF817B6F
S11313600229807D022802D1432000F04CFE039A1A
S1131370DFF8B013885C002832D09DF80400514691
S113138000F0EDF8D8F80010814254D0AAF103001F
S113139000F09CF8474FDDF80CC07C68DFF87C3324
S11313A0628813F80C10A088D21E521A824207DBFE
S11313B030B1B86801888A45A4BF4088504571DBC4
S11313C0F8688179BC68022936D1442000F01BFEFC
S11313D0F868817901292FD0452000F014FE51E0EE
S11313E09DF805704FF0000B21E00BEBDB700AEB6E
S11313F0600000F04EF908EB0B0018F80B10407871
S11314007A1E934501EB002007D1BDF8001001F0CE
S1131410FF0100F0FF00ADF8001080B2BDF800102D
S113142088420BF1020018BF00245FFA80FBBB4521
S1131430DBDB002CAAD03CE0B96888799DF8047005
S1131440012814D10020FFF7DAFC002831D0002055
S1131450FFF736FE00282CD0B74803783946BDF88C
S1131460087003EB4700C01D4A4680B204E003281D
S11314700CD14A4639460020FFF7FEFC10B100F0BB
S11314801DF8B0B900F032F911D112E089790FF2E8
S1131490C42002290CBF40F6CA1140F6CC1100F05A
S11314A009FE06E000F00AF818B900F01FF97FF40D
S11314B048AF39E4AC71002042FE02000095BDF84B
S11314C006309DF8041042462046B1E601220DF193
S11314D0060180B2FEF7B6BFF8B505469048964FB0
S11314E043681C883B78E018FFF72DFCBDF8020028
S11314F00026C0F30310012819D1192400F02AF89A
S1131500BDF800006D1C30B14FF47F41401A06D085
S1131510FF381BD005E0B61C641EEFD116E0761C24
S113152014E0BDF80000C0B290B9761C10E0192494
S113153000F010F8BDF800006D1C20B14FF6FF71EB
S1131540884203D004E0761C641EF1D170B2F2BD6F
S1131550F643FBE701226946A8B2FEF773BF38B52C
S11315600C460021754B009169461D5C2A462046B5
S11315706D1CFEF7B6FF05EBD57504EB6504A0B250
S1131580FFF7AAFF0028009948BFC04341FA80F042
S113159032BDF8B56A4A138804466C48254630F8CB
S11315A015609C4202D25F49485D18B940F6852116
S11315B0FFF710FC61494D5D681C00EBD07006EB31
S11315C06007B8B2FFF788FF0346192B14D2002036
S11315D0DFF858C1DFF850E1ADF8000013FA87F7DF
S11315E0BCF80030DEF80000FF1A0122694600EB67
S11315F0470000F0A8FC60B131462046FFF7AFFF7A
S113160000902B46401C00907F2269462046FFF73D
S113161067FEF1BD7CB50546474806783446214649
S11316204C1EC9B22888022925DB50FA84F000F048
S113163030F8BDF800000028F1D045482988028818
S1131640E6B27243521890B2FEF711FF0020ADF8D3
S1131650000001222D88344800687519334E338800
S1131660ED1A694600EB450000F06DFC01000ED058
S113167000F0C9FC0BE0FEF7FAFE0120A871304A25
S113168029881088891901EB4001891DA980E0B2DD
S113169076BD0122694680B2FEF7D4BE2A4881791C
S11316A0022908D0817B022908BF083003D0817D3C
S11316B0022901D11030ADE7002070477CB5044603
S11316C01D48067800250CE0208850FA86F0FFF7C4
S11316D0E0FFBDF8000000281EBF4FF6FF718842EE
S11316E06D1C00F003F8EFD1E8B276BD3046461E1B
S11316F0C0B20028704714488179022908D0817B40
S1131700022908BF083003D0817D022901D110309D
S1131710D4E700207047000078D902000CD50200FD
S1131720AC710020BCD602000862002034FE020026
S113173030FE020008D502006AFE0200E0D6020074
S113174040FE020004D7020020650020CC6900207E
S113175032FE020073696D2D656570726F6D322DF6
S1131760696E7465726E616C2E63000062B18142B1
S11317703ABF5318984200F0EDBD801813F8011DCC
S1131780521E00F8011DF9D17047FEE780B5012112
S1131790794800F0C1FE794801210160002001F080
S11317A0A2FA012304220221052001F0E0FA01201B
S11317B0FEF7B8FD00F011F8FEF7FFFD70490120B7
S11317C0087001F0D5FB012340226E496E4801F0F8
S11317D09AFB6E490860C00F02BD70B50122012159
S11317E0042001F039F96A486A4C01686A4D6B4E6D
S11317F041F0010101600021C26842F08072C260C0
S113180002226748206029603160664866490A60A0
S113181000F0B2FE6549664A664B0818B0FBF2F068
S1131820401E1860002129644FF4807262486349A5
S113183020653160624802602B6843F480732B603A
S113184070BD5348006800B10120C0B27047D12276
S113185002704170090A81705A490A78C2700420E2
S1131860521C0A7070472DE9F24F84B0074608787D
S11318700024052868DB401D8DF80000002601F0D7
S1131880A9FB02904FF6FF789DF80000DFF838912D
S1131890DFF804A13E4D019003971DE003988019E1
S11318A0414610F8027C384601F00CFC80465E4646
S11318B03A480168CA070FD5E86840F08070E860CC
S11318C0DAF8001041F48071CAF80010D9F8000069
S11318D00028F1D089F80070296879B39DF80010C8
S11318E0F0B288422AD201F075FB0299401A80B204
S11318F040F2F512904226DAF0B210B95B270126C5
S1131900D6E7012804D19DF80000471F0226CFE73F
S1131910019806F1010BF6B2C01E864208BF474685
S1131920C5D00198801E864208BF4FEA1827BED052
S11319300198401E8642B1D15D27B8E79DF80000AA
S1131940F6B2864200D0012404990420087005B040
S11319502046BDE8F08F80B50C4B186890B040224B
S1131960694601F0B7FA20B1C2B26946122000F00C
S113197063FA11B000BD000000250A00108814426B
S1131980107C00209C70002048DB02009063002043
S1131990F0ED00E0B00F00E0000E00E0800E00E08B
S11319A055CEACC506000E00F00004E0FCAC060009
S11319B0F8590D00100004E0FF0300400D00010081
S11319C0040304E00F7C0020200000E070B51346FF
S11319D010440BE001F00F060909451E0A2EACBFA6
S11319E037243024A41928462C705B1EDCB2002C4A
S11319F0F0D1104470BDF0B5002341B1002806D5E4
S1131A002D2313700123B0F1004F18BF4042002171
S1131A100024894D55F82470002601E0C01B761C73
S1131A20B842FBD2F7B20FB90F0004D0D9B23036A6
S1131A3056545B1C0121641C092CEBDBD9B23030F9
S1131A4050545B1CD8B2F0BD2DE9F84F804696B0D7
S1131A5014A8894615469B4604AF4FF0000A00249B
S1131A6001901EE0012405460DE03429FAD15BF80B
S1131A70046B0422310C3846FFF7A8FF0422B1B2EC
S1131A80FFF7A4FF074601998F4209D39DF8000090
S1131A903F1A00F0C5F8002853D15AFA87FA04AF68
S1131AA06D1C04A88DF800009DF800002978381AF0
S1131AB000290BD0252903D014B907F8011BE2E74C
S1131AC0002C14BF00246D1C29780A0000F09B80B0
S1131AD0B1F1250216D00B3A092A40F28380283A44
S1131AE07AD00A3A12D0521E42D0521E5CD0083A22
S1131AF05AD0121F3FD0D21E3DD0921E54D0D21EB7
S1131B006AD0C0E7252007F8010BBCE704A8DBF87E
S1131B100010DBF804208DF800000BF1080B3846A8
S1131B20039102920027029A9742ABD20399C95DAE
S1131B300222FFF74BFF0199884206D300F074F8A4
S1131B40002869D15AFA86FA04A80299491E8F42DC
S1131B503CBF202200F8012B0199884206D300F0F3
S1131B6063F8002858D15AFA86FA04A87F1CDAE7E9
S1131B705BF8040BC7E75BF8046B074600F050F80A
S1131B80002849D15AFA87FA04AF0022314600E00E
S1131B90521CD6B2885D0028FAD1D2B24846C0475A
S1131BA0002839D1B2446EE76C290AD16A785BF80F
S1131BB0040B752A0EBF00210121642A07D16D1C74
S1131BC005E075295BF8040B0CBF002101213A469E
S1131BD0FFF711FF074456E75BF8041B0222C9B262
S1131BE038464DE768780124782818BF5828F2D180
S1131BF06D1C0024681E32297FF437AF5BF8040B98
S1131C0081B20422ECE70546EAB200F00AF818B9FA
S1131C10AA445FFA8AF000E0002017B0BDE8F08F14
S1131C20FAB204A9484640479DF80020861AF2B249
S1131C3004A948464047000024DB0200FFF78BBE9E
S1131C4003460A469BA10420FFE70CB480B502AA10
S1131C5000F030F801BC5DF80CFB0A00034602D02A
S1131C6095A11120F1E7704780B586B001F044FCDE
S1131C70924A009200216A230591049103930291F0
S1131C80019102465FF000038FA10120FFF7DDFF01
S1131C908B488179028843790391029201930179F7
S1131CA0C3788278009142208AA1FFF7CEFF07B063
S1131CB000BD00002DE9F04786B007460C4691466A
S1131CC0FEF791FB002600287CD1FFF7BAFD00281F
S1131CD078D00021002001F047FF0028ADF804006F
S1131CE070D0002101A802F07FF8394602A8FFF75E
S1131CF0AEFD0746D4B900F098F8002862D1BDF8CB
S1131D00040001F08EFE8DF80000BDF8040001F01F
S1131D1070FE6946FFF7A7FD002853D00420FEF7A4
S1131D2053FB4FE08DF808100127641C207800282D
S1131D30E1D0A0F130010A2904D20A2101FB0606F0
S1131D40303EF2E700F071F800283BD121780027FB
S1131D50422902A80ED044291AD0462925D0572951
S1131D600DD0622940D0662932D06C292DD070293B
S1131D702ED0D7E759F8040B8DF80800D4E759F8AA
S1131D80041B8DF8081002270904090E4170CCE7E2
S1131D9059F8041B8DF808100B0A0A0C090E43703D
S1131DA082708DF80B100427BFE759F8048B404666
S1131DB002F0A4F9C2B20123414601A801F070FF68
S1131DC00028B2D006B0BDE8F08759F8046BACE740
S1131DD059F8041B0123F2B201A801F061FF0028A5
S1131DE008BF0026A1D0EDE7BDF8040001F019FEFC
S1131DF059F8045B8046A8B2002896D001F011FE81
S1131E0082460AEB0801C9B201A801F0EDFF0028DF
S1131E10D8D15FFA8AF000900023BDF80400AAB27A
S1131E205FFA88F102F06CF87FE701233A4602A9D1
S1131E3001A801F035BF00002DE9F841122885B052
S1131E4004460D46904606D03A2808D04FF6FE7157
S1131E50884220D026E0002002F0B5FB22E002F008
S1131E6079FE0646002003F0D0F90746002003F06F
S1131E70D7F9034604961148DFF84810B1F8E22078
S1131E8016A10390029200200190009700223B20AB
S1131E90FFF7DBFE06E000224146284601F0CAFEB9
S1131EA000F0A6F842462946204606B0BDE8F041B7
S1131EB0FEF7BABA574600006C7000003477002071
S1131EC064DE0200447700204242387042424242BB
S1131ED057000000424242425742000057424257D4
S1131EE05738704200000000DFF800F0C5610020A0
S1131EF038B504460D4604F04DF8012C02D1FFF725
S1131F00F3FF02E0284604F0D1F818B104F04EF8CB
S1131F10012032BD04F04AF8002032BD80B58308A8
S1131F20800705D54FF6FF7242EA0142009204E0B1
S1131F3041F07F4141F47F010091042269469800F9
S1131F4004F0F7F802BDF8B506460D4605F00101A8
S1131F5006F001000143144601D00120F2BD002C1B
S1131F6039D032462B46611C4FF6FF7C01E0921CAF
S1131F709B1C491E06D0178867451CBF188800287B
S1131F80F5D024E004F006F8012C01D0B00707D501
S1131F9035F8021B3046FFF7C1FFB0B9B61C641E0A
S1131FA0022C0CD367087F007A002946304604F0DF
S1131FB0C0F850B906EB470605EB4705E41B44B1EE
S1131FC029883046FFF7AAFF18B103F0EFFF4B2032
S1131FD0F2BD03F0EBFF0020F2BD002070470120AA
S1131FE07047704770470020704700207047704763
S1131FF07047019870477047704770477047704743
S1132000702004F0BBB870B5044643381F4D08D0A7
S1132010401E012809D9801E01280ED9C01F32D0C4
S11320202AE0BDE87040FFF739BBFFF764FB20B13D
S1132030FFF734FB0028FBD170BD154E307810BB80
S113204001213170FEF7FEF8442C12D00CD3462C3B
S113205005D00ED3472C07D140F6010001E040F62D
S1132060020004F089FB04E04FF49B71284600F061
S113207021F80020307070BD2846BDE870404FF450
S1132080A47100F017B870BD00000000D8DB020096
S1132090147C002070470020704700207047012006
S11320A070470120704700207047704703F03DB926
S11320B042DE704738B504460D4603F044F900F09B
S11320C027F904F087FB29462046FFF7B9FD2B4684
S11320D022466C49012004F0CEFB29462046BDE887
S11320E03440E5E768482DE9F843684E0168B16576
S11320F04FF42068026A6649F2650B6833664968E2
S11321007166426AB266816AF166C26A3267016BBD
S11321107167806B96F83810B06748074CBF346C11
S1132120F46B04F045FB002232658442594B0146AE
S113213024BFA3F12007A742A146716506F19002CE
S1132140DFF854C1DFF854E118D3A0697064E4697E
S1132150B464B56DC5F30805062D13D1704511D3CC
S113216060450FD200884DF64264A0420AD17068DF
S1132170B4685060946040F2017803E00024746411
S1132180B46481464648814202D2014600E0091DFA
S11321900846984203D20C68B4F1CD3FF7D04149C8
S11321A0081AF0640021002006F17C04C5B2401C2A
S11321B0C7B244F82510062FF8D3002099452CD235
S11321C053F8041D7145F9D36145F7D2CC07F5D511
S11321D0002406F17C0555F824708F4202D0641C5B
S11321E0062CF8D3062CE9D1C4B2002C0CBF052070
S11321F0401E06F17C04C5B244F82510DEE7F16FF9
S1132200002306F17C0506EB8304D4F8804045F8EE
S113221023405B1C042BF6D911600146481EC9B249
S11322200029ECD1B06DC0F30800032810D00428B5
S113223011D0052812D0062813D00C2817D0122844
S113224018D119480268910719D540F2025816E0CE
S113225040F6012813E040F6022810E040F6032877
S11322600DE0B8F5206F0AD140F6042807E040F6E7
S1132270052804E018B13A2838BF40F6072840463C
S1132280BDE8F283BCD5020004ED00E000000020AC
S113229000E300E0B0610020BAD402004402000070
S11322A09C000020B06100201C20054004F0F4BA1A
S11322B07FB50121204800F02FF9012201210120DE
S11322C000F0CAFB0421072004F0E8FA1B4A92E854
S11322D038006946032281E838000D218DF8081082
S11322E001268DF809208DF800608DF80760694695
S11322F0134C204604F040FB1249042008600222DB
S1132300114962620860A26A42F00202A2627FBDC1
S11323100B4804F025BBA52803D10021084804F08C
S113232006BB70470648006800F001007047074983
S113233008680028FCD1704730053E0050D60200E2
S11323400020054080E200E000E100E008200540B4
S11323504AB1000011F8013B521E00F8013B1CBFBA
S113236011F8013BF8E77047012101FA00F07047CA
S1132370890001EB401101F184410A607047890032
S113238001EB401101F184410868704710B5DFF892
S11323902446A06B420605D412212046FFF7EFFF26
S11323A00028F9D110BD80B5FFF7F0FFDFF804066F
S11323B00068000C00F0030002BD10B50122DFF834
S11323C0DC15884202D20022002407E0DFF8D01591
S11323D0884234BF4FF080744FF000741021DFF84E
S11323E0C405FFF7C5FFDFF8D005016821F080714F
S11323F00C43046010BDF0B5DFF8AC25DFF8BC4534
S11324001368002304EBC305CFB22E79BE4203D177
S113241054F83350854202D25B1C052BF2D3052BB2
S11324200FBF4FF0407004EBC30040790006116801
S113243021F0407108431060F0BD38B500F013F886
S113244041F67130286004F0DCFA002105E038B56B
S113245000F009F841F671322A60FFF7CCFF0CB1A5
S11324600020286031BDDFF860552C6804B10124D8
S11324707047C01C0F2801D2000770474FF070400E
S11324807047000038B50446002500F061F9DFF814
S11324903025DFF81815944208D0DFF82825944237
S11324A006D0DFF80C25944204D006E0086802E068
S11324B0486800E0886800F00700401E03281AD826
S11324C0DFE800F002050C0804F0D2FA04E004F09E
S11324D0D5FA01E004F0CFFA05460CE004F094FAD2
S11324E00446DFF8D4040168C1F30060401CFFF720
S11324F03BFFB4FBF0F5284632BDDFF850154A68BF
S1132500D30702D40A680242FCD1704780B500F0B8
S1132510D9F8401C02BD000070B50C460246110AF1
S113252001F00F010020491E0929DFF83C5613D899
S1132530DFE801F005131212071518121B1FDFF84C
S11325406454C2F3043608B1FFF7D7FF224631467C
S11325502846BDE870400BE770BD1035F1E7303513
S11325600120EEE738351020EBE740354FF480309A
S1132570E7E7DFF8D456E4E7F8B50646DFF8D00419
S1132580DFF840240768DFF83804DFF82414DFF8A4
S11325902844012516F478136ED0B3F5003F2ED0ED
S11325A0B3F5802F27D0B3F5202F65D0B3F5402F96
S11325B02BD0B3F5602F57D0B3F5801F2DD0B3F5D2
S11325C0A01F2BD0B3F5B01F30D0B3F5D01F3DD032
S11325D0B3F5F01F45D0B3F5001F35D0B3F5101F88
S11325E03ED0B3F5381F27D0B3F5481F47D0B3F515
S11325F0781F5BD063E004F007FAE16802E004F0BE
S113260003FAA168C1F3082104E004F0FDF961694B
S1132610C1F30421491CB0FBF1F751E00846FFF770
S113262031FF0746206B00F003000BE0FFF72AFFA1
S1132630216A01F00F010FE0FFF724FF0746206A2B
S1132640C0F30110C7403BE010460AE01046FFF714
S113265019FFA16AC1F301118D40B0FBF5F72FE01A
S11326600846FFF70FFF1FE0DFF8E00500F070F801
S1132670072825D0092822D104F0C6F914E0DFF890
S1132680D00500F065F804280CD0072818D00828D5
S113269015D104F0B9F907462068C0F30420401CA2
S11326A047430DE004F0CDF9074609E004F0ACF926
S11326B004463046FFF72AFFB4FBF0F700E000279A
S11326C03846F2BD01460B0903F00F0301205B1EDF
S11326D0092BDFF8E42239D8DFE803F005070B11F2
S11326E0383813172630106800E05069C0F304200E
S11326F070471168090E01F00101491C1BE0D06804
S113270000E09068C0F308207047DFF8483599422C
S113271004D0DFF84435994204D017E0116A01F07F
S11327200F0108E0116A04E0DFF8303599420DD159
S1132730916AC1F301118840401E7047DFF82005FB
S1132740814203D1106B00F00300704700207047F2
S1132750014601F00F010120491E0729DFF8042575
S11327604FD8DFE801F00415194E26344E3C506A68
S113277000F00700801E052808D8DFE800F03E249A
S11327800B0307050B2070470C207047052070478A
S113279011690FE002207047516901F00701491ED9
S11327A003292FD8DFE801F00F020311F2E7062016
S11327B07047916901F00701012904D00229E9D089
S11327C0042902D07047032070470A20704711681B
S11327D011F001010FD0012914D109207047DFF84D
S11327E088140A6802F03002102A04D0202A04D087
S11327F0302A04D07047072070470420704708200F
S113280070470020704700002DE9F8430746002474
S11328100326112F0D46B04612D1042D02D104F027
S113282010F908E0052D0BD1DFF84004DFF840145F
S11328300068884204D304001CBF002104F0AAFAF3
S113284007F00F077F1E072FDFF8189414D8DFE86E
S113285007F004464C9549789584022D4F480CD0D6
S1132860032D2ED0042D2FD0052D32D00A2D03D0C8
S11328700B2D30D00C2D30D080E004264FF0000812
S113288001220121404600F0E7F8FFF7D6FD0CB124
S1132890FFF77CFDC9F8046004F0A6F8054604F0CF
S11328A0B3F8FFF78AFDFFF77EFD01462846FFF7E0
S11328B0CEFD002C62D1BDE8F4430121002004F0D8
S11328C069BA4FF00108DBE70226B046FFF775FD51
S11328D0D6E70126FAE70526D2E70726D5E709F168
S11328E0100404E009F1180401E009F11404012DB5
S11328F008D0022D09D0032D0ED0062D13D00A2D99
S11329001DD03BE00020206038E00122012100209E
S113291000F0A2F80220F6E701220121012000F0D4
S11329209BF80120EFE704F06FF8FFF746FD012262
S11329300021DFF83402FFF71BFD0320E3E7042046
S1132940E1E7072D05D0092D04BF0121C9F80010C6
S113295014E00020C9F8000010E0012D06D0042D79
S113296015D0072D0CD0082D15D007E00020DFF876
S1132970F8120A6822F0300210430860BDE8F183BF
S113298001220121042000F067F81020EFE700F095
S11329901DF82020EBE73020E9E700000148E801BA
S11329A00190D00300400E4004000E4080400E40D1
S11329B00500240004300E4000410E4050DA0200AD
S11329C002001E000300200040000E4001220121ED
S11329D0022041E070B5044600F03CF801220021D9
S11329E0022000F039F8217CDFF8905200200229FF
S11329F0296808BF0120490840EA410028600821ED
S1132A0022782846FFF7B4FCA088617A41EAC02105
S1132A10A960EE68207AFFF72CFDE288A17A06F01F
S1132A207F6646EAC226227A0E4346EAC216064367
S1132A30EE60A17B607B227B090141EA0031E07BEF
S1132A40014341EA0241296170BD000040410E404A
S1132A507C63002011207BE62DE9F84F042883468F
S1132A6092466FD8DFE800F0524D43034800012737
S1132A700220012500260029DFF884817F4C63D0E1
S1132A80BBF1020F02BF2068C0F3011000284FF011
S1132A9000090CD17A4801682268D0074FF0010977
S1132AA005D5216821F0300141F010012160E76370
S1132AB0314600F05CF80028FAD0BAF1000F41D09A
S1132AC000F054F80028FBD0BBF1020F3AD1B9F161
S1132AD0000F37D02068C1071FD54FF48060C8F8B5
S1132AE0180020212164022000F08CF819E004274A
S1132AF0082003250226BEE71027202005250426EA
S1132B00B9E74027802007250626B4E74FF48077ED
S1132B104FF4007009250826ADE70021022000F0DB
S1132B2071F8D8F80C60012200210220FFF794FF0D
S1132B30C6F30A01022000F01DF8E76300F016F85E
S1132B400028FBD0BDE8F18FE063D8F80000F04026
S1132B50C107FAD4BAF1000FF4D0D8F80000E84065
S1132B60C107FAD4EEE70000B0400E4029464046C3
S1132B70FFF705BCF8B5401E0D46032805F07F0697
S1132B803C4C3D4F3BD8DFE800F00228101CC5F355
S1132B9008051A213846FFF7F2FB0028F9D120690D
S1132BA0400A45EA40252561F1BD18213846FFF762
S1132BB0E6FB0028F9D12068C00946EAC016266061
S1132BC0F1BD19213846FFF7DAFB0028F9D1A068D6
S1132BD0C00946EAC016A660F1BD094801686269E9
S1132BE022F0300242F010026261C5F3C310FFF715
S1132BF040FC226A23490A40154305432562F1BD7E
S1132C0090400E401D4A1068C0F30110002818BF00
S1132C10002911D0202902D030290DD00FE04FF423
S1132C200000D16E01408142FBD1400209D5D06F32
S1132C30800A00F0010070474FF44000F1E71248A9
S1132C40EFE701207047000050410E4006000E00DF
S1132C50B80032008006160080162E0090171A0065
S1132C60A009140070400E405C410E408C630020AB
S1132C70012D310110400E4040410E4024400E40D1
S1132C803C300E4000F8FF0FFF33E13F890001EBB9
S1132C90401101F184410A60704770B504460D4645
S1132CA0164604F0B0FB2168A94335400D43256066
S1132CB0BDE8704004F0ABBB10B500F00DF804F1B2
S1132CC0806404E010B500F007F804F1C064012347
S1132CD003FA01F1216010BD3022404B50431844E7
S1132CE000F10C0470473E490A68920840EA8200E9
S1132CF0086070472DE9F04101F0030516460324EE
S1132D000F21082E98460CD2B70000FA07F2B940FA
S1132D103448FFF7C2FF05FA07F204FA07F1324814
S1132D200DE0A6F10802970000FA07F2B9402F4817
S1132D30FFF7B3FF05FA07F204FA07F12C482D4F09
S1132D40FFF7ABFF079C069D2B4842463146FFF731
S1132D509DFF2A4631463846FFF798FF2246314602
S1132D600120B0403861BDE8F04124488EE7F8B551
S1132D700546174638000E461C4607D0002C284648
S1132D8002D0FFF79FFF01E0FFF796FF2A463020AD
S1132D901249424388180F22082E05D2B300416815
S1132DA000F015F8416006E0A6F108039B00816875
S1132DB000F00DF881604FB9002C3146284602D04E
S1132DC0BDE8F4407EE7BDE8F44075E7F1BD9A4004
S1132DD021EA020207FA03F11143704700A0004000
S1132DE044A4004000A4004008A4004004A40040FF
S1132DF00CA4004014A4004010A4004028A40040E7
S1132E0010B5DFF87041DFF87011E1610320206133
S1132E1060611022DFF86401A06122620021A162D6
S1132E20E16220660022DFF85801626210216066C8
S1132E30A1662267E26630A16267E31D0868DFF8D5
S1132E404411186007222046FFF782FA2023A37159
S1132E5010BDC11922464046FFF77ABA2DE9F8435E
S1132E6000F031F808B9FFF7CBFF182044432819C4
S1132E7000F1600600243769F568BD420BD2B468DE
S1132E807068E41B4C4588BF4C46FFF7E2FF00F036
S1132E9013F808BF0027ED1B4D4588BF4D4635B1DB
S1132EA07068C1192A46FFF7D6FF2C19EF1904B12F
S1132EB037612046BDE8F283B168E7198F42A04428
S1132EC0A9EB04097047DFF8AC500446287888461B
S1132ED091467047F8B500F00AF800F00FF8FFF7D4
S1132EE0BDFF0446384604F095FA2046F2BD044678
S1132EF00D46164604F091BA525454000746324621
S1132F002946204670472DE9F84300F02AF808B90D
S1132F10FFF776FF04F081FA72690146002718234F
S1132F2006F1640C03FB07FE5CF80E0010B17F1C75
S1132F309742F7DB97420BDA7B43F01800220466D2
S1132F404566C0F868800267C266C0F8749001E004
S1132F504FF0FF37FFE7084604F05CFA3846BDE857
S1132F60F283044E044630780D46904699467047E5
S1132F7046E7000000680020DC70002058DB0200F7
S1132F80EC70002064DB02007FB500F011F818B982
S1132F9000F015F804F079FA04B070BD7FB500F0C4
S1132FA007F818B900F00BF804F087FA04B070BD04
S1132FB00446084615461E4602A904F07BBB9DF84C
S1132FC02010BDF8240000910190334602992A464E
S1132FD02046704780B500F00DF880B202BD80B580
S1132FE000F008F8FA21B0FBF1F080B202BD000055
S1132FF000BF0000E0B504F042FB6A4604F08CFB1D
S113300018B14C212BA0FFF755F8DDE9000103B0FE
S113301000BD000080B504F0EBFC01211748FFF768
S11330207BFA04F001FA20B15FF0570121A0FFF709
S113303041F8002002BD1249012008707047FEB516
S113304004460025216801B91EE000F00CF808B11F
S113305000F002F801201BE001950095002321688F
S11330603A46301D90E7064E064F35700023009314
S113307001953A46301D91E70000000030053E00FE
S1133080DC7100203730000004F034FD0020FEBD68
S113309004F00FFE307840B92146301D04F080FA68
S11330A0206804F01CFB852501E0002030702060BE
S11330B02846FEBD73797374656D2D74696D6572F0
S11330C02E6300000A0A42EA01225040C0F30311B1
S11330D0484080EA003041010206C9B2D20E41EAFA
S11330E00221484080B270474901020003D4DFF84E
S11330F04C0481547047DFF8483402F00F021A443C
S113310002F8041C704730B500F007000123C0F139
S11331100704042C2EBF072403FA04F4641EC51C00
S1133120072D34BF0020001F2140814003FA00F026
S1133130401E1040084330BD0020704700207047F7
S113314070471CB572B603F045FBDFF8F803DFF8EF
S1133150F8434169216000F0AEF901466FF00B00BD
S1133160FFF7C2FF00F0A7F901466FF00A00FFF76E
S1133170BBFF00F0A0F901466FF00900FFF7B4FFB0
S113318000F091F901466FF00800FFF7ADFF00F081
S11331908AF901466FF00700FFF7A6FF00F083F9F4
S11331A001466FF00600FFF79FFF00F07CF901462F
S11331B06FF00500FFF798FF0022022100F075F977
S11331C001466FF00400FFF78FFF00F078F9014625
S11331D06FF00300FFF788FF00F065F901466FF018
S11331E00200FFF781FF0022072100F05EF901468B
S11331F06FF00100FFF778FF00F061F901464FF02E
S1133200FF30FFF771FF00F05AF901460020FFF785
S11332106BFF0022032100F048F901460120FFF76B
S113322063FF00F044F901460220FFF75DFF00F060
S11332303EF901460320FFF757FF00F040F901462D
S11332400420FFF751FF00F03AF901460520FFF78B
S11332504BFF00F034F901460620FFF745FF00F06C
S11332602EF901460720FFF73FFF00F028F9014639
S11332700820FFF739FF00F022F901460920FFF783
S113328033FF00F01CF901460A20FFF72DFF00F080
S113329016F901460B20FFF727FF00F010F901464D
S11332A00C20FFF721FF00F00AF901460D20FFF77B
S11332B01BFF00F004F901460E20FFF715FF00F094
S11332C0FEF801460F20FFF70FFF00F0F8F8014663
S11332D01020FFF709FF00F0F2F801461120FFF774
S11332E003FF00F0ECF801461220FFF7FDFE00F0AA
S11332F0E6F801461320FFF7F7FE00F0E0F8014678
S11333001420FFF7F1FE00F0DAF801461520FFF76C
S1133310EBFE00F0D4F801461620FFF7E5FE00F0BE
S1133320CEF801461720FFF7DFFE00F0C8F801468B
S11333301820FFF7D9FE00F0C2F801461920FFF764
S1133340D3FE00F0BCF801461A20FFF7CDFE00F0D2
S1133350B6F801461B20FFF7C7FE00F0B0F801469F
S11333601C20FFF7C1FE00F0AAF801461D20FFF75C
S1133370BBFE00F0A4F801461E20FFF7B5FE00F0E6
S11333809EF801461F20FFF7AFFE00F098F80146B3
S11333902020FFF7A9FE00F092F801462120FFF754
S11333A0A3FE00F08CF801462220FFF79DFE00F0FA
S11333B07EF801462320FFF797FE00F080F80146CF
S11333C02420FFF791FE00F07AF801462520FFF74C
S11333D08BFE00F074F801462620FFF785FE00F00E
S11333E06EF801462720FFF77FFE00F068F80146DB
S11333F02820FFF779FE00F056F801462920FFF750
S113340073FE61684FF6FF00014041F0BF6141F473
S1133410013161604FF4E021E06840F40070E06045
S1133420E06840F01000E060E16104F072FC04F038
S113343007FDEFF30880001F44494FF0CD3201E04F
S113344040F804298842FBD24149424889B204F039
S113345049FD62B6404801214164026842F4807229
S113346002603E483E4A016841F4F841016001208F
S1133470106004F03BFD04F053FE0621684604F09E
S1133480BBFE01208DF80300684603F0E7FC04F05E
S113349035FBFFF7BFFD04F04DFB04F0EFFF3148AF
S11334A005F02EF813BDFF22FF2104202BE6002295
S11334B00121042027E600220021042023E6002223
S11334C0042104201FE640F2016003F055B905F021
S11334D039B880B500210B2005F02CF8BDE8014077
S11334E005F031B8002818BFFEF785BDFEF784BD8E
S11334F0032005F0A2B8000010B504F0E2FC044675
S113350004F0E3FCC0B220B9012C0BD144F08000DC
S113351010BD072CFAD8DFE804F005040709090BED
S11335200D0FF3E7002010BD092010BD022010BDCF
S1133530032010BD0B2010BD062010BD00E400E0E8
S113354018ED00E00000000008ED00E050580020F5
S113355018140000A000002000000E40A4310E400A
S113356010300E40E4DC020010B5DFF84008DFF84C
S113357038180068DFF83828C860136848615B08A9
S113358000EB43040C6118B100F016F8652806D26C
S1133590BDE81040B0210FF63C00FEF78BBD10BD16
S11335A010B5DFF804486069E268904202D2C02195
S11335B000F09BFA60690CE010B5DFF8EC47206975
S11335C06269904202D2C62100F08FFA20696269D2
S11335D000E0E268801A4FF6FE71084010BDDFF883
S11335E0C817CA68904203D34969884200F055BBA2
S11335F00020704780B510B1FFF7F1FF00B1012042
S113360002BD30B1DFF8A027D168401A4010401C39
S113361080B27047010001D100207047DFF888179D
S1133620CA6802EB4000801E70474088C0F30C005B
S1133630C01C80084000001D80B2704710B50446CD
S1133640FFF7F3FFDFF860174A6904EB40004FF619
S1133650FF7400E0801C904202D20388A342F9D098
S113366010BD2DE9F843DFF840478046E08898B361
S1133670B8F8020001042FD4DFF838770FF248714C
S113368038680FF2507905F023F820B940F28D1113
S11336904846FEF70FFD002504E005F019F888B14F
S11336A06D1CADB2E088854204DB40F28F114846C0
S11336B0FEF700FDA069396800EBC50630680028F4
S11336C0EBD13160B088401CB0804046FFF7ADFFBD
S11336D0F18801EB4000F080BDE8F18370B5044649
S11336E0DFF8C406007801281AD12088FFF792FF7A
S11336F0050027D002262C462046FFF7B2FF60883B
S113370040F40040608034F81600FFF783FF0400A3
S113371002D060880104EFD5761C042E12D2EAE7A9
S113372002280FD103F079FE05462088FFF772FFC7
S113373018B10088C0F30E0020802846BDE8704010
S113374003F068BE70BDDFF860160A78022A08BF6D
S1133750FFF7C4BF704738B504460D46FFF765FF51
S11337606188C1F30D0161804004020C21462846A2
S1133770BDE83840FDF7FABF10B50C4601E0FFF78D
S11337805DFFA04202D241880A04F8D510BD2DE99C
S1133790F14FDFF814560020A88092B003F03DFEEC
S11337A06A88ADF800200121297000216A696980C6
S11337B0019203F02FFEE988A869C90004F01CFDFA
S11337C06846FFF78BFF129848B1002401E0804758
S11337D0641C1298E1B250F821000028F7D1EF6878
S11337E000244FF001080DF1080906E00BF1010B6C
S11337F05FFA8BF004281CD33446019EB74200D3F1
S11338008CB324B1641EE4B259F824A003E000F0A0
S1133810D5FABA460746BAF8020000F44041B1F5B9
S1133820004FEAD140F48040AAF802004FF0020BA6
S113383026465FFA8BF03AF81000FFF7EBFE04001F
S1133840D4D060880104D1D440F400406080204684
S1133850FFF707FF102EBDBF49F82640761CF6B2CD
S11338604FF00008C2E7B8F1000FB8D0EF68BB46CC
S1133870B84615E03846FFF7D8FE044678880104B8
S11338800BD55846FFF7BDFE398801F400410843C3
S113389038800BEB440B07EB440800F08FFA074623
S11338A0B742E7D3022028706846FFF717FF129843
S11338B048B10026044601E08047761CF0B254F873
S11338C020000028F8D1EC68274613E04FF00209E5
S11338D037F81900FFF79EFE20B10088C0F30E00F0
S11338E027F8190009F10109B9F1040FF0D300F028
S11338F065FA07464745E9D30AE00446FFF79EFE0A
S11339004146FFF739FFB842F7D3B7422ED15446A8
S113391044454AD22046FFF791FE002C8246F6D059
S113392060880104F3D500F05AF8A04204D16088FD
S1133930C0F30D006080EAE704D201462046FFF799
S11339400AFFE4E7264607E05046FFF777FE4146C4
S1133950FFF712FF54468246C24507D2BAF8000068
S1133960C0F30E00FFF756FE8245EDD334B100F0EC
S113397036F801001CBF2046FFF7EDFE274630460F
S1133980C1E72046FFF751FE06465846FFF739FEC9
S11339900746720021465846FDF7E8FE00223946E4
S11339A0684604F0BDFE0BEB460B03F036FD0646FD
S11339B00021A81C04F00AFFFFF72CFE040006D126
S11339C0BDF8000068800021C5F814B029703046A5
S11339D003F020FD002CD4D113B0BDE8F08F208873
S11339E0C0F30E0016E680B5FFF714FEBDE80240F2
S11339F000E610B5040012D0FFF7F5FF18B940F245
S1133A007A4100F072F82046FFF704FE38B10188CD
S1133A100A0402D5D0F80A0010BD083010BD0020F9
S1133A2010BD10B5010013D0FFF7F4FD0446FFF7F5
S1133A30E1FD18B940F2944100F057F844B12088F0
S1133A40010401D5208910BD6088C0F30C0010BDAD
S1133A50002010BD2DE9F04100F044F804003FD0EF
S1133A60FFF7C8FD0FF26C3718B940F2A74100F018
S1133A7078F82846FFF7D5FF80462046FFF7DEFD9D
S1133A80464505462CD003DB40F2AF4100F069F80F
S1133A902088010448BF268122D466802046FFF78F
S1133AA0C4FD04EB400403F0B8FCDFF8FC124A69DF
S1133AB02E1BB6B2954204BF4C61002603F0AAFC4B
S1133AC0082E06D231462046BDE8F041FF2204F01C
S1133AD0EFBE0821204604F005FAA6F10800608034
S1133AE0BDE8F08105460E4694E50FF2E820FEF7A6
S1133AF0E1BA38B50D46FFF78DFD04000AD0FFF793
S1133B0079FD18B940F2EC41FFF7EFFF04EB4500F3
S1133B10808832BD002032BDF8B50D461646FFF749
S1133B2079FD04000FF2AC2714D0FFF763FD18B938
S1133B3040F2F74100F015F83046FFF76BFDFFF750
S1133B4059FD18B94FF49F6100F00BF804EB4500E0
S1133B508680F1BD3846BDE8F44040F2FB41FEF7F3
S1133B60A9BA3846FEF7A6BA2DE9F84F8846C11C13
S1133B708908DFF8345249000027091D2E690FF225
S1133B80542AB0F5005F04461FFA81F904D340F2C9
S1133B9027515046FEF78EFA03F03FFC83466969CD
S1133BA0E86908B9711A03E05FEA080202D0411A11
S1133BB04E1009E0301A4010064680B220B940F297
S1133BC04D515046FEF776FAB6B24E4514DB6F6996
S1133BD007EB49006861E86928B1B8F1000F04BF38
S1133BE000EB4900E86100207C80B880F8803880D0
S1133BF00834298964182C81584603F00BFC384694
S1133C00BDE8F24FFDE4F8B504460D461646002122
S1133C100A20FFF7A9FF0746FFF7FCFC48B106811D
S1133C20C0F80A40018841F400410180C0F80E50F8
S1133C303846F2BD70B504460D4611462846FFF7D6
S1133C4093FF06463CB1300005D0FFF7D2FE2A466A
S1133C502146FDF78BFD304670BD38B5044603F0B0
S1133C60DCFB054600222146534804F059FD284652
S1133C70BDE8324003F0CEBB38B503F0CEFB0446BA
S1133C8000214D4804F0A2FD0546204603F0C2FB86
S1133C90284632BD44484188481E8041C00F7047C1
S1133CA02DE9FE4F04468846208816469B46FFF7BA
S1133CB0B1FC0746FFF79EFC18B940F28D61FFF78F
S1133CC014FF38880104354603D538892D183D8101
S1133CD067E000F077F8019000F070F8814603F097
S1133CE09CFB00968246304E706981451DD1FFF7DA
S1133CF063FCA84203D2504603F08CFB21E00198F8
S1133D002D18BBF1000F7D8008D02088FFF771FECD
S1133D10019B009A41461844FEF71AFB00F04EF846
S1133D207061504603F076FB3BE0504603F072FBB3
S1133D3000F048F82D180021A8B2FFF715FF07007E
S1133D4001D11A202EE000F03DF805462088FFF747
S1133D5050FE06463846FFF74CFE2A463146FEF72B
S1133D60F7FABBF1000F384609D0FFF742FE00F026
S1133D7028F8009A41462844FEF7EAFA07E0FFF7DC
S1133D8038FE00F01EF80099284404F0ABF82088AF
S1133D900121FFF7AEFE024601213846FFF7BCFEC3
S1133DA027800020BDE8FE8FBC7100200C6300203A
S1133DB01063002038650020BE7100203846FFF7EC
S1133DC03DBC054620882CE6756E636C61696D65A3
S1133DD0640000006275666665722D6D616E6167D0
S1133DE0656D656E742E630038B504460D462088F3
S1133DF0FFF717FE29468842208803D3FFF72AFEDF
S1133E00002032BDFFF70DFE2D1AEAB2204601B0A4
S1133E10BDE8304000230021FFF742BF2DE9F04107
S1133E200546884617461E464046FFF7E2FDC4197C
S1133E30300018BF002C1CD04046FFF7F2FDB91922
S1133E40884202DA1D2100F039F80698010003D1F6
S1133E5032462146284604E00128324629462046B7
S1133E6003D1BDE8F041FDF781BCBDE8F041FEF7A8
S1133E706FBABDE8F08138B504460D46FFF7D1FDB1
S1133E80854202D32A2100F019F82046FFF7B1FD3C
S1133E90284432BD70B505460E46FFF7AAFD04005E
S1133EA009D02846FFF7BDFD864202D3322100F037
S1133EB005F8A05D70BD002070BD000089A0FEF76C
S1133EC0F9B870B504460D461646FFF7AAFD8542BB
S1133ED002D33C21FFF7F2FF2046FFF78AFD00B131
S1133EE0465570BD38B50446FFF79BFD0546204690
S1133EF0FFF77FFD2946BDE838400022FFF79ABE50
S1133F00F8B50546069C0E461F461046FFF771FDA0
S1133F1007442846FFF76DFD224639463044BDE884
S1133F20F840FDF723BC70B500F02BF800F003F85F
S1133F30301880B270BD060229462046AAE7E0B5D3
S1133F408DF804200123120A8DF8052000930A46F7
S1133F500146022301A8FFF761FF07BDF8B500F091
S1133F6010F8FFF7E8FF8619E91CC9B2FFF7E5FF6F
S1133F700702AD1CE9B2FFF7E0FFC01906EB0040F1
S1133F80F2BD0D46691C0446C9B283E70EB430B5D0
S1133F900446002180B2FFF7E7FD0546FFF729FD3F
S1133FA0290008BF00200BD003A9002204E051F827
S1133FB0043B00F8013B521CD3B2A342F7D328467A
S1133FC030BC5DF810FBF8B505460E4617460021D7
S1133FD02020FFF7C9FDADF80000FFF70AFD0446F5
S1133FE0BDF8000060B13B4632462021601900F064
S1133FF020F82D18E9B26846FFF7F6FEBDF8000078
S1134000F2BD1CB504AC009400F001F816BD10B567
S113401014461A46029B2044091BBDE81040C9B24D
S113402007E00CB480B502AAFFF7CDFF02BC5DF82F
S11340300CFB2DE9F0470446884691469A462546EE
S113404000260AE03A462846ED19FDF78FFB7F1E4D
S1134050BE19761CF6B209F1010946453CDA99F815
S11340600000002838D0312818BF32280ED15AF861
S1134070041B05F8011B3228EBD1761CF6B2B045BF
S1134080A4BF091205F8011BE3DA25E034280ED198
S1134090311D5AF8040B88451EDB2870020A6A7029
S11340A0010CA970000EE8702D1DF61CD1E7A0F1DB
S11340B033025AF8041B072A38BFA0F1300707D38C
S11340C0A0F14102072A34BFA0F137075AF8047B54
S11340D0FFB2B8194045B5DB2C1BE0B2BDE8F08750
S11340E0000000006C65676163792D7061636B6526
S11340F0742D6275666665722E63000000F101031B
S113410010F8011B11B110F8011BFBE7C01A70472E
S1134110010008D4012200F01F01DFF8A4378A400F
S1134120400943F82020704701000CD4012200F01C
S11341301F01DFF890378A40400943F82020BFF37D
S11341404F8FBFF36F8F7047010008D4012200F036
S11341501F01DFF874378A40400943F82020704774
S1134160C26C1143C1647047012803D9103801D0CF
S1134170103801D1012070470020704710B5DFF8D6
S11341804C4730B1012807D0102802D0202803D092
S113419004E00020204410BD1C20FBE740F2831102
S11341A0DFF83C08FDF786FF204610BD426893887F
S11341B04089411A8B4201DA012070470020704780
S11341C07FB50446FFF7D0FF00283BD0204600F01F
S11341D077F890B300F0D2FA054603F01EF90646CC
S11341E0A86901AB6A4602A905F098FB00992A89DF
S11341F0286889B200F027F8304603F00BF9A86963
S113420005F003FC012818D12A68298990882A8A94
S1134210091A914211DBA86990F83110022903D1DF
S113422005F07AFB022804DAA86990F83110012914
S113423003D1A869002105F0C1FB200014BF102C94
S1134240FDF789FB7FBD70B504460E46154603F0A5
S1134250E4F8E288B2420CD221888B1A991991FBB6
S1134260F5FC05FB1C152580A388F3189A1AA28077
S1134270E68000F0EABBF8B504460D46164600F0A9
S11342801FF8B0B100F07AFA0446207B10B1012186
S11342906173F1BD607B18B12046BDE8F240BAE01D
S11342A00FF2D91700F006F818B100F003F800284F
S11342B0FBD1F1BDA0693B463246294605F06ABCF4
S11342C0012818BF202801D1012070470020704721
S11342D070B506460D46FFF751FF012E18BF202E7C
S11342E0044643D1A069016890F83200E0B9042281
S11342F08A6400F057F9A06900683DB10421FFF712
S11343002FFF0C20FFF704FF052107E0C16C21F00B
S11343100401C1640C20FFF707FF0021A0690068B5
S1134320BDE8704005F0F2BC0420486300F03AF99F
S1134330002DA0690BD001688A6B42F004028A63E5
S11343404FF48051DFF878251160052109E00068F9
S1134350816B21F0040181630C20FFF7E5FEA06965
S113436000210068BDE8704005F078BD70BDF8B567
S11343700446DFF8700681421D462AD00026F2B2B8
S11343801C20DFF8481542438F18BB69A3421CD197
S11343903A893868A9B2FFF756FF38680021C1800E
S11343A002E0384600F016F8204605F0B5FA022877
S11343B00BDC3889F9893A68A0EB4100918888427E
S11343C0EFDA0121204605F0F9FA761CF0B2022852
S11343D0D5DBF1BD70B50446DFF80C36E089668A9A
S11343E02568024670432E18A06906F1080105F0FD
S11343F08DFBA06905F090FA012803DDA069002176
S113440005F0DCFA608AA18A401C90FBF1F201FB02
S11344101200608270BDFEB50446207B68BB6068F4
S11344200FF259064188084400F10807A0696B4659
S113443001AA02A905F091FA61688A880098019D91
S1134440121A551B4A88088890420ED26189A069C5
S11344508A1A3346394605F09DFB70B96268618952
S113446050886D1A451902F10807A0693346EAB26B
S1134470394605F08FFB00B96073F7BD2DE9F041B3
S1134480054698460027F9B21C22DFF84004514340
S11344904418A369AB4218D160688188414534BF90
S11344A08688464602F0B9FF61684A8812FA86F1A6
S11344B0628991FBF2F302FB131162685180616817
S11344C08A88961B8E8002F0A5FF7F1CF8B2022812
S11344D0D9DBBDE8F08138B52020FFF74FFE054653
S11344E0DFF80805A96991F83120012A3FD1016953
S11344F00A0640D505F07AFC112809D1A8690021E3
S113450005F069FA002028732846BDE8324082E7A6
S1134510132806D1A869012105F05DFA012028734A
S113452031BD29682A898C88141BA4B25CB101F1BD
S11345300802098850542868018800F095F9018020
S11345408188491C8180A86905F05FFA20B9E8894F
S1134550A04210DB012105E001280CD1288A844205
S113456009DB0021A869BDE8344005F027BAC16C15
S113457021F00401C16431BD10B5DFF8704428B9DD
S11345802046BDE81040002105F0C0BB00F00AF849
S1134590DFF82C134FF480500860E26C42F0040200
S11345A0E26410BD0C20CFE580B530B9BDE804400D
S11345B00521DFF8380405F0A9BBFFF7F3FFBDE8D8
S11345C002400C20B0E5F8B50C461546FFF7D6FDC1
S11345D00646306881883289E8B2121A914201DBBA
S11345E00120F2BD00270EE002F017FF316814F835
S11345F0012B01F1080309885A547F1C31680A8889
S1134600338900F051F9AF42EED30020F2BD10B56A
S1134610012818BF20281CD1FFF7B0FD0446A0696B
S113462005F052F9800414D56168888888B9A069B6
S113463005F08FF9002802BFA06990F83210002914
S113464007D105F041F900F44030401E8041C00F0D
S113465010BD002010BDF8B5012804460D4603D94D
S1134660103801D0103850D1204600F0F5F910B9B7
S1134670204600F085F800F081F8064600F07EF848
S113468021000FD0012C03D0102C0BD0202C3CD1B6
S1134690DFF85C13DFF85C23016080234260038150
S11346A0438109E0DFF85023DFF8501302604160D2
S11346B04023802103814181200018BF102C03D1A5
S11346C0BDE8F140FDF762B8012C18BF202C53D18E
S11346D0012C16BF202CDFF828030020012C18BF62
S11346E0202CB06111D1DFF81C13DFF81C03E96141
S11346F0A861A98CF181EB8C33828B4207D21C21F7
S1134700304603F079FD0220F2BD0120F2BDB2690A
S113471092F8310001280CD0308990FBF1F701FBAD
S11347201700002802BF93FBF1F001FB10310029B0
S1134730E5D12946104604F093FCF0B9B069017F35
S1134740007E01230222FEF712FB287C012808D1F7
S113475001212046FFF7BCFDB069002105F02EF9C8
S11347600AE0002070823189F08991FBF0F0B08278
S113477000F06FF900F06DF90020F2BD2046FDE471
S113478058B50128044603D9103801D0103812D185
S1134790204600F061F9E8B9204600F037F9FFF748
S11347A0EDFF012C18BF202C06460FD1B06904F090
S11347B092FF10B152BD012052BDB06990F8311082
S11347C0012903D100212046FFF782FD1C21304638
S11347D003F012FD002052BDF8B5074601280E462D
S11347E03C4603D9103801D010380BD13846FFF7B6
S11347F0C5FC05463846FFF7E3FC2968888818B9E4
S11348002620F2BD0120F2BD02F007FE074628680B
S113481000F1080140880A5C32702868418800F081
S113482023F8418081884A1E012C18BF202C8280E5
S113483015D1A86990F83110012903D10FE0284659
S1134840FFF7C8FDA86905F067F8022807DA288988
S1134850E9892A68A0EB410091888842EFDA38465A
S113486002F0D8FD0020F2BD2A89491C91FBF2F325
S113487002FB1311704780B5FFF780FC01464A68BC
S113488048899188401A80B202BD02B5012804D932
S1134890B0F1100101D0103904D10122694600F0B1
S11348A017F802BD012002BD521C92FBF3FC03FB6E
S11348B01C220A808A88521C8A8002F0ABBD000048
S11348C000E100E080E100E080E200E0D86C00203C
S11348D02DE9F84F0128804604D9B0F1100301D026
S11348E0103B10D1002818BF1028894692460CD0DE
S11348F0FFF744FC0646002470680188084400F170
S1134900080B00252FE0012045E051464846FDF7FD
S1134910A4F93FE002F081FD71680B8819F8012BBE
S113492019440A7271680A887389521C92FBF3FC59
S113493003FB1C220A808A88521C8A8009884F1E25
S1134940BF4102F067FDFF0F67B1EFB27F1C3F1B51
S1134950FAB259464046FFF78EFC70683C19E4B23F
S113496000F1080B6D1CE8B250450AD20021304614
S1134970FFF71CFC0028CDD1307B0028F6D0222084
S113498009E0544506DAAAEB040082B259464046CF
S1134990FFF771FC0020BDE8F28FF8B5012401286F
S11349A007460E46154603D9103801D0103815D1E4
S11349B0380018BF102F04D129463046FDF74DF9B1
S11349C000243846FFF7DAFB012F18BF202F05D14A
S11349D080692A46314605F01AF804462046F2BD9D
S11349E058D50200097000F06F4300000000014038
S11349F0C86B0020506C0020F86A0020406B002037
S1134A00106D00208C6200200C62002070B50546F9
S1134A10FFF7B4FB0646012D346818BF202D0DD1D5
S1134A20B06990F83110012908D0022104F0C2FEC7
S1134A300020708200F00DF800F00BF802F0EDFC9D
S1134A400021A18021806180E180BDE8704002F0F6
S1134A50E1BC3046FFF7BEBC80B5012804D9B0F1F3
S1134A60100101D0103906D1FFF788FB00281CBFC4
S1134A700068002801D1012002BD002002BDFEE72C
S1134A8020B5002192A2CBB2D35C834205D0491C4D
S1134A90CDB2082DF7D3002020BD012020BD000099
S1134AA020B500218CA2CBB2D35C834205D0491C33
S1134AB0CDB2082DF7D3002020BD012020BD5E48D3
S1134AC0B0F8E20070475D4870475D480078704771
S1134AD05C48007870475B490870704738B55A499C
S1134AE05A4C087002285A495A4D13D12878042880
S1134AF009D0084605F0F8F9287803281EBF0428D1
S1134B00204605F0F1F954480168CA0054BF9024C6
S1134B10BC240FE000200870207005F04AFB2878C0
S1134B20032818BF042802D105F02CFC01E005F08D
S1134B3038FF9124204605F08BFF50B923461322F9
S1134B403CA10320FBF747FC2046BDE8324006F0B9
S1134B504ABD31BD3C48007800F00F0070473A4828
S1134B60017801F00F01022901D1012070470020D2
S1134B70704710B504463448007800F00F0102294C
S1134B801CBF0328932092B017D100F08FF8BDF812
S1134B90020020819DF80100A07220469DF80010BB
S1134BA0E17207F084FF0020207304F1140104F182
S1134BB0100008F059F8E081002012B010BD10B5C3
S1134BC00C462149097801F00F02022A1CBF03296F
S1134BD0932092B00ED16A46002108F085FA9DF820
S1134BE001002070002161709DF8000000F01F009A
S1134BF0A070002012B010BD10B5002300E05B1CB3
S1134C00DCB28C4205D210F8014B9442F7D000205C
S1134C1010BD012010BD082108F094BD0A48007899
S1134C2001281CBF3128332801D1012070470020FE
S1134C30704700004242000044770020287800209A
S1134C402C7C00203F7B0020297C00207C6D0020F0
S1134C5040740020287C00201077002038B50446DA
S1134C6092B02146002000F0C4FA0546C0B250B903
S1134C706A46002108F038FA8DF801406A4600219E
S1134C80002008F0B7F9E8B213B030BD80B592B097
S1134C9000F00CF89DF9010013B000BD80B592B08E
S1134CA000F004F89DF8000013B000BD6A4600212E
S1134CB0002008F019BA0120704780B592B0FFF7C0
S1134CC0F5FF9DF80000400918BF012013B000BD96
S1134CD00001020304051D200203040508090A0B50
S1134CE038B5044603F026FC0546DFF8D40783787C
S1134CF00178994212D0DFF8CC07806A641E07D08D
S1134D00641E08D0A41E06D0A41E032C03D905E0FB
S1134D100022194600E0002208F03FFD284632BD7B
S1134D202DE9DC4FDFF89C4703EA010BD4E908675F
S1134D3027EA010926EA000802EA000A49EA0B09FF
S1134D4048EA0A08B94508BFB0450ED0CDE90023AA
S1134D50C4E908890246A06A0B4609F047F820B165
S1134D60BDE8DC4F40F2751111E2BDE8D38F0000BD
S1134D7078B589B00DF108004DA1DFF848471C2231
S1134D80FDF7E6FAA08BC10700F190800121012014
S1134D9000F037FF0A204FF428716073ADF80E104D
S1134DA0DFF824070FF20971DFF8205708F0D7FC69
S1134DB0A06218B940F2B91100F088F8A06A052180
S1134DC008F034FE18B140F2C11100F07FF8A06A77
S1134DD003F0E3F8DFF8F8060168A06A09F07AF84E
S1134DE000F059FA0C2610FB06F0ADF81A0000F09A
S1134DF052FA10FB06F0ADF8160002A9A06A09F0F9
S1134E008FF818B14FF4EB7100F060F8A06ADFF886
S1134E10C416002209F00EF918B14FF4ED7100F038
S1134E2055F80320052120706170A170002600F060
S1134E30FBFFE07000F02FFA142110FB01F0A080BA
S1134E4000F029FAC000E080A6604FF0FF30DFF8E0
S1134E50882640F242330146FFF762FFA06ADFF87A
S1134E60F01A09F035F9A06A01A909F0B3F918B1EB
S1134E7040F2052100F02AF8A06A0422694608F0ED
S1134E809AFC042803D040F2092100F01FF8694677
S1134E90012009F0C0F909F023FB012000F06CFFA8
S1134EA003F046FB01F03BF800F08FFD0AB070BD43
S1134EB00000000001000000020202026400000081
S1134EC064000000000000000B0000002846FDF70D
S1134ED0F1B838B5DFF8EC45A08B820703D54FF461
S1134EE0097100F0BCFA0021217502F096FA05461A
S1134EF0A08B410709D509F01BFB216B401A40F236
S1134F00C532904201D300F067FA00F08AFF607B5B
S1134F10042820D102F081FA0546A08B41072BD446
S1134F2000F07FFF02F079FA0546E06A401C09F0C0
S1134F306CFB00F020000128ACBF06200520607344
S1134F40012100F04EFA00F091FF00F06AFFE06AE0
S1134F50C178617431BD062830D1DFF86405C179A8
S1134F60FF2937D109F066FB207C20B302F055FA03
S1134F700546A08B410706D504F1140004F0B4FFE4
S1134F80284600F04CBE00F04CFF207C411E2174EA
S1134F9002F043FA0446012100F023FA00F066FF10
S1134FA0204602F037FABDE8384000224FF6FF7180
S1134FB0042009F0B3BB6073402007E0012809D145
S1134FC000206073A06A08F0F0FB3F20BDE8324087
S1134FD000F0F7BD31BD70B5DFF8E844607B0E46E4
S1134FE0154618B140F29A2100F039FA2900E66218
S1134FF003D0A17811B1012100E00021202000F0AC
S113500000FEDFF8700A01782174002D14BFE07BE4
S11350100020A0730420607304F1140004F064FF02
S1135020BDE87040DFF8500A007805F05CB82DE95F
S1135030F04102F0F2F9DFF88C548046A88BC105E8
S113504006D5687B10B900F0C0FC01E000F08AF8D6
S113505000210020FFF744FEDFF86464B079FF27E5
S1135060FF2818D0B07928B9B7710024687B0528C7
S113507011D105E0B079B77101280CBF4C24332459
S113508000206873404602F0C5F9204600F099FDFF
S113509002F0C3F98046687B062833D1F079FF28F3
S11350A030D0F079022804D105F1140004F01CFF7B
S11350B028E0F07900281CBFF079012826D100F0FF
S11350C0BCFD0446F079012818BF00200021002C03
S11350D0297518BF0028F77109D00120687364216D
S11350E005F1140004F00BFF00F047FC0BE06973BA
S11350F0404602F08FF9002C14BF3F20002000F03E
S113510060FD03E0F771404602F084F9A88B0006C5
S1135110C00F05D00021802000F073FDFCF7C6FF0E
S1135120FEF7AAFD0024E883D0B1687B012806D1EC
S11351300021002029756873012408F011F9687BA7
S113514008B900F042FCE98B002008F041F9002086
S1135150E8832CB1687B18B9BDE8F04108F034B994
S1135160BDE8F08100214FF4807000F04ABD80B5A5
S1135170FEF790FD7AE080B500F019F808F04BFFD7
S113518020B1BDE804404FF4697100E001BDDFF8CF
S11351903C03FCF78FBF80B500F009F808F02CFF42
S11351A020B1BDE8044040F2AB31F0E701BD104648
S11351B00A46DFF8C8380146986A7047C148417BFF
S11351C0481E8041C00F7047DFF8B008417B0129B9
S11351D001D1012070470020704780B5B949487B50
S11351E018B140F2CB3100F03AF900F0EEFB0020A8
S11351F002BD80B5DFF88438986A0A2211FB02F1F7
S113520008F02DFE00B1212002BD80B5DFF86C1836
S1135210886A08F048FE0A2190FBF1F040B202BD12
S1135220A7480079704738B5A64D687B002818BF99
S113523001280C4603D04FF47B7100F010F921468D
S1135240002000F00EF808B9212032BD9C490C71F1
S1135250687B10B900F0B9FB01E000F08EFB002080
S113526032BD80B59748806A08F04CFC401E8041EE
S1135270C00F02BDDFF80418C870704780B5DFF8AE
S1135280FC27906A012108F050FB411000EB91705B
S11352908005001602BD80B58A49886A08F0EBFBD8
S11352A000281FBFDFF8241CB1FBF0F080B20028F7
S11352B008BF012002BD80B58249886A08F0DFFB7F
S11352C000281FBFDFF8041CB1FBF0F080B20028F7
S11352D008BF012002BD10B50C46012100F020F8E2
S11352E0FFF7D9FF4443DFF894070FF20523806AE0
S11352F00122214608F0C4FA002010BD10B5DFF8E1
S11353007C47A08BC20603D440F2594100F0A7F8B1
S113531000F005F8A06ABDE8104008F0BEBA00210C
S1135320102000F06EBC09F003B910B5DFF84C474B
S1135330A06A08F03EFFC00704D5A06ABDE810408B
S113534008F03CBF10BD80B5DFF83007806A012249
S1135350012108F026FA00212C20FFF7C1FC00F0FF
S1135360FBFAFEF7B4F8BDE80240002000F036BCBA
S113537038B5544C48B100F02FF8607B01282AD18D
S1135380A06ABDE8324008F010BA00F0E3FA10B3A6
S11353900020A0734A4DA879FF2803D040F2EB41C6
S11353A000F05DF800F01CF80020A871617B06296C
S11353B006D1012100F079F800212820FFF790FCA4
S11353C0607B052806D100212B20FFF789FCA06A09
S11353D008F0EBF964E031BD0021042000F011BCB9
S11353E00021022000F00DBC38B50C4610B1FFF7C7
S11353F0F3FF29E000F0AEFA30B3012C314D14D1A3
S1135400A87B90B1401EA873C0B218B90021202017
S113541000F0F7FBFFF7E4FF0420687305F11400C4
S113542004F062FD00F090FA10E00020A873FFF78A
S1135430D7FF234DA879FF2803D040F2225100F072
S11354400EF8AC71FCF731FE012C07D1BDE83840F1
S113545000224FF6FF71202009F060B931BD1B48CE
S1135460FCF728BE38B5174D184C6A7B062A03D0C2
S113547040F25F6100F004FB082000F0D4FB18B98F
S11354804FF4CC6100F0FCFA297C2A20FFF728FCB9
S113549000F00AF80A490220C871A86A08F085F9E0
S11354A0BDE83140FCF701BE00210820A9E300005B
S11354B0DFF89C1A0020487301214FF48070A0E3A8
S11354C094630020A8680020A8630020785F00008F
S11354D070630020347700200A0020FF01A0FCF74D
S11354E0E9BD00006C69627261696C2E61000000A4
S11354F080B5102000F097FB18B940F28161FFF7E6
S1135500AEFFFFF70CFF002008F01AF8BDE80140D9
S1135510FCF7CBBD2DE9F84F144614F0C00F8CB046
S11355200546984605D000F0D3FC01460120FFF75C
S1135530D7FBA002029525D5284609F07CF908BBC3
S113554000F012FA029803A908F098FDD0B99DF86A
S11355501400022809D1BDF80C0009F05BFAFF28F9
S113556009D009F0B4FA30B90CE003280AD103A831
S113557009F00FFC30B1029808F07EFD10B901214A
S113558000F0F3F9A00305D500F0A2FC01460320C6
S1135590FFF7A6FBE001DFF8E45403D50020FFF792
S11355A0E7FE38E0687B18F0020308D006280CBF39
S11355B0012100212620FFF793FB012112E0E100E5
S11355C005D506280CBF01210021262007E014F090
S11355D0884F0BD006280CBF012100212720FFF79C
S11355E07FFB02210020FFF7FFFE14E018F0080102
S11355F003D000212320FFF773FB18F0040103D02C
S113560000212420FFF76CFB18F0010103D00021D6
S11356102520FFF765FB21070FF65C196DD5A86AF5
S113562007AA032108F050FD06004FF0000A03D139
S113563040F2425100F09BF99DF81C00072867D105
S1135640A86A03AA314608F047FD18B140F24C514C
S113565000F08DF9BDF81E10A86A891C03AA89B24E
S113566008F03EFD18B140F2565100F080F9CDF833
S113567000A00423A86A01AA314608F04BFD0428BF
S113568003D040F25D5100F072F90DF1050008F00D
S1135690BCFF00F007000228DFF8B8B82ED100F0F4
S11356A017FC01460920FFF71BFB687B062802BF95
S11356B09DF80700697C88421FD19DF8150018B930
S11356C040F26E5100F053F90DF1050008F09DFF12
S11356D000F010000028C8BF4FF0010A51462920ED
S11356E0FFF7FEFAFFF7E0FE8BF807A000F0A5FA3B
S11356F0002802D1A86A08F058F890E0BDF81E000E
S11357000830012180B2FEF72FFAADF8000030B95D
S113571000F0DEFB01460420FFF7E2FA7FE0FEF72B
S113572068F9BDF8202009990646FCF711FE0A998C
S113573041B1BDF82000BDF81E20121A92B23018F3
S1135740FCF706FE701C08F060FF00F02000002843
S11357502EDD00F0BDFB0746A86A09F06CF80028AE
S113576014BF062005203946FFF7BAFA701C08F06A
S11357704CFF00F00700032809D10922012130461B
S113578009F08CFD305C042808BF012700D00027F5
S11357900121FFF722FE08F0CBFE2863A7B14020C9
S11357A000F041FA80B100F0DFF84FF0010A0BE09D
S11357B000F08EFB01460920FFF792FA687B01286E
S11357C004BFA86A07F0F1FFBDF81E009BF805109E
S11357D037183970FF219DF81600B8709DF817002E
S11357E0F87039710398000C78710398000AB87145
S11357F0BAF1000F0398F871707814BF40F02000DC
S113580000F0DF007070002007F05DFF7870BDF8D5
S11358100000FEF722FA00F097F8FCF746FCE005DA
S113582005D500F055FB01460420FFF759FA14F49E
S1135830863F05D000F04CFB01460220FFF750FAEA
S1135840A00108D500F044FB01460820FFF748FA00
S11358500120FFF78DFD14F0084F05D000F038FB50
S113586000F07EF800F086F8A00007D500F030FBC9
S113587001460620FFF734FA00F07CF8A00705D5AE
S1135880082000F0D0F908B1FFF7ECFD18F0400152
S11358900DD000F061F8082000F0C5F908B1FFF759
S11358A0E1FD042000F0BFF908B100F063F818F03E
S11358B080011CBF012009F049FD18F4807139D022
S11358C0029807F068FF022802D0032814D02DE0C4
S11358D0042000F0A8F928B100F0FAFA00F040F82A
S11358E000F048F800F036F820B3687B06280CBFB7
S11358F001210021272012E0042000F094F928B1AE
S113590000F0E6FA00F02CF800F034F800F022F889
S113591080B1687B06280CBF012100212620FFF7F7
S1135920DFF901210020FFF75FFD03E040F217716A
S113593000F01DF818F4007103D00121802000F05C
S113594060F90DB0BDE8F08F4B48007804F0CBBB94
S1135950815C0000022066E100210A20FFF7C0B943
S113596001460720FFF7BCB90021402049E1484621
S1135970FCF7A0BBFF21012036E57FB56846002176
S11359800022002380E80E00DFF8C845DFF8C06578
S113599025788DF8005001F040FD054660792179A5
S11359A0884204D1B06A07F0FAFE01280AD12179AD
S11359B061716A46B06A07F0ABFF18B140F2FA7140
S11359C0FFF74DFD00F02DFA7FBD70B50020FFF705
S11359D0F5FB0FF2A45418B940F6580100F050F842
S11359E001F01BFD0546062000F01DF918B1012148
S11359F0FFF7B9FB3BE0FFF7B5FB002007F04EFED5
S1135A0002281E4E02D1B06A802208E0002007F06E
S1135A1045FE10B101280DD025E0B06A0022802196
S1135A2009F098FC012000F0D9F8FDF752FDFFF7CA
S1135A30A4FF1CE0B06A07F0B8FEB06A07F0AFFE3E
S1135A4001280AD0B06A0122012107F0AAFE002130
S1135A502C20FFF745F9FFF77FFFFDF738FD002005
S1135A6000F0BCF803E040F6870100F009F828468E
S1135A70A1E10000E0670020217C0020A86800204C
S1135A802046FCF717BB2DE9F84F012009F0B8FCBC
S1135A90FFF760FF00260FF2E04818B940F69501C1
S1135AA000F08CF8DFF8A854687B062818BF052896
S1135AB003D040F6980100F081F8E86A18B940F67E
S1135AC09A0100F07BF8202000F0ADF800281ABFFE
S1135AD04FF47A76012100212220FFF701F9FFF724
S1135AE0EAFBE96A0A780932504306EBC006687B90
S1135AF006280AD1FFF7CFFB8246FFF7DCFB6021C3
S1135B000C24484304FB0A0A5644EC6ADFF8447444
S1135B102078A0F1010A601C08F077FD00F0200055
S1135B204FF0000B002878783872CCBF4FF0010991
S1135B30D946B6B2B9F1000F3E6118BF4FF0010B60
S1135B4008F070FD38B108F06BFD01280CBF082087
S1135B50102040EA0B0BA86A80235FFA8AF22146E0
S1135B6008F098FA3E797E712020AC6A00F05BF868
S1135B70B0B107F1080000902B465A463146204642
S1135B8007F0A1FE38B14946262002F0D3FC40F6C6
S1135B90510100F013F8BDE8F24F002009F030BCC9
S1135BA007F108035A463146204607F07CFE0028D8
S1135BB0E8D100212520FFF793F8ECE74046FCF7F5
S1135BC079BA10B50446FFF700FF2146002007F01C
S1135BD0C7FBBDE81040002007F0F6BB10B5044633
S1135BE0002007F05BFD01280AD1DFF86C0302787E
S1135BF0944205D004702046BDE81040FDF772BC05
S1135C0010BD38B504460D4601F007FCDFF840131B
S1135C108A8B002D14BF144322EA04048C83BDE84C
S1135C20324001F0F7BB0146DFF82403828B11EA0E
S1135C30020018BF0120C0B2704710B5DFF810434E
S1135C40E06A18B940F6FF01FFF709FCE06A401C5E
S1135C5008F0DBFC00F0070003280AD1E06A0922FF
S1135C60012109F01BFBE16A085C042801D1012031
S1135C7010BD002010BDDFF8E4124008085C704736
S1135C8010B50C464FF0FF3009F0C3FBDFF8C0122B
S1135C90241A886A09F0BDFB241A14F1630F01DA8F
S1135CA0002010BD14F1240F01DBFF2010BD64346B
S1135CB02402601104EB9064A404200E10BD80B58E
S1135CC0FFF775FA08F0B6F928B1BDE8044040F6CC
S1135CD04811FFF75CBA01BD704780B500F003F9C5
S1135CE0012801D0012002BD002002BD10B5DFF85B
S1135CF060324C000146986A224607F05CFDA042DF
S1135D0001D0002010BD012010BD042801DB0220B9
S1135D107047DFF83C12C87300207047DFF8340284
S1135D20DFF82C320179986A012207F0E2BD0AE01B
