S02D00006E63702D7370695F65667233326D6731347037333366323536676D34385F62726434313639622E733337B6
S1130000A86100206DEA020025670000B9E502003E
S1130010A70A0A010001000004180FAC006AA60236
S113002000000000000000000000000000000000CC
S11300300000000038F00200000000000000000092
S11300400000000000000000FFFFFFFFFFFFFFFFB4
S1130050FFFFFFFF0070030000000000000000002D
S1130060FFFFFFFFFFFFFFFF340000000000000060
S1130070000000000000000000000000000000007C
S11300800000000000000000D07E0020D07E002090
S1130090A861002065170300F2EA02004858002016
S10F00A0582D00200000040000000000A7
S1130100A86100206DEA020025670000B9E502003D
S1130110B17E0000BDE50200C1E502000000000060
S11301200000000000000000000000004304000084
S1130130C5E50200230300008B170000FF2F000019
S113014081800000BF06020011230000CDE50200FB
S11301508D010200F9060200C5060200C70602006E
S1130160C1060200791C0100D51E0100A97300001C
S1130170E3440000CDE50200CDE5020093E7020070
S1130180CDE50200CDE50200E31E0100CDE502004D
S1130190CDE50200CDE50200CDE50200CDE502008B
S11301A0CDE50200CDE50200CDE50200CDE502007B
S11301B0FB060200C3060200A51F0200DFFC0000CC
S11301C02F070200CDE5020099E90200CDE5020007
S11301D0CDE50200CDE50200CDE50200CDE502004B
S11301E0CDE502000000000000560348016830BF5E
S11301F041F000410160704700BF4C310E400F4890
S1130200816B89B201B1012141F67132826346F2F8
S11302101A32036843F001030360C2644FF480732D
S113022043604269D307FCD40022C264C9B20368A4
S11302305B085B00036001B1826300207047080023
S11302400E4000002DE9F84F8046DFF87C90FF2235
S11302502421484600F048F8DFF870B0FF224FF43C
S11302609571584600F040F819481A4F1A4C0090FE
S11302704FF0240A0026A25D1849BD5D885D521C1A
S113028002EBD272521000B11932154830F8161030
S11302900098D21C6A4300F06EF8012D1CBF2BF8A5
S11302A016A0AA44761C242EE5DB24234FF48052A6
S11302B04FF4B0610B4800F05EF849464046BDE893
S11302C0F44F00F0CCBA00BFDC680020CC690020F9
S11302D0F4EA02002CED020008ED0200E4EC020056
S11302E09CEC020010EB020062F30F2262F31F4247
S11302F000B500BF130096469446103928BFA0E805
S11303000C50FAD85FEA417C28BF0CC048BF40F8C3
S1130310042BC90728BF20F8022B48BF00F8012B83
S113032000BD70473D49087070472DE9F041160043
S113033088463A4C1CD0A078677865683F1AFFB2AB
S1130340F1B2B942B8BF0F463A464146281801F007
S11303500DFAA378FB18F61BA370B844F0B238B1B9
S1130360A11C284601F0AFFA0028E4D0012000E0E7
S11303700020BDE8F0810EB430B5284D044628783D
S1130380A0B0B0B101F08DFA98B1802168466970CF
S11303906860022101F08BFAA87023AB2246002189
S11303A01F4801F083FB6868A91C01F08CFA00B9AE
S11303B0A87020B030BC5DF810FB1A480021002260
S11303C0002380E80E007047164931F81020521CB3
S11303D021F8102070470CB480B502AA01F09CFCEF
S11303E001BC5DF80CFB0D4A1178A1B9010018BFDE
S11303F0012810D0042818BF05280CD0312818BFB4
S1130400332808D037281EBF3B284FF6FF71884297
S113041001D001207047002070470000287500209B
S11304202B03000030750020302818BF322806D076
S113043034281CBF3628382801D0002070470120FA
S11304407047FEE730B5DFF8205ADFF8204A2B88E2
S11304502468C01A04EB4004002004E034F810308F
S113046021F81030401C9042F8DB002030BDDFF84A
S1130470F839DFF8F8191A880968801A01EB400185
S1130480022001F067BDF8B504460F461646DFF8B2
S1130490DC59F0B218B34FF6FF70ADF8000000203D
S11304A017F8011BC3B2401C0DF80310761EC1B22D
S11304B0022902DAF1B20029F2D1DFF8ACE92868A6
S11304C0BEF800301FFA84FCACEB0303012269463A
S11304D000F0F2FD641C0100DBD000F0C9BC012077
S11304E0F2BDF8B504460D461646F0B288B10122B5
S11304F000F010F8641C0020C2B2401C1DF8023049
S1130500761EC7B2022F05F8013BEEDAF1B20029DC
S1130510F2D1F1BD6946A0B294E70146DFF8780B49
S1130520DFF8782B405C525CDFF8743B595C09B10E
S113053002F5997240EAC21080B2704710B5DFF834
S1130540583BDFF8602B1C5C012C1CBF32F81000F8
S1130550081802EB400010BD70B590B005460C467B
S11305604FF6FF7604E0A8B2FFF781FF203D203567
S1130570A9B28C420DD3202200F0EDFF002082B2FC
S11305803DF81230B342EED1401C81B22029F6DB93
S1130590EDE710B070BD10B5044661882088FFF700
S11305A0DBFF0121DFF8002BDFF86C3CA171208810
S11305B011784118188801EB4001891DA18010BDF4
S11305C02DE9F0430446DFF8E00A0778B946B9F1AB
S11305D0060F85B003DD40F2DE2100F0FBFB0021B5
S11305E0A1717A1C208892B201A9FFF72BFFBDF8F4
S11305F004104FF6FF76B14218BF00290CD00DF15C
S11306000408711A38F81900884205D101251EE042
S1130610BDF80410884219D02046FFF7BCFF05B08E
S1130620BDE8F08338F815000028F1D1DFF8901CFC
S11306300A88208812FB052141186A437118101892
S113064089B280B2FFF788FF0221A1716D1C4D456C
S1130650E8DBA0790228E2D02088381800F073FB88
S1130660BDF80200000B4845D6D120883818401D3B
S113067000F06AFBBDF80210BDF80200711A000A0E
S113068001F0FF018842C7D10320A0710122208814
S11306903F187F1C6946B8B2FFF7D4FEBDF80000CE
S11306A0FF2802D10421A171B9E7B042B7D00028D4
S11306B0B2D1B4E72DE9FE4F0646DFF8EC09DFF8C6
S11306C05C8BDFF800AC8B460178ADF80810012292
S11306D034880C19641DFFF71DFFDFF83C1BBDF8BF
S11306E00000B1F80090641C000AADF80000484511
S11306F01CBF01218BF80010002519E0401CC1B279
S1130700494513D2C7B23AF81710BDF806209142F2
S1130710F4D1C0B2FFF701FFBDF804304FF6807288
S113072010401340984208BF08F807506D1CADB242
S1130730BDF80000854206DA022201A9FFF7EBFEAC
S1130740A41C0020DBE7002001E0401C80B24845E7
S113075016DA18F800108142F7D001208BF8000057
S11307600EE021F817A00BE00128DFF83819F8D0C3
S11307707F2D31F8170008BF0025281821F810A094
S1130780A1B27088C01E88424FF6FF7551DB00F09D
S113079061F8BDF80200FF27A8424AD0601C00F0AF
S11307A095FEBDF80200BDF806102A1A91424CD1FC
S11307B004F1030A040A00F07F05BDF80000844236
S11307C043DA002000E0401C484504DA18F8001021
S11307D0A142F8D1C7B23088BDF80830181800EB30
S11307E04400801D012201A980B2FFF72BFEBDF851
S11307F00400C0F3C710401C00EBD0700AEB600487
S11308007088A1B2884220D3FF2FB9D0DFF88808BE
S1130810C05D7F2D14BF2946002181429DDABDF8B9
S11308200210DFF87C28D35D0906C90F99429BD0DA
S113083093E7B4807088A1B2884209D300F00AF823
S1130840BDF80200641CA842F4D001218BF800100A
S1130850BDE8F78F01220DF10201A0B2F2E52DE906
S1130860F84F84B0DFF80016DFF85C7A0A88DFF806
S1130870A819DFF8405C8DF80000ADF806203A8036
S1130880DFF8480A02887A8008880C88BDF80610C8
S1130890DFF83C2AADF80A00DFF80C0890F8008075
S11308A04646711801EB4401891DB9800020B871D6
S11308B0DFF8201A08883881301800EB44001188CA
S11308C0DFF8142A7981801DB8810020B873DFF81D
S11308D00C1A08883882301800EB4400801D1188F7
S11308E0B88279820020B87501F0A9FB002840F095
S11308F00A8128700021B971B973B87507F108012C
S113090007F11000E860A9606F603846FFF758FEF1
S113091007F10800FFF754FE07F11000FFF750FE3F
S1130920B979B87BDFF8449504293DD10022042825
S1130930ADF802207AD13846FFF72DFE00F000FA18
S113094000F0FBF9384607F1080110370122A960CD
S11309506860EF609DF800100A4318BF01228DF80B
S11309600020012200883018801CA91C80B2FFF7E7
S113097069FD9DF80000002840F0C8806868DFF831
S113098024876946FFF796FEDFF82C0B0788A868D2
S11309908179032940F0AC806946FFF78BFE6A68D1
S11309A0DFF8F406002199E0B97D04282BD100205A
S11309B00429ADF80200BED03846FFF7ECFD00F084
S11309C0BCF9B7F808C000F0C5F9002880463DD14D
S11309D00320B873B879032849D1B87B032802D11E
S11309E0B87D012862D0B879012849D1B87B0328A1
S11309F053D1B87D012818BF03289CD107F1080002
S1130A0007F1100156E004292AD10020ADF80200B4
S1130A103846FFF7C0FD00F093F9B7F810C000F0B6
S1130A2099F9804690B90320B87519E0B87D042877
S1130A30C1D000F085F900F080F9B7F800C000F0EB
S1130A4089F9804610B90320B8710CE0404601F0E2
S1130A500CFBB8F1000F03D040F2D23100F0BAF928
S1130A60B8790328B6D1B87B0128B6D1B8E70228F3
S1130A70B9D1B87B032804BFB87D0128BDD1BDE737
S1130A80032804BFB87B0128B7D1B87D03280BD154
S1130A9007F11000394608370CE0022812BF01287C
S1130AA0B87D0328A9D1F3E70228A6D1384607F177
S1130AB00801103700224AE7BDF80A30994202DAE9
S1130AC0435C012B09D138F81130B2F800C06345FA
S1130AD024BFB2F802E09E450AD2491CB942EBDBBE
S1130AE002209071A9686868EA686960AA60E86091
S1130AF000204FF6FF7200E0401CB84206DA38F8D6
S1130B0010109142F8D101208DF80000687828B1C6
S1130B10012100208DF80010687015E09DF8000098
S1130B2068B968680088301800F00DF9BDF8020053
S1130B30C0F30310012808BF8DF8000004D09DF80D
S1130B400000002800F0EF804D2001F08EFA688844
S1130B50401C6880E868FFF71EFD9DF8000000F067
S1130B604EF9002852D0DFF8B0060188E868ADF8E5
S1130B700A100188761806EB4404A41DA4B20026CA
S1130B8000E0761CBDF80A00864280F2C380DFF8DC
S1130B901015885D8DF8010000273FE0BDF80410B2
S1130BA0F8B20143ADF804104FF6FF72DFF8BCB29F
S1130BB0BDF80400BDF80680121ADBF80000ADF899
S1130BC00820A4EB080100EB4100BDF802104FF629
S1130BD0FF72641C9142A4B240D1012201A901F028
S1130BE0E4F9010047D100F061FA010043D1A41CEB
S1130BF0A4B2DFF8A804DFF8201BAAF80040825D45
S1130C0051F826102046FFF73EFC002800F08980AA
S1130C10DFF8080B815D6418A4B27F1CDFF8780448
S1130C2010F80680F9B24145ABD2F0B2FFF786FC6A
S1130C308246BAF80000ADF802009DF80100C00138
S1130C4040EA0620B8F1010FADF80400A6D1BDF8C2
S1130C50040040F07F00ADF80400A5E7DFF83C1481
S1130C60895D491C01EBD1714FEAC159012201A9E7
S1130C7001F09BF901004AD100F018FA010046D1B5
S1130C80A41CA4B2AAF800409DF80100E0B1002120
S1130C902878039130B103AA0DF10201B0B201F03A
S1130CA0D2F905E0BDF80210F0B200F058FC039050
S1130CB0A4EB0803DBF800004FEA196203A900F073
S1130CC0FBF9010023D1A3E74FF0000A01E00AF188
S1130CD0010A5FFA8AFBBBEB196F99DA28780028BE
S1130CE0BDF8020004D000F022F801F0AAF903E0F4
S1130CF000F01DF8FFF7A6FB5C480068A344ABEBCB
S1130D000803012203A900F0D7F90100DFD001F0A4
S1130D10ACF906E0E86884809DF8000000F0D0F9A2
S1130D2008B9012000E0002005B0BDE8F08F411CA7
S1130D30ADF80210012203A9704707F110002AE45C
S1130D4007F1080027E4C01C01220DF1020180B262
S1130D50FFF778BBBDF80630D9F80000C4440CF1A5
S1130D60010CACEB030301220DF1020100EB430083
S1130D7001F01BB9F8B50D46DFF89C1417467F2F18
S1130D800A8808BF00271E4695423EBFC24B595DE4
S1130D908F42044604D2C14A535D9E4200D11CB91D
S1130DA040F2666100F016F839462846FFF7C6FBA4
S1130DB0DFF870190388485D28B11946284600F009
S1130DC0CEFB2060F1BD324621461846BDE8F8400E
S1130DD0FFF787BB0FF67C1001F09EB938B50446C7
S1130DE008461146FFF7AAFB1F4D0388DFF83819A0
S1130DF028880A681B1A02EB4302226031BDF8B549
S1130E00DFF8B016194CDFF8BC54002814BFC868CA
S1130E108868A54900880A788618B61DB6B20027E6
S1130E2001E0B61C7F1CDFF8F00301888F4217DA5B
S1130E30F8B2FFF772FBADF80000B3B235F8170053
S1130E40DFF8E8C8BCF800E0ADF80200A3EB0E033D
S1130E5020680222694600F02FF90100E1D007E082
S1130E600120F2BD000000007414030000620020A1
S1130E7001F0FBF80020F2BD2DE9F24F84B000210F
S1130E808DF803104FF00C09DFF8A458BDF81010CA
S1130E90DFF8A068DFF884385B5C298835684C0883
S1130EA091FBF9F9A1444D45039302D3DB18039355
S1130EB009E0182691FBF6F1641AA54203D303EB6B
S1130EC0530189B203910025DFF85448ADF80600B8
S1130ED08DF8042000E06D1CCF4801888D4280F21B
S1130EE0CC80002682E0012202A91FFA88F0FFF7D5
S1130EF0A9FAA368DFF834E8DFF82C08B3F804C0D3
S1130F00BEF800300068DC44ACEB030300F0D2F818
S1130F10010008F101083CD10AF1010A5FFA8AFBD9
S1130F20BBEB176FDFDB35E01A468DF80220BDF806
S1130F3006309A18ADF806200123594A8DF803307B
S1130F40505DC30143EA0523BAF1010FADF8003047
S1130F5040F08580BDF8002042F07F02ADF800200B
S1130F608A88D21C00288A8000F084804146E8B236
S1130F7000F0F5FAA36802903A0E9F88DFF8ACE718
S1130F80DFF8A407BEF800300068FB1A00F093F8FD
S1130F9001006BD1BDF80000A3684FF6FF71091A78
S1130FA0ADF80810DFF88007DFF880179B880F88FA
S1130FB000689B1EDB1B00F07DF8010056D1A3687E
S1130FC0DFF864079B880068DB1EDB1B012269468F
S1130FD000F072F8010049D1A0688188A9F80010D6
S1130FE082889DF8021051188180761CF1B22A483B
S1130FF010F805A05145BFF46EAFE8B2FFF79EFAB2
S113100081462648475DBDF81000B9F800807F1C72
S113101007EBD777FF05854202BF9DF80410F0B2B5
S11310208842E2D060680188884524BF40884045F2
S1131030DBD3BDF80610039881422ADADFF8DC26F8
S1131040A168535DB1F804C048889C440CF10302C4
S11310509042BFF669AF01206070452006E0BDF8FC
S11310600030F2B21343ADF8003079E700F0FDFF31
S1131070002059E64FF0000A50E79DF8030040B9FC
S11310806068022181716068A168E2686160A260A1
S1131090E0600120EDE700002CED020008ED020005
S11310A0E4EC0200CC690020AA140300DBF8000081
S11310B0A4EB0803012202A900EB430000F075BF72
S11310C02DE9FE4F5FEA0009DFF8E853DFF85876B0
S11310D014BFE868A868012201884F48008802917B
S11310E0C0F1FF0101F0FF0141EA0021ADF8021057
S11310F0DFF84406029990F800A0DFF8300606886D
S1131100386801EB0A04631D9B1B0DF10201FFF714
S1131110D3FF01005BD140F6227040EA0A30ADF8FB
S11311200200E31C38689B1B01220DF10201FFF74A
S1131130C3FF01004BD13868A31C9B1B0122A91CCF
S113114000EB430000F031FF010040D1601CA0EB34
S113115006085FEA09004FF6FE7B07D0FF21ADF8D1
S1131160021000F05DF8010031D109E068680088E0
S113117001226946FFF766F9BDF80000012802D193
S1131180ADF800B002E0411EADF800104FF6FF725A
S1131190BDF80000121AADF80420A41B386801221F
S11311A001A900EB440000F000FF01000FD1029CF4
S11311B05046A0F1010A80B270B1386814FA8AF37B
S11311C09B1B01226946FFF777FF0100F0D000F076
S11311D04CFF0020BDE8FE8FB9F1000F16D0E9687E
S11311E0032088716868FFF7D6F9A868FFF7D3F978
S11311F0A9686868EA68A8606A600020ADF802001F
S1131200E96000F00DF80100E1D102E0A9680320D3
S113121088710120DEE7000080140300DC680020F0
S1131220012238680DF1020100EB480000F0BDBE58
S1131230FEB50446DFF8E404455CA08813466288E2
S11312402E18F61CB24205DADFF8D42401215170BD
S1131250452031E0C01CDFF8E424A08080B2525C59
S11312601946FFF710F950B3DFF8C004DFF8B8747B
S11312700688A3883868DB1E9B1BFFF71BFF010051
S11312801AD1BDF808004FF6FF71091AADF8001025
S11312900122A38838689B1E9E1B694600EB46000A
S11312A000F083FE010007D10898A1880180A0887E
S11312B04019A0800120FEBD00F0D7FE0020FEBD35
S11312C0721403009CEC02001C65002076140300D9
S11312D07A140300781403007E1403007C140300C2
S11312E02DE9F84F84B00546884691461C4601F026
S11312F041F88DF8045003950126DFF844249DF845
S113130004101388ADF80830B9F17F0FBDF8080058
S11313108DF8054008BF4FF0000981423FBFDFF858
S11313202414039A8B5C994507D2DFF810148B5C64
S11313309C4202D1B8F1000F03D140F6DB01FFF764
S113134049FD9DF804004946FFF7F8F801240546D5
S1131350DFF8F4038179B5F800A002291FBF817B6F
S11313600229807D022802D1432000F07EFE039AE8
S1131370DFF8B013885C002832D09DF80400514691
S113138000F0EDF8D8F80010814254D0AAF103001F
S113139000F09CF8474FDDF80CC07C68DFF87C3324
S11313A0628813F80C10A088D21E521A824207DBFE
S11313B030B1B86801888A45A4BF4088504571DBC4
S11313C0F8688179BC68022936D1442000F04DFECA
S11313D0F868817901292FD0452000F046FE51E0BC
S11313E09DF805704FF0000B21E00BEBDB700AEB6E
S11313F0600000F04EF908EB0B0018F80B10407871
S11314007A1E934501EB002007D1BDF8001001F0CE
S1131410FF0100F0FF00ADF8001080B2BDF800102D
S113142088420BF1020018BF00245FFA80FBBB4521
S1131430DBDB002CAAD03CE0B96888799DF8047005
S1131440012814D10020FFF7DAFC002831D0002055
S1131450FFF736FE00282CD0B74803783946BDF88C
S1131460087003EB4700C01D4A4680B204E003281D
S11314700CD14A4639460020FFF7FEFC10B100F0BB
S11314801DF8B0B900F032F911D112E089790FF2E8
S1131490C42002290CBF40F6CA1140F6CC1100F05A
S11314A03BFE06E000F00AF818B900F01FF97FF4DB
S11314B048AF39E43C750020821403000095BDF860
S11314C006309DF8041042462046B1E601220DF193
S11314D0060180B2FEF7B6BFF8B505469048964FB0
S11314E043681C883B78E018FFF72DFCBDF8020028
S11314F00026C0F30310012819D1192400F02AF89A
S1131500BDF800006D1C30B14FF47F41401A06D085
S1131510FF381BD005E0B61C641EEFD116E0761C24
S113152014E0BDF80000C0B290B9761C10E0192494
S113153000F010F8BDF800006D1C20B14FF6FF71EB
S1131540884203D004E0761C641EF1D170B2F2BD6F
S1131550F643FBE701226946A8B2FEF773BF38B52C
S11315600C460021754B009169461D5C2A462046B5
S11315706D1CFEF7B6FF05EBD57504EB6504A0B250
S1131580FFF7AAFF0028009948BFC04341FA80F042
S113159032BDF8B56A4A138804466C48254630F8CB
S11315A015609C4202D25F49485D18B940F6852116
S11315B0FFF710FC61494D5D681C00EBD07006EB31
S11315C06007B8B2FFF788FF0346192B14D2002036
S11315D0DFF858C1DFF850E1ADF8000013FA87F7DF
S11315E0BCF80030DEF80000FF1A0122694600EB67
S11315F0470000F0DAFC60B131462046FFF7AFFF48
S113160000902B46401C00907F2269462046FFF73D
S113161067FEF1BD7CB50546474806783446214649
S11316204C1EC9B22888022925DB50FA84F000F048
S113163030F8BDF800000028F1D045482988028818
S1131640E6B27243521890B2FEF711FF0020ADF8D3
S1131650000001222D88344800687519334E338800
S1131660ED1A694600EB450000F09FFC01000ED026
S113167000F0FBFC0BE0FEF7FAFE0120A871304AF3
S113168029881088891901EB4001891DA980E0B2DD
S113169076BD0122694680B2FEF7D4BE2A4881791C
S11316A0022908D0817B022908BF083003D0817D3C
S11316B0022901D11030ADE7002070477CB5044603
S11316C01D48067800250CE0208850FA86F0FFF7C4
S11316D0E0FFBDF8000000281EBF4FF6FF718842EE
S11316E06D1C00F003F8EFD1E8B276BD3046461E1B
S11316F0C0B20028704714488179022908D0817B40
S1131700022908BF083003D0817D022901D110309D
S1131710D4E7002070470000A0EF020044EB020071
S11317203C750020E4EC0200006200207414030005
S11317307014030040EB0200AA14030008ED020039
S1131740801403002CED02001C650020CC690020ED
S11317507214030073696D2D656570726F6D322D9F
S1131760696E7465726E616C2E63000062B18142B1
S11317703ABF5318984200F01FBE801813F8011D99
S1131780521E00F8011DF9D17047FEE780B5012112
S1131790914800F0F3FE914801210160002001F01E
S11317A0D4FA012304220221052001F012FB0120B6
S11317B0FEF7B8FD00F011F8FEF7FFFD884901209F
S11317C0087001F007FC012340228649864801F095
S11317D0CCFB86490860C00F02BD70B5012201210F
S11317E0042001F06BF98248824C0168824D834EDB
S11317F041F0010101600021C26842F08072C260C0
S113180002227F482060296031607E487E490A6058
S113181000F0E4FE7D497E4A7E4B0818B0FBF2F0EE
S1131820401E1860002129644FF480727A487B4975
S1131830206531607A4802602B6843F480732B6022
S113184070BD38B501F0D2FB654D2978002402291A
S113185012BF01240321297001F0CEFB04BB6748A9
S11318600168CA070ED56F490B6823F440630B6007
S1131870016849084900016002681102FCD464202F
S113188001F0BFFB00220021042001F017F95E499A
S1131890634B0020086018600122554908602A70D3
S11318A031BD5348006800B10120C0B27047D12255
S11318B002704170090A81705B490A78C270042081
S11318C0521C0A7070472DE9F24F84B0074608781D
S11318D00024052868DB401D8DF80000002601F077
S11318E009FC02904FF6FF789DF80000DFF83C9168
S11318F0DFF804A13E4D019003971DE00398801981
S1131900414610F8027C384601F07CFC80465E4675
S11319103A480168CA070FD5E86840F08070E8606B
S1131920DAF8001041F48071CAF80010D9F8000008
S11319300028F1D089F80070296879B39DF8001067
S1131940F0B288422AD201F0D5FB0299401A80B243
S113195040F2F512904226DAF0B210B95B27012664
S1131960D6E7012804D19DF80000471F0226CFE7DF
S1131970019806F1010BF6B2C01E864208BF474625
S1131980C5D00198801E864208BF4FEA1827BED0F2
S11319900198401E8642B1D15D27B8E79DF800004A
S11319A0F6B2864200D0012404990420087005B0E0
S11319B02046BDE8F08F80B50C4B186890B04022EB
S11319C0694601F0B9FA20B1C2B26946122000F0AA
S11319D065FA11B000BD000000250A001088144209
S11319E0947E00202C74002088F102008C63002077
S11319F0F0ED00E0B00F00E0000E00E0800E00E02B
S1131A0055CEACC506000E00F00004E0FCAC0600A8
S1131A10F8590D00100004E0FF0300400D00010020
S1131A20040304E0001000E0937E0020200000E0A6
S1131A3070B5134610440BE001F00F060909451E6A
S1131A400A2EACBF37243024A41928462C705B1E00
S1131A50DCB2002CF0D1104470BDF0B5002341B1CC
S1131A60002806D52D2313700123B0F1004F18BFB1
S1131A70404200210024894D55F82470002601E0DD
S1131A80C01B761CB842FBD2F7B20FB90F0004D0CA
S1131A90D9B2303656545B1C0121641C092CEBDB93
S1131AA0D9B2303050545B1CD8B2F0BD2DE9F84F98
S1131AB0804696B014A8894615469B4604AF4FF05D
S1131AC0000A002401901EE0012405460DE034299B
S1131AD0FAD15BF8046B0422310C3846FFF7A8FFF7
S1131AE00422B1B2FFF7A4FF074601998F4209D33C
S1131AF09DF800003F1A00F0C5F8002853D15AFAA7
S1131B0087FA04AF6D1C04A88DF800009DF800004E
S1131B102978381A00290BD0252903D014B907F8DD
S1131B20011BE2E7002C14BF00246D1C29780A0075
S1131B3000F09B80B1F1250216D00B3A092A40F23D
S1131B408380283A7AD00A3A12D0521E42D0521ECA
S1131B505CD0083A5AD0121F3FD0D21E3DD0921EFC
S1131B6054D0D21E6AD0C0E7252007F8010BBCE789
S1131B7004A8DBF80010DBF804208DF800000BF15A
S1131B80080B3846039102920027029A9742ABD27F
S1131B900399C95D0222FFF74BFF0199884206D3DE
S1131BA000F074F8002869D15AFA86FA04A8029958
S1131BB0491E8F423CBF202200F8012B0199884224
S1131BC006D300F063F8002858D15AFA86FA04A81C
S1131BD07F1CDAE75BF8040BC7E75BF8046B074686
S1131BE000F050F8002849D15AFA87FA04AF0022CD
S1131BF0314600E0521CD6B2885D0028FAD1D2B238
S1131C004846C047002839D1B2446EE76C290AD14E
S1131C106A785BF8040B752A0EBF00210121642A3F
S1131C2007D16D1C05E075295BF8040B0CBF00217E
S1131C3001213A46FFF711FF074456E75BF8041BFE
S1131C400222C9B238464DE768780124782818BFC3
S1131C505828F2D16D1C0024681E32297FF437AF56
S1131C605BF8040B81B20422ECE70546EAB200F00B
S1131C700AF818B9AA445FFA8AF000E0002017B005
S1131C80BDE8F08FFAB204A9484640479DF8002009
S1131C90861AF2B204A948464047000064F10200E3
S1131CA0FFF789BE03460A469BA10420FFE70CB454
S1131CB080B502AA00F030F801BC5DF80CFB0A0004
S1131CC0034602D095A11120F1E7704780B586B094
S1131CD001F0B2FC924A009200216A23059104911A
S1131CE003930291019102465FF000038FA101204A
S1131CF0FFF7DDFF8B4881790288437903910292D3
S1131D0001930179C3788278009142208AA1FFF778
S1131D10CEFF07B000BD00002DE9F04786B00746AE
S1131D200C469146FEF75FFB002600287CD1FFF7A6
S1131D30B8FD002878D00021002001F0B5FF00286C
S1131D40ADF8040070D0002101A802F0D7F839469C
S1131D5002A8FFF7ACFD0746D4B900F098F80028B4
S1131D6062D1BDF8040001F0FCFE8DF80000BDF85E
S1131D70040001F0DEFE6946FFF7A5FD002853D0FC
S1131D800420FEF721FB4FE08DF808100127641CA6
S1131D9020780028E1D0A0F130010A2904D20A21D8
S1131DA001FB0606303EF2E700F071F800283BD153
S1131DB021780027422902A80ED044291AD04629A6
S1131DC025D057290DD0622940D0662932D06C29FC
S1131DD02DD070292ED0D7E759F8040B8DF80800C0
S1131DE0D4E759F8041B8DF8081002270904090EDA
S1131DF04170CCE759F8041B8DF808100B0A0A0C43
S1131E00090E437082708DF80B100427BFE759F850
S1131E10048B404602F0FCF9C2B20123414601A8FA
S1131E2001F0C7FF0028B2D006B0BDE8F08759F82A
S1131E30046BACE759F8041B0123F2B201A801F0CA
S1131E40B8FF002808BF0026A1D0EDE7BDF80400C4
S1131E5001F087FE59F8045B8046A8B2002896D0AA
S1131E6001F07FFE82460AEB0801C9B201A802F024
S1131E7045F80028D8D15FFA8AF000900023BDF815
S1131E800400AAB25FFA88F102F0C4F87FE70123E4
S1131E903A4602A901A801F08CBF00002DE9F841DF
S1131EA0122885B004460D46904606D03A2808D03C
S1131EB04FF6FE71884220D026E0002002F089FB14
S1131EC022E002F063FD0646002003F0F0F8074626
S1131ED0002003F0F7F8034604961148DFF8481091
S1131EE0B1F8E22016A1039002920020019000971D
S1131EF000223B20FFF7DBFE06E000224146284695
S1131F0001F021FF00F0A6F842462946204606B01B
S1131F10BDE8F041FEF788BA574600006C70000037
S1131F20C0790020A4F40200D07900204242387025
S1131F30424242425700000042424242574200009D
S1131F40574242575738704200000000DFF800F053
S1131F50BD61002038B504460D4603F06DFF012C29
S1131F6002D1FFF7F3FF02E0284603F0F1FF18B1B6
S1131F7003F06EFF012032BD03F06AFF002032BD82
S1131F8080B58308800705D54FF6FF7242EA014207
S1131F90009204E041F07F4141F47F01009104226A
S1131FA06946980004F017F802BDF8B506460D46D8
S1131FB005F0010106F001000143144601D001209F
S1131FC0F2BD002C39D032462B46611C4FF6FF7C03
S1131FD001E0921C9B1C491E06D0178867451CBF54
S1131FE018880028F5D024E003F026FF012C01D046
S1131FF0B00707D535F8021B3046FFF7C1FFB0B96B
S1132000B61C641E022C0CD367087F007A00294694
S1132010304603F0E0FF50B906EB470605EB4705F1
S1132020E41B44B129883046FFF7AAFF18B103F036
S11320300FFF4B20F2BD03F00BFF0020F2BD002088
S11320407047012070477047704700207047002098
S113205070477047704701987047704770477047E2
S113206070477047702003F0DBBF70B504464338F7
S11320701F4D08D0401E012809D9801E01280ED901
S1132080C01F32D02AE0BDE87040FFF707BBFFF75E
S113209032FB20B1FFF702FB0028FBD170BD154EC7
S11320A0307810BB01213170FEF7CCF8442C12D0EB
S11320B00CD3462C05D00ED3472C07D140F6010093
S11320C001E040F6020004F0A9FA04E04FF49B7129
S11320D0284600F021F80020307070BD2846BDE885
S11320E070404FF4A47100F017B870BD00000000F8
S11320F018F20200987E00207047002070470020EC
S113210070470120704701207047002070477047D6
S113211003F05DB842DE704738B504460D4603F05F
S113212064F800F027F904F0A7FA29462046FFF7DF
S1132130B9FD2B4622466C49012004F0E2FA2946F7
S11321402046BDE83440E5E768482DE9F843684E89
S11321500168B1654FF42068026A6649F2650B684C
S1132160336649687166426AB266816AF166C26A18
S11321703267016B7167806B96F83810B067480757
S11321804CBF346CF46B04F065FA0022326584426F
S1132190594B014624BFA3F12007A742A14671650C
S11321A006F19002DFF854C1DFF854E118D3A069B6
S11321B07064E469B464B56DC5F30805062D13D1E4
S11321C0704511D360450FD200884DF64264A04299
S11321D00AD17068B4685060946040F2017803E0FA
S11321E000247464B46481464648814202D20146A4
S11321F000E0091D0846984203D20C68B4F1CD3FB3
S1132200F7D04149081AF0640021002006F17C044B
S1132210C5B2401CC7B244F82510062FF8D30020DD
S113222099452CD253F8041D7145F9D36145F7D271
S1132230CC07F5D5002406F17C0555F824708F42AF
S113224002D0641C062CF8D3062CE9D1C4B2002CAD
S11322500CBF0520401E06F17C04C5B244F82510CD
S1132260DEE7F16F002306F17C0506EB8304D4F866
S1132270804045F823405B1C042BF6D911600146CD
S1132280481EC9B20029ECD1B06DC0F30800032880
S113229010D0042811D0052812D0062813D00C28F9
S11322A017D0122818D119480268910719D540F29D
S11322B0025816E040F6012813E040F6022810E028
S11322C040F603280DE0B8F5206F0AD140F6042843
S11322D007E040F6052804E018B13A2838BF40F674
S11322E007284046BDE8F283E4EB020004ED00E079
S11322F00000002000E300E0A8610020F2EA0200F0
S1132300440200009C000020A86100201C2005401D
S113231004F008BA7FB50121204800F02FF901220A
S11323200121012000F0CAFB0421072004F0FCF97C
S11323301B4A92E838006946032281E838000D21DF
S11323408DF8081001268DF809208DF800608DF8AD
S113235007606946134C204604F054FA12490420DD
S113236008600222114962620860A26A42F0020215
S1132370A2627FBD0B4804F039BAA52803D100211D
S1132380084804F01ABA70470648006800F00100D3
S11323907047074908680028FCD1704730053E00A3
S11323A078EC02000020054080E200E000E100E05B
S11323B0082005404AB1000011F8013B521E00F804
S11323C0013B1CBF11F8013BF8E77047012101FAFA
S11323D000F07047890001EB401101F184410A606B
S11323E07047890001EB401101F18441086870478E
S11323F010B5DFF82446A06B420605D4122120460E
S1132400FFF7EFFF0028F9D110BD80B5FFF7F0FF0B
S1132410DFF804060068000C00F0030002BD10B5EC
S11324200122DFF8DC15884202D20022002407E0F2
S1132430DFF8D015884234BF4FF080744FF0007439
S11324401021DFF8C405FFF7C5FFDFF8D0050168E8
S113245021F080710C43046010BDF0B5DFF8AC25A9
S1132460DFF8BC451368002304EBC305CFB22E7913
S1132470BE4203D154F83350854202D25B1C052B73
S1132480F2D3052B0FBF4FF0407004EBC30040792B
S11324900006116821F0407108431060F0BD38B5A2
S11324A000F013F841F67130286004F0F0F90021CF
S11324B005E038B500F009F841F671322A60FFF7FB
S11324C0CCFF0CB10020286031BDDFF860552C68CA
S11324D004B101247047C01C0F2801D200077047C3
S11324E04FF070407047000038B50446002500F0F6
S11324F061F9DFF83025DFF81815944208D0DFF8C9
S11325002825944206D0DFF80C25944204D006E036
S1132510086802E0486800E0886800F00700401E90
S113252003281AD8DFE800F002050C0804F0E6F9E5
S113253004E004F0E9F901E004F0E3F905460CE0F5
S113254004F0A8F90446DFF8D4040168C1F300607C
S1132550401CFFF73BFFB4FBF0F5284632BDDFF823
S113256050154A68D30702D40A680242FCD1704766
S113257080B500F0D9F8401C02BD000070B50C46CF
S11325800246110A01F00F010020491E0929DFF853
S11325903C5613D8DFE801F0051312120715181280
S11325A01B1FDFF86454C2F3043608B1FFF7D7FFEA
S11325B0224631462846BDE870400BE770BD103511
S11325C0F1E730350120EEE738351020EBE74035F0
S11325D04FF48030E7E7DFF8D456E4E7F8B5064671
S11325E0DFF8D004DFF840240768DFF83804DFF8A8
S11325F02414DFF82844012516F478136ED0B3F5BB
S1132600003F2ED0B3F5802F27D0B3F5202F65D00F
S1132610B3F5402F2BD0B3F5602F57D0B3F5801FFF
S11326202DD0B3F5A01F2BD0B3F5B01F30D0B3F528
S1132630D01F3DD0B3F5F01F45D0B3F5001F35D002
S1132640B3F5101F3ED0B3F5381F27D0B3F5481F9C
S113265047D0B3F5781F5BD063E004F01BF9E16861
S113266002E004F017F9A168C1F3082104E004F0C2
S113267011F96169C1F30421491CB0FBF1F751E080
S11326800846FFF731FF0746206B00F003000BE01C
S1132690FFF72AFF216A01F00F010FE0FFF724FF83
S11326A00746206AC0F30110C7403BE010460AE029
S11326B01046FFF719FFA16AC1F301118D40B0FB69
S11326C0F5F72FE00846FFF70FFF1FE0DFF8E005FE
S11326D000F070F8072825D0092822D104F0DAF890
S11326E014E0DFF8D00500F065F804280CD00728C2
S11326F018D0082815D104F0CDF807462068C0F397
S11327000420401C47430DE004F0E1F8074609E0CB
S113271004F0C0F804463046FFF72AFFB4FBF0F794
S113272000E000273846F2BD01460B0903F00F0311
S113273001205B1E092BDFF8E42239D8DFE803F01F
S113274005070B11383813172630106800E050695C
S1132750C0F3042070471168090E01F00101491CFF
S11327601BE0D06800E09068C0F308207047DFF8F1
S11327704835994204D0DFF84435994204D017E033
S1132780116A01F00F0108E0116A04E0DFF8303546
S113279099420DD1916AC1F301118840401E7047DE
S11327A0DFF82005814203D1106B00F0030070476D
S11327B000207047014601F00F010120491E07293E
S11327C0DFF804254FD8DFE801F00415194E26344C
S11327D04E3C506A00F00700801E052808D8DFE848
S11327E000F03E240B0307050B2070470C207047B4
S11327F00520704711690FE002207047516901F00C
S11328000701491E03292FD8DFE801F00F02031145
S1132810F2E706207047916901F00701012904D00D
S11328200229E9D0042902D07047032070470A2006
S11328307047116811F001010FD0012914D109204A
S11328407047DFF888140A6802F03002102A04D0B6
S1132850202A04D0302A04D070470720704704206F
S11328607047082070470020704700002DE9F843A6
S1132870074600240326112F0D46B04612D1042D1D
S113288002D104F024F808E0052D0BD1DFF8400450
S1132890DFF840140068884204D304001CBF002100
S11328A004F0BEF907F00F077F1E072FDFF8189416
S11328B014D8DFE807F004464C9549789584022D36
S11328C04F480CD0032D2ED0042D2FD0052D32D0FF
S11328D00A2D03D00B2D30D00C2D30D080E00426EF
S11328E04FF0000801220121404600F0E7F8FFF70D
S11328F0D6FD0CB1FFF77CFDC9F8046003F0BAFF04
S1132900054603F0C7FFFFF78AFDFFF77EFD01468A
S11329102846FFF7CEFD002C62D1BDE8F443012127
S1132920002004F07DB94FF00108DBE70226B04631
S1132930FFF775FDD6E70126FAE70526D2E7072655
S1132940D5E709F1100404E009F1180401E009F1E4
S11329501404012D08D0022D09D0032D0ED0062D0C
S113296013D00A2D1DD03BE00020206038E0012266
S11329700121002000F0A2F80220F6E70122012143
S1132980012000F09BF80120EFE703F083FFFFF73D
S113299046FD01220021DFF83402FFF71BFD03206E
S11329A0E3E70420E1E7072D05D0092D04BF012149
S11329B0C9F8001014E00020C9F8000010E0012D4F
S11329C006D0042D15D0072D0CD0082D15D007E006
S11329D00020DFF8F8120A6822F030021043086081
S11329E0BDE8F18301220121042000F067F81020E2
S11329F0EFE700F01DF82020EBE73020E9E70000C6
S1132A000148E8010190D00300400E4004000E404C
S1132A1080400E400500240004300E4000410E406A
S1132A2078F0020002001E000300200040000E4067
S1132A3001220121022041E070B5044600F03CF877
S1132A4001220021022000F039F8217CDFF89052A5
S1132A5000200229296808BF0120490840EA4100F2
S1132A602860082122782846FFF7B4FCA088617A00
S1132A7041EAC021A960EE68207AFFF72CFDE288C4
S1132A80A17A06F07F6646EAC226227A0E4346EA17
S1132A90C2160643EE60A17B607B227B090141EAFA
S1132AA00031E07B014341EA0241296170BD00002D
S1132AB040410E407863002011207BE62DE9F84F59
S1132AC00428834692466FD8DFE800F0524D430352
S1132AD0480001270220012500260029DFF884810F
S1132AE07F4C63D0BBF1020F02BF2068C0F301101A
S1132AF000284FF000090CD17A4801682268D007F9
S1132B004FF0010905D5216821F0300141F0100191
S1132B102160E763314600F05CF80028FAD0BAF18E
S1132B20000F41D000F054F80028FBD0BBF1020F95
S1132B303AD1B9F1000F37D02068C1071FD54FF43F
S1132B408060C8F8180020212164022000F08CF86D
S1132B5019E00427082003250226BEE710272020B9
S1132B6005250426B9E74027802007250626B4E773
S1132B704FF480774FF4007009250826ADE7002153
S1132B80022000F071F8D8F80C6001220021022024
S1132B90FFF794FFC6F30A01022000F01DF8E76373
S1132BA000F016F80028FBD0BDE8F18FE063D8F8F8
S1132BB00000F040C107FAD4BAF1000FF4D0D8F8FD
S1132BC00000E840C107FAD4EEE70000B0400E4030
S1132BD029464046FFF705BCF8B5401E0D460328BC
S1132BE005F07F063C4C3D4F3BD8DFE800F002285F
S1132BF0101CC5F308051A213846FFF7F2FB00281C
S1132C00F9D12069400A45EA40252561F1BD182122
S1132C103846FFF7E6FB0028F9D12068C00946EAE8
S1132C20C0162660F1BD19213846FFF7DAFB0028EB
S1132C30F9D1A068C00946EAC016A660F1BD0948EA
S1132C400168626922F0300242F010026261C5F349
S1132C50C310FFF740FC226A23490A401543054389
S1132C602562F1BD90400E401D4A1068C0F301106A
S1132C70002818BF002911D0202902D030290DD0F6
S1132C800FE04FF40000D16E01408142FBD14002BD
S1132C9009D5D06F800A00F0010070474FF440005E
S1132CA0F1E71248EFE701207047000050410E4061
S1132CB006000E00B80032008006160080162E00B2
S1132CC090171A00A009140070400E405C410E4099
S1132CD088630020012D310110400E4040410E4018
S1132CE024400E403C300E4000F8FF0FFF33E13F1C
S1132CF0890001EB401101F184410A60704770B50D
S1132D0004460D46164604F0C4FA2168A94335402A
S1132D100D432560BDE8704004F0BFBA10B500F063
S1132D200DF804F1806404E010B500F007F804F134
S1132D30C064012303FA01F1216010BD3022404B2D
S1132D405043184400F10C0470473E490A68920845
S1132D5040EA8200086070472DE9F04101F0030564
S1132D60164603240F21082E98460CD2B70000FA09
S1132D7007F2B9403448FFF7C2FF05FA07F204FA34
S1132D8007F132480DE0A6F10802970000FA07F2B5
S1132D90B9402F48FFF7B3FF05FA07F204FA07F129
S1132DA02C482D4FFFF7ABFF079C069D2B4842464E
S1132DB03146FFF79DFF2A4631463846FFF798FF14
S1132DC0224631460120B0403861BDE8F041244834
S1132DD08EE7F8B50546174638000E461C4607D060
S1132DE0002C284602D0FFF79FFF01E0FFF796FF73
S1132DF02A4630201249424388180F22082E05D251
S1132E00B300416800F015F8416006E0A6F108033C
S1132E109B00816800F00DF881604FB9002C3146A9
S1132E20284602D0BDE8F4407EE7BDE8F44075E7EB
S1132E30F1BD9A4021EA020207FA03F111437047F7
S1132E4000A0004044A4004000A4004008A40040A6
S1132E5004A400400CA4004014A4004010A40040AA
S1132E6028A4004010B5DFF87041DFF87011E1616B
S1132E700320206160611022DFF86401A0612262F6
S1132E800021A162E16220660022DFF8580162623B
S1132E9010216066A1662267E26630A16267E31DC5
S1132EA00868DFF84411186007222046FFF782FA09
S1132EB02023A37110BDC11922464046FFF77ABAF8
S1132EC02DE9F84300F031F808B9FFF7CBFF1820DB
S1132ED04443281900F1600600243769F568BD42AF
S1132EE00BD2B4687068E41B4C4588BF4C46FFF7AE
S1132EF0E2FF00F013F808BF0027ED1B4D4588BF23
S1132F004D4635B17068C1192A46FFF7D6FF2C1912
S1132F10EF1904B137612046BDE8F283B168E719BF
S1132F208F42A044A9EB04097047DFF8AC50044673
S1132F302878884691467047F8B500F00AF800F002
S1132F400FF8FFF7BDFF0446384600F055F8204659
S1132F50F2BD04460D46164600F048B852545400DB
S1132F60074632462946204670472DE9F84300F0CB
S1132F702AF808B9FFF776FF00F038F872690146BD
S1132F800027182306F1640C03FB07FE5CF80E000F
S1132F9010B17F1C9742F7DB97420BDA7B43F018A2
S1132FA0002204664566C0F868800267C266C0F8FD
S1132FB0749001E04FF0FF37FFE7084600F01CF87B
S1132FC03846BDE8F283044E044630780D469046F8
S1132FD09946704746E70000006800206C740020A2
S1132FE098F102007C740020A4F10200EFF3118038
S1132FF0602181F31188704780F311887047FEE7E0
S1133000704704F0A8B910B5044605211120FFF754
S11330102DFC002200210220FFF750FD1E4801680C
S11330206FF3D321016002681C4901EAC4210A43F9
S11330300260012101220220FFF740FDBDE810409B
S113304004211120FFF712BC134800680003C00DCF
S1133050704713490A68130305D44968C1F308018A
S1133060018001207047002070477CB50D4E0C464E
S11330704FF6FF753188ADF8005002237F22684671
S113308004F0F2F9BDF80000A84202D0208001202B
S113309076BD002076BD000030400E4000F80F00E1
S11330A0B481E00F961403007FB500F011F818B94D
S11330B000F015F804F0A5FA04B070BD7FB500F077
S11330C007F818B900F00BF804F0B3FA04B070BDB7
S11330D00446084615461E4602A904F0A7BB9DF8FF
S11330E02010BDF8240000910190334602992A462D
S11330F02046704780B500F00DF880B202BD80B55F
S113310000F008F8FA21B0FBF1F080B202BD000033
S113311000BF0000E0B504F06EFB6A4604F0B8FBA3
S113312018B14C2133A0FEF7F7FFDDE9000103B02D
S113313000BD000080B504F0B5F801211D48FFF77B
S11331401DFA04F02DFA20B15FF0570129A0FEF713
S1133150E3FF002002BD1849012008707047FEB546
S113316004460025216801B92AE000F019F808B1E5
S113317000F00FF8012027E0FEB50C460025216879
S113318001B91DE000F00CF808B100F002F80220CB
S11331901AE001950095002321683A46301D83E723
S11331A0054E064F35700023009301953A46301DB5
S11331B084E7000030053E006C75002057310000A4
S11331C004F0D1FC0020FEBD04F0ADFD307840B920
S11331D02146301D04F0A0FA206804F03CFB85254C
S11331E001E00020307020602846FEBD0146002228
S11331F00020C1E773797374656D2D74696D657210
S11332002E6300000A0A42EA01225040C0F303116F
S1133210484080EA003041010206C9B2D20E41EAB8
S11332200221484080B270474901020003D4DFF80C
S11332304C0481547047DFF8483402F00F021A44FA
S113324002F8041C704730B500F007000123C0F1F8
S11332500704042C2EBF072403FA04F4641EC51CBF
S1133260072D34BF0020001F2140814003FA00F0E5
S1133270401E1040084330BD0020704700207047B6
S113328070471CB572B603F0F7F9DFF8F803DFF8FE
S1133290F8434169216000F0AEF901466FF00B007C
S11332A0FFF7C2FF00F0A7F901466FF00A00FFF72D
S11332B0BBFF00F0A0F901466FF00900FFF7B4FF6F
S11332C000F091F901466FF00800FFF7ADFF00F040
S11332D08AF901466FF00700FFF7A6FF00F083F9B3
S11332E001466FF00600FFF79FFF00F07CF90146EE
S11332F06FF00500FFF798FF0022022100F075F936
S113330001466FF00400FFF78FFF00F078F90146E3
S11333106FF00300FFF788FF00F065F901466FF0D6
S11333200200FFF781FF0022072100F05EF9014649
S11333306FF00100FFF778FF00F061F901464FF0EC
S1133340FF30FFF771FF00F05AF901460020FFF744
S11333506BFF0022032100F048F901460120FFF72A
S113336063FF00F044F901460220FFF75DFF00F01F
S11333703EF901460320FFF757FF00F040F90146EC
S11333800420FFF751FF00F03AF901460520FFF74A
S11333904BFF00F034F901460620FFF745FF00F02B
S11333A02EF901460720FFF73FFF00F028F90146F8
S11333B00820FFF739FF00F022F901460920FFF742
S11333C033FF00F01CF901460A20FFF72DFF00F03F
S11333D016F901460B20FFF727FF00F010F901460C
S11333E00C20FFF721FF00F00AF901460D20FFF73A
S11333F01BFF00F004F901460E20FFF715FF00F053
S1133400FEF801460F20FFF70FFF00F0F8F8014621
S11334101020FFF709FF00F0F2F801461120FFF732
S113342003FF00F0ECF801461220FFF7FDFE00F068
S1133430E6F801461320FFF7F7FE00F0E0F8014636
S11334401420FFF7F1FE00F0DAF801461520FFF72B
S1133450EBFE00F0D4F801461620FFF7E5FE00F07D
S1133460CEF801461720FFF7DFFE00F0C8F801464A
S11334701820FFF7D9FE00F0C2F801461920FFF723
S1133480D3FE00F0BCF801461A20FFF7CDFE00F091
S1133490B6F801461B20FFF7C7FE00F0B0F801465E
S11334A01C20FFF7C1FE00F0AAF801461D20FFF71B
S11334B0BBFE00F0A4F801461E20FFF7B5FE00F0A5
S11334C09EF801461F20FFF7AFFE00F098F8014672
S11334D02020FFF7A9FE00F092F801462120FFF713
S11334E0A3FE00F08CF801462220FFF79DFE00F0B9
S11334F07EF801462320FFF797FE00F080F801468E
S11335002420FFF791FE00F07AF801462520FFF70A
S11335108BFE00F074F801462620FFF785FE00F0CC
S11335206EF801462720FFF77FFE00F068F8014699
S11335302820FFF779FE00F056F801462920FFF70E
S113354073FE61684FF6FF00014041F0BF6141F432
S1133550013161604FF4E021E06840F40070E06004
S1133560E06840F01000E060E16104F00CFC04F05D
S1133570A1FCEFF30880001F44494FF0CD3201E075
S113358040F804298842FBD24149424889B204F0F8
S1133590E3FC62B6404801214164026842F480724F
S11335A002603E483E4A016841F4F841016001204E
S11335B0106004F0D5FC04F0E7FD0621684604F031
S11335C04FFE01208DF80300684603F08DFB04F0E4
S11335D0CFFAFFF7AFFD04F0E7FA04F083FF3148B8
S11335E004F0C2FF13BDFF22FF2104202BE60022BA
S11335F00121042027E600220021042023E60022E2
S1133600042104201FE604F0BDBF04F0BCBF04F095
S1133610CFBF80B500210B2004F0C2FFBDE80140FC
S113362004F0C7BF002818BFFEF717BDFEF716BD8C
S1133630032003F06ABF000010B504F07CFC0446CC
S113364004F07DFCC0B220B9012C0BD144F0800001
S113365010BD072CFAD8DFE804F005040709090BAC
S11336600D0FF3E7002010BD092010BD022010BD8E
S1133670032010BD0B2010BD062010BD00E400E0A7
S113368018ED00E00000000008ED00E048580020BC
S1133690B82C0000A000002000000E40A4310E4011
S11336A010300E4024F3020010B5DFF81408DFF8E0
S11336B00C180068DFF80C28C860136848615B08C0
S11336C000EB43040C6118B100F016F8652806D22B
S11336D0BDE81040B0210FF61000FEF71DBD10BD6F
S11336E010B5DFF8D8476069E268904202D2C02181
S11336F000F09BFA60690CE010B5DFF8C047206960
S11337006269904202D2C62100F08FFA2069626990
S113371000E0E268801A4FF6FE71084010BDDFF841
S11337209C17CA68904203D34969884200F03EBBA3
S11337300020704780B510B1FFF7F1FF00B1012000
S113374002BD30B1DFF87427D168401A4010401C24
S113375080B27047010001D100207047DFF85C1788
S1133760CA6802EB4000801E70474088C0F30C001A
S1133770C01C80084000001D80B2704710B504468C
S1133780FFF7F3FFDFF834174A6904EB40004FF604
S1133790FF7400E0801C904202D20388A342F9D057
S11337A010BD2DE9F843DFF814478046E08898B34C
S11337B0B8F8020001042FD4DFF80C770FF21C7163
S11337C038680FF2247904F0FBFE20B940F28D1121
S11337D04846FEF7A1FC002504E004F0F1FE88B1A0
S11337E06D1CADB2E088854204DB40F28F1148467F
S11337F0FEF792FCA069396800EBC5063068002822
S1133800EBD13160B088401CB0804046FFF7ADFF7B
S1133810F18801EB4000F080BDE8F18370B5044607
S1133820DFF89806007801281AD12088FFF792FF64
S1133830050027D002262C462046FFF7B2FF6088F9
S113384040F40040608034F81600FFF783FF040062
S113385002D060880104EFD5761C042E12D2EAE768
S113386002280FD1FFF7C2FB05462088FFF772FF3D
S113387018B10088C0F30E0020802846BDE87040CF
S1133880FFF7BABB70BDDFF834160A78022A08BF06
S1133890FFF7C4BF704738B504460D46FFF765FF10
S11338A06188C1F30D0161804004020C2146284661
S11338B0BDE83840FDF75ABF10B50C4601E0FFF7EC
S11338C05DFFA04202D241880A04F8D510BD2DE95B
S11338D0F14FDFF8E8550020A88092B0FFF786FB8F
S11338E06A88ADF800200121297000216A69698085
S11338F00192FFF781FBE988A869C90004F0B0FCD4
S11339006846FFF78BFF129848B1002401E0804716
S1133910641C1298E1B250F821000028F7D1EF6836
S113392000244FF001080DF1080906E00BF1010B2A
S11339305FFA8BF004281CD33446019EB74200D3AF
S11339408CB324B1641EE4B259F824A003E000F05F
S1133950BFFABA460746BAF8020000F44041B1F58E
S1133960004FEAD140F48040AAF802004FF0020B65
S113397026465FFA8BF03AF81000FFF7EBFE0400DE
S1133980D4D060880104D1D440F400406080204643
S1133990FFF707FF102EBDBF49F82640761CF6B28C
S11339A04FF00008C2E7B8F1000FB8D0EF68BB468B
S11339B0B84615E03846FFF7D8FE04467888010477
S11339C00BD55846FFF7BDFE398801F40041084382
S11339D038800BEB440B07EB440800F079FA0746F8
S11339E0B742E7D3022028706846FFF717FF129802
S11339F048B10026044601E08047761CF0B254F832
S1133A0020000028F8D1EC68274613E04FF00209A3
S1133A1037F81900FFF79EFE20B10088C0F30E00AE
S1133A2027F8190009F10109B9F1040FF0D300F0E6
S1133A304FFA07464745E9D30AE00446FFF79EFEDE
S1133A404146FFF739FFB842F7D3B7422ED1544667
S1133A5044454AD22046FFF791FE002C8246F6D018
S1133A6060880104F3D500F05AF8A04204D16088BC
S1133A70C0F30D006080EAE704D201462046FFF758
S1133A800AFFE4E7264607E05046FFF777FE414683
S1133A90FFF712FF54468246C24507D2BAF8000027
S1133AA0C0F30E00FFF756FE8245EDD334B100F0AB
S1133AB036F801001CBF2046FFF7EDFE27463046CE
S1133AC0C1E72046FFF751FE06465846FFF739FE88
S1133AD00746720021465846FDF748FE0022394643
S1133AE0684604F095FD0BEB460BFFF77FFA06469C
S1133AF00021A81C04F0E2FDFFF72CFE040006D10F
S1133B00BDF8000068800021C5F814B02970304663
S1133B10FFF772FA002CD4D113B0BDE8F08F2088DF
S1133B20C0F30E0016E680B5FFF714FEBDE80240B0
S1133B3000E610B5040012D0FFF7F5FF18B940F203
S1133B407A4100F072F82046FFF704FE38B101888C
S1133B500A0402D5D0F80A0010BD083010BD0020B8
S1133B6010BD10B5010013D0FFF7F4FD0446FFF7B4
S1133B70E1FD18B940F2944100F057F844B12088AF
S1133B80010401D5208910BD6088C0F30C0010BD6C
S1133B90002010BD2DE9F04100F044F804003FD0AE
S1133BA0FFF7C8FD0FF2403718B940F2A74100F003
S1133BB078F82846FFF7D5FF80462046FFF7DEFD5C
S1133BC0464505462CD003DB40F2AF4100F069F8CE
S1133BD02088010448BF268122D466802046FFF74E
S1133BE0C4FD04EB4004FFF701FADFF8D0124A6980
S1133BF02E1BB6B2954204BF4C610026FFF7FCF9B8
S1133C00082E06D231462046BDE8F041FF2204F0DA
S1133C10C7BD0821204604F09FF9A6F10800608082
S1133C20BDE8F08105460E4694E50FF2BC20FEF790
S1133C3073BA38B50D46FFF78DFD04000AD0FFF7BF
S1133C4079FD18B940F2EC41FFF7EFFF04EB4500B2
S1133C50808832BD002032BDF8B50D461646FFF708
S1133C6079FD04000FF2802714D0FFF763FD18B923
S1133C7040F2F74100F015F83046FFF76BFDFFF70F
S1133C8059FD18B94FF49F6100F00BF804EB45009F
S1133C908680F1BD3846BDE8F44040F2FB41FEF7B2
S1133CA03BBA3846FEF738BA2DE9F84F8846C11CAE
S1133CB08908DFF8085249000027091D2E690FF210
S1133CC0282AB0F5005F04461FFA81F904D340F2B4
S1133CD027515046FEF720FAFFF788F983466969B1
S1133CE0E86908B9711A03E05FEA080202D0411AD0
S1133CF04E1009E0301A4010064680B220B940F256
S1133D004D515046FEF708FAB6B24E4514DB6F69C2
S1133D1007EB49006861E86928B1B8F1000F04BFF6
S1133D2000EB4900E86100207C80B880F88038808E
S1133D300834298964182C815846FFF75DF9384600
S1133D40BDE8F24FFDE470B504460D461146284621
S1133D50FFF7AAFF06463CB1300005D0FFF7E9FEA5
S1133D602A462146FDF702FD304670BD38B50446AB
S1133D70FFF73CF9054600222146544804F048FC6C
S1133D802846BDE83240FFF737B938B5FFF72EF9BA
S1133D90044600214D4804F091FC05462046FFF7F7
S1133DA02BF9284632BD45484188481E8041C00F42
S1133DB070472DE9FE4F04468846208816469B46E8
S1133DC0FFF7C8FC0746FFF7B5FC18B940F28D6150
S1133DD0FFF72BFF38880104354603D538892D18A1
S1133DE03D8167E000F078F8019000F071F88146B9
S1133DF0FFF7FCF800968246304E706981451DD16C
S1133E00FFF77AFCA84203D25046FFF7F5F821E009
S1133E1001982D18BBF1000F7D8008D02088FFF792
S1133E2088FE019B009A41461844FEF7C3FA00F04D
S1133E304FF870615046FFF7DFF83BE05046FFF75C
S1133E40DBF800F049F82D180021A8B2FFF72CFF89
S1133E50070001D11A202EE000F03EF80546208824
S1133E60FFF767FE06463846FFF763FE2A463146EB
S1133E70FEF7A0FABBF1000F384609D0FFF759FE50
S1133E8000F029F8009A41462844FEF793FA07E027
S1133E90FFF74FFE00F01FF80099284404F05CF887
S1133EA020880121FFF7C5FE024601213846FFF7AD
S1133EB0D3FE27800020BDE8FE8F00004C75002053
S1133EC0086300200C630020346500204E75002038
S1133ED03846FFF753BC0546208842E6756E636C8E
S1133EE061696D65640000006275666665722D6DBA
S1133EF0616E6167656D656E742E630038B5044646
S1133F000D462088FFF72DFE29468842208803D3DA
S1133F10FFF740FE002032BDFFF723FE2D1AEAB260
S1133F20204601B0BDE8304000230021FFF741BF27
S1133F302DE9F0410546884617461E464046FFF7E0
S1133F40F8FDC419300018BF002C1CD04046FFF700
S1133F5008FEB919884202DA1D2100F039F80698E2
S1133F60010003D132462146284604E001283246A6
S1133F702946204603D1BDE8F041FDF7F7BBBDE873
S1133F80F041FEF717BABDE8F08138B504460D4696
S1133F90FFF7E7FD854202D32A2100F019F82046F5
S1133FA0FFF7C7FD284432BD70B505460E46FFF73E
S1133FB0C0FD040009D02846FFF7D3FD864202D392
S1133FC0322100F005F8A05D70BD002070BD000036
S1133FD089A0FEF7A1B870B504460D461646FFF752
S1133FE0C0FD854202D33C21FFF7F2FF2046FFF7D4
S1133FF0A0FD00B1465570BD38B50446FFF7B1FDCC
S113400005462046FFF795FD2946BDE838400022C5
S1134010FFF799BEF8B50546069C0E461F461046A6
S1134020FFF787FD07442846FFF783FD22463946FC
S11340303044BDE8F840FDF799BB70B500F02BF8AB
S113404000F003F8301880B270BD060229462046FD
S1134050AAE7E0B58DF804200123120A8DF80520A3
S113406000930A460146022301A8FFF761FF07BD3A
S1134070F8B500F010F8FFF7E8FF8619E91CC9B29B
S1134080FFF7E5FF0702AD1CE9B2FFF7E0FFC01937
S113409006EB0040F2BD0D46691C0446C9B283E735
S11340A00EB430B50446002180B2FFF7FDFD05468D
S11340B0FFF73FFD290008BF00200BD003A9002211
S11340C004E051F8043B00F8013B521CD3B2A34274
S11340D0F7D3284630BC5DF810FBF8B505460E460C
S11340E0174600212020FFF7DFFDADF80000FFF7A1
S11340F020FD0446BDF8000060B13B463246202155
S1134100601900F020F82D18E9B26846FFF7F6FEB2
S1134110BDF80000F2BD1CB504AC009400F001F839
S113412016BD10B514461A46029B2044091BBDE86F
S11341301040C9B207E00CB480B502AAFFF7CDFF66
S113414002BC5DF80CFB2DE9F04704468846914615
S11341509A46254600260AE03A462846ED19FDF718
S113416005FB7F1EBE19761CF6B209F1010946450E
S11341703CDA99F80000002838D0312818BF3228DA
S11341800ED15AF8041B05F8011B3228EBD1761C1A
S1134190F6B2B045A4BF091205F8011BE3DA25E025
S11341A034280ED1311D5AF8040B88451EDB2870C3
S11341B0020A6A70010CA970000EE8702D1DF61C2D
S11341C0D1E7A0F133025AF8041B072A38BFA0F143
S11341D0300707D3A0F14102072A34BFA0F1370703
S11341E05AF8047BFFB2B8194045B5DB2C1BE0B28A
S11341F0BDE8F087000000006C65676163792D708D
S113420061636B65742D6275666665722E6300006A
S113421000F1010310F8011B11B110F8011BFBE7B9
S1134220C01A7047010008D4012200F01F01DFF812
S113423090358A40400943F82020704701000CD48F
S1134240012200F01F01DFF87C358A40400943F861
S11342502020BFF34F8FBFF36F8F7047010008D446
S1134260012200F01F01DFF860358A40400943F85D
S113427020207047C26C1143C164704710B5DFF849
S11342804C4530B1012807D0102802D0202803D093
S113429004E00020204410BD1C20FBE740F2831101
S11342A0DFF87405FDF738FF204610BD70B50446ED
S11342B00E461546FEF79AFEE288B2420CD22188D9
S11342C08B1A991991FBF5FC05FB1C152580A38815
S11342D0F3189A1AA280E68000F0D3BA70B50646A5
S11342E00D46FFF7CBFF012E18BF202E044643D105
S11342F0A069016890F83200E0B904228A6400F0F1
S113430057F9A06900683DB10421FFF7B3FF0C2001
S1134310FFF788FF052107E0C16C21F00401C164A7
S11343200C20FFF78BFF0021A0690068BDE87040F6
S113433004F0BDBA0420486300F03AF9002DA069E6
S11343400BD001688A6B42F004028A634FF48051F7
S1134350DFF86C241160052109E00068816B21F00D
S1134360040181630C20FFF769FFA0690021006844
S1134370BDE8704004F074BB70BDF8B50446DFF8C6
S11343809C0481421D462AD00026F2B21C20DFF88C
S11343903C1442438F18BB69A3421CD13A89386844
S11343A0A9B2FFF783FF38680021C18002E03846D4
S11343B000F016F8204605F0B1FB02280BDC388922
S11343C0F9893A68A0EB410091888842EFDA01212B
S11343D0204605F0D9FB761CF0B20228D5DBF1BDEE
S11343E070B50446DFF83834E089668A25680246E9
S11343F070432E18A06906F1080105F06DFCA06950
S113440005F08CFB012803DDA069002105F0BCFB4D
S1134410608AA18A401C90FBF1F201FB12006082C9
S113442070BDFEB50446207B68BB60680FF2590678
S11344304188084400F10807A0696B4601AA02A953
S113444005F071FB61688A880098019D121A551B5A
S11344504A88088890420ED26189A0698A1A334634
S1134460394605F07DFC70B96268618950886D1A1F
S1134470451902F10807A0693346EAB2394605F046
S11344806FFC00B96073F7BD2DE9F041054698460D
S11344900027F9B21C22DFF8340351434418A369FE
S11344A0AB4218D160688188414534BF868846464E
S11344B0FEF79CFD61684A8812FA86F1628991FBD5
S11344C0F2F302FB13116268518061688A88961BBB
S11344D08E80FEF791FD7F1CF8B20228D9DBBDE87F
S11344E0F08138B52020FFF7C9FE0546DFF8340314
S11344F0A96991F83120012A3FD101690A0640D502
S113450004F076FA112809D1A869002105F049FBC5
S1134510002028732846BDE8324082E7132806D1DC
S1134520A869012105F03DFB0120287331BD2968EC
S11345302A898C88141BA4B25CB101F10802098891
S113454050542868018800F029F901808188491CA9
S11345508180A86905F03FFB20B9E889A04210DBFF
S1134560012105E001280CD1288A844209DB0021BD
S1134570A869BDE8344005F007BBC16C21F0040113
S1134580C16431BD10B5DFF89C4228B92046BDE8AE
S11345901040002104F08BB900F00AF8DFF8201273
S11345A04FF480500860E26C42F00402E26410BDF3
S11345B00C2053E680B530B9BDE804400521DFF88E
S11345C0640204F074B9FFF7F3FFBDE802400C2065
S11345D034E6F8B50C461546FFF750FE064630683B
S11345E081883289E8B2121A914201DB0120F2BDBE
S11345F000270EE0FEF7FAFC316814F8012B01F1F4
S1134600080309885A547F1C31680A88338900F0EA
S1134610CCF8AF42EED30020F2BDF8B50128044631
S11346200D4603D9103801D0103850D1204600F07F
S11346302FF910B9204600F085F800F081F80646FD
S113464000F07EF821000FD0012C03D0102C0BD0E9
S1134650202C3CD1DFF8D011DFF8D0210160802379
S113466042600381438109E0DFF8C421DFF8C4110B
S1134670026041604023802103814181200018BFF2
S1134680102C03D1BDE8F140FDF780B8012C18BF10
S1134690202C53D1012C16BF202CDFF89C010020C4
S11346A0012C18BF202CB06111D1DFF89011DFF874
S11346B09001E961A861A98CF181EB8C33828B4272
S11346C007D21C21304603F0CBFD0220F2BD0120AD
S11346D0F2BDB26992F8310001280CD0308990FB08
S11346E0F1F701FB1700002802BF93FBF1F001FB77
S11346F010310029E5D12946104604F0B3FDF0B984
S1134700B069017F007E01230222FEF762FB287C50
S1134710012808D101212046FFF7E0FDB0690021FE
S113472005F032FA0AE0002070823189F08991FBA9
S1134730F0F0B08200F0A9F800F0A7F80020F2BD74
S113474020469BE558B50128044603D9103801D00A
S1134750103812D1204600F09BF8E8B9204600F04A
S113476071F8FFF7EDFF012C18BF202C06460FD17E
S1134770B06905F0B2F810B152BD012052BDB06964
S113478090F83110012903D100212046FFF7A6FD3E
S11347901C21304603F064FD002052BD2A89491CC7
S11347A091FBF2F302FB13117047521C92FBF3FCD2
S11347B003FB1C220A808A88521C8A80FEF71CBCD8
S11347C000E100E080E100E080E200E0D86C00203D
S11347D0F8B50124012807460E46154603D91038BA
S11347E001D0103815D1380018BF102F04D1294634
S11347F03046FDF764FA00243846FFF73FFD012FE9
S113480018BF202F05D180692A46314605F0E5F905
S113481004462046F2BD000090EB0200097000F04F
S11348207B43000000000140C86B0020506C002056
S1134830F86A0020406B0020106D00208462002084
S11348400462002070B50546FFF718FD0646012DE9
S1134850346818BF202D0DD1B06990F831100129AA
S113486008D0022105F0A8F80020708200F00DF8AD
S113487000F00BF8FEF7BAFB0021A18021806180D3
S1134880E180BDE87040FEF7B7BB3046FFF7A8BD36
S113489080B5012804D9B0F1100101D0103906D136
S11348A0FFF7ECFC00281CBF0068002801D10120A0
S11348B002BD002002BD704720B50021AAA2CBB2E0
S11348C0D35C834205D0491CCDB2082DF7D3002018
S11348D020BD012020BD000020B50021A4A2CBB240
S11348E0D35C834205D0491CCDB2082DF7D30020F8
S11348F020BD012020BD7248B0F8E2007047714825
S113490070477148007870477048007870476F4965
S11349100870704738B56E496E4C087002286E49AD
S11349206E4D13D12878042809D0084605F078FA8A
S1134930287803281EBF0428204605F071FA684829
S11349400168CA0054BF9024BC240FE00020087002
S1134950207005F0CAFB2878032818BF042802D168
S113496005F081FD01E006F0A6F89124204606F04A
S1134970F9F850B92346132250A10320FBF72BFD6D
S11349802046BDE8324006F0C0BE31BD5048007834
S113499000F00F0070474E48017801F00F01022922
S11349A001D1012070470020704710B505F054FB79
S11349B000B305F0A1FBE8B14A4803F00BFEC8B10F
S11349C0494803F007FEA8B106F00CFF90B106F0C9
S11349D0D9F878B94FF0FF31444805F087FA044616
S11349E04FF0FF31424805F081FA844288BF044603
S11349F0204610BD002010BD10B504463448007890
S1134A0000F00F0102291CBF0328932092B017D194
S1134A1000F098F8BDF8020020819DF80100A07212
S1134A2020469DF80010E17208F0DFF800202073A2
S1134A3004F1140104F1100008F0B4F9E08100203D
S1134A4012B010BD10B50C462149097801F00F02CF
S1134A50022A1CBF0329932092B00ED16A4600217A
S1134A6008F0E0FB9DF801002070002161709DF8C2
S1134A70000000F01F00A070002012B010BD10B59F
S1134A80002300E05B1CDCB28C4205D210F8014B21
S1134A909442F7D0002010BD012010BD082108F079
S1134AA0EFBE0B48007801281CBF3128332801D100
S1134AB001207047002070470000000042420000BF
S1134AC0D0790020B47A0020B07E0020D77D002069
S1134AD0AD7E002010710020CC760020AC7E00203A
S1134AE09C7900205C7E00203A7E0020BC6500207A
S1134AF0A070002038B5044692B02146002000F092
S1134B00CAFA0546C0B250B96A46002108F08AFBC9
S1134B108DF801406A460021002008F009FBE8B244
S1134B2013B030BD80B592B000F00CF89DF90100CF
S1134B3013B000BD80B592B000F004F89DF80000F9
S1134B4013B000BD6A460021002008F06BBB0120B1
S1134B50704780B592B0FFF7F5FF9DF8000040095B
S1134B6018BF012013B000BD0001020304051D207D
S1134B700203040508090A0B38B5044603F010FDC6
S1134B800546DFF8E00783780178994212D0DFF810
S1134B90D807806A641E07D0641E08D0A41E06D0FD
S1134BA0A41E032C03D905E00022194600E00022CC
S1134BB008F091FE284632BD2DE9DC4FDFF8A84706
S1134BC003EA010BD4E9086727EA010926EA000889
S1134BD002EA000A49EA0B0948EA0A08B94508BF8B
S1134BE0B0450ED0CDE90023C4E908890246A06A85
S1134BF00B4609F099F920B1BDE8DC4F40F275117C
S1134C0017E2BDE8D38F000078B589B00DF1080034
S1134C104DA1DFF854471C22FDF7CCFBA08BC10744
S1134C2000F190800121012000F03DFF0A204FF4A3
S1134C3028716073ADF80E10DFF830070FF21571AC
S1134C40DFF82C5708F029FEA06218B940F2B91118
S1134C5000F088F8A06A052108F086FF18B140F238
S1134C60C11100F07FF8A06A03F0CBF9DFF8040764
S1134C700168A06A09F0CCF900F05FFA0C2610FB79
S1134C8006F0ADF81A0000F058FA10FB06F0ADF883
S1134C90160002A9A06A09F0E1F918B14FF4EB710A
S1134CA000F060F8A06ADFF8D016002209F060FA7C
S1134CB018B14FF4ED7100F055F803200521207070
S1134CC06170A170002601F001F8E07000F035FA7F
S1134CD0142110FB01F0A08000F02FFAC000E08046
S1134CE0A6604FF0FF30DFF8942640F242330146CD
S1134CF0FFF762FFA06ADFF8FC1A09F087FAA06ADE
S1134D0001A909F005FB18B140F2052100F02AF8C9
S1134D10A06A0422694608F0ECFD042803D040F29E
S1134D20092100F01FF86946012009F012FB09F07F
S1134D3075FC012000F072FF03F030FC01F041F833
S1134D4000F095FD0AB070BD0000000001000000F5
S1134D50020202026400000064000000000000007F
S1134D600B0000002846FDF7D7B938B5DFF8F84541
S1134D70A08B820703D54FF4097100F0C2FA002119
S1134D802175FEF733F90546A08B410709D509F0D3
S1134D906DFC216B401A40F2C532904201D300F001
S1134DA06DFA00F090FF607B042820D1FEF71EF915
S1134DB00546A08B41072BD400F085FFFEF716F9BA
S1134DC00546E06A401C09F0BEFC00F02000012802
S1134DD0ACBF062005206073012100F054FA00F0F6
S1134DE097FF00F070FFE06AC178617431BD062856
S1134DF030D1DFF87005C179FF2937D109F0B8FC4B
S1134E00207C20B3FEF7F2F80546A08B410706D5B7
S1134E1004F1140005F004F8284600F052BE00F036
S1134E2052FF207C411E2174FEF7E0F80446012164
S1134E3000F029FA00F06CFF2046FEF7DDF8BDE82B
S1134E40384000224FF6FF71042009F005BD60735D
S1134E50402007E0012809D100206073A06A08F00F
S1134E6042FD3F20BDE8324000F0FDBD31BD70B5CC
S1134E70DFF8F444607B0E46154618B140F29A21DF
S1134E8000F03FFA2900E66203D0A17811B10121B4
S1134E9000E00021202000F006FEDFF87C0A017803
S1134EA02174002D14BFE07B0020A07304206073E4
S1134EB004F1140004F0B4FFBDE87040DFF85C0AAC
S1134EC0007805F0ACB82DE9F041FEF78FF8DFF873
S1134ED098548046A88BC10506D5687B10B900F0AC
S1134EE0C6FC01E000F08AF800210020FFF744FE30
S1134EF0DFF87064B079FF27FF2818D0B07928B99B
S1134F00B7710024687B052811D105E0B079B77129
S1134F1001280CBF4C243324002068734046FEF75C
S1134F206BF8204600F09FFDFEF760F88046687B32
S1134F30062833D1F079FF2830D0F079022804D143
S1134F4005F1140004F06CFF28E0F07900281CBF80
S1134F50F079012826D100F0C2FD0446F079012839
S1134F6018BF00200021002C297518BF0028F771F4
S1134F7009D001206873642105F1140004F05BFF7B
S1134F8000F04DFC0BE069734046FEF735F8002C49
S1134F9014BF3F20002000F066FD03E0F771404697
S1134FA0FEF72AF8A88B0006C00F05D00021802048
S1134FB000F079FDFDF7ACF8FEF7E7FE0024E88386
S1134FC0D0B1687B012806D10021002029756873BF
S1134FD0012408F063FA687B08B900F048FCE98B07
S1134FE0002008F093FA0020E8832CB1687B18B9FC
S1134FF0BDE8F04108F086BABDE8F08100214FF425
S1135000807000F050BD80B5FEF7CDFE80E080B525
S1135010FEF7BBFE0028FBD101BD80B500F019F8F6
S113502009F097F820B1BDE804404FF4697100E03D
S113503001BDDFF83C03FDF76FB880B500F009F857
S113504009F078F820B1BDE8044040F2AB31F0E754
S113505001BD10460A46DFF8C8380146986A704711
S1135060C148417B481E8041C00F7047DFF8B0083B
S1135070417B012901D1012070470020704780B590
S1135080B949487B18B140F2CB3100F03AF900F04D
S1135090EEFB002002BD80B5DFF88438986A0A224E
S11350A011FB02F108F079FF00B1212002BD80B5A7
S11350B0DFF86C18886A08F094FF0A2190FBF1F07D
S11350C040B202BDA7480079704738B5A64D687B49
S11350D0002818BF01280C4603D04FF47B7100F060
S11350E010F92146002000F00EF808B9212032BD45
S11350F09C490C71687B10B900F0B9FB01E000F029
S11351008EFB002032BD80B59748806A08F098FD78
S1135110401E8041C00F02BDDFF80418C8707047FC
S113512080B5DFF8FC27906A012108F09CFC41104F
S113513000EB91708005001602BD80B58A49886A2B
S113514008F037FD00281FBFDFF8241CB1FBF0F086
S113515080B2002808BF012002BD80B58249886A58
S113516008F02BFD00281FBFDFF8041CB1FBF0F092
S113517080B2002808BF012002BD10B50C460121F1
S113518000F020F8FFF7D9FF4443DFF894070FF24B
S11351900523806A0122214608F010FC002010BD7E
S11351A010B5DFF87C47A08BC20603D440F2594106
S11351B000F0A7F800F005F8A06ABDE8104008F078
S11351C00ABC0021102000F06EBC09F04FBA10B5E3
S11351D0DFF84C47A06A09F08AF8C00704D5A06A32
S11351E0BDE8104009F088B810BD80B5DFF830077D
S11351F0806A0122012108F072FB00212C20FFF7B4
S1135200BBFC00F0FBFAFEF702FABDE80240002006
S113521000F036BC38B5544C48B100F02FF8607B30
S113522001282AD1A06ABDE8324008F05CBB00F036
S1135230E3FA10B30020A0734A4DA879FF2803D0E5
S113524040F2EB4100F05DF800F01CF80020A8717A
S1135250617B062906D1012100F079F8002128207C
S1135260FFF78AFC607B052806D100212B20FFF77D
S113527083FCA06A08F037FB64E031BD0021042000
S113528000F011BC0021022000F00DBC38B50C4622
S113529010B1FFF7F3FF29E000F0AEFA30B3012CB0
S11352A0314D14D1A87B90B1401EA873C0B218B977
S11352B00021202000F0F7FBFFF7E4FF04206873CF
S11352C005F1140004F0ACFD00F090FA10E00020A9
S11352D0A873FFF7D7FF234DA879FF2803D040F226
S11352E0225100F00EF8AC71FCF711FF012C07D12C
S11352F0BDE8384000224FF6FF71202009F0ACBA17
S113530031BD1B48FCF708BF38B5174D184C6A7BF4
S1135310062A03D040F25F6100F004FB082000F08D
S1135320D4FB18B94FF4CC6100F0FCFA297C2A2094
S1135330FFF722FC00F00AF80A490220C871A86AA3
S113534008F0D1FABDE83140FCF7E1BE00210820A5
S1135350A9E30000DFF89C1A0020487301214FF4F0
S11353608070A0E390630020A8680020A46300205C
S11353701C5E00006C630020C07900200A0020FF3E
S113538001A0FCF7C9BE00006C69627261696C2EF1
S11353906100000080B5102000F097FB18B940F2BE
S11353A08161FFF7AEFFFFF70CFF002008F066F9FC
S11353B0BDE80140FCF7ABBE2DE9F84F144614F0EC
S11353C0C00F8CB00546984605D000F0D3FC0146CA
S11353D00120FFF7D1FBA002029525D5284609F04C
S11353E0C8FA08BB00F012FA029803A908F0E4FE18
S11353F0D0B99DF81400022809D1BDF80C0009F0B9
S1135400A7FBFF2809D009F000FC30B90CE0032801
S11354100AD103A809F05BFD30B1029808F0CAFE76
S113542010B9012100F0F3F9A00305D500F0A2FCA6
S113543001460320FFF7A0FBE001DFF8E45403D5A5
S11354400020FFF7E7FE38E0687B18F0020308D07D
S113545006280CBF012100212620FFF78DFB012126
S113546012E0E10005D506280CBF01210021262009
S113547007E014F0884F0BD006280CBF012100214F
S11354802720FFF779FB02210020FFF7FFFE14E03D
S113549018F0080103D000212320FFF76DFB18F05A
S11354A0040103D000212420FFF766FB18F001015A
S11354B003D000212520FFF75FFB21070FF65C19BD
S11354C06DD5A86A07AA032108F09CFE06004FF0D8
S11354D0000A03D140F2425100F09BF99DF81C00F0
S11354E0072867D1A86A03AA314608F093FE18B1C9
S11354F040F24C5100F08DF9BDF81E10A86A891CC9
S113550003AA89B208F08AFE18B140F2565100F09D
S113551080F9CDF800A00423A86A01AA314608F056
S113552097FE042803D040F25D5100F072F90DF1AA
S1135530050009F008F900F007000228DFF8B8B800
S11355402ED100F017FC01460920FFF715FB687BFC
S1135550062802BF9DF80700697C88421FD19DF888
S1135560150018B940F26E5100F053F90DF1050021
S113557009F0E9F800F010000028C8BF4FF0010A54
S113558051462920FFF7F8FAFFF7E0FE8BF807A051
S113559000F0A5FA002802D1A86A08F0A4F990E066
S11355A0BDF81E000830012180B2FEF77DFBADF886
S11355B0000030B900F0DEFB01460420FFF7DCFAFE
S11355C07FE0FEF7B6FABDF8202009990646FCF7FD
S11355D0F1FE0A9941B1BDF82000BDF81E20121A4F
S11355E092B23018FCF7E6FE701C09F0ACF800F03B
S11355F0200000282EDD00F0BDFB0746A86A09F054
S1135600B8F9002814BF062005203946FFF7B4FA7C
S1135610701C09F098F800F00700032809D109224A
S11356200121304609F0D8FE305C042808BF012768
S113563000D000270121FFF722FE09F017F82863A4
S1135640A7B1402000F041FA80B100F0DFF84FF03C
S1135650010A0BE000F08EFB01460920FFF78CFAEB
S1135660687B012804BFA86A08F03DF9BDF81E0054
S11356709BF8051037183970FF219DF81600B87093
S11356809DF81700F87039710398000C787103982D
S1135690000AB871BAF1000F0398F871707814BF5A
S11356A040F0200000F0DF007070002008F0A9F83E
S11356B07870BDF80000FEF759FB00F097F8FCF78E
S11356C026FDE00505D500F055FB01460420FFF753
S11356D053FA14F4863F05D000F04CFB0146022037
S11356E0FFF74AFAA00108D500F044FB0146082060
S11356F0FFF742FA0120FFF78DFD14F0084F05D0A3
S113570000F038FB00F07EF800F086F8A00007D522
S113571000F030FB01460620FFF72EFA00F07CF87B
S1135720A00705D5082000F0D0F908B1FFF7ECFD7B
S113573018F040010DD000F061F8082000F0C5F920
S113574008B1FFF7E1FD042000F0BFF908B100F053
S113575063F818F080011CBF012009F095FE18F4CD
S1135760807139D0029808F0B4F8022802D00328D6
S113577014D02DE0042000F0A8F928B100F0FAFAC2
S113578000F040F800F048F800F036F820B3687BE9
S113579006280CBF01210021272012E0042000F07C
S11357A094F928B100F0E6FA00F02CF800F034F88F
S11357B000F022F880B1687B06280CBF012100218B
S11357C02620FFF7D9F901210020FFF75FFD03E050
S11357D040F2177100F01DF818F4007103D0012194
S11357E0802000F060F90DB0BDE8F08F4B480078E0
S11357F004F015BC255B0000022066E100210A20AC
S1135800FFF7BAB901460720FFF7B6B900214020D7
S113581049E14846FCF780BCFF21012036E57FB50D
S1135820684600210022002380E80E00DFF8C84506
S1135830DFF8C06525788DF80050FDF7D7FB0546E5
S113584060792179884204D1B06A08F046F80128C9
S11358500AD1217961716A46B06A08F0F7F818B183
S113586040F2FA71FFF74DFD00F02DFA7FBD70B5DF
S11358700020FFF7F5FB0FF2A45418B940F65801C5
S113588000F050F8FDF7B2FB0546062000F01DF9C4
S113589018B10121FFF7B3FB3BE0FFF7AFFB00209A
S11358A007F09AFF02281E4E02D1B06A802208E057
S11358B0002007F091FF10B101280DD025E0B06A57
S11358C00022802109F0E4FD012000F0D9F8FDF761
S11358D0A0FEFFF7A4FF1CE0B06A08F004F8B06A69
S11358E007F0FBFF01280AD0B06A0122012107F06A
S11358F0F6FF00212C20FFF73FF9FFF77FFFFDF7AC
S113590086FE002000F0BCF803E040F6870100F0BA
S113591009F82846A1E10000DC670020A57E0020EC
S1135920A86800202046FCF7F7BB2DE9F84F0120BA
S113593009F004FEFFF760FF00260FF2E04818B9F3
S113594040F6950100F08CF8DFF8A854687B06282F
S113595018BF052803D040F6980100F081F8E86AE2
S113596018B940F69A0100F07BF8202000F0ADF859
S113597000281ABF4FF47A76012100212220FFF774
S1135980FBF8FFF7EAFBE96A0A780932504306EBB1
S1135990C006687B06280AD1FFF7CFFB8246FFF7D3
S11359A0DCFB60210C24484304FB0A0A5644EC6ADD
S11359B0DFF844742078A0F1010A601C08F0C3FEEB
S11359C000F020004FF0000B002878783872CCBF2C
S11359D04FF00109D946B6B2B9F1000F3E6118BFC4
S11359E04FF0010B08F0BCFE38B108F0B7FE0128F7
S11359F00CBF0820102040EA0B0BA86A80235FFA32
S1135A008AF2214608F0E4FB3E797E712020AC6ADC
S1135A1000F05BF8B0B107F1080000902B465A463D
S1135A203146204607F0EDFF38B14946262002F002
S1135A30B7FD40F6510100F013F8BDE8F24F002025
S1135A4009F07CBD07F108035A463146204607F0A9
S1135A50C8FF0028E8D100212520FFF78DF8ECE7E6
S1135A604046FCF759BB10B50446FFF700FF21463A
S1135A70002007F013FDBDE81040002007F042BDF0
S1135A8010B50446002007F0A7FE01280AD1DFF86C
S1135A906C030278944205D004702046BDE810409F
S1135AA0FDF7C0BD10BD38B504460D46FDF79EFA9E
S1135AB0DFF840138A8B002D14BF144322EA040438
S1135AC08C83BDE83240FDF797BA0146DFF8240322
S1135AD0828B11EA020018BF0120C0B2704710B5D2
S1135AE0DFF81043E06A18B940F6FF01FFF709FC3C
S1135AF0E06A401C08F027FE00F0070003280AD1E2
S1135B00E06A0922012109F067FCE16A085C0428C3
S1135B1001D1012010BD002010BDDFF8E4124008BF
S1135B20085C704710B50C464FF0FF3009F00FFDCC
S1135B30DFF8C012241A886A09F009FD241A14F146
S1135B40630F01DA002010BD14F1240F01DBFF20E4
S1135B5010BD64342402601104EB9064A404200E8C
S1135B6010BD80B5FFF775FA08F002FB28B1BDE857
S1135B70044040F64811FFF75CBA01BD704780B598
S1135B8000F003F9012801D0012002BD002002BD6C
S1135B9010B5DFF860324C000146986A224607F0DF
S1135BA0A8FEA04201D0002010BD012010BD042891
S1135BB001DB02207047DFF83C12C87300207047F5
S1135BC0DFF83402DFF82C320179986A012207F0F9
S1135BD02EBF0AE0DFF82002DFF818320179986A54
S1135BE0002207F024BF000000BFDFF80802806A2B
S1135BF007F027BF10B50446DFF8F801818BCA0708
S1135C000BD5611E8941806AC90F08F0C0FA2000D3
S1135C10DFF8F01118BF0120087010BD70B5DFF86F
S1135C20E8510646FDF7E2F92E700446DFF8C46138
S1135C30B08BC10710D5307B022804DA28B102F0FA
S1135C40A3FCC00501D5012103E02878411E894148
S1135C50C90FB06A08F084FE2046BDE87040FDF725
S1135C60CBB90020704738B57F28044611D14FF6D0
S1135C70FF70664D2988ADF8000002237F22684634
S1135C8009F0CDFCBDF800006FF04A04C10558BF0F
S1135C900446FDF7ABF905465B4844700120FFF765
S1135CA014FF68B1534A107B08B16FF07F04906A07
S1135CB061B208F04BF918B140F6BB21FFF721FBA4
S1135CC000F001F831BD2846FDF796B910B54E4CE9
S1135CD094F901107F2904BF7F20FFF7C4FF94F9D2
S1135CE0010010BDF2E7434AD17C002900D070477F
S1135CF080B501231028D37403D040F6DF21FFF7C9
S1135D0000FB00212020FFF7CEFEBDE801400CE699
S1135D1038B50220FFF7D9FE0FF2001418B940F687
S1135D20E821FFF7FFFD334D687B062818BF0528DF
