S00F00006E6F6465746573742E7333377F
S3150000000028E70020818A010015710000958901000A
S31500000010A70A0A010001000004180FAC006AA60234
S3150000002000000000000000000000000000000000CA
S3150000003000000000C4BA010000000000000000003B
S315000000400000000000000000FFFFFFFFFFFFFFFFB2
S31500000050FFFFFFFF00E007000000000000000000B7
S31500000060FFFFFFFFFFFFFFFF28000000000000006A
S31500000070000000000000000000000000000000007A
S31500000080000000000000000058FF002058FF00207C
S3150000009028E70020E9EF0100068B0100C8DD0020FB
S311000000A0D810002000000800000000003E
S3150000010028E70020818A0100157100009589010009
S31500000110A59E0000998901009D890100000000004C
S3150000012000000000000000000000000013110000A5
S31500000130A18901008F0C0000075000002B6500000C
S3150000014045A00000E33601008B150000A9890100D7
S31500000150B13101001D370100E9360100EB3601001F
S31500000160E5360100FB1601004DD60000BBD80000A5
S31500000170FB680000A9890100A98901007D870100AB
S315000001809F700000A98901005BD60000A9890100C3
S31500000190A9890100A9890100A9890100A98901008D
S315000001A0A9890100A9890100A9890100A98901007D
S315000001B01F370100E7360100DD4F0100B31C0100C7
S315000001C053370100A9890100AD890100A989010001
S315000001D0A9890100A9890100A9890100A98901004D
S315000001E0A9890100B3700000BB700000A989010055
S315000001F0A9890100A98901000000000000560348F2
S31500000200016830BF41F000410160704700BF4C31CA
S315000002100E400F48816B89B201B1012141F671325E
S31500000220826346F21A32036843F001030360C26434
S315000002304FF4807343604269D307FCD40022C26442
S31500000240C9B203685B085B00036001B182630020EA
S31500000250704708000E40000070472DE9FC47DFF8A4
S31500000260DC45DFF8DC950FF2CC6ADFF8D885054669
S315000002702078494600F0FEFC0FF2D060009000277F
S31500000280B8A611E0314600F0F5FC0BE09368126861
S315000002900FF2B06100F0EEFC00F06AF9F2D00099BE
S315000002A000F0E8FC7F1CBFB2286800EB071220783C
S315000002B0516849B14145E9D15169002918BF414505
S315000002C0F0D012685146EBE709F17C0100F0D2FC50
S315000002D0207809F1A40100F0CDFC207809F1D401C1
S315000002E000F0C8FC207809F5807100F0C3FC207886
S315000002F03146BDE8FC4700F0BDBCA0F141011A291A
S315000003003CBF2030C0B270472DE9F84F06460024A6
S31500000310B168DFF828750D68EDB2284600F047FD94
S315000003205FFA80F9B9F1200FA04607DD3878DFF8CB
S315000003301815BDE8F84F202200F09CBC284600F0B6
S315000003401EFD8246002506E01AF80500FFF7D5FFD8
S315000003500AF805006D1C4D45F6DB4A460FF2F451CE
S31500000360504600F0C7FE40B94FF0010805E0387866
S315000003700FF2E8515A4600F07DFC32682101101D4B
S315000003804058002840D0DFF8BC54641CA842A4B2F0
S31500000390F3D152F801B0B8F1000FE8D1584600F099
S315000003A0B9FE4845E9D14A465146584600F0A2FEF4
S315000003B00028E2D1A2466BA40FF290580FF2A4597E
S315000003C018E0214600F056FC10E001EB0B008368B4
S315000003D002683878494600F04DFC30685844C268D7
S315000003E03878002AEDD0414600F044FC0AF10100BD
S315000003F01FFA80FA31684FEA0A1B081D50F80B00F5
S31500000400002818BFA842E0D1BDE8F18FF8B5044630
S3150000041088B0A068016801B10121DFF83054297065
S31500000420406800B10120DFF82864DFF828743070D6
S31500000430384601F078F8A068C16801B10121006969
S3150000044000B10120DFF81024DFF8103411701870A5
S31500000450C9B2C0B20790059143A30FF228500FF21C
S315000004601C5106900491012230780FF20851029334
S3150000047003920190009104F111012B780FF2EC42E6
S3150000048007F1280001F04FF809B0F0BDDFF8D013EE
S31500000490007CDFF8A83351F8202018780FF2EC41E1
S315000004A000F0E8BB38B5DFF8944320782DA529463F
S315000004B000F0E0FB2078DFF8AC1300F0DBFB00F087
S315000004C0FCF900F0F5F9207828A100F0D3FB00F044
S315000004D0E9F920780FF2DC41BDE8344000F0CABBF0
S315000004E02DE9F24F054692462E6B002713E01DA11B
S315000004F000F0C0FB0CE08B680FF24841CF4C00F0D7
S31500000500B9FB00F035F8F2D00FF2404100F0B2FB33
S315000005107F1CBFB21036706808B3D6F80080DDF8CD
S31500000520009000240BE019F8010BFFF7E6FE834666
S3150000053018F8010BFFF7E1FE8345E9D1641CA0B270
S315000005405045F0D3BD4B286800EB071118784C686E
S31500000550BC4B0A689C42CED10FF2D831D6E7BDE833
S31500000560F18F00000D0A0000746167002C20000066
S31500000570286800EB0710C2682078002A7047000040
S315000005802DE9F043ADF5017DB74F01A839464FF48B
S31500000590807200F0E7FF4FF000098DF80190A5206A
S315000005A001F029F801F072F800F072FB00F06BF927
S315000005B0002001F0C1F95FEA000805D000F05EF9FD
S315000005C0002001F0B9F9804600F05DF9012001F044
S315000005D0B3F9060005D000F051F9012001F0ACF99D
S315000005E0064600F050F9022001F0A6F9050005D0F4
S315000005F000F044F9022001F09FF9054601F018FACF
S31500000600B8F1000F8D4C0CD0002E00F07C80002D30
S3150000061000F07D8040F207210FF2A03001F00EFAC3
S3150000062003E0002E18BF002D75D084F80090201D21
S3150000063001F039FB7DA520780FF29036294600F0AF
S3150000064019FB207807F5807100F014FB00F035F9EE
S3150000065000F02EF9207876A100F00CFB00F022F9CC
S3150000066020780FF2503100F005FB00F02EF92078CB
S315000006709DA100F0FFFA0FF2BC1800F022F9201D30
S3150000068001F088FD00F021F994F8000099A100F02E
S31500000690F1FA00F016F9201D03F0D8F900F015F96B
S315000006A094F8000096A100F0E5FA00F00AF9201D82
S315000006B003F0EAF900F009F994F8000093A100F0BC
S315000006C0D9FA00F0FEF8201D03F000FA00F0FDF85C
S315000006D094F8000090A100F0CDFA00F0F2F8201D89
S315000006E003F009FA00F0F1F894F800008DA100F08B
S315000006F0C1FA00F0E6F8201D04F02DF94EA60FF21F
S31500000700D42841AF3EE035B1012020708FE70221A9
S3150000071021708CE725702078FF28FAD100256946DC
S31500000720E8B201F04CF938B99DF800000D2818BF61
S315000007300A2818BF2A28EDD06D1CE9B20329EEDB82
S31500000740E9E78DF800109DF80020B85C511C0A28D6
S3150000075018BF0D2818BF0028F3D10D20B8548DF806
S31500000760001041A99DF80020201D01F0A7FA9DF870
S31500000770002041A901A800F0F5FE9DF80090002098
S315000007808DF8010000F089F820780DF10103FF22B1
S3150000079041A901F019F9002846D000F029FF01F01F
S315000007A08AF803F045FD9DF8010010B341A90844FD
S315000007B010F8011C09291CD100F07FF89DF80100F2
S315000007C0411E8DF8011041A99DF80120201DFFF75B
S315000007D087FE9DF801100020785400F05EF8002096
S315000007E004E000F055F89DF80000401C00F03EF8CB
S315000007F0F7D39DF804012128C6D100F05EF84A46D9
S3150000080001A941A800F0AEFEA9F101008DF8010092
S3150000081000F043F8002000F029F8B5D200F038F8CF
S315000008209DF80000401CF6E700218AE70D0A00004B
S315000008302C2000005D0D0A002563000080E70020E3
S31500000840DC9E01005902000008A00100EEEB00202A
S31500000850EFEB00204CA00100F0EB0020F1EB0020B4
S3150000086054E90020B0A10100B0A001008DF80000FD
S315000008709DF801109DF80000884270470123002270
S315000008804FF416417047012300224FF4E1317047BF
S315000008903A5C2078314600F0EDB94146207800F008
S315000008A0E9B9000094F800003FA100F0E3B90000A8
S315000008B094F8000039A100F0DDB92078294600F04F
S315000008C0D9B92078414600F0D5B92078314600F0F4
S315000008D0D1B980B504F057F9BDE8024000204FE6D3
S315000008E00020704704F061BC696E6974546F6B65D3
S315000008F06E7300006372617368696E666F00000054
S315000009007265736574737472696E6700696E697473
S31500000910526164696F00000073656564506E7267AA
S3150000092000000000736574506572546573745478E2
S31500000930000000002D2D2D2D202570202D2D2D2D74
S315000009400D0A00002020257020257000202D20256E
S31500000950700D0A006D6F64756C65730025700D0A65
S3150000096000000000257020257000000068656164A5
S3150000097065720000636F6D6D616E640064656C691D
S315000009806D0000007465787400000000434920453E
S3150000099072726F723A2025700D0A00004170722043
S315000009A0323820323032310031373A31313A343848
S315000009B0000000000D0A0D0A00000000706C617452
S315000009C0666F726D746573742E6300005B494E49E1
S315000009D0542000000D0A3E200000000070B51346AA
S315000009E010440BE001F00F060909451E0A2EACBFA4
S315000009F037243024A41928462C705B1EDCB2002C48
S31500000A00F0D1104470BDF0B5002341B1002806D5E1
S31500000A102D2313700123B0F1004F18BF404200216F
S31500000A200024934D55F82470002601E0C01B761C67
S31500000A30B842FBD2F7B20FB90F0004D0D9B23036A4
S31500000A4056545B1C0121641C092CEBDBD9B23030F7
S31500000A5050545B1CD8B2F0BD2DE9F84F804696B0D5
S31500000A6014A8894615469B4604AF4FF0000A002499
S31500000A7001901EE0012405460DE03429FAD15BF809
S31500000A80046B0422310C3846FFF7A8FF0422B1B2EA
S31500000A90FFF7A4FF074601998F4209D39DF800008E
S31500000AA03F1A00F0C5F8002853D15AFA87FA04AF66
S31500000AB06D1C04A88DF800009DF800002978381AEE
S31500000AC000290BD0252903D014B907F8011BE2E74A
S31500000AD0002C14BF00246D1C29780A0000F09B80AE
S31500000AE0B1F1250216D00B3A092A40F28380283A42
S31500000AF07AD00A3A12D0521E42D0521E5CD0083A20
S31500000B005AD0121F3FD0D21E3DD0921E54D0D21EB4
S31500000B106AD0C0E7252007F8010BBCE704A8DBF87C
S31500000B200010DBF804208DF800000BF1080B3846A6
S31500000B30039102920027029A9742ABD20399C95DAC
S31500000B400222FFF74BFF0199884206D300F074F8A2
S31500000B50002869D15AFA86FA04A80299491E8F42DA
S31500000B603CBF202200F8012B0199884206D300F0F1
S31500000B7063F8002858D15AFA86FA04A87F1CDAE7E7
S31500000B805BF8040BC7E75BF8046B074600F050F808
S31500000B90002849D15AFA87FA04AF0022314600E00C
S31500000BA0521CD6B2885D0028FAD1D2B24846C04758
S31500000BB0002839D1B2446EE76C290AD16A785BF80D
S31500000BC0040B752A0EBF00210121642A07D16D1C72
S31500000BD005E075295BF8040B0CBF002101213A469C
S31500000BE0FFF711FF074456E75BF8041B0222C9B260
S31500000BF038464DE768780124782818BF5828F2D17E
S31500000C006D1C0024681E32297FF437AF5BF8040B95
S31500000C1081B20422ECE70546EAB200F00AF818B9F8
S31500000C20AA445FFA8AF000E0002017B0BDE8F08F12
S31500000C30FAB204A9484640479DF80020861AF2B247
S31500000C4004A94846404709A114E00CB438B5044647
S31500000C5004AA00F017F8054604A1204600F00AF899
S31500000C60284632BC5DF80CFB000000000D0A0000AF
S31500000C70D0CB01000CB480B502AA00F003F802BC88
S31500000C805DF80CFB80B506F0E1F8C0B202BD704716
S31500000C9010B5DFF83804DFF830140068DFF83024C8
S31500000CA0C860136848615B0800EB43040C6118B127
S31500000CB000F00AF8652806D2BDE81040B0210FF210
S31500000CC0204000F0BBBE10BD10B5DFF8FC43206924
S31500000CD06269904202D2C62100F0CDF820696269AD
S31500000CE000E0E268801A4FF6FE71084010BDDFF89A
S31500000CF0D813CA68904203D34969884200F05CB9A8
S31500000D000020704780B510B1FFF7F1FF00B1012058
S31500000D1002BD30B1DFF8B023D168401A4010401C44
S31500000D2080B27047010001D100207047DFF89813A8
S31500000D30CA6802EB4000801E70474088C0F30C0072
S31500000D40C01C80084000001D80B2704710B50446E4
S31500000D50FFF7F3FFDFF870134A6904EB40004FF624
S31500000D60FF7400E0801C904202D20388A342F9D0AF
S31500000D7010BD80B5FFF7D6FFBDE80240C2E710B54B
S31500000D80040012D0FFF7F5FF18B940F27A4100F0DF
S31500000D9072F82046FFF7C6FF38B101880A0402D56B
S31500000DA0D0F80A0010BD083010BD002010BD10B5E7
S31500000DB0010013D0FFF7B6FF0446FFF7A3FF18B9EB
S31500000DC040F2944100F057F844B12088010401D55F
S31500000DD0208910BD6088C0F30C0010BD002010BD36
S31500000DE02DE9F04100F044F804003FD0FFF78AFFF8
S31500000DF00FF2EC2718B940F2A74100F078F8284620
S31500000E00FFF7D5FF80462046FFF7A0FF464505467B
S31500000E102CD003DB40F2AF4100F069F820880104D2
S31500000E2048BF268122D466802046FFF786FF04EB62
S31500000E30400406F02BF9DFF890124A692E1BB6B271
S31500000E40954204BF4C61002606F026F9082E06D20C
S31500000E5031462046BDE8F041FF2206F021B90821BF
S31500000E60204606F027F9A6F108006080BDE8F0816B
S31500000E7005460E4656E70FF2682000F0DFBD38B58E
S31500000E800D46FFF74FFF04000AD0FFF73BFF18B9E6
S31500000E9040F2EC41FFF7EFFF04EB4500808832BDDE
S31500000EA0002032BDF8B50D461646FFF73BFF04009D
S31500000EB00FF22C2714D0FFF725FF18B940F2F7419F
S31500000EC000F015F83046FFF72DFFFFF71BFF18B9A6
S31500000ED04FF49F6100F00BF804EB45008680F1BDEE
S31500000EE03846BDE8F44040F2FB4100F0A7BD384665
S31500000EF000F0A4BD2DE9F84F8846C11C8908DFF82B
S31500000F00C85149000027091D2E690FF2D41AB0F501
S31500000F10005F04461FFA81F904D340F22751504678
S31500000F2000F08CFD06F0B2F883466969E86908B9F5
S31500000F30711A03E05FEA080202D0411A4E1009E076
S31500000F40301A4010064680B220B940F24D51504644
S31500000F5000F074FDB6B24E4514DB6F6907EB49002D
S31500000F606861E86928B1B8F1000F04BF00EB4900D9
S31500000F70E86100207C80B880F880388008342989B0
S31500000F8064182C81584606F087F83846BDE8F24FBB
S31500000F90BFE670B504460D4611462846FFF7AAFF80
S31500000FA006463CB1300005D0FFF7E9FE2A46214649
S31500000FB006F084F8304670BD8041C00F70472DE9B9
S31500000FC0FE4F04468846208816469B46FFF7AAFE33
S31500000FD00746FFF797FE18B940F28D61FFF74BFF02
S31500000FE038880104354603D538892D183D8167E0D8
S31500000FF000F074F8019000F06DF8814606F046F8AE
S3150000100000968246304E706981451DD1FFF75CFE21
S31500001010A84203D2504606F03FF821E001982D1869
S31500001020BBF1000F7D8008D02088FFF7A8FE019B4A
S31500001030009A4146184400F095FA00F04BF87061AA
S31500001040504606F029F83BE0504606F025F800F039
S3150000105045F82D180021A8B2FFF74CFF070001D173
S315000010601A202EE000F03AF805462088FFF787FEA2
S3150000107006463846FFF783FE2A46314600F072FAE6
S31500001080BBF1000F384609D0FFF779FE00F025F8CE
S31500001090009A4146284400F065FA07E0FFF76FFE24
S315000010A000F01BF80099284406F004F82088012176
S315000010B0FFF7E5FE024601213846FFF7F3FE2780DB
S315000010C00020BDE8FE8F000064F7002020E8002025
S315000010D024E800203846FFF739BE0546208866E634
S315000010E06275666665722D6D616E6167656D656EAA
S315000010F0742E630003000020521E22BF13F8010B5A
S3150000110011F801CBB0EB0C00F6D0521C08BF10460C
S315000011107047FEE700F1010310F8011B11B110F84A
S31500001120011BFBE7C01A704738B50446651D206AE7
S315000011302368451B2079EAB2611D984708B1002053
S3150000114032BD94F829002D18611D84F829502162BA
S31500001150012032BD38B50446002500E06D1CE8B21A
S31500001160085C0028FAD120792368EAB2984730B99A
S3150000117094F829002D1884F82950012032BD00204A
S3150000118032BD2DE9FE4F0546681D28620E4605F163
S31500001190150100209146696285F829000FE02A6250
S315000011A024B100F0A1F97D2001F8010D286A696AD1
S315000011B0884203D300F0A6F900286ED0761C317859
S315000011C0002900F08681DFF88C034078252918BFB6
S315000011D0262917D07B291CBF7D29232907D1002862
S315000011E0E4D0286A401C286200F8011DDEE7DFF81B
S315000011F0642390780028D9D02A6A521C2A6202F801
S31500001200011DD3E716F8013F252B18BF262B04D165
S3150000121000F06AF901F8013DC8E726290BD150B163
S3150000122001246E2B18BF4E2B12D000F05DF97B20E7
S3150000123001F8010D00E0002430784E284FF0000A36
S3150000124006D0542826D06E2802D0742822D035E045
S31500001250DFF80013087859F8047B0028A6D0200090
S3150000126006D0286A7B210170821C2A6228234370DB
S3150000127000F048F9002810D000F033F900280CD00F
S31500001280002C93D0286A29210170821C2A627D23B2
S3150000129043708BE700F034F9002875D000F021F98F
S315000012A0002871D000F02EF900286DD000F01CF94E
S315000012B03A2001F8010D4FF0010A761C3078737858
S315000012C0A0F13001C9B2881E05282DD2642B18BFA3
S315000012D0752B29D159F8040B0022012780B2642B03
S315000012E0804605D1030403D5C043401C012280B2C9
S315000012F038B10A2390FBF3F0521C80B20028F8D1D3
S3150000130000E0521CD5F820B0D2B2881A8A4200906A
S3150000131006DA00992022584605F0C2FE009883445A
S31500001320C5F820B0761C00E000273178701E0A0050
S3150000133000F0C480322918BF342900F09D80482966
S3150000134006D058290FD0632910D064291FD06829E8
S3150000135000F087806C2956D0702918BF73290CD0ED
S31500001360752914D0782900F07E80ACE0286A411CEB
S31500001370296259F8041B017012E700F0C1F818B190
S3150000138000F0AFF80028F7D10020BDE8FE8FD5F8B1
S3150000139020E0002F12BF1FFA88F059F8040B80B224
S315000013A0724628B930200EF101028EF80000F6E6EA
S315000013B0002364290CD101040AD52D27B0F5004F6E
S315000013C00EF101028EF8007002D0404280B268B180
S315000013D04FF00A0E90FBFEFE0A2101FB1E00D9B259
S315000013E05B1C0DF801001FFA8EF0F0E71846431E4D
S315000013F0C0B200281FBFD8B21DF80000303002F876
S31500001400010BF3D1CBE6296A59F8040B0A4618B941
S3150000141030204A1C0870C2E60023002807D54A1C63
S315000014202D27B0F1004F0F7001D0404260B14FF050
S315000014300A0EB0FBFEFE0A2101FB1E00D9B25B1CA0
S315000014400DF801007046F1E71846431EC0B20028A9
S315000014501FBFD8B21DF80000303002F8010BF3D1DF
S315000014609DE600F045F8022259F8041B286AC9B225
S31500001470FFF7B4FA286293E616F8010F682818BF3A
S3150000148048280BD100F034F816F8011C286A3229D6
S315000014900AD159F8041B042289B2E9E7782818BF53
S315000014A05828F1D0761E7BE659F8047B0422390CC5
S315000014B0FFF794FA28620422B9B2D9E7BAF1000F0D
S315000014C001D106466CE6BAF1000FFBD0691D296210
S315000014D0F7E700F017F800283FF456AF95F8290013
S315000014E053E73946284635E6296A491C296270477A
S315000014F0286A30210170821C2A6278234370704763
S3150000150059F8047B28460FE60EB410B5124A014678
S3150000151010788BB0002428B1104A00F013F800B9F7
S31500001520012420460AE00EB410B50C4A8BB00146E1
S3150000153000F008F8002400B9012420460BB010BCC6
S315000015405DF810FB0648137800908DF804300DAA5C
S31500001550684616E6EFEB0020EEEB002080E7002061
S31500001560796E00004AB1000011F8013B521E00F8E6
S31500001570013B1CBF11F8013BF8E77047890001EBFE
S31500001580401101F184410868704705F0C3BD0000B1
S315000015907FB50121344805F097FE01220121012083
S315000015A006F066F90421072006F094FA34A292E8C0
S315000015B038006946032281E838000D218DF80810AD
S315000015C001268DF809208DF800608DF807606946C0
S315000015D0264C204606F0ECFA254904200860022233
S315000015E0244962620860A26A42F00202A2627FBDDA
S315000015F01E4806F0D1BAA52803D100211B4806F0E3
S31500001600B2BA70471948006800F0010070471A49DD
S3150000161008680028FCD1704738B504460D4600F02E
S3150000162016F804F00F01034624052A46200E01B0E1
S31500001630BDE8304006F065BB00F00F010005000E66
S3150000164030220E4B50431A1802F11C0096E700F0A8
S315000016500F010005000E3022084B50431A1802F104
S315000016600C008BE70000000030253E0000200540FE
S3150000167080E200E000E100E00820054000A0004014
S3150000168001000000000000010F00000010B501215C
S315000016909148924C05F018FE914801210160002006
S315000016A006F0EBFA012304220221052006F029FBAD
S315000016B0012006F06FFB00F010F806F0B6FB0120E3
S315000016C0207006F0A7FC01234022211D96A006F0FB
S315000016D06CFC84490860C00F10BD70B50122012161
S315000016E0042006F0C5F88048804C0168804D814E84
S315000016F041F0010101600021C26842F08072C260BF
S3150000170002227D482060296031607C487C490A605D
S3150000171005F011FE7B497C4A7C4B0818B0FBF2F0C1
S31500001720401E1860002129644FF480727848794978
S3150000173020653160784802602B6843F480732B6023
S3150000174070BD38B505F0A2FC644D29780024022945
S3150000175012BF01240321297005F09EFC04BB6548D5
S315000017600168CA070ED56D490B6823F440630B6008
S31500001770016849084900016002681102FCD464202E
S3150000178006F065FC00220021042006F071F85C4991
S31500001790614B0020086018600122534908602A70D6
S315000017A031BD5148006800B10120C0B27047D12256
S315000017B002704170090A817059490A78C270042082
S315000017C0521C0A7070472DE9F24F84B0074608781C
S315000017D00024052868DB401D8DF80000002606F071
S315000017E0A7FC02904FF6FF789DF80000DFF83491D1
S315000017F0DFF8FCA03C4D019003971DE0039880198B
S31500001800414610F8027C384606F0C6FC80465E4625
S3150000181038480168CA070FD5E86840F08070E8606C
S31500001820DAF8001041F48071CAF80010D9F8000007
S315000018300028F1D089F80070296879B39DF8001066
S31500001840F0B288422AD206F073FC0299401A80B29E
S3150000185040F2F512904226DAF0B210B95B27012663
S31500001860D6E7012804D19DF80000471F0226CFE7DE
S31500001870019806F1010BF6B2C01E864208BF474624
S31500001880C5D00198801E864208BF4FEA1827BED0F1
S315000018900198401E8642B1D15D27B8E79DF8000049
S315000018A0F6B2864200D0012404990420087005B0DF
S315000018B02046BDE8F08F80B50A4B186890B04022EC
S315000018C0694606F058FB20B1C2B26946122006F0FE
S315000018D04BFD11B000BD000000350A0000F70020E6
S315000018E0108814421CE80020F0ED00E0B00F00E084
S315000018F0000E00E0800E00E055CEACC506000E00DE
S31500001900F00004E0FCAC0600F8590D00100004E0FD
S31500001910FF0300400D000100040304E0001000E096
S3150000192050FF0020200000E073696C6162737675D9
S31500001930617274646F776E002DE9F041044690463B
S31500001940012522008AB00F461E4606D0012C1DD066
S31500001950102C02D0202C19D01EE0002105F060F8D2
S315000019600546012C18BF202C08D0022C18BF212CAC
S3150000197004D0032C1CBF222C232C1AD1012E019734
S31500001980ADF80C800AD14FF480500BE0684626492A
S315000019902822FFF7E7FDE4E701200BE0022E03D142
S315000019A04FF44050ADF80A006946204605F038F875
S315000019B00546E8B20AB0BDE8F08105F0F6B880B594
S315000019C005F0FEF8C0B202BD80B505F048F9C0B218
S315000019D002BD7CB5044600200D4616468DF8000073
S315000019E001E0FFF705FE6B46324629462046FFF723
S315000019F0EBFF0028F5D176BD80B505F0B7F9C0B28A
S31500001A0002BD80B505F0CEFAC0B202BD0CB480B5F9
S31500001A100A46014602AB0548FFF71EF802BC002045
S31500001A205DF80CFB00000000A8CB0100436F00002E
S31500001A30002080F31188704742DE704738B50446AF
S31500001A400D4603F011FFFFF7D3FD06F0EDFC294626
S31500001A50204606F0B3FB2B464FEA040275A101208F
S31500001A60FFF7D4FF29462046BDE83440E4E768483E
S31500001A702DE9F843674E0168B1654FF42068026AA4
S31500001A806549F2650B68336649687166426AB266F3
S31500001A90816AF166C26A3267016B7167806B96F87C
S31500001AA03810B06748074CBF346CF46B06F0DCFCAA
S31500001AB0002232658442594B014624BFA3F1200718
S31500001AC0A742A146716506F19002DFF854C1DFF81E
S31500001AD054E118D3A0697064E469B464B56DC5F3C4
S31500001AE00805062D13D1704511D360450FD2008825
S31500001AF04DF64264A0420AD17068B46850609460A2
S31500001B0040F2017803E000247464B46481464648D8
S31500001B10814202D2014600E0091D0846984203D2DE
S31500001B200C68B4F1CD3FF7D04049081AF0640021A3
S31500001B30002006F17C04C5B2401CC7B244F825104B
S31500001B40062FF8D3002099452CD253F8041D714571
S31500001B50F9D36145F7D2CC07F5D5002406F17C050B
S31500001B6055F824708F4202D0641C062CF8D3062C3C
S31500001B70E9D1C4B2002C0CBF0520401E06F17C043E
S31500001B80C5B244F82510DEE7F16F002306F17C05A7
S31500001B9006EB8304D4F8804045F823405B1C042BF5
S31500001BA0F6D911600146481EC9B20029ECD1B06DC4
S31500001BB0C0F30800032810D0042811D0052812D03D
S31500001BC0062813D00C2817D0122818D118480268F6
S31500001BD0910719D540F2025816E040F6012813E0A5
S31500001BE040F6022810E040F603280DE0B8F5206F15
S31500001BF00AD140F6042807E040F6052804E018B1AB
S31500001C003F2838BF40F607284046BDE8F28300006B
S31500001C1004ED00E00000002000E300E028E70020DB
S31500001C20068B0100580200009C00002028E70020D7
S31500001C301C2005400D0A5B4153534552543A25700A
S31500001C403A25645D0D0A00002DE9F14181B0FFF7E8
S31500001C50AEF8C4B200250026E00748BF002020D415
S31500001C600027DFF8AC8314E0160111E0BDF804008C
S31500001C70F9B206F04AFC18F80020F80702F00F0245
S31500001C80F2D5BDF804003243E9B206F056FC6D1CED
S31500001C907F1CF8B2A042E9DBE9B201A806F0EEFB30
S31500001CA00120BDE8F68100F1240100224A80C273BA
S31500001CB0C2830A7082730068C86070472DE9F74FC7
S31500001CC082B0054600208DF8010005F1240608E0E3
S31500001CD0687B70720122EA7329469DF8000000F0C5
S31500001CE0AEF903980027002460BB9DF810006946F2
S31500001CF0FFF765FE002839D0262826D00121284680
S31500001D0000F08FF978208DF80000A04610270021FA
S31500001D108DF80110E97B0829E3D8DFE811F00A0005
S31500001D204A008D00E900E90040014C01AC009D002D
S31500001D30D7E7102FCCD09DF80000232835D10821F5
S31500001D40E973CEE79DF8100020B99DF8010005B0B3
S31500001D50BDE8F08F0398401C039010F8011D9DF814
S31500001D6010008DF80010411E8DF81010A0469DF849
S31500001D70000067280ED29DF80010A548405C00F0D0
S31500001D80300700F00F08400607D5717A884504DA57
S31500001D90012402E07B2838BF10279DF800000A289E
S31500001DA018BF0D28B3D10121B2E7202F99D0032007
S31500001DB029E1102F1CBF9DF800005F2800D01CB140
S31500001DC030780C28F3DA87E7202F18BF302F3FD161
S31500001DD0327805F11101002088544FF00009F068AF
S31500001DE001900DE01AF8010B00F022F91BF8011B17
S31500001DF081420CD0019800F1100109F1010901910D
S31500001E000199486820B3D1F800A005F1110B9BF8A1
S31500001E1000000028E6D19AF800100029EAD1A5F8BA
S31500001E201E90F068E98B00EB011200219068286291
S31500001E30A97331700222EA73002C687B70722FD06E
S31500001E402B203072C6F804800421687B707277E715
S31500001E500321284600F0E5F89DF80100002809D086
S31500001E60287C20B1696828468847002028742846BF
S31500001E70FFF719FF35E79DF8010018B1284600F075
S31500001E80EAF8F4E79DF80000232805D1284600F07B
S31500001E90E2F80820E87324E7202FFCD00420B2E003
S31500001EA09DF800002D2818BF2B2804D13072002180
S31500001EB071600321C9E722280AD100210020FFF71B
S31500001EC019F8002870800BD000F0A6F80520E1E78D
S31500001ED07B28D0D100210020FFF70CF80028708065
S31500001EE000F0908000F098F810207072062127E725
S31500001EF044B17068717A042201FB0088EA73C6F85F
S31500001F000480EEE69DF80000782818BF582804D112
S31500001F10706810B910217172E3E69DF8000074280C
S31500001F2018BF542803D1706808B90A21F3E70329BA
S31500001F3056D0202F18BF302F52D1296A08784A78F8
S31500001F40337A71682D2B08BF4942752808D1342A87
S31500001F501AD00020312A14BF4FF6FF72FF220FE07D
S31500001F60732808D1312A07BF6FF07F007F222948E6
S31500001F7047F6FF7204E00421284600F052F86BE7AA
S31500001F808142A8BF8A4208DB0222284600F082F876
S31500001F900028F4D00220E8734EE70621ECE79DF80E
S31500001FA0000022281ED10021284600F08BF80028C8
S31500001FB0B2D002206EE79DF800007D280DD1708812
S31500001FC0FFF742FE04460121284600F07BF808B1DF
S31500001FD00220E873002C9FD102E0202F9CD00CB980
S31500001FE0072010E07088FEF7E2FEFF2808BF0820F1
S31500001FF009D001230122694605F12600FEF7DFFF1D
S31500002000002889D002208DF800009DF8001020E7F6
S31500002010E4CC01000080FFFF002105F1260006F058
S315000020202DBA027C1AB90823C37301745FE07047A6
S31500002030A0F141011A293CBF2030C0B2704738B523
S315000020400C4694F82450FFF7F3FF61196D1C487491
S3150000205084F8245031BD10B50446216A087830B1A1
S3150000206062280CBF01200220085C2A2807D1216BB8
S31500002070E28B01EB021320465968884706E00420EC
S315000020802074204661688847002020742046BDE8F9
S3150000209010402CE010B5837B047BA34204D10521BC
S315000020A0FFF7BFFF002010BD846844F82310817B32
S315000020B0491C8173016A8B5C2A2B1CBF891801623B
S315000020C0012010BD80B5026A1378622B04D004216A
S315000020D0FFF7A7FF002002BDC38C03F0FF03002219
S315000020E003EB0121C2840122BDE80840D2E7837BCD
S315000020F0002100E0491CCAB29A42FBD30022C18CDF
S31500002100827301B1C28470472DE91040DFF834456F
S3150000211005A12078FEF7AEFD2078DFF82C15BDE886
S315000021201040FEF7A7BD0000286C6974746C65202A
S31500002130656E6469616E000001460878A0F130039F
S315000021400A2B38BF30380AD3A0F14103062B38BF1B
S31500002150373804D3A0F16102062A02D257380001AB
S3150000216000E000204978A1F130030A2B38BF30394E
S315000021700AD3A1F14103062B38BF373904D3A1F1A5
S315000021806102062A02D25739081801E00006000F3C
S31500002190C0B2704738B506F001FA02001FD0DFF86A
S315000021A0A444DFF8A8542078042A08BF294608D09A
S315000021B0062A08BF05F14C0103D0072A04D105F110
S315000021C09001FEF757FD03E005F1D801FEF752FD39
S315000021D0207805F58671BDE83440FEF74BBD31BD6C
S315000021E02DE9F84FC0B08068DFF858740568FFF72E
S315000021F08BFFA8B206F043FA8046A8B206F02EFC82
S315000022000446A8B206F019FD8346002C38781ABF9A
S315000022104FF6FF7290450FF2404128D02346AAB2EE
S315000022200FF2E011FEF726FD00250FF278290FF2D6
S31500002230782A06E000F01CF8761CF0B2A042F9DB22
S315000022406D1CE8B2584510DABBF1010F234603D1E5
S315000022507F2201F06DF906E0EAB201F069F93878FB
S315000022605146FEF707FD0026E7E7387851465BE062
S315000022701DF8002038784946FEF7FCBC2DE9F84FDA
S315000022800446C0B0A168DFF8BC730E68DFF8C0531F
S31500002290B0B206F0E3FB8046B0B206F0F0F9834632
S315000022A0B0B206F0CAFC0646B8F1000FB1A005D1DF
S315000022B004F11101FFF737F9294634E04FF6FF72B2
S315000022C0934504F1110104D1FFF72DF905F124011D
S315000022D029E0FFF728F9387816A14246FEF7CAFC2E
S315000022E000240FF2C0190FF2C01A06E0FFF7C0FF74
S315000022F06D1CE8B24045F9DB641CE0B2B04211DA6D
S31500002300012E434604D17F22594601F012F907E017
S31500002310E2B2594601F00DF938785146FEF7AAFCAB
S315000023200025E6E708A13878FEF7A4FC41B0BDE831
S31500002330F08F00007B73697A653A25647D7B766150
S315000023406C75653A000000007D7D0D0A00000000F6
S315000023502DE9F047C0B080680768D0F80490B94E00
S31500002360FFF7D2FEB8B206F079FB8046B8B206F0A7
S3150000237086F98246B8B206F060FC0546B8F1000F51
S3150000238030781ABF4FF6FF7292450FF2CC2133D048
S315000023906C1E1DB15FFA89F18C420BDAAD4D2946F0
S315000023A0FEF768FC30782346002205F13801FEF777
S315000023B061FC23E04346BAB212A1FEF75BFC012D95
S315000023C008BF4FF07F0943465FFA89F2514601F094
S315000023D0B0F835A530782946FEF74CFC002431A725
S315000023E005E01DF801203946FEF744FC641CE1B205
S315000023F030784145F5DB2946FEF73CFC40B0BDE8A8
S31500002400F08700005B2532785D28256429203D0091
S315000024102DE9F847C1B080688A4F0668FFF774FE59
S31500002420B0B206F01BFB8146B0B206F028F9824630
S31500002430B0B206F002FCB9F1000F1CBF4FF6FF71F7
S315000024408A45064605D138780FF20C21FEF712FCB4
S3150000245027E000240FF20C281FE016FB09F338785A
S315000024605B1E09FB04524146FEF704FC3878032242
S315000024706946FFF7AEFA6846FFF75EFE01A94855C2
S315000024806D1C4D45E9DB012E4B4601AA14BFE1B296
S315000024907F21504606F0C2F8641CB442B8BF00253E
S315000024A0EFDBCBE0202558000D0A00002DE9F847A8
S315000024B08246C3B0DAF80800654E41680768C9B2BB
S315000024C0ADF804100846FEF772FC0546B8B206F0F1
S315000024D0C5FA0446B8B206F0D2F88146B8B206F09C
S315000024E0ACFB02902000574F0FF2880803D100F092
S315000024F04BF8314637E04FF6FF71894504D100F0BD
S3150000250043F806F124012EE0EA2C05DD00F03CF844
S31500002510EA2206F14C0106E0A54208D000F034F8A4
S31500002520224606F198013878FEF7A4FB1EE000204B
S3150000253000902346BDF80410002203A805F0B8FF5A
S31500002540029D002609E0012D234603AA14BFF1B21D
S315000025507F21484606F062F8761CF0B2A842F2DB0C
S3150000256000F012F804A13878FEF784FB44B0BDE809
S31500002570F08700007B264E007B72657475726E3A9A
S31500002580307D7D0D0A0000000AF111014046FEF77C
S31500002590CABF00002DE9F847C1B0806804684668E4
S315000025A0284DFFF7B1FDA0B206F058FA8046A0B25A
S315000025B006F065F88246A0B206F03FFB0446B8F185
S315000025C0000F28781CBF4FF6FF72924504D100BF5A
S315000025D021A1FEF74FFB31E0671E14B1F1B28F4225
S315000025E00BDA1C4C2146FEF745FB28783B460022B9
S315000025F004F13801FEF73EFB20E000270FF26409E4
S3150000260011E02878A8F101033A464946FEF732FB65
S31500002610287803226946FFF7DCF96846FFF78CFD48
S3150000262001A9C8557F1C4745EBDB012C08BF7F2657
S31500002630434601AAF1B2504605F0F0FF42B0BDE8AC
S31500002640F087000080E700200CB3010034B30100DE
S3150000265078B401005CB501006E6F7420666F756E0C
S31500002660640D0A006461746120627974655B256497
S31500002670206F662025645D3A000000002DE9F847CA
S31500002680A5B0DFF8545DDFF8549DFFF73DFD2878CF
S315000026904EF24552FFF7EFFD2878DFF8441DFFF7AD
S315000026A0ABF9DFF8400D0188082300F047FF0FF271
S315000026B0883A002400F046FF00F02EFFFAD30FF20E
S315000026C07C3800F046FF28784CF25632FFF7D3FDEF
S315000026D02878DFF8141DFFF78FF90124DFF80C0DB9
S315000026E000F02AFF9DF8002000F02FFF9DF8012042
S315000026F000F02BFF641EF1D100F02BFF28784EF27C
S315000027004532FFF7B8FD2878DFF8E41CFFF774F9C7
S31500002710DFF8E00C0188082300F010FF00F012FF3C
S3150000272000F0FAFEFAD300F014FF28784EF6735242
S31500002730FFF7A1FD2878DFF8C01CFFF75DF9DFF889
S31500002740BC0C0188102300F0F9FE002400F0FAFE0C
S3150000275000F0EAFEFAD300F0FCFE28784CF24E2296
S31500002760FFF789FD2878DFF8981CFFF745F9DFF8B1
S31500002770940C0188102300F0E1FE002400F0E2FE34
S3150000278000F0D2FEFAD300F0E4FE28784CF64412AC
S31500002790FFF771FD28780FF68C41FFF72DF901241C
S315000027A0DFF8640C00F0C8FE9DF8002000F0CDFEB6
S315000027B09DF8012000F0C9FE641EF1D100F0C9FEAB
S315000027C028784DF24302FFF756FD28780FF664414C
S315000027D0FFF712F90124DFF8340C00F0ADFE9DF886
S315000027E0002000F0B2FE9DF8012000F0AEFE641E4F
S315000027F0F1D100F0AEFE28784CF24312FFF73BFD14
S3150000280028780FF64041FFF7F7F8DFF8040C018847
S315000028100223E2B200F08DFE9DF8002000F095FE46
S315000028209DF8012000F091FE641C60B21428ECDBD8
S3150000283000F08FFE28784DF64322FFF71CFD28781E
S315000028400FF61041FFF7D8F8DFF8C80B018801230F
S3150000285000F074FE9DF8002000F077FE00F079FE8F
S3150000286028784DF64822FFF706FD28780FF6FC314A
S31500002870FFF7C2F8DFF8A00B0188012300F05EFE27
S315000028809DF8002000F061FE00F063FE28784DF60A
S315000028905222FFF7F0FC28780FF6E831FFF7ACF884
S315000028A0DFF8780B0188102300F048FE002400F0C2
S315000028B049FE00F039FEFAD300F04BFE28784DF2BF
S315000028C04E32FFF7D8FC28780FF6D831FFF794F888
S315000028D0DFF84C0B0188102300F030FE002400F0D6
S315000028E031FE00F021FEFAD300F033FE28784DF2D7
S315000028F04632FFF7C0FC28780FF6BC31FFF77CF8AC
S315000029000124DFF8580C00F017FE9DF8002000F0B7
S315000029101CFE9DF8012000F018FE641EF1D100F0A7
S3150000292018FE28784CF24332FFF7A5FC28780FF6FC
S31500002930A031FFF761F80124DFF8240C00F0FCFD5C
S315000029409DF8002000F001FE9DF8012000F0FDFD3D
S31500002950641EF1D100F0FDFD28784CF65352FFF7C6
S315000029608AFC28780FF67C31FFF746F8DFF8F40B7F
S315000029700188082300F0E2FD00F0E4FD00F0CCFD44
S31500002980FAD300F0E6FD28784CF25432FFF773FCD8
S3150000299028780FF66431FFF72FF80124DFF8C80B0B
S315000029A000F0CAFD9DF8002000F0CFFD9DF8012043
S315000029B000F0CBFD641EF1D100F0CBFD28784DF67A
S315000029C05402FFF758FC28780FF63831FFF714F851
S315000029D00124DFF8980B00F0AFFD9DF8002000F011
S315000029E0B4FD9DF8012000F0B0FD641EF1D100F0A9
S315000029F0B0FD28784CF65442FFF73DFC28780FF6D8
S31500002A00D031FEF7F9FFDFF8680B0188012300F0EB
S31500002A1095FD9DF8002000F098FD00F09AFD2878BD
S31500002A204CF65332FFF727FC28780FF6B431FEF741
S31500002A30E3FFDFF8400B03E0202558000D0A0000F5
S31500002A400188042300F07AFD00F07CFD00F068FDAB
S31500002A50FAD300F07EFD28784DF25702FFF70BFC03
S31500002A6028780FF69031FEF7C7FFDFF80C0B0188C8
S31500002A70102300F063FD002400F064FD00F054FD17
S31500002A80FAD300F066FD28784CF25732FFF7F3FBD5
S31500002A9028780FF67431FEF7AFFFDFF8E00A0188F9
S31500002AA0042300F04BFD002400F04CFD00F038FD3F
S31500002AB0FAD300F04EFD28784CF65752FFF7DBFBB1
S31500002AC028780FF65831FEF797FFDFF8B40A018829
S31500002AD0042300F033FD002400F034FD00F020FD57
S31500002AE0FAD300F036FD28784DF25752FFF7C3FBB4
S31500002AF028780FF63C31FEF77FFFDFF8880A018859
S31500002B00042300F01BFD002400F01CFD00F008FD6E
S31500002B10FAD300F01EFD28784CF25742FFF7ABFBC4
S31500002B2028780FF62031FEF767FFDFF85C0A018888
S31500002B30042300F003FD002400F004FD00F0F0FC87
S31500002B40FAD300F006FD28784CF24B22FFF793FBF0
S31500002B5028780FF60431FEF74FFFDFF8300A0188B8
S31500002B60102300F0EBFC002400F0ECFC00F0DCFC91
S31500002B70FAD300F0EEFC28784CF24232FFF77BFBEA
S31500002B8028780FF6EC21FEF737FFDFF8040A0188F4
S31500002B905C2300F0D3FC002400F0D4FC641CE0B2FB
S31500002BA05C28F9D300F0D5FC28784CF64312FFF7E1
S31500002BB062FB28780FF6C821FEF71EFFDFF8D4095E
S31500002BC00188142300F0BAFC002400F0BBFC641C4E
S31500002BD0E0B21428F9D300F0BCFC28784DF2433259
S31500002BE0FFF749FB28780FF6B021FEF705FF012411
S31500002BF0DFF8A40900F0A0FC9DF8002000F0A5FC79
S31500002C009DF8012000F0A1FC641EF1D100F0A1FCAA
S31500002C1028784DF24232FFF72EFB28780FF68C21EA
S31500002C20FEF7EAFEDFF874090188102300F086FC3F
S31500002C3000F088FC00F078FCFAD300F08AFC2878D3
S31500002C404CF24532FFF717FB28780FF67C21FEF78A
S31500002C50D3FEDFF84C090188942300F06FFC0024B2
S31500002C6000F070FC641CE0B29428F9D300F071FC0B
S31500002C7028784DF25832FFF7FEFA28780FF65C21D5
S31500002C80FEF7BAFEDFF81C090188202300F056FC87
S31500002C90002400F057FC00F03BFCFAD300F059FC8E
S31500002CA028784DF25932FFF7E6FA28780FF64821D0
S31500002CB0FEF7A2FEDFF8F0080188202300F03EFCB4
S31500002CC0002400F03FFC00F023FCFAD300F041FCA6
S31500002CD028784CF64B22FFF7CEFA28780FF63421E7
S31500002CE0FEF78AFEDFF8C4080188222300F026FCDE
S31500002CF0002400F027FC641CE0B22228F9D300F07F
S31500002D0028FC28784DF65022FFF7B5FA28780FF6FA
S31500002D101821FEF771FEDFF898080188202300F0DD
S31500002D200DFC002400F00EFC00F0F2FBFAD300F0DC
S31500002D3010FC28784DF65522FFF79DFA28780FF6F5
S31500002D40F411FEF759FEDFF86C080188202300F025
S31500002D50F5FB002400F0F6FB00F0DAFBFAD300F0F6
S31500002D60F8FB28784DF65122FFF785FA28780FF6FA
S31500002D70D011FEF741FEDFF8400801885A2300F023
S31500002D80DDFB002400F0DEFB641CE0B25A28F9D318
S31500002D9000F0DFFB28784CF64B62FFF76CFA2878D8
S31500002DA00FF6AC11FEF728FEDFF810080188102395
S31500002DB000F0C4FB002400F0C5FB00F0B5FBFAD31D
S31500002DC000F0C7FB28784DF64922FFF754FA287819
S31500002DD00FF69011FEF710FEDFF8E40701880123D5
S31500002DE000F0ACFB9DF8002000F0AFFB00F0B1FB5B
S31500002DF028784DF64522FFF73EFA28780FF6781127
S31500002E00FEF7FAFDDFF8BC0701885A2300F096FBAF
S31500002E10002400F097FB641CE0B25A28F9D300F0B6
S31500002E2098FB28784BF23462FFF725FA28780FF6DC
S31500002E305C11FEF7E1FDDFF890070188082300F03A
S31500002E407DFB002400F07EFB00F066FBFAD300F069
S31500002E5080FB28784FF60172FFF70DFA28780FF6F7
S31500002E603811FEF7C9FD012402237F22002100F05C
S31500002E7060FB9DF8002000F068FB9DF8012000F043
S31500002E8064FB641EF0D100F064FB28784EF2231236
S31500002E90FFF7F1F928780FF61811FEF7ADFD0423B8
S31500002EA07F22012100F045FB00F04CFB00F038FBCF
S31500002EB0FAD300F04EFB28784EF27542FFF7DBF9A5
S31500002EC028780FF60411FEF797FD11237F220221C1
S31500002ED000F02FFB002400F035FB00F025FBFAD9AB
S31500002EE000F037FB28784EF26322FFF7C4F9287802
S31500002EF00FF6E801FEF780FD04237F22032100F090
S31500002F0018FB002400F01EFB00F00AFBFAD300F0C9
S31500002F1020FB28784EF26352FFF7ADF928780FF6BA
S31500002F20D001FEF769FD04237F22042100F001FB96
S31500002F30002400F007FB00F0F3FAFAD300F009FBD7
S31500002F4028784EF26212FFF796F928780FF6B40148
S31500002F50FEF752FD012402237F22052100F0E9FA43
S31500002F609DF8002000F0F1FA9DF8012000F0EDFA3E
S31500002F70641EF0D100F0EDFA28784EF67932FFF7AC
S31500002F807AF928780FF69401FEF736FD11237F2291
S31500002F90062100F0CEFA00F0D5FA00F0C5FAFAD90B
S31500002FA000F0D7FA28784EF66462FFF764F92878BD
S31500002FB00FF67401FEF720FD10237F22072100F093
S31500002FC0B8FA002400F0BEFA00F0AEFAFAD300F028
S31500002FD0C0FA28784EF22412FFF74DF928780FF63A
S31500002FE05801FEF709FD1A237F22082100F0A1FAF5
S31500002FF0002400F0A7FA641CE0B21A28F9D300F006
S31500003000A8FA28784EF22512FFF735F928780FF638
S315000030103C01FEF7F1FC08237F22092100F089FA22
S31500003020002400F08FFA00F077FAFAD300F091FA54
S3150000303028784EF22612FFF71EF928780FF6280197
S31500003040FEF7DAFC0A237F220A2100F072FA002436
S3150000305000F078FA641CE0B20A28F9D300F079FA95
S3150000306028784EF22712FFF706F928780FF60C019A
S31500003070FEF7C2FC012402237F220B2100F059FA3D
S315000030809DF8002000F061FA9DF8012000F05DFA3D
S31500003090641EF0D100F05DFA28784EF22812FFF790
S315000030A0EAF828780FF2F471FEF7A6FC18237F22BF
S315000030B00C2100F03EFA00F045FA641CE0B2182834
S315000030C0F9D32878DFF8044500F044FA28784EF260
S315000030D02912FFF7D0F828780FF2DC71FEF78CFC86
S315000030E001237F220D2100F024FA9DF8002000F034
S315000030F02CFA00F02EFA28784EF21022FFF7BBF8D1
S3150000310028780FF2CC71FEF777FC00F022FA2878C7
S315000031104EF21122FFF7AFF828780FF2D071FEF7C2
S315000031206BFC00F016FA28784EF21222FFF7A3F88D
S3150000313028782146FEF760FC00F00BFA28784EF25C
S315000031401322FFF798F8287804F12401FEF754FCBF
S3150000315000F0FFF928784EF21422FFF78CF8287851
S3150000316004F14801FEF748FC00F0F3F928784EF226
S315000031701522FFF780F828780FF29071FEF73CFCD5
S3150000318000F0E7F928784EF22022FFF774F8287845
S3150000319004F17001FEF730FC04237F22142100F0B5
S315000031A0C8F90026F1B200F0CEF9761CF0B2042878
S315000031B0F8D300F0CEF928784EF22122FFF75BF81B
S315000031C0287804F19401FEF717FC00F0C2F928787C
S315000031D04EF27422FFF74FF828780FF25071FEF77F
S315000031E00BFC00F0B6F928784FF60D72FFF743F89E
S315000031F028780FF24C71FEF7FFFB00260B23F2B284
S31500003200172100F096F90027F9B200F09CF97F1C0F
S31500003210F8B20A28F8D9761C71B20529EEDD00F05D
S3150000322098F928784EF25642FFF725F828780FF2DB
S315000032302471FEF7E1FB00F08CF928784FF4654223
S31500003240FFF719F828780FF21C71FEF7D5FB00F08E
S3150000325080F928784EF20352FFF70DF828780FF21E
S315000032601C71FEF7C9FB00260123F2B21A2100F0F9
S3150000327060F99DF8002000F068F9761C70B2052808
S31500003280F2DD00F066F928784EF20152FEF7F3FF00
S3150000329028780FF20471FEF7AFFB10237F221B2163
S315000032A000F047F90026F1B200F04DF9761CF0B2B5
S315000032B01028F8D300F04DF928784EF20252FEF7A6
S315000032C0DAFF28780FF2E061FEF796FB28237F22CB
S315000032D01C2100F02EF90026F1B200F034F9761C1C
S315000032E0F0B22828F8D300F034F928784EF25822A4
S315000032F0FEF7C1FF28780FF2C461FEF77DFB1223AB
S315000033007F221D2100F015F90026F1B200F01BF90D
S31500003310761CF0B21128F8D900F01BF928784EF285
S315000033205922FEF7A8FF28780FF2A061FEF764FB8A
S3150000333000263423F2B21E2100F0FBF80027F9B272
S3150000334000F001F97F1CF8B23428F8D3761C71B26C
S315000033500529EEDB00F0FDF828784EF25B22FEF739
S315000033608AFF28780FF27C61FEF746FB00F0F1F841
S3150000337028784EF25A22FEF77EFF28780FF27C61FB
S31500003380FEF73AFB00F0E5F828784EF25C22FEF7ED
S3150000339072FF28780FF27861FEF72EFB00F0D9F85D
S315000033A028784EF25052FEF766FF28780FF28061B9
S315000033B0FEF722FB00F0CDF828784EF25152FEF7C8
S315000033C05AFF287804F1C001FEF716FB00F0C1F899
S315000033D026B0BDE8F087000080E70020A0B6010017
S315000033E0A8B601004EEE0100BCB6010050EE010089
S315000033F0D0B6010052EE0100E4B6010054EE010021
S31500003400F0B6010056EE010058EE01005AEE01003A
S315000034105CEE01005EEE010060EE010062EE01006E
S3150000342064EE01004D46475F4D414E55465F4944A7
S31500003430000000004D46475F5048595F434F4E46D7
S31500003440494700004D46475F4153485F434F4E464C
S31500003450494700004D46475F5A574156455F434F1F
S31500003460554E5452595F4652455100004D46475FEE
S315000034705A574156455F48575F56455253494F4E36
S31500003480000000004D46475F5A574156455F50536E
S315000034904555444F5F52414E444F4D5F4E554D4248
S315000034A0455200004D46475F53455249414C5F4ED9
S315000034B0554D4245520000004D46475F53594E5404
S315000034C0485F465245515F4F4646534554000000FB
S315000034D04D46475F4343415F5448524553484F4C1E
S315000034E0440000004D46475F455A53505F53544FC2
S315000034F052414745000000004D46475F4354554E34
S31500003500450000004D46475F584F5F54554E4500F5
S31500003510641CE0B220287047641CE0B2082870479B
S31500003520641CE0B204287047641CE0B2102870479F
S315000035304146684605F054B8018802237F22684652
S3150000354005F04EB8E1B21DF8012028785146FDF786
S3150000355091BB28784146FDF78DBB000066EE010061
S3150000356068EE01006AEE01006CEE01006EEE0100ED
S3150000357070EE010072EE010074EE010076EE0100BD
S3150000358078EE01007AEE01007CEE01007EEE01008D
S3150000359080EE010082EE010084EE010086EE01005D
S315000035A088EE01008AEE01008CEE01008EEE01002D
S315000035B090EE010092EE010094EE010096EE0100FD
S315000035C098EE01009AEE01009CEE0100B8B50100EC
S315000035D04D46475F4C46584F5F54554E45000000D8
S315000035E04D46475F4B49545F5349474E41545552E8
S315000035F0450000004D46475F4C4F434B42495453EC
S315000036005F504C57000000004D46475F4C4F434B00
S31500003610424954535F434C57300000004D46475FC4
S315000036204C4F434B424954535F4D4C5700000000EA
S315000036304D46475F4C4F434B424954535F554C5799
S31500003640000000004D46475F4C4F434B42495453E0
S315000036505F444C57000000004D46475F424F4F54B1
S315000036604C4F41445F4145535F4B455900000000B4
S315000036704D46475F43424B455F444154410000007D
S315000036804D46475F494E5354414C4C4154494F4E69
S315000036905F434F44450000004D46475F5345435541
S315000036A0524954595F434F4E464947004D46475F7E
S315000036B05345435552455F424F4F544C4F41444545
S315000036C0525F4B45590000004D46475F43424B450C
S315000036D05F3238334B315F44415441004D46475FBA
S315000036E05349474E45445F424F4F544C4F41444522
S315000036F0525F4B45595F58004D46475F5349474E09
S3150000370045445F424F4F544C4F414445525F4B45F1
S31500003710595F59004D46475F5448524541445F4AF8
S315000037204F494E5F4B4559004D46475F5A575F50CC
S31500003730524B00004D46475F5A575F50554B0000AD
S315000037404D46475F5A575F51525F434F444500000D
S315000037504D46475F4E564D335F43525950544F5F67
S315000037604B4559004D46475F5A575F494E495449A4
S31500003770414C495A454400004D46475F5A575F51F0
S31500003780525F434F44455F45585400004D46475FDE
S315000037904555495F36340000535441434B5F4E56FE
S315000037A0444154415F56455253494F4E0000000074
S315000037B0535441434B5F4150535F4652414D455F21
S315000037C0434F554E54455200535441434B5F414C71
S315000037D05445524E4154455F4B455900535441435D
S315000037E04B5F424F4F545F434F554E544552000076
S315000037F0535441434B5F4E4F4E43455F434F554EE7
S3150000380054455200535441434B5F414E414C59532A
S3150000381049535F5245424F4F5400000053544143B1
S315000038204B5F4B4559530000535441434B5F4E4F3A
S3150000383044455F4441544100535441434B5F545205
S315000038405553545F43454E5445520000535441432B
S315000038504B5F4E4554574F524B5F4D414E41474586
S315000038604D454E5400000000535441434B5F5041B8
S3150000387052454E545F494E464F0000005354414353
S315000038804B5F504152454E545F4144444954494F61
S315000038904E414C5F494E464F000000005354414391
S315000038A04B5F4D554C54495F5048595F4E574B5FDF
S315000038B0494E464F00000000535441434B5F4D496B
S315000038C04E5F52454345495645445F52535349005E
S315000038D04D554C54495F4E4554574F524B5F5354C8
S315000038E041434B5F4B455953000000004D554C5426
S315000038F0495F4E4554574F524B5F535441434B5FBC
S315000039004E4F44455F444154410000004D554C54D0
S31500003910495F4E4554574F524B5F535441434B5F9B
S31500003920504152454E545F494E464F005354414311
S315000039304B5F42494E44494E475F5441424C450015
S31500003940535441434B5F4348494C445F5441424CB6
S3150000395045000000535441434B5F4B45595F54416A
S31500003960424C4500535441434B5F434552544946EC
S3150000397049434154455F5441424C450053544143E9
S315000039804B5F4144444954494F4E414C5F4348497B
S315000039904C445F4441544100535441434B5F5A4C9D
S315000039A04C5F444154410000535441434B5F5A4CD1
S315000039B04C5F5345435552495459000053544143B3
S315000039C04B5F47505F44415441000000535441430C
S315000039D04B5F47505F50524F58595F5441424C45D8
S315000039E000000000535441434B5F47505F494E432C
S315000039F04F4D494E475F4643000000005354414334
S31500003A004B5F47505F53494E4B5F5441424C450014
S31500003A10535441434B5F47505F494E434F4D494EC8
S31500003A20475F46435F494E5F53494E4B00000000D7
S31500003A304D554C54495F50414E5F535441434B5F83
S31500003A404348494C445F5441424C450010B505F08B
S31500003A50CCF940F2A174C440E0070BD5064C20789F
S31500003A6005F0D2F9207805F077FA2078BDE8104005
S31500003A7005F03FBB10BD00BF80E700205FF02A01C4
S31500003A800AA0FDF7DBBF000010B501F08AFA044674
S31500003A9001F07DFA02462346DFF80C0007A1007804
S31500003AA0BDE81040FDF7E6B880E700207265736553
S31500003AB0742D746573742E630000000052455345DF
S31500003AC0543A25702D25700D0A00000010B50446E5
S31500003AD0002002F0C3F8002002F0E0F805F0D2FB67
S31500003AE0012002F02BF8204605F067FE2046BDE8CF
S31500003AF0104000F03ABF80B5022100F02FF900987F
S31500003B0005F04EFF01BD80680068C1B20229A8BF5A
S31500003B100FF2005305DA002914BF0FF204530FF217
S31500003B200853DFF8A4140FF2DC420870DFF89C0497
S31500003B30D0F81013FFE70FF2C040FDF7F4BC000009
S31500003B40F8B501F066FFDFF888440FF2705204EB17
S31500003B508000C368DFF87404D0F850130FF24050A9
S31500003B60FDF7E1FCDFF86C04006805F062FF05284C
S31500003B70054614D8DFE800F003100E090C060FF214
S31500003B80F4420EE00FF2E0420BE00FF2D04208E002
S31500003B9079A206E079A204E00FF2B84201E00FF242
S31500003BA0E0420FF2F4410FF2E8400FF2DC47FDF776
S31500003BB0BAFC0026F0B254F8201005F0010238468F
S31500003BC0FDF7B1FC761C6D08F0B20228F2D9BDE80B
S31500003BD0F2408FE038B50446DFF8F023A0680568A8
S31500003BE0D2F860130FF2E040FDF79DFCEDB215B17F
S31500003BF0012D07D00CE00FF2D840FDF794FC01F040
S31500003C0033FE05E00FF2DC40FDF78DFC01F0FFFE10
S31500003C100FF2E040FDF787FC2046BDE832408FE713
S31500003C20F8B507460D4684B0284601F0B0FA0446BA
S31500003C30284601F064FC06460FF234523CB92B4686
S31500003C4007F111010FF21050FDF76DFC10E00FF2B5
S31500003C5030500FF224510290009105F01F000190A0
S31500003C6003942B4607F11101DFF86C03FDF75BFCAB
S31500003C70AE420FF2B44405D032460FF20C51204644
S31500003C80FDF751FC284601F021FC10F1010F0FF25F
S31500003C906C430FF2704102D10FF2704202E018B984
S31500003CA00FF2704218460BE0DFF83023DFF82C13D2
S31500003CB0B0FBF2F201FB120129B90FF27441204662
S31500003CC0FDF731FC13E0DFF8182313784FF47A740C
S31500003CD0B0FBF4F2214601FB120100290EBF0FF2E0
S31500003CE0584102460FF260411846FCF7C3FF05B083
S31500003CF0BDE8F0408AA0FDF716BC10B5044601F0F9
S31500003D00A3FB01462046BDE8104089E738B50546C5
S31500003D1001F07FFE0400DFF8B402D0F83013DFF8BC
S31500003D20C40218BF0124FDF7FEFB01F070FEA8686F
S31500003D300068C0B201F090FA02460FF210310FF29D
S31500003D405040FDF7F0FB0CB101F08EFD01F07CFB5D
S31500003D5001462846BDE8344062E70121684601F085
S31500003D6072B910B5044602F03EF804F11101BDE83F
S31500003D701040034688A237E15478000052780000CC
S31500003D802DE9F04F85B006460C4615461F4601F054
S31500003D9040FE010018BF01218DF8031001F05AFE04
S31500003DA0002D8DF8020016D10125022001F055FEE6
S31500003DB0642004F04CF901F047FB8DF801000290F5
S31500003DC0049603975CB9029E012006F01F0400FAD0
S31500003DD004F4002109E0E8D56D420020E6E7E00E94
S31500003DE04601F6B224F078440121019115E00498C9
S31500003DF000F1110133464A460FF2CC30FDF793FB32
S31500003E0004E0FDF790FB46A0FDF78DFB9DF8000052
S31500003E1001218140641A761CF6B2002C69D006F0A6
S31500003E201F008DF8000024FA00F2D007F3D501F048
S31500003E300BFB86420FF2403904D0F0B201F00CFAC7
S31500003E400028D4D14FF07F0A6FF07F080027AB46D9
S31500003E500DE0802004F0FBF801F0F1FEC719804563
S31500003E60B8BF80465045B8BF8246ABF1010BBBF1E7
S31500003E70000FEEDC9DF8400097FBF5F758B1504671
S31500003E8001F060FB824678B201F05CFB07464046D3
S31500003E9001F058FB8046049800F1110148A0FDF797
S31500003EA042FB019828B1324649460FF2DC10FDF775
S31500003EB03AFB03980FF2EC2920B1014652464846D8
S31500003EC0FDF731FB0E9820B101463AB24846FDF7A0
S31500003ED02AFB0F9820B1014642464846FDF723FBD0
S31500003EE09DF84000002814BF0FF2C0200FF2D0202A
S31500003EF087E7029886421CBF9DF8010001F0ACF9E5
S31500003F009DF8020001F0A9FD9DF8030020B105B05F
S31500003F10BDE8F04F01F0A8BC05B0BDE8F08F000089
S31500003F207D0D0A00E0B50021029101910091012268
S31500003F300FF2B42308E0E0B50121002202910192BC
S31500003F40009220A301220021FFF71AFF07BD3EB50C
S31500003F508368847B1A680FF2A0250021022CA8BF73
S31500003F6059680023029300950FF294240FF28023E0
S31500003F700194FFF705FF37BD80B501F0B0FF03469A
S31500003F8012480FF29422D0F8B0130FF27C20BDE84D
S31500003F900050FDF7C8BA00004343410010B50B4A74
S31500003FA0D2F8C01304460FF28020FDF7BCFAA068D1
S31500003FB0016848B201F05CFF2046BDE81040DBE72F
S31500003FC07B264E0045440000F2EB0020D4A1010000
S31500003FD0B8E70020D0EC002038B7010040420F00BF
S31500003FE080E700205CB701006BA0FDF79CBA8168F2
S31500003FF00968C9B214E600007B264E202674737D3C
S315000040000D0A00005045522054657374204D6F64AC
S3150000401065000000656E61626C65642D6E657700F3
S31500004020656E61626C65640064697361626C656487
S315000040300000000061736C65657000006177616B5C
S3150000404065000000656E65726779000073746174BF
S315000040507573000049646C65000000005278416386
S31500004060746976650000000054784163746976656A
S3150000407000000000496E6163746976650000000007
S31500004080556E6B6E6F776E00202674680000000018
S315000040902026747300000000526653746174650034
S315000040A07B264E20526164696F20706F776572209F
S315000040B0737461746520267473000000706F7765F1
S315000040C072207374617465007B264E200000000028
S315000040D0536C656570696E6720726164696F2E2E18
S315000040E02E00000057616B696E6720726164696F0C
S315000040F02E2E2E00646F6E657D0D0A0020267470CC
S31500004100000000006672657100000000696C6C6555
S3150000411067616C0050657252616D526164696F43EC
S315000041206F6E666967000000202674750000000047
S31500004130667265714D487A00207B667265714B48E0
S315000041407A3A256C7D000000207B66726571487A9C
S315000041503A256C7D000000007B264E205261646982
S315000041606F206368616E6E656C20267468000000BF
S315000041706368616E6E656C006368616E00000000C6
S3150000418070616765000000005074694368616E00E5
S315000041902674687D0D0A00007B264E202674647DF9
S315000041A00D0A00002026746400000000205B3830F1
S315000041B0322E31352E3420756E6974735D00000021
S315000041C0205B64426D5D00007B264E2026746820CD
S315000041D05B696E76616C6964206368616E6E656C9E
S315000041E05D7D0D0A00000000525353490000000097
S315000041F06D696E52535349006176675253534900B5
S315000042006D617852535349007B264E2026746420F4
S3150000421064426D7D0D0A0000434341205468726577
S3150000422073686F6C640000007B264E7D0D0A0000EB
S3150000423080B5002001F005FFBDE8014005F032BB66
S3150000424010B5DFF8CC40DFF8CC30607D1871012264
S31500004250E0694FF47A7105F0DCFC01001CBF012116
S31500004260217510BDDFF8A810C861887DDFF8A4109D
S315000042704871E5E770B58EB00C460CA805F0C0FC99
S31500004280054605F0F5FC064605F0B6FCBDF8361009
S315000042900FF24C02BDF830300B910A92059303954C
S315000042A00346BDF834100FF240020FF24405DFF862
S315000042B06C000991089201960095BDF832100FF234
S315000042C03802079106920FF238010FF23C02049170
S315000042D002922146DFF84020FDF725F90EB070BDA9
S315000042E0737573700000000063726974000000004B
S315000042F0616363656C0000006C696D690000000015
S3150000430074616C6B0000000075736564000000004A
S31500004310D4E70020FCEC002020430000A8B80100F0
S315000043206D6F6465000000002DE9F047064688467B
S31500004330924605F08EFCDFF85072F8700409387862
S3150000434018BF641E28B1386B07EB8000416A491C10
S3150000435041628C2EBE700FF24419DFF85C5243D0D6
S3150000436001F065FB66B1402E22D0882E18BF892E3B
S315000043704DD08C2E38D08D2E34D08F2E0CD03BE0E5
S315000043803869396A401C386164183C62287D002807
S315000043903DD040F23A5137E0B869396A401CB861FD
S315000043A064183C62287D002831D040F23F512BE052
S315000043B0F869396A401CF861641838783C6260B163
S315000043C005F05AFC032806D1786B401C7863386BDD
S315000043D080F00100386305F051FC287DB8B140F249
S315000043E04B5111E005F032FC7869401C7861287D5C
S315000043F068B140F2525107E03246DFF8B0150120AD
S31500004400FDF704FB40F263514846FDF717FB402ECB
S3150000441087F801A0C7F83C8019D13879012811DD49
S315000044203989491C3981411E39712A20C9B205F0E2
S3150000443031FCE86900224FF47A7105F0EAFB064682
S3150000444028B929E000212A2005F024FC03E0002EEB
S3150000445018BF8F2E1ED0787901281BDD401E798962
S315000044607871491C7981DFF84805017801290ADD50
S31500004470E969DFF84005814205D10278082A02DDA4
S31500004480C178491CC170688B03F0E1FDBDE8F047B7
S31500004490FFF7D6BE01202875BDE8F0877068792D34
S315000044A0636F6D6D6F6E2D74782D746573742E63E6
S315000044B00000000080B500F0CBFF00F019F8D0F83E
S315000044C0A01409E00000000080B500F0D6FF00F05F
S315000044D00FF8D0F8C01400BF02A0BDE80050FDF7E9
S315000044E022B800007B264E2026746464426D7D004F
S315000044F04FEA0003DFF8C40400A2704761637475D5
S31500004500616C506F776572003EB50446A1680D6810
S3150000451068B200F0AEFF01906BB200F02DF8D0F853
S31500004520B0140FF24400FCF7FEFF24A0FCF7FBFFDB
S315000045302046BDE83E40BDE73EB50446A1680D688D
S3150000454028B200F0A7FFCDF804002BB200F014F853
S31500004550D0F8D01404A0FCF7E6FF18A0FCF7E3FFA0
S315000045602046BDE83E40AFE77B264E2026746464B5
S31500004570426D202674647D000FF27C41DFF83C0416
S315000045800FF27C4200917047FCEC0020E0B5DFF8AA
S3150000459030140FF2A8420B8B0092019300F1110127
S315000045A00FF280420FF268403AE18168DFF810347A
S315000045B00A681A83EAE70000D4E700200D0A000023
S315000045C02DE9F14F84B081680A880192511E894114
S315000045D0C90F02914FF0010A01F01BFA00B1012048
S315000045E08DF801004FF0000BDFF8CC53DFF8D063F5
S315000045F06869DFF8D073ADF80200D8460198012843
S3150000460011D000F004F93878029921B10FF24C412B
S31500004610FCF730FB03E0019A76A1FCF72BFB00F0D8
S31500004620F0F800F0E9F8DFF88C43DFF89C9380227D
S3150000463049462046FCF796FFDFF874030178012906
S31500004640C4BF2078082819DD99F8011001F020016F
S3150000465041F0C1016170D0461821A170211802985D
S3150000466018B101F805BC002004E0019801F8050C1A
S31500004670019800122178611801F8040CD94662E00D
S3150000468000208DF8000069463878FDF798F900F0AB
S31500004690C3F85ED09DF800103878642906D100F082
S315000046A0A1F8049800F11101002007E0442907D180
S315000046B000F098F8049800F111010120FFF7DAFDE7
S315000046C009F10100DFF804131FFA80F9087820B118
S315000046D000F0C8FC08B105F0E3FA00F088F8DFF84E
S315000046E0D0120878A0B1B8F1000F18BF84F803A063
S315000046F0207803280CDD201800F803AC4FEA2A20A6
S315000047002178611801F8020C0AF101001FFA80FAFB
S31500004710002030750121A9702046FFF7A3FD8346CE
S31500004720B8B903F005FD8346307D50B9FFF780FD2B
S3150000473003F0FEFCA0EB0B0080B240F2D171884280
S31500004740F2D395F802B00298002899D101988145D4
S3150000475096DB38780FF22831DFF874424A46FCF7C8
S3150000476089FA707B38B1AA8ABDF80200121A387825
S315000047702146FCF77FFA38780FF220315A46FCF7CB
S3150000478079FADFF850020FF2303102883878FCF7F8
S3150000479071FA38780FF24031FCF76CFA697838789C
S315000047A0002914BF0FF24C310FF25031FCF762FAB8
S315000047B001F04CFB28B1AA6B387804F12401FCF710
S315000047C059FAEA6B387804F15001FCF753FA642081
S315000047D003F03DFC9DF8010008B101F045F805B075
S315000047E0BDE8F08F4A460FF29821FCF743BA308BAA
S315000047F003F02DBC2575000038780FF2F011FCF798
S3150000480039BA328B38780FF26021FCF733BA387830
S315000048100FF24021FCF72EBA9DF80000652870477C
S31500004820FCF781FE07BD38B500F03AF800F031F824
S3150000483018BF0124FCF71EFA01F0E9F801F09AFA14
S3150000484002E0287800F008F8FFF7E6FFF9D101F05A
S31500004850A2FA1AE09AF800006946FDF7B0B838B532
S3150000486000F01EF800F015F818BF0124FCF702FA54
S3150000487001F0CDF801F09EFA02E02878FFF7ECFF90
S31500004880FFF7CAFFF9D101F0ADFA0CB100F0ECFF69
S3150000489031BDDFF830510FF254110400287870470B
S315000048A000208DF8000001F0B4B82DE9F041DFF8E2
S315000048B014410FF2502120780FF258250FF24C28A0
S315000048C0DFF80471FCF7D6F9002615E0BA5D20780A
S315000048D04146FCF7CFF9711006EB91729210B6EBD8
S315000048E0820007D139788E4204DA2078324629468A
S315000048F0FCF7C0F9761CF6B23878401C8642E5DB38
S31500004900BDE8F0818068DFF8C0200168117070474B
S315000049102DE9F8430446DFF8AC50A068DFF8B890FC
S315000049200668DFF8A4700020761CF6B2802E00F12F
S31500004930010805DAA16801EB80004368BB5505E074
S3150000494028784346721E4946FCF794F940460428E7
S31500004950EADBBDE8F1831C481421017001214A1EDF
S315000049604254491C8029FAD3704710B512481B4B94
S315000049701B4C1C4A0021016141618161C1610162D8
S315000049801960216001814181116010BD80680C4968
S31500004990007828B1012202284A7302D1012001E0E1
S315000049A0487300201049087070470000F0B80100F5
S315000049B0F2EB002074F10020FCEC0020D4A10100F1
S315000049C0D4E7002080E70020F4F00020F3EB00207D
S315000049D024B9010042FF0020A4B9010038FA0020E2
S315000049E034FA002004FB0020BDEC00202765276E6A
S315000049F0642E2E2E0000000073746174757300001F
S31500004A00726571756573746564506F7765720000C1
S31500004A107B264E202674647573202674327875734F
S31500004A207D0000007472616E736D69742064656C3C
S31500004A306179202864656329000000007472616E44
S31500004A40736D69742064656C6179202868657829BE
S31500004A50000000005478696E67200000696E666980
S31500004A606E69746500000000207061636B65747385
S31500004A702025752075732061706172742E200000E8
S31500004A800D0A2575207061636B65747320747261FD
S31500004A906E736D69747465642E0D0A004C617374CF
S31500004AA0207061636B6574207374617475733A204A
S31500004AB030782532780D0A004C617374207061637A
S31500004AC06B6574206261636B6F66663A2030782589
S31500004AD032780D0A000000004672616D652070652F
S31500004AE06E64696E6720696E206C61737420414341
S31500004AF04B3A20005965732E0D0A00004E6F2E0D9D
S31500004B000A000000206C656E3A2000003078257897
S31500004B10200000000D0A307825783A2000000000B9
S31500004B20130018BF01231A46FFF7FEBB4901020016
S31500004B3003D4DFF88C0481547047DFF8883402F020
S31500004B400F021A4402F8041C704730B500F0070043
S31500004B500123C0F10704042C2EBF072403FA04F432
S31500004B60641EC51C072D34BF0020001F2140814054
S31500004B7003FA00F0401E1040084330BD0020704785
S31500004B800020704770471CB572B603F04DFCDFF885
S31500004B903804DFF838444169216000F0E1F9014644
S31500004BA06FF00B00FFF7C2FF00F0DAF901466FF075
S31500004BB00A00FFF7BBFF00F0D3F901466FF00900CA
S31500004BC0FFF7B4FF00F0C4F901466FF00800FFF7E5
S31500004BD0ADFF00F0BDF901466FF00700FFF7A6FF35
S31500004BE000F0B6F901466FF00600FFF79FFF00F0F0
S31500004BF0AFF901466FF00500FFF798FF002202218A
S31500004C0000F0A8F901466FF00400FFF78FFF00F0EF
S31500004C10ABF901466FF00300FFF788FF00F098F943
S31500004C2001466FF00200FFF781FF0022072100F026
S31500004C3091F901466FF00100FFF778FF00F094F953
S31500004C4001464FF0FF30FFF771FF00F08DF9014686
S31500004C500020FFF76BFF0022032100F07BF90146DD
S31500004C600120FFF763FF00F077F901460220FFF706
S31500004C705DFF00F071F901460320FFF757FF00F0D2
S31500004C8073F901460420FFF751FF00F06DF9014664
S31500004C900520FFF74BFF00F067F901460620FFF7F6
S31500004CA045FF00F061F901460720FFF73FFF00F0DE
S31500004CB05BF901460820FFF739FF00F055F9014678
S31500004CC00920FFF733FF00F04FF901460A20FFF7EE
S31500004CD02DFF00F049F901460B20FFF727FF00F0F2
S31500004CE043F901460C20FFF721FF00F03DF901468C
S31500004CF00D20FFF71BFF00F037F901460E20FFF7E6
S31500004D0015FF00F031F901460F20FFF70FFF00F005
S31500004D102BF901461020FFF709FF00F025F901469F
S31500004D201120FFF703FF00F01FF901461220FFF7DD
S31500004D30FDFE00F019F901461320FFF7F7FE00F01B
S31500004D4013F901461420FFF7F1FE00F00DF90146B4
S31500004D501520FFF7EBFE00F007F901461620FFF7D6
S31500004D60E5FE00F001F901461720FFF7DFFE00F02F
S31500004D70FBF801461820FFF7D9FE00F0F5F80146CA
S31500004D801920FFF7D3FE00F0EFF801461A20FFF7CF
S31500004D90CDFE00F0E9F801461B20FFF7C7FE00F044
S31500004DA0E3F801461C20FFF7C1FE00F0DDF80146DE
S31500004DB01D20FFF7BBFE00F0D7F801461E20FFF7C7
S31500004DC0B5FE00F0D1F801461F20FFF7AFFE00F058
S31500004DD0CBF801462020FFF7A9FE00F0C5F80146F2
S31500004DE02120FFF7A3FE00F0BFF801462220FFF7BF
S31500004DF09DFE00F0B1F801462320FFF797FE00F074
S31500004E00B3F801462420FFF791FE00F0ADF8014605
S31500004E102520FFF78BFE00F0A7F801462620FFF7B6
S31500004E2085FE00F0A1F801462720FFF77FFE00F07F
S31500004E309BF801462820FFF779FE00F095F8014619
S31500004E402920FFF773FE00F08FF801462A20FFF7AE
S31500004E506DFE00F089F801462B20FFF767FE00F093
S31500004E6083F801462C20FFF761FE00F07DF801462D
S31500004E702D20FFF75BFE00F06BF801462E20FFF7B2
S31500004E8055FE61684FF6FF00014041F0BF6141F4F5
S31500004E90013161604FF4E021E06840F40070E060A9
S31500004EA0E06840F01000E060E16104F066FF03F0A6
S31500004EB05BFFEFF30880001F45494FF0CD3201E05C
S31500004EC040F804298842FBD24249434889B202F09D
S31500004ED0F1F862B6414801214164026842F48072E9
S31500004EE00260684604F0E0FF9DF80100012803DC3B
S31500004EF09DF80000032809DB39483A4A3A4B4FF43B
S31500004F0018710160426043663849C1663848394ABB
S31500004F10016841F4F84101600120106004F0DEFFF1
S31500004F2005F010F90621684605F06CF901208DF8A8
S31500004F300300684605F040FB05F018FE03F010F983
S31500004F4005F032FE06F046F82B4806F085F813BD4C
S31500004F50FF22FF210420F8E5002201210420F4E5C8
S31500004F60002200210420F0E5002204210420ECE5C3
S31500004F7006F080B806F07FB804F090BE80B5002138
S31500004F800B2004F087FEBDE8014004F088BE80B522
S31500004F9003F02BFF014619480C2938BF00EB8100AE
S31500004FA002BD80B503F025FF15490204120E51F823
S31500004FB0223000F0FF0003EB800002BD000000007D
S31500004FC000E400E018ED00E00000000008ED00E05D
S31500004FD0C8DD002038100000A000002000000E40B0
S31500004FE08C420E409A6F05001801000400843208B6
S31500004FF0A4310E4010300E4058CE0100C8C9010041
S3150000500008CB01007047FEE738B5044604F042FEBF
S315000050100546DFF8EC0A83780178994211D000F052
S3150000502043F8641E07D0641E08D0A41E06D0A41E32
S31500005030032C03D905E00022194600E0002204F003
S31500005040F6FC284632BD10B5DFF8B83A4C000146EA
S31500005050986A224604F0F9FCA04201D0002010BD57
S31500005060012010BD80B500F01FF806F03AF800B137
S315000050700120C0B202BDDFF88C0AC07D00B101205C
S315000050807047DFF8802A0146107B002800D1704760
S3150000509080B5906A06F054F828B1BDE8044040F2A5
S315000050A09D1100F0DDBB01BDDFF8580A806A70472C
S315000050B080B5FFF7F9FF04F0BCFC00F003000328FD
S315000050C001D1012002BD002002BD80B5B0F5004F20
S315000050D008D14FF6FF70DFF8601A098800F0F8FE75
S315000050E0BDF80000DFF8181A4883002002BD2DE93C
S315000050F0F04F91464FEA501B88469A4600F01F0033
S315000051004FF0000CDFF82C2B01E00CF1010C937929
S315000051105FFA8CF1994237D291685FFA8CFE51F8AA
S315000051202E304FF0000E01E00EF1010EDC7E5FFA2C
S315000051308EF1A142E9D2D9695FFA8EF5142414FBE7
S3150000514005F549190E7A06F007065E45ECD14C7A4C
S31500005150A042E9DB4F780D78E619761B8642E3DB41
S315000051605FEA080203D0001B281888F800005FEAEF
S3150000517009001CBF0A7A89F800205FEA0A0018BFF6
S31500005180CAF80010184600E00020BDE8F08F40097C
S3150000519018BF40F01800704710B500F05DF8040025
S315000051A008BF00F002F8204610BD38B5DFF85449B4
S315000051B0A06A05F096FF0546E80744BFA06A05F019
S315000051C095FFE8031ED5E16ADFF8045B086A18B9A3
S315000051D04FF41A7100F030FDE06A016A486818B9A8
S315000051E040F26A2100F028FDE26A136AA06A5A6852
S315000051F00021904730B12846BDE8344040F26B218B
S31500005200FCF71CBC31BD3EB56846002100220023D8
S3150000521080E80E00DFF8E848A07A25788DF800507F
S31500005220002818BF022810D1DFF8D85800F00EF871
S3150000523058B1A86A0122002104F0FDFB00F006F82F
S3150000524018B14FF4287100F025FD37BD2179A86A01
S315000052506A4604F0A2BC00002DE9F043FF2889B09D
S3150000526006460AD1DFF8CC0981680A68D069467A11
S31500005270017A06F01F0646EA4116F5B205F01F0050
S315000052801B2847D20021019101AB6A46F0B2FFF715
S315000052902EFF5FEA00081CBF019800283AD0DFF80D
S315000052A06048DFF860782179F0B2884231D00B3D52
S315000052B0102D39BFDFF8440A0568DFF8441A0D6877
S315000052C0002D1CBF2878032824D0786C854214D082
S315000052D002A829460622FCF745F9B86A7D6402A9A8
S315000052E005F090FFB0B9B86A04A905F0A1FFB4F9BA
S315000052F01810B86A05F04BFF60B9386B0199C7F80A
S315000053002C80884208D19DF8000078732671FFF73B
S315000053107AFF80E08A2086E0A57ADFF8B49900F06B
S31500005320A3FA386B38B1B86A05F0DFFF18B140F25E
S31500005330D52101F0D3F8019801993863C8687863DC
S3150000534018B940F2DA2101F0C9F8D8F82000B96C92
S31500005350814219D018B940F2E12101F0BFF8D8F81E
S315000053602010086818B940F2E32101F0B7F8D8F820
S315000053702010B86A0A68904718B14FF4397101F0E5
S31500005380ADF8D8F82000B8645FF01C029DF8000064
S3150000539026A17873267102A8FCF7E4F8786B418A97
S315000053A00901C039ADF80E10417C09011439ADF878
S315000053B0161002A9407C0001ADF81A00E079401EE3
S315000053C08041C00F8DF82100787C8DF82200B86AE4
S315000053D005F054FF18B140F20F3101F07FF8B86ABA
S315000053E00122012106F001F818B14FF44D7101F0C8
S315000053F075F800F06FFCA08B00F084FCE08B00F0E9
S315000054009FFC207A00F04AFC00F069FD00F030FDB8
S31500005410284600F08FFA97F90E10B86AC9050914E4
S3150000542006F03AFA002009B0BDE8F083000000005B
S315000054300100000001010101640000006400000099
S31500005440000000000B000000DFF8440800797047F8
S3150000545010B500F012F8044600F00FF8002854BF0B
S3150000546005206FF0040000190A2190FBF1F040B20C
S3150000547010BD0A2110FB01F00CE0DFF88816087B4E
S3150000548000281CBF886A05F0A6BEDFF80418B1F92B
S315000054901800704710B5044600F5D77040F2772122
S315000054A0884201D38B2010BDDFF85826107B40B10F
S315000054B0906A214605F06BFE18B140F28A3100F081
S315000054C0E9FBDFF8CC070483002010BD10B50446C5
S315000054D000F015F8FF280FD02046FFF758FE58B900
S315000054E0A4F10B00102807D2DFF88019DFF8100AA4
S315000054F001FB0404204610BD4FF0FF3010BD38B547
S3150000550004460B38102839BFDFF8F0070068DFF8CB
S31500005510F017086888B10023002200212046FFF713
S31500005520E6FD50B104F01F051B2D06D22046FFF7FD
S315000055302EFE10B928460B2800DAFF2032BD704730
S31500005540C0B2704710F1590F01DA0020704710F110
S31500005550240F01DBFF2070475A300002362190FBF2
