S01D00006275696C642F64656275672F6F742D636C692D6D74642E733337A8
S21400000000100020490200004502000045020000E2
S214000010312C0000450200004502000045020000A9
S21400002045020000450200004502000045020000AF
S214000030450200004502000045020000450200009F
S214000040450200004502000045020000450200008F
S214000050450200004502000045020000450200007F
S214000060450200004502000005320000554700002A
S214000070450200004502000045020000450200005F
S214000080450200004502000045020000450200004F
S21400009045020000E107000045020000450200009E
S2140000A045020000E1080000B90800004502000013
S2140000B04502000045020000450200008171030071
S2140000C02571030021710300056A03007D7103009A
S2140000D029710300417103002D7103003956030096
S2140000E0C171030045020000450200004502000001
S2140000F045020000450200004502000045020000DF
S21400010045020000450200004502000045020000CE
S21400011045020000450200004502000045020000BE
S21400012045020000450200004502000045020000AE
S2140001304502000010B5054C237833B9044B13B1C3
S214000140044800E000BF0123237010BDEC1300201C
S21400015000000000B0CD030008B5034B1BB10349F7
S214000160034800E000BF08BD00000000F0130020B8
S214000170B0CD0300A3F5803A704700BF174B002BA5
S21400018008BF134B9D46FFF7F5FF00218B460F4631
S2140001901348144A121A2DF0CCF90E4B002B00D03F
S2140001A098470D4B002B00D09847002000210400F4
S2140001B00D000D48002802D00C4800E000BF2DF0CE
S2140001C031F9200029002CF047FF2DF005F900BF7B
S2140001D000000800000000000000000000100020E2
S2140001E0EC130020886100200000000000000000E2
S2140001F0042208B511460123032001F0CFFF00209A
S21400020008BD042208B511460023032001F0C6FFEE
S214000210002008BD08B52CF05BFEBDE80840FFF7DF
S214000220E7BF704705490A681318054883428CBF24
S2140002304FF0FF320B601046704700BF00100020E2
S21400024000800120FEE7000008B500F013F8064B1A
S214000250064A07498B4201D3FFF790FF52F8040B7A
S21400026043F8040BF6E700BF00100020B8CD0300EB
S214000270EC130020044B054A9A60D3F8882042F419
S2140002807002C3F88820704700ED00E00000000010
S214000290014B1868704700BF08100020014B18601B
S2140002A0704700BF08100020084B1B6F03F00703C1
S2140002B0022B04D0032B05D0012B05D0FEE7044B00
S2140002C018687047034BFBE7034870470080004000
S2140002D0081000200C100020002D310108B5FFF793
S2140002E0E3FF054B1B6FC3F301330133B0FBF3F0A1
S2140002F0024B186008BD00BF0080004004100020BC
S2140003000048704700B4C404014B1868704700BF2B
S2140003100C100020054B1860054B1B6F03F00703FD
S214000320032B01D1FFF7DABF704700BF0C10002087
S214000330008000400020704700487047002D3101C3
S214000340174B9868C0F304400C2822D8DFE800F06A
S214000350092121212121071719211B1D1F001148E2
S21400036070479B6803F04073B3F1807F13D0B3F1FE
S214000370007F12D00C4A002B08BF104670470B486F
S21400038070470B4870470B4870470B4870470B4840
S2140003907047002070470A4870470A48704700BFF9
S2140003A00040014A405DC60000093D000024F400FC
S2140003B0C0EA210180BA8C010048E801005A6202B6
S2140003C080841E0040420F004FF4004070474FF4F8
S2140003D07A707047014B1868704700BF10100020F5
S2140003E02DE9F04F9A46564B85B01B7806460F46C9
S2140003F01546DDF83C909DF844B0DDF85080002BA3
S21400040000F08D80072A00F28C800E9B002B00F0F7
S2140004108880B9F1000F00F08480129BB3F5006F5E
S2140004207FDC012802D1109B002B7AD0454B03EBD2
S21400043005131B7B002B76D0434C10220021684608
S2140004402DF077F804EB45141022002F59D13946C9
S21400045020462DF06EF843F210036380BBF1000FC8
S21400046003D1E37843F00303E370374A0E9B02EBB5
S214000470451CCCE90193129B6901013BC3F30A00BA
S2140004809DF84C30012E03F003034FEA836343EAE2
S214000490001E53582D48CDF800A000EA03004EEA8F
S2140004A00003535041D113230CF1100ECCF80C303E
S2140004B09CE80F008EE80F006FF00301DCF81C20AC
S2140004C0109B61F39F02012FCCF81C20CCF814304F
S2140004D003D1CCF81890CCF804300027194A29012B
S2140004E002EB051342F80180159A28465A606946C1
S2140004F022469F605E7301F0C9FE384605B0BDE82F
S214000500F08F002120462DF014F84FF444736380DA
S214000510BBF1000FA9D1E37843F03003A4E70C4801
S214000520ECE70C48EAE70C48E8E7B8F1000FD4D14E
S2140005309CF8023068F304138CF80230CDE700BF55
S2140005408815002008140020881400200F80FFF370
S214000550028000F0018000F0078000F038B5124BF2
S21400056005461B78DBB1E0B101F073FD0F4A0023AE
S2140005701146147B54B92B6001251A0101EB0313B5
S2140005801D738C5001F06BFD204638BD0133082BDF
S21400059002F11002EDD101F062FD0548F5E70548CD
S2140005A0F3E70548F1E700BF88150020081400208F
S2140005B0048000F0028000F0018000F0154B13B5B7
S2140005C01868002301908DF8043001F042FD124BAC
S2140005D01C7824B101F043FD104802B010BD012282
S2140005E01A7001F03CFD0E4B01A81C731C7783F8B3
S2140005F02C4083F83C4083F84C4083F85C4083F8FA
S2140006006C4083F87C4008238DF8073001F014FE18
S2140006102046E2E78073030088150020038000F080
S2140006200814002010B588B00E9C009207940D9C0C
S214000630024606949DF8304005940B9C04949DF861
S214000640284003940024CDE9013420460B46214679
S214000650FFF7C6FE08B010BD10B588B00E9C00921D
S21400066007940D9C024606949DF8304005940B9C1A
S21400067004949DF8284003940024CDE901342046D4
S2140006800B460121FFF7ACFE08B010BD0A4A08B5BC
S21400069012785AB107280BD8084A02EB00131B7BC6
S2140006A043B1002101F0BAFD002008BD0448FCE774
S2140006B00448FAE70448F8E78815002008140020E4
S2140006C0028000F0018000F0078000F00A4A08B5BA
S2140006D012785AB107280BD8084A02EB00131B7B86
S2140006E043B1012101F09AFD002008BD0448FCE753
S2140006F00448FAE70448F8E78815002008140020A4
S214000700028000F0018000F0078000F00A4A08B579
S214000710127852B107280AD8084A02EB00131B7B4E
S2140007203BB101F001FE002008BD0548FCE7054886
S214000730FAE70548F8E700BF8815002008140020EF
S214000740028000F0018000F0078000F00D4B1B785F
S21400075093B1072812D889B10B4B03EB00131B7B10
S21400076073B10A4BDA6A012303FA00F010401ABF8D
S21400077000200B70087070470548704705487047A2
S2140007800548704788150020081400200000044023
S214000790028000F0018000F0078000F00B4A10B5E0
S2140007A012780C4662B107280CD859B1084A02EBF9
S2140007B000131B7B43B101F0C9FD2060002010BD73
S2140007C00448FCE70448FAE70448F8E788150020E0
S2140007D008140020028000F0018000F0078000F07E
S2140007E02DE9F843174B1F6D5B6D1F4000D5FEE7E4
S2140007F001260025144CDFF85480DFF85490374269
S21400080017D02368C8F850609BB1A168284601310C
S2140008106268A1609847637B012B0AD148B909EB4F
S21400082045131A7B60F341021A731A7F60F3410284
S2140008301A770135082D4FEA460604F11004DED17A
S214000840BDE8F8830000044008140020002004409F
S2140008508814002070B504460125084E04B970BD02
S21400086094FAA4F0B0FA80F005FA00F324EA030440
S21400087056F82030002BF1D09847EFE78C15002073
S2140008804FF00072044BC3F880211A604FF080626C
S214000890C3F880211A60704700E100E038B50446CE
S2140008A00D4601F0D6FB034B43F82450BDE8384014
S2140008B001F0D5BB8C150020084BD3F82404D3F8E0
S2140008C0202403F50053104020F42A5020F02A007C
S2140008D04004400CC3F82004FFF7BCBF00C0034030
S2140008E0084BD3F82404D3F8202403F50053104013
S2140008F020F4AA4020F055000004000CC3F82004A1
S214000900FFF7A8BF00C00340024B1968024B1868E7
S2140009102FF07CBB18100020141000207047000039
S21400092037B5920004460D46019236F019FD431C79
S2140009300BD060B929462046019A2CF0C3FD00284A
S214000940044808BF002003B030BD0348FBE7034857
S214000950F9E700BF10E000F021E000F024E000F02E
S21400096013B5044601A801F0E5FD9DF80630012206
S21400097023804FF4807300206380054B9B680A3306
S21400098003F01F0302FA03F3636002B010BD00BF5A
S2140009900080E00F01F004BD08B501F0F5FC002072
S2140009A008BD10B5044644EA010313F003030846E5
S2140009B009D1934201D1002010BD54F8231040F80D
S2140009C023100133F5E7214692002CF08BFDF2E769
S2140009D010B5044636F0CCFC431C15D0B0B90C4B11
S2140009E020469B680A3303F01F020123934023F03E
S2140009F003032344984201D1002010BD50F8042B75
S214000A000132F7D00348F8E70348F6E70348F4E76F
S214000A100080E00F0EE000F021E000F024E000F09F
S214000A2008B501F00FFB014B186008BD601C0020E4
S214000A30014B186801F00ABB601C00200A46013909
S214000A40014402F0A5B8042203685A619A69920725
S214000A50FCD541F2AC52102103795B0103F18043CF
S214000A6003F5703399507047012203685A619A69FA
S214000A70D207FCD541F2AC52042103795B0103F1A5
S214000A80804303F5703399507047000038B141B188
S214000A90013AB2F5006F044838BF0020704703489B
S214000AA070470148704700BF037000F0027000F006
S214000AB038B504460D4601F0CCFAA3889BB223B99C
S214000AC02B6001F0CCFA064838BD142263889BB22E
S214000AD002FB034408342C6001F0C1FA0020F3E75F
S214000AE00B7000F0F7B504461646019101F0B1FA16
S214000AF0A388E2889BB29A420546019906D800234D
S214000B00336001F0ACFA124803B0F0BD1427208819
S214000B103A4680B207FB004008302CF0E3FC2388FE
S214000B20E2889BB207FB03430833336023882846DA
S214000B309BB20133B3FBF2F102FB11339BB223806D
S214000B40A38801339BB2A38001F089FA0020DBE77B
S214000B500A7000F090F83130022B0BD13023427F20
S214000B6090F821005A43044B9B5823FA00F000F0FB
S214000B70010070470020704714C00340002313B5DF
S214000B801D4A52F8044B94F8211081420ED00133CE
S214000B90042BF6D102B010BD0028FBD19DF807301B
S214000BA0002BF7D0A068FFF771FDF3E794F831301B
S214000BB0022BEFD12046FFF7CDFF637E2076022B77
S214000BC0E8D194F82E3003F0FF02002BE2D1A068A3
S214000BD00DF107018DF80720FFF7B8FD237E1BB146
S214000BE094F82F30002BD7D00023A06884F82F303D
S214000BF0FFF76CFDCEE700BF141D002030B50124C2
S214000C0090F8325087B080F82C4095B9426B036854
S214000C1022444263094A0490CDE902524A682433CA
S214000C20CDE900420A684169C068FFF715FD07B0C4
S214000C3030BD002380F82C30F9E700BF69130000B0
S214000C4030B5012490F8325087B080F82D4095B921
S214000C50436B026823444363094B0490CDE9025377
S214000C604B683C32CDE900430B6801698068FFF7AA
S214000C70D9FC07B030BD002380F82D30F9E700BF5F
S214000C80CD0C000038B504460D4601F0E2F9A38805
S214000C909BB223B92B60BDE8384001F0E0B91422BE
S214000CA063889BB202FB034308332B606388E288A9
S214000CB09BB20133B3FBF2F102FB11339BB26380AC
S214000CC0A388013B9BB2A380E5E70000F7B5144676
S214000CD0906A01A9FFF7ECFE636B013B6363154B5B
S214000CE0984220D00026019B1E619E6001F0B1F95B
S214000CF0019A0546D76827B1D2E900233146204637
S214000D00B847A06A01A9FFF7BDFFA06A83889BB217
S214000D1063B101A9FFF7CCFE20460199FFF790FFCB
S214000D20284601F09CF9012003B0F0BD84F82D3070
S214000D30F6E700BF0B7000F02DE9F3410D460446C0
S214000D40002800F0868001F084F9012D064637D190
S214000D50A36A9B889BB2002B39D0A068FFF7D6FC0D
S214000D600023A06A84F82D3083889BB2002B34D1F0
S214000D70226893699B04FCD5023D012D1BD8E068D0
S214000D80FFF7C4FC0023606A84F82C3083889BB28B
S214000D90002B41D194F83130032B0CD042F2AC52E8
S214000DA0042123795B0103F1804303F570339950E6
S214000DB0022223685A61304601F051F9002009E00A
S214000DC0022D48D1636A9B889BB2002BD7D101F0D5
S214000DD046F9264802B0BDE8F08101A9FFF768FE93
S214000DE00199A0680831FFF7D9FC214F019B1F61CC
S214000DF0A06A83889BB2002BBAD001A9FFF742FFF6
S214000E00019BD3F80C80B8F1000FF1D000223946D0
S214000E1020469B68C047EBE76946FFF749FE009906
S214000E20E0680831FFF7BAFC114D009B1D61606A4F
S214000E3083889BB2002BADD06946FFF723FF009B4B
S214000E40DF68002FF3D00022294620469B68B8476B
S214000E50EDE70848BEE7032D8ED1A36A9B889BB2B8
S214000E60002B7FF47AAF636A73E700BF087000F068
S214000E70097000F0027000F00368986970472DE969
S214000E80F341984600230546406A0E468488174676
S214000E90A4B2CDE900333CB16946FFF709FE01A9CB
S214000EA00446E868FFF77AFC009B6BB164B95A68A1
S214000EB001991B68521A3A60C8F8001033602B6814
S214000EC0986902B0BDE8F0810023C8F800303B60A6
S214000ED0F4E7836A9888C0B270472DE9F04104466B
S214000EE09046FFF7D3FD0D46064670BB152001F071
S214000EF0C7F80746A26A93889BB213B194F82E30BF
S214000F0033B323689F6917F0020702D12046FFF724
S214000F109AFD012384F8303094F8323033B9A8446F
S214000F204545206819D183699B06FCD56FB942F206
S214000F30AC52102123793E465B0103F1804303F552
S214000F4070339950082223685A613046BDE8F08114
S214000F50002FD0D0FFF744FCCCE715F8011B01F0BA
S214000F600BFCDDE710B5044680B190F82E302BB9A7
S214000F70FFF7F0FD10B9A068FFF788FB002094F893
S214000F802E300133DBB284F82E3010BD0048FCE76B
S214000F90027000F010B50446A0B190F82E309BB158
S214000FA090F82E30012B05D1FFF7D4FD10B9A068BC
S214000FB0FFF78CFB002094F82E30013BDBB284F860
S214000FC02E3010BD0148FCE70148FAE7027000F039
S214000FD0057000F037B590F831500446022D1DD14B
S214000FE0012290F82230457E817F9A403020164BB1
S214000FF025B900FB013342F2100105E0012D07D1AF
S21400100000FB013341F210015A50002003B030BDFE
S214001010247E00FB0133002CF4D1ECE7012DF4D143
S214001020037E73B911238DF80730FFF79BFF2A461E
S21400103020460DF10701FFF750FF2046FFF7AAFFF5
S214001040E3E71323EFE700BF00C00340F0B5044614
S214001050A14F8BB003AE0D460FCF0FC697E8070023
S21400106086E807001CB99D4C20460BB0F0BD0DB9B4
S2140010709B4CF9E73822002120462CF05AFA002330
S214001080984963630A78984B2AB9C3E90022C3E9F2
S214001090022201220A7094490022084650F8046B86
S2140010A0B4420AD00132042AF8D1002251F8040BC7
S2140010B0002840F0D28043F822402B7D84F831305F
S2140010C00023286884F8323020602B7B2371874BFE
S2140010D0984240F0C780212384F82330844B236154
S2140010E04FF4802300266361D5E9072362621680E9
S2140010F05680968084F82C60A3621E805E809E8058
S2140011006B6884F82D600593EB8984F82F60ADF842
S2140011101C302B8A03A9ADF81A30AB7C8DF80C6016
S2140011208DF81830EB7C8DF81E3005238DF81930BD
S21400113001F0A6FA14212A7B6E4B03EB4217C7F880
S214001140AC15287AA97A2E3240EA014C03EB4213FA
S214001150C3F804C06A7AEB7A42EA034CC7F8BCC507
S214001160E076E177227784F820306B7D042263777F
S214001170AB7D84F82130EB7DA3772B7E84F822307C
S214001180012301F00BF80123022294F82010207F9F
S21400119001F004F894F83130022B7AD1334601225C
S2140011A094F82110607F00F0F9FF3346042294F88B
S2140011B02210A07F00F0F2FF012394F82120CDE951
S2140011C000331146607F00F08FFF00F042FF2B7D5A
S2140011D00646032B6ED141F2AC5202212B7B5B01FB
S2140011E003F1804303F57033995004212A6802F511
S2140011F08052D165297EEA7D42EA014241F2B85129
S2140012005A50A97D6A7D42EA014241F2B4515A50D1
S2140012104FF0FF32286800F500539A642B7D032BAD
S2140012200CBF0521042101F0E5F94FF440622B685C
S2140012305A61FFF7C3F9002104F10800FFF78EF9A1
S214001240014628B904F10C00FFF788F9044600B1FE
S214001250294C304600F003FF06E70132042A7FF4EB
S21400126025AF00E7254B984207D1222384F8233088
S214001270234B23614FF4A02334E7224B98427FF49C
S214001280F7AE232384F823301F4B23614FF4C0238B
S21400129028E7032B99D1334694F82110607F01226A
S2140012A000F07CFF3346042294F82210A07F00F062
S2140012B075FF8AE7022BABD194F821001349FFF79C
S2140012C0EDFAFFF7DDFA4FF4007323830023204680
S2140012D0A376FFF77FFE9BE7A8730300027000F07B
S2140012E0037000F0241D0020141D0020008005401F
S2140012F00200040000C003400E7000F000C005406D
S2140013000200050000000640020006007D0B0000FB
S214001310F0B587B005461646FFF7B8FB0446E8B9B1
S2140013200493104BCDE901166A46686A01A9039634
S2140013300593FFF7D7FB044680B995F82C306BB9B8
S2140013402846FFF791FB0099FFF758FC95F83130D7
S214001350032B03D028462C76FFF73CFE204607B02A
S214001360F0BD00BF017000F073B51446506A01A9C5
S214001370FFF79EFB636B013B63632F4B984230D0B5
S21400138094F83200019A002839D12368996C11F438
S214001390007129D02949906011614FF4007203F55D
S2140013A000539A6400F055FE01990646CD6835B1A3
S2140013B04A688B682046D31A0A680969A847606A93
S2140013C001A9FFF75FFC606A8588ADB2DDB101A9AF
S2140013D0FFF76EFB20460199FFF710FC304600F041
S2140013E03EFE012002B070BD986CC00507D51448BB
S2140013F09160106103F500534FF48072D1E700232B
S21400140013619360CEE7012320462376FFF7E2FDC3
S21400141094F8313084F82C50032BDFD042F2AC52D3
S214001420042123795B0103F1804303F5703399505F
S214001430022223685A61D1E70B7000F00D7000F0AD
S2140014400C7000F0F0B587B004461646FFF71EFB9A
S214001450054638BB0493154B039605932368CDE9E0
S21400146001169B699B0702D42046FFF7ECFA6A46F2
S214001470A06A01A9FFF736FB054698B994F82D3007
S21400148083B900F0E6FDA36A06469B889BB233B19B
S21400149020460099FFF7D4FB012384F8303030460D
S2140014A000F0DDFD284607B0F0BD00BF017000F07B
S2140014B02E4B98424AD022D82D4B984240D014D872
S2140014C02C4B984239D00AD82B4B984232D02B4B13
S2140014D098422FD02A4B98422CD000207047294B98
S2140014E09842FAD1284B186F7047284B98422AD05A
S2140014F0274B9842F1D1244BD3F880007047254BF8
S21400150098422BD009D8244B984223D0234B98429C
S214001510E3D11D4BD3F88C007047214B984221D065
S21400152003F5740303F510539842D6D1164BD3F83F
S21400153098007047144B986D7047134B586E704761
S214001540114B586F7047104B986F70470E4BD3F87F
S214001550840070470C4BD3F8880070470A4BD3F8CA
S21400156090007047084BD3F8940070470048E80195
S2140015700024F400C0CF6A0080841E0000093D00ED
S21400158040420F00405DC6000080E00FC0EA210127
S21400159080BA8C01007E560380D54302006CDC02C4
S2140015A00090D00338B5124B0546D3F820310C46D0
S2140015B003F00703013B032B17D8DFE803F0020A0A
S2140015C00E12FEF765FE042305B1286004B12370F1
S2140015D038BDFEF799FE0323F6E7FEF7B1FE0523B6
S2140015E0F2E7FEF7A9FE0223EEE700231846EBE734
S2140015F00080004037B50C460021124A0191D2F80F
S2140016008021054602F00302022A0ED0032A11D0DA
S214001610012A14D101A8FFF7C5FF0D230DB1019AC9
S2140016202A6004B1237003B030BDFEF789FE05239F
S2140016300190F3E7FEF780FE02230190EEE70B46EB
S214001640ECE700BF0080004038B5104B0546D3F8E5
S21400165040310C4603F00303022B0BD0032B0DD0B6
S214001660012B0FD1FEF7B0FE082305B1286004B1A8
S214001670237038BDFEF7AEFE0723F6E7FEF7A7FE9B
S2140016800923F2E700231846EFE700BF008000407A
S21400169038B5104B0546D3F860310C4603F003030B
S2140016A0022B0BD0032B0DD0012B0FD1FEF78CFE97
S2140016B0082305B1286004B1237038BDFEF78AFE02
S2140016C00723F6E7FEF783FE0923F2E70023184612
S2140016D0EFE700BF0080004038B5134B0546D3F84F
S2140016E000320C4603F00703013B032B18D8DFE853
S2140016F003F0020A0E12FEF767FE082305B1286003
S21400170004B1237038BDFEF765FE0723F6E7FEF743
S2140017105EFE0923F2E7FEF7E1FD0C23800AEDE703
S21400172000231846EAE700BF0080004038B5134B98
S2140017300546D3F808320C4603F00703013B032B9B
S21400174018D8DFE803F0020A0E12FEF73DFE082363
S21400175005B1286004B1237038BDFEF73BFE0723B1
S214001760F6E7FEF734FE0923F2E7FEF7B7FD0C2393
S214001770800AEDE700231846EAE700BF0080004035
S21400178038B5104B0546D3F840320C4603F0030339
S214001790022B0BD0032B0DD0012B0FD1FEF714FE1E
S2140017A0082305B1286004B1237038BDFEF712FE89
S2140017B00723F6E7FEF70BFE0923F2E70023184699
S2140017C0EFE700BF0080004038B5104B0546D3F861
S2140017D000310C4603F00303022B0BD0032B0DD075
S2140017E0012B0FD1FEF790FD032305B1286004B14D
S2140017F0237038BDFEF7EEFD0723F6E7FEF79AFDE9
S2140018000623F2E701230020EFE700BF0080004038
S21400181041F671330F4A10B5D169D36393680E4C05
S21400182023F44013A04288BF43F4801393600B4A0E
S2140018300B4CD2F81832A04223F0020388BF43F0C4
S214001840020301F48031C2F8183211B10022014BB4
S214001850DA6310BD00000340C017530200C0074003
S21400186080F0FA0208B5FEF74BFDBDE80840FFF72A
S214001870CFBF0000032814D005D8012805D00228C1
S21400188009D0002005E00F28FBD1084B186FC0F3E5
S214001890013001307047054BD3F89000C0F3046068
S2140018A0F7E7024B186FC0F38020F2E70080004095
S2140018B01FB500230293252817D8DFE800F0131A77
S2140018C01D262B353A51565B60656A78161A3F1608
S2140018D016561A262B26351A5126783A3A3A3A26BA
S2140018E026265B60FEF7E0FC0290029805B05DF8E5
S2140018F004FBFEF7F3FCF7E7FEF7D6FC02460220F1
S214001900FFF7B8FFB2FBF0F0EEE7FEF7E7FC0246A3
S2140019100320F5E7FEF7E2FC02460320FFF7AAFFE6
S214001920B2FBF0F04008DFE7002102A8FFF762FEF6
S214001930DBE7002102A8FFF735FED6E703934FF05A
S214001940E0231B695B0705D5FEF7C8FC0390039BE5
S2140019500293CAE70DF1070103A8FFF775FEF6E745
S214001960002102A8FFF770FEBFE7002102A8FFF7DC
S2140019708FFEBAE7002102A8FFF7AEFEB5E700210A
S21400198002A8FFF7D3FEB0E7002102A8FFF71CFF6E
S214001990ABE7094BD3F8803003F00303022BA8D043
S2140019A0032B01D000209FE7FEF7CAFC9CE700212E
S2140019B002A8FFF7E5FE98E700800040032810B570
S2140019C00C4626D004D8012804D0022816D010BD14
S2140019D00F28FCD1FFF746FF00F026F8114B013C1C
S2140019E0196F21F4405141EA04341C67FEF776FC77
S2140019F0FFF70EFFBDE8104000F01AB8094B013C97
S214001A00D3F8901021F0F85141EA0464C3F89040EE
S214001A10DDE7044B013C196F21F4806141EA842420
S214001A201C67D4E70080004002210320FFF7C6BFF2
S214001A3008B50120FFF73CFFBDE80840034988428F
S214001A408CBF022101210320FFF7B8BF80F0FA0205
S214001A50002307B58DF80230252822D8DFE800F0ED
S214001A6013212121212C324C52585E646A7D21219B
S214001A7038212152212121212C214C217D32323244
S214001A8032212121585E384B1B6F03F00703013BC0
S214001A90032B06D8DFE803F00E020A0C04238DF8A9
S214001AA002309DF8020003B05DF804FB0323F6E75E
S214001AB00623F4E70223F2E700200DF10201FFF708
S214001AC099FDEEE700200DF10201FFF76BFDE8E758
S214001AD001934FF0E0231B695B0707D5FEF7FEFB7B
S214001AE00B238DF803309DF80330D8E70DF1030182
S214001AF001A8FFF7A9FDF6E700200DF10201FFF7A8
S214001B00A3FDCEE700200DF10201FFF7C1FDC8E7F7
S214001B1000200DF10201FFF7DFFDC2E700200DF106
S214001B200201FFF703FEBCE700200DF10201FFF7FC
S214001B304BFEB6E70C4BD3F8803003F00303022BC2
S214001B4003D0032B05D00023A9E7FEF7C7FB0B2322
S214001B50A5E7FEF7F5FB0523A1E700200DF102013E
S214001B60FFF70EFE9DE700BF0080004070B50C46F4
S214001B70252847D8DFE810F0260046004600460035
S214001B8046005A006B009C00AD00BE00CF00E0008F
S214001B90F1000201460046007C0046004600AD000B
S214001BA046004600460046005A0046009C00460096
S214001BB002016B006B006B006B004600460046009F
S214001BC0BE00CF008B1E042B2DD8DFE803F0291CA7
S214001BD0032C260000250226FFF744FEFFF724FF0D
S214001BE06F4A136F23F0070333431367FEF776FB42
S214001BF0FFF70EFEFFF71CFF25B9032C02D10122CA
S214001C00684B9A6270BD0122674B03269D6A03F5F6
S214001C108053C5F340059A62DEE700250426DBE71D
S214001C2000250126D8E700252E46D5E78C1EE4B20F
S214001C300B2C8CBF00215D4B594A98BF195DD2F81A
S214001C40803123F003030B43C2F88031DAE78C1EA1
S214001C50E4B2032C8CBF0021554B514A98BF195D46
S214001C60D2F8203123F007030B43C2F82031C9E72E
S214001C700B2912D00ED8CC1F022CC3D84D4A536A5B
S214001C8043F0010353624FF0E022136923F004038C
S214001C901361B7E70E29B5D1F0E7464A536A23F039
S214001CA0010353624FF0E022136943F00403EFE7A9
S214001CB0CC1FE4B2022C8CBF00213F4B384A98BFA1
S214001CC0195DD2F8403123F003030B43C2F84031CC
S214001CD098E7CC1FE4B2022C8CBF0021374B304A69
S214001CE098BF195DD2F8603123F003030B43C2F8A6
S214001CF0603187E7CC1FE4B2052C8CBF0021304B47
S214001D00274A98BF195DD2F8003223F007030B4329
S214001D10C2F8003276E7CC1FE4B2052C8CBF002157
S214001D20284B1F4A98BF195DD2F8083223F00703E4
S214001D300B43C2F8083265E7CC1EE4B2042C8CBF15
S214001D400021214B164A98BF195DD2F8003123F0C6
S214001D5003030B43C2F8003154E705290CD00B29C6
S214001D6014BF002102210E4AD2F8803023F003036C
S214001D700B43C2F8803045E70321F4E7CC1FE4B2FA
S214001D80022C8CBF0021114B054A98BF195DD2F872
S214001D90403223F003030B43C2F8403232E700BF61
S214001DA00080004000E0004000C00040C473030014
S214001DB0D073030000C00740D4730300D47303003D
S214001DC0D7730300D7730300DD730300D4730300D7
S214001DD038B50546FFF76CFB204B04465A68012AC7
S214001DE004D11F494A609A699207FCD10020FFF788
S214001DF02FFE042803D1FFF735FDFFF715FE194A1D
S214001E0024F04073954220D0174A954220D0174AB6
S214001E10D16811F0060FFBD190689360916803F4C7
S214001E20F81301F4F8118B4215D12846FEF736FA5E
S214001E300020FFF70DFE04280FD1FEF74FFAFFF73C
S214001E40E7FCBDE83840FFF7F3BD43F00073DEE77C
S214001E5043F08073DBE79060EAE738BD00C00140DE
S214001E6000E0014040420F0080841E000000014058
S214001E7070B504460020FFF7EBFD032877D045F643
S214001E800E0302223F49C1F880303F4B9A6201227E
S214001E9003F580539A628A6D12F48032FBD1637820
S214001EA020781B0543EA0063A079257C0343E0788D
S214001EB0667C43EA0043207943EA0033607943EACC
S214001EC080130B618B69E07A03F000430343E079EB
S214001ED043EA8063207A43EA0063607A43EA004379
S214001EE0A07A43EA00238B61637B096A002B18BF44
S214001EF00822207B21F00D0143EA010343EA800318
S214001F0042EA03021F49A37B0A624FEA43132FD11A
S214001F10886AE27B20F0330043EA0213034343F06F
S214001F2001038B62194B8A6D33EA0202FBD102224F
S214001F30154B9A628B6D5B00FCD44FF0004208692B
S214001F40A37820F4700040EA03500F4B08619A61B2
S214001F501DB9022203F580539A6216B901220C4B72
S214001F609A62A37C1BB1074B0A4AC3F8802070BD57
S214001F708A6A22F033023243134343EA45038B62F4
S214001F80EFE700BF00C0004000D000400300014063
S214001F9000E00040F1A7FFFF014B93F900007047F7
S214001FA0251D0020F0B54FF4D1560227174A417878
S214001FB08478C37805785662154E4F2977604FF0BF
S214001FC0010728BF4F2106F5805677601669F6038D
S214001FD0FCD441EA052151611B01417943EA0423FF
S214001FE00B43017943EA41039360C37981791B016E
S214001FF043EA4113417A0B43017A43EA41035360B3
S214002000837A13B16FF4D1535362F0BD00000240DF
S21400201000100240014B1880704700BF38100020A7
S2140020200028ABBF00F16040054B00F5614000F0B2
S2140020300F00ACBF90F80003185C0009704700BFA3
S21400204014ED00E0EFF3108072B6704700B962B688
S2140020507047EFF31180302383F31188704780F3C5
S21400206011887047054B420953F8223000F01F00D4
S21400207023FA00F0C04300F00100704700E100E0E2
S214002080014608B5EFF31083DB0702D501221046A0
S21400209008BDFFF7E7FF02460028F7D10846FFF71E
S2140020A0BFFF0146EFF3118313B1B0EB131FEDD260
S2140020B0074B5B68C3F30803002BE8D0103B58B20D
S2140020C0FFF7AEFF88428CBF00220122DFE700BF89
S2140020D000ED00E04FF04022D36E017923F030038C
S2140020E00B43D36670470000072A2DE9F0470546E4
S2140020F00C461646994624D84FF00308214F4FEA5F
S214002100820AFFF79FFFD7F8003405FA0AF55D400C
S21400211008FA0AF805EA08055D40C7F80054FFF714
S21400212095FF04F00304FFF78DFFD7F8083404FA90
S2140021300AF45C4004EA08045C40C7F80844FFF769
S21400214085FF114A114B9DF82010B9F1000F08BF0A
S2140021501346012202FA06F61E600D4A0D4B0029B0
S21400216008BF13461E600C4B9DF82410C3F820646D
S2140021701032A3F6DC33002908BF13461E60BDE804
S214002180F08700BF00C0034010E4034010D40340B3
S21400219014E4034014D4034000E00340F0B54AB111
S2140021A0012530261C4C8D4006FB00440BB341F243
S2140021B01006A55130244443072904F1804404F551
S2140021C0703419D80F2765688E00B74025EA0705D2
S2140021D002FA06F63543656052B90122302402FA47
S2140021E001F10D4A04FB00209BB141F21003C150DF
S2140021F0F0BD42F21006DCE70F27A1F10805E668FD
S214002200AD00AF4026EA070602FA05F53543E5605D
S214002210E2E742F21003EAE700C00340044A054B37
S214002220002918BF1346012202FA00F01860704712
S214002230402004404010044030B50478457881784A
S214002240C27801200F4B41EA0541240658609C6085
S2140022509961FF2199620021996319644FF000414A
S21400226059654FF0FF314FF4001003F50053196520
S21400227005491301DBB2C1F8800181F81533086007
S21400228030BD00BF0000044000E100E02DE9F04151
S21400229001250C464FF0300EC3B29D40CB7A1E4E41
S2140022A04FEA035823688F7A94F80DC0097B46F8E6
S2140022B02030A6F580460EFB006048EA074343EA56
S2140022C04153C0F860C0C365144B22F00302026796
S2140022D01D65FFF7BEFE736D2B437365237A13B13E
S2140022E0336C2B433364637A13B1B36B2B43B36302
S2140022F02279A37943EA0243084A93616179E37934
S21400230043EA014306498B61064B55639D64BDE86D
S214002310F041FFF7A4BE00BF004004400020044088
S214002320001004400000044010B50124C0B28440F0
S214002330FFF78FFE044B5A6D22EA04025A659C6230
S214002340BDE81040FFF78BBE00000440F8B501253D
S214002350C3B204469D40FFF77CFE3022094B1E6D3B
S2140023605F6B02FB04335C6EFFF779FE3D4206D1DD
S214002370C4F30A1008B9354200D10130F8BD002078
S214002380FCE700BF0000044041F67132034BDA63FD
S214002390012203F50053DA60704700BF00000340D7
S2140023A041F671320121044BDA6303F50052D16025
S2140023B00022DA63704700BF000003404FF400328B
S2140023C0014B1A67704700BF005000404FF0402393
S2140023D0D3F8940070474FF090435A6812B19A6A47
S2140023E0002AFAD170470000CB784A7810B55B0116
S2140023F00C7843EA82030A79234343EA02130C2249
S214002400424302F190421363012C02BF8A78024BCA
S21400241043F8202010BD00BFD080034008B54FF021
S21400242090435A6802B960B15B680BB1FFF7D3FFFF
S2140024304FF0904130B10120074B5860FFF7CBFFBB
S214002440C86008BDFFF7C7FF0223CB60FFF7C3FFD6
S2140024500122024B5A60F4E70010004800200048B2
S2140024604FF090435B6870B50BB1FFF7B4FF0121E6
S214002470104B4578596083780679002BC37814BFD3
S21400248002240024002B14BF042200224379DB0020
S21400249043EA06132B43234313434FF090429360C3
S2140024A0054B59600378002B14BF0B460223D360FC
S2140024B070BD00BF0020004800100048436813B9F4
S2140024C0416070475B685A68012AFBD159607047C3
S2140024D0836813B9816070475B685A68012AFBD12C
S2140024E059607047C369032B9FBF00EB830201331B
S2140024F0D160C3617047C369042B15D84FF098426A
S214002500116CC902FCD504339B0013650168103BAF
S214002510116041680C30116050F8041C03441160CF
S2140025204FF09842984200D1704750F8041B116053
S214002530F8E70000054B5B69C3F38512827003F071
S2140025403F021B0B42700370704700BF00C007407D
S2140025500D4B984208D1A3F50033C3F88411C36D20
S21400256043F08003C3657047084B984204D1A3F537
S2140025701033C3F89411F2E7054B984204BFA3F555
S2140025802033C3F8A411EAE70080054000C00540E8
S2140025900000064070B5054616461C4619B90320CD
S2140025A0FFF786F90146402C1BD003D8DCB1202C5F
S2140025B01BD070BD602CFCD1042303FB06F256082A
S2140025C006EB4113B3FBF2F3094A203B02EAC303CE
S2140025D0AA6822F06002AA60AA681443AC60EB61A5
S2140025E0E7E70623E9E71023E7E70823E5E700BF68
S2140025F0F8FF7F00012200F580535A60CB439340DA
S21400260003F00A034361416111B900F500504260CE
S21400261070470000012200F5805310B55A6040F65E
S214002620AA6341F205024361002312498360C36531
S214002630C26000F500520361C361C36491640E4931
S2140026408365884206D00D4CA04203D004F5804432
S214002650A0420BD18842036506D0084B984203D0AF
S21400266003F58043984201D100234365012353605C
S21400267010BD00BFFFFF01000080054000C0054000
S21400268070B50D46FFF7C6FF012300F58056736050
S214002690AB7C04461BB1836843F080438360EB7CCD
S2140026A01BB12046297DFFF753FF2A8A6B7B204605
S2140026B01343EA891343E3602B7BD5E90112FFF746
S2140026C069FF6B7D1BB1A36843F48033A360AB7DC9
S2140026D0EA7D1B07120502F4E00203F0E043134311
S2140026E0A3652A7E931E012B214B20D89C421AD02C
S2140026F003F580439C4218D003F580439C420CBFF0
S21400270002234FF0FF3341F2AC5102205B0103F18C
S214002710804303F570335850032A23D10423F3650E
S2140027202B78636170BD0023EDE70123EBE79C4245
S21400273014D0104B9C4213D003F580439C420CBF30
S21400274002234FF0FF3342F2AC5102205B0103F14B
S214002750804303F570335850012ADEE70023F2E782
S2140027600123F0E7042204F50053DA65D8E700BF3A
S2140027700080054000C0054083695B06FCD5C16348
S2140027807047000038B50446054D2EF011FD0FCCFD
S2140027900FC594E80F0085E80F00002038BD00BF85
S2140027A0281D002047F6FF739A42F0B55ED0032935
S2140027B05ED8304ECF0016F8313006EBC100012B44
S2140027C085780DD1C3785B1B23B1416831F91310AE
S2140027D0914202DCE818C0B2F0BD013B1BB2F3E741
S2140027E040680028F8D0B0F90030934204DBB0F916
S2140027F002309342B8BF134682883E44FF2A19BF70
S214002800C8242821B0F90640B0F90810A4EB030448
S2140028100CBF0122002294FBF1F47678224414B215
S214002820721EA242A8BF22464FF47A7700EBC2047B
S214002830E188A468013213FB014112B221EAE1717A
S21400284001F5FA71B242B1FBF7F104DA00EBC2040B
S214002850A4888C42EAD200EBC20232F8040C88420A
S21400286028BF0846A84238BF2846B4E7FF20B3E78B
S2140028700020B1E7281D00200329F0B554D82B48C6
S21400288000EBC10310F831105C6801290FD198786D
S214002890D978914294BFC0EB0103C0EB0203091A3A
S2140028A0DBB28B42C8BF002334F91300F0BD002C06
S2140028B03AD09978914202D3B4F90200F6E7D97873
S2140028C0B4F900009142F1D9A1885B78FF294FF056
S2140028D0000114BF03F1FF33023BDBB2251D04F1F8
S2140028E00C071FFA82FCCEB2B34216D805EBC10124
S2140028F04FF47A756A43B1F902304968521A03EB0D
S214002900D37102EB610292FBF3F29042CEDBB4F994
S21400291002009042CADC10B2C8E737F831E04E1C1D
S214002920E645E3D33146DEE70148BFE7281D002031
S2140029300080FFFF08B50448FFF724FFBDE8084005
S21400294001202EF07FBC00BFE47303007FB5022297
S214002950084B0949CDE901234FF00073CDE9031375
S214002960052301A94FF0FF3005932EF047FD07B071
S2140029705DF804FB006A180000020400002307B597
S214002980CDE90033012369464FF0FF308DF8023061
S2140029902EF0E2FB03B05DF804FB4FF0402213B5C7
S2140029A00024536F684643F00103536700948DF884
S2140029B00440FFF78FFB204602B010BD08B5024862
S2140029C0FFF706FA002008BD00B4C40470B586B050
S2140029D001AA1546184B03F11006144618685968E4
S2140029E0083303C4B3422246F7D119889B78218066
S2140029F0A370124BD3F84C21120314D4D3F85041D1
S214002A00E4B28DF80E40FFF7C7FA204480F30800C2
S214002A108DF80D000A48FDF77DFC2846FFF728FADA
S214002A20002006B070BD074B1C884FF6FF739C4213
S214002A3008BF8124E5E700BFD07403000080E00FE4
S214002A4000F049020001E00F1FB50B4A01AB106809
S214002A50516803C31189927A19809A704F2301A88E
S214002A608DF80530FFF79EFA6420FFF7D3FA0020B2
S214002A7005B05DF804FB00BFE37403006FF00402CA
S214002A80502110B50A480B4C12F0800FD3B21BBF72
S214002A9003F00F03043BA3181B1802F101020CBF3E
S214002AA083F8001319763D2AEED1002010BD00BF32
S214002AB000ED00E000E100E0BFF34F8FBFF36F8F43
S214002AC0054B5A6A22F480325A62D3F8942022F0D8
S214002AD00102C3F89420704700ED00E070B5254869
S214002AE0254CFFF7E9FF844208BF4FF08043234A96
S214002AF018BF20F01F03D2F8C01018BF203B21F0EB
S214002B00FF0141F0A001B3F1005FC2F8C0100CD382
S214002B101B4D1C4E296843F00103C2F89810013182
S214002B20C2F89C60C2F8A0302960844210D01448D5
S214002B30154B0268114923F01F0343F00303C1F845
S214002B409820C1F89C30114B0132C1F8A0300260C9
S214002B50BFF34F8FBFF36F8F0522084BC3F8942047
S214002B605A6A42F480325A62BFF34F8FBFF36F8FB8
S214002B7070BD00BF44120020E013002000ED00E00E
S214002B80481D002003000020FF130020E1FFFF3F48
S214002B9010B51446FFF790FF1F2C21D9194A1A4C7E
S214002BA0D2F8C03021F01F0123F47F4343F4807332
S214002BB0C2F8C030C30618BF20F01F002368114AB1
S214002BC018BF203020F01F00C2F8983040F00300F5
S214002BD041F003010133C2F89C00C2F8A010236044
S214002BE0BFF34F8FBFF36F8F0522064BC3F89420B9
S214002BF05A6A42F480325A62BFF34F8FBFF36F8F28
S214002C00002010BD00ED00E0481D0020BFF34F8FF0
S214002C100549064BCA6802F4E0621343CB60BFF373
S214002C204F8F00BFFDE700BF00ED00E00400FA058F
S214002C3008B5FFF7EBFF08BD30B50F4C41612368C0
S214002C40ABB92060836011E0891A9A681D4641611D
S214002C502AB113465A698A42F6D955B11A4613461E
S214002C60A860836013B15A69511A596130BD0025B6
S214002C70F0E72060F5E700BF641D002038B500F0DF
S214002C8059FA094B094A196839B113684C69C51ACB
S214002C90AC4204D323441B1A4B61106003E00023AC
S214002CA0001B10604B6138BD641D0020501D0020C5
S214002CB038B50F4B0F4D1C682B6802205B691C440F
S214002CC000F06CFA204600F03DFA00230A492A6814
S214002CD00B70D088800702D501230B7038BD926830
S214002CE0002AFBD050690344012BF2D9F6E700BF57
S214002CF0501D0020641D0020581D002070B59DF852
S214002D001450164605710025049A8560BDF81850C3
S214002D100446C580C0E903360D46026029B9416104
S214002D200BB11146984796B13546FFF792F906461D
S214002D30FFF7A4FF29462046FFF77EFF054B1B68DA
S214002D40A34201D1FFF7B4FF3046FFF788F9002011
S214002D5070BD00BF641D002000220C490B687BB1CB
S214002D6083420AD183687AB1936083681BB15A693B
S214002D7041690A445A61002070471A469B68EEE78C
S214002D800028EFD0022070470B60EEE7641D00209D
S214002D9070B5FFF75EF9144E05463478FCB9134B50
S214002DA01C60134B1C60134B1C8000F089F901203B
S214002DB000F0F4F900F040FA0F4B0246186020B914
S214002DC02846FFF74CF9232070BD234640F2E73132
S214002DD00A482AF04BF90A4B18600123337028463C
S214002DE0FFF73DF90020EFE74C1D0020641D002092
S214002DF0501D00205A1D0020601D002018FCFFFFFB
S214002E00541D00202DE9F0410546F8B1FFF721F9E1
S214002E100F4F0646FFF732FF2846D7F80080FFF729
S214002E209BFF044628B13046FFF719F92046BDE857
S214002E30F081A8453B6803D123B1FFF739FFF2E7DD
S214002E40002BF0D1022000F0B5F9ECE72224EDE7E4
S214002E50641D002038B50C46054698B191B1002394
S214002E600B70FFF7F6F80121074B1B680BB12278B1
S214002E701AB1FFF7F4F8002038BDAB4214BF9B68C8
S214002E802170F3E72220F7E7641D0020F0B51F4607
S214002E90002387B00D46164604468DF81730A0B1BD
S214002EA00DF11701FFF7D6FF9DF817207AB9BDF888
S214002EB03430294602939DF830302046CDE9007321
S214002EC03346FFF71BFF07B0F0BD2220FBE70320C9
S214002ED0F9E7000070B5FFF7BCF8064600F02AF9DF
S214002EE0084B04461D880120ADB200F07BF918B1EE
S214002EF000F020F9044601353046FFF7B0F82046CA
S214002F00294670BD5A1D00200A4B10B51B680C469A
S214002F1083420CD3084B4FF47A7219680023A0FB47
S214002F2001012AF0A3F801302060002010BD212006
S214002F30FCE700BF541D0020601D0020164B70B536
S214002F408342164B14468B4124D34FF47A75144BA8
S214002F501A68A0FB050305FB0131A2B1551E1540FA
S214002F6011D1B2FA82F3C3F11F065A1CDB4301FAF1
S214002F7002F2F04021FA03F310431843F140C4E98B
S214002F800001284670BD00232AF070F80025C4E929
S214002F900001F6E72125F4E7EFA7C64B3789410085
S214002FA0601D00202DE9F84F0446E0070BD5404A87
S214002FB0138801339BB21380FFF760FE3D4B1B68FE
S214002FC00BB1FFF775FEA10770D500F0B3F8DFF878
S214002FD0EC904FF00008D9F800700646C71BFFF7C4
S214002FE038F8C34605464246324B1C6814B163693E
S214002FF0BB4216D9B8F1010F52D1D3889A1E53425C
S21400300053412D4A1370002C4CD06369C9F80060F8
S214003010DB1B6361FFF74CFE2846BDE8F84FFFF761
S2140030201EB823463A46C9F800605969914209D845
S214003030187994F804C0521A844588BF1C469B68C9
S214003040002BF2D12846FFF70AF86569C4F814B0D9
S214003050FEF7FFFF82462046FFF77EFE5046FEF74D
S214003060FEFF23694BB1FEF7F4FF82462169204636
S214003070FFF7E2FD5046FEF7F2FFE36813B1204685
S2140030802168984700F056F835447F1B824607446F
S214003090FEF7DFFF56460546224608F10108A3E77D
S2140030A00023AEE7022000F085F8B5E7BDE8F88F0C
S2140030B05A1D0020641D00205C1D0020501D0020AD
S2140030C01FB50024184B18689A880290D3F806009B
S2140030D09B7A009002A8ADF80C208DF804308DF88D
S2140030E008408DF80C40FFF7BBF9694601208DF8C3
S2140030F00040FFF779F94FF090431F219A6922F0BC
S2140031001F029A61094A51619A6A12F00802FBD1BD
S2140031101A620120FFF782F94FF48062044BC3F86D
S21400312080211A6004B010BDEE7403000020004831
S21400313000E100E04FF090439A6A1207FCD4186A48
S214003140704700004FF09042936A1907FCD4136A48
S214003150116C5269120704D4CA1A032A01D899427C
S2140031600ED1C21A022A98BFD81CB0F1FF3F38BF52
S21400317001384FF0904318649A6942F008029A6149
S214003180054A13783BB14FF09041CB6B43F00203F6
S214003190CB630023137070473A10002082074FF06D
S2140031A0904200F00103916948BF43F008030B43C7
S2140031B093617047820700F001030AD50121084A8F
S2140031C043F0080311704FF09041CA6B22F00302DF
S2140031D0CA634FF090418A6922EA03038B61704705
S2140031E03A1000204FF0904301285B6904D0022873
S2140031F005D1C3F3C000704703F0010070470020FC
S2140032007047000010B5FEF724FF4FF090430446C9
S2140032105B691A07074A03F0010003F00D0348BF75
S21400322040F002005361FFF7BDFE2046BDE81040A7
S214003230FEF715BF002000481C20FEF739BB08B576
S21400324029F068FE29F0C0FE29F0C0FE29F0C7FE6E
S214003250BDE8084029F0CEBE08B529F0CDFE29F01D
S214003260CCFE29F0CBFEBDE8084029F0C8BE01F030
S214003270EBB901F0E9B9000008B5182200210448AE
S2140032802AF057F9BDE8084001202DF03DBC00BFEC
S214003290741D002007B5FFF71DFE6A46FFF74EFEB9
S2140032A028B15E21044B054A05482AF06FF80098BD
S2140032B003B05DF804FB00BFF9740300A6750300B5
S2140032C01075030030B50D46144685B01548FFF757
S2140032D099FD154B2C441C60FFF7DCFF201A0124D7
S2140032E0124B00281C7004DC05B0BDE8304001F02D
S2140032F0ABB903A9FFF708FE034628B17B210C4BA8
S2140033000C4A0D482AF042F8CDE900040B4A03990E
S2140033100448FFF7BBFD18B17F21054B054AF0E7CF
S21400332005B030BD741D00206C1D0020681D0020F7
S214003330F97403008E750300107503006F320000E9
S21400334008B50348FFF75EFD0022024B1A7008BD61
S214003350741D0020681D00202EF062B870B50D4662
S21400336014460F4E2C4430682DF000FC0D4B1C60AC
S2140033702EF056F801220C4B211A00291A7003DC95
S214003380BDE8704001F060B9084B30682DF0E0FBF6
S21400339028B1D921064B074A074829F0F7FF70BD28
S2140033A0981D0020701D0020691D0020733200004B
S2140033B057750300767503001075030008B5044BB7
S2140033C018682DF0D3FB0022024B1A7008BD00BF10
S2140033D0981D0020691D002070B50446FEF739FED2
S2140033E0124B05461B7863B1114B1E68FFF752FF60
S2140033F0301A002805DC2046FFF7A2FF204617F00B
S21400340061FD0C4B1B7863B10B4B1E682EF008F861
S214003410301A002805DC2046FFF7D0FF204617F0BC
S21400342089FD2846BDE87040FEF719BE681D0020DD
S2140034306C1D0020691D0020701D002020B1034B6C
S214003440984214BF01201720704700BF0BE000F021
S2140034502DE9FF410E46174632B329B30025DFF8A3
S2140034604C80040245EA040141F4003103ABD8F86D
S214003470000002AA01912CF031FFFFF7DFFF1728AA
S21400348001990AD13B463246D8F800002CF08EFE51
S21400349004B0BDE8F041FFF7D1BF10B901350B2DE0
S2140034A0E0D104B0BDE8F0810720FAE71410002050
S2140034B008B50A4B186890F834301BB10022084B48
S2140034C01A7008BD074B19682CF0A0FDFFF7B6FF71
S2140034D00028F6D10122024BF2E700BF14100020AC
S2140034E08C1D0020181000202DE9F04F002699466C
S2140034F0B246172409028DB041F40037DFF8BCB09D
S214003500049247F00A053B460422DBF800000095CB
S21400351008A92CF029FF08AB03903218964201D177
S214003520002336E0049953F8047B8E4243D107AB60
S2140035303946DBF8000006AA2CF0D0FEFFF77EFF27
S214003540044628BB079B1FFA83FAB9F1000F1FD069
S214003550169AEAB15046CDF814A029F0A3FF059BB1
S214003560024680463946DBF800002CF069FEFFF77D
S21400357065FF044640B9169B41461A8848465245A0
S21400358028BF524629F0AEFF404629F093FF5CB9AB
S2140035900123039A032A05D90A2E07F1010701DC45
S2140035A0002BB0D0169B13B1169BA3F800A02046A4
S2140035B00DB0BDE8F08F0136B0E700BF1410002054
S2140035C02DE9F04F904600271724090241F40036F3
S2140035D0DFF888B08BB046F00A0533460422DBF8E5
S2140035E00000009506A92CF0BFFE82463B180DF1A0
S2140035F018090393039B9F4201D100231EE0474511
S21400360059F8046B02D0B8F1FF3F24D105AB314620
S214003610DBF8000004AA2CF061FEFFF70FFF04465B
S21400362040B93146DBF800002CF0A8FEFFF706FF95
S214003630044660B9B8F1FF3F0DD00123BAF1030F7D
S21400364005D90A2F06F1010601DC002BC5D020465D
S2140036500BB0BDE8F08F0137CCE700BF1410002098
S214003660F8B516464FF0FF320D461F46FFF7A8FF87
S21400367008B1172806D13A4631462846BDE8F84034
S214003680FFF7E6BEF8BD10B50024A1B24FF0FF323A
S21400369000200134FFF794FF082CF6D110BD00007F
S2140036A008B5FEF793FE034B1860BDE80840FEF72A
S2140036B085BE00BF901D0020BFF34F8F0549064B07
S2140036C0CA6802F4E0621343CB60BFF34F8F00BFBB
S2140036D0FDE700BF00ED00E00400FA05054B1B788F
S2140036E003F0FF0023B1044B1B681878C0F34010AA
S2140036F0704700BFD8200020E0200020064B074A75
S2140037001B6812781B8802F0FF0022B103F0070046
S214003710C31E584258417047E0200020D8200020A1
S214003720054B1A79824205D85A79824238BF00235F
S214003730184670470023FBE7A01D002083884BB186
S2140037408268013B0132826042888380013A42806F
S214003750002070470120704738B50C468A88896873
S214003760054629F0BFFEE16841B1A0886288121ABA
S21400377092B22844BDE8384029F0B4BE38BD0000F7
S21400378037B504461C4B1D4D186821689B88009071
S214003790ADF804302868D1B100222DF093FC2379CF
S2140037A0834206D040F23121154B164A164829F0BE
S2140037B0EDFD01220423114628688DF800302EF016
S2140037C0F8F860B140F23721104B0E4AEEE72EF0C3
S2140037D0BFF820B140F241210C4B0A4AE6E76946A1
S2140037E028682DF0CFFC20B140F24521074B054A52
S2140037F0DCE703B030BD00BFFC770300981D002057
S214003800BD7503004D780300E67503005775030089
S21400381038B50D460446FEF71CFC064B1A8892B2D5
S2140038202DB114431C80BDE83840FEF718BC22EAD0
S2140038300404F7E79C1D002010B5FFF74FFF30B9D2
S21400384040F2F3710F4B104A104829F09FFD104BC1
S2140038501B881B0704D440F2F4710E4B0A4AF3E7A8
S2140038600E2200240C4B21461A700C4B08201C70AC
S214003870FFF7CEFF0A4B18682DF03EF9094B1C7077
S21400388010BD00BF2D76030093780300E675030095
S2140038909C1D00203F760300D9200020D820002061
S2140038A0981D0020941D0020427A70B590F90A6099
S2140038B0C57A046832B10022074B5E759D759C6020
S2140038C0DA6070BD054BC3E90242DA7D5E7561F3CE
S2140038D000029D75DA75F4E71020002038200020DD
S2140038E038B51D460B4B14460A46014618682DF09F
S2140038F058FD08B1002038BD6088A368411C89B215
S21400390029801B788B42F5D103387B288CBF00209A
S2140039100120F0E7981D002000210420FFF778BF63
S2140039202DE9F0430D46164601221A4BDFF8748047
S214003930194F187085B0D8F8000000213A702DF0A5
S214003940D6F8E8B2FFF7ECFE0446F0B1DFF8589080
S214003950D9F80030984203D0FFF712FFC9F80040AC
S214003960FF238DF804300D4B3246CDE9023629464A
S214003970D8F8000001AB2DF031F938B17F22084BA2
S21400398001201A7002233B7000E0072005B0BDE856
S214003990F08300BFE81F0020EA1F002020A10700D8
S2140039A0E91F0020981D0020E41F002008B50E4BDC
S2140039B01B889B0713D501280C4B11D10F22002121
S2140039C020201A70FFF724FF00210220FFF720FFB7
S2140039D0074B18682DF090F80022064B1A7008BDA9
S2140039E00B221A70F0E700BF9C1D0020D920002093
S2140039F0981D0020D82000202DE9F0471446A2028A
S214003A0005461E468AB01AD5A44B1B78002B00F03C
S214003A10EB8005A92DF0F7FF002840F0FF809DF809
S214003A201C30032B00F0D9809DF81C30022B06D1E9
S214003A30BDF814000EF080FF002880F2D480E30169
S214003A4004F0807240F1FB80954B1B889F070DD5D4
S214003A5002200021FFF7DCFEFFF740FE07460028A5
S214003A6000F0E48001210820FFF7D2FE200775D57C
S214003A7028462DF09EFCDFF83C82014605AAD8F8C1
S214003A8000002DF087FC8146002867D09DF8143092
S214003A90072B63D10DF1020305AA01A9FFF720FF4A
S214003AA000285BD005A8FFF749FE002856D1BDF8D0
S214003AB01830002B40F0D280089B1F789DF80D3000
S214003AC0002B00F0CD80BDF80230052B46D107F064
S214003AD00703022B42D1DFF8F8A105A9DAF80000A7
S214003AE0FFF73AFEBDF802304946D8F80000AAF8BB
S214003AF004302DF060FCFFF7F1FD40B3694BDAF8B7
S214003B0000201B6892789B789A4220D19DF80A3054
S214003B1023B3BDF8023001A90133D8F80000ADF890
S214003B2008302DF042FC0146C0B901A8FFF7BCFEE4
S214003B305D4B082019705D4B1970FFF769FEFFF7A3
S214003B40DDFD20B1F90642BF0122594B1A70FFF77E
S214003B50D5FD18B9D8F800002CF0CEFFA2014FF022
S214003B6000080CD5524F41460420FFF751FE3B7823
S214003B702BB1504B18682CF0BFFF87F8008014F06C
S214003B80084F01D0FFF7C8FEA30001D5FFF7C4FE1B
S214003B90A70705D5424B1B88180701D5FFF74CFE33
S214003BA071060AD53E4F3B881A0701D5FFF744FE3B
S214003BB03B885B0701D5FFF7AFFEF70540F1A8800D
S214003BC028462CF06DFF0B2840F0848040F60C0150
S214003BD0394B3A4A3A4829F0D9FB05A80EF0C6FEFA
S214003BE00028FFF621AF28462DF00BFFB0B9314B69
S214003BF005A918682DF0D2FB05A8FFF79FFD002841
S214003C007FF41DAF079A089BBDF81810002918BF4F
S214003C1013461A7862F07F021A7010E702283FF403
S214003C200EAF40F25771274B274AD3E7214B18684F
S214003C302CF062FF1D4B1F701B4B1F7016E706F023
S214003C4002031A4303D00120FFF7B0FE0EE704F08C
S214003C50A84213433FF40AAF0220F5E7079B2CE780
S214003C601A4B1B7823B9BDF80230052B3FF476AF0C
S214003C7017F0200704D001210420FFF7C9FD6DE7E7
S214003C80DFF82C9099F80030002B3FF467AFD8F897
S214003C9000002CF031FF89F800705FE7EB1F002072
S214003CA09C1D0020E0200020D8200020D9200020E5
S214003CB0941D0020981D0020657603007C78030084
S214003CC0E675030057750300A67803000C20002055
S214003CD010200020031FDBB2022B0DD9032806D1CB
S214003CE0254B1B7843B9254B1B78012B1EE0022879
S214003CF01BD1214B1B785BB1214F3B88580701D560
S214003D00FFF70AFE3B88990702D50120FFF74EFE13
S214003D10B20513D50022284611462DF0C3FA68B125
S214003D2040F6BF01174B184A54E70A28F0D17F2205
S214003D30164B1A700222114B1A70E9E7E30713D5E7
S214003D4028462DF05EFB044628462CF0D5FE14F5DA
S214003D50007F0ED0002CB8BF033444F38704022241
S214003D600A4B1C70054B1A700AB0BDE8F04700F00D
S214003D706BBC7F24F3E700BFD8200020EA1F00209A
S214003D809C1D002057750300C1780300E91F002022
S214003D90594B73B5198811F0010140F0A780574DB3
S214003DA0574B584EC5E9003141F60B232846A9600B
S214003DB03160B3802CF056FE044630B940F206213E
S214003DC0514B524A524829F0E1FA4FF001112DF0BA
S214003DD0B2FA20B140F20E214E4B4C4AF2E7204692
S214003DE04D492DF081FD20B140F21121494B474A43
S214003DF0E8E7012120462DF0DEFD20B140F2162135
S214003E00444B424ADEE7012120462DF0E7FD0246FC
S214003E1020B140F219213F4B3C4AD3E7802320468D
S214003E2005F5D6712DF094FA802804D04FF4097168
S214003E303A4B364AC6E73A4D2DA3D3E900232C6009
S214003E402046CDE900234FF0FF324FF0FF332DF030
S214003E5079F920B14FF4D8712E4B324AB2E730468A
S214003E60FFF78EFC01210846FFF7D2FC01212868E7
S214003E702CF02AFE20B140F2A121264B2A4AA1E7C7
S214003E802A4B2B4A98801A602A4B2B4A98801A6035
S214003E902A4B2B4A98801A602A4A0B20DA60FFF7D2
S214003EA03FFC294B186020B940F2B121274B1E4A2F
S214003EB088E7FEF73FFD002128682DF07FF920B146
S214003EC040F24E21134B224A7CE70822286811460E
S214003ED02DF045F920B140F2B5211E4B124A71E78C
S214003EE01D4B18701D4B18701D4B187002B070BD1E
S214003EF00B0020FF220200009C1D0020A81D0020B1
S214003F00F9390000A01D0020947603006E780300A7
S214003F10E67503005775030080790300A376030057
S214003F20981D002061780300D07803003820002018
S214003F30582000201020002030200020E020002004
S214003F401021002000210020E41F0020D576030069
S214003F506A790300F0760300EA1F0020D9200020CB
S214003F60D8200020084B82B09A6CDB6CCDE9002389
S214003F704B1E02AA073112F8010D03F8010F8B42FF
S214003F80F9D102B0704700BF0080E00F07B50846C1
S214003F9001910EF0CBFC084B0022019918682DF019
S214003FA0DDFC30B14FF44671044B054A054829F054
S214003FB0EDF903B05DF804FB981D0020577503006B
S214003FC056790300E675030008B5074B002218680B
S214003FD02DF0D4FC30B140F22D31044B044A054894
S214003FE029F0D4F908BD00BF981D002057750300BE
S214003FF038790300E675030008B5074B00221868F9
S2140040002DF0B4FC30B140F23931044B044A054877
S21400401029F0BCF908BD00BF981D002057750300A5
S2140040201D790300E6750300034B1A780AB90122CE
S2140040301A700020704700BFD720002038B50C4DFE
S2140040402B78032B12D08BB10A4C20682CF04DFD38
S214004050012804D00122002120682CF048FD2068A9
S2140040602CF04AFD012300202B7038BD0D20FCE704
S214004070D7200020981D00202DE9FF411A4E0C463F
S21400408033786BB30846FFF74BFB054650B3DFF8B3
S2140040906880164FD8F80030834209D001220021EC
S2140040A038682CF024FD2846FFF76AFBC8F8005055
S2140040B00023CDE901330393FF232146386801AA84
S2140040C08DF804302CF07AFD18B1012004B0BDE85C
S2140040D0F08102233370064B9C71064B9C71F5E70A
S2140040E00D20F3E70720F1E7D7200020981D0020D9
S2140040F03820002010200020E41F00202DE9F04189
S2140041002E4F8AB03B889B0706D44FF46B712C4B1E
S2140041102C4A2D4829F03AF9DFF8C080D8F800304C
S21400412023B940F2AD31294B264AF2E79B88284C4A
S2140041308DF80F30012394E80700264D04AE86E87C
S21400414007003A880DF10F011A4628682DF0FCF892
S2140041509DF80F20D8F80010023A0023096892B2A2
S21400416028682DF0F1F80C3407AB94E8070083E8D4
S2140041700700D8F800003988026811F0200F12787E
S2140041808179C2F3401214D0007E8DF812001248D6
S214004190007800938DF81300334628682CF0FEFC58
S2140041A020B10220FFF702FC00F04EFA0AB0BDE88C
S2140041B0F08128682CF0E2FCF2E700BF9C1D00208E
S2140041C074770300F9780300E67503009A77030016
S2140041D004780300981D00203B100020902100204A
S2140041E02DE9F843DFF8D080064698F800300C46F4
S2140041F0002B4CD0032B4AD08879FFF791FA05465E
S214004200002846D0254F3B68834209D0244B012224
S214004210186800212CF06BFC2846FFF7B1FA3D60C9
S214004220204B1A7802F0FF0732B140F295311E4B50
S2140042301E4A1F4829F0AAF803224FF0010988F801
S2140042400020DFF87880A17E88F8007083F8009060
S214004250184BC1F3400120201C60FFF7D9FAFDF788
S214004260F8FE054649460220FFF7D2FAFFF746FF5A
S2140042702846FDF7F4FE98F8003003F0FF0553B922
S214004280214630461FF0F3FB2846BDE8F8830D258F
S214004290FAE70725F8E73D46F6E700BFE41F0020EB
S2140042A0981D0020D8200020AB7703000979030072
S2140042B0E675030090210020D7200020D92000209A
S2140042C000487047E020002038B5134C237803F0F0
S2140042D0FF000BB17F2038BD104B10229979FFF7F5
S2140042E01FFB0028F6D12DF09BF805462378012BFE
S2140042F005D12DF095F8431BB3F5967FF6D32378BA
S214004300022B0ABF064B7F2018784FF0000308BF29
S21400431040B22370DFE700BFEA1F002038200020ED
S214004320E91F00201B207047014B1878704700BF1C
S2140043300C20002008B5074B1970074B18682DF0A5
S21400434025FB30B140F2A541044B054A054829F04B
S2140043501DF808BD0C200020981D0020577503008E
S214004360DF780300E675030010B50C4649B1064B2E
S21400437018682CF04BFF0A2390FBF3F02070002007
S21400438010BD0720FCE700BF981D002008B5084BAD
S21400439001EB8101186849002CF010FF30B14FF492
S2140043A09961044B044A054828F0F0FF08BD00BF99
S2140043B0981D00205775030031780300E67503004A
S2140043C021B1034B00201B780B7070470720704705
S2140043D03B100020014B0020197070473B10002056
S2140043E06FF0630070470000054B1B782BB94FF445
S2140043F07A7301205A43FFF793BA0520704700BF2F
S214004400EA1F0020F8B51C46DDE906760BB107B1B9
S21400441036B940F2FF410E4B0E4A0F4828F0B6FF61
S214004420FDF717FE0546214610220C4829F05AF8DB
S214004430394610220A4829F055F831461022094814
S21400444029F050F82846BDE8F840FDF708BE00BF42
S214004450C27703001C780300E6750300FC1F0020EB
S214004460D41F0020EC1F002008B5FDF7F2FDBDE8C4
S2140044700840FDF7F4BD10460A4619460EF0FEB990
S2140044802DE9F0438BB00646FDF7E3FDDFF86881C3
S21400449081460221D8F8000005AA2CF07BFF0446CE
S2140044A0002800F08C809DF81430072B40F08780A1
S2140044B00DF1020305AA01A9FFF712FA0746002824
S2140044C07BD005A8FFF73AF9002876D1404B1D7837
S2140044D035B99DF80D30F3B9BDF80230052B1AD06A
S2140044E03C4D05A92868FFF737F9BDF8023021468C
S2140044F0AB802B681D7805F07F021A70D8F8000094
S2140045002CF059FF9DF80A30002808BF0024002B25
S21400451041D1002524B12146D8F800002CF04BFFED
S2140045204846FDF79CFD35B10022304629491FF06C
S21400453095FA00F089F8284A1378032B16D1274BF2
S2140045401B789BB9264B19780221117025490A68F9
S2140045501278920602D51A78002A32D000221B78EA
S214004560204930461FF08CFA00F06EF81E4B1B7880
S214004570012B29D11D4B1A78022A25D100221A7048
S2140045801B4B3046197849B21FF088FA0BB0BDE8CD
S214004590F04300F059B8BDF80230D8F800000133F7
S2140045A001A9ADF808302CF000FF0028B1D1E909C8
S2140045B001A8FFF779F93D46ACE70025ABE70025F3
S2140045C0AEE71B780B4ACCE70BB0BDE8F08300BF24
S2140045D00C20002038200020D7200020D8200020E3
S2140045E0D9200020E0200020E81F0020EA1F00203D
S2140045F0E91F002010200020981D00200078B0FA47
S21400460080F04009704701230370704708B52CF00E
S214004610C3F9FFF7BDFBFEF72FFEBDE80840FFF726
S2140046203FB8000007B5074B0190186000F0D4F8BB
S2140046300198FFF725FF019803B05DF804EBFEF73D
S214004640CBBE00BF94210020704701230B7070473B
S2140046500122024B1A70FFF7F7BF00BF1E2300208F
S2140046602DE9F8431D46194EDFF868901746B6F850
S2140046708020B6F8823099F800109BB25B1A2B4463
S21400468092B203F07F039A42804615D0B6F88200B5
S2140046906A1A16FA80F0394428F024FFB6F88240E9
S2140046A099F80030A4B2E41A00232C4404F07F04E6
S2140046B0A6F8824089F800302A4639464046044B20
S2140046C0FCF726FEBDE8F843FFF7BEBF9A2200209F
S2140046D06146000098210020002370B58AB04FF490
S2140046E0FA7003A98DF80B30FEF70EFC012438BBD8
S2140046F0CDE90004144A03990DF10B0304A8FEF754
S214004700C5FBE8B942F22006104C2068FCF7E1FB36
S21400471005462068FCF7B0FB304200D01DB19DF87E
S2140047200B30002BF1D004A8FEF76CFB9DF80B3085
S2140047301BB101212068FCF7FFFA0024044B1C7013
S21400474020460AB070BD00BF4B4600009410002003
S2140047501E230020FFF778BF38B500240F4B104DFE
S214004760A3F880408022A3F882400E490E4B2868AA
S214004770FCF7CEFD80220C4B0C492868FCF7C8FDE0
S2140047804FF400620A4B2046C3F880211A60094A9B
S214004790D36C43F00403D36438BD00BF9A220020D4
S2140047A09410002099210020614600001922002064
S2140047B000E100E0008005400A460146044808B5CE
S2140047C00068044BFCF73EFE003818BF012008BD09
S2140047D094100020514600007FB5FDF73AFC0546D0
S2140047E02B482C4E03AB02AA006801A9FCF747FB36
S2140047F03378029A284C934214D2B4F88200019976
S214004800D21A194414FA80F028F06CFEB4F88230FC
S214004810029A317812FA83F35B1A03F07F03A4F846
S214004820823032702846FDF71AFCB4F88250B4F88D
S2140048308030ADB29BB29D420DD2B4F88000B4F881
S214004840801014FA80F0C1F1800189B20DF05AFF91
S2140048500023A4F88030B4F880309BB29D420BD081
S214004860B4F88000B4F8801014FA80F0691A89B29F
S2140048700DF048FFA4F88050084B1A7832B1002299
S2140048801A7004B0BDE870400DF096BF04B070BD5D
S21400489094100020982100209A2200201E23002039
S2140048A037B504460191FDF7CDFB01990546204634
S2140048B028F08AFD04462846FDF7C8FB204603B0CC
S2140048C030BD38B50546FDF7BDFB0446284628F042
S2140048D0F1FD2046BDE83840FDF7B8BB2DE9F041B4
S2140048E044681F46A36805460E46904633B110211D
S2140048F00120FFF7D5FFE06038B104460020C4E988
S214004900017826606C60BDE8F0816FF06900FAE718
S214004910036870B5CD1A002D0DDD93F900601C7884
S214004920002E0BDB5C1C04601B7813600368C91A3E
S21400493013688B4232D96FF05F0070BD04F07F04BD
S214004940013C032C27D8DFE804F00209121E012DD3
S214004950F1D05C78023314600360E7E7022DEADDED
S214004960B3F80140033364BAA4B21460F4E7032D2D
S214004970E1DD9C785D78240244EA0544DD78043362
S2140049802C431460E8E7042DD5DDD3F80140053349
S21400499024BA1460E0E76FF06300CEE70020CCE7AF
S2140049A070B404680E1B002E07DD26789E4208D1E0
S2140049B00134046070BCFFF7ABBF6FF05F0070BCE3
S2140049C070476FF06100FAE737B51D46134601AA37
S2140049D00446FFF7E5FF18B9019B1BB96FF06300AB
S2140049E003B030BD236893F90030002BF6DB019B43
S2140049F03BB122681178A1B1042BEFD801D10B0688
S214004A00ECD400232B60019B5A1E0192002BE7D0AA
S214004A102368296813F8012B42EA01222A602360E2
S214004A20F1E70132013B22600193E0E737B501234D
S214004A30154601AA0446FFF7B3FF50B9019B012BA8
S214004A4009D1236813F8012B003A18BF01222A6007
S214004A50236003B030BD6FF06300FAE7134602220E
S214004A60FFF7B2BF37B50223154601AA0446FFF783
S214004A7097FF40B9019A2846216800F063FD236835
S214004A80019A1344236003B030BD70B50323054676
S214004A900E461446FFF784FF80B912687AB1531E9B
S214004AA023602B681978072921710BD8591C1344E9
S214004AB0B34218BF6FF06500A1602B6070BD6FF049
S214004AC05F00FBE76FF06300F8E72DE9F04F85B075
S214004AD00192984603AA302304460E469DF838A055
S214004AE09DF83CB0FFF75CFF054608BB2368039AB9
S214004AF013449E4219D06FF0650519E05A1C2260D7
S214004B0093F80090019B09EA0303434521D13146FF
S214004B10204603AAFFF7FCFEC8B909EA0A035B456C
S214004B200AD02368039A134423602368B342E5D36C
S214004B30284605B0BDE8F08F109B002BF1D0DDE9CC
S214004B4010704946039B2268B8470028E9D00546FE
S214004B50EEE76FF06105EBE738B503230446FFF791
S214004B601FFF18B9136813B96FF0670038BD013B13
S214004B70136023681A78002AF6D101332360F5E71C
S214004B80D0B586B0CDE9043206460F461046002161
S214004B9010221C4628F0CDFC04AB0393064BFF22E4
S214004BA0029300233946CDE900333046E3B2FFF7DF
S214004BB08CFF06B0D0BD00BFDD4800002DE9F743EE
S214004BC090461F4601AA302305468946FFF7E8FEB1
S214004BD00446F8B92E68A9EB0609B9F1000F35DDD1
S214004BE04246019933780E4442F8043B3146062388
S214004BF02846FFF7D5FE044660B92A68D8F80410A0
S214004C00C8F808205318B3422B6007D10C21384649
S214004C1004F074FB204603B0BDE8F083515C3A46CE
S214004C20013342F8041B284631462B60FFF770FE1E
S214004C3004460028EED12B687A68BB601344B34262
S214004C400CBF04466FF065042B60E3E76FF05F046B
S214004C50E0E703687F2AA3EB010107D8002969DD96
S214004C60591E0160012003F8012C7047FF2A0DD859
S214004C7001295FDD591E016003F8012C03685A1EE6
S214004C8002608122022003F8012C7047B2F5803FB3
S214004C9013D202294EDD591E016003F8012C036869
S214004CA0120A591E016003F8012C03685A1E02609E
S214004CB08222032003F8012C7047B2F1807F19D2BC
S214004CC0032937DD591E016003F8012C0368591EBD
S214004CD00160110A03F8011C0368120C591E0160DA
S214004CE003F8012C03685A1E02608322042003F88E
S214004CF0012C704704291DDD591E016003F8012CA4
S214004D000368591E0160110A03F8011C0368591E46
S214004D100160110C03F8011C0368120E591E016095
S214004D2003F8012C03685A1E02608422052003F84B
S214004D30012C70476FF06B0070470368591A002902
S214004D40C1BF03F1FF310160012003F8012CD8BF79
S214004D506FF06B0070472DE9F04107468846104615
S214004D60154600F0B5FB39680646414504D26FF09B
S214004D706B042046BDE8F081A1EB08028242F6D320
S214004D80091A02463960284600F048FC0446002806
S214004D90EFD12B68012B0DD13B6893F90020002A38
S214004DA008DAA3EB0802002AE1DD5A1E3A60013653
S214004DB003F8010C324641463846FFF74AFF041E08
S214004DC0D7DB022241463846FFF7B7FF031EAABFCD
S214004DD0A0191C461C18CCE7F0B506460020044671
S214004DE084EA02035D422B43DB43355DDB0F5F4203
S214004DF00134013B3D400340A14245EA0300EFD1A8
S214004E00F0BD00002DE9F74F4FF0000882460F4630
S214004E1091464446C3461D460C9E524BB3450CD3A2
S214004E205E4605E00BF1010B5E4501F1010105D17F
S214004E3094BB0020C9F8004052E0002115F80B2072
S214004E40202AEFD05E45F3D0A6EB0B00012821D038
S214004E500D2A1FD105EB0B0040780A2817D0002931
S214004E607CD13D2A04D108F10108B8F1020F75D8AB
S214004E7018468021FFF7B0FF13066FD47F286DD049
S214004E803F28384B02D8B8F1000F67D101340BF138
S214004E90010BC3E70A2AE1E7062204F00703E0084D
S214004EA0534350430733A0EB080000EBD300BAF19E
S214004EB0000F11D0B8420FD84FF00008AB19544677
S214004EC0032746460193DFF89CB0274B019AAA4277
S214004ED009D1A4EB0A04ACE7C9F800006FF029007A
S214004EE003B0BDE8F08F15F8012BA2F10A01C9B294
S214004EF0162903D823FA01F1C907E7D480215846BA
S214004F00FFF76AFF80F04002D2B2B2FA82F252098C
S214004F10791EC2F1000C0136013A01EA0C01174075
S214004F2000F03F00042E104B47EA010740EA8818BD
S214004F30CCD18FB14FEA1842012F227002D1013432
S214004F400026C3E7022F4FEA1822627016BF84F8C5
S214004F50028002340334F3E73E46B7E76FF02B00D7
S214004F60BEE700BF9C790300090040002DE9F04130
S214004F70844688460E4614460025BCF10F0F06F1FF
S214004F80400604F1400478D86FF00F06070906FBC8
S214004F900706072E4FEA871C08EB871402EB8710DC
S214004FA05DD958F80C70083EA3FB07176D1852F829
S214004FB00C1047F100076D1842F80C50616847F175
S214004FC00002A3FB01515219456841F10001521934
S214004FD04260A26841F10001A3FB025249198568AC
S214004FE042F1000249198160E16842F10002A3FB28
S214004FF001515219C56841F100015219C260226977
S21400500041F10001A3FB02524919056942F1000271
S21400501049190161616942F10002A3FB015152196D
S214005020456941F1000152194261A26941F100014E
S214005030A3FB02524919856942F1000249198161B0
S214005040E56942F10002A3FB0551521941F1000542
S214005050C16920345218C26145F100052030074668
S2140050604FEA860C04EB8606A64240F005816044B3
S214005070002D40F00F81BDE8F08156F8407C54F8D2
S214005080401CA3FB07E715EB0E0547F100074D197B
S21400509044F8405C56F83C5C54F83C1CA3FB05E521
S2140050A047F1000717EB0E0745F10005CF1944F846
S2140050B03C7C56F8387C45F10005A3FB07E715EB6A
S2140050C00E0E54F8385C47F1000715EB0E0544F851
S2140050D0385C56F8345C47F10007A3FB05E517EB90
S2140050E00E0E54F8347C45F1000517EB0E0744F815
S2140050F0347C56F8307C45F10005A3FB07E715EB3A
S2140051000E0E54F8305C47F1000715EB0E0544F818
S214005110305C56F82C5C47F10007A3FB05E517EB5F
S2140051200E0E54F82C7C45F1000517EB0E0744F8DC
S2140051302C7C56F8287C45F10005A3FB07E715EB09
S2140051400E0E54F8285C47F1000715EB0E0544F8E0
S214005150285C56F8245C47F10007A3FB05E517EB2F
S2140051600E0E54F8247C45F1000517EB0E0744F8A4
S214005170247C56F8207C45F10005A3FB07E715EBD9
S2140051800E0E54F8205C47F1000715EB0E0544F8A8
S214005190205C56F81C5C47F10007A3FB05E517EBFF
S2140051A00E0E54F81C7C45F1000517EB0E0744F86C
S2140051B01C7C56F8187C45F10005A3FB07E715EBA9
S2140051C00E0E54F8185C47F1000715EB0E0544F870
S2140051D0185C56F8145C47F10007A3FB05E517EBCF
S2140051E00E0E54F8147C45F1000517EB0E0744F834
S2140051F0147C56F8107C45F10005A3FB07E715EB79
S2140052000E0E54F8105C47F1000715EB0E0544F837
S214005210105C56F80C5C47F10007A3FB05E517EB9E
S2140052200E0E54F80C7C45F1000517EB0E0744F8FB
S2140052300C7C56F8087C45F10005A3FB07E715EB48
S2140052400E0E54F8085C47F1000715EB0E0544F8FF
S214005250085C56F8045C54F8041CA3FB055E47F192
S21400526000077F194EF10005CF1945F1000544F8F7
S214005270047CACF1100C80E654F8042BA3FB02214E
S214005280AD1841F100023968491942F1000547F8A6
S214005290041BE9E603685B192CBF0125002540F8CE
S2140052A0043BE5E639B101F18041013900EB8101AB
S2140052B08142034600D270471B680A681BBA12BABE
S2140052C040F8042B41F80439F2E7002301228360FA
S2140052D0C0E90023704710B5044668B1806830B155
S2140052E06168890004F00AF8A068FFF7EAFA00236C
S2140052F00122C4E90023A36010BD42F21073994254
S21400530070B504460D4602D96FF00F0070BD4368B5
S2140053108B4216D204212846FFF7C2FA064600281A
S214005320F2D0A16859B16268920028F0DBF8616893
S214005330A068890003F0E2FFA068FFF7C2FAC4E99C
S21400534001560020E2E7884270B505460E4603D0B7
S2140053504C683CB9FFF7BFFF002011E0B36853F874
S214005360243013B9013C002CF8D16A683368013444
S214005370A2422B6005D221462846FFF7BEFF40B169
S21400538070BDA868121B0021920000EB840028F074
S214005390D0F8B168A868A20028F0A4F8DCE72DE9E8
S2140053A0F0410E46496805461446FFF7A6FFC8B901
S2140053B0624233682243C2F3C01253432968C2F1E3
S2140053C0010701FB07332B600346AC68D6F804C020
S2140053D0D6F808E0261F9C4506D16D6804EB8302CC
S2140053E09D420BD8BDE8F0815EF8231056F8048F76
S2140053F0514308FB071101333160ECE711680133B4
S214005400794342F8041BEBE770B50E4601210446CB
S214005410FFF773FF054688B9626801469200A068E8
S21400542028F087F8A36886EAE672002EA2EBE672FA
S2140054301A60B4BF4FF0FF3301232360284670BDC7
S2140054404368B1EB431F3FBF83684A0953F8220005
S21400545001F01F013ABF20FA01F101F0010000201F
S214005460704700210A46F0B54568954202D10024EF
S2140054702046F0BD836853F82260002326FA03F71F
S214005480FF0701EB0304F3D40133202B01EB0304E5
S214005490F4D121460132E8E70246406888B19268B6
S2140054A0431E7BB952F8231000204FF000421142F1
S2140054B004D1013020284FEA5202F8D10133C0EB64
S2140054C04310704752F823100029EBD1013BE8E760
S2140054D008B5FFF7E1FF0730C00808BDF8B512F0C1
S2140054E0030318BF012303EB920743680446BB423D
S2140054F00E46154618D100212046FFF785FF00BB53
S2140055000346AB421DD0F25CD4F808C0D90023F0A5
S214005510030701F0180102FA01F15CF807200133D5
S2140055200A434CF80720ECE7FFF7D5FE00230122DC
S21400553039462046C4E90023A360FFF7DEFE0028B4
S214005540D9D0F8BD2DE9F04112F0030618BF0126A8
S214005550436806EB9206B34204468846174608D1CF
S21400556000212046FFF750FF054688B12846BDE8D3
S214005570F081FFF7B0FE0023012231462046C4E941
S2140055800023A360FFF7B9FE05460028E8D0EDE744
S214005590B8F1000FEAD0A368C7EB860041463A464A
S2140055A0184427F09FFF3146A068FFF77BFEDDE733
S2140055B0F8B543680E46B2EB830F4FEA83041CD857
S2140055C01346A3420CD1944600239C4517D194421F
S2140055D004D20021121B301927F0ABFF00201CE07C
S2140055E0876803F0030523F0030CE90057F80C5016
S2140055F0CD40EDB27DB90133E3E7A446E4E7876822
S21400560003F0030123F0030ECD0057F80E10E94017
S214005610F1540133D9E76FF00700F8BDF8B504463A
S21400562063680846B2EB830F4FEA83051BD9521B0B
S2140056308E18002127F07DFF30462A460023811869
S2140056409A4212D10020F8BDA76803F0030123F0A8
S214005650030CCE0057F80C10F140C9B289B90133DB
S214005660AB42F1D1EAE71346FAE7A76803F0030076
S21400567023F00306C500B8590133E84001F8010DD0
S214005680DEE76FF00700DEE7F8B505460E464C0984
S21400569001F01F07FFF700FF6B683044B0EB431FB5
S2140056A004D81F2E0ED86FBB00200AE010F01F0192
S2140056B018BF012101EB50112846FFF71EFE0028F7
S2140056C0EFD0F8BD6FF003006B68604319469A0090
S2140056D0A142A2F104020CD8E21A9C4288BF002222
S2140056E0134400229B00043B191DDCD0A968CA5055
S2140056F0F9E7AE68013906EB020C5CF800C046F824
S21400570002C0E5E700226E68C7F1200CA642CBD99E
S214005710A86850F8241001FA07F3134340F8243021
S21400572021FA0CF20134F1E74368F0B44E09B342B3
S21400573001F01F0401D304D15CB3F0BC0021FFF7D5
S21400574063BE1F2927D804BBF0BC002070478268C0
S2140057505759043542F8217001319A1B8A42F6D80F
S21400576000219342EFD9856845F822100132F8E708
S214005770866856F8235025FA04F20A4346F8232092
S21400578005FA07F1013BF3D2DEE70021C4F120075A
S214005790F8E71F29D8D90021B500DEE730B5436801
S2140057A02BB94A6862B9181E18BF012028E0826823
S2140057B002EB830252F8042C002AF2D1013BEFE7F9
S2140057C08C6804EB820555F8045C35B9013AE9E7C4
S2140057D0012015E04FF0FF3012E0002BFAD0934284
S2140057E0F6D8F7D3013B826852F8231054F82320EA
S2140057F09142EDD803F1FF33ECD35A1CF3D10020CD
S21400580030BD024630B5436823B9486858B9002B06
S21400581036D12FE0906800EB830050F8040C002887
S214005820F3D1013BF0E78C6804EB800555F8045C87
S21400583015BB0138EAE702D20868404221E010684A
S2140058400968002803DD002907DA012019E000298D
S21400585003DD10B14FF0FF3013E0013B916851F8C3
S214005860235054F823108D420BD803F1FF33E4D3B2
S214005870591CF3D1002004E0002BDDD08342DAD996
S214005880106830BD1FB581EAE173A3EBE173002910
S2140058900093B4BF4FF0FF3301230193012301A906
S2140058A00293CDF80CD0FFF7ACFF05B05DF804FB13
S2140058B090422DE9F04106460F46154602D0884232
